{
  "contractName": "PSTAKE",
  "abi": [
    {
      "anonymous": false,
      "inputs": [
        {
          "indexed": true,
          "internalType": "address",
          "name": "owner",
          "type": "address"
        },
        {
          "indexed": true,
          "internalType": "address",
          "name": "spender",
          "type": "address"
        },
        {
          "indexed": false,
          "internalType": "uint256",
          "name": "value",
          "type": "uint256"
        }
      ],
      "name": "Approval",
      "type": "event"
    },
    {
      "anonymous": false,
      "inputs": [
        {
          "indexed": false,
          "internalType": "address",
          "name": "account",
          "type": "address"
        }
      ],
      "name": "Paused",
      "type": "event"
    },
    {
      "anonymous": false,
      "inputs": [
        {
          "indexed": true,
          "internalType": "bytes32",
          "name": "role",
          "type": "bytes32"
        },
        {
          "indexed": true,
          "internalType": "bytes32",
          "name": "previousAdminRole",
          "type": "bytes32"
        },
        {
          "indexed": true,
          "internalType": "bytes32",
          "name": "newAdminRole",
          "type": "bytes32"
        }
      ],
      "name": "RoleAdminChanged",
      "type": "event"
    },
    {
      "anonymous": false,
      "inputs": [
        {
          "indexed": true,
          "internalType": "bytes32",
          "name": "role",
          "type": "bytes32"
        },
        {
          "indexed": true,
          "internalType": "address",
          "name": "account",
          "type": "address"
        },
        {
          "indexed": true,
          "internalType": "address",
          "name": "sender",
          "type": "address"
        }
      ],
      "name": "RoleGranted",
      "type": "event"
    },
    {
      "anonymous": false,
      "inputs": [
        {
          "indexed": true,
          "internalType": "bytes32",
          "name": "role",
          "type": "bytes32"
        },
        {
          "indexed": true,
          "internalType": "address",
          "name": "account",
          "type": "address"
        },
        {
          "indexed": true,
          "internalType": "address",
          "name": "sender",
          "type": "address"
        }
      ],
      "name": "RoleRevoked",
      "type": "event"
    },
    {
      "anonymous": false,
      "inputs": [
        {
          "indexed": true,
          "internalType": "address",
          "name": "from",
          "type": "address"
        },
        {
          "indexed": true,
          "internalType": "address",
          "name": "to",
          "type": "address"
        },
        {
          "indexed": false,
          "internalType": "uint256",
          "name": "value",
          "type": "uint256"
        }
      ],
      "name": "Transfer",
      "type": "event"
    },
    {
      "anonymous": false,
      "inputs": [
        {
          "indexed": false,
          "internalType": "address",
          "name": "account",
          "type": "address"
        }
      ],
      "name": "Unpaused",
      "type": "event"
    },
    {
      "inputs": [],
      "name": "DEFAULT_ADMIN_ROLE",
      "outputs": [
        {
          "internalType": "bytes32",
          "name": "",
          "type": "bytes32"
        }
      ],
      "stateMutability": "view",
      "type": "function"
    },
    {
      "inputs": [],
      "name": "PAUSER_ROLE",
      "outputs": [
        {
          "internalType": "bytes32",
          "name": "",
          "type": "bytes32"
        }
      ],
      "stateMutability": "view",
      "type": "function"
    },
    {
      "inputs": [],
      "name": "_airdropPool",
      "outputs": [
        {
          "internalType": "address",
          "name": "",
          "type": "address"
        }
      ],
      "stateMutability": "view",
      "type": "function"
    },
    {
      "inputs": [],
      "name": "_communityDevelopmentFundPool",
      "outputs": [
        {
          "internalType": "address",
          "name": "",
          "type": "address"
        }
      ],
      "stateMutability": "view",
      "type": "function"
    },
    {
      "inputs": [],
      "name": "_communityDevelopmentFundPool2",
      "outputs": [
        {
          "internalType": "address",
          "name": "",
          "type": "address"
        }
      ],
      "stateMutability": "view",
      "type": "function"
    },
    {
      "inputs": [],
      "name": "_incentivisationPool",
      "outputs": [
        {
          "internalType": "address",
          "name": "",
          "type": "address"
        }
      ],
      "stateMutability": "view",
      "type": "function"
    },
    {
      "inputs": [],
      "name": "_protocolTreasuryPool",
      "outputs": [
        {
          "internalType": "address",
          "name": "",
          "type": "address"
        }
      ],
      "stateMutability": "view",
      "type": "function"
    },
    {
      "inputs": [],
      "name": "_seedSalePool",
      "outputs": [
        {
          "internalType": "address",
          "name": "",
          "type": "address"
        }
      ],
      "stateMutability": "view",
      "type": "function"
    },
    {
      "inputs": [],
      "name": "_strategicFoundationSalePool",
      "outputs": [
        {
          "internalType": "address",
          "name": "",
          "type": "address"
        }
      ],
      "stateMutability": "view",
      "type": "function"
    },
    {
      "inputs": [],
      "name": "_teamPool",
      "outputs": [
        {
          "internalType": "address",
          "name": "",
          "type": "address"
        }
      ],
      "stateMutability": "view",
      "type": "function"
    },
    {
      "inputs": [],
      "name": "_version",
      "outputs": [
        {
          "internalType": "uint256",
          "name": "",
          "type": "uint256"
        }
      ],
      "stateMutability": "view",
      "type": "function"
    },
    {
      "inputs": [],
      "name": "_vestingTimelockAddress",
      "outputs": [
        {
          "internalType": "address",
          "name": "",
          "type": "address"
        }
      ],
      "stateMutability": "view",
      "type": "function"
    },
    {
      "inputs": [],
      "name": "_xprtStakersPool",
      "outputs": [
        {
          "internalType": "address",
          "name": "",
          "type": "address"
        }
      ],
      "stateMutability": "view",
      "type": "function"
    },
    {
      "inputs": [
        {
          "internalType": "address",
          "name": "owner",
          "type": "address"
        },
        {
          "internalType": "address",
          "name": "spender",
          "type": "address"
        }
      ],
      "name": "allowance",
      "outputs": [
        {
          "internalType": "uint256",
          "name": "",
          "type": "uint256"
        }
      ],
      "stateMutability": "view",
      "type": "function"
    },
    {
      "inputs": [
        {
          "internalType": "address",
          "name": "spender",
          "type": "address"
        },
        {
          "internalType": "uint256",
          "name": "amount",
          "type": "uint256"
        }
      ],
      "name": "approve",
      "outputs": [
        {
          "internalType": "bool",
          "name": "",
          "type": "bool"
        }
      ],
      "stateMutability": "nonpayable",
      "type": "function"
    },
    {
      "inputs": [
        {
          "internalType": "address",
          "name": "account",
          "type": "address"
        }
      ],
      "name": "balanceOf",
      "outputs": [
        {
          "internalType": "uint256",
          "name": "",
          "type": "uint256"
        }
      ],
      "stateMutability": "view",
      "type": "function"
    },
    {
      "inputs": [],
      "name": "decimals",
      "outputs": [
        {
          "internalType": "uint8",
          "name": "",
          "type": "uint8"
        }
      ],
      "stateMutability": "view",
      "type": "function"
    },
    {
      "inputs": [
        {
          "internalType": "address",
          "name": "spender",
          "type": "address"
        },
        {
          "internalType": "uint256",
          "name": "subtractedValue",
          "type": "uint256"
        }
      ],
      "name": "decreaseAllowance",
      "outputs": [
        {
          "internalType": "bool",
          "name": "",
          "type": "bool"
        }
      ],
      "stateMutability": "nonpayable",
      "type": "function"
    },
    {
      "inputs": [
        {
          "internalType": "bytes32",
          "name": "role",
          "type": "bytes32"
        }
      ],
      "name": "getRoleAdmin",
      "outputs": [
        {
          "internalType": "bytes32",
          "name": "",
          "type": "bytes32"
        }
      ],
      "stateMutability": "view",
      "type": "function"
    },
    {
      "inputs": [
        {
          "internalType": "bytes32",
          "name": "role",
          "type": "bytes32"
        },
        {
          "internalType": "uint256",
          "name": "index",
          "type": "uint256"
        }
      ],
      "name": "getRoleMember",
      "outputs": [
        {
          "internalType": "address",
          "name": "",
          "type": "address"
        }
      ],
      "stateMutability": "view",
      "type": "function"
    },
    {
      "inputs": [
        {
          "internalType": "bytes32",
          "name": "role",
          "type": "bytes32"
        }
      ],
      "name": "getRoleMemberCount",
      "outputs": [
        {
          "internalType": "uint256",
          "name": "",
          "type": "uint256"
        }
      ],
      "stateMutability": "view",
      "type": "function"
    },
    {
      "inputs": [
        {
          "internalType": "bytes32",
          "name": "role",
          "type": "bytes32"
        },
        {
          "internalType": "address",
          "name": "account",
          "type": "address"
        }
      ],
      "name": "grantRole",
      "outputs": [],
      "stateMutability": "nonpayable",
      "type": "function"
    },
    {
      "inputs": [
        {
          "internalType": "bytes32",
          "name": "role",
          "type": "bytes32"
        },
        {
          "internalType": "address",
          "name": "account",
          "type": "address"
        }
      ],
      "name": "hasRole",
      "outputs": [
        {
          "internalType": "bool",
          "name": "",
          "type": "bool"
        }
      ],
      "stateMutability": "view",
      "type": "function"
    },
    {
      "inputs": [
        {
          "internalType": "address",
          "name": "spender",
          "type": "address"
        },
        {
          "internalType": "uint256",
          "name": "addedValue",
          "type": "uint256"
        }
      ],
      "name": "increaseAllowance",
      "outputs": [
        {
          "internalType": "bool",
          "name": "",
          "type": "bool"
        }
      ],
      "stateMutability": "nonpayable",
      "type": "function"
    },
    {
      "inputs": [],
      "name": "name",
      "outputs": [
        {
          "internalType": "string",
          "name": "",
          "type": "string"
        }
      ],
      "stateMutability": "view",
      "type": "function"
    },
    {
      "inputs": [],
      "name": "paused",
      "outputs": [
        {
          "internalType": "bool",
          "name": "",
          "type": "bool"
        }
      ],
      "stateMutability": "view",
      "type": "function"
    },
    {
      "inputs": [
        {
          "internalType": "bytes32",
          "name": "role",
          "type": "bytes32"
        },
        {
          "internalType": "address",
          "name": "account",
          "type": "address"
        }
      ],
      "name": "renounceRole",
      "outputs": [],
      "stateMutability": "nonpayable",
      "type": "function"
    },
    {
      "inputs": [
        {
          "internalType": "bytes32",
          "name": "role",
          "type": "bytes32"
        },
        {
          "internalType": "address",
          "name": "account",
          "type": "address"
        }
      ],
      "name": "revokeRole",
      "outputs": [],
      "stateMutability": "nonpayable",
      "type": "function"
    },
    {
      "inputs": [],
      "name": "symbol",
      "outputs": [
        {
          "internalType": "string",
          "name": "",
          "type": "string"
        }
      ],
      "stateMutability": "view",
      "type": "function"
    },
    {
      "inputs": [],
      "name": "totalSupply",
      "outputs": [
        {
          "internalType": "uint256",
          "name": "",
          "type": "uint256"
        }
      ],
      "stateMutability": "view",
      "type": "function"
    },
    {
      "inputs": [
        {
          "internalType": "address",
          "name": "recipient",
          "type": "address"
        },
        {
          "internalType": "uint256",
          "name": "amount",
          "type": "uint256"
        }
      ],
      "name": "transfer",
      "outputs": [
        {
          "internalType": "bool",
          "name": "",
          "type": "bool"
        }
      ],
      "stateMutability": "nonpayable",
      "type": "function"
    },
    {
      "inputs": [
        {
          "internalType": "address",
          "name": "sender",
          "type": "address"
        },
        {
          "internalType": "address",
          "name": "recipient",
          "type": "address"
        },
        {
          "internalType": "uint256",
          "name": "amount",
          "type": "uint256"
        }
      ],
      "name": "transferFrom",
      "outputs": [
        {
          "internalType": "bool",
          "name": "",
          "type": "bool"
        }
      ],
      "stateMutability": "nonpayable",
      "type": "function"
    },
    {
      "inputs": [
        {
          "internalType": "address",
          "name": "pauserAddress",
          "type": "address"
        },
        {
          "internalType": "address",
          "name": "vestingTimelockAddress",
          "type": "address"
        },
        {
          "internalType": "address",
          "name": "airdropPool",
          "type": "address"
        },
        {
          "internalType": "address",
          "name": "seedSalePool",
          "type": "address"
        },
        {
          "internalType": "address",
          "name": "strategicFoundationSalePool",
          "type": "address"
        },
        {
          "internalType": "address",
          "name": "teamPool",
          "type": "address"
        },
        {
          "internalType": "address",
          "name": "incentivisationPool",
          "type": "address"
        },
        {
          "internalType": "address",
          "name": "xprtStakersPool",
          "type": "address"
        },
        {
          "internalType": "address",
          "name": "protocolTreasuryPool",
          "type": "address"
        },
        {
          "internalType": "address",
          "name": "communityDevelopmentFundPool",
          "type": "address"
        },
        {
          "internalType": "address",
          "name": "communityDevelopmentFundPool2",
          "type": "address"
        }
      ],
      "name": "initialize",
      "outputs": [],
      "stateMutability": "nonpayable",
      "type": "function"
    },
    {
      "inputs": [
        {
          "internalType": "address",
          "name": "to",
          "type": "address"
        },
        {
          "internalType": "uint256",
          "name": "tokens",
          "type": "uint256"
        }
      ],
      "name": "mint",
      "outputs": [
        {
          "internalType": "bool",
          "name": "success",
          "type": "bool"
        }
      ],
      "stateMutability": "nonpayable",
      "type": "function"
    },
    {
      "inputs": [],
      "name": "pause",
      "outputs": [
        {
          "internalType": "bool",
          "name": "success",
          "type": "bool"
        }
      ],
      "stateMutability": "nonpayable",
      "type": "function"
    },
    {
      "inputs": [],
      "name": "unpause",
      "outputs": [
        {
          "internalType": "bool",
          "name": "success",
          "type": "bool"
        }
      ],
      "stateMutability": "nonpayable",
      "type": "function"
    }
  ],
  "bytecode": "0x608060405234801561001057600080fd5b50612557806100206000396000f3fe608060405234801561001057600080fd5b506004361061021c5760003560e01c80637106796311610125578063a9059cbb116100ad578063ca15c8731161007c578063ca15c873146105f8578063cb31a85f14610615578063d547741f1461061d578063dd62ed3e14610649578063e63ab1e9146106775761021c565b8063a9059cbb146105b4578063b37e02a0146105e0578063b4029d5e146105e8578063c32ab7f7146105f05761021c565b806391d14854116100f457806391d148541461054457806395d89b411461057057806398e8fd0214610578578063a217fddf14610580578063a457c2d7146105885761021c565b8063710679631461049557806376902b831461049d5780638456cb59146105195780639010d07c146105215761021c565b8063313ce567116101a85780633f4ba83a116101775780633f4ba83a1461042b57806340c10f19146104335780634b5c79ad1461045f5780635c975abb1461046757806370a082311461046f5761021c565b8063313ce567146103ad57806336568abe146103cb57806339509351146103f75780633e118dbe146104235761021c565b806323b872dd116101ef57806323b872dd1461031c578063248a9ca3146103525780632bbb45011461036f5780632cc39ff5146103775780632f2ff15d1461037f5761021c565b806306fdde0314610221578063095ea7b31461029e5780630e054f02146102de57806318160ddd14610302575b600080fd5b61022961067f565b6040805160208082528351818301528351919283929083019185019080838360005b8381101561026357818101518382015260200161024b565b50505050905090810190601f1680156102905780820380516001836020036101000a031916815260200191505b509250505060405180910390f35b6102ca600480360360408110156102b457600080fd5b506001600160a01b038135169060200135610715565b604080519115158252519081900360200190f35b6102e6610733565b604080516001600160a01b039092168252519081900360200190f35b61030a610742565b60408051918252519081900360200190f35b6102ca6004803603606081101561033257600080fd5b506001600160a01b03813581169160208101359091169060400135610748565b61030a6004803603602081101561036857600080fd5b50356107cf565b6102e66107e4565b6102e66107f3565b6103ab6004803603604081101561039557600080fd5b50803590602001356001600160a01b0316610802565b005b6103b561086e565b6040805160ff9092168252519081900360200190f35b6103ab600480360360408110156103e157600080fd5b50803590602001356001600160a01b0316610877565b6102ca6004803603604081101561040d57600080fd5b506001600160a01b0381351690602001356108d8565b61030a610926565b6102ca61092c565b6102ca6004803603604081101561044957600080fd5b506001600160a01b03813516906020013561098d565b6102e66109dc565b6102ca6109eb565b61030a6004803603602081101561048557600080fd5b50356001600160a01b03166109f4565b6102e6610a0f565b6103ab60048036036101608110156104b457600080fd5b506001600160a01b038135811691602081013582169160408201358116916060810135821691608082013581169160a081013582169160c082013581169160e08101358216916101008201358116916101208101358216916101409091013516610a1e565b6102ca61136a565b6102e66004803603604081101561053757600080fd5b50803590602001356113c5565b6102ca6004803603604081101561055a57600080fd5b50803590602001356001600160a01b03166113e4565b6102296113fc565b6102e661145d565b61030a61146c565b6102ca6004803603604081101561059e57600080fd5b506001600160a01b038135169060200135611471565b6102ca600480360360408110156105ca57600080fd5b506001600160a01b0381351690602001356114d9565b6102e66114ed565b6102e66114fc565b6102e661150b565b61030a6004803603602081101561060e57600080fd5b503561151a565b6102e6611531565b6103ab6004803603604081101561063357600080fd5b50803590602001356001600160a01b0316611540565b61030a6004803603604081101561065f57600080fd5b506001600160a01b0381358116916020013516611599565b61030a6115c4565b60368054604080516020601f600260001961010060018816150201909516949094049384018190048102820181019092528281526060939092909183018282801561070b5780601f106106e05761010080835404028352916020019161070b565b820191906000526020600020905b8154815290600101906020018083116106ee57829003601f168201915b5050505050905090565b60006107296107226115d6565b84846115da565b5060015b92915050565b60ca546001600160a01b031681565b60355490565b60006107558484846116c6565b6107c5846107616115d6565b6107c08560405180606001604052806028815260200161243d602891396001600160a01b038a1660009081526034602052604081209061079f6115d6565b6001600160a01b031681526020810191909152604001600020549190611823565b6115da565b5060019392505050565b60009081526097602052604090206002015490565b60d2546001600160a01b031681565b60ce546001600160a01b031681565b600082815260976020526040902060020154610825906108206115d6565b6113e4565b6108605760405162461bcd60e51b815260040180806020018281038252602f815260200180612368602f913960400191505060405180910390fd5b61086a82826118ba565b5050565b60385460ff1690565b61087f6115d6565b6001600160a01b0316816001600160a01b0316146108ce5760405162461bcd60e51b815260040180806020018281038252602f8152602001806124f3602f913960400191505060405180910390fd5b61086a8282611923565b60006107296108e56115d6565b846107c085603460006108f66115d6565b6001600160a01b03908116825260208083019390935260409182016000908120918c16815292529020549061198c565b60c95481565b60006109486000805160206124658339815191526108206115d6565b61097f576040805162461bcd60e51b81526020600482015260036024820152621414cd60ea1b604482015290519081900360640190fd5b6109876119e6565b50600190565b600061099b816108206115d6565b6109d2576040805162461bcd60e51b815260206004820152600360248201526228299960e91b604482015290519081900360640190fd5b6107298383611a86565b60cb546001600160a01b031681565b60655460ff1690565b6001600160a01b031660009081526033602052604090205490565b60d1546001600160a01b031681565b600054610100900460ff1680610a375750610a37611b78565b80610a45575060005460ff16155b610a805760405162461bcd60e51b815260040180806020018281038252602e81526020018061240f602e913960400191505060405180910390fd5b600054610100900460ff16158015610aab576000805460ff1961ff0019909116610100171660011790555b610af76040518060400160405280600c81526020016b3829aa20a5a2902a37b5b2b760a11b81525060405180604001604052806006815260200165505354414b4560d01b815250611b89565b610aff611c3f565b610b07611cf1565b610b196000610b146115d6565b610860565b610b316000805160206124658339815191528d610860565b610b3b6012611d8e565b600160c95560d380546001600160a01b03199081166001600160a01b038e81169190911790925560ca805482168d8416179081905560cb805483168d851617905560cc805483168c851617905560cd805483168b851617905560ce805483168a851617905560cf8054831689851617905560d08054831688851617905560d18054831687851617905560d2805490921685841617909155610be891166a108b2a2c28029094000000611a86565b60ce54610c09906001600160a01b03166a108b2a2c28029094000000611a86565b60cf54610c2a906001600160a01b03166a01b929c32f4f66d4580000611a86565b60d054610c4b906001600160a01b03166a052b7d2dcc80cd2e400000611a86565b60d154610c6c906001600160a01b03166a0295be96e6406697200000611a86565b610c82306b017306646fb62a62b2480000611a86565b60d354610ca69030906001600160a01b03166b017306646fb62a62b24800006115da565b60d35460ca546040805163dc76511160e01b81523060048201526001600160a01b03928316602482015242604482015262f099c060648201526a084595161401484a0000006084820152600160a4820152600060c4820181905260e482018190529151929093169263dc765111926101048083019360209383900390910190829087803b158015610d3657600080fd5b505af1158015610d4a573d6000803e3d6000fd5b505050506040513d6020811015610d6057600080fd5b505060d35460cb546040805163dc76511160e01b81523060048201526001600160a01b03928316602482015242604482015262f099c060648201526a037253787de81a014c00006084820152600c60a4820152622819a060c4820152600060e482018190529151929093169263dc765111926101048083019360209383900390910190829087803b158015610df457600080fd5b505af1158015610e08573d6000803e3d6000fd5b505050506040513d6020811015610e1e57600080fd5b505060d35460cc546040805163dc76511160e01b81523060048201526001600160a01b03928316602482015242604482015262f099c060648201526a0108b2a2c28029094000006084820152600c60a4820152622819a060c4820152600060e482018190529151929093169263dc765111926101048083019360209383900390910190829087803b158015610eb257600080fd5b505af1158015610ec6573d6000803e3d6000fd5b505050506040513d6020811015610edc57600080fd5b505060d35460cd546040805163dc76511160e01b81523060048201526001600160a01b0392831660248201524260448201526301e1338060648201526a037253787de81a014c00006084820152601260a4820152622819a060c4820152600060e482018190529151929093169263dc765111926101048083019360209383900390910190829087803b158015610f7157600080fd5b505af1158015610f85573d6000803e3d6000fd5b505050506040513d6020811015610f9b57600080fd5b505060d35460ce546040805163dc76511160e01b81523060048201526001600160a01b03928316602482015242604482015262784ce0606482018190526a108b2a2c280290940000006084830152600860a483015260c4820152600060e482018190529151929093169263dc765111926101048083019360209383900390910190829087803b15801561102d57600080fd5b505af1158015611041573d6000803e3d6000fd5b505050506040513d602081101561105757600080fd5b505060d35460cf546040805163dc76511160e01b81523060048201526001600160a01b039283166024820152426044820152622819a0606482018190526a01b929b54e98b32cf400006084830152600b60a483015260c4820152600060e482018190529151929093169263dc765111926101048083019360209383900390910190829087803b1580156110e957600080fd5b505af11580156110fd573d6000803e3d6000fd5b505050506040513d602081101561111357600080fd5b505060d35460d0546040805163dc76511160e01b81523060048201526001600160a01b03928316602482015242604482015262784ce0606482018190526a052b7d2dcc80cd2e4000006084830152600b60a483015260c4820152600060e482018190529151929093169263dc765111926101048083019360209383900390910190829087803b1580156111a557600080fd5b505af11580156111b9573d6000803e3d6000fd5b505050506040513d60208110156111cf57600080fd5b505060d35460d1546040805163dc76511160e01b81523060048201526001600160a01b03928316602482015242604482015262784ce0606482018190526a0295be96e64066972000006084830152600e60a483015260c4820152600060e482018190529151929093169263dc765111926101048083019360209383900390910190829087803b15801561126157600080fd5b505af1158015611275573d6000803e3d6000fd5b505050506040513d602081101561128b57600080fd5b505060d35460d2546040805163dc76511160e01b81523060048201526001600160a01b039283166024820152426044820152630694344060648201526a0295be96e64066972000006084820152600160a4820152600060c4820181905260e482018190529151929093169263dc765111926101048083019360209383900390910190829087803b15801561131e57600080fd5b505af1158015611332573d6000803e3d6000fd5b505050506040513d602081101561134857600080fd5b5050801561135c576000805461ff00191690555b505050505050505050505050565b60006113866000805160206124658339815191526108206115d6565b6113bd576040805162461bcd60e51b815260206004820152600360248201526250533360e81b604482015290519081900360640190fd5b610987611da4565b60008281526097602052604081206113dd9083611e27565b9392505050565b60008281526097602052604081206113dd9083611e33565b60378054604080516020601f600260001961010060018816150201909516949094049384018190048102820181019092528281526060939092909183018282801561070b5780601f106106e05761010080835404028352916020019161070b565b60cf546001600160a01b031681565b600081565b600061072961147e6115d6565b846107c0856040518060600160405280602581526020016124ce60259139603460006114a86115d6565b6001600160a01b03908116825260208083019390935260409182016000908120918d16815292529020549190611823565b60006107296114e66115d6565b84846116c6565b60cc546001600160a01b031681565b60cd546001600160a01b031681565b60d0546001600160a01b031681565b600081815260976020526040812061072d90611e48565b60d3546001600160a01b031681565b60008281526097602052604090206002015461155e906108206115d6565b6108ce5760405162461bcd60e51b81526004018080602001828103825260308152602001806123df6030913960400191505060405180910390fd5b6001600160a01b03918216600090815260346020908152604080832093909416825291909152205490565b60008051602061246583398151915281565b3390565b6001600160a01b03831661161f5760405162461bcd60e51b81526004018080602001828103825260248152602001806124aa6024913960400191505060405180910390fd5b6001600160a01b0382166116645760405162461bcd60e51b81526004018080602001828103825260228152602001806123976022913960400191505060405180910390fd5b6001600160a01b03808416600081815260346020908152604080832094871680845294825291829020859055815185815291517f8c5be1e5ebec7d5bd14f71427d1e84f3dd0314c0f7b2291e5b200ac8c7c3b9259281900390910190a3505050565b6001600160a01b03831661170b5760405162461bcd60e51b81526004018080602001828103825260258152602001806124856025913960400191505060405180910390fd5b6001600160a01b0382166117505760405162461bcd60e51b81526004018080602001828103825260238152602001806123456023913960400191505060405180910390fd5b61175b838383611e53565b611798816040518060600160405280602681526020016123b9602691396001600160a01b0386166000908152603360205260409020549190611823565b6001600160a01b0380851660009081526033602052604080822093909355908416815220546117c7908261198c565b6001600160a01b0380841660008181526033602090815260409182902094909455805185815290519193928716927fddf252ad1be2c89b69c2b068fc378daa952ba7f163c4a11628f55a4df523b3ef92918290030190a3505050565b600081848411156118b25760405162461bcd60e51b81526004018080602001828103825283818151815260200191508051906020019080838360005b8381101561187757818101518382015260200161185f565b50505050905090810190601f1680156118a45780820380516001836020036101000a031916815260200191505b509250505060405180910390fd5b505050900390565b60008281526097602052604090206118d29082611e9e565b1561086a576118df6115d6565b6001600160a01b0316816001600160a01b0316837f2f8788117e7eff1d82e926ec794901d17c78024a50270940304540a733656f0d60405160405180910390a45050565b600082815260976020526040902061193b9082611eb3565b1561086a576119486115d6565b6001600160a01b0316816001600160a01b0316837ff6391f5c32d9c69d2a47ea670b442974b53935d1edc7fd64eb21e047a839171b60405160405180910390a45050565b6000828201838110156113dd576040805162461bcd60e51b815260206004820152601b60248201527f536166654d6174683a206164646974696f6e206f766572666c6f770000000000604482015290519081900360640190fd5b6119ee6109eb565b611a36576040805162461bcd60e51b815260206004820152601460248201527314185d5cd8589b194e881b9bdd081c185d5cd95960621b604482015290519081900360640190fd5b6065805460ff191690557f5db9ee0a495bf2e6ff9c91a7834c1ba4fdd244a5e8aa4e537bd38aeae4b073aa611a696115d6565b604080516001600160a01b039092168252519081900360200190a1565b6001600160a01b038216611ae1576040805162461bcd60e51b815260206004820152601f60248201527f45524332303a206d696e7420746f20746865207a65726f206164647265737300604482015290519081900360640190fd5b611aed60008383611e53565b603554611afa908261198c565b6035556001600160a01b038216600090815260336020526040902054611b20908261198c565b6001600160a01b03831660008181526033602090815260408083209490945583518581529351929391927fddf252ad1be2c89b69c2b068fc378daa952ba7f163c4a11628f55a4df523b3ef9281900390910190a35050565b6000611b8330611ec8565b15905090565b600054610100900460ff1680611ba25750611ba2611b78565b80611bb0575060005460ff16155b611beb5760405162461bcd60e51b815260040180806020018281038252602e81526020018061240f602e913960400191505060405180910390fd5b600054610100900460ff16158015611c16576000805460ff1961ff0019909116610100171660011790555b611c1e611ece565b611c288383611f6e565b8015611c3a576000805461ff00191690555b505050565b600054610100900460ff1680611c585750611c58611b78565b80611c66575060005460ff16155b611ca15760405162461bcd60e51b815260040180806020018281038252602e81526020018061240f602e913960400191505060405180910390fd5b600054610100900460ff16158015611ccc576000805460ff1961ff0019909116610100171660011790555b611cd4611ece565b611cdc611ece565b8015611cee576000805461ff00191690555b50565b600054610100900460ff1680611d0a5750611d0a611b78565b80611d18575060005460ff16155b611d535760405162461bcd60e51b815260040180806020018281038252602e81526020018061240f602e913960400191505060405180910390fd5b600054610100900460ff16158015611d7e576000805460ff1961ff0019909116610100171660011790555b611d86611ece565b611cdc612046565b6038805460ff191660ff92909216919091179055565b611dac6109eb565b15611df1576040805162461bcd60e51b815260206004820152601060248201526f14185d5cd8589b194e881c185d5cd95960821b604482015290519081900360640190fd5b6065805460ff191660011790557f62e78cea01bee320cd4e420270b5ea74000d11b0c9f74754ebdbfc544b05a258611a696115d6565b60006113dd83836120f1565b60006113dd836001600160a01b038416612155565b600061072d8261216d565b611e5b6109eb565b15611e93576040805162461bcd60e51b815260206004820152600360248201526250533560e81b604482015290519081900360640190fd5b611c3a838383611c3a565b60006113dd836001600160a01b038416612171565b60006113dd836001600160a01b0384166121bb565b3b151590565b600054610100900460ff1680611ee75750611ee7611b78565b80611ef5575060005460ff16155b611f305760405162461bcd60e51b815260040180806020018281038252602e81526020018061240f602e913960400191505060405180910390fd5b600054610100900460ff16158015611cdc576000805460ff1961ff0019909116610100171660011790558015611cee576000805461ff001916905550565b600054610100900460ff1680611f875750611f87611b78565b80611f95575060005460ff16155b611fd05760405162461bcd60e51b815260040180806020018281038252602e81526020018061240f602e913960400191505060405180910390fd5b600054610100900460ff16158015611ffb576000805460ff1961ff0019909116610100171660011790555b825161200e906036906020860190612281565b508151612022906037906020850190612281565b506038805460ff191660121790558015611c3a576000805461ff0019169055505050565b600054610100900460ff168061205f575061205f611b78565b8061206d575060005460ff16155b6120a85760405162461bcd60e51b815260040180806020018281038252602e81526020018061240f602e913960400191505060405180910390fd5b600054610100900460ff161580156120d3576000805460ff1961ff0019909116610100171660011790555b6065805460ff191690558015611cee576000805461ff001916905550565b815460009082106121335760405162461bcd60e51b81526004018080602001828103825260228152602001806123236022913960400191505060405180910390fd5b82600001828154811061214257fe5b9060005260206000200154905092915050565b60009081526001919091016020526040902054151590565b5490565b600061217d8383612155565b6121b35750815460018181018455600084815260208082209093018490558454848252828601909352604090209190915561072d565b50600061072d565b6000818152600183016020526040812054801561227757835460001980830191908101906000908790839081106121ee57fe5b906000526020600020015490508087600001848154811061220b57fe5b60009182526020808320909101929092558281526001898101909252604090209084019055865487908061223b57fe5b6001900381819060005260206000200160009055905586600101600087815260200190815260200160002060009055600194505050505061072d565b600091505061072d565b828054600181600116156101000203166002900490600052602060002090601f0160209004810192826122b757600085556122fd565b82601f106122d057805160ff19168380011785556122fd565b828001600101855582156122fd579182015b828111156122fd5782518255916020019190600101906122e2565b5061230992915061230d565b5090565b5b80821115612309576000815560010161230e56fe456e756d657261626c655365743a20696e646578206f7574206f6620626f756e647345524332303a207472616e7366657220746f20746865207a65726f2061646472657373416363657373436f6e74726f6c3a2073656e646572206d75737420626520616e2061646d696e20746f206772616e7445524332303a20617070726f766520746f20746865207a65726f206164647265737345524332303a207472616e7366657220616d6f756e7420657863656564732062616c616e6365416363657373436f6e74726f6c3a2073656e646572206d75737420626520616e2061646d696e20746f207265766f6b65496e697469616c697a61626c653a20636f6e747261637420697320616c726561647920696e697469616c697a656445524332303a207472616e7366657220616d6f756e74206578636565647320616c6c6f77616e636565d7a28e3265b37a6474929f336521b332c1681b933f6cb9f3376673440d862a45524332303a207472616e736665722066726f6d20746865207a65726f206164647265737345524332303a20617070726f76652066726f6d20746865207a65726f206164647265737345524332303a2064656372656173656420616c6c6f77616e63652062656c6f77207a65726f416363657373436f6e74726f6c3a2063616e206f6e6c792072656e6f756e636520726f6c657320666f722073656c66a2646970667358221220c0b558e203cb3ded06cbca412c6e4f08f6230b5811303e2e7e84645798679ad864736f6c63430007060033",
  "immutableReferences": {},
  "source": "// SPDX-License-Identifier: UNLICENSED\npragma solidity >=0.7.0;\n\nimport \"@openzeppelin/contracts-upgradeable/token/ERC20/ERC20Upgradeable.sol\";\nimport \"@openzeppelin/contracts-upgradeable/utils/PausableUpgradeable.sol\";\nimport \"@openzeppelin/contracts-upgradeable/access/AccessControlUpgradeable.sol\";\nimport \"./interfaces/IVestingTimelockV2.sol\";\n\ncontract PSTAKE is\n  ERC20Upgradeable,\n  PausableUpgradeable,\n  AccessControlUpgradeable\n{\n  // constants defining access control ROLES\n  bytes32 public constant PAUSER_ROLE = keccak256(\"PAUSER_ROLE\");\n\n  // variable pertaining to contract upgrades versioning\n  uint256 public _version;\n\n  // addresses pertaining to various tokenomics strategy\n  address public _airdropPool;\n  address public _seedSalePool;\n  address public _strategicFoundationSalePool;\n  address public _teamPool;\n  address public _incentivisationPool;\n  address public _xprtStakersPool;\n  address public _protocolTreasuryPool;\n  address public _communityDevelopmentFundPool;\n  address public _communityDevelopmentFundPool2;\n\n  // address of vesting timelock contract to enable several vesting strategy\n  address public _vestingTimelockAddress;\n\n  /**\n   * @dev Constructor for initializing the UToken contract.\n   * @param pauserAddress - address of the pauser admin.\n   */\n  function initialize(\n    address pauserAddress,\n    address vestingTimelockAddress,\n    address airdropPool,\n    address seedSalePool,\n    address strategicFoundationSalePool,\n    address teamPool,\n    address incentivisationPool,\n    address xprtStakersPool,\n    address protocolTreasuryPool,\n    address communityDevelopmentFundPool,\n    address communityDevelopmentFundPool2\n  ) public virtual initializer {\n    __ERC20_init(\"pSTAKE Token\", \"PSTAKE\");\n    __AccessControl_init();\n    __Pausable_init();\n    _setupRole(DEFAULT_ADMIN_ROLE, _msgSender());\n    _setupRole(PAUSER_ROLE, pauserAddress);\n\n    // PSTAKE is an erc20 token hence 18 decimal places\n    _setupDecimals(18);\n\n    // setup the version and vesting timelock contract\n    _version = 1;\n    _vestingTimelockAddress = vestingTimelockAddress;\n\n    // allocate the various tokenomics strategy pool addresses\n    _airdropPool = airdropPool;\n    _seedSalePool = seedSalePool;\n    _strategicFoundationSalePool = strategicFoundationSalePool;\n    _teamPool = teamPool;\n    _incentivisationPool = incentivisationPool;\n    _xprtStakersPool = xprtStakersPool;\n    _protocolTreasuryPool = protocolTreasuryPool;\n    _communityDevelopmentFundPool = communityDevelopmentFundPool;\n    _communityDevelopmentFundPool2 = communityDevelopmentFundPool2;\n\n    // pre-allocate tokens to strategy pools\n    _mint(_airdropPool, uint256(20000000e18));\n    _mint(_incentivisationPool, uint256(20000000e18));\n    _mint(_xprtStakersPool, uint256(2083334e18));\n    _mint(_protocolTreasuryPool, uint256(6250000e18));\n    _mint(_communityDevelopmentFundPool, uint256(3125000e18));\n\n    // accumulate tokens to allocate for vesting strategies (total supply - initial circulating supply)\n    _mint(address(this), uint256(448541666e18));\n\n    // approve the vesting timelock contract to pull the tokens\n    _approve(address(this), _vestingTimelockAddress, uint256(448541666e18));\n    // create vesting strategies\n\n    // airdrop pool\n    IVestingTimelockV2(_vestingTimelockAddress).addGrantAsInstalment(\n      address(this),\n      _airdropPool,\n      block.timestamp,\n      (182 days + 12 hours),\n      uint256(10000000e18),\n      1,\n      0,\n      false\n    );\n\n    // seedSale pool\n    IVestingTimelockV2(_vestingTimelockAddress).addGrantAsInstalment(\n      address(this),\n      _seedSalePool,\n      block.timestamp,\n      // 6 months\n      (182 days + 12 hours),\n      uint256(4166667e18),\n      12,\n      // 1 month\n      (30 days + 10 hours),\n      false\n    );\n\n    // strategicFoundationSale pool\n    IVestingTimelockV2(_vestingTimelockAddress).addGrantAsInstalment(\n      address(this),\n      _strategicFoundationSalePool,\n      block.timestamp,\n      // 6 months\n      (182 days + 12 hours),\n      uint256(1250000e18),\n      12,\n      // 1 month\n      (30 days + 10 hours),\n      false\n    );\n\n    // team pool\n    IVestingTimelockV2(_vestingTimelockAddress).addGrantAsInstalment(\n      address(this),\n      _teamPool,\n      block.timestamp,\n      // 12 months\n      365 days,\n      uint256(4166667e18),\n      18,\n      // 1 month\n      (30 days + 10 hours),\n      false\n    );\n\n    // incentivisation pool\n    IVestingTimelockV2(_vestingTimelockAddress).addGrantAsInstalment(\n      address(this),\n      _incentivisationPool,\n      block.timestamp,\n      // 3 months\n      (91 days + 6 hours),\n      uint256(20000000e18),\n      8,\n      // 3 months\n      (91 days + 6 hours),\n      false\n    );\n\n    // xprtStakers pool\n    IVestingTimelockV2(_vestingTimelockAddress).addGrantAsInstalment(\n      address(this),\n      _xprtStakersPool,\n      block.timestamp,\n      // 1 month\n      (30 days + 10 hours),\n      uint256(2083333e18),\n      11,\n      // 1 month\n      (30 days + 10 hours),\n      false\n    );\n\n    // protocolTreasury pool\n    IVestingTimelockV2(_vestingTimelockAddress).addGrantAsInstalment(\n      address(this),\n      _protocolTreasuryPool,\n      block.timestamp,\n      // 3 months\n      (91 days + 6 hours),\n      uint256(6250000e18),\n      11,\n      // 3 months\n      (91 days + 6 hours),\n      false\n    );\n\n    // communityDevelopmentFund pool\n    IVestingTimelockV2(_vestingTimelockAddress).addGrantAsInstalment(\n      address(this),\n      _communityDevelopmentFundPool,\n      block.timestamp,\n      // 3 months\n      (91 days + 6 hours),\n      uint256(3125000e18),\n      14,\n      // 3 months\n      (91 days + 6 hours),\n      false\n    );\n\n    // communityDevelopmentFund2 pool\n    IVestingTimelockV2(_vestingTimelockAddress).addGrantAsInstalment(\n      address(this),\n      _communityDevelopmentFundPool2,\n      block.timestamp,\n      // 42 months\n      (1277 days + 12 hours),\n      uint256(3125000e18),\n      1,\n      // 0 months\n      0,\n      false\n    );\n  }\n\n  /**\n   * @dev Mint new PSTAKE for the provided 'address' and 'amount'\n   *\n   *\n   * Emits a {MintTokens} event with 'to' set to address and 'tokens' set to amount of tokens.\n   *\n   * Requirements:\n   *\n   * - `amount` cannot be less than zero.\n   *\n   */\n  function mint(address to, uint256 tokens) public returns (bool success) {\n    require(hasRole(DEFAULT_ADMIN_ROLE, _msgSender()), \"PS2\");\n\n    _mint(to, tokens);\n    return true;\n  }\n\n  /**\n   * @dev Triggers stopped state.\n   *\n   * Requirements:\n   *\n   * - The contract must not be paused.\n   */\n  function pause() public returns (bool success) {\n    require(hasRole(PAUSER_ROLE, _msgSender()), \"PS3\");\n    _pause();\n    return true;\n  }\n\n  /**\n   * @dev Returns to normal state.\n   *\n   * Requirements:\n   *\n   * - The contract must be paused.\n   */\n  function unpause() public returns (bool success) {\n    require(hasRole(PAUSER_ROLE, _msgSender()), \"PS4\");\n    _unpause();\n    return true;\n  }\n\n  /**\n   * @dev Hook that is called before any transfer of tokens. This includes\n   * minting and burning.\n   *\n   * Calling conditions:\n   *\n   * - when `from` and `to` are both non-zero, `amount` of ``from``'s tokens\n   * will be to transferred to `to`.\n   * - when `from` is zero, `amount` tokens will be minted for `to`.\n   * - when `to` is zero, `amount` of ``from``'s tokens will be burned.\n   * - `from` and `to` are never both zero.\n   *\n   */\n  function _beforeTokenTransfer(\n    address from,\n    address to,\n    uint256 amount\n  ) internal virtual override {\n    require(!paused(), \"PS5\");\n    super._beforeTokenTransfer(from, to, amount);\n  }\n}\n",
  "sourcePath": "C:\\Users\\Kamlesh\\Persistence\\pStake\\codebase\\erc20\\contracts\\PSTAKE.sol",
  "compiler": {
    "name": "solc",
    "version": "0.7.6+commit.7338295f.Emscripten.clang"
  },
  "schemaVersion": "3.4.3",
  "updatedAt": "2021-11-02T05:30:20.713Z",
  "devdoc": {
    "kind": "dev",
    "methods": {
      "allowance(address,address)": {
        "details": "See {IERC20-allowance}."
      },
      "approve(address,uint256)": {
        "details": "See {IERC20-approve}. Requirements: - `spender` cannot be the zero address."
      },
      "balanceOf(address)": {
        "details": "See {IERC20-balanceOf}."
      },
      "decimals()": {
        "details": "Returns the number of decimals used to get its user representation. For example, if `decimals` equals `2`, a balance of `505` tokens should be displayed to a user as `5,05` (`505 / 10 ** 2`). Tokens usually opt for a value of 18, imitating the relationship between Ether and Wei. This is the value {ERC20} uses, unless {_setupDecimals} is called. NOTE: This information is only used for _display_ purposes: it in no way affects any of the arithmetic of the contract, including {IERC20-balanceOf} and {IERC20-transfer}."
      },
      "decreaseAllowance(address,uint256)": {
        "details": "Atomically decreases the allowance granted to `spender` by the caller. This is an alternative to {approve} that can be used as a mitigation for problems described in {IERC20-approve}. Emits an {Approval} event indicating the updated allowance. Requirements: - `spender` cannot be the zero address. - `spender` must have allowance for the caller of at least `subtractedValue`."
      },
      "getRoleAdmin(bytes32)": {
        "details": "Returns the admin role that controls `role`. See {grantRole} and {revokeRole}. To change a role's admin, use {_setRoleAdmin}."
      },
      "getRoleMember(bytes32,uint256)": {
        "details": "Returns one of the accounts that have `role`. `index` must be a value between 0 and {getRoleMemberCount}, non-inclusive. Role bearers are not sorted in any particular way, and their ordering may change at any point. WARNING: When using {getRoleMember} and {getRoleMemberCount}, make sure you perform all queries on the same block. See the following https://forum.openzeppelin.com/t/iterating-over-elements-on-enumerableset-in-openzeppelin-contracts/2296[forum post] for more information."
      },
      "getRoleMemberCount(bytes32)": {
        "details": "Returns the number of accounts that have `role`. Can be used together with {getRoleMember} to enumerate all bearers of a role."
      },
      "grantRole(bytes32,address)": {
        "details": "Grants `role` to `account`. If `account` had not been already granted `role`, emits a {RoleGranted} event. Requirements: - the caller must have ``role``'s admin role."
      },
      "hasRole(bytes32,address)": {
        "details": "Returns `true` if `account` has been granted `role`."
      },
      "increaseAllowance(address,uint256)": {
        "details": "Atomically increases the allowance granted to `spender` by the caller. This is an alternative to {approve} that can be used as a mitigation for problems described in {IERC20-approve}. Emits an {Approval} event indicating the updated allowance. Requirements: - `spender` cannot be the zero address."
      },
      "initialize(address,address,address,address,address,address,address,address,address,address,address)": {
        "details": "Constructor for initializing the UToken contract.",
        "params": {
          "pauserAddress": "- address of the pauser admin."
        }
      },
      "mint(address,uint256)": {
        "details": "Mint new PSTAKE for the provided 'address' and 'amount' Emits a {MintTokens} event with 'to' set to address and 'tokens' set to amount of tokens. Requirements: - `amount` cannot be less than zero."
      },
      "name()": {
        "details": "Returns the name of the token."
      },
      "pause()": {
        "details": "Triggers stopped state. Requirements: - The contract must not be paused."
      },
      "paused()": {
        "details": "Returns true if the contract is paused, and false otherwise."
      },
      "renounceRole(bytes32,address)": {
        "details": "Revokes `role` from the calling account. Roles are often managed via {grantRole} and {revokeRole}: this function's purpose is to provide a mechanism for accounts to lose their privileges if they are compromised (such as when a trusted device is misplaced). If the calling account had been granted `role`, emits a {RoleRevoked} event. Requirements: - the caller must be `account`."
      },
      "revokeRole(bytes32,address)": {
        "details": "Revokes `role` from `account`. If `account` had been granted `role`, emits a {RoleRevoked} event. Requirements: - the caller must have ``role``'s admin role."
      },
      "symbol()": {
        "details": "Returns the symbol of the token, usually a shorter version of the name."
      },
      "totalSupply()": {
        "details": "See {IERC20-totalSupply}."
      },
      "transfer(address,uint256)": {
        "details": "See {IERC20-transfer}. Requirements: - `recipient` cannot be the zero address. - the caller must have a balance of at least `amount`."
      },
      "transferFrom(address,address,uint256)": {
        "details": "See {IERC20-transferFrom}. Emits an {Approval} event indicating the updated allowance. This is not required by the EIP. See the note at the beginning of {ERC20}. Requirements: - `sender` and `recipient` cannot be the zero address. - `sender` must have a balance of at least `amount`. - the caller must have allowance for ``sender``'s tokens of at least `amount`."
      },
      "unpause()": {
        "details": "Returns to normal state. Requirements: - The contract must be paused."
      }
    },
    "version": 1
  },
  "userdoc": {
    "kind": "user",
    "methods": {},
    "version": 1
  }
}