{
  "contractName": "PSTAKE",
  "abi": [
    {
      "anonymous": false,
      "inputs": [
        {
          "indexed": false,
          "internalType": "address",
          "name": "token",
          "type": "address"
        },
        {
          "indexed": false,
          "internalType": "address",
          "name": "accountAddress",
          "type": "address"
        },
        {
          "indexed": false,
          "internalType": "uint256",
          "name": "startTime",
          "type": "uint256"
        },
        {
          "indexed": false,
          "internalType": "uint256",
          "name": "cliffPeriod",
          "type": "uint256"
        },
        {
          "indexed": false,
          "internalType": "uint256",
          "name": "tokens",
          "type": "uint256"
        },
        {
          "indexed": false,
          "internalType": "uint256",
          "name": "instalmentAmount",
          "type": "uint256"
        },
        {
          "indexed": false,
          "internalType": "uint256",
          "name": "instalmentCount",
          "type": "uint256"
        },
        {
          "indexed": false,
          "internalType": "uint256",
          "name": "instalmentPeriod",
          "type": "uint256"
        },
        {
          "indexed": false,
          "internalType": "address",
          "name": "grantManager",
          "type": "address"
        },
        {
          "indexed": false,
          "internalType": "uint256",
          "name": "timestamp",
          "type": "uint256"
        }
      ],
      "name": "AddGrant",
      "type": "event"
    },
    {
      "anonymous": false,
      "inputs": [
        {
          "indexed": true,
          "internalType": "address",
          "name": "owner",
          "type": "address"
        },
        {
          "indexed": true,
          "internalType": "address",
          "name": "spender",
          "type": "address"
        },
        {
          "indexed": false,
          "internalType": "uint256",
          "name": "value",
          "type": "uint256"
        }
      ],
      "name": "Approval",
      "type": "event"
    },
    {
      "anonymous": false,
      "inputs": [
        {
          "indexed": false,
          "internalType": "uint256",
          "name": "lastInflationBlockTime",
          "type": "uint256"
        },
        {
          "indexed": false,
          "internalType": "uint256",
          "name": "inflationAdded",
          "type": "uint256"
        },
        {
          "indexed": false,
          "internalType": "uint256",
          "name": "timestamp",
          "type": "uint256"
        }
      ],
      "name": "CheckInflation",
      "type": "event"
    },
    {
      "anonymous": false,
      "inputs": [
        {
          "indexed": false,
          "internalType": "address",
          "name": "account",
          "type": "address"
        }
      ],
      "name": "Paused",
      "type": "event"
    },
    {
      "anonymous": false,
      "inputs": [
        {
          "indexed": true,
          "internalType": "bytes32",
          "name": "role",
          "type": "bytes32"
        },
        {
          "indexed": true,
          "internalType": "bytes32",
          "name": "previousAdminRole",
          "type": "bytes32"
        },
        {
          "indexed": true,
          "internalType": "bytes32",
          "name": "newAdminRole",
          "type": "bytes32"
        }
      ],
      "name": "RoleAdminChanged",
      "type": "event"
    },
    {
      "anonymous": false,
      "inputs": [
        {
          "indexed": true,
          "internalType": "bytes32",
          "name": "role",
          "type": "bytes32"
        },
        {
          "indexed": true,
          "internalType": "address",
          "name": "account",
          "type": "address"
        },
        {
          "indexed": true,
          "internalType": "address",
          "name": "sender",
          "type": "address"
        }
      ],
      "name": "RoleGranted",
      "type": "event"
    },
    {
      "anonymous": false,
      "inputs": [
        {
          "indexed": true,
          "internalType": "bytes32",
          "name": "role",
          "type": "bytes32"
        },
        {
          "indexed": true,
          "internalType": "address",
          "name": "account",
          "type": "address"
        },
        {
          "indexed": true,
          "internalType": "address",
          "name": "sender",
          "type": "address"
        }
      ],
      "name": "RoleRevoked",
      "type": "event"
    },
    {
      "anonymous": false,
      "inputs": [
        {
          "indexed": false,
          "internalType": "address",
          "name": "accountAddress",
          "type": "address"
        },
        {
          "indexed": false,
          "internalType": "uint256",
          "name": "inflationRate",
          "type": "uint256"
        },
        {
          "indexed": false,
          "internalType": "uint256",
          "name": "inflationPeriod",
          "type": "uint256"
        }
      ],
      "name": "SetInflationRate",
      "type": "event"
    },
    {
      "anonymous": false,
      "inputs": [
        {
          "indexed": false,
          "internalType": "address",
          "name": "accountAddress",
          "type": "address"
        },
        {
          "indexed": false,
          "internalType": "uint256",
          "name": "supplyMaxLimit",
          "type": "uint256"
        }
      ],
      "name": "SetSupplyMaxLimit",
      "type": "event"
    },
    {
      "anonymous": false,
      "inputs": [
        {
          "indexed": false,
          "internalType": "address",
          "name": "vestingTimelockAddress",
          "type": "address"
        }
      ],
      "name": "SetVestingTimelockContract",
      "type": "event"
    },
    {
      "anonymous": false,
      "inputs": [
        {
          "indexed": true,
          "internalType": "address",
          "name": "from",
          "type": "address"
        },
        {
          "indexed": true,
          "internalType": "address",
          "name": "to",
          "type": "address"
        },
        {
          "indexed": false,
          "internalType": "uint256",
          "name": "value",
          "type": "uint256"
        }
      ],
      "name": "Transfer",
      "type": "event"
    },
    {
      "anonymous": false,
      "inputs": [
        {
          "indexed": false,
          "internalType": "address",
          "name": "account",
          "type": "address"
        }
      ],
      "name": "Unpaused",
      "type": "event"
    },
    {
      "inputs": [],
      "name": "AIRDROPPOOLALLOCATION",
      "outputs": [
        {
          "internalType": "uint256",
          "name": "",
          "type": "uint256"
        }
      ],
      "stateMutability": "view",
      "type": "function",
      "constant": true
    },
    {
      "inputs": [],
      "name": "ALPHALAUNCHPADPOOLALLOCATION",
      "outputs": [
        {
          "internalType": "uint256",
          "name": "",
          "type": "uint256"
        }
      ],
      "stateMutability": "view",
      "type": "function",
      "constant": true
    },
    {
      "inputs": [],
      "name": "COMMUNITYDEVELOPMENTFUNDPOOLALLOCATION",
      "outputs": [
        {
          "internalType": "uint256",
          "name": "",
          "type": "uint256"
        }
      ],
      "stateMutability": "view",
      "type": "function",
      "constant": true
    },
    {
      "inputs": [],
      "name": "DEFAULT_ADMIN_ROLE",
      "outputs": [
        {
          "internalType": "bytes32",
          "name": "",
          "type": "bytes32"
        }
      ],
      "stateMutability": "view",
      "type": "function",
      "constant": true
    },
    {
      "inputs": [],
      "name": "INCENTIVISATIONPOOLALLOCATION",
      "outputs": [
        {
          "internalType": "uint256",
          "name": "",
          "type": "uint256"
        }
      ],
      "stateMutability": "view",
      "type": "function",
      "constant": true
    },
    {
      "inputs": [],
      "name": "INFLATION_PERIOD",
      "outputs": [
        {
          "internalType": "uint256",
          "name": "",
          "type": "uint256"
        }
      ],
      "stateMutability": "view",
      "type": "function",
      "constant": true
    },
    {
      "inputs": [],
      "name": "INFLATION_RATE",
      "outputs": [
        {
          "internalType": "uint256",
          "name": "",
          "type": "uint256"
        }
      ],
      "stateMutability": "view",
      "type": "function",
      "constant": true
    },
    {
      "inputs": [],
      "name": "MINTER_ROLE",
      "outputs": [
        {
          "internalType": "bytes32",
          "name": "",
          "type": "bytes32"
        }
      ],
      "stateMutability": "view",
      "type": "function",
      "constant": true
    },
    {
      "inputs": [],
      "name": "PAUSER_ROLE",
      "outputs": [
        {
          "internalType": "bytes32",
          "name": "",
          "type": "bytes32"
        }
      ],
      "stateMutability": "view",
      "type": "function",
      "constant": true
    },
    {
      "inputs": [],
      "name": "PROTOCOLTREASURYPOOLALLOCATION",
      "outputs": [
        {
          "internalType": "uint256",
          "name": "",
          "type": "uint256"
        }
      ],
      "stateMutability": "view",
      "type": "function",
      "constant": true
    },
    {
      "inputs": [],
      "name": "RETROACTIVEREWARDPROTOCOLBOOTSTRAPPOOLALLOCATION",
      "outputs": [
        {
          "internalType": "uint256",
          "name": "",
          "type": "uint256"
        }
      ],
      "stateMutability": "view",
      "type": "function",
      "constant": true
    },
    {
      "inputs": [],
      "name": "SUPPLY_AT_GENESIS",
      "outputs": [
        {
          "internalType": "uint256",
          "name": "",
          "type": "uint256"
        }
      ],
      "stateMutability": "view",
      "type": "function",
      "constant": true
    },
    {
      "inputs": [],
      "name": "SUPPLY_MAX_LIMIT",
      "outputs": [
        {
          "internalType": "uint256",
          "name": "",
          "type": "uint256"
        }
      ],
      "stateMutability": "view",
      "type": "function",
      "constant": true
    },
    {
      "inputs": [],
      "name": "TOTAL_VESTED_SUPPLY",
      "outputs": [
        {
          "internalType": "uint256",
          "name": "",
          "type": "uint256"
        }
      ],
      "stateMutability": "view",
      "type": "function",
      "constant": true
    },
    {
      "inputs": [],
      "name": "VALUE_DIVISOR",
      "outputs": [
        {
          "internalType": "uint256",
          "name": "",
          "type": "uint256"
        }
      ],
      "stateMutability": "view",
      "type": "function",
      "constant": true
    },
    {
      "inputs": [],
      "name": "XPRTSTAKERSPOOLALLOCATION",
      "outputs": [
        {
          "internalType": "uint256",
          "name": "",
          "type": "uint256"
        }
      ],
      "stateMutability": "view",
      "type": "function",
      "constant": true
    },
    {
      "inputs": [],
      "name": "_airdropPool",
      "outputs": [
        {
          "internalType": "address",
          "name": "",
          "type": "address"
        }
      ],
      "stateMutability": "view",
      "type": "function",
      "constant": true
    },
    {
      "inputs": [],
      "name": "_alphaLaunchpadPool",
      "outputs": [
        {
          "internalType": "address",
          "name": "",
          "type": "address"
        }
      ],
      "stateMutability": "view",
      "type": "function",
      "constant": true
    },
    {
      "inputs": [],
      "name": "_communityDevelopmentFundPool",
      "outputs": [
        {
          "internalType": "address",
          "name": "",
          "type": "address"
        }
      ],
      "stateMutability": "view",
      "type": "function",
      "constant": true
    },
    {
      "inputs": [],
      "name": "_incentivisationPool",
      "outputs": [
        {
          "internalType": "address",
          "name": "",
          "type": "address"
        }
      ],
      "stateMutability": "view",
      "type": "function",
      "constant": true
    },
    {
      "inputs": [],
      "name": "_inflationPeriod",
      "outputs": [
        {
          "internalType": "uint256",
          "name": "",
          "type": "uint256"
        }
      ],
      "stateMutability": "view",
      "type": "function",
      "constant": true
    },
    {
      "inputs": [],
      "name": "_inflationRate",
      "outputs": [
        {
          "internalType": "uint256",
          "name": "",
          "type": "uint256"
        }
      ],
      "stateMutability": "view",
      "type": "function",
      "constant": true
    },
    {
      "inputs": [],
      "name": "_lastInflationBlockTime",
      "outputs": [
        {
          "internalType": "uint256",
          "name": "",
          "type": "uint256"
        }
      ],
      "stateMutability": "view",
      "type": "function",
      "constant": true
    },
    {
      "inputs": [],
      "name": "_protocolTreasuryPool",
      "outputs": [
        {
          "internalType": "address",
          "name": "",
          "type": "address"
        }
      ],
      "stateMutability": "view",
      "type": "function",
      "constant": true
    },
    {
      "inputs": [],
      "name": "_publicSalePool1",
      "outputs": [
        {
          "internalType": "address",
          "name": "",
          "type": "address"
        }
      ],
      "stateMutability": "view",
      "type": "function",
      "constant": true
    },
    {
      "inputs": [],
      "name": "_publicSalePool2",
      "outputs": [
        {
          "internalType": "address",
          "name": "",
          "type": "address"
        }
      ],
      "stateMutability": "view",
      "type": "function",
      "constant": true
    },
    {
      "inputs": [],
      "name": "_publicSalePool3",
      "outputs": [
        {
          "internalType": "address",
          "name": "",
          "type": "address"
        }
      ],
      "stateMutability": "view",
      "type": "function",
      "constant": true
    },
    {
      "inputs": [],
      "name": "_retroactiveRewardProtocolBootstrapPool",
      "outputs": [
        {
          "internalType": "address",
          "name": "",
          "type": "address"
        }
      ],
      "stateMutability": "view",
      "type": "function",
      "constant": true
    },
    {
      "inputs": [],
      "name": "_seedSalePool",
      "outputs": [
        {
          "internalType": "address",
          "name": "",
          "type": "address"
        }
      ],
      "stateMutability": "view",
      "type": "function",
      "constant": true
    },
    {
      "inputs": [],
      "name": "_supplyMaxLimit",
      "outputs": [
        {
          "internalType": "uint256",
          "name": "",
          "type": "uint256"
        }
      ],
      "stateMutability": "view",
      "type": "function",
      "constant": true
    },
    {
      "inputs": [],
      "name": "_teamPool",
      "outputs": [
        {
          "internalType": "address",
          "name": "",
          "type": "address"
        }
      ],
      "stateMutability": "view",
      "type": "function",
      "constant": true
    },
    {
      "inputs": [],
      "name": "_totalInflatedSupply",
      "outputs": [
        {
          "internalType": "uint256",
          "name": "",
          "type": "uint256"
        }
      ],
      "stateMutability": "view",
      "type": "function",
      "constant": true
    },
    {
      "inputs": [],
      "name": "_valueDivisor",
      "outputs": [
        {
          "internalType": "uint256",
          "name": "",
          "type": "uint256"
        }
      ],
      "stateMutability": "view",
      "type": "function",
      "constant": true
    },
    {
      "inputs": [],
      "name": "_version",
      "outputs": [
        {
          "internalType": "uint256",
          "name": "",
          "type": "uint256"
        }
      ],
      "stateMutability": "view",
      "type": "function",
      "constant": true
    },
    {
      "inputs": [],
      "name": "_vestingTimelockAddress",
      "outputs": [
        {
          "internalType": "address",
          "name": "",
          "type": "address"
        }
      ],
      "stateMutability": "view",
      "type": "function",
      "constant": true
    },
    {
      "inputs": [],
      "name": "_xprtStakersPool",
      "outputs": [
        {
          "internalType": "address",
          "name": "",
          "type": "address"
        }
      ],
      "stateMutability": "view",
      "type": "function",
      "constant": true
    },
    {
      "inputs": [
        {
          "internalType": "address",
          "name": "owner",
          "type": "address"
        },
        {
          "internalType": "address",
          "name": "spender",
          "type": "address"
        }
      ],
      "name": "allowance",
      "outputs": [
        {
          "internalType": "uint256",
          "name": "",
          "type": "uint256"
        }
      ],
      "stateMutability": "view",
      "type": "function",
      "constant": true
    },
    {
      "inputs": [
        {
          "internalType": "address",
          "name": "spender",
          "type": "address"
        },
        {
          "internalType": "uint256",
          "name": "amount",
          "type": "uint256"
        }
      ],
      "name": "approve",
      "outputs": [
        {
          "internalType": "bool",
          "name": "",
          "type": "bool"
        }
      ],
      "stateMutability": "nonpayable",
      "type": "function"
    },
    {
      "inputs": [
        {
          "internalType": "address",
          "name": "account",
          "type": "address"
        }
      ],
      "name": "balanceOf",
      "outputs": [
        {
          "internalType": "uint256",
          "name": "",
          "type": "uint256"
        }
      ],
      "stateMutability": "view",
      "type": "function",
      "constant": true
    },
    {
      "inputs": [],
      "name": "decimals",
      "outputs": [
        {
          "internalType": "uint8",
          "name": "",
          "type": "uint8"
        }
      ],
      "stateMutability": "view",
      "type": "function",
      "constant": true
    },
    {
      "inputs": [
        {
          "internalType": "address",
          "name": "spender",
          "type": "address"
        },
        {
          "internalType": "uint256",
          "name": "subtractedValue",
          "type": "uint256"
        }
      ],
      "name": "decreaseAllowance",
      "outputs": [
        {
          "internalType": "bool",
          "name": "",
          "type": "bool"
        }
      ],
      "stateMutability": "nonpayable",
      "type": "function"
    },
    {
      "inputs": [
        {
          "internalType": "bytes32",
          "name": "role",
          "type": "bytes32"
        }
      ],
      "name": "getRoleAdmin",
      "outputs": [
        {
          "internalType": "bytes32",
          "name": "",
          "type": "bytes32"
        }
      ],
      "stateMutability": "view",
      "type": "function",
      "constant": true
    },
    {
      "inputs": [
        {
          "internalType": "bytes32",
          "name": "role",
          "type": "bytes32"
        },
        {
          "internalType": "uint256",
          "name": "index",
          "type": "uint256"
        }
      ],
      "name": "getRoleMember",
      "outputs": [
        {
          "internalType": "address",
          "name": "",
          "type": "address"
        }
      ],
      "stateMutability": "view",
      "type": "function",
      "constant": true
    },
    {
      "inputs": [
        {
          "internalType": "bytes32",
          "name": "role",
          "type": "bytes32"
        }
      ],
      "name": "getRoleMemberCount",
      "outputs": [
        {
          "internalType": "uint256",
          "name": "",
          "type": "uint256"
        }
      ],
      "stateMutability": "view",
      "type": "function",
      "constant": true
    },
    {
      "inputs": [
        {
          "internalType": "bytes32",
          "name": "role",
          "type": "bytes32"
        },
        {
          "internalType": "address",
          "name": "account",
          "type": "address"
        }
      ],
      "name": "grantRole",
      "outputs": [],
      "stateMutability": "nonpayable",
      "type": "function"
    },
    {
      "inputs": [
        {
          "internalType": "bytes32",
          "name": "role",
          "type": "bytes32"
        },
        {
          "internalType": "address",
          "name": "account",
          "type": "address"
        }
      ],
      "name": "hasRole",
      "outputs": [
        {
          "internalType": "bool",
          "name": "",
          "type": "bool"
        }
      ],
      "stateMutability": "view",
      "type": "function",
      "constant": true
    },
    {
      "inputs": [
        {
          "internalType": "address",
          "name": "spender",
          "type": "address"
        },
        {
          "internalType": "uint256",
          "name": "addedValue",
          "type": "uint256"
        }
      ],
      "name": "increaseAllowance",
      "outputs": [
        {
          "internalType": "bool",
          "name": "",
          "type": "bool"
        }
      ],
      "stateMutability": "nonpayable",
      "type": "function"
    },
    {
      "inputs": [],
      "name": "name",
      "outputs": [
        {
          "internalType": "string",
          "name": "",
          "type": "string"
        }
      ],
      "stateMutability": "view",
      "type": "function",
      "constant": true
    },
    {
      "inputs": [],
      "name": "paused",
      "outputs": [
        {
          "internalType": "bool",
          "name": "",
          "type": "bool"
        }
      ],
      "stateMutability": "view",
      "type": "function",
      "constant": true
    },
    {
      "inputs": [
        {
          "internalType": "bytes32",
          "name": "role",
          "type": "bytes32"
        },
        {
          "internalType": "address",
          "name": "account",
          "type": "address"
        }
      ],
      "name": "renounceRole",
      "outputs": [],
      "stateMutability": "nonpayable",
      "type": "function"
    },
    {
      "inputs": [
        {
          "internalType": "bytes32",
          "name": "role",
          "type": "bytes32"
        },
        {
          "internalType": "address",
          "name": "account",
          "type": "address"
        }
      ],
      "name": "revokeRole",
      "outputs": [],
      "stateMutability": "nonpayable",
      "type": "function"
    },
    {
      "inputs": [],
      "name": "symbol",
      "outputs": [
        {
          "internalType": "string",
          "name": "",
          "type": "string"
        }
      ],
      "stateMutability": "view",
      "type": "function",
      "constant": true
    },
    {
      "inputs": [],
      "name": "totalSupply",
      "outputs": [
        {
          "internalType": "uint256",
          "name": "",
          "type": "uint256"
        }
      ],
      "stateMutability": "view",
      "type": "function",
      "constant": true
    },
    {
      "inputs": [
        {
          "internalType": "address",
          "name": "recipient",
          "type": "address"
        },
        {
          "internalType": "uint256",
          "name": "amount",
          "type": "uint256"
        }
      ],
      "name": "transfer",
      "outputs": [
        {
          "internalType": "bool",
          "name": "",
          "type": "bool"
        }
      ],
      "stateMutability": "nonpayable",
      "type": "function"
    },
    {
      "inputs": [
        {
          "internalType": "address",
          "name": "sender",
          "type": "address"
        },
        {
          "internalType": "address",
          "name": "recipient",
          "type": "address"
        },
        {
          "internalType": "uint256",
          "name": "amount",
          "type": "uint256"
        }
      ],
      "name": "transferFrom",
      "outputs": [
        {
          "internalType": "bool",
          "name": "",
          "type": "bool"
        }
      ],
      "stateMutability": "nonpayable",
      "type": "function"
    },
    {
      "inputs": [
        {
          "internalType": "address",
          "name": "vestingTimelockAddress",
          "type": "address"
        },
        {
          "internalType": "address",
          "name": "airdropPool",
          "type": "address"
        },
        {
          "internalType": "address",
          "name": "alphaLaunchpadPool",
          "type": "address"
        },
        {
          "internalType": "address",
          "name": "seedSalePool",
          "type": "address"
        },
        {
          "internalType": "address",
          "name": "publicSalePool1",
          "type": "address"
        },
        {
          "internalType": "address",
          "name": "publicSalePool2",
          "type": "address"
        },
        {
          "internalType": "address",
          "name": "publicSalePool3",
          "type": "address"
        },
        {
          "internalType": "address",
          "name": "teamPool",
          "type": "address"
        },
        {
          "internalType": "address",
          "name": "incentivisationPool",
          "type": "address"
        },
        {
          "internalType": "address",
          "name": "xprtStakersPool",
          "type": "address"
        },
        {
          "internalType": "address",
          "name": "protocolTreasuryPool",
          "type": "address"
        },
        {
          "internalType": "address",
          "name": "communityDevelopmentFundPool",
          "type": "address"
        },
        {
          "internalType": "address",
          "name": "retroactiveRewardProtocolBootstrapPool",
          "type": "address"
        }
      ],
      "name": "initialize",
      "outputs": [],
      "stateMutability": "nonpayable",
      "type": "function"
    },
    {
      "inputs": [],
      "name": "checkInflation",
      "outputs": [
        {
          "internalType": "uint256",
          "name": "totalInflatedSupply",
          "type": "uint256"
        },
        {
          "internalType": "uint256",
          "name": "lastInflationBlockTime",
          "type": "uint256"
        }
      ],
      "stateMutability": "nonpayable",
      "type": "function"
    },
    {
      "inputs": [
        {
          "internalType": "uint256",
          "name": "inflationRate",
          "type": "uint256"
        },
        {
          "internalType": "uint256",
          "name": "inflationPeriod",
          "type": "uint256"
        }
      ],
      "name": "setInflation",
      "outputs": [
        {
          "internalType": "bool",
          "name": "success",
          "type": "bool"
        }
      ],
      "stateMutability": "nonpayable",
      "type": "function"
    },
    {
      "inputs": [
        {
          "internalType": "uint256",
          "name": "supplyMaxLimit",
          "type": "uint256"
        }
      ],
      "name": "setSupplyMaxLimit",
      "outputs": [
        {
          "internalType": "bool",
          "name": "success",
          "type": "bool"
        }
      ],
      "stateMutability": "nonpayable",
      "type": "function"
    },
    {
      "inputs": [
        {
          "internalType": "address",
          "name": "to",
          "type": "address"
        },
        {
          "internalType": "uint256",
          "name": "tokens",
          "type": "uint256"
        }
      ],
      "name": "mint",
      "outputs": [
        {
          "internalType": "bool",
          "name": "success",
          "type": "bool"
        }
      ],
      "stateMutability": "nonpayable",
      "type": "function"
    },
    {
      "inputs": [
        {
          "internalType": "address",
          "name": "vestingTimelockAddress",
          "type": "address"
        }
      ],
      "name": "setVestingTimelockContract",
      "outputs": [],
      "stateMutability": "nonpayable",
      "type": "function"
    },
    {
      "inputs": [
        {
          "internalType": "address",
          "name": "beneficiary",
          "type": "address"
        },
        {
          "internalType": "uint256",
          "name": "startTime",
          "type": "uint256"
        },
        {
          "internalType": "uint256",
          "name": "cliffPeriod",
          "type": "uint256"
        },
        {
          "internalType": "uint256",
          "name": "instalmentAmount",
          "type": "uint256"
        },
        {
          "internalType": "uint256",
          "name": "instalmentCount",
          "type": "uint256"
        },
        {
          "internalType": "uint256",
          "name": "instalmentPeriod",
          "type": "uint256"
        }
      ],
      "name": "addVesting",
      "outputs": [
        {
          "internalType": "uint256",
          "name": "totalVestingAmount",
          "type": "uint256"
        }
      ],
      "stateMutability": "nonpayable",
      "type": "function"
    },
    {
      "inputs": [],
      "name": "pause",
      "outputs": [
        {
          "internalType": "bool",
          "name": "success",
          "type": "bool"
        }
      ],
      "stateMutability": "nonpayable",
      "type": "function"
    },
    {
      "inputs": [],
      "name": "unpause",
      "outputs": [
        {
          "internalType": "bool",
          "name": "success",
          "type": "bool"
        }
      ],
      "stateMutability": "nonpayable",
      "type": "function"
    }
  ],
  "bytecode": "0x608060405234801561001057600080fd5b50612f84806100206000396000f3fe608060405234801561001057600080fd5b50600436106103d05760003560e01c80638321296d116101ff578063c32ab7f71161011a578063d547741f116100ad578063e63ab1e91161007c578063e63ab1e9146109a8578063e6f0dfdf146109b0578063ef22082c146109b8578063f2e7ccc9146109c0576103d0565b8063d547741f1461093e578063dd62ed3e1461096a578063e1e2e3bf14610998578063e2f97bb0146109a0576103d0565b8063cb31a85f116100e9578063cb31a85f1461091e578063cdc6c53714610926578063d182a8c91461092e578063d539139314610936576103d0565b8063c32ab7f7146108e9578063c947755a146108f1578063c94d747b146108f9578063ca15c87314610901576103d0565b8063a457c2d711610192578063b381a81111610161578063b381a811146108c9578063b4029d5e146108d1578063b999f6d0146108d9578063b9c266ba146108e1576103d0565b8063a457c2d714610861578063a55ba9d41461088d578063a60d5e2d14610895578063a9059cbb1461089d576103d0565b806391d14854116101ce57806391d148541461081d57806395d89b411461084957806398e8fd0214610851578063a217fddf14610859576103d0565b80638321296d146107cd5780638456cb59146107ea5780638969873f146107f25780639010d07c146107fa576103d0565b80633f4ba83a116102ef5780635d2ae67b11610282578063710679631161025157806371067963146107ad578063728a99ee146107b55780637744e3c7146107bd5780637b17361c146107c5576103d0565b80635d2ae67b146107565780635e07970b1461075e5780636789dafd1461076657806370a0823114610787576103d0565b80634ad3087c116102be5780634ad3087c146106fa5780634b5c79ad146107025780635b0d59e61461070a5780635c975abb1461074e576103d0565b80633f4ba83a1461069b57806340c10f19146106a3578063453c69cb146106cf578063499f002c146106f2576103d0565b80632cc39ff51161036757806336568abe1161033657806336568abe14610633578063395093511461065f5780633aed93b61461068b5780633e118dbe14610693576103d0565b80632cc39ff5146105535780632f2ff15d1461055b5780632fdd983d14610587578063313ce56714610615576103d0565b806318160ddd116103a357806318160ddd146104d057806320dd4868146104d857806323b872dd14610500578063248a9ca314610536576103d0565b806306fdde03146103d5578063095ea7b3146104525780630cf79b2a146104925780630e054f02146104ac575b600080fd5b6103dd6109c8565b6040805160208082528351818301528351919283929083019185019080838360005b838110156104175781810151838201526020016103ff565b50505050905090810190601f1680156104445780820380516001836020036101000a031916815260200191505b509250505060405180910390f35b61047e6004803603604081101561046857600080fd5b506001600160a01b038135169060200135610a5e565b604080519115158252519081900360200190f35b61049a610a7c565b60408051918252519081900360200190f35b6104b4610a8b565b604080516001600160a01b039092168252519081900360200190f35b61049a610a9a565b6104fe600480360360208110156104ee57600080fd5b50356001600160a01b0316610aa0565b005b61047e6004803603606081101561051657600080fd5b506001600160a01b03813581169160208101359091169060400135610b82565b61049a6004803603602081101561054c57600080fd5b5035610c0a565b6104b4610c1f565b6104fe6004803603604081101561057157600080fd5b50803590602001356001600160a01b0316610c2f565b6104fe60048036036101a081101561059e57600080fd5b506001600160a01b038135811691602081013582169160408201358116916060810135821691608082013581169160a081013582169160c082013581169160e08101358216916101008201358116916101208101358216916101408201358116916101608101358216916101809091013516610c96565b61061d611174565b6040805160ff9092168252519081900360200190f35b6104fe6004803603604081101561064957600080fd5b50803590602001356001600160a01b031661117d565b61047e6004803603604081101561067557600080fd5b506001600160a01b0381351690602001356111de565b61049a61122c565b61049a61123c565b61047e611242565b61047e600480360360408110156106b957600080fd5b506001600160a01b0381351690602001356112a3565b61047e600480360360408110156106e557600080fd5b508035906020013561136b565b61049a6114c2565b61049a6114c9565b6104b46114d8565b61049a600480360360c081101561072057600080fd5b506001600160a01b038135169060208101359060408101359060608101359060808101359060a001356114e7565b61047e6116d2565b61049a6116db565b6104b46116ea565b61076e6116fa565b6040805192835260208301919091528051918290030190f35b61049a6004803603602081101561079d57600080fd5b50356001600160a01b0316611754565b6104b461176f565b61049a61177f565b61049a611785565b61049a61178c565b61047e600480360360208110156107e357600080fd5b5035611794565b61047e611886565b61049a6118e1565b6104b46004803603604081101561081057600080fd5b50803590602001356118f0565b61047e6004803603604081101561083357600080fd5b50803590602001356001600160a01b0316611908565b6103dd611920565b6104b4611981565b61049a611991565b61047e6004803603604081101561087757600080fd5b506001600160a01b038135169060200135611996565b61049a6119fe565b61049a611a0e565b61047e600480360360408110156108b357600080fd5b506001600160a01b038135169060200135611a15565b61049a611a29565b6104b4611a31565b6104b4611a41565b6104b4611a51565b6104b4611a61565b61049a611a71565b61049a611a79565b61049a6004803603602081101561091757600080fd5b5035611a88565b6104b4611a9f565b61049a611aaf565b61049a611abe565b61049a611ace565b6104fe6004803603604081101561095457600080fd5b50803590602001356001600160a01b0316611af2565b61049a6004803603604081101561098057600080fd5b506001600160a01b0381358116916020013516611b4b565b6104b4611b76565b6104b4611b86565b61049a611b95565b61049a611ba7565b61049a611bae565b61049a611bb5565b60368054604080516020601f6002600019610100600188161502019095169490940493840181900481028201810190925282815260609390929091830182828015610a545780601f10610a2957610100808354040283529160200191610a54565b820191906000526020600020905b815481529060010190602001808311610a3757829003601f168201915b5050505050905090565b6000610a72610a6b611bc4565b8484611bc8565b5060015b92915050565b6a0aefea174389736478000081565b60fd546001600160a01b031681565b60355490565b610ab26000610aad611bc4565b611908565b610ae9576040805162461bcd60e51b815260206004820152600360248201526228299b60e91b604482015290519081900360640190fd5b6001600160a01b038116610b2d576040805162461bcd60e51b815260206004808301919091526024820152635053313160e01b604482015290519081900360640190fd5b61010980546001600160a01b0383166001600160a01b0319909116811790915560408051918252517f5e31e3a89ede0d5e39be17ca2a414f0dbdfd4f9a8a9a1054a8358fdf84581ab49181900360200190a150565b6000610b8f848484611cb4565b610bff84610b9b611bc4565b610bfa85604051806060016040528060288152602001612e6a602891396001600160a01b038a16600090815260346020526040812090610bd9611bc4565b6001600160a01b031681526020810191909152604001600020549190611e11565b611bc8565b5060015b9392505050565b60009081526097602052604090206002015490565b610104546001600160a01b031681565b600082815260976020526040902060020154610c4d90610aad611bc4565b610c885760405162461bcd60e51b815260040180806020018281038252602f815260200180612d74602f913960400191505060405180910390fd5b610c928282611ea8565b5050565b600054610100900460ff1680610caf5750610caf611f11565b80610cbd575060005460ff16155b610cf85760405162461bcd60e51b815260040180806020018281038252602e815260200180612e1b602e913960400191505060405180910390fd5b600054610100900460ff16158015610d23576000805460ff1961ff0019909116610100171660011790555b610d6f6040518060400160405280600c81526020016b3829aa20a5a2902a37b5b2b760a11b81525060405180604001604052806006815260200165505354414b4560d01b815250611f22565b610d77611fd8565b610d7f61208a565b610d916000610d8c611bc4565b610c88565b610dab600080516020612e92833981519152610d8c611bc4565b610dd77f9f2df0fed2c77648de5860a4cc508cd0818c85b8b8a1ab4ceeef8d981c8956a6610d8c611bc4565b600160fb819055508d61010960006101000a8154816001600160a01b0302191690836001600160a01b03160217905550610e116012612127565b633b9aca0060fc819055506b019d971e4fe8401e7400000061010a819055506b0409f9cbc7c4a04c2200000061010e819055508c60fd60006101000a8154816001600160a01b0302191690836001600160a01b031602179055508b60fe60006101000a8154816001600160a01b0302191690836001600160a01b031602179055508a60ff60006101000a8154816001600160a01b0302191690836001600160a01b031602179055508961010060006101000a8154816001600160a01b0302191690836001600160a01b031602179055508861010160006101000a8154816001600160a01b0302191690836001600160a01b031602179055508761010260006101000a8154816001600160a01b0302191690836001600160a01b031602179055508661010360006101000a8154816001600160a01b0302191690836001600160a01b031602179055508561010460006101000a8154816001600160a01b0302191690836001600160a01b031602179055508461010560006101000a8154816001600160a01b0302191690836001600160a01b031602179055508361010660006101000a8154816001600160a01b0302191690836001600160a01b031602179055508261010760006101000a8154816001600160a01b0302191690836001600160a01b031602179055508161010860006101000a8154816001600160a01b0302191690836001600160a01b0316021790555061104b60fd60009054906101000a90046001600160a01b03166a0422ca8b0a00a42500000061213d565b60fe5461106c906001600160a01b03166a084595161401484a00000061213d565b6101045461108e906001600160a01b03166a0aefea174389736478000061213d565b610105546110b0906001600160a01b03166a0108b2a2c280290940000061213d565b610106546110d2906001600160a01b03166a0383f8f62ee6f1ec40000061213d565b610107546110f4906001600160a01b03166a0160ee32f8e7c7eecc000061213d565b61010854611116906001600160a01b03166a0bfe7e93369b759e80000061213d565b61112c306b017452bc3865ca661dbc00006112a3565b50610109546111529030906001600160a01b03166b017452bc3865ca661dbc0000611bc8565b8015611164576000805461ff00191690555b5050505050505050505050505050565b60385460ff1690565b611185611bc4565b6001600160a01b0316816001600160a01b0316146111d45760405162461bcd60e51b815260040180806020018281038252602f815260200180612f20602f913960400191505060405180910390fd5b610c92828261222f565b6000610a726111eb611bc4565b84610bfa85603460006111fc611bc4565b6001600160a01b03908116825260208083019390935260409182016000908120918c168152925290205490612298565b6b017452bc3865ca661dbc000081565b60fb5481565b600061125e600080516020612e92833981519152610aad611bc4565b611295576040805162461bcd60e51b81526020600482015260036024820152621414cd60ea1b604482015290519081900360640190fd5b61129d6122f2565b50600190565b60006112d17f9f2df0fed2c77648de5860a4cc508cd0818c85b8b8a1ab4ceeef8d981c8956a6610aad611bc4565b611308576040805162461bcd60e51b815260206004820152600360248201526250533160e81b604482015290519081900360640190fd5b611310612392565b505061010a5461132883611322610a9a565b90612298565b1115611361576040805162461bcd60e51b815260206004820152600360248201526228299960e91b604482015290519081900360640190fd5b610a72838361213d565b600061137981610aad611bc4565b6113b0576040805162461bcd60e51b815260206004820152600360248201526205053360ec1b604482015290519081900360640190fd5b60fc548311156113ed576040805162461bcd60e51b815260206004820152600360248201526250533760e81b604482015290519081900360640190fd5b60008211611428576040805162461bcd60e51b815260206004820152600360248201526250533960e81b604482015290519081900360640190fd5b61010b83905561010c82905561010d546114685761010b5460fc5461010a5461145e926114549261253d565b61010a5490612298565b61010a554261010d555b5060017f3626ade5797d5d9ff68b2dd6193599e26a3cb5d1f6afb37ca308e7533ff620e5611494611bc4565b604080516001600160a01b03909216825260208201869052818101859052519081900360600190a192915050565b61010d5481565b6a0108b2a2c280290940000081565b60ff546001600160a01b031681565b6000600260c9541415611541576040805162461bcd60e51b815260206004820152601f60248201527f5265656e7472616e637947756172643a207265656e7472616e742063616c6c00604482015290519081900360640190fd5b600260c9556115536000610aad611bc4565b61158d576040805162461bcd60e51b815260206004808301919091526024820152632829989960e11b604482015290519081900360640190fd5b610109546040805163d41c912560e01b81523060048201526001600160a01b038a81166024830152604482018a9052606482018990526084820188905260a4820187905260c482018690529151919092169163d41c91259160e48083019260209291908290030181600087803b15801561160657600080fd5b505af115801561161a573d6000803e3d6000fd5b505050506040513d602081101561163057600080fd5b505190507fe15747a0fb729eba912c4bff7340d0ba7e74e36b43b68640e5b336c9773e75af3088888885898989611665611bc4565b604080516001600160a01b039a8b168152988a1660208a0152888101979097526060880195909552608087019390935260a086019190915260c085015260e0840152909216610100820152426101208201529051908190036101400190a1600160c9559695505050505050565b60655460ff1690565b6a0bfe7e93369b759e80000081565b610100546001600160a01b031681565b60008061170981610aad611bc4565b611743576040805162461bcd60e51b815260206004808301919091526024820152635053313360e01b604482015290519081900360640190fd5b61174b612392565b90939092509050565b6001600160a01b031660009081526033602052604090205490565b610107546001600160a01b031681565b60fc5481565b61010e5481565b633b9aca0081565b60006117a281610aad611bc4565b6117d9576040805162461bcd60e51b81526020600482015260036024820152620a0a6760eb1b604482015290519081900360640190fd5b61010a5482101561181a576040805162461bcd60e51b815260206004808301919091526024820152630505331360e41b604482015290519081900360640190fd5b61010a5461010e54141561182e574261010d555b5061010e81905560017fc7ef0200a4197b576e0fd91f28652dedae560532b3d4ea0193cc124b3c16f4cf611860611bc4565b604080516001600160a01b039092168252602082018590528051918290030190a1919050565b60006118a2600080516020612e92833981519152610aad611bc4565b6118d9576040805162461bcd60e51b815260206004820152600360248201526250533360e81b604482015290519081900360640190fd5b61129d6125f6565b6a084595161401484a00000081565b6000828152609760205260408120610c039083612679565b6000828152609760205260408120610c039083612685565b60378054604080516020601f6002600019610100600188161502019095169490940493840181900481028201810190925282815260609390929091830182828015610a545780601f10610a2957610100808354040283529160200191610a54565b610105546001600160a01b031681565b600081565b6000610a726119a3611bc4565b84610bfa85604051806060016040528060258152602001612efb60259139603460006119cd611bc4565b6001600160a01b03908116825260208083019390935260409182016000908120918d16815292529020549190611e11565b6b0409f9cbc7c4a04c2200000081565b61010c5481565b6000610a72611a22611bc4565b8484611cb4565b6308f0d18081565b610103546001600160a01b031681565b610102546001600160a01b031681565b610101546001600160a01b031681565b610106546001600160a01b031681565b6301e1338081565b6a0422ca8b0a00a42500000081565b6000818152609760205260408120610a769061269a565b610109546001600160a01b031681565b6a0383f8f62ee6f1ec40000081565b6b019d971e4fe8401e7400000081565b7f9f2df0fed2c77648de5860a4cc508cd0818c85b8b8a1ab4ceeef8d981c8956a681565b600082815260976020526040902060020154611b1090610aad611bc4565b6111d45760405162461bcd60e51b8152600401808060200182810382526030815260200180612deb6030913960400191505060405180910390fd5b6001600160a01b03918216600090815260346020908152604080832093909416825291909152205490565b610108546001600160a01b031681565b60fe546001600160a01b031681565b600080516020612e9283398151915281565b61010a5481565b61010b5481565b6a0160ee32f8e7c7eecc000081565b3390565b6001600160a01b038316611c0d5760405162461bcd60e51b8152600401808060200182810382526024815260200180612ed76024913960400191505060405180910390fd5b6001600160a01b038216611c525760405162461bcd60e51b8152600401808060200182810382526022815260200180612da36022913960400191505060405180910390fd5b6001600160a01b03808416600081815260346020908152604080832094871680845294825291829020859055815185815291517f8c5be1e5ebec7d5bd14f71427d1e84f3dd0314c0f7b2291e5b200ac8c7c3b9259281900390910190a3505050565b6001600160a01b038316611cf95760405162461bcd60e51b8152600401808060200182810382526025815260200180612eb26025913960400191505060405180910390fd5b6001600160a01b038216611d3e5760405162461bcd60e51b8152600401808060200182810382526023815260200180612d516023913960400191505060405180910390fd5b611d498383836126a5565b611d8681604051806060016040528060268152602001612dc5602691396001600160a01b0386166000908152603360205260409020549190611e11565b6001600160a01b038085166000908152603360205260408082209390935590841681522054611db59082612298565b6001600160a01b0380841660008181526033602090815260409182902094909455805185815290519193928716927fddf252ad1be2c89b69c2b068fc378daa952ba7f163c4a11628f55a4df523b3ef92918290030190a3505050565b60008184841115611ea05760405162461bcd60e51b81526004018080602001828103825283818151815260200191508051906020019080838360005b83811015611e65578181015183820152602001611e4d565b50505050905090810190601f168015611e925780820380516001836020036101000a031916815260200191505b509250505060405180910390fd5b505050900390565b6000828152609760205260409020611ec090826126f0565b15610c9257611ecd611bc4565b6001600160a01b0316816001600160a01b0316837f2f8788117e7eff1d82e926ec794901d17c78024a50270940304540a733656f0d60405160405180910390a45050565b6000611f1c30612705565b15905090565b600054610100900460ff1680611f3b5750611f3b611f11565b80611f49575060005460ff16155b611f845760405162461bcd60e51b815260040180806020018281038252602e815260200180612e1b602e913960400191505060405180910390fd5b600054610100900460ff16158015611faf576000805460ff1961ff0019909116610100171660011790555b611fb761270b565b611fc183836127ab565b8015611fd3576000805461ff00191690555b505050565b600054610100900460ff1680611ff15750611ff1611f11565b80611fff575060005460ff16155b61203a5760405162461bcd60e51b815260040180806020018281038252602e815260200180612e1b602e913960400191505060405180910390fd5b600054610100900460ff16158015612065576000805460ff1961ff0019909116610100171660011790555b61206d61270b565b61207561270b565b8015612087576000805461ff00191690555b50565b600054610100900460ff16806120a357506120a3611f11565b806120b1575060005460ff16155b6120ec5760405162461bcd60e51b815260040180806020018281038252602e815260200180612e1b602e913960400191505060405180910390fd5b600054610100900460ff16158015612117576000805460ff1961ff0019909116610100171660011790555b61211f61270b565b612075612883565b6038805460ff191660ff92909216919091179055565b6001600160a01b038216612198576040805162461bcd60e51b815260206004820152601f60248201527f45524332303a206d696e7420746f20746865207a65726f206164647265737300604482015290519081900360640190fd5b6121a4600083836126a5565b6035546121b19082612298565b6035556001600160a01b0382166000908152603360205260409020546121d79082612298565b6001600160a01b03831660008181526033602090815260408083209490945583518581529351929391927fddf252ad1be2c89b69c2b068fc378daa952ba7f163c4a11628f55a4df523b3ef9281900390910190a35050565b6000828152609760205260409020612247908261292e565b15610c9257612254611bc4565b6001600160a01b0316816001600160a01b0316837ff6391f5c32d9c69d2a47ea670b442974b53935d1edc7fd64eb21e047a839171b60405160405180910390a45050565b600082820183811015610c03576040805162461bcd60e51b815260206004820152601b60248201527f536166654d6174683a206164646974696f6e206f766572666c6f770000000000604482015290519081900360640190fd5b6122fa6116d2565b612342576040805162461bcd60e51b815260206004820152601460248201527314185d5cd8589b194e881b9bdd081c185d5cd95960621b604482015290519081900360640190fd5b6065805460ff191690557f5db9ee0a495bf2e6ff9c91a7834c1ba4fdd244a5e8aa4e537bd38aeae4b073aa612375611bc4565b604080516001600160a01b039092168252519081900360200190a1565b60008061010e5461010a541015806123ab575061010b54155b806123b7575061010c54155b156123c157612539565b60006123d961010d544261294390919063ffffffff16565b9050600061240361010b5460fc546b019d971e4fe8401e7400000061253d9092919063ffffffff16565b9050600061241d61010c54846129a090919063ffffffff16565b9050600061242b8284612a07565b9050600061244561010c5484612a0790919063ffffffff16565b9050821561252d57600061246861010a5461010e5461294390919063ffffffff16565b61010a549091506124799084612298565b61010a81905561010e5410156124b95761010e5461010a55600061249e83838661253d565b61010d549091506124af9082612298565b61010d55506124cc565b61010d546124c79083612298565b61010d555b61010d5496507f36581a2b25903f92b9cf76ccf14ea53151d6f302d54de9ddb6259a7f67993bfd61010d5461250d61010c5487612a0790919063ffffffff16565b6040805192835260208301919091524282820152519081900360600190a1505b61010a54965050505050505b9091565b600080600061254c8686612a60565b915091506000848061255a57fe5b86880990508281111561256e576001820391505b91829003918161258c5784838161258157fe5b049350505050610c03565b8482106125e0576040805162461bcd60e51b815260206004820152601a60248201527f46756c6c4d6174683a2046554c4c4449565f4f564552464c4f57000000000000604482015290519081900360640190fd5b6125eb838387612a8d565b979650505050505050565b6125fe6116d2565b15612643576040805162461bcd60e51b815260206004820152601060248201526f14185d5cd8589b194e881c185d5cd95960821b604482015290519081900360640190fd5b6065805460ff191660011790557f62e78cea01bee320cd4e420270b5ea74000d11b0c9f74754ebdbfc544b05a258612375611bc4565b6000610c038383612afd565b6000610c03836001600160a01b038416612b61565b6000610a7682612b79565b6126ad6116d2565b156126e5576040805162461bcd60e51b815260206004820152600360248201526250533560e81b604482015290519081900360640190fd5b611fd3838383611fd3565b6000610c03836001600160a01b038416612b7d565b3b151590565b600054610100900460ff16806127245750612724611f11565b80612732575060005460ff16155b61276d5760405162461bcd60e51b815260040180806020018281038252602e815260200180612e1b602e913960400191505060405180910390fd5b600054610100900460ff16158015612075576000805460ff1961ff0019909116610100171660011790558015612087576000805461ff001916905550565b600054610100900460ff16806127c457506127c4611f11565b806127d2575060005460ff16155b61280d5760405162461bcd60e51b815260040180806020018281038252602e815260200180612e1b602e913960400191505060405180910390fd5b600054610100900460ff16158015612838576000805460ff1961ff0019909116610100171660011790555b825161284b906036906020860190612c8d565b50815161285f906037906020850190612c8d565b506038805460ff191660121790558015611fd3576000805461ff0019169055505050565b600054610100900460ff168061289c575061289c611f11565b806128aa575060005460ff16155b6128e55760405162461bcd60e51b815260040180806020018281038252602e815260200180612e1b602e913960400191505060405180910390fd5b600054610100900460ff16158015612910576000805460ff1961ff0019909116610100171660011790555b6065805460ff191690558015612087576000805461ff001916905550565b6000610c03836001600160a01b038416612bc7565b60008282111561299a576040805162461bcd60e51b815260206004820152601e60248201527f536166654d6174683a207375627472616374696f6e206f766572666c6f770000604482015290519081900360640190fd5b50900390565b60008082116129f6576040805162461bcd60e51b815260206004820152601a60248201527f536166654d6174683a206469766973696f6e206279207a65726f000000000000604482015290519081900360640190fd5b8183816129ff57fe5b049392505050565b600082612a1657506000610a76565b82820282848281612a2357fe5b0414610c035760405162461bcd60e51b8152600401808060200182810382526021815260200180612e496021913960400191505060405180910390fd5b6000808060001984860990508385029250828103915082811015612a85576001820391505b509250929050565b60008181038216808381612a9d57fe5b049250808581612aa957fe5b049450808160000381612ab857fe5b60028581038087028203028087028203028087028203028087028203028087028203028087028203029586029003909402930460010193909302939093010292915050565b81546000908210612b3f5760405162461bcd60e51b8152600401808060200182810382526022815260200180612d2f6022913960400191505060405180910390fd5b826000018281548110612b4e57fe5b9060005260206000200154905092915050565b60009081526001919091016020526040902054151590565b5490565b6000612b898383612b61565b612bbf57508154600181810184556000848152602080822090930184905584548482528286019093526040902091909155610a76565b506000610a76565b60008181526001830160205260408120548015612c835783546000198083019190810190600090879083908110612bfa57fe5b9060005260206000200154905080876000018481548110612c1757fe5b600091825260208083209091019290925582815260018981019092526040902090840190558654879080612c4757fe5b60019003818190600052602060002001600090559055866001016000878152602001908152602001600020600090556001945050505050610a76565b6000915050610a76565b828054600181600116156101000203166002900490600052602060002090601f016020900481019282612cc35760008555612d09565b82601f10612cdc57805160ff1916838001178555612d09565b82800160010185558215612d09579182015b82811115612d09578251825591602001919060010190612cee565b50612d15929150612d19565b5090565b5b80821115612d155760008155600101612d1a56fe456e756d657261626c655365743a20696e646578206f7574206f6620626f756e647345524332303a207472616e7366657220746f20746865207a65726f2061646472657373416363657373436f6e74726f6c3a2073656e646572206d75737420626520616e2061646d696e20746f206772616e7445524332303a20617070726f766520746f20746865207a65726f206164647265737345524332303a207472616e7366657220616d6f756e7420657863656564732062616c616e6365416363657373436f6e74726f6c3a2073656e646572206d75737420626520616e2061646d696e20746f207265766f6b65496e697469616c697a61626c653a20636f6e747261637420697320616c726561647920696e697469616c697a6564536166654d6174683a206d756c7469706c69636174696f6e206f766572666c6f7745524332303a207472616e7366657220616d6f756e74206578636565647320616c6c6f77616e636565d7a28e3265b37a6474929f336521b332c1681b933f6cb9f3376673440d862a45524332303a207472616e736665722066726f6d20746865207a65726f206164647265737345524332303a20617070726f76652066726f6d20746865207a65726f206164647265737345524332303a2064656372656173656420616c6c6f77616e63652062656c6f77207a65726f416363657373436f6e74726f6c3a2063616e206f6e6c792072656e6f756e636520726f6c657320666f722073656c66a26469706673582212201f50f00881353d23172406461bb241388314dfd233ebacc680e645f6d9d66a6e64736f6c63430007060033",
  "immutableReferences": {},
  "source": "// SPDX-License-Identifier: UNLICENSED\npragma solidity >=0.7.0;\n\nimport \"@openzeppelin/contracts-upgradeable/token/ERC20/ERC20Upgradeable.sol\";\nimport \"@openzeppelin/contracts-upgradeable/utils/PausableUpgradeable.sol\";\nimport \"@openzeppelin/contracts-upgradeable/access/AccessControlUpgradeable.sol\";\nimport \"@openzeppelin/contracts-upgradeable/utils/ReentrancyGuardUpgradeable.sol\";\nimport \"@openzeppelin/contracts-upgradeable/math/SafeMathUpgradeable.sol\";\nimport \"./libraries/FullMath.sol\";\nimport \"./interfaces/IVestingTimelockV2.sol\";\nimport \"./interfaces/IPSTAKE.sol\";\n\ncontract PSTAKE is\n  IPSTAKE,\n  ERC20Upgradeable,\n  PausableUpgradeable,\n  AccessControlUpgradeable,\n  ReentrancyGuardUpgradeable\n{\n  // including libraries\n  using SafeMathUpgradeable for uint256;\n  using FullMath for uint256;\n\n  // constants defining access control ROLES\n  bytes32 public constant PAUSER_ROLE = keccak256(\"PAUSER_ROLE\");\n  bytes32 public constant MINTER_ROLE = keccak256(\"MINTER_ROLE\");\n\n  // variable pertaining to contract upgrades versioning and value divisor\n  uint256 public _version;\n  uint256 public _valueDivisor;\n\n  // addresses pertaining to various tokenomics strategy\n  address public _airdropPool;\n  address public _alphaLaunchpadPool;\n  address public _seedSalePool;\n  address public _publicSalePool1;\n  address public _publicSalePool2;\n  address public _publicSalePool3;\n  address public _teamPool;\n  address public _incentivisationPool;\n  address public _xprtStakersPool;\n  address public _protocolTreasuryPool;\n  address public _communityDevelopmentFundPool;\n  address public _retroactiveRewardProtocolBootstrapPool;\n\n  // address of vesting timelock contract to enable several vesting strategy\n  address public _vestingTimelockAddress;\n\n  // total inflated supply and the supply limit component to implement inflation\n  uint256 public _totalInflatedSupply;\n  uint256 public _inflationRate;\n  uint256 public _inflationPeriod;\n  uint256 public _lastInflationBlockTime;\n  uint256 public _supplyMaxLimit;\n\n  // constants for value allocation\n  uint256 public constant INFLATION_RATE = uint256(15e7);\n  uint256 public constant INFLATION_PERIOD = 365 days;\n  uint256 public constant VALUE_DIVISOR = uint256(1e9);\n  uint256 public constant SUPPLY_AT_GENESIS = uint256(500000000e18);\n  uint256 public constant TOTAL_VESTED_SUPPLY = uint256(450111111e18);\n  uint256 public constant SUPPLY_MAX_LIMIT = uint256(1250000000e18);\n\n  // pre-allocate tokens to strategy pools\n  uint256 public constant AIRDROPPOOLALLOCATION = uint256(5000000e18);\n  uint256 public constant ALPHALAUNCHPADPOOLALLOCATION = uint256(10000000e18);\n  uint256 public constant INCENTIVISATIONPOOLALLOCATION = uint256(13222222e18);\n  uint256 public constant XPRTSTAKERSPOOLALLOCATION = uint256(1250000e18);\n  uint256 public constant PROTOCOLTREASURYPOOLALLOCATION = uint256(4250000e18);\n  uint256 public constant COMMUNITYDEVELOPMENTFUNDPOOLALLOCATION =\n    uint256(1666667e18);\n  uint256 public constant RETROACTIVEREWARDPROTOCOLBOOTSTRAPPOOLALLOCATION =\n    uint256(14500000e18);\n\n  /**\n   * @dev Constructor for initializing the PSTAKE contract.\n   * @param vestingTimelockAddress - address of the vesting timelock contract.\n   * @param airdropPool - address of the airdrop pool.\n   * @param alphaLaunchpadPool - address of the alpha launchpad pool.\n   * @param seedSalePool - address of the seed sale pool.\n   * @param publicSalePool1 - address of the public sale pool1.\n   * @param publicSalePool2 - address of the public sale pool2.\n   * @param publicSalePool3 - address of the public sale pool3.\n   * @param teamPool - address of the team pool.\n   * @param incentivisationPool - address of the incentivising pool.\n   * @param xprtStakersPool - address of the xprt stakers pool.\n   * @param protocolTreasuryPool - address of the protocol treasury pool.\n   * @param communityDevelopmentFundPool - address of the community development fund pool.\n   * @param retroactiveRewardProtocolBootstrapPool - address of the retroactive reward protocol bootstrap pool.\n   */\n  function initialize(\n    address vestingTimelockAddress,\n    address airdropPool,\n    address alphaLaunchpadPool,\n    address seedSalePool,\n    address publicSalePool1,\n    address publicSalePool2,\n    address publicSalePool3,\n    address teamPool,\n    address incentivisationPool,\n    address xprtStakersPool,\n    address protocolTreasuryPool,\n    address communityDevelopmentFundPool,\n    address retroactiveRewardProtocolBootstrapPool\n  ) public virtual initializer {\n    __ERC20_init(\"pSTAKE Token\", \"PSTAKE\");\n    __AccessControl_init();\n    __Pausable_init();\n    _setupRole(DEFAULT_ADMIN_ROLE, _msgSender());\n    _setupRole(PAUSER_ROLE, _msgSender());\n    _setupRole(MINTER_ROLE, _msgSender());\n\n    // setup the version and vesting timelock contract\n    _version = 1;\n    _vestingTimelockAddress = vestingTimelockAddress;\n    // PSTAKE is an erc20 token hence 18 decimal places\n    _setupDecimals(18);\n    _valueDivisor = VALUE_DIVISOR;\n    // _inflationRate = INFLATION_RATE;\n    // _inflationPeriod = INFLATION_PERIOD;\n    // _lastInflationBlockTime = block.timestamp;\n    _totalInflatedSupply = uint256(SUPPLY_AT_GENESIS);\n    _supplyMaxLimit = SUPPLY_MAX_LIMIT;\n    // allocate the various tokenomics strategy pool addresses\n    // (must be different addresses because each address can have only one active vesting strategy at a time)\n    _airdropPool = airdropPool;\n    _alphaLaunchpadPool = alphaLaunchpadPool;\n    _seedSalePool = seedSalePool;\n    _publicSalePool1 = publicSalePool1;\n    _publicSalePool2 = publicSalePool2;\n    _publicSalePool3 = publicSalePool3;\n    _teamPool = teamPool;\n    _incentivisationPool = incentivisationPool;\n    _xprtStakersPool = xprtStakersPool;\n    _protocolTreasuryPool = protocolTreasuryPool;\n    _communityDevelopmentFundPool = communityDevelopmentFundPool;\n    _retroactiveRewardProtocolBootstrapPool = retroactiveRewardProtocolBootstrapPool;\n\n    // pre-allocate tokens to strategy pools\n    _mint(_airdropPool, AIRDROPPOOLALLOCATION);\n    _mint(_alphaLaunchpadPool, ALPHALAUNCHPADPOOLALLOCATION);\n    _mint(_incentivisationPool, INCENTIVISATIONPOOLALLOCATION);\n    _mint(_xprtStakersPool, XPRTSTAKERSPOOLALLOCATION);\n    _mint(_protocolTreasuryPool, PROTOCOLTREASURYPOOLALLOCATION);\n    _mint(\n      _communityDevelopmentFundPool,\n      COMMUNITYDEVELOPMENTFUNDPOOLALLOCATION\n    );\n    _mint(\n      _retroactiveRewardProtocolBootstrapPool,\n      RETROACTIVEREWARDPROTOCOLBOOTSTRAPPOOLALLOCATION\n    );\n\n    // accumulate tokens to allocate for vesting strategies (total supply - initial circulating supply)\n    mint(address(this), TOTAL_VESTED_SUPPLY);\n\n    // approve the vesting timelock contract to pull the tokens\n    _approve(address(this), _vestingTimelockAddress, TOTAL_VESTED_SUPPLY);\n\n    // ALLOCATING VESTING STRATEGIES\n\n    /* // airdrop pool\n    IVestingTimelockV2(_vestingTimelockAddress).addGrant(\n      address(this),\n      _airdropPool,\n      block.timestamp,\n      (30 days + 10 hours),\n      uint256(5000000e18),\n      5,\n      (30 days + 10 hours)\n    );\n\n    // seedSale pool\n    IVestingTimelockV2(_vestingTimelockAddress).addGrant(\n      address(this),\n      _seedSalePool,\n      block.timestamp,\n      // 6 months\n      (182 days + 12 hours),\n      uint256(8333333e18),\n      12,\n      (30 days + 10 hours)\n    );\n\n    // publicSalePool1 pool\n    IVestingTimelockV2(_vestingTimelockAddress).addGrant(\n      address(this),\n      _publicSalePool1,\n      block.timestamp,\n      // 6 months\n      (182 days + 12 hours),\n      uint256(833333e18),\n      6,\n      (30 days + 10 hours)\n    );\n\n    // publicSalePool2 pool\n    IVestingTimelockV2(_vestingTimelockAddress).addGrant(\n      address(this),\n      _publicSalePool2,\n      block.timestamp,\n      // 3 months\n      (91 days + 6 hours),\n      uint256(1666667e18),\n      6,\n      (30 days + 10 hours)\n    );\n\n    // publicSalePool3 pool\n    IVestingTimelockV2(_vestingTimelockAddress).addGrant(\n      address(this),\n      _publicSalePool3,\n      block.timestamp,\n      (30 days + 10 hours),\n      uint256(10000000e18),\n      1,\n      0\n    );\n\n    // team pool\n    IVestingTimelockV2(_vestingTimelockAddress).addGrant(\n      address(this),\n      _teamPool,\n      block.timestamp,\n      // 18 months\n      (547 days + 12 hours),\n      uint256(4444444e18),\n      18,\n      (30 days + 10 hours)\n    );\n\n    // incentivisation pool\n    IVestingTimelockV2(_vestingTimelockAddress).addGrant(\n      address(this),\n      _incentivisationPool,\n      block.timestamp,\n      // 3 months\n      (91 days + 6 hours),\n      uint256(13222222e18),\n      8,\n      // 3 months\n      (91 days + 6 hours)\n    );\n\n    // xprtStakers pool\n    IVestingTimelockV2(_vestingTimelockAddress).addGrant(\n      address(this),\n      _xprtStakersPool,\n      block.timestamp,\n      (30 days + 10 hours),\n      uint256(1250000e18),\n      11,\n      (30 days + 10 hours)\n    );\n\n    // protocolTreasury pool\n    IVestingTimelockV2(_vestingTimelockAddress).addGrant(\n      address(this),\n      _protocolTreasuryPool,\n      block.timestamp,\n      // 2 months\n      (60 days + 20 hours),\n      uint256(4250000e18),\n      17,\n      // 2 months\n      (60 days + 20 hours)\n    );\n\n    // communityDevelopmentFund pool\n    IVestingTimelockV2(_vestingTimelockAddress).addGrant(\n      address(this),\n      _communityDevelopmentFundPool,\n      block.timestamp,\n      // 3 months\n      (91 days + 6 hours),\n      uint256(1666667e18),\n      17,\n      // 3 months\n      (91 days + 6 hours)\n    ); */\n  }\n\n  /**\n   * @dev Check inflation\n   * Emits a {CheckInflation} event with 'block height', 'inflationComponent', and 'timestamp'.\n   *\n   */\n  function _checkInflation()\n    internal\n    returns (uint256 totalInflatedSupply, uint256 lastInflationBlockTime)\n  {\n    // if the _totalInflatedSupply has already reacted _supplyMaxLimit or inflation properties not set, then return\n    if (\n      _totalInflatedSupply >= _supplyMaxLimit ||\n      _inflationRate == 0 ||\n      _inflationPeriod == 0\n    ) return (totalInflatedSupply, lastInflationBlockTime);\n\n    // get the time since last inflation\n    uint256 timeSinceLastInflation = (block.timestamp).sub(\n      _lastInflationBlockTime\n    );\n\n    // get the inflation amount for one cycle of inflation period\n    uint256 inflationPerInstalment = uint256(SUPPLY_AT_GENESIS).mulDiv(\n      _inflationRate,\n      _valueDivisor\n    );\n\n    // get the number of cycles/instalments of inflation that are pending to be updated\n    uint256 inflationInstalments = timeSinceLastInflation.div(_inflationPeriod);\n    uint256 additionalInflation = inflationInstalments.mul(\n      inflationPerInstalment\n    );\n    uint256 additionalBlockTime = inflationInstalments.mul(_inflationPeriod);\n\n    if (inflationInstalments > 0) {\n      // add inflationPerInstalment to total inflated supply\n      uint256 currentInflationDiff = _supplyMaxLimit.sub(_totalInflatedSupply);\n      _totalInflatedSupply = _totalInflatedSupply.add(additionalInflation);\n\n      if (_totalInflatedSupply > _supplyMaxLimit) {\n        // set totalInflatedSupply as supply max limit\n        _totalInflatedSupply = _supplyMaxLimit;\n\n        // update the _lastInflationBlockTime value\n        uint256 currentBlockTimeDiff = additionalBlockTime.mulDiv(\n          currentInflationDiff,\n          additionalInflation\n        );\n        _lastInflationBlockTime = _lastInflationBlockTime.add(\n          currentBlockTimeDiff\n        );\n      } else {\n        // update _lastInflationBlockTime with the time period pertaining to inflationInstalments\n        _lastInflationBlockTime = _lastInflationBlockTime.add(\n          additionalBlockTime\n        );\n      }\n\n      lastInflationBlockTime = _lastInflationBlockTime;\n\n      // emit an event\n      emit CheckInflation(\n        _lastInflationBlockTime,\n        inflationInstalments.mul(_inflationPeriod),\n        block.timestamp\n      );\n    }\n\n    totalInflatedSupply = _totalInflatedSupply;\n  }\n\n  /**\n   * @dev checks the inflation and sets the inflation parameters if the inflation cycle has changed\n   *\n   */\n  function checkInflation()\n    public\n    virtual\n    override\n    returns (uint256 totalInflatedSupply, uint256 lastInflationBlockTime)\n  {\n    require(hasRole(DEFAULT_ADMIN_ROLE, _msgSender()), \"PS13\");\n    (totalInflatedSupply, lastInflationBlockTime) = _checkInflation();\n  }\n\n  /**\n   * @dev Set inflation\n   * @param inflationRate: inflation rate.\n   *\n   */\n  function setInflation(uint256 inflationRate, uint256 inflationPeriod)\n    public\n    virtual\n    override\n    returns (bool success)\n  {\n    require(hasRole(DEFAULT_ADMIN_ROLE, _msgSender()), \"PS0\");\n    // require inflation rate to be not more than 100 since it is a percentage\n    require(inflationRate <= _valueDivisor, \"PS7\");\n    require(inflationPeriod > 0, \"PS9\");\n    // after enabling inflation, one way to arrest inflation can be to set a large inflationPeriod value\n    _inflationRate = inflationRate;\n    _inflationPeriod = inflationPeriod;\n    // if this is the first time inflation values are being set (inflation activation) then\n    // initialize _totalInflatedSupply with the inflated value and update _lastInflationBlockTime\n    // the inflation cycle begins just as these values are set\n    if (_lastInflationBlockTime == 0) {\n      _totalInflatedSupply = _totalInflatedSupply.add(\n        _totalInflatedSupply.mulDiv(_inflationRate, _valueDivisor)\n      );\n      _lastInflationBlockTime = block.timestamp;\n    }\n    success = true;\n    emit SetInflationRate(_msgSender(), inflationRate, inflationPeriod);\n  }\n\n  /**\n   * @dev Set supply max limit of the inflation component\n   * @param supplyMaxLimit: supply max limit value\n   *\n   */\n  function setSupplyMaxLimit(uint256 supplyMaxLimit)\n    public\n    virtual\n    override\n    returns (bool success)\n  {\n    // require this function to be callable only by the admin\n    require(hasRole(DEFAULT_ADMIN_ROLE, _msgSender()), \"PS8\");\n    // new supply max limit cannot be less than _totalInflatedSupply\n    require(supplyMaxLimit >= _totalInflatedSupply, \"PS10\");\n    // if the total inflated supply has already reached supply max limit then update _lastInflationBlockTime\n    // to restart the inflation cycle again\n    if (_supplyMaxLimit == _totalInflatedSupply) {\n      _lastInflationBlockTime = block.timestamp;\n    }\n    _supplyMaxLimit = supplyMaxLimit;\n    success = true;\n    emit SetSupplyMaxLimit(_msgSender(), supplyMaxLimit);\n  }\n\n  /**\n   * @dev Mint new PSTAKE for the provided 'address' and 'amount'\n   *\n   *\n   * Emits a {MintTokens} event with 'to' set to address and 'tokens' set to amount of tokens.\n   *\n   * Requirements:\n   *\n   * - `amount` cannot be less than zero.\n   *\n   */\n  function mint(address to, uint256 tokens)\n    public\n    virtual\n    override\n    returns (bool success)\n  {\n    require(hasRole(MINTER_ROLE, _msgSender()), \"PS1\");\n\n    // condition to check if the total supply doesnt cross the inflated supply\n    _checkInflation();\n    require((totalSupply()).add(tokens) <= _totalInflatedSupply, \"PS2\");\n\n    // mint the tokens\n    _mint(to, tokens);\n    return true;\n  }\n\n  /**\n   * @dev Set 'contract address', called from constructor\n   * @param vestingTimelockAddress: Vesting timelock contract address\n   *\n   * Emits a {SetVestingTimelockContract} event with '_contract' set to the VestingTimelockcontract address.\n   */\n  function setVestingTimelockContract(address vestingTimelockAddress)\n    public\n    virtual\n    override\n  {\n    require(hasRole(DEFAULT_ADMIN_ROLE, _msgSender()), \"PS6\");\n    require(vestingTimelockAddress != address(0), \"PS11\");\n    _vestingTimelockAddress = vestingTimelockAddress;\n    emit SetVestingTimelockContract(vestingTimelockAddress);\n  }\n\n  /**\n   * @dev adds a vesting grant initiated by this contract as manager\n   * @param beneficiary beneficiary address\n   * @param startTime start time\n   * @param cliffPeriod initial waiting period\n   * @param instalmentAmount installment amount\n   * @param instalmentCount instalment count\n   * @param instalmentPeriod instalment period\n   *\n   * Emits a {AddVesting} event.\n   */\n  function addVesting(\n    address beneficiary,\n    uint256 startTime,\n    uint256 cliffPeriod,\n    uint256 instalmentAmount,\n    uint256 instalmentCount,\n    uint256 instalmentPeriod\n  ) public virtual override nonReentrant returns (uint256 totalVestingAmount) {\n    require(hasRole(DEFAULT_ADMIN_ROLE, _msgSender()), \"PS12\");\n\n    totalVestingAmount = IVestingTimelockV2(_vestingTimelockAddress).addGrant(\n      address(this),\n      beneficiary,\n      startTime,\n      cliffPeriod,\n      instalmentAmount,\n      instalmentCount,\n      instalmentPeriod\n    );\n\n    emit AddGrant(\n      address(this),\n      beneficiary,\n      startTime,\n      cliffPeriod,\n      totalVestingAmount,\n      instalmentAmount,\n      instalmentCount,\n      instalmentPeriod,\n      _msgSender(),\n      block.timestamp\n    );\n  }\n\n  /**\n   * @dev Triggers stopped state.\n   *\n   * Requirements:\n   *\n   * - The contract must not be paused.\n   */\n  function pause() public virtual override returns (bool success) {\n    require(hasRole(PAUSER_ROLE, _msgSender()), \"PS3\");\n    _pause();\n    return true;\n  }\n\n  /**\n   * @dev Returns to normal state.\n   *\n   * Requirements:\n   *\n   * - The contract must be paused.\n   */\n  function unpause() public virtual override returns (bool success) {\n    require(hasRole(PAUSER_ROLE, _msgSender()), \"PS4\");\n    _unpause();\n    return true;\n  }\n\n  /**\n   * @dev Hook that is called before any transfer of tokens. This includes\n   * minting and burning.\n   *\n   * Calling conditions:\n   *\n   * - when `from` and `to` are both non-zero, `amount` of ``from``'s tokens\n   * will be to transferred to `to`.\n   * - when `from` is zero, `amount` tokens will be minted for `to`.\n   * - when `to` is zero, `amount` of ``from``'s tokens will be burned.\n   * - `from` and `to` are never both zero.\n   *\n   */\n  function _beforeTokenTransfer(\n    address from,\n    address to,\n    uint256 amount\n  ) internal virtual override {\n    require(!paused(), \"PS5\");\n    super._beforeTokenTransfer(from, to, amount);\n  }\n}\n",
  "sourcePath": "C:\\Users\\Kamlesh\\Persistence\\pStake\\codebase\\erc20\\contracts\\PSTAKE.sol",
  "compiler": {
    "name": "solc",
    "version": "0.7.6+commit.7338295f.Emscripten.clang"
  },
  "schemaVersion": "3.4.3",
  "updatedAt": "2021-11-22T05:57:06.351Z",
  "networkType": "ethereum",
  "devdoc": {
    "kind": "dev",
    "methods": {
      "addVesting(address,uint256,uint256,uint256,uint256,uint256)": {
        "details": "adds a vesting grant initiated by this contract as manager",
        "params": {
          "beneficiary": "beneficiary address",
          "cliffPeriod": "initial waiting period",
          "instalmentAmount": "installment amount",
          "instalmentCount": "instalment count",
          "instalmentPeriod": "instalment period Emits a {AddVesting} event.",
          "startTime": "start time"
        }
      },
      "allowance(address,address)": {
        "details": "See {IERC20-allowance}."
      },
      "approve(address,uint256)": {
        "details": "See {IERC20-approve}. Requirements: - `spender` cannot be the zero address."
      },
      "balanceOf(address)": {
        "details": "See {IERC20-balanceOf}."
      },
      "checkInflation()": {
        "details": "checks the inflation and sets the inflation parameters if the inflation cycle has changed"
      },
      "decimals()": {
        "details": "Returns the number of decimals used to get its user representation. For example, if `decimals` equals `2`, a balance of `505` tokens should be displayed to a user as `5,05` (`505 / 10 ** 2`). Tokens usually opt for a value of 18, imitating the relationship between Ether and Wei. This is the value {ERC20} uses, unless {_setupDecimals} is called. NOTE: This information is only used for _display_ purposes: it in no way affects any of the arithmetic of the contract, including {IERC20-balanceOf} and {IERC20-transfer}."
      },
      "decreaseAllowance(address,uint256)": {
        "details": "Atomically decreases the allowance granted to `spender` by the caller. This is an alternative to {approve} that can be used as a mitigation for problems described in {IERC20-approve}. Emits an {Approval} event indicating the updated allowance. Requirements: - `spender` cannot be the zero address. - `spender` must have allowance for the caller of at least `subtractedValue`."
      },
      "getRoleAdmin(bytes32)": {
        "details": "Returns the admin role that controls `role`. See {grantRole} and {revokeRole}. To change a role's admin, use {_setRoleAdmin}."
      },
      "getRoleMember(bytes32,uint256)": {
        "details": "Returns one of the accounts that have `role`. `index` must be a value between 0 and {getRoleMemberCount}, non-inclusive. Role bearers are not sorted in any particular way, and their ordering may change at any point. WARNING: When using {getRoleMember} and {getRoleMemberCount}, make sure you perform all queries on the same block. See the following https://forum.openzeppelin.com/t/iterating-over-elements-on-enumerableset-in-openzeppelin-contracts/2296[forum post] for more information."
      },
      "getRoleMemberCount(bytes32)": {
        "details": "Returns the number of accounts that have `role`. Can be used together with {getRoleMember} to enumerate all bearers of a role."
      },
      "grantRole(bytes32,address)": {
        "details": "Grants `role` to `account`. If `account` had not been already granted `role`, emits a {RoleGranted} event. Requirements: - the caller must have ``role``'s admin role."
      },
      "hasRole(bytes32,address)": {
        "details": "Returns `true` if `account` has been granted `role`."
      },
      "increaseAllowance(address,uint256)": {
        "details": "Atomically increases the allowance granted to `spender` by the caller. This is an alternative to {approve} that can be used as a mitigation for problems described in {IERC20-approve}. Emits an {Approval} event indicating the updated allowance. Requirements: - `spender` cannot be the zero address."
      },
      "initialize(address,address,address,address,address,address,address,address,address,address,address,address,address)": {
        "details": "Constructor for initializing the PSTAKE contract.",
        "params": {
          "airdropPool": "- address of the airdrop pool.",
          "alphaLaunchpadPool": "- address of the alpha launchpad pool.",
          "communityDevelopmentFundPool": "- address of the community development fund pool.",
          "incentivisationPool": "- address of the incentivising pool.",
          "protocolTreasuryPool": "- address of the protocol treasury pool.",
          "publicSalePool1": "- address of the public sale pool1.",
          "publicSalePool2": "- address of the public sale pool2.",
          "publicSalePool3": "- address of the public sale pool3.",
          "retroactiveRewardProtocolBootstrapPool": "- address of the retroactive reward protocol bootstrap pool.",
          "seedSalePool": "- address of the seed sale pool.",
          "teamPool": "- address of the team pool.",
          "vestingTimelockAddress": "- address of the vesting timelock contract.",
          "xprtStakersPool": "- address of the xprt stakers pool."
        }
      },
      "mint(address,uint256)": {
        "details": "Mint new PSTAKE for the provided 'address' and 'amount' Emits a {MintTokens} event with 'to' set to address and 'tokens' set to amount of tokens. Requirements: - `amount` cannot be less than zero."
      },
      "name()": {
        "details": "Returns the name of the token."
      },
      "pause()": {
        "details": "Triggers stopped state. Requirements: - The contract must not be paused."
      },
      "paused()": {
        "details": "Returns true if the contract is paused, and false otherwise."
      },
      "renounceRole(bytes32,address)": {
        "details": "Revokes `role` from the calling account. Roles are often managed via {grantRole} and {revokeRole}: this function's purpose is to provide a mechanism for accounts to lose their privileges if they are compromised (such as when a trusted device is misplaced). If the calling account had been granted `role`, emits a {RoleRevoked} event. Requirements: - the caller must be `account`."
      },
      "revokeRole(bytes32,address)": {
        "details": "Revokes `role` from `account`. If `account` had been granted `role`, emits a {RoleRevoked} event. Requirements: - the caller must have ``role``'s admin role."
      },
      "setInflation(uint256,uint256)": {
        "details": "Set inflation",
        "params": {
          "inflationRate": ": inflation rate."
        }
      },
      "setSupplyMaxLimit(uint256)": {
        "details": "Set supply max limit of the inflation component",
        "params": {
          "supplyMaxLimit": ": supply max limit value"
        }
      },
      "setVestingTimelockContract(address)": {
        "details": "Set 'contract address', called from constructor",
        "params": {
          "vestingTimelockAddress": ": Vesting timelock contract address Emits a {SetVestingTimelockContract} event with '_contract' set to the VestingTimelockcontract address."
        }
      },
      "symbol()": {
        "details": "Returns the symbol of the token, usually a shorter version of the name."
      },
      "totalSupply()": {
        "details": "See {IERC20-totalSupply}."
      },
      "transfer(address,uint256)": {
        "details": "See {IERC20-transfer}. Requirements: - `recipient` cannot be the zero address. - the caller must have a balance of at least `amount`."
      },
      "transferFrom(address,address,uint256)": {
        "details": "See {IERC20-transferFrom}. Emits an {Approval} event indicating the updated allowance. This is not required by the EIP. See the note at the beginning of {ERC20}. Requirements: - `sender` and `recipient` cannot be the zero address. - `sender` must have a balance of at least `amount`. - the caller must have allowance for ``sender``'s tokens of at least `amount`."
      },
      "unpause()": {
        "details": "Returns to normal state. Requirements: - The contract must be paused."
      }
    },
    "version": 1
  },
  "userdoc": {
    "kind": "user",
    "methods": {},
    "version": 1
  }
}