{
  "contractName": "PSTAKE",
  "abi": [
    {
      "anonymous": false,
      "inputs": [
        {
          "indexed": true,
          "internalType": "address",
          "name": "owner",
          "type": "address"
        },
        {
          "indexed": true,
          "internalType": "address",
          "name": "spender",
          "type": "address"
        },
        {
          "indexed": false,
          "internalType": "uint256",
          "name": "value",
          "type": "uint256"
        }
      ],
      "name": "Approval",
      "type": "event"
    },
    {
      "anonymous": false,
      "inputs": [
        {
          "indexed": false,
          "internalType": "uint256",
          "name": "lastInflationBlockTime",
          "type": "uint256"
        },
        {
          "indexed": false,
          "internalType": "uint256",
          "name": "inflationAdded",
          "type": "uint256"
        },
        {
          "indexed": false,
          "internalType": "uint256",
          "name": "timestamp",
          "type": "uint256"
        }
      ],
      "name": "CheckInflation",
      "type": "event"
    },
    {
      "anonymous": false,
      "inputs": [
        {
          "indexed": false,
          "internalType": "address",
          "name": "account",
          "type": "address"
        }
      ],
      "name": "Paused",
      "type": "event"
    },
    {
      "anonymous": false,
      "inputs": [
        {
          "indexed": true,
          "internalType": "bytes32",
          "name": "role",
          "type": "bytes32"
        },
        {
          "indexed": true,
          "internalType": "bytes32",
          "name": "previousAdminRole",
          "type": "bytes32"
        },
        {
          "indexed": true,
          "internalType": "bytes32",
          "name": "newAdminRole",
          "type": "bytes32"
        }
      ],
      "name": "RoleAdminChanged",
      "type": "event"
    },
    {
      "anonymous": false,
      "inputs": [
        {
          "indexed": true,
          "internalType": "bytes32",
          "name": "role",
          "type": "bytes32"
        },
        {
          "indexed": true,
          "internalType": "address",
          "name": "account",
          "type": "address"
        },
        {
          "indexed": true,
          "internalType": "address",
          "name": "sender",
          "type": "address"
        }
      ],
      "name": "RoleGranted",
      "type": "event"
    },
    {
      "anonymous": false,
      "inputs": [
        {
          "indexed": true,
          "internalType": "bytes32",
          "name": "role",
          "type": "bytes32"
        },
        {
          "indexed": true,
          "internalType": "address",
          "name": "account",
          "type": "address"
        },
        {
          "indexed": true,
          "internalType": "address",
          "name": "sender",
          "type": "address"
        }
      ],
      "name": "RoleRevoked",
      "type": "event"
    },
    {
      "anonymous": false,
      "inputs": [
        {
          "indexed": false,
          "internalType": "address",
          "name": "accountAddress",
          "type": "address"
        },
        {
          "indexed": false,
          "internalType": "uint256",
          "name": "inflationRate",
          "type": "uint256"
        },
        {
          "indexed": false,
          "internalType": "uint256",
          "name": "inflationPeriod",
          "type": "uint256"
        }
      ],
      "name": "SetInflationRate",
      "type": "event"
    },
    {
      "anonymous": false,
      "inputs": [
        {
          "indexed": false,
          "internalType": "address",
          "name": "accountAddress",
          "type": "address"
        },
        {
          "indexed": false,
          "internalType": "uint256",
          "name": "supplyMaxLimit",
          "type": "uint256"
        }
      ],
      "name": "SetSupplyMaxLimit",
      "type": "event"
    },
    {
      "anonymous": false,
      "inputs": [
        {
          "indexed": false,
          "internalType": "address",
          "name": "vestingTimelockAddress",
          "type": "address"
        }
      ],
      "name": "SetVestingTimelockContract",
      "type": "event"
    },
    {
      "anonymous": false,
      "inputs": [
        {
          "indexed": true,
          "internalType": "address",
          "name": "from",
          "type": "address"
        },
        {
          "indexed": true,
          "internalType": "address",
          "name": "to",
          "type": "address"
        },
        {
          "indexed": false,
          "internalType": "uint256",
          "name": "value",
          "type": "uint256"
        }
      ],
      "name": "Transfer",
      "type": "event"
    },
    {
      "anonymous": false,
      "inputs": [
        {
          "indexed": false,
          "internalType": "address",
          "name": "account",
          "type": "address"
        }
      ],
      "name": "Unpaused",
      "type": "event"
    },
    {
      "inputs": [],
      "name": "AIRDROPPOOLALLOCATION",
      "outputs": [
        {
          "internalType": "uint256",
          "name": "",
          "type": "uint256"
        }
      ],
      "stateMutability": "view",
      "type": "function"
    },
    {
      "inputs": [],
      "name": "ALPHALAUNCHPADPOOLALLOCATION",
      "outputs": [
        {
          "internalType": "uint256",
          "name": "",
          "type": "uint256"
        }
      ],
      "stateMutability": "view",
      "type": "function"
    },
    {
      "inputs": [],
      "name": "DEFAULT_ADMIN_ROLE",
      "outputs": [
        {
          "internalType": "bytes32",
          "name": "",
          "type": "bytes32"
        }
      ],
      "stateMutability": "view",
      "type": "function"
    },
    {
      "inputs": [],
      "name": "INCENTIVISATIONCOMMUNITYDEVELOPMENTPOOLALLOCATION",
      "outputs": [
        {
          "internalType": "uint256",
          "name": "",
          "type": "uint256"
        }
      ],
      "stateMutability": "view",
      "type": "function"
    },
    {
      "inputs": [],
      "name": "INFLATION_PERIOD",
      "outputs": [
        {
          "internalType": "uint256",
          "name": "",
          "type": "uint256"
        }
      ],
      "stateMutability": "view",
      "type": "function"
    },
    {
      "inputs": [],
      "name": "INFLATION_RATE",
      "outputs": [
        {
          "internalType": "uint256",
          "name": "",
          "type": "uint256"
        }
      ],
      "stateMutability": "view",
      "type": "function"
    },
    {
      "inputs": [],
      "name": "MINTER_ROLE",
      "outputs": [
        {
          "internalType": "bytes32",
          "name": "",
          "type": "bytes32"
        }
      ],
      "stateMutability": "view",
      "type": "function"
    },
    {
      "inputs": [],
      "name": "PAUSER_ROLE",
      "outputs": [
        {
          "internalType": "bytes32",
          "name": "",
          "type": "bytes32"
        }
      ],
      "stateMutability": "view",
      "type": "function"
    },
    {
      "inputs": [],
      "name": "PROTOCOLTREASURYPOOLALLOCATION",
      "outputs": [
        {
          "internalType": "uint256",
          "name": "",
          "type": "uint256"
        }
      ],
      "stateMutability": "view",
      "type": "function"
    },
    {
      "inputs": [],
      "name": "PUBLICSALEPOOLALLOCATION",
      "outputs": [
        {
          "internalType": "uint256",
          "name": "",
          "type": "uint256"
        }
      ],
      "stateMutability": "view",
      "type": "function"
    },
    {
      "inputs": [],
      "name": "RETROACTIVEREWARDPROTOCOLBOOTSTRAPPOOLALLOCATION",
      "outputs": [
        {
          "internalType": "uint256",
          "name": "",
          "type": "uint256"
        }
      ],
      "stateMutability": "view",
      "type": "function"
    },
    {
      "inputs": [],
      "name": "SUPPLY_AT_GENESIS",
      "outputs": [
        {
          "internalType": "uint256",
          "name": "",
          "type": "uint256"
        }
      ],
      "stateMutability": "view",
      "type": "function"
    },
    {
      "inputs": [],
      "name": "SUPPLY_MAX_LIMIT",
      "outputs": [
        {
          "internalType": "uint256",
          "name": "",
          "type": "uint256"
        }
      ],
      "stateMutability": "view",
      "type": "function"
    },
    {
      "inputs": [],
      "name": "TOTAL_VESTED_SUPPLY",
      "outputs": [
        {
          "internalType": "uint256",
          "name": "",
          "type": "uint256"
        }
      ],
      "stateMutability": "view",
      "type": "function"
    },
    {
      "inputs": [],
      "name": "VALUE_DIVISOR",
      "outputs": [
        {
          "internalType": "uint256",
          "name": "",
          "type": "uint256"
        }
      ],
      "stateMutability": "view",
      "type": "function"
    },
    {
      "inputs": [],
      "name": "XPRTSTAKERSPOOLALLOCATION",
      "outputs": [
        {
          "internalType": "uint256",
          "name": "",
          "type": "uint256"
        }
      ],
      "stateMutability": "view",
      "type": "function"
    },
    {
      "inputs": [],
      "name": "_airdropPool",
      "outputs": [
        {
          "internalType": "address",
          "name": "",
          "type": "address"
        }
      ],
      "stateMutability": "view",
      "type": "function"
    },
    {
      "inputs": [],
      "name": "_alphaLaunchpadPool",
      "outputs": [
        {
          "internalType": "address",
          "name": "",
          "type": "address"
        }
      ],
      "stateMutability": "view",
      "type": "function"
    },
    {
      "inputs": [],
      "name": "_incentivisationCommunityDevelopmentPool",
      "outputs": [
        {
          "internalType": "address",
          "name": "",
          "type": "address"
        }
      ],
      "stateMutability": "view",
      "type": "function"
    },
    {
      "inputs": [],
      "name": "_inflationPeriod",
      "outputs": [
        {
          "internalType": "uint256",
          "name": "",
          "type": "uint256"
        }
      ],
      "stateMutability": "view",
      "type": "function"
    },
    {
      "inputs": [],
      "name": "_inflationRate",
      "outputs": [
        {
          "internalType": "uint256",
          "name": "",
          "type": "uint256"
        }
      ],
      "stateMutability": "view",
      "type": "function"
    },
    {
      "inputs": [],
      "name": "_lastInflationBlockTime",
      "outputs": [
        {
          "internalType": "uint256",
          "name": "",
          "type": "uint256"
        }
      ],
      "stateMutability": "view",
      "type": "function"
    },
    {
      "inputs": [],
      "name": "_protocolTreasuryPool",
      "outputs": [
        {
          "internalType": "address",
          "name": "",
          "type": "address"
        }
      ],
      "stateMutability": "view",
      "type": "function"
    },
    {
      "inputs": [],
      "name": "_publicSalePool",
      "outputs": [
        {
          "internalType": "address",
          "name": "",
          "type": "address"
        }
      ],
      "stateMutability": "view",
      "type": "function"
    },
    {
      "inputs": [],
      "name": "_retroactiveRewardProtocolBootstrapPool",
      "outputs": [
        {
          "internalType": "address",
          "name": "",
          "type": "address"
        }
      ],
      "stateMutability": "view",
      "type": "function"
    },
    {
      "inputs": [],
      "name": "_supplyMaxLimit",
      "outputs": [
        {
          "internalType": "uint256",
          "name": "",
          "type": "uint256"
        }
      ],
      "stateMutability": "view",
      "type": "function"
    },
    {
      "inputs": [],
      "name": "_totalInflatedSupply",
      "outputs": [
        {
          "internalType": "uint256",
          "name": "",
          "type": "uint256"
        }
      ],
      "stateMutability": "view",
      "type": "function"
    },
    {
      "inputs": [],
      "name": "_valueDivisor",
      "outputs": [
        {
          "internalType": "uint256",
          "name": "",
          "type": "uint256"
        }
      ],
      "stateMutability": "view",
      "type": "function"
    },
    {
      "inputs": [],
      "name": "_version",
      "outputs": [
        {
          "internalType": "uint256",
          "name": "",
          "type": "uint256"
        }
      ],
      "stateMutability": "view",
      "type": "function"
    },
    {
      "inputs": [],
      "name": "_vestingTimelockAddress",
      "outputs": [
        {
          "internalType": "address",
          "name": "",
          "type": "address"
        }
      ],
      "stateMutability": "view",
      "type": "function"
    },
    {
      "inputs": [],
      "name": "_xprtStakersPool",
      "outputs": [
        {
          "internalType": "address",
          "name": "",
          "type": "address"
        }
      ],
      "stateMutability": "view",
      "type": "function"
    },
    {
      "inputs": [
        {
          "internalType": "address",
          "name": "owner",
          "type": "address"
        },
        {
          "internalType": "address",
          "name": "spender",
          "type": "address"
        }
      ],
      "name": "allowance",
      "outputs": [
        {
          "internalType": "uint256",
          "name": "",
          "type": "uint256"
        }
      ],
      "stateMutability": "view",
      "type": "function"
    },
    {
      "inputs": [
        {
          "internalType": "address",
          "name": "spender",
          "type": "address"
        },
        {
          "internalType": "uint256",
          "name": "amount",
          "type": "uint256"
        }
      ],
      "name": "approve",
      "outputs": [
        {
          "internalType": "bool",
          "name": "",
          "type": "bool"
        }
      ],
      "stateMutability": "nonpayable",
      "type": "function"
    },
    {
      "inputs": [
        {
          "internalType": "address",
          "name": "account",
          "type": "address"
        }
      ],
      "name": "balanceOf",
      "outputs": [
        {
          "internalType": "uint256",
          "name": "",
          "type": "uint256"
        }
      ],
      "stateMutability": "view",
      "type": "function"
    },
    {
      "inputs": [],
      "name": "decimals",
      "outputs": [
        {
          "internalType": "uint8",
          "name": "",
          "type": "uint8"
        }
      ],
      "stateMutability": "view",
      "type": "function"
    },
    {
      "inputs": [
        {
          "internalType": "address",
          "name": "spender",
          "type": "address"
        },
        {
          "internalType": "uint256",
          "name": "subtractedValue",
          "type": "uint256"
        }
      ],
      "name": "decreaseAllowance",
      "outputs": [
        {
          "internalType": "bool",
          "name": "",
          "type": "bool"
        }
      ],
      "stateMutability": "nonpayable",
      "type": "function"
    },
    {
      "inputs": [
        {
          "internalType": "bytes32",
          "name": "role",
          "type": "bytes32"
        }
      ],
      "name": "getRoleAdmin",
      "outputs": [
        {
          "internalType": "bytes32",
          "name": "",
          "type": "bytes32"
        }
      ],
      "stateMutability": "view",
      "type": "function"
    },
    {
      "inputs": [
        {
          "internalType": "bytes32",
          "name": "role",
          "type": "bytes32"
        },
        {
          "internalType": "uint256",
          "name": "index",
          "type": "uint256"
        }
      ],
      "name": "getRoleMember",
      "outputs": [
        {
          "internalType": "address",
          "name": "",
          "type": "address"
        }
      ],
      "stateMutability": "view",
      "type": "function"
    },
    {
      "inputs": [
        {
          "internalType": "bytes32",
          "name": "role",
          "type": "bytes32"
        }
      ],
      "name": "getRoleMemberCount",
      "outputs": [
        {
          "internalType": "uint256",
          "name": "",
          "type": "uint256"
        }
      ],
      "stateMutability": "view",
      "type": "function"
    },
    {
      "inputs": [
        {
          "internalType": "bytes32",
          "name": "role",
          "type": "bytes32"
        },
        {
          "internalType": "address",
          "name": "account",
          "type": "address"
        }
      ],
      "name": "grantRole",
      "outputs": [],
      "stateMutability": "nonpayable",
      "type": "function"
    },
    {
      "inputs": [
        {
          "internalType": "bytes32",
          "name": "role",
          "type": "bytes32"
        },
        {
          "internalType": "address",
          "name": "account",
          "type": "address"
        }
      ],
      "name": "hasRole",
      "outputs": [
        {
          "internalType": "bool",
          "name": "",
          "type": "bool"
        }
      ],
      "stateMutability": "view",
      "type": "function"
    },
    {
      "inputs": [
        {
          "internalType": "address",
          "name": "spender",
          "type": "address"
        },
        {
          "internalType": "uint256",
          "name": "addedValue",
          "type": "uint256"
        }
      ],
      "name": "increaseAllowance",
      "outputs": [
        {
          "internalType": "bool",
          "name": "",
          "type": "bool"
        }
      ],
      "stateMutability": "nonpayable",
      "type": "function"
    },
    {
      "inputs": [],
      "name": "name",
      "outputs": [
        {
          "internalType": "string",
          "name": "",
          "type": "string"
        }
      ],
      "stateMutability": "view",
      "type": "function"
    },
    {
      "inputs": [],
      "name": "paused",
      "outputs": [
        {
          "internalType": "bool",
          "name": "",
          "type": "bool"
        }
      ],
      "stateMutability": "view",
      "type": "function"
    },
    {
      "inputs": [
        {
          "internalType": "bytes32",
          "name": "role",
          "type": "bytes32"
        },
        {
          "internalType": "address",
          "name": "account",
          "type": "address"
        }
      ],
      "name": "renounceRole",
      "outputs": [],
      "stateMutability": "nonpayable",
      "type": "function"
    },
    {
      "inputs": [
        {
          "internalType": "bytes32",
          "name": "role",
          "type": "bytes32"
        },
        {
          "internalType": "address",
          "name": "account",
          "type": "address"
        }
      ],
      "name": "revokeRole",
      "outputs": [],
      "stateMutability": "nonpayable",
      "type": "function"
    },
    {
      "inputs": [],
      "name": "symbol",
      "outputs": [
        {
          "internalType": "string",
          "name": "",
          "type": "string"
        }
      ],
      "stateMutability": "view",
      "type": "function"
    },
    {
      "inputs": [],
      "name": "totalSupply",
      "outputs": [
        {
          "internalType": "uint256",
          "name": "",
          "type": "uint256"
        }
      ],
      "stateMutability": "view",
      "type": "function"
    },
    {
      "inputs": [
        {
          "internalType": "address",
          "name": "recipient",
          "type": "address"
        },
        {
          "internalType": "uint256",
          "name": "amount",
          "type": "uint256"
        }
      ],
      "name": "transfer",
      "outputs": [
        {
          "internalType": "bool",
          "name": "",
          "type": "bool"
        }
      ],
      "stateMutability": "nonpayable",
      "type": "function"
    },
    {
      "inputs": [
        {
          "internalType": "address",
          "name": "sender",
          "type": "address"
        },
        {
          "internalType": "address",
          "name": "recipient",
          "type": "address"
        },
        {
          "internalType": "uint256",
          "name": "amount",
          "type": "uint256"
        }
      ],
      "name": "transferFrom",
      "outputs": [
        {
          "internalType": "bool",
          "name": "",
          "type": "bool"
        }
      ],
      "stateMutability": "nonpayable",
      "type": "function"
    },
    {
      "inputs": [
        {
          "internalType": "address",
          "name": "vestingTimelockAddress",
          "type": "address"
        },
        {
          "internalType": "address",
          "name": "airdropPool",
          "type": "address"
        },
        {
          "internalType": "address",
          "name": "alphaLaunchpadPool",
          "type": "address"
        },
        {
          "internalType": "address",
          "name": "publicSalePool",
          "type": "address"
        },
        {
          "internalType": "address",
          "name": "incentivisationCommunityDevelopmentPool",
          "type": "address"
        },
        {
          "internalType": "address",
          "name": "xprtStakersPool",
          "type": "address"
        },
        {
          "internalType": "address",
          "name": "protocolTreasuryPool",
          "type": "address"
        },
        {
          "internalType": "address",
          "name": "retroactiveRewardProtocolBootstrapPool",
          "type": "address"
        }
      ],
      "name": "initialize",
      "outputs": [],
      "stateMutability": "nonpayable",
      "type": "function"
    },
    {
      "inputs": [],
      "name": "checkInflation",
      "outputs": [
        {
          "internalType": "uint256",
          "name": "totalInflatedSupply",
          "type": "uint256"
        },
        {
          "internalType": "uint256",
          "name": "lastInflationBlockTime",
          "type": "uint256"
        }
      ],
      "stateMutability": "nonpayable",
      "type": "function"
    },
    {
      "inputs": [],
      "name": "getInflation",
      "outputs": [
        {
          "internalType": "uint256",
          "name": "totalInflatedSupply",
          "type": "uint256"
        },
        {
          "internalType": "uint256",
          "name": "inflationRate",
          "type": "uint256"
        },
        {
          "internalType": "uint256",
          "name": "valueDivisor",
          "type": "uint256"
        },
        {
          "internalType": "uint256",
          "name": "inflationPeriod",
          "type": "uint256"
        },
        {
          "internalType": "uint256",
          "name": "lastInflationBlockTime",
          "type": "uint256"
        },
        {
          "internalType": "uint256",
          "name": "supplyMaxLimit",
          "type": "uint256"
        }
      ],
      "stateMutability": "view",
      "type": "function"
    },
    {
      "inputs": [
        {
          "internalType": "uint256",
          "name": "inflationRate",
          "type": "uint256"
        },
        {
          "internalType": "uint256",
          "name": "inflationPeriod",
          "type": "uint256"
        }
      ],
      "name": "setInflation",
      "outputs": [
        {
          "internalType": "bool",
          "name": "success",
          "type": "bool"
        }
      ],
      "stateMutability": "nonpayable",
      "type": "function"
    },
    {
      "inputs": [
        {
          "internalType": "uint256",
          "name": "supplyMaxLimit",
          "type": "uint256"
        }
      ],
      "name": "setSupplyMaxLimit",
      "outputs": [
        {
          "internalType": "bool",
          "name": "success",
          "type": "bool"
        }
      ],
      "stateMutability": "nonpayable",
      "type": "function"
    },
    {
      "inputs": [
        {
          "internalType": "address",
          "name": "to",
          "type": "address"
        },
        {
          "internalType": "uint256",
          "name": "tokens",
          "type": "uint256"
        }
      ],
      "name": "mint",
      "outputs": [
        {
          "internalType": "bool",
          "name": "success",
          "type": "bool"
        }
      ],
      "stateMutability": "nonpayable",
      "type": "function"
    },
    {
      "inputs": [
        {
          "internalType": "address",
          "name": "beneficiary",
          "type": "address"
        },
        {
          "internalType": "uint256",
          "name": "startTime",
          "type": "uint256"
        },
        {
          "internalType": "uint256",
          "name": "cliffPeriod",
          "type": "uint256"
        },
        {
          "internalType": "uint256",
          "name": "instalmentAmount",
          "type": "uint256"
        },
        {
          "internalType": "uint256",
          "name": "instalmentCount",
          "type": "uint256"
        },
        {
          "internalType": "uint256",
          "name": "instalmentPeriod",
          "type": "uint256"
        }
      ],
      "name": "addVesting",
      "outputs": [
        {
          "internalType": "uint256",
          "name": "totalVestingAmount",
          "type": "uint256"
        }
      ],
      "stateMutability": "nonpayable",
      "type": "function"
    },
    {
      "inputs": [],
      "name": "pause",
      "outputs": [
        {
          "internalType": "bool",
          "name": "success",
          "type": "bool"
        }
      ],
      "stateMutability": "nonpayable",
      "type": "function"
    },
    {
      "inputs": [],
      "name": "unpause",
      "outputs": [
        {
          "internalType": "bool",
          "name": "success",
          "type": "bool"
        }
      ],
      "stateMutability": "nonpayable",
      "type": "function"
    }
  ],
  "bytecode": "0x608060405234801561001057600080fd5b50612baa806100206000396000f3fe608060405234801561001057600080fd5b50600436106103995760003560e01c80638a29e2de116101e9578063c94d747b1161010f578063d547741f116100ad578063e2f97bb01161007c578063e2f97bb014610927578063e63ab1e91461092f578063e6f0dfdf14610937578063ef22082c1461093f57610399565b8063d547741f1461088a578063d5a95771146108b6578063dd62ed3e146108f1578063e1e2e3bf1461091f57610399565b8063cdc6c537116100e9578063cdc6c5371461086a578063d182a8c914610872578063d493da211461087a578063d53913931461088257610399565b8063c94d747b1461083d578063ca15c87314610845578063cb31a85f1461086257610399565b8063a547f5ad11610187578063b381a81111610156578063b381a8111461081d578063ba052eb414610825578063c32ab7f71461082d578063c947755a1461083557610399565b8063a547f5ad146107d9578063a55ba9d4146107e1578063a60d5e2d146107e9578063a9059cbb146107f157610399565b806395d89b41116101c357806395d89b411461079557806398e8fd021461079d578063a217fddf146107a5578063a457c2d7146107ad57610399565b80638a29e2de146106e75780639010d07c1461074657806391d148541461076957610399565b8063453c69cb116102ce57806370a082311161026c5780638321296d1161023b5780638321296d146106ba5780638456cb59146106d757806386ea9ec4146106df5780638969873f1461065357610399565b806370a082311461067c578063728a99ee146106a25780637744e3c7146106aa5780637b17361c146106b257610399565b80635b0d59e6116102a85780635b0d59e6146106075780635c975abb1461064b5780635d2ae67b146106535780636789dafd1461065b57610399565b8063453c69cb146105d4578063499f002c146105f75780634ad3087c146105ff57610399565b8063313ce5671161033b5780633aed93b6116103155780633aed93b6146105905780633e118dbe146105985780633f4ba83a146105a057806340c10f19146105a857610399565b8063313ce5671461051a57806336568abe14610538578063395093511461056457610399565b806318160ddd1161037757806318160ddd1461047f57806323b872dd14610499578063248a9ca3146104cf5780632f2ff15d146104ec57610399565b806306fdde031461039e578063095ea7b31461041b5780630e054f021461045b575b600080fd5b6103a6610947565b6040805160208082528351818301528351919283929083019185019080838360005b838110156103e05781810151838201526020016103c8565b50505050905090810190601f16801561040d5780820380516001836020036101000a031916815260200191505b509250505060405180910390f35b6104476004803603604081101561043157600080fd5b506001600160a01b0381351690602001356109dd565b604080519115158252519081900360200190f35b6104636109fb565b604080516001600160a01b039092168252519081900360200190f35b610487610a0a565b60408051918252519081900360200190f35b610447600480360360608110156104af57600080fd5b506001600160a01b03813581169160208101359091169060400135610a10565b610487600480360360208110156104e557600080fd5b5035610a98565b6105186004803603604081101561050257600080fd5b50803590602001356001600160a01b0316610aad565b005b610522610b19565b6040805160ff9092168252519081900360200190f35b6105186004803603604081101561054e57600080fd5b50803590602001356001600160a01b0316610b22565b6104476004803603604081101561057a57600080fd5b506001600160a01b038135169060200135610b83565b610487610bd1565b610487610be1565b610447610be7565b610447600480360360408110156105be57600080fd5b506001600160a01b038135169060200135610c4b565b610447600480360360408110156105ea57600080fd5b5080359060200135610d13565b610487610e92565b610487610e99565b610487600480360360c081101561061d57600080fd5b506001600160a01b038135169060208101359060408101359060608101359060808101359060a00135610ea8565b610447611047565b610487611050565b61066361105f565b6040805192835260208301919091528051918290030190f35b6104876004803603602081101561069257600080fd5b50356001600160a01b03166110b6565b6104876110d1565b6104876110d7565b6104876110de565b610447600480360360208110156106d057600080fd5b50356110e6565b6104476111df565b61048761123d565b61051860048036036101008110156106fe57600080fd5b506001600160a01b038135811691602081013582169160408201358116916060810135821691608082013581169160a081013582169160c082013581169160e001351661124c565b6104636004803603604081101561075c57600080fd5b5080359060200135611556565b6104476004803603604081101561077f57600080fd5b50803590602001356001600160a01b031661156e565b6103a6611586565b6104636115e7565b6104876115f7565b610447600480360360408110156107c357600080fd5b506001600160a01b0381351690602001356115fc565b610487611664565b610487611673565b610487611683565b6104476004803603604081101561080757600080fd5b506001600160a01b03813516906020013561168a565b61048761169e565b6104636116a7565b6104636116b6565b6104876116c6565b6104876116ce565b6104876004803603602081101561085b57600080fd5b50356116dd565b6104636116f4565b610487611704565b610487611713565b610463611723565b610487611733565b610518600480360360408110156108a057600080fd5b50803590602001356001600160a01b0316611757565b6108be6117b0565b604080519687526020870195909552858501939093526060850191909152608084015260a0830152519081900360c00190f35b6104876004803603604081101561090757600080fd5b506001600160a01b03813581169160200135166117cf565b6104636117fa565b61046361180a565b610487611819565b61048761182b565b610487611832565b60368054604080516020601f60026000196101006001881615020190951694909404938401819004810282018101909252828152606093909290918301828280156109d35780601f106109a8576101008083540402835291602001916109d3565b820191906000526020600020905b8154815290600101906020018083116109b657829003601f168201915b5050505050905090565b60006109f16109ea611839565b848461183d565b5060015b92915050565b60fd546001600160a01b031681565b60355490565b6000610a1d848484611929565b610a8d84610a29611839565b610a8885604051806060016040528060288152602001612a90602891396001600160a01b038a16600090815260346020526040812090610a67611839565b6001600160a01b031681526020810191909152604001600020549190611a86565b61183d565b5060015b9392505050565b60009081526097602052604090206002015490565b600082815260976020526040902060020154610ad090610acb611839565b61156e565b610b0b5760405162461bcd60e51b815260040180806020018281038252602f81526020018061299a602f913960400191505060405180910390fd5b610b158282611b1d565b5050565b60385460ff1690565b610b2a611839565b6001600160a01b0316816001600160a01b031614610b795760405162461bcd60e51b815260040180806020018281038252602f815260200180612b46602f913960400191505060405180910390fd5b610b158282611b86565b60006109f1610b90611839565b84610a888560346000610ba1611839565b6001600160a01b03908116825260208083019390935260409182016000908120918c168152925290205490611bef565b6b016d916050acae959870000081565b60fb5481565b6000610c03600080516020612ab8833981519152610acb611839565b610c3d576040805162461bcd60e51b815260206004808301919091526024820152635053313360e01b604482015290519081900360640190fd5b610c45611c49565b50600190565b6000610c797f9f2df0fed2c77648de5860a4cc508cd0818c85b8b8a1ab4ceeef8d981c8956a6610acb611839565b610cb0576040805162461bcd60e51b815260206004820152600360248201526250533760e81b604482015290519081900360640190fd5b610cb8611ce9565b505061010554610cd083610cca610a0a565b90611bef565b1115610d09576040805162461bcd60e51b81526020600482015260036024820152620a0a6760eb1b604482015290519081900360640190fd5b6109f18383611e42565b6000610d2181610acb611839565b610d58576040805162461bcd60e51b815260206004820152600360248201526228299960e91b604482015290519081900360640190fd5b60fc54610d66906064611f34565b831115610da0576040805162461bcd60e51b815260206004820152600360248201526250533360e81b604482015290519081900360640190fd5b60008211610ddb576040805162461bcd60e51b81526020600482015260036024820152621414cd60ea1b604482015290519081900360640190fd5b610de3611ce9565b505061010683905561010782905561010854610e3857610e2e610e246064610e1e6101065460fc5461010554611f8d9092919063ffffffff16565b90612046565b6101055490611bef565b6101055542610108555b5060017f3626ade5797d5d9ff68b2dd6193599e26a3cb5d1f6afb37ca308e7533ff620e5610e64611839565b604080516001600160a01b03909216825260208201869052818101859052519081900360600190a192915050565b6101085481565b6a0108b2a2c280290940000081565b6000600260c9541415610f02576040805162461bcd60e51b815260206004820152601f60248201527f5265656e7472616e637947756172643a207265656e7472616e742063616c6c00604482015290519081900360640190fd5b600260c955610f146000610acb611839565b610f4e576040805162461bcd60e51b815260206004808301919091526024820152635053313160e01b604482015290519081900360640190fd5b610f588484611f34565b61010454909150610f739030906001600160a01b03166117cf565b811115610f935761010454610f939030906001600160a01b03168361183d565b610104546040805163d41c912560e01b81523060048201526001600160a01b038a81166024830152604482018a9052606482018990526084820188905260a4820187905260c482018690529151919092169163d41c91259160e48083019260209291908290030181600087803b15801561100c57600080fd5b505af1158015611020573d6000803e3d6000fd5b505050506040513d602081101561103657600080fd5b5050600160c9559695505050505050565b60655460ff1690565b6a084595161401484a00000081565b60008061106e81610acb611839565b6110a5576040805162461bcd60e51b815260206004820152600360248201526250533160e81b604482015290519081900360640190fd5b6110ad611ce9565b90939092509050565b6001600160a01b031660009081526033602052604090205490565b60fc5481565b6101095481565b633b9aca0081565b60006110f481610acb611839565b61112b576040805162461bcd60e51b815260206004820152600360248201526250533560e81b604482015290519081900360640190fd5b61010554821015611169576040805162461bcd60e51b815260206004820152600360248201526228299b60e91b604482015290519081900360640190fd5b611171611ce9565b5050610105546101095414156111875742610108555b5061010981905560017fc7ef0200a4197b576e0fd91f28652dedae560532b3d4ea0193cc124b3c16f4cf6111b9611839565b604080516001600160a01b039092168252602082018590528051918290030190a1919050565b60006111fb600080516020612ab8833981519152610acb611839565b611235576040805162461bcd60e51b815260206004808301919091526024820152632829989960e11b604482015290519081900360640190fd5b610c456120ad565b6a052b7d2dcc80cd2e40000081565b600054610100900460ff16806112655750611265612130565b80611273575060005460ff16155b6112ae5760405162461bcd60e51b815260040180806020018281038252602e815260200180612a41602e913960400191505060405180910390fd5b600054610100900460ff161580156112d9576000805460ff1961ff0019909116610100171660011790555b6113256040518060400160405280600c81526020016b3829aa20a5a2902a37b5b2b760a11b81525060405180604001604052806006815260200165505354414b4560d01b815250612141565b61132d6121f7565b6113356122a9565b6113476000611342611839565b610b0b565b611361600080516020612ab8833981519152611342611839565b61138d7f9f2df0fed2c77648de5860a4cc508cd0818c85b8b8a1ab4ceeef8d981c8956a6611342611839565b600160fb5561010480546001600160a01b0319166001600160a01b038b161790556113b86012612346565b633b9aca0060fc556b019d971e4fe8401e740000006101055560fd80546001600160a01b03199081166001600160a01b038b8116919091179283905560fe805483168b831617905560ff805483168a831617905561010080548316898316179055610101805483168883161790556101028054831687831617905561010380549092168582161790915561145891166a0422ca8b0a00a425000000611e42565b60fe54611479906001600160a01b03166a084595161401484a000000611e42565b60ff5461149a906001600160a01b03166a052b7d2dcc80cd2e400000611e42565b610100546114bc906001600160a01b03166a0bf2bae0d577c33cf00000611e42565b610101546114de906001600160a01b03166a0108b2a2c2802909400000611e42565b61010254611500906001600160a01b03166a0930de88c45ee706bc0000611e42565b61010354611522906001600160a01b03166a084595161401484a000000611e42565b611538306b016d916050acae9598700000610c4b565b50801561154b576000805461ff00191690555b505050505050505050565b6000828152609760205260408120610a91908361235c565b6000828152609760205260408120610a919083612368565b60378054604080516020601f60026000196101006001881615020190951694909404938401819004810282018101909252828152606093909290918301828280156109d35780601f106109a8576101008083540402835291602001916109d3565b610101546001600160a01b031681565b600081565b60006109f1611609611839565b84610a8885604051806060016040528060258152602001612b216025913960346000611633611839565b6001600160a01b03908116825260208083019390935260409182016000908120918d16815292529020549190611a86565b6a0bf2bae0d577c33cf0000081565b6b0409f9cbc7c4a04c2200000081565b6101075481565b60006109f1611697611839565b8484611929565b64037e11d60081565b60ff546001600160a01b031681565b610102546001600160a01b031681565b6301e1338081565b6a0422ca8b0a00a42500000081565b60008181526097602052604081206109f59061237d565b610104546001600160a01b031681565b6a0930de88c45ee706bc000081565b6b019d971e4fe8401e7400000081565b610100546001600160a01b031681565b7f9f2df0fed2c77648de5860a4cc508cd0818c85b8b8a1ab4ceeef8d981c8956a681565b60008281526097602052604090206002015461177590610acb611839565b610b795760405162461bcd60e51b8152600401808060200182810382526030815260200180612a116030913960400191505060405180910390fd5b610105546101065460fc54610107546101085461010954909192939495565b6001600160a01b03918216600090815260346020908152604080832093909416825291909152205490565b610103546001600160a01b031681565b60fe546001600160a01b031681565b600080516020612ab883398151915281565b6101055481565b6101065481565b3390565b6001600160a01b0383166118825760405162461bcd60e51b8152600401808060200182810382526024815260200180612afd6024913960400191505060405180910390fd5b6001600160a01b0382166118c75760405162461bcd60e51b81526004018080602001828103825260228152602001806129c96022913960400191505060405180910390fd5b6001600160a01b03808416600081815260346020908152604080832094871680845294825291829020859055815185815291517f8c5be1e5ebec7d5bd14f71427d1e84f3dd0314c0f7b2291e5b200ac8c7c3b9259281900390910190a3505050565b6001600160a01b03831661196e5760405162461bcd60e51b8152600401808060200182810382526025815260200180612ad86025913960400191505060405180910390fd5b6001600160a01b0382166119b35760405162461bcd60e51b81526004018080602001828103825260238152602001806129776023913960400191505060405180910390fd5b6119be838383612388565b6119fb816040518060600160405280602681526020016129eb602691396001600160a01b0386166000908152603360205260409020549190611a86565b6001600160a01b038085166000908152603360205260408082209390935590841681522054611a2a9082611bef565b6001600160a01b0380841660008181526033602090815260409182902094909455805185815290519193928716927fddf252ad1be2c89b69c2b068fc378daa952ba7f163c4a11628f55a4df523b3ef92918290030190a3505050565b60008184841115611b155760405162461bcd60e51b81526004018080602001828103825283818151815260200191508051906020019080838360005b83811015611ada578181015183820152602001611ac2565b50505050905090810190601f168015611b075780820380516001836020036101000a031916815260200191505b509250505060405180910390fd5b505050900390565b6000828152609760205260409020611b3590826123d6565b15610b1557611b42611839565b6001600160a01b0316816001600160a01b0316837f2f8788117e7eff1d82e926ec794901d17c78024a50270940304540a733656f0d60405160405180910390a45050565b6000828152609760205260409020611b9e90826123eb565b15610b1557611bab611839565b6001600160a01b0316816001600160a01b0316837ff6391f5c32d9c69d2a47ea670b442974b53935d1edc7fd64eb21e047a839171b60405160405180910390a45050565b600082820183811015610a91576040805162461bcd60e51b815260206004820152601b60248201527f536166654d6174683a206164646974696f6e206f766572666c6f770000000000604482015290519081900360640190fd5b611c51611047565b611c99576040805162461bcd60e51b815260206004820152601460248201527314185d5cd8589b194e881b9bdd081c185d5cd95960621b604482015290519081900360640190fd5b6065805460ff191690557f5db9ee0a495bf2e6ff9c91a7834c1ba4fdd244a5e8aa4e537bd38aeae4b073aa611ccc611839565b604080516001600160a01b039092168252519081900360200190a1565b6000806101095461010554101580611d02575061010654155b80611d0e575061010754155b15611d225750506101055461010854611e3e565b6000611d3a610108544261240090919063ffffffff16565b90506000611d696064610e1e6101065460fc546b019d971e4fe8401e74000000611f8d9092919063ffffffff16565b90506000611d83610107548461204690919063ffffffff16565b90506000611d918284611f34565b90508115611e2d576101095461010554611dab9083611bef565b11611dc35761010554611dbe9082611bef565b611dc8565b610109545b6101055561010754611de890611dde9084611f34565b6101085490611bef565b61010881905560408051918252602082018390524282820152517f36581a2b25903f92b9cf76ccf14ea53151d6f302d54de9ddb6259a7f67993bfd9181900360600190a15b610108549450610105549550505050505b9091565b6001600160a01b038216611e9d576040805162461bcd60e51b815260206004820152601f60248201527f45524332303a206d696e7420746f20746865207a65726f206164647265737300604482015290519081900360640190fd5b611ea960008383612388565b603554611eb69082611bef565b6035556001600160a01b038216600090815260336020526040902054611edc9082611bef565b6001600160a01b03831660008181526033602090815260408083209490945583518581529351929391927fddf252ad1be2c89b69c2b068fc378daa952ba7f163c4a11628f55a4df523b3ef9281900390910190a35050565b600082611f43575060006109f5565b82820282848281611f5057fe5b0414610a915760405162461bcd60e51b8152600401808060200182810382526021815260200180612a6f6021913960400191505060405180910390fd5b6000806000611f9c868661245d565b9150915060008480611faa57fe5b868809905082811115611fbe576001820391505b918290039181611fdc57848381611fd157fe5b049350505050610a91565b848210612030576040805162461bcd60e51b815260206004820152601a60248201527f46756c6c4d6174683a2046554c4c4449565f4f564552464c4f57000000000000604482015290519081900360640190fd5b61203b83838761248a565b979650505050505050565b600080821161209c576040805162461bcd60e51b815260206004820152601a60248201527f536166654d6174683a206469766973696f6e206279207a65726f000000000000604482015290519081900360640190fd5b8183816120a557fe5b049392505050565b6120b5611047565b156120fa576040805162461bcd60e51b815260206004820152601060248201526f14185d5cd8589b194e881c185d5cd95960821b604482015290519081900360640190fd5b6065805460ff191660011790557f62e78cea01bee320cd4e420270b5ea74000d11b0c9f74754ebdbfc544b05a258611ccc611839565b600061213b306124fa565b15905090565b600054610100900460ff168061215a575061215a612130565b80612168575060005460ff16155b6121a35760405162461bcd60e51b815260040180806020018281038252602e815260200180612a41602e913960400191505060405180910390fd5b600054610100900460ff161580156121ce576000805460ff1961ff0019909116610100171660011790555b6121d6612500565b6121e083836125a0565b80156121f2576000805461ff00191690555b505050565b600054610100900460ff16806122105750612210612130565b8061221e575060005460ff16155b6122595760405162461bcd60e51b815260040180806020018281038252602e815260200180612a41602e913960400191505060405180910390fd5b600054610100900460ff16158015612284576000805460ff1961ff0019909116610100171660011790555b61228c612500565b612294612500565b80156122a6576000805461ff00191690555b50565b600054610100900460ff16806122c257506122c2612130565b806122d0575060005460ff16155b61230b5760405162461bcd60e51b815260040180806020018281038252602e815260200180612a41602e913960400191505060405180910390fd5b600054610100900460ff16158015612336576000805460ff1961ff0019909116610100171660011790555b61233e612500565b612294612678565b6038805460ff191660ff92909216919091179055565b6000610a918383612723565b6000610a91836001600160a01b038416612787565b60006109f58261279f565b612390611047565b156123cb576040805162461bcd60e51b815260206004808301919091526024820152631414cc4d60e21b604482015290519081900360640190fd5b6121f28383836121f2565b6000610a91836001600160a01b0384166127a3565b6000610a91836001600160a01b0384166127ed565b600082821115612457576040805162461bcd60e51b815260206004820152601e60248201527f536166654d6174683a207375627472616374696f6e206f766572666c6f770000604482015290519081900360640190fd5b50900390565b6000808060001984860990508385029250828103915082811015612482576001820391505b509250929050565b6000818103821680838161249a57fe5b0492508085816124a657fe5b0494508081600003816124b557fe5b60028581038087028203028087028203028087028203028087028203028087028203028087028203029586029003909402930460010193909302939093010292915050565b3b151590565b600054610100900460ff16806125195750612519612130565b80612527575060005460ff16155b6125625760405162461bcd60e51b815260040180806020018281038252602e815260200180612a41602e913960400191505060405180910390fd5b600054610100900460ff16158015612294576000805460ff1961ff00199091166101001716600117905580156122a6576000805461ff001916905550565b600054610100900460ff16806125b957506125b9612130565b806125c7575060005460ff16155b6126025760405162461bcd60e51b815260040180806020018281038252602e815260200180612a41602e913960400191505060405180910390fd5b600054610100900460ff1615801561262d576000805460ff1961ff0019909116610100171660011790555b82516126409060369060208601906128b3565b5081516126549060379060208501906128b3565b506038805460ff1916601217905580156121f2576000805461ff0019169055505050565b600054610100900460ff16806126915750612691612130565b8061269f575060005460ff16155b6126da5760405162461bcd60e51b815260040180806020018281038252602e815260200180612a41602e913960400191505060405180910390fd5b600054610100900460ff16158015612705576000805460ff1961ff0019909116610100171660011790555b6065805460ff1916905580156122a6576000805461ff001916905550565b815460009082106127655760405162461bcd60e51b81526004018080602001828103825260228152602001806129556022913960400191505060405180910390fd5b82600001828154811061277457fe5b9060005260206000200154905092915050565b60009081526001919091016020526040902054151590565b5490565b60006127af8383612787565b6127e5575081546001818101845560008481526020808220909301849055845484825282860190935260409020919091556109f5565b5060006109f5565b600081815260018301602052604081205480156128a9578354600019808301919081019060009087908390811061282057fe5b906000526020600020015490508087600001848154811061283d57fe5b60009182526020808320909101929092558281526001898101909252604090209084019055865487908061286d57fe5b600190038181906000526020600020016000905590558660010160008781526020019081526020016000206000905560019450505050506109f5565b60009150506109f5565b828054600181600116156101000203166002900490600052602060002090601f0160209004810192826128e9576000855561292f565b82601f1061290257805160ff191683800117855561292f565b8280016001018555821561292f579182015b8281111561292f578251825591602001919060010190612914565b5061293b92915061293f565b5090565b5b8082111561293b576000815560010161294056fe456e756d657261626c655365743a20696e646578206f7574206f6620626f756e647345524332303a207472616e7366657220746f20746865207a65726f2061646472657373416363657373436f6e74726f6c3a2073656e646572206d75737420626520616e2061646d696e20746f206772616e7445524332303a20617070726f766520746f20746865207a65726f206164647265737345524332303a207472616e7366657220616d6f756e7420657863656564732062616c616e6365416363657373436f6e74726f6c3a2073656e646572206d75737420626520616e2061646d696e20746f207265766f6b65496e697469616c697a61626c653a20636f6e747261637420697320616c726561647920696e697469616c697a6564536166654d6174683a206d756c7469706c69636174696f6e206f766572666c6f7745524332303a207472616e7366657220616d6f756e74206578636565647320616c6c6f77616e636565d7a28e3265b37a6474929f336521b332c1681b933f6cb9f3376673440d862a45524332303a207472616e736665722066726f6d20746865207a65726f206164647265737345524332303a20617070726f76652066726f6d20746865207a65726f206164647265737345524332303a2064656372656173656420616c6c6f77616e63652062656c6f77207a65726f416363657373436f6e74726f6c3a2063616e206f6e6c792072656e6f756e636520726f6c657320666f722073656c66a264697066735822122065f34b2bf5a98137d698463dcf1e455c23ca1a2ff488bcaf1375780ddd0be1dd64736f6c63430007060033",
  "immutableReferences": {},
  "source": "/*\n Copyright [2019] - [2021], PERSISTENCE TECHNOLOGIES PTE. LTD. and the ERC20 contributors\n SPDX-License-Identifier: Apache-2.0\n*/\n\npragma solidity >=0.7.0;\n\nimport \"@openzeppelin/contracts-upgradeable/token/ERC20/ERC20Upgradeable.sol\";\nimport \"@openzeppelin/contracts-upgradeable/utils/PausableUpgradeable.sol\";\nimport \"@openzeppelin/contracts-upgradeable/access/AccessControlUpgradeable.sol\";\nimport \"@openzeppelin/contracts-upgradeable/utils/ReentrancyGuardUpgradeable.sol\";\nimport \"@openzeppelin/contracts-upgradeable/math/SafeMathUpgradeable.sol\";\nimport \"./libraries/FullMath.sol\";\nimport \"./interfaces/IVestingTimelockV3.sol\";\nimport \"./interfaces/IPSTAKE.sol\";\n\ncontract PSTAKE is\n  IPSTAKE,\n  ERC20Upgradeable,\n  PausableUpgradeable,\n  AccessControlUpgradeable,\n  ReentrancyGuardUpgradeable\n{\n  // including libraries\n  using SafeMathUpgradeable for uint256;\n  using FullMath for uint256;\n\n  // constants defining access control ROLES\n  bytes32 public constant PAUSER_ROLE = keccak256(\"PAUSER_ROLE\");\n  bytes32 public constant MINTER_ROLE = keccak256(\"MINTER_ROLE\");\n\n  // variable pertaining to contract upgrades versioning and value divisor\n  uint256 public _version;\n  uint256 public _valueDivisor;\n\n  // addresses pertaining to various tokenomics strategy\n  address public _airdropPool;\n  address public _alphaLaunchpadPool;\n  address public _publicSalePool;\n  address public _incentivisationCommunityDevelopmentPool;\n  address public _xprtStakersPool;\n  address public _protocolTreasuryPool;\n  address public _retroactiveRewardProtocolBootstrapPool;\n\n  // address of vesting timelock contract to enable several vesting strategy\n  address public _vestingTimelockAddress;\n\n  // total inflated supply and the supply limit component to implement inflation\n  uint256 public override _totalInflatedSupply;\n  uint256 public _inflationRate;\n  uint256 public _inflationPeriod;\n  uint256 public override _lastInflationBlockTime;\n  uint256 public override _supplyMaxLimit;\n\n  // constants for value allocation\n  uint256 public constant VALUE_DIVISOR = uint256(1e9);\n  uint256 public constant INFLATION_RATE = uint256(15e9);\n  uint256 public constant INFLATION_PERIOD = 365 days;\n  uint256 public constant SUPPLY_AT_GENESIS = uint256(500000000e18);\n  uint256 public constant TOTAL_VESTED_SUPPLY = uint256(441944444e18);\n  uint256 public constant SUPPLY_MAX_LIMIT = uint256(1250000000e18);\n\n  // pre-allocate tokens to strategy pools\n  uint256 public constant AIRDROPPOOLALLOCATION = uint256(5000000e18);\n  uint256 public constant ALPHALAUNCHPADPOOLALLOCATION = uint256(10000000e18);\n  uint256 public constant PUBLICSALEPOOLALLOCATION = uint256(6250000e18);\n  uint256 public constant INCENTIVISATIONCOMMUNITYDEVELOPMENTPOOLALLOCATION =\n    uint256(14444444e18);\n  uint256 public constant XPRTSTAKERSPOOLALLOCATION = uint256(1250000e18);\n  uint256 public constant PROTOCOLTREASURYPOOLALLOCATION = uint256(11111111e18);\n  uint256 public constant RETROACTIVEREWARDPROTOCOLBOOTSTRAPPOOLALLOCATION =\n    uint256(10000000e18);\n\n  /**\n   * @dev Constructor for initializing the PSTAKE contract.\n   * @param vestingTimelockAddress - address of the vesting timelock contract.\n   * @param airdropPool - address of the airdrop pool.\n   * @param alphaLaunchpadPool - address of the alpha launchpad pool.\n   * @param publicSalePool - address of the public sale pool1.\n   * @param incentivisationCommunityDevelopmentPool - address of the incentivising pool.\n   * @param xprtStakersPool - address of the xprt stakers pool.\n   * @param protocolTreasuryPool - address of the protocol treasury pool.\n   * @param retroactiveRewardProtocolBootstrapPool - address of the retroactive reward protocol bootstrap pool.\n   */\n  function initialize(\n    address vestingTimelockAddress,\n    address airdropPool,\n    address alphaLaunchpadPool,\n    address publicSalePool,\n    address incentivisationCommunityDevelopmentPool,\n    address xprtStakersPool,\n    address protocolTreasuryPool,\n    address retroactiveRewardProtocolBootstrapPool\n  ) public virtual initializer {\n    __ERC20_init(\"pSTAKE Token\", \"PSTAKE\");\n    __AccessControl_init();\n    __Pausable_init();\n    _setupRole(DEFAULT_ADMIN_ROLE, _msgSender());\n    _setupRole(PAUSER_ROLE, _msgSender());\n    _setupRole(MINTER_ROLE, _msgSender());\n\n    // setup the version and vesting timelock contract\n    _version = 1;\n    _vestingTimelockAddress = vestingTimelockAddress;\n    // PSTAKE is an erc20 token hence 18 decimal places\n    _setupDecimals(18);\n    _valueDivisor = VALUE_DIVISOR;\n    _totalInflatedSupply = uint256(SUPPLY_AT_GENESIS);\n    _airdropPool = airdropPool;\n    _alphaLaunchpadPool = alphaLaunchpadPool;\n    _publicSalePool = publicSalePool;\n    _incentivisationCommunityDevelopmentPool = incentivisationCommunityDevelopmentPool;\n    _xprtStakersPool = xprtStakersPool;\n    _protocolTreasuryPool = protocolTreasuryPool;\n    _retroactiveRewardProtocolBootstrapPool = retroactiveRewardProtocolBootstrapPool;\n\n    // pre-allocate tokens to strategy pools\n    _mint(_airdropPool, AIRDROPPOOLALLOCATION);\n    _mint(_alphaLaunchpadPool, ALPHALAUNCHPADPOOLALLOCATION);\n    _mint(_publicSalePool, PUBLICSALEPOOLALLOCATION);\n    _mint(\n      _incentivisationCommunityDevelopmentPool,\n      INCENTIVISATIONCOMMUNITYDEVELOPMENTPOOLALLOCATION\n    );\n    _mint(_xprtStakersPool, XPRTSTAKERSPOOLALLOCATION);\n    _mint(_protocolTreasuryPool, PROTOCOLTREASURYPOOLALLOCATION);\n    _mint(\n      _retroactiveRewardProtocolBootstrapPool,\n      RETROACTIVEREWARDPROTOCOLBOOTSTRAPPOOLALLOCATION\n    );\n\n    // accumulate tokens to allocate for vesting strategies (total supply - initial circulating supply)\n    mint(address(this), TOTAL_VESTED_SUPPLY);\n  }\n\n  /**\n   * @dev Check inflation\n   * Emits a {CheckInflation} event with 'block height', 'inflationComponent', and 'timestamp'.\n   *\n   */\n  function _checkInflation()\n    internal\n    returns (uint256 totalInflatedSupply, uint256 lastInflationBlockTime)\n  {\n    // if the _totalInflatedSupply has already reacted _supplyMaxLimit or inflation properties not set, then return\n    if (\n      _totalInflatedSupply >= _supplyMaxLimit ||\n      _inflationRate == 0 ||\n      _inflationPeriod == 0\n    ) return (_totalInflatedSupply, _lastInflationBlockTime);\n\n    // get the time since last inflation\n    uint256 timeSinceLastInflation = (block.timestamp).sub(\n      _lastInflationBlockTime\n    );\n\n    // get the inflation amount for one cycle of inflation period\n    uint256 inflationPerInstalment = (\n      uint256(SUPPLY_AT_GENESIS).mulDiv(_inflationRate, _valueDivisor)\n    ).div(100);\n\n    // get the number of cycles/instalments of inflation that are pending to be updated\n    uint256 inflationInstalments = timeSinceLastInflation.div(_inflationPeriod);\n    uint256 additionalInflation = inflationInstalments.mul(\n      inflationPerInstalment\n    );\n\n    if (inflationInstalments > 0) {\n      // if adding additionalInflation to _totalInflatedSupply crosses _supplyMaxLimit then make _totalInflatedSupply as _supplyMaxLimit\n      _totalInflatedSupply = _totalInflatedSupply.add(additionalInflation) >\n        _supplyMaxLimit\n        ? _supplyMaxLimit\n        : _totalInflatedSupply.add(additionalInflation);\n      /* process if (_totalInflatedSupply > _supplyMaxLimit) */\n      _lastInflationBlockTime = _lastInflationBlockTime.add(\n        _inflationPeriod.mul(inflationInstalments)\n      );\n\n      // emit an event\n      emit CheckInflation(\n        _lastInflationBlockTime,\n        additionalInflation,\n        block.timestamp\n      );\n    }\n\n    // get the return values\n    lastInflationBlockTime = _lastInflationBlockTime;\n    totalInflatedSupply = _totalInflatedSupply;\n  }\n\n  /**\n   * @dev checks the inflation and sets the inflation parameters if the inflation cycle has changed\n   *\n   */\n  function checkInflation()\n    public\n    virtual\n    override\n    returns (uint256 totalInflatedSupply, uint256 lastInflationBlockTime)\n  {\n    require(hasRole(DEFAULT_ADMIN_ROLE, _msgSender()), \"PS1\");\n    (totalInflatedSupply, lastInflationBlockTime) = _checkInflation();\n  }\n\n  /**\n   * @dev returns the properties pertaining to inflation\n   */\n  function getInflation()\n    public\n    view\n    virtual\n    override\n    returns (\n      uint256 totalInflatedSupply,\n      uint256 inflationRate,\n      uint256 valueDivisor,\n      uint256 inflationPeriod,\n      uint256 lastInflationBlockTime,\n      uint256 supplyMaxLimit\n    )\n  {\n    return (\n      _totalInflatedSupply,\n      _inflationRate,\n      _valueDivisor,\n      _inflationPeriod,\n      _lastInflationBlockTime,\n      _supplyMaxLimit\n    );\n  }\n\n  /**\n   * @dev Set inflation\n   * @param inflationRate: inflation rate given as value between 0 and 100\n   * @param inflationPeriod: inflation cycle in seconds\n   *\n   * Emits a {SetInflationRate} event.\n   *\n   */\n  function setInflation(uint256 inflationRate, uint256 inflationPeriod)\n    public\n    virtual\n    override\n    returns (bool success)\n  {\n    require(hasRole(DEFAULT_ADMIN_ROLE, _msgSender()), \"PS2\");\n    // check inflation rate to be not more than 100 since it is a percentage\n    require(inflationRate <= _valueDivisor.mul(100), \"PS3\");\n    require(inflationPeriod > 0, \"PS4\");\n    // execute check inflation to update the inflation values before setting the inflation\n    _checkInflation();\n    // after enabling inflation, one way to arrest inflation can be to set a large inflationPeriod value\n    _inflationRate = inflationRate;\n    _inflationPeriod = inflationPeriod;\n    // if this is the first time inflation values are being set (inflation activation) then\n    // initialize _totalInflatedSupply with the inflated value and update _lastInflationBlockTime\n    // the inflation cycle begins just as these values are set\n    if (_lastInflationBlockTime == 0) {\n      _totalInflatedSupply = _totalInflatedSupply.add(\n        (_totalInflatedSupply.mulDiv(_inflationRate, _valueDivisor)).div(100)\n      );\n      _lastInflationBlockTime = block.timestamp;\n    }\n    success = true;\n    emit SetInflationRate(_msgSender(), inflationRate, inflationPeriod);\n  }\n\n  /**\n   * @dev Set supply max limit of the inflation component\n   * @param supplyMaxLimit: supply max limit value\n   *\n   * Emits a {SetSupplyMaxLimit} event.\n   *\n   */\n  function setSupplyMaxLimit(uint256 supplyMaxLimit)\n    public\n    virtual\n    override\n    returns (bool success)\n  {\n    // check this function to be callable only by the admin\n    require(hasRole(DEFAULT_ADMIN_ROLE, _msgSender()), \"PS5\");\n    // new supply max limit cannot be less than _totalInflatedSupply\n    require(supplyMaxLimit >= _totalInflatedSupply, \"PS6\");\n    // execute check inflation to update the inflation values before setting the inflation\n    _checkInflation();\n    // if the total inflated supply has already reached supply max limit then update _lastInflationBlockTime\n    // to restart the inflation cycle again\n    if (_supplyMaxLimit == _totalInflatedSupply) {\n      _lastInflationBlockTime = block.timestamp;\n    }\n    _supplyMaxLimit = supplyMaxLimit;\n    success = true;\n    emit SetSupplyMaxLimit(_msgSender(), supplyMaxLimit);\n  }\n\n  /**\n   * @dev Mint new PSTAKE for the provided 'address' and 'amount'\n   *\n   * Emits a {Transfer} event with 'to' set to address and 'tokens' set to amount of tokens.\n   */\n  function mint(address to, uint256 tokens)\n    public\n    virtual\n    override\n    returns (bool success)\n  {\n    require(hasRole(MINTER_ROLE, _msgSender()), \"PS7\");\n\n    // condition to check if the total supply doesnt cross the inflated supply\n    _checkInflation();\n    require((totalSupply()).add(tokens) <= _totalInflatedSupply, \"PS8\");\n\n    // mint the tokens\n    _mint(to, tokens);\n    return true;\n  }\n\n  /**\n   * @dev adds a vesting grant initiated by this contract as manager\n   * @param beneficiary: beneficiary address\n   * @param startTime: start time\n   * @param cliffPeriod: initial waiting period\n   * @param instalmentAmount: installment amount\n   * @param instalmentCount: instalment count\n   * @param instalmentPeriod: instalment period\n   */\n  function addVesting(\n    address beneficiary,\n    uint256 startTime,\n    uint256 cliffPeriod,\n    uint256 instalmentAmount,\n    uint256 instalmentCount,\n    uint256 instalmentPeriod\n  ) public virtual override nonReentrant returns (uint256 totalVestingAmount) {\n    require(hasRole(DEFAULT_ADMIN_ROLE, _msgSender()), \"PS11\");\n\n    totalVestingAmount = instalmentAmount.mul(instalmentCount);\n\n    // get approval for transfer of total vesting amount if not already there\n    if (totalVestingAmount > allowance(address(this), _vestingTimelockAddress))\n      _approve(address(this), _vestingTimelockAddress, totalVestingAmount);\n\n    IVestingTimelockV3(_vestingTimelockAddress).addGrant(\n      address(this),\n      beneficiary,\n      startTime,\n      cliffPeriod,\n      instalmentAmount,\n      instalmentCount,\n      instalmentPeriod\n    );\n  }\n\n  /**\n   * @dev Triggers stopped state.\n   *\n   *\n   * - The contract must not be paused.\n   */\n  function pause() public virtual override returns (bool success) {\n    require(hasRole(PAUSER_ROLE, _msgSender()), \"PS12\");\n    _pause();\n    return true;\n  }\n\n  /**\n   * @dev Returns to normal state.\n   *\n   *\n   * - The contract must be paused.\n   */\n  function unpause() public virtual override returns (bool success) {\n    require(hasRole(PAUSER_ROLE, _msgSender()), \"PS13\");\n    _unpause();\n    return true;\n  }\n\n  /**\n   * @dev Hook that is called before any transfer of tokens. This includes\n   * minting and burning.\n   *\n   */\n  function _beforeTokenTransfer(\n    address from,\n    address to,\n    uint256 amount\n  ) internal virtual override {\n    require(!paused(), \"PS14\");\n    super._beforeTokenTransfer(from, to, amount);\n  }\n}\n",
  "sourcePath": "C:\\Users\\Kamlesh\\Persistence\\pStake\\codebase\\erc20\\contracts\\PSTAKE.sol",
  "compiler": {
    "name": "solc",
    "version": "0.7.6+commit.7338295f.Emscripten.clang"
  },
  "schemaVersion": "3.4.3",
  "updatedAt": "2021-12-23T05:12:28.901Z",
  "devdoc": {
    "kind": "dev",
    "methods": {
      "addVesting(address,uint256,uint256,uint256,uint256,uint256)": {
        "details": "adds a vesting grant initiated by this contract as manager",
        "params": {
          "beneficiary": ": beneficiary address",
          "cliffPeriod": ": initial waiting period",
          "instalmentAmount": ": installment amount",
          "instalmentCount": ": instalment count",
          "instalmentPeriod": ": instalment period",
          "startTime": ": start time"
        }
      },
      "allowance(address,address)": {
        "details": "See {IERC20-allowance}."
      },
      "approve(address,uint256)": {
        "details": "See {IERC20-approve}. Requirements: - `spender` cannot be the zero address."
      },
      "balanceOf(address)": {
        "details": "See {IERC20-balanceOf}."
      },
      "checkInflation()": {
        "details": "checks the inflation and sets the inflation parameters if the inflation cycle has changed"
      },
      "decimals()": {
        "details": "Returns the number of decimals used to get its user representation. For example, if `decimals` equals `2`, a balance of `505` tokens should be displayed to a user as `5,05` (`505 / 10 ** 2`). Tokens usually opt for a value of 18, imitating the relationship between Ether and Wei. This is the value {ERC20} uses, unless {_setupDecimals} is called. NOTE: This information is only used for _display_ purposes: it in no way affects any of the arithmetic of the contract, including {IERC20-balanceOf} and {IERC20-transfer}."
      },
      "decreaseAllowance(address,uint256)": {
        "details": "Atomically decreases the allowance granted to `spender` by the caller. This is an alternative to {approve} that can be used as a mitigation for problems described in {IERC20-approve}. Emits an {Approval} event indicating the updated allowance. Requirements: - `spender` cannot be the zero address. - `spender` must have allowance for the caller of at least `subtractedValue`."
      },
      "getInflation()": {
        "details": "returns the properties pertaining to inflation"
      },
      "getRoleAdmin(bytes32)": {
        "details": "Returns the admin role that controls `role`. See {grantRole} and {revokeRole}. To change a role's admin, use {_setRoleAdmin}."
      },
      "getRoleMember(bytes32,uint256)": {
        "details": "Returns one of the accounts that have `role`. `index` must be a value between 0 and {getRoleMemberCount}, non-inclusive. Role bearers are not sorted in any particular way, and their ordering may change at any point. WARNING: When using {getRoleMember} and {getRoleMemberCount}, make sure you perform all queries on the same block. See the following https://forum.openzeppelin.com/t/iterating-over-elements-on-enumerableset-in-openzeppelin-contracts/2296[forum post] for more information."
      },
      "getRoleMemberCount(bytes32)": {
        "details": "Returns the number of accounts that have `role`. Can be used together with {getRoleMember} to enumerate all bearers of a role."
      },
      "grantRole(bytes32,address)": {
        "details": "Grants `role` to `account`. If `account` had not been already granted `role`, emits a {RoleGranted} event. Requirements: - the caller must have ``role``'s admin role."
      },
      "hasRole(bytes32,address)": {
        "details": "Returns `true` if `account` has been granted `role`."
      },
      "increaseAllowance(address,uint256)": {
        "details": "Atomically increases the allowance granted to `spender` by the caller. This is an alternative to {approve} that can be used as a mitigation for problems described in {IERC20-approve}. Emits an {Approval} event indicating the updated allowance. Requirements: - `spender` cannot be the zero address."
      },
      "initialize(address,address,address,address,address,address,address,address)": {
        "details": "Constructor for initializing the PSTAKE contract.",
        "params": {
          "airdropPool": "- address of the airdrop pool.",
          "alphaLaunchpadPool": "- address of the alpha launchpad pool.",
          "incentivisationCommunityDevelopmentPool": "- address of the incentivising pool.",
          "protocolTreasuryPool": "- address of the protocol treasury pool.",
          "publicSalePool": "- address of the public sale pool1.",
          "retroactiveRewardProtocolBootstrapPool": "- address of the retroactive reward protocol bootstrap pool.",
          "vestingTimelockAddress": "- address of the vesting timelock contract.",
          "xprtStakersPool": "- address of the xprt stakers pool."
        }
      },
      "mint(address,uint256)": {
        "details": "Mint new PSTAKE for the provided 'address' and 'amount' Emits a {Transfer} event with 'to' set to address and 'tokens' set to amount of tokens."
      },
      "name()": {
        "details": "Returns the name of the token."
      },
      "pause()": {
        "details": "Triggers stopped state. - The contract must not be paused."
      },
      "paused()": {
        "details": "Returns true if the contract is paused, and false otherwise."
      },
      "renounceRole(bytes32,address)": {
        "details": "Revokes `role` from the calling account. Roles are often managed via {grantRole} and {revokeRole}: this function's purpose is to provide a mechanism for accounts to lose their privileges if they are compromised (such as when a trusted device is misplaced). If the calling account had been granted `role`, emits a {RoleRevoked} event. Requirements: - the caller must be `account`."
      },
      "revokeRole(bytes32,address)": {
        "details": "Revokes `role` from `account`. If `account` had been granted `role`, emits a {RoleRevoked} event. Requirements: - the caller must have ``role``'s admin role."
      },
      "setInflation(uint256,uint256)": {
        "details": "Set inflation",
        "params": {
          "inflationPeriod": ": inflation cycle in seconds Emits a {SetInflationRate} event.",
          "inflationRate": ": inflation rate given as value between 0 and 100"
        }
      },
      "setSupplyMaxLimit(uint256)": {
        "details": "Set supply max limit of the inflation component",
        "params": {
          "supplyMaxLimit": ": supply max limit value Emits a {SetSupplyMaxLimit} event."
        }
      },
      "symbol()": {
        "details": "Returns the symbol of the token, usually a shorter version of the name."
      },
      "totalSupply()": {
        "details": "See {IERC20-totalSupply}."
      },
      "transfer(address,uint256)": {
        "details": "See {IERC20-transfer}. Requirements: - `recipient` cannot be the zero address. - the caller must have a balance of at least `amount`."
      },
      "transferFrom(address,address,uint256)": {
        "details": "See {IERC20-transferFrom}. Emits an {Approval} event indicating the updated allowance. This is not required by the EIP. See the note at the beginning of {ERC20}. Requirements: - `sender` and `recipient` cannot be the zero address. - `sender` must have a balance of at least `amount`. - the caller must have allowance for ``sender``'s tokens of at least `amount`."
      },
      "unpause()": {
        "details": "Returns to normal state. - The contract must be paused."
      }
    },
    "stateVariables": {
      "_lastInflationBlockTime": {
        "details": "getter method created from variable definition"
      },
      "_supplyMaxLimit": {
        "details": "getter method created from variable definition"
      },
      "_totalInflatedSupply": {
        "details": "getter method created from variable definition"
      }
    },
    "version": 1
  },
  "userdoc": {
    "kind": "user",
    "methods": {},
    "version": 1
  }
}