{
  "contractName": "PSTAKE",
  "abi": [
    {
      "anonymous": false,
      "inputs": [
        {
          "indexed": true,
          "internalType": "address",
          "name": "owner",
          "type": "address"
        },
        {
          "indexed": true,
          "internalType": "address",
          "name": "spender",
          "type": "address"
        },
        {
          "indexed": false,
          "internalType": "uint256",
          "name": "value",
          "type": "uint256"
        }
      ],
      "name": "Approval",
      "type": "event"
    },
    {
      "anonymous": false,
      "inputs": [
        {
          "indexed": false,
          "internalType": "uint256",
          "name": "lastInflationBlockTime",
          "type": "uint256"
        },
        {
          "indexed": false,
          "internalType": "uint256",
          "name": "inflationAdded",
          "type": "uint256"
        },
        {
          "indexed": false,
          "internalType": "uint256",
          "name": "timestamp",
          "type": "uint256"
        }
      ],
      "name": "CheckInflation",
      "type": "event"
    },
    {
      "anonymous": false,
      "inputs": [
        {
          "indexed": false,
          "internalType": "address",
          "name": "account",
          "type": "address"
        }
      ],
      "name": "Paused",
      "type": "event"
    },
    {
      "anonymous": false,
      "inputs": [
        {
          "indexed": true,
          "internalType": "bytes32",
          "name": "role",
          "type": "bytes32"
        },
        {
          "indexed": true,
          "internalType": "bytes32",
          "name": "previousAdminRole",
          "type": "bytes32"
        },
        {
          "indexed": true,
          "internalType": "bytes32",
          "name": "newAdminRole",
          "type": "bytes32"
        }
      ],
      "name": "RoleAdminChanged",
      "type": "event"
    },
    {
      "anonymous": false,
      "inputs": [
        {
          "indexed": true,
          "internalType": "bytes32",
          "name": "role",
          "type": "bytes32"
        },
        {
          "indexed": true,
          "internalType": "address",
          "name": "account",
          "type": "address"
        },
        {
          "indexed": true,
          "internalType": "address",
          "name": "sender",
          "type": "address"
        }
      ],
      "name": "RoleGranted",
      "type": "event"
    },
    {
      "anonymous": false,
      "inputs": [
        {
          "indexed": true,
          "internalType": "bytes32",
          "name": "role",
          "type": "bytes32"
        },
        {
          "indexed": true,
          "internalType": "address",
          "name": "account",
          "type": "address"
        },
        {
          "indexed": true,
          "internalType": "address",
          "name": "sender",
          "type": "address"
        }
      ],
      "name": "RoleRevoked",
      "type": "event"
    },
    {
      "anonymous": false,
      "inputs": [
        {
          "indexed": false,
          "internalType": "address",
          "name": "accountAddress",
          "type": "address"
        },
        {
          "indexed": false,
          "internalType": "uint256",
          "name": "inflationRate",
          "type": "uint256"
        },
        {
          "indexed": false,
          "internalType": "uint256",
          "name": "inflationPeriod",
          "type": "uint256"
        }
      ],
      "name": "SetInflationRate",
      "type": "event"
    },
    {
      "anonymous": false,
      "inputs": [
        {
          "indexed": false,
          "internalType": "address",
          "name": "accountAddress",
          "type": "address"
        },
        {
          "indexed": false,
          "internalType": "uint256",
          "name": "supplyMaxLimit",
          "type": "uint256"
        }
      ],
      "name": "SetSupplyMaxLimit",
      "type": "event"
    },
    {
      "anonymous": false,
      "inputs": [
        {
          "indexed": false,
          "internalType": "address",
          "name": "vestingTimelockAddress",
          "type": "address"
        }
      ],
      "name": "SetVestingTimelockContract",
      "type": "event"
    },
    {
      "anonymous": false,
      "inputs": [
        {
          "indexed": true,
          "internalType": "address",
          "name": "from",
          "type": "address"
        },
        {
          "indexed": true,
          "internalType": "address",
          "name": "to",
          "type": "address"
        },
        {
          "indexed": false,
          "internalType": "uint256",
          "name": "value",
          "type": "uint256"
        }
      ],
      "name": "Transfer",
      "type": "event"
    },
    {
      "anonymous": false,
      "inputs": [
        {
          "indexed": false,
          "internalType": "address",
          "name": "account",
          "type": "address"
        }
      ],
      "name": "Unpaused",
      "type": "event"
    },
    {
      "inputs": [],
      "name": "AIRDROPPOOLALLOCATION",
      "outputs": [
        {
          "internalType": "uint256",
          "name": "",
          "type": "uint256"
        }
      ],
      "stateMutability": "view",
      "type": "function"
    },
    {
      "inputs": [],
      "name": "ALPHALAUNCHPADPOOLALLOCATION",
      "outputs": [
        {
          "internalType": "uint256",
          "name": "",
          "type": "uint256"
        }
      ],
      "stateMutability": "view",
      "type": "function"
    },
    {
      "inputs": [],
      "name": "COMMUNITYDEVELOPMENTFUNDPOOLALLOCATION",
      "outputs": [
        {
          "internalType": "uint256",
          "name": "",
          "type": "uint256"
        }
      ],
      "stateMutability": "view",
      "type": "function"
    },
    {
      "inputs": [],
      "name": "DEFAULT_ADMIN_ROLE",
      "outputs": [
        {
          "internalType": "bytes32",
          "name": "",
          "type": "bytes32"
        }
      ],
      "stateMutability": "view",
      "type": "function"
    },
    {
      "inputs": [],
      "name": "INCENTIVISATIONPOOLALLOCATION",
      "outputs": [
        {
          "internalType": "uint256",
          "name": "",
          "type": "uint256"
        }
      ],
      "stateMutability": "view",
      "type": "function"
    },
    {
      "inputs": [],
      "name": "INFLATION_PERIOD",
      "outputs": [
        {
          "internalType": "uint256",
          "name": "",
          "type": "uint256"
        }
      ],
      "stateMutability": "view",
      "type": "function"
    },
    {
      "inputs": [],
      "name": "INFLATION_RATE",
      "outputs": [
        {
          "internalType": "uint256",
          "name": "",
          "type": "uint256"
        }
      ],
      "stateMutability": "view",
      "type": "function"
    },
    {
      "inputs": [],
      "name": "MINTER_ROLE",
      "outputs": [
        {
          "internalType": "bytes32",
          "name": "",
          "type": "bytes32"
        }
      ],
      "stateMutability": "view",
      "type": "function"
    },
    {
      "inputs": [],
      "name": "PAUSER_ROLE",
      "outputs": [
        {
          "internalType": "bytes32",
          "name": "",
          "type": "bytes32"
        }
      ],
      "stateMutability": "view",
      "type": "function"
    },
    {
      "inputs": [],
      "name": "PROTOCOLTREASURYPOOLALLOCATION",
      "outputs": [
        {
          "internalType": "uint256",
          "name": "",
          "type": "uint256"
        }
      ],
      "stateMutability": "view",
      "type": "function"
    },
    {
      "inputs": [],
      "name": "RETROACTIVEREWARDPROTOCOLBOOTSTRAPPOOLALLOCATION",
      "outputs": [
        {
          "internalType": "uint256",
          "name": "",
          "type": "uint256"
        }
      ],
      "stateMutability": "view",
      "type": "function"
    },
    {
      "inputs": [],
      "name": "SUPPLY_AT_GENESIS",
      "outputs": [
        {
          "internalType": "uint256",
          "name": "",
          "type": "uint256"
        }
      ],
      "stateMutability": "view",
      "type": "function"
    },
    {
      "inputs": [],
      "name": "SUPPLY_MAX_LIMIT",
      "outputs": [
        {
          "internalType": "uint256",
          "name": "",
          "type": "uint256"
        }
      ],
      "stateMutability": "view",
      "type": "function"
    },
    {
      "inputs": [],
      "name": "TOTAL_VESTED_SUPPLY",
      "outputs": [
        {
          "internalType": "uint256",
          "name": "",
          "type": "uint256"
        }
      ],
      "stateMutability": "view",
      "type": "function"
    },
    {
      "inputs": [],
      "name": "VALUE_DIVISOR",
      "outputs": [
        {
          "internalType": "uint256",
          "name": "",
          "type": "uint256"
        }
      ],
      "stateMutability": "view",
      "type": "function"
    },
    {
      "inputs": [],
      "name": "XPRTSTAKERSPOOLALLOCATION",
      "outputs": [
        {
          "internalType": "uint256",
          "name": "",
          "type": "uint256"
        }
      ],
      "stateMutability": "view",
      "type": "function"
    },
    {
      "inputs": [],
      "name": "_airdropPool",
      "outputs": [
        {
          "internalType": "address",
          "name": "",
          "type": "address"
        }
      ],
      "stateMutability": "view",
      "type": "function"
    },
    {
      "inputs": [],
      "name": "_alphaLaunchpadPool",
      "outputs": [
        {
          "internalType": "address",
          "name": "",
          "type": "address"
        }
      ],
      "stateMutability": "view",
      "type": "function"
    },
    {
      "inputs": [],
      "name": "_communityDevelopmentFundPool",
      "outputs": [
        {
          "internalType": "address",
          "name": "",
          "type": "address"
        }
      ],
      "stateMutability": "view",
      "type": "function"
    },
    {
      "inputs": [],
      "name": "_incentivisationPool",
      "outputs": [
        {
          "internalType": "address",
          "name": "",
          "type": "address"
        }
      ],
      "stateMutability": "view",
      "type": "function"
    },
    {
      "inputs": [],
      "name": "_inflationPeriod",
      "outputs": [
        {
          "internalType": "uint256",
          "name": "",
          "type": "uint256"
        }
      ],
      "stateMutability": "view",
      "type": "function"
    },
    {
      "inputs": [],
      "name": "_inflationRate",
      "outputs": [
        {
          "internalType": "uint256",
          "name": "",
          "type": "uint256"
        }
      ],
      "stateMutability": "view",
      "type": "function"
    },
    {
      "inputs": [],
      "name": "_lastInflationBlockTime",
      "outputs": [
        {
          "internalType": "uint256",
          "name": "",
          "type": "uint256"
        }
      ],
      "stateMutability": "view",
      "type": "function"
    },
    {
      "inputs": [],
      "name": "_protocolTreasuryPool",
      "outputs": [
        {
          "internalType": "address",
          "name": "",
          "type": "address"
        }
      ],
      "stateMutability": "view",
      "type": "function"
    },
    {
      "inputs": [],
      "name": "_publicSalePool1",
      "outputs": [
        {
          "internalType": "address",
          "name": "",
          "type": "address"
        }
      ],
      "stateMutability": "view",
      "type": "function"
    },
    {
      "inputs": [],
      "name": "_publicSalePool2",
      "outputs": [
        {
          "internalType": "address",
          "name": "",
          "type": "address"
        }
      ],
      "stateMutability": "view",
      "type": "function"
    },
    {
      "inputs": [],
      "name": "_publicSalePool3",
      "outputs": [
        {
          "internalType": "address",
          "name": "",
          "type": "address"
        }
      ],
      "stateMutability": "view",
      "type": "function"
    },
    {
      "inputs": [],
      "name": "_retroactiveRewardProtocolBootstrapPool",
      "outputs": [
        {
          "internalType": "address",
          "name": "",
          "type": "address"
        }
      ],
      "stateMutability": "view",
      "type": "function"
    },
    {
      "inputs": [],
      "name": "_seedSalePool",
      "outputs": [
        {
          "internalType": "address",
          "name": "",
          "type": "address"
        }
      ],
      "stateMutability": "view",
      "type": "function"
    },
    {
      "inputs": [],
      "name": "_supplyMaxLimit",
      "outputs": [
        {
          "internalType": "uint256",
          "name": "",
          "type": "uint256"
        }
      ],
      "stateMutability": "view",
      "type": "function"
    },
    {
      "inputs": [],
      "name": "_teamPool",
      "outputs": [
        {
          "internalType": "address",
          "name": "",
          "type": "address"
        }
      ],
      "stateMutability": "view",
      "type": "function"
    },
    {
      "inputs": [],
      "name": "_totalInflatedSupply",
      "outputs": [
        {
          "internalType": "uint256",
          "name": "",
          "type": "uint256"
        }
      ],
      "stateMutability": "view",
      "type": "function"
    },
    {
      "inputs": [],
      "name": "_valueDivisor",
      "outputs": [
        {
          "internalType": "uint256",
          "name": "",
          "type": "uint256"
        }
      ],
      "stateMutability": "view",
      "type": "function"
    },
    {
      "inputs": [],
      "name": "_version",
      "outputs": [
        {
          "internalType": "uint256",
          "name": "",
          "type": "uint256"
        }
      ],
      "stateMutability": "view",
      "type": "function"
    },
    {
      "inputs": [],
      "name": "_vestingTimelockAddress",
      "outputs": [
        {
          "internalType": "address",
          "name": "",
          "type": "address"
        }
      ],
      "stateMutability": "view",
      "type": "function"
    },
    {
      "inputs": [],
      "name": "_xprtStakersPool",
      "outputs": [
        {
          "internalType": "address",
          "name": "",
          "type": "address"
        }
      ],
      "stateMutability": "view",
      "type": "function"
    },
    {
      "inputs": [
        {
          "internalType": "address",
          "name": "owner",
          "type": "address"
        },
        {
          "internalType": "address",
          "name": "spender",
          "type": "address"
        }
      ],
      "name": "allowance",
      "outputs": [
        {
          "internalType": "uint256",
          "name": "",
          "type": "uint256"
        }
      ],
      "stateMutability": "view",
      "type": "function"
    },
    {
      "inputs": [
        {
          "internalType": "address",
          "name": "spender",
          "type": "address"
        },
        {
          "internalType": "uint256",
          "name": "amount",
          "type": "uint256"
        }
      ],
      "name": "approve",
      "outputs": [
        {
          "internalType": "bool",
          "name": "",
          "type": "bool"
        }
      ],
      "stateMutability": "nonpayable",
      "type": "function"
    },
    {
      "inputs": [
        {
          "internalType": "address",
          "name": "account",
          "type": "address"
        }
      ],
      "name": "balanceOf",
      "outputs": [
        {
          "internalType": "uint256",
          "name": "",
          "type": "uint256"
        }
      ],
      "stateMutability": "view",
      "type": "function"
    },
    {
      "inputs": [],
      "name": "decimals",
      "outputs": [
        {
          "internalType": "uint8",
          "name": "",
          "type": "uint8"
        }
      ],
      "stateMutability": "view",
      "type": "function"
    },
    {
      "inputs": [
        {
          "internalType": "address",
          "name": "spender",
          "type": "address"
        },
        {
          "internalType": "uint256",
          "name": "subtractedValue",
          "type": "uint256"
        }
      ],
      "name": "decreaseAllowance",
      "outputs": [
        {
          "internalType": "bool",
          "name": "",
          "type": "bool"
        }
      ],
      "stateMutability": "nonpayable",
      "type": "function"
    },
    {
      "inputs": [
        {
          "internalType": "bytes32",
          "name": "role",
          "type": "bytes32"
        }
      ],
      "name": "getRoleAdmin",
      "outputs": [
        {
          "internalType": "bytes32",
          "name": "",
          "type": "bytes32"
        }
      ],
      "stateMutability": "view",
      "type": "function"
    },
    {
      "inputs": [
        {
          "internalType": "bytes32",
          "name": "role",
          "type": "bytes32"
        },
        {
          "internalType": "uint256",
          "name": "index",
          "type": "uint256"
        }
      ],
      "name": "getRoleMember",
      "outputs": [
        {
          "internalType": "address",
          "name": "",
          "type": "address"
        }
      ],
      "stateMutability": "view",
      "type": "function"
    },
    {
      "inputs": [
        {
          "internalType": "bytes32",
          "name": "role",
          "type": "bytes32"
        }
      ],
      "name": "getRoleMemberCount",
      "outputs": [
        {
          "internalType": "uint256",
          "name": "",
          "type": "uint256"
        }
      ],
      "stateMutability": "view",
      "type": "function"
    },
    {
      "inputs": [
        {
          "internalType": "bytes32",
          "name": "role",
          "type": "bytes32"
        },
        {
          "internalType": "address",
          "name": "account",
          "type": "address"
        }
      ],
      "name": "grantRole",
      "outputs": [],
      "stateMutability": "nonpayable",
      "type": "function"
    },
    {
      "inputs": [
        {
          "internalType": "bytes32",
          "name": "role",
          "type": "bytes32"
        },
        {
          "internalType": "address",
          "name": "account",
          "type": "address"
        }
      ],
      "name": "hasRole",
      "outputs": [
        {
          "internalType": "bool",
          "name": "",
          "type": "bool"
        }
      ],
      "stateMutability": "view",
      "type": "function"
    },
    {
      "inputs": [
        {
          "internalType": "address",
          "name": "spender",
          "type": "address"
        },
        {
          "internalType": "uint256",
          "name": "addedValue",
          "type": "uint256"
        }
      ],
      "name": "increaseAllowance",
      "outputs": [
        {
          "internalType": "bool",
          "name": "",
          "type": "bool"
        }
      ],
      "stateMutability": "nonpayable",
      "type": "function"
    },
    {
      "inputs": [],
      "name": "name",
      "outputs": [
        {
          "internalType": "string",
          "name": "",
          "type": "string"
        }
      ],
      "stateMutability": "view",
      "type": "function"
    },
    {
      "inputs": [],
      "name": "paused",
      "outputs": [
        {
          "internalType": "bool",
          "name": "",
          "type": "bool"
        }
      ],
      "stateMutability": "view",
      "type": "function"
    },
    {
      "inputs": [
        {
          "internalType": "bytes32",
          "name": "role",
          "type": "bytes32"
        },
        {
          "internalType": "address",
          "name": "account",
          "type": "address"
        }
      ],
      "name": "renounceRole",
      "outputs": [],
      "stateMutability": "nonpayable",
      "type": "function"
    },
    {
      "inputs": [
        {
          "internalType": "bytes32",
          "name": "role",
          "type": "bytes32"
        },
        {
          "internalType": "address",
          "name": "account",
          "type": "address"
        }
      ],
      "name": "revokeRole",
      "outputs": [],
      "stateMutability": "nonpayable",
      "type": "function"
    },
    {
      "inputs": [],
      "name": "symbol",
      "outputs": [
        {
          "internalType": "string",
          "name": "",
          "type": "string"
        }
      ],
      "stateMutability": "view",
      "type": "function"
    },
    {
      "inputs": [],
      "name": "totalSupply",
      "outputs": [
        {
          "internalType": "uint256",
          "name": "",
          "type": "uint256"
        }
      ],
      "stateMutability": "view",
      "type": "function"
    },
    {
      "inputs": [
        {
          "internalType": "address",
          "name": "recipient",
          "type": "address"
        },
        {
          "internalType": "uint256",
          "name": "amount",
          "type": "uint256"
        }
      ],
      "name": "transfer",
      "outputs": [
        {
          "internalType": "bool",
          "name": "",
          "type": "bool"
        }
      ],
      "stateMutability": "nonpayable",
      "type": "function"
    },
    {
      "inputs": [
        {
          "internalType": "address",
          "name": "sender",
          "type": "address"
        },
        {
          "internalType": "address",
          "name": "recipient",
          "type": "address"
        },
        {
          "internalType": "uint256",
          "name": "amount",
          "type": "uint256"
        }
      ],
      "name": "transferFrom",
      "outputs": [
        {
          "internalType": "bool",
          "name": "",
          "type": "bool"
        }
      ],
      "stateMutability": "nonpayable",
      "type": "function"
    },
    {
      "inputs": [
        {
          "internalType": "address",
          "name": "vestingTimelockAddress",
          "type": "address"
        },
        {
          "internalType": "address",
          "name": "airdropPool",
          "type": "address"
        },
        {
          "internalType": "address",
          "name": "alphaLaunchpadPool",
          "type": "address"
        },
        {
          "internalType": "address",
          "name": "seedSalePool",
          "type": "address"
        },
        {
          "internalType": "address",
          "name": "publicSalePool1",
          "type": "address"
        },
        {
          "internalType": "address",
          "name": "publicSalePool2",
          "type": "address"
        },
        {
          "internalType": "address",
          "name": "publicSalePool3",
          "type": "address"
        },
        {
          "internalType": "address",
          "name": "teamPool",
          "type": "address"
        },
        {
          "internalType": "address",
          "name": "incentivisationPool",
          "type": "address"
        },
        {
          "internalType": "address",
          "name": "xprtStakersPool",
          "type": "address"
        },
        {
          "internalType": "address",
          "name": "protocolTreasuryPool",
          "type": "address"
        },
        {
          "internalType": "address",
          "name": "communityDevelopmentFundPool",
          "type": "address"
        },
        {
          "internalType": "address",
          "name": "retroactiveRewardProtocolBootstrapPool",
          "type": "address"
        }
      ],
      "name": "initialize",
      "outputs": [],
      "stateMutability": "nonpayable",
      "type": "function"
    },
    {
      "inputs": [
        {
          "internalType": "uint256",
          "name": "inflationRate",
          "type": "uint256"
        },
        {
          "internalType": "uint256",
          "name": "inflationPeriod",
          "type": "uint256"
        }
      ],
      "name": "setInflation",
      "outputs": [
        {
          "internalType": "bool",
          "name": "success",
          "type": "bool"
        }
      ],
      "stateMutability": "nonpayable",
      "type": "function"
    },
    {
      "inputs": [
        {
          "internalType": "uint256",
          "name": "supplyMaxLimit",
          "type": "uint256"
        }
      ],
      "name": "setSupplyMaxLimit",
      "outputs": [
        {
          "internalType": "bool",
          "name": "success",
          "type": "bool"
        }
      ],
      "stateMutability": "nonpayable",
      "type": "function"
    },
    {
      "inputs": [
        {
          "internalType": "address",
          "name": "to",
          "type": "address"
        },
        {
          "internalType": "uint256",
          "name": "tokens",
          "type": "uint256"
        }
      ],
      "name": "mint",
      "outputs": [
        {
          "internalType": "bool",
          "name": "success",
          "type": "bool"
        }
      ],
      "stateMutability": "nonpayable",
      "type": "function"
    },
    {
      "inputs": [
        {
          "internalType": "address",
          "name": "vestingTimelockAddress",
          "type": "address"
        }
      ],
      "name": "setVestingTimelockContract",
      "outputs": [],
      "stateMutability": "nonpayable",
      "type": "function"
    },
    {
      "inputs": [],
      "name": "pause",
      "outputs": [
        {
          "internalType": "bool",
          "name": "success",
          "type": "bool"
        }
      ],
      "stateMutability": "nonpayable",
      "type": "function"
    },
    {
      "inputs": [],
      "name": "unpause",
      "outputs": [
        {
          "internalType": "bool",
          "name": "success",
          "type": "bool"
        }
      ],
      "stateMutability": "nonpayable",
      "type": "function"
    }
  ],
  "bytecode": "0x608060405234801561001057600080fd5b50612bd6806100206000396000f3fe608060405234801561001057600080fd5b50600436106103ba5760003560e01c80638456cb59116101f4578063c32ab7f71161011a578063d547741f116100ad578063e63ab1e91161007c578063e63ab1e91461092d578063e6f0dfdf14610935578063ef22082c1461093d578063f2e7ccc914610945576103ba565b8063d547741f146108c3578063dd62ed3e146108ef578063e1e2e3bf1461091d578063e2f97bb014610925576103ba565b8063cb31a85f116100e9578063cb31a85f146108a3578063cdc6c537146108ab578063d182a8c9146108b3578063d5391393146108bb576103ba565b8063c32ab7f71461086e578063c947755a14610876578063c94d747b1461087e578063ca15c87314610886576103ba565b8063a457c2d711610192578063b381a81111610161578063b381a8111461084e578063b4029d5e14610856578063b999f6d01461085e578063b9c266ba14610866576103ba565b8063a457c2d7146107e6578063a55ba9d414610812578063a60d5e2d1461081a578063a9059cbb14610822576103ba565b806391d14854116101ce57806391d14854146107a257806395d89b41146107ce57806398e8fd02146107d6578063a217fddf146107de576103ba565b80638456cb591461076f5780638969873f146107775780639010d07c1461077f576103ba565b80633e118dbe116102e45780635d2ae67b11610277578063728a99ee11610246578063728a99ee1461073a5780637744e3c7146107425780637b17361c1461074a5780638321296d14610752576103ba565b80635d2ae67b146106fc5780635e07970b1461070457806370a082311461070c5780637106796314610732576103ba565b8063499f002c116102b3578063499f002c146106dc5780634ad3087c146106e45780634b5c79ad146106ec5780635c975abb146106f4576103ba565b80633e118dbe1461067d5780633f4ba83a1461068557806340c10f191461068d578063453c69cb146106b9576103ba565b8063248a9ca31161035c578063313ce5671161032b578063313ce567146105ff57806336568abe1461061d57806339509351146106495780633aed93b614610675576103ba565b8063248a9ca3146105205780632cc39ff51461053d5780632f2ff15d146105455780632fdd983d14610571576103ba565b80630e054f02116103985780630e054f021461049657806318160ddd146104ba57806320dd4868146104c257806323b872dd146104ea576103ba565b806306fdde03146103bf578063095ea7b31461043c5780630cf79b2a1461047c575b600080fd5b6103c761094d565b6040805160208082528351818301528351919283929083019185019080838360005b838110156104015781810151838201526020016103e9565b50505050905090810190601f16801561042e5780820380516001836020036101000a031916815260200191505b509250505060405180910390f35b6104686004803603604081101561045257600080fd5b506001600160a01b0381351690602001356109e4565b604080519115158252519081900360200190f35b610484610a02565b60408051918252519081900360200190f35b61049e610a11565b604080516001600160a01b039092168252519081900360200190f35b610484610a20565b6104e8600480360360208110156104d857600080fd5b50356001600160a01b0316610a26565b005b6104686004803603606081101561050057600080fd5b506001600160a01b03813581169160208101359091169060400135610ac3565b6104846004803603602081101561053657600080fd5b5035610b4b565b61049e610b60565b6104e86004803603604081101561055b57600080fd5b50803590602001356001600160a01b0316610b6f565b6104e860048036036101a081101561058857600080fd5b506001600160a01b038135811691602081013582169160408201358116916060810135821691608082013581169160a081013582169160c082013581169160e08101358216916101008201358116916101208101358216916101408201358116916101608101358216916101809091013516610bd6565b6106076110d9565b6040805160ff9092168252519081900360200190f35b6104e86004803603604081101561063357600080fd5b50803590602001356001600160a01b03166110e2565b6104686004803603604081101561065f57600080fd5b506001600160a01b038135169060200135611143565b610484611191565b6104846111a1565b6104686111a7565b610468600480360360408110156106a357600080fd5b506001600160a01b038135169060200135611208565b610468600480360360408110156106cf57600080fd5b50803590602001356112ce565b6104846113ef565b6104846113f5565b61049e611404565b610468611413565b61048461141c565b61049e61142b565b6104846004803603602081101561072257600080fd5b50356001600160a01b031661143a565b61049e611455565b610484611464565b61048461146a565b610484611470565b6104686004803603602081101561076857600080fd5b5035611478565b610468611514565b61048461156f565b61049e6004803603604081101561079557600080fd5b508035906020013561157e565b610468600480360360408110156107b857600080fd5b50803590602001356001600160a01b0316611596565b6103c76115ae565b61049e61160f565b61048461161e565b610468600480360360408110156107fc57600080fd5b506001600160a01b038135169060200135611623565b61048461168b565b61048461169b565b6104686004803603604081101561083857600080fd5b506001600160a01b0381351690602001356116a1565b6104846116b5565b61049e6116bd565b61049e6116cc565b61049e6116db565b61049e6116ea565b6104846116f9565b610484611701565b6104846004803603602081101561089c57600080fd5b5035611710565b61049e611727565b610484611736565b610484611745565b610484611755565b6104e8600480360360408110156108d957600080fd5b50803590602001356001600160a01b0316611779565b6104846004803603604081101561090557600080fd5b506001600160a01b03813581169160200135166117d2565b61049e6117fd565b61049e61180c565b61048461181b565b61048461182d565b610484611833565b610484611839565b60368054604080516020601f60026000196101006001881615020190951694909404938401819004810282018101909252828152606093909290918301828280156109d95780601f106109ae576101008083540402835291602001916109d9565b820191906000526020600020905b8154815290600101906020018083116109bc57829003601f168201915b505050505090505b90565b60006109f86109f1611848565b848461184c565b5060015b92915050565b6a0aefea174389736478000081565b60cb546001600160a01b031681565b60355490565b610a386000610a33611848565b611596565b610a6f576040805162461bcd60e51b815260206004820152600360248201526228299b60e91b604482015290519081900360640190fd5b60d780546001600160a01b0383166001600160a01b0319909116811790915560408051918252517f5e31e3a89ede0d5e39be17ca2a414f0dbdfd4f9a8a9a1054a8358fdf84581ab49181900360200190a150565b6000610ad0848484611938565b610b4084610adc611848565b610b3b85604051806060016040528060288152602001612abc602891396001600160a01b038a16600090815260346020526040812090610b1a611848565b6001600160a01b031681526020810191909152604001600020549190611a95565b61184c565b5060015b9392505050565b60009081526097602052604090206002015490565b60d2546001600160a01b031681565b600082815260976020526040902060020154610b8d90610a33611848565b610bc85760405162461bcd60e51b815260040180806020018281038252602f8152602001806129c6602f913960400191505060405180910390fd5b610bd28282611b2c565b5050565b600054610100900460ff1680610bef5750610bef611b95565b80610bfd575060005460ff16155b610c385760405162461bcd60e51b815260040180806020018281038252602e815260200180612a6d602e913960400191505060405180910390fd5b600054610100900460ff16158015610c63576000805460ff1961ff0019909116610100171660011790555b610caf6040518060400160405280600c81526020016b3829aa20a5a2902a37b5b2b760a11b81525060405180604001604052806006815260200165505354414b4560d01b815250611ba6565b610cb7611c5c565b610cbf611d0e565b610cd16000610ccc611848565b610bc8565b610ceb600080516020612ae4833981519152610ccc611848565b610d177f9f2df0fed2c77648de5860a4cc508cd0818c85b8b8a1ab4ceeef8d981c8956a6610ccc611848565b610d216012611dab565b6308f0d18060d98190556301e1338060da55633b9aca0060ca8190554260db55610d7091610d5d916b019d971e4fe8401e740000009190611dc1565b6b019d971e4fe8401e7400000090611e7a565b60d8819055506b0409f9cbc7c4a04c2200000060dc81905550600160c9819055508d60d760006101000a8154816001600160a01b0302191690836001600160a01b031602179055508c60cb60006101000a8154816001600160a01b0302191690836001600160a01b031602179055508b60cc60006101000a8154816001600160a01b0302191690836001600160a01b031602179055508a60cd60006101000a8154816001600160a01b0302191690836001600160a01b031602179055508960ce60006101000a8154816001600160a01b0302191690836001600160a01b031602179055508860cf60006101000a8154816001600160a01b0302191690836001600160a01b031602179055508760d060006101000a8154816001600160a01b0302191690836001600160a01b031602179055508660d160006101000a8154816001600160a01b0302191690836001600160a01b031602179055508560d260006101000a8154816001600160a01b0302191690836001600160a01b031602179055508460d360006101000a8154816001600160a01b0302191690836001600160a01b031602179055508360d460006101000a8154816001600160a01b0302191690836001600160a01b031602179055508260d560006101000a8154816001600160a01b0302191690836001600160a01b031602179055508160d660006101000a8154816001600160a01b0302191690836001600160a01b03160217905550610fb660cb60009054906101000a90046001600160a01b03166a0422ca8b0a00a425000000611ed4565b60cc54610fd7906001600160a01b03166a084595161401484a000000611ed4565b60d254610ff8906001600160a01b03166a0aefea1743897364780000611ed4565b60d354611019906001600160a01b03166a0108b2a2c2802909400000611ed4565b60d45461103a906001600160a01b03166a0383f8f62ee6f1ec400000611ed4565b60d55461105b906001600160a01b03166a0160ee32f8e7c7eecc0000611ed4565b60d65461107c906001600160a01b03166a0bfe7e93369b759e800000611ed4565b611092306b017452bc3865ca661dbc0000611208565b5060d7546110b79030906001600160a01b03166b017452bc3865ca661dbc000061184c565b80156110c9576000805461ff00191690555b5050505050505050505050505050565b60385460ff1690565b6110ea611848565b6001600160a01b0316816001600160a01b0316146111395760405162461bcd60e51b815260040180806020018281038252602f815260200180612b72602f913960400191505060405180910390fd5b610bd28282611fc6565b60006109f8611150611848565b84610b3b8560346000611161611848565b6001600160a01b03908116825260208083019390935260409182016000908120918c168152925290205490611e7a565b6b017452bc3865ca661dbc000081565b60c95481565b60006111c3600080516020612ae4833981519152610a33611848565b6111fa576040805162461bcd60e51b81526020600482015260036024820152621414cd60ea1b604482015290519081900360640190fd5b61120261202f565b50600190565b60006112367f9f2df0fed2c77648de5860a4cc508cd0818c85b8b8a1ab4ceeef8d981c8956a6610a33611848565b61126d576040805162461bcd60e51b815260206004820152600360248201526250533160e81b604482015290519081900360640190fd5b6112756120cf565b5060d85461128b83611285610a20565b90611e7a565b11156112c4576040805162461bcd60e51b815260206004820152600360248201526228299960e91b604482015290519081900360640190fd5b6109f88383611ed4565b60006112dc81610a33611848565b611313576040805162461bcd60e51b815260206004820152600360248201526205053360ec1b604482015290519081900360640190fd5b60ca54831115611350576040805162461bcd60e51b815260206004820152600360248201526250533760e81b604482015290519081900360640190fd5b6000821161138b576040805162461bcd60e51b815260206004820152600360248201526250533960e81b604482015290519081900360640190fd5b5060d982905560da81905560017f3626ade5797d5d9ff68b2dd6193599e26a3cb5d1f6afb37ca308e7533ff620e56113c1611848565b604080516001600160a01b03909216825260208201869052818101859052519081900360600190a192915050565b60db5481565b6a0108b2a2c280290940000081565b60cd546001600160a01b031681565b60655460ff1690565b6a0bfe7e93369b759e80000081565b60ce546001600160a01b031681565b6001600160a01b031660009081526033602052604090205490565b60d5546001600160a01b031681565b60ca5481565b60dc5481565b633b9aca0081565b600061148681610a33611848565b6114bd576040805162461bcd60e51b81526020600482015260036024820152620a0a6760eb1b604482015290519081900360640190fd5b5060dc81905560017fc7ef0200a4197b576e0fd91f28652dedae560532b3d4ea0193cc124b3c16f4cf6114ee611848565b604080516001600160a01b039092168252602082018590528051918290030190a1919050565b6000611530600080516020612ae4833981519152610a33611848565b611567576040805162461bcd60e51b815260206004820152600360248201526250533360e81b604482015290519081900360640190fd5b611202612248565b6a084595161401484a00000081565b6000828152609760205260408120610b4490836122cb565b6000828152609760205260408120610b4490836122d7565b60378054604080516020601f60026000196101006001881615020190951694909404938401819004810282018101909252828152606093909290918301828280156109d95780601f106109ae576101008083540402835291602001916109d9565b60d3546001600160a01b031681565b600081565b60006109f8611630611848565b84610b3b85604051806060016040528060258152602001612b4d602591396034600061165a611848565b6001600160a01b03908116825260208083019390935260409182016000908120918d16815292529020549190611a95565b6b0409f9cbc7c4a04c2200000081565b60da5481565b60006109f86116ae611848565b8484611938565b6308f0d18081565b60d1546001600160a01b031681565b60d0546001600160a01b031681565b60cf546001600160a01b031681565b60d4546001600160a01b031681565b6301e1338081565b6a0422ca8b0a00a42500000081565b60008181526097602052604081206109fc906122ec565b60d7546001600160a01b031681565b6a0383f8f62ee6f1ec40000081565b6b019d971e4fe8401e7400000081565b7f9f2df0fed2c77648de5860a4cc508cd0818c85b8b8a1ab4ceeef8d981c8956a681565b60008281526097602052604090206002015461179790610a33611848565b6111395760405162461bcd60e51b8152600401808060200182810382526030815260200180612a3d6030913960400191505060405180910390fd5b6001600160a01b03918216600090815260346020908152604080832093909416825291909152205490565b60d6546001600160a01b031681565b60cc546001600160a01b031681565b600080516020612ae483398151915281565b60d85481565b60d95481565b6a0160ee32f8e7c7eecc000081565b3390565b6001600160a01b0383166118915760405162461bcd60e51b8152600401808060200182810382526024815260200180612b296024913960400191505060405180910390fd5b6001600160a01b0382166118d65760405162461bcd60e51b81526004018080602001828103825260228152602001806129f56022913960400191505060405180910390fd5b6001600160a01b03808416600081815260346020908152604080832094871680845294825291829020859055815185815291517f8c5be1e5ebec7d5bd14f71427d1e84f3dd0314c0f7b2291e5b200ac8c7c3b9259281900390910190a3505050565b6001600160a01b03831661197d5760405162461bcd60e51b8152600401808060200182810382526025815260200180612b046025913960400191505060405180910390fd5b6001600160a01b0382166119c25760405162461bcd60e51b81526004018080602001828103825260238152602001806129a36023913960400191505060405180910390fd5b6119cd8383836122f7565b611a0a81604051806060016040528060268152602001612a17602691396001600160a01b0386166000908152603360205260409020549190611a95565b6001600160a01b038085166000908152603360205260408082209390935590841681522054611a399082611e7a565b6001600160a01b0380841660008181526033602090815260409182902094909455805185815290519193928716927fddf252ad1be2c89b69c2b068fc378daa952ba7f163c4a11628f55a4df523b3ef92918290030190a3505050565b60008184841115611b245760405162461bcd60e51b81526004018080602001828103825283818151815260200191508051906020019080838360005b83811015611ae9578181015183820152602001611ad1565b50505050905090810190601f168015611b165780820380516001836020036101000a031916815260200191505b509250505060405180910390fd5b505050900390565b6000828152609760205260409020611b449082612342565b15610bd257611b51611848565b6001600160a01b0316816001600160a01b0316837f2f8788117e7eff1d82e926ec794901d17c78024a50270940304540a733656f0d60405160405180910390a45050565b6000611ba030612357565b15905090565b600054610100900460ff1680611bbf5750611bbf611b95565b80611bcd575060005460ff16155b611c085760405162461bcd60e51b815260040180806020018281038252602e815260200180612a6d602e913960400191505060405180910390fd5b600054610100900460ff16158015611c33576000805460ff1961ff0019909116610100171660011790555b611c3b61235d565b611c4583836123fd565b8015611c57576000805461ff00191690555b505050565b600054610100900460ff1680611c755750611c75611b95565b80611c83575060005460ff16155b611cbe5760405162461bcd60e51b815260040180806020018281038252602e815260200180612a6d602e913960400191505060405180910390fd5b600054610100900460ff16158015611ce9576000805460ff1961ff0019909116610100171660011790555b611cf161235d565b611cf961235d565b8015611d0b576000805461ff00191690555b50565b600054610100900460ff1680611d275750611d27611b95565b80611d35575060005460ff16155b611d705760405162461bcd60e51b815260040180806020018281038252602e815260200180612a6d602e913960400191505060405180910390fd5b600054610100900460ff16158015611d9b576000805460ff1961ff0019909116610100171660011790555b611da361235d565b611cf96124d5565b6038805460ff191660ff92909216919091179055565b6000806000611dd08686612580565b9150915060008480611dde57fe5b868809905082811115611df2576001820391505b918290039181611e1057848381611e0557fe5b049350505050610b44565b848210611e64576040805162461bcd60e51b815260206004820152601a60248201527f46756c6c4d6174683a2046554c4c4449565f4f564552464c4f57000000000000604482015290519081900360640190fd5b611e6f8383876125ad565b979650505050505050565b600082820183811015610b44576040805162461bcd60e51b815260206004820152601b60248201527f536166654d6174683a206164646974696f6e206f766572666c6f770000000000604482015290519081900360640190fd5b6001600160a01b038216611f2f576040805162461bcd60e51b815260206004820152601f60248201527f45524332303a206d696e7420746f20746865207a65726f206164647265737300604482015290519081900360640190fd5b611f3b600083836122f7565b603554611f489082611e7a565b6035556001600160a01b038216600090815260336020526040902054611f6e9082611e7a565b6001600160a01b03831660008181526033602090815260408083209490945583518581529351929391927fddf252ad1be2c89b69c2b068fc378daa952ba7f163c4a11628f55a4df523b3ef9281900390910190a35050565b6000828152609760205260409020611fde908261261d565b15610bd257611feb611848565b6001600160a01b0316816001600160a01b0316837ff6391f5c32d9c69d2a47ea670b442974b53935d1edc7fd64eb21e047a839171b60405160405180910390a45050565b612037611413565b61207f576040805162461bcd60e51b815260206004820152601460248201527314185d5cd8589b194e881b9bdd081c185d5cd95960621b604482015290519081900360640190fd5b6065805460ff191690557f5db9ee0a495bf2e6ff9c91a7834c1ba4fdd244a5e8aa4e537bd38aeae4b073aa6120b2611848565b604080516001600160a01b039092168252519081900360200190a1565b600060dc5460d854106120e1576109e1565b60006120f860db544261263290919063ffffffff16565b9050600061212160d95460ca546b019d971e4fe8401e74000000611dc19092919063ffffffff16565b9050600061213a60da548461268f90919063ffffffff16565b9050600061214882846126f6565b9050600061216160da54846126f690919063ffffffff16565b9050821561223b57600061218260d85460dc5461263290919063ffffffff16565b60d8549091506121929084611e7a565b60d881905560dc5410156121d15760dc5460d855600060db8190556121b8838386611dc1565b60db549091506121c89082611e7a565b60db55506121e2565b60db546121de9083611e7a565b60db555b7f36581a2b25903f92b9cf76ccf14ea53151d6f302d54de9ddb6259a7f67993bfd60db5461221b60da54876126f690919063ffffffff16565b6040805192835260208301919091524282820152519081900360600190a1505b60d8549550505050505090565b612250611413565b15612295576040805162461bcd60e51b815260206004820152601060248201526f14185d5cd8589b194e881c185d5cd95960821b604482015290519081900360640190fd5b6065805460ff191660011790557f62e78cea01bee320cd4e420270b5ea74000d11b0c9f74754ebdbfc544b05a2586120b2611848565b6000610b44838361274f565b6000610b44836001600160a01b0384166127b3565b60006109fc826127cb565b6122ff611413565b15612337576040805162461bcd60e51b815260206004820152600360248201526250533560e81b604482015290519081900360640190fd5b611c57838383611c57565b6000610b44836001600160a01b0384166127cf565b3b151590565b600054610100900460ff16806123765750612376611b95565b80612384575060005460ff16155b6123bf5760405162461bcd60e51b815260040180806020018281038252602e815260200180612a6d602e913960400191505060405180910390fd5b600054610100900460ff16158015611cf9576000805460ff1961ff0019909116610100171660011790558015611d0b576000805461ff001916905550565b600054610100900460ff16806124165750612416611b95565b80612424575060005460ff16155b61245f5760405162461bcd60e51b815260040180806020018281038252602e815260200180612a6d602e913960400191505060405180910390fd5b600054610100900460ff1615801561248a576000805460ff1961ff0019909116610100171660011790555b825161249d9060369060208601906128df565b5081516124b19060379060208501906128df565b506038805460ff191660121790558015611c57576000805461ff0019169055505050565b600054610100900460ff16806124ee57506124ee611b95565b806124fc575060005460ff16155b6125375760405162461bcd60e51b815260040180806020018281038252602e815260200180612a6d602e913960400191505060405180910390fd5b600054610100900460ff16158015612562576000805460ff1961ff0019909116610100171660011790555b6065805460ff191690558015611d0b576000805461ff001916905550565b60008080600019848609905083850292508281039150828110156125a5576001820391505b509250929050565b600081810382168083816125bd57fe5b0492508085816125c957fe5b0494508081600003816125d857fe5b60028581038087028203028087028203028087028203028087028203028087028203028087028203029586029003909402930460010193909302939093010292915050565b6000610b44836001600160a01b038416612819565b600082821115612689576040805162461bcd60e51b815260206004820152601e60248201527f536166654d6174683a207375627472616374696f6e206f766572666c6f770000604482015290519081900360640190fd5b50900390565b60008082116126e5576040805162461bcd60e51b815260206004820152601a60248201527f536166654d6174683a206469766973696f6e206279207a65726f000000000000604482015290519081900360640190fd5b8183816126ee57fe5b049392505050565b600082612705575060006109fc565b8282028284828161271257fe5b0414610b445760405162461bcd60e51b8152600401808060200182810382526021815260200180612a9b6021913960400191505060405180910390fd5b815460009082106127915760405162461bcd60e51b81526004018080602001828103825260228152602001806129816022913960400191505060405180910390fd5b8260000182815481106127a057fe5b9060005260206000200154905092915050565b60009081526001919091016020526040902054151590565b5490565b60006127db83836127b3565b612811575081546001818101845560008481526020808220909301849055845484825282860190935260409020919091556109fc565b5060006109fc565b600081815260018301602052604081205480156128d5578354600019808301919081019060009087908390811061284c57fe5b906000526020600020015490508087600001848154811061286957fe5b60009182526020808320909101929092558281526001898101909252604090209084019055865487908061289957fe5b600190038181906000526020600020016000905590558660010160008781526020019081526020016000206000905560019450505050506109fc565b60009150506109fc565b828054600181600116156101000203166002900490600052602060002090601f016020900481019282612915576000855561295b565b82601f1061292e57805160ff191683800117855561295b565b8280016001018555821561295b579182015b8281111561295b578251825591602001919060010190612940565b5061296792915061296b565b5090565b5b80821115612967576000815560010161296c56fe456e756d657261626c655365743a20696e646578206f7574206f6620626f756e647345524332303a207472616e7366657220746f20746865207a65726f2061646472657373416363657373436f6e74726f6c3a2073656e646572206d75737420626520616e2061646d696e20746f206772616e7445524332303a20617070726f766520746f20746865207a65726f206164647265737345524332303a207472616e7366657220616d6f756e7420657863656564732062616c616e6365416363657373436f6e74726f6c3a2073656e646572206d75737420626520616e2061646d696e20746f207265766f6b65496e697469616c697a61626c653a20636f6e747261637420697320616c726561647920696e697469616c697a6564536166654d6174683a206d756c7469706c69636174696f6e206f766572666c6f7745524332303a207472616e7366657220616d6f756e74206578636565647320616c6c6f77616e636565d7a28e3265b37a6474929f336521b332c1681b933f6cb9f3376673440d862a45524332303a207472616e736665722066726f6d20746865207a65726f206164647265737345524332303a20617070726f76652066726f6d20746865207a65726f206164647265737345524332303a2064656372656173656420616c6c6f77616e63652062656c6f77207a65726f416363657373436f6e74726f6c3a2063616e206f6e6c792072656e6f756e636520726f6c657320666f722073656c66a2646970667358221220139bc9c72bc4a47e68f15286d57f94be4fefcf90f96fa466f418c3aa51b5e18764736f6c63430007060033",
  "immutableReferences": {},
  "source": "// SPDX-License-Identifier: UNLICENSED\npragma solidity >=0.7.0;\n\nimport \"@openzeppelin/contracts-upgradeable/token/ERC20/ERC20Upgradeable.sol\";\nimport \"@openzeppelin/contracts-upgradeable/utils/PausableUpgradeable.sol\";\nimport \"@openzeppelin/contracts-upgradeable/access/AccessControlUpgradeable.sol\";\nimport \"@openzeppelin/contracts-upgradeable/math/SafeMathUpgradeable.sol\";\nimport \"./libraries/FullMath.sol\";\nimport \"./interfaces/IVestingTimelockV2.sol\";\nimport \"./interfaces/IPSTAKE.sol\";\n\ncontract PSTAKE is\n  IPSTAKE,\n  ERC20Upgradeable,\n  PausableUpgradeable,\n  AccessControlUpgradeable\n{\n  // including libraries\n  using SafeMathUpgradeable for uint256;\n  using FullMath for uint256;\n\n  // constants defining access control ROLES\n  bytes32 public constant PAUSER_ROLE = keccak256(\"PAUSER_ROLE\");\n  bytes32 public constant MINTER_ROLE = keccak256(\"MINTER_ROLE\");\n\n  // variable pertaining to contract upgrades versioning and value divisor\n  uint256 public _version;\n  uint256 public _valueDivisor;\n\n  // addresses pertaining to various tokenomics strategy\n  address public _airdropPool;\n  address public _alphaLaunchpadPool;\n  address public _seedSalePool;\n  address public _publicSalePool1;\n  address public _publicSalePool2;\n  address public _publicSalePool3;\n  address public _teamPool;\n  address public _incentivisationPool;\n  address public _xprtStakersPool;\n  address public _protocolTreasuryPool;\n  address public _communityDevelopmentFundPool;\n  address public _retroactiveRewardProtocolBootstrapPool;\n\n  // address of vesting timelock contract to enable several vesting strategy\n  address public _vestingTimelockAddress;\n\n  // total inflated supply and the supply limit component to implement inflation\n  uint256 public _totalInflatedSupply;\n  uint256 public _inflationRate;\n  uint256 public _inflationPeriod;\n  uint256 public _lastInflationBlockTime;\n  uint256 public _supplyMaxLimit;\n\n  // constants for value allocation\n  uint256 public constant INFLATION_RATE = uint256(15e7);\n  uint256 public constant INFLATION_PERIOD = 365 days;\n  uint256 public constant VALUE_DIVISOR = uint256(1e9);\n  uint256 public constant SUPPLY_AT_GENESIS = uint256(500000000e18);\n  uint256 public constant TOTAL_VESTED_SUPPLY = uint256(450111111e18);\n  uint256 public constant SUPPLY_MAX_LIMIT = uint256(1250000000e18);\n\n  // pre-allocate tokens to strategy pools\n  uint256 public constant AIRDROPPOOLALLOCATION = uint256(5000000e18);\n  uint256 public constant ALPHALAUNCHPADPOOLALLOCATION = uint256(10000000e18);\n  uint256 public constant INCENTIVISATIONPOOLALLOCATION = uint256(13222222e18);\n  uint256 public constant XPRTSTAKERSPOOLALLOCATION = uint256(1250000e18);\n  uint256 public constant PROTOCOLTREASURYPOOLALLOCATION = uint256(4250000e18);\n  uint256 public constant COMMUNITYDEVELOPMENTFUNDPOOLALLOCATION =\n    uint256(1666667e18);\n  uint256 public constant RETROACTIVEREWARDPROTOCOLBOOTSTRAPPOOLALLOCATION =\n    uint256(14500000e18);\n\n  /**\n   * @dev Constructor for initializing the PSTAKE contract.\n   * @param vestingTimelockAddress - address of the vesting timelock contract.\n   * @param airdropPool - address of the airdrop pool.\n   * @param alphaLaunchpadPool - address of the alpha launchpad pool.\n   * @param seedSalePool - address of the seed sale pool.\n   * @param publicSalePool1 - address of the public sale pool1.\n   * @param publicSalePool2 - address of the public sale pool2.\n   * @param publicSalePool3 - address of the public sale pool3.\n   * @param teamPool - address of the team pool.\n   * @param incentivisationPool - address of the incentivising pool.\n   * @param xprtStakersPool - address of the xprt stakers pool.\n   * @param protocolTreasuryPool - address of the protocol treasury pool.\n   * @param communityDevelopmentFundPool - address of the community development fund pool.\n   * @param retroactiveRewardProtocolBootstrapPool - address of the retroactive reward protocol bootstrap pool.\n   */\n  function initialize(\n    address vestingTimelockAddress,\n    address airdropPool,\n    address alphaLaunchpadPool,\n    address seedSalePool,\n    address publicSalePool1,\n    address publicSalePool2,\n    address publicSalePool3,\n    address teamPool,\n    address incentivisationPool,\n    address xprtStakersPool,\n    address protocolTreasuryPool,\n    address communityDevelopmentFundPool,\n    address retroactiveRewardProtocolBootstrapPool\n  ) public virtual initializer {\n    __ERC20_init(\"pSTAKE Token\", \"PSTAKE\");\n    __AccessControl_init();\n    __Pausable_init();\n    _setupRole(DEFAULT_ADMIN_ROLE, _msgSender());\n    _setupRole(PAUSER_ROLE, _msgSender());\n    _setupRole(MINTER_ROLE, _msgSender());\n\n    // PSTAKE is an erc20 token hence 18 decimal places\n    _setupDecimals(18);\n    _inflationRate = INFLATION_RATE;\n    _inflationPeriod = INFLATION_PERIOD;\n    _valueDivisor = VALUE_DIVISOR;\n    _lastInflationBlockTime = block.timestamp;\n    _totalInflatedSupply = uint256(SUPPLY_AT_GENESIS).add(\n      uint256(SUPPLY_AT_GENESIS).mulDiv(_inflationRate, _valueDivisor)\n    );\n    _supplyMaxLimit = SUPPLY_MAX_LIMIT;\n\n    // setup the version and vesting timelock contract\n    _version = 1;\n    _vestingTimelockAddress = vestingTimelockAddress;\n\n    // allocate the various tokenomics strategy pool addresses\n    // (must be different addresses because each address can have only one active vesting strategy at a time)\n    _airdropPool = airdropPool;\n    _alphaLaunchpadPool = alphaLaunchpadPool;\n    _seedSalePool = seedSalePool;\n    _publicSalePool1 = publicSalePool1;\n    _publicSalePool2 = publicSalePool2;\n    _publicSalePool3 = publicSalePool3;\n    _teamPool = teamPool;\n    _incentivisationPool = incentivisationPool;\n    _xprtStakersPool = xprtStakersPool;\n    _protocolTreasuryPool = protocolTreasuryPool;\n    _communityDevelopmentFundPool = communityDevelopmentFundPool;\n    _retroactiveRewardProtocolBootstrapPool = retroactiveRewardProtocolBootstrapPool;\n\n    // pre-allocate tokens to strategy pools\n    _mint(_airdropPool, AIRDROPPOOLALLOCATION);\n    _mint(_alphaLaunchpadPool, ALPHALAUNCHPADPOOLALLOCATION);\n    _mint(_incentivisationPool, INCENTIVISATIONPOOLALLOCATION);\n    _mint(_xprtStakersPool, XPRTSTAKERSPOOLALLOCATION);\n    _mint(_protocolTreasuryPool, PROTOCOLTREASURYPOOLALLOCATION);\n    _mint(\n      _communityDevelopmentFundPool,\n      COMMUNITYDEVELOPMENTFUNDPOOLALLOCATION\n    );\n    _mint(\n      _retroactiveRewardProtocolBootstrapPool,\n      RETROACTIVEREWARDPROTOCOLBOOTSTRAPPOOLALLOCATION\n    );\n\n    // accumulate tokens to allocate for vesting strategies (total supply - initial circulating supply)\n    mint(address(this), TOTAL_VESTED_SUPPLY);\n\n    // approve the vesting timelock contract to pull the tokens\n    _approve(address(this), _vestingTimelockAddress, TOTAL_VESTED_SUPPLY);\n\n    // ALLOCATING VESTING STRATEGIES\n\n    /*  // airdrop pool\n    IVestingTimelockV2(_vestingTimelockAddress).addGrantAsInstalment(\n      address(this),\n      _airdropPool,\n      block.timestamp,\n      // 1 month\n      (30 days + 10 hours),\n      uint256(5000000e18),\n      5,\n      // 1 month\n      (30 days + 10 hours),\n      false\n    );\n\n    // seedSale pool\n    IVestingTimelockV2(_vestingTimelockAddress).addGrantAsInstalment(\n      address(this),\n      _seedSalePool,\n      block.timestamp,\n      // 6 months\n      (182 days + 12 hours),\n      uint256(8333333e18),\n      12,\n      // 1 month\n      (30 days + 10 hours),\n      false\n    );\n\n    // publicSalePool1 pool\n    IVestingTimelockV2(_vestingTimelockAddress).addGrantAsInstalment(\n      address(this),\n      _publicSalePool1,\n      block.timestamp,\n      // 6 months\n      (182 days + 12 hours),\n      uint256(833333e18),\n      6,\n      // 1 month\n      (30 days + 10 hours),\n      false\n    );\n\n    // publicSalePool2 pool\n    IVestingTimelockV2(_vestingTimelockAddress).addGrantAsInstalment(\n      address(this),\n      _publicSalePool2,\n      block.timestamp,\n      // 3 months\n      (91 days + 6 hours),\n      uint256(1666667e18),\n      6,\n      // 1 month\n      (30 days + 10 hours),\n      false\n    );\n\n    // publicSalePool3 pool\n    IVestingTimelockV2(_vestingTimelockAddress).addGrantAsInstalment(\n      address(this),\n      _publicSalePool3,\n      block.timestamp,\n      // 1 month\n      (30 days + 10 hours),\n      uint256(10000000e18),\n      1,\n      // 0 month\n      0,\n      false\n    );\n\n    // team pool\n    IVestingTimelockV2(_vestingTimelockAddress).addGrantAsInstalment(\n      address(this),\n      _teamPool,\n      block.timestamp,\n      // 18 months\n      (547 days + 12 hours),\n      uint256(4444444e18),\n      18,\n      // 1 month\n      (30 days + 10 hours),\n      false\n    );\n\n    // incentivisation pool\n    IVestingTimelockV2(_vestingTimelockAddress).addGrantAsInstalment(\n      address(this),\n      _incentivisationPool,\n      block.timestamp,\n      // 3 months\n      (91 days + 6 hours),\n      uint256(13222222e18),\n      8,\n      // 3 months\n      (91 days + 6 hours),\n      false\n    );\n\n    // xprtStakers pool\n    IVestingTimelockV2(_vestingTimelockAddress).addGrantAsInstalment(\n      address(this),\n      _xprtStakersPool,\n      block.timestamp,\n      // 1 month\n      (30 days + 10 hours),\n      uint256(1250000e18),\n      11,\n      // 1 month\n      (30 days + 10 hours),\n      false\n    );\n\n    // protocolTreasury pool\n    IVestingTimelockV2(_vestingTimelockAddress).addGrantAsInstalment(\n      address(this),\n      _protocolTreasuryPool,\n      block.timestamp,\n      // 2 months\n      (60 days + 20 hours),\n      uint256(4250000e18),\n      17,\n      // 2 months\n      (60 days + 20 hours),\n      false\n    );\n\n    // communityDevelopmentFund pool\n    IVestingTimelockV2(_vestingTimelockAddress).addGrantAsInstalment(\n      address(this),\n      _communityDevelopmentFundPool,\n      block.timestamp,\n      // 3 months\n      (91 days + 6 hours),\n      uint256(1666667e18),\n      17,\n      // 3 months\n      (91 days + 6 hours),\n      false\n    ); */\n  }\n\n  /**\n   * @dev Check inflation\n   * Emits a {CheckInflation} event with 'block height', 'inflationComponent', and 'timestamp'.\n   *\n   */\n  function _checkInflation() internal returns (uint256 totalInflatedSupply) {\n    // if the _totalInflatedSupply has already reacted _supplyMaxLimit then return\n    if (_totalInflatedSupply >= _supplyMaxLimit) return (totalInflatedSupply);\n\n    // get the time since last inflation\n    uint256 timeSinceLastInflation = (block.timestamp).sub(\n      _lastInflationBlockTime\n    );\n\n    // get the inflation amount for one cycle of inflation period\n    uint256 inflationPerInstalment = uint256(SUPPLY_AT_GENESIS).mulDiv(\n      _inflationRate,\n      _valueDivisor\n    );\n\n    // get the number of cycles/instalments of inflation that are pending to be updated\n    uint256 inflationInstalments = timeSinceLastInflation.div(_inflationPeriod);\n    uint256 additionalInflation = inflationInstalments.mul(\n      inflationPerInstalment\n    );\n    uint256 additionalBlockTime = inflationInstalments.mul(_inflationPeriod);\n\n    if (inflationInstalments > 0) {\n      // add inflationPerInstalment to total inflated supply\n      uint256 inflationDiff = _supplyMaxLimit.sub(_totalInflatedSupply);\n      _totalInflatedSupply = _totalInflatedSupply.add(additionalInflation);\n\n      if (_totalInflatedSupply > _supplyMaxLimit) {\n        // set totalInflatedSupply as supply max limit\n        _totalInflatedSupply = _supplyMaxLimit;\n        _lastInflationBlockTime = 0;\n\n        // update the _lastInflationBlockTime value\n        uint256 blockTimeDiff = additionalBlockTime.mulDiv(\n          inflationDiff,\n          additionalInflation\n        );\n        _lastInflationBlockTime = _lastInflationBlockTime.add(blockTimeDiff);\n      } else {\n        // update _lastInflationBlockTime with the time period pertaining to inflationInstalments\n        _lastInflationBlockTime = _lastInflationBlockTime.add(\n          additionalBlockTime\n        );\n      }\n\n      // emit an event\n      emit CheckInflation(\n        _lastInflationBlockTime,\n        inflationInstalments.mul(_inflationPeriod),\n        block.timestamp\n      );\n    }\n\n    totalInflatedSupply = _totalInflatedSupply;\n  }\n\n  /**\n   * @dev Set inflation\n   * @param inflationRate: inflation rate.\n   *\n   */\n  function setInflation(uint256 inflationRate, uint256 inflationPeriod)\n    public\n    virtual\n    override\n    returns (bool success)\n  {\n    require(hasRole(DEFAULT_ADMIN_ROLE, _msgSender()), \"PS0\");\n    // require inflation rate to be not more than 100 since it is a percentage\n    require(inflationRate <= _valueDivisor, \"PS7\");\n    require(inflationPeriod > 0, \"PS9\");\n    _inflationRate = inflationRate;\n    _inflationPeriod = inflationPeriod;\n    success = true;\n    emit SetInflationRate(_msgSender(), inflationRate, inflationPeriod);\n  }\n\n  /**\n   * @dev Set supply max limit of the inflation component\n   * @param supplyMaxLimit: supply max limit value\n   *\n   */\n  function setSupplyMaxLimit(uint256 supplyMaxLimit)\n    public\n    virtual\n    override\n    returns (bool success)\n  {\n    // require this function to be callable only by the admin\n    require(hasRole(DEFAULT_ADMIN_ROLE, _msgSender()), \"PS8\");\n    _supplyMaxLimit = supplyMaxLimit;\n    success = true;\n    emit SetSupplyMaxLimit(_msgSender(), supplyMaxLimit);\n  }\n\n  /**\n   * @dev Mint new PSTAKE for the provided 'address' and 'amount'\n   *\n   *\n   * Emits a {MintTokens} event with 'to' set to address and 'tokens' set to amount of tokens.\n   *\n   * Requirements:\n   *\n   * - `amount` cannot be less than zero.\n   *\n   */\n  function mint(address to, uint256 tokens)\n    public\n    virtual\n    override\n    returns (bool success)\n  {\n    require(hasRole(MINTER_ROLE, _msgSender()), \"PS1\");\n\n    // condition to check if the total supply doesnt cross the inflated supply\n    _checkInflation();\n    require((totalSupply()).add(tokens) <= _totalInflatedSupply, \"PS2\");\n\n    // mint the tokens\n    _mint(to, tokens);\n    return true;\n  }\n\n  /**\n   * @dev Set 'contract address', called from constructor\n   * @param vestingTimelockAddress: Vesting timelock contract address\n   *\n   * Emits a {SetVestingTimelockContract} event with '_contract' set to the VestingTimelockcontract address.\n   */\n  function setVestingTimelockContract(address vestingTimelockAddress)\n    public\n    virtual\n    override\n  {\n    require(hasRole(DEFAULT_ADMIN_ROLE, _msgSender()), \"PS6\");\n    _vestingTimelockAddress = vestingTimelockAddress;\n    emit SetVestingTimelockContract(vestingTimelockAddress);\n  }\n\n  /**\n   * @dev Triggers stopped state.\n   *\n   * Requirements:\n   *\n   * - The contract must not be paused.\n   */\n  function pause() public virtual override returns (bool success) {\n    require(hasRole(PAUSER_ROLE, _msgSender()), \"PS3\");\n    _pause();\n    return true;\n  }\n\n  /**\n   * @dev Returns to normal state.\n   *\n   * Requirements:\n   *\n   * - The contract must be paused.\n   */\n  function unpause() public virtual override returns (bool success) {\n    require(hasRole(PAUSER_ROLE, _msgSender()), \"PS4\");\n    _unpause();\n    return true;\n  }\n\n  /**\n   * @dev Hook that is called before any transfer of tokens. This includes\n   * minting and burning.\n   *\n   * Calling conditions:\n   *\n   * - when `from` and `to` are both non-zero, `amount` of ``from``'s tokens\n   * will be to transferred to `to`.\n   * - when `from` is zero, `amount` tokens will be minted for `to`.\n   * - when `to` is zero, `amount` of ``from``'s tokens will be burned.\n   * - `from` and `to` are never both zero.\n   *\n   */\n  function _beforeTokenTransfer(\n    address from,\n    address to,\n    uint256 amount\n  ) internal virtual override {\n    require(!paused(), \"PS5\");\n    super._beforeTokenTransfer(from, to, amount);\n  }\n}\n",
  "sourcePath": "/home/aditimahesh/Documents/Work/Persistence/go/src/github.com/persistenceOne/ERC20/contracts/PSTAKE.sol",
  "compiler": {
    "name": "solc",
    "version": "0.7.6+commit.7338295f.Emscripten.clang"
  },
  "schemaVersion": "3.4.3",
  "updatedAt": "2021-11-15T10:57:13.074Z",
  "devdoc": {
    "kind": "dev",
    "methods": {
      "allowance(address,address)": {
        "details": "See {IERC20-allowance}."
      },
      "approve(address,uint256)": {
        "details": "See {IERC20-approve}. Requirements: - `spender` cannot be the zero address."
      },
      "balanceOf(address)": {
        "details": "See {IERC20-balanceOf}."
      },
      "decimals()": {
        "details": "Returns the number of decimals used to get its user representation. For example, if `decimals` equals `2`, a balance of `505` tokens should be displayed to a user as `5,05` (`505 / 10 ** 2`). Tokens usually opt for a value of 18, imitating the relationship between Ether and Wei. This is the value {ERC20} uses, unless {_setupDecimals} is called. NOTE: This information is only used for _display_ purposes: it in no way affects any of the arithmetic of the contract, including {IERC20-balanceOf} and {IERC20-transfer}."
      },
      "decreaseAllowance(address,uint256)": {
        "details": "Atomically decreases the allowance granted to `spender` by the caller. This is an alternative to {approve} that can be used as a mitigation for problems described in {IERC20-approve}. Emits an {Approval} event indicating the updated allowance. Requirements: - `spender` cannot be the zero address. - `spender` must have allowance for the caller of at least `subtractedValue`."
      },
      "getRoleAdmin(bytes32)": {
        "details": "Returns the admin role that controls `role`. See {grantRole} and {revokeRole}. To change a role's admin, use {_setRoleAdmin}."
      },
      "getRoleMember(bytes32,uint256)": {
        "details": "Returns one of the accounts that have `role`. `index` must be a value between 0 and {getRoleMemberCount}, non-inclusive. Role bearers are not sorted in any particular way, and their ordering may change at any point. WARNING: When using {getRoleMember} and {getRoleMemberCount}, make sure you perform all queries on the same block. See the following https://forum.openzeppelin.com/t/iterating-over-elements-on-enumerableset-in-openzeppelin-contracts/2296[forum post] for more information."
      },
      "getRoleMemberCount(bytes32)": {
        "details": "Returns the number of accounts that have `role`. Can be used together with {getRoleMember} to enumerate all bearers of a role."
      },
      "grantRole(bytes32,address)": {
        "details": "Grants `role` to `account`. If `account` had not been already granted `role`, emits a {RoleGranted} event. Requirements: - the caller must have ``role``'s admin role."
      },
      "hasRole(bytes32,address)": {
        "details": "Returns `true` if `account` has been granted `role`."
      },
      "increaseAllowance(address,uint256)": {
        "details": "Atomically increases the allowance granted to `spender` by the caller. This is an alternative to {approve} that can be used as a mitigation for problems described in {IERC20-approve}. Emits an {Approval} event indicating the updated allowance. Requirements: - `spender` cannot be the zero address."
      },
      "initialize(address,address,address,address,address,address,address,address,address,address,address,address,address)": {
        "details": "Constructor for initializing the PSTAKE contract.",
        "params": {
          "airdropPool": "- address of the airdrop pool.",
          "alphaLaunchpadPool": "- address of the alpha launchpad pool.",
          "communityDevelopmentFundPool": "- address of the community development fund pool.",
          "incentivisationPool": "- address of the incentivising pool.",
          "protocolTreasuryPool": "- address of the protocol treasury pool.",
          "publicSalePool1": "- address of the public sale pool1.",
          "publicSalePool2": "- address of the public sale pool2.",
          "publicSalePool3": "- address of the public sale pool3.",
          "retroactiveRewardProtocolBootstrapPool": "- address of the retroactive reward protocol bootstrap pool.",
          "seedSalePool": "- address of the seed sale pool.",
          "teamPool": "- address of the team pool.",
          "vestingTimelockAddress": "- address of the vesting timelock contract.",
          "xprtStakersPool": "- address of the xprt stakers pool."
        }
      },
      "mint(address,uint256)": {
        "details": "Mint new PSTAKE for the provided 'address' and 'amount' Emits a {MintTokens} event with 'to' set to address and 'tokens' set to amount of tokens. Requirements: - `amount` cannot be less than zero."
      },
      "name()": {
        "details": "Returns the name of the token."
      },
      "pause()": {
        "details": "Triggers stopped state. Requirements: - The contract must not be paused."
      },
      "paused()": {
        "details": "Returns true if the contract is paused, and false otherwise."
      },
      "renounceRole(bytes32,address)": {
        "details": "Revokes `role` from the calling account. Roles are often managed via {grantRole} and {revokeRole}: this function's purpose is to provide a mechanism for accounts to lose their privileges if they are compromised (such as when a trusted device is misplaced). If the calling account had been granted `role`, emits a {RoleRevoked} event. Requirements: - the caller must be `account`."
      },
      "revokeRole(bytes32,address)": {
        "details": "Revokes `role` from `account`. If `account` had been granted `role`, emits a {RoleRevoked} event. Requirements: - the caller must have ``role``'s admin role."
      },
      "setInflation(uint256,uint256)": {
        "details": "Set inflation",
        "params": {
          "inflationRate": ": inflation rate."
        }
      },
      "setSupplyMaxLimit(uint256)": {
        "details": "Set supply max limit of the inflation component",
        "params": {
          "supplyMaxLimit": ": supply max limit value"
        }
      },
      "setVestingTimelockContract(address)": {
        "details": "Set 'contract address', called from constructor",
        "params": {
          "vestingTimelockAddress": ": Vesting timelock contract address Emits a {SetVestingTimelockContract} event with '_contract' set to the VestingTimelockcontract address."
        }
      },
      "symbol()": {
        "details": "Returns the symbol of the token, usually a shorter version of the name."
      },
      "totalSupply()": {
        "details": "See {IERC20-totalSupply}."
      },
      "transfer(address,uint256)": {
        "details": "See {IERC20-transfer}. Requirements: - `recipient` cannot be the zero address. - the caller must have a balance of at least `amount`."
      },
      "transferFrom(address,address,uint256)": {
        "details": "See {IERC20-transferFrom}. Emits an {Approval} event indicating the updated allowance. This is not required by the EIP. See the note at the beginning of {ERC20}. Requirements: - `sender` and `recipient` cannot be the zero address. - `sender` must have a balance of at least `amount`. - the caller must have allowance for ``sender``'s tokens of at least `amount`."
      },
      "unpause()": {
        "details": "Returns to normal state. Requirements: - The contract must be paused."
      }
    },
    "version": 1
  },
  "userdoc": {
    "kind": "user",
    "methods": {},
    "version": 1
  }
}