{
  "contractName": "PSTAKE",
  "abi": [
    {
      "anonymous": false,
      "inputs": [
        {
          "indexed": true,
          "internalType": "address",
          "name": "owner",
          "type": "address"
        },
        {
          "indexed": true,
          "internalType": "address",
          "name": "spender",
          "type": "address"
        },
        {
          "indexed": false,
          "internalType": "uint256",
          "name": "value",
          "type": "uint256"
        }
      ],
      "name": "Approval",
      "type": "event"
    },
    {
      "anonymous": false,
      "inputs": [
        {
          "indexed": false,
          "internalType": "uint256",
          "name": "lastInflationBlockTime",
          "type": "uint256"
        },
        {
          "indexed": false,
          "internalType": "uint256",
          "name": "inflationAdded",
          "type": "uint256"
        },
        {
          "indexed": false,
          "internalType": "uint256",
          "name": "timestamp",
          "type": "uint256"
        }
      ],
      "name": "CheckInflation",
      "type": "event"
    },
    {
      "anonymous": false,
      "inputs": [
        {
          "indexed": false,
          "internalType": "address",
          "name": "account",
          "type": "address"
        }
      ],
      "name": "Paused",
      "type": "event"
    },
    {
      "anonymous": false,
      "inputs": [
        {
          "indexed": true,
          "internalType": "bytes32",
          "name": "role",
          "type": "bytes32"
        },
        {
          "indexed": true,
          "internalType": "bytes32",
          "name": "previousAdminRole",
          "type": "bytes32"
        },
        {
          "indexed": true,
          "internalType": "bytes32",
          "name": "newAdminRole",
          "type": "bytes32"
        }
      ],
      "name": "RoleAdminChanged",
      "type": "event"
    },
    {
      "anonymous": false,
      "inputs": [
        {
          "indexed": true,
          "internalType": "bytes32",
          "name": "role",
          "type": "bytes32"
        },
        {
          "indexed": true,
          "internalType": "address",
          "name": "account",
          "type": "address"
        },
        {
          "indexed": true,
          "internalType": "address",
          "name": "sender",
          "type": "address"
        }
      ],
      "name": "RoleGranted",
      "type": "event"
    },
    {
      "anonymous": false,
      "inputs": [
        {
          "indexed": true,
          "internalType": "bytes32",
          "name": "role",
          "type": "bytes32"
        },
        {
          "indexed": true,
          "internalType": "address",
          "name": "account",
          "type": "address"
        },
        {
          "indexed": true,
          "internalType": "address",
          "name": "sender",
          "type": "address"
        }
      ],
      "name": "RoleRevoked",
      "type": "event"
    },
    {
      "anonymous": false,
      "inputs": [
        {
          "indexed": false,
          "internalType": "address",
          "name": "accountAddress",
          "type": "address"
        },
        {
          "indexed": false,
          "internalType": "uint256",
          "name": "inflationRate",
          "type": "uint256"
        },
        {
          "indexed": false,
          "internalType": "uint256",
          "name": "inflationPeriod",
          "type": "uint256"
        }
      ],
      "name": "SetInflationRate",
      "type": "event"
    },
    {
      "anonymous": false,
      "inputs": [
        {
          "indexed": false,
          "internalType": "address",
          "name": "accountAddress",
          "type": "address"
        },
        {
          "indexed": false,
          "internalType": "uint256",
          "name": "supplyMaxLimit",
          "type": "uint256"
        }
      ],
      "name": "SetSupplyMaxLimit",
      "type": "event"
    },
    {
      "anonymous": false,
      "inputs": [
        {
          "indexed": false,
          "internalType": "address",
          "name": "vestingTimelockAddress",
          "type": "address"
        }
      ],
      "name": "SetVestingTimelockContract",
      "type": "event"
    },
    {
      "anonymous": false,
      "inputs": [
        {
          "indexed": true,
          "internalType": "address",
          "name": "from",
          "type": "address"
        },
        {
          "indexed": true,
          "internalType": "address",
          "name": "to",
          "type": "address"
        },
        {
          "indexed": false,
          "internalType": "uint256",
          "name": "value",
          "type": "uint256"
        }
      ],
      "name": "Transfer",
      "type": "event"
    },
    {
      "anonymous": false,
      "inputs": [
        {
          "indexed": false,
          "internalType": "address",
          "name": "account",
          "type": "address"
        }
      ],
      "name": "Unpaused",
      "type": "event"
    },
    {
      "inputs": [],
      "name": "AIRDROPPOOLALLOCATION",
      "outputs": [
        {
          "internalType": "uint256",
          "name": "",
          "type": "uint256"
        }
      ],
      "stateMutability": "view",
      "type": "function",
      "constant": true
    },
    {
      "inputs": [],
      "name": "ALPHALAUNCHPADPOOLALLOCATION",
      "outputs": [
        {
          "internalType": "uint256",
          "name": "",
          "type": "uint256"
        }
      ],
      "stateMutability": "view",
      "type": "function",
      "constant": true
    },
    {
      "inputs": [],
      "name": "COMMUNITYDEVELOPMENTFUNDPOOLALLOCATION",
      "outputs": [
        {
          "internalType": "uint256",
          "name": "",
          "type": "uint256"
        }
      ],
      "stateMutability": "view",
      "type": "function",
      "constant": true
    },
    {
      "inputs": [],
      "name": "DEFAULT_ADMIN_ROLE",
      "outputs": [
        {
          "internalType": "bytes32",
          "name": "",
          "type": "bytes32"
        }
      ],
      "stateMutability": "view",
      "type": "function",
      "constant": true
    },
    {
      "inputs": [],
      "name": "INCENTIVISATIONPOOLALLOCATION",
      "outputs": [
        {
          "internalType": "uint256",
          "name": "",
          "type": "uint256"
        }
      ],
      "stateMutability": "view",
      "type": "function",
      "constant": true
    },
    {
      "inputs": [],
      "name": "INFLATION_PERIOD",
      "outputs": [
        {
          "internalType": "uint256",
          "name": "",
          "type": "uint256"
        }
      ],
      "stateMutability": "view",
      "type": "function",
      "constant": true
    },
    {
      "inputs": [],
      "name": "INFLATION_RATE",
      "outputs": [
        {
          "internalType": "uint256",
          "name": "",
          "type": "uint256"
        }
      ],
      "stateMutability": "view",
      "type": "function",
      "constant": true
    },
    {
      "inputs": [],
      "name": "MINTER_ROLE",
      "outputs": [
        {
          "internalType": "bytes32",
          "name": "",
          "type": "bytes32"
        }
      ],
      "stateMutability": "view",
      "type": "function",
      "constant": true
    },
    {
      "inputs": [],
      "name": "PAUSER_ROLE",
      "outputs": [
        {
          "internalType": "bytes32",
          "name": "",
          "type": "bytes32"
        }
      ],
      "stateMutability": "view",
      "type": "function",
      "constant": true
    },
    {
      "inputs": [],
      "name": "PROTOCOLTREASURYPOOLALLOCATION",
      "outputs": [
        {
          "internalType": "uint256",
          "name": "",
          "type": "uint256"
        }
      ],
      "stateMutability": "view",
      "type": "function",
      "constant": true
    },
    {
      "inputs": [],
      "name": "RETROACTIVEREWARDPROTOCOLBOOTSTRAPPOOLALLOCATION",
      "outputs": [
        {
          "internalType": "uint256",
          "name": "",
          "type": "uint256"
        }
      ],
      "stateMutability": "view",
      "type": "function",
      "constant": true
    },
    {
      "inputs": [],
      "name": "SUPPLY_AT_GENESIS",
      "outputs": [
        {
          "internalType": "uint256",
          "name": "",
          "type": "uint256"
        }
      ],
      "stateMutability": "view",
      "type": "function",
      "constant": true
    },
    {
      "inputs": [],
      "name": "SUPPLY_MAX_LIMIT",
      "outputs": [
        {
          "internalType": "uint256",
          "name": "",
          "type": "uint256"
        }
      ],
      "stateMutability": "view",
      "type": "function",
      "constant": true
    },
    {
      "inputs": [],
      "name": "TOTAL_VESTED_SUPPLY",
      "outputs": [
        {
          "internalType": "uint256",
          "name": "",
          "type": "uint256"
        }
      ],
      "stateMutability": "view",
      "type": "function",
      "constant": true
    },
    {
      "inputs": [],
      "name": "VALUE_DIVISOR",
      "outputs": [
        {
          "internalType": "uint256",
          "name": "",
          "type": "uint256"
        }
      ],
      "stateMutability": "view",
      "type": "function",
      "constant": true
    },
    {
      "inputs": [],
      "name": "XPRTSTAKERSPOOLALLOCATION",
      "outputs": [
        {
          "internalType": "uint256",
          "name": "",
          "type": "uint256"
        }
      ],
      "stateMutability": "view",
      "type": "function",
      "constant": true
    },
    {
      "inputs": [],
      "name": "_airdropPool",
      "outputs": [
        {
          "internalType": "address",
          "name": "",
          "type": "address"
        }
      ],
      "stateMutability": "view",
      "type": "function",
      "constant": true
    },
    {
      "inputs": [],
      "name": "_alphaLaunchpadPool",
      "outputs": [
        {
          "internalType": "address",
          "name": "",
          "type": "address"
        }
      ],
      "stateMutability": "view",
      "type": "function",
      "constant": true
    },
    {
      "inputs": [],
      "name": "_communityDevelopmentFundPool",
      "outputs": [
        {
          "internalType": "address",
          "name": "",
          "type": "address"
        }
      ],
      "stateMutability": "view",
      "type": "function",
      "constant": true
    },
    {
      "inputs": [],
      "name": "_incentivisationPool",
      "outputs": [
        {
          "internalType": "address",
          "name": "",
          "type": "address"
        }
      ],
      "stateMutability": "view",
      "type": "function",
      "constant": true
    },
    {
      "inputs": [],
      "name": "_inflationPeriod",
      "outputs": [
        {
          "internalType": "uint256",
          "name": "",
          "type": "uint256"
        }
      ],
      "stateMutability": "view",
      "type": "function",
      "constant": true
    },
    {
      "inputs": [],
      "name": "_inflationRate",
      "outputs": [
        {
          "internalType": "uint256",
          "name": "",
          "type": "uint256"
        }
      ],
      "stateMutability": "view",
      "type": "function",
      "constant": true
    },
    {
      "inputs": [],
      "name": "_lastInflationBlockTime",
      "outputs": [
        {
          "internalType": "uint256",
          "name": "",
          "type": "uint256"
        }
      ],
      "stateMutability": "view",
      "type": "function",
      "constant": true
    },
    {
      "inputs": [],
      "name": "_protocolTreasuryPool",
      "outputs": [
        {
          "internalType": "address",
          "name": "",
          "type": "address"
        }
      ],
      "stateMutability": "view",
      "type": "function",
      "constant": true
    },
    {
      "inputs": [],
      "name": "_publicSalePool1",
      "outputs": [
        {
          "internalType": "address",
          "name": "",
          "type": "address"
        }
      ],
      "stateMutability": "view",
      "type": "function",
      "constant": true
    },
    {
      "inputs": [],
      "name": "_publicSalePool2",
      "outputs": [
        {
          "internalType": "address",
          "name": "",
          "type": "address"
        }
      ],
      "stateMutability": "view",
      "type": "function",
      "constant": true
    },
    {
      "inputs": [],
      "name": "_publicSalePool3",
      "outputs": [
        {
          "internalType": "address",
          "name": "",
          "type": "address"
        }
      ],
      "stateMutability": "view",
      "type": "function",
      "constant": true
    },
    {
      "inputs": [],
      "name": "_retroactiveRewardProtocolBootstrapPool",
      "outputs": [
        {
          "internalType": "address",
          "name": "",
          "type": "address"
        }
      ],
      "stateMutability": "view",
      "type": "function",
      "constant": true
    },
    {
      "inputs": [],
      "name": "_seedSalePool",
      "outputs": [
        {
          "internalType": "address",
          "name": "",
          "type": "address"
        }
      ],
      "stateMutability": "view",
      "type": "function",
      "constant": true
    },
    {
      "inputs": [],
      "name": "_supplyMaxLimit",
      "outputs": [
        {
          "internalType": "uint256",
          "name": "",
          "type": "uint256"
        }
      ],
      "stateMutability": "view",
      "type": "function",
      "constant": true
    },
    {
      "inputs": [],
      "name": "_teamPool",
      "outputs": [
        {
          "internalType": "address",
          "name": "",
          "type": "address"
        }
      ],
      "stateMutability": "view",
      "type": "function",
      "constant": true
    },
    {
      "inputs": [],
      "name": "_totalInflatedSupply",
      "outputs": [
        {
          "internalType": "uint256",
          "name": "",
          "type": "uint256"
        }
      ],
      "stateMutability": "view",
      "type": "function",
      "constant": true
    },
    {
      "inputs": [],
      "name": "_valueDivisor",
      "outputs": [
        {
          "internalType": "uint256",
          "name": "",
          "type": "uint256"
        }
      ],
      "stateMutability": "view",
      "type": "function",
      "constant": true
    },
    {
      "inputs": [],
      "name": "_version",
      "outputs": [
        {
          "internalType": "uint256",
          "name": "",
          "type": "uint256"
        }
      ],
      "stateMutability": "view",
      "type": "function",
      "constant": true
    },
    {
      "inputs": [],
      "name": "_vestingTimelockAddress",
      "outputs": [
        {
          "internalType": "address",
          "name": "",
          "type": "address"
        }
      ],
      "stateMutability": "view",
      "type": "function",
      "constant": true
    },
    {
      "inputs": [],
      "name": "_xprtStakersPool",
      "outputs": [
        {
          "internalType": "address",
          "name": "",
          "type": "address"
        }
      ],
      "stateMutability": "view",
      "type": "function",
      "constant": true
    },
    {
      "inputs": [
        {
          "internalType": "address",
          "name": "owner",
          "type": "address"
        },
        {
          "internalType": "address",
          "name": "spender",
          "type": "address"
        }
      ],
      "name": "allowance",
      "outputs": [
        {
          "internalType": "uint256",
          "name": "",
          "type": "uint256"
        }
      ],
      "stateMutability": "view",
      "type": "function",
      "constant": true
    },
    {
      "inputs": [
        {
          "internalType": "address",
          "name": "spender",
          "type": "address"
        },
        {
          "internalType": "uint256",
          "name": "amount",
          "type": "uint256"
        }
      ],
      "name": "approve",
      "outputs": [
        {
          "internalType": "bool",
          "name": "",
          "type": "bool"
        }
      ],
      "stateMutability": "nonpayable",
      "type": "function"
    },
    {
      "inputs": [
        {
          "internalType": "address",
          "name": "account",
          "type": "address"
        }
      ],
      "name": "balanceOf",
      "outputs": [
        {
          "internalType": "uint256",
          "name": "",
          "type": "uint256"
        }
      ],
      "stateMutability": "view",
      "type": "function",
      "constant": true
    },
    {
      "inputs": [],
      "name": "decimals",
      "outputs": [
        {
          "internalType": "uint8",
          "name": "",
          "type": "uint8"
        }
      ],
      "stateMutability": "view",
      "type": "function",
      "constant": true
    },
    {
      "inputs": [
        {
          "internalType": "address",
          "name": "spender",
          "type": "address"
        },
        {
          "internalType": "uint256",
          "name": "subtractedValue",
          "type": "uint256"
        }
      ],
      "name": "decreaseAllowance",
      "outputs": [
        {
          "internalType": "bool",
          "name": "",
          "type": "bool"
        }
      ],
      "stateMutability": "nonpayable",
      "type": "function"
    },
    {
      "inputs": [
        {
          "internalType": "bytes32",
          "name": "role",
          "type": "bytes32"
        }
      ],
      "name": "getRoleAdmin",
      "outputs": [
        {
          "internalType": "bytes32",
          "name": "",
          "type": "bytes32"
        }
      ],
      "stateMutability": "view",
      "type": "function",
      "constant": true
    },
    {
      "inputs": [
        {
          "internalType": "bytes32",
          "name": "role",
          "type": "bytes32"
        },
        {
          "internalType": "uint256",
          "name": "index",
          "type": "uint256"
        }
      ],
      "name": "getRoleMember",
      "outputs": [
        {
          "internalType": "address",
          "name": "",
          "type": "address"
        }
      ],
      "stateMutability": "view",
      "type": "function",
      "constant": true
    },
    {
      "inputs": [
        {
          "internalType": "bytes32",
          "name": "role",
          "type": "bytes32"
        }
      ],
      "name": "getRoleMemberCount",
      "outputs": [
        {
          "internalType": "uint256",
          "name": "",
          "type": "uint256"
        }
      ],
      "stateMutability": "view",
      "type": "function",
      "constant": true
    },
    {
      "inputs": [
        {
          "internalType": "bytes32",
          "name": "role",
          "type": "bytes32"
        },
        {
          "internalType": "address",
          "name": "account",
          "type": "address"
        }
      ],
      "name": "grantRole",
      "outputs": [],
      "stateMutability": "nonpayable",
      "type": "function"
    },
    {
      "inputs": [
        {
          "internalType": "bytes32",
          "name": "role",
          "type": "bytes32"
        },
        {
          "internalType": "address",
          "name": "account",
          "type": "address"
        }
      ],
      "name": "hasRole",
      "outputs": [
        {
          "internalType": "bool",
          "name": "",
          "type": "bool"
        }
      ],
      "stateMutability": "view",
      "type": "function",
      "constant": true
    },
    {
      "inputs": [
        {
          "internalType": "address",
          "name": "spender",
          "type": "address"
        },
        {
          "internalType": "uint256",
          "name": "addedValue",
          "type": "uint256"
        }
      ],
      "name": "increaseAllowance",
      "outputs": [
        {
          "internalType": "bool",
          "name": "",
          "type": "bool"
        }
      ],
      "stateMutability": "nonpayable",
      "type": "function"
    },
    {
      "inputs": [],
      "name": "name",
      "outputs": [
        {
          "internalType": "string",
          "name": "",
          "type": "string"
        }
      ],
      "stateMutability": "view",
      "type": "function",
      "constant": true
    },
    {
      "inputs": [],
      "name": "paused",
      "outputs": [
        {
          "internalType": "bool",
          "name": "",
          "type": "bool"
        }
      ],
      "stateMutability": "view",
      "type": "function",
      "constant": true
    },
    {
      "inputs": [
        {
          "internalType": "bytes32",
          "name": "role",
          "type": "bytes32"
        },
        {
          "internalType": "address",
          "name": "account",
          "type": "address"
        }
      ],
      "name": "renounceRole",
      "outputs": [],
      "stateMutability": "nonpayable",
      "type": "function"
    },
    {
      "inputs": [
        {
          "internalType": "bytes32",
          "name": "role",
          "type": "bytes32"
        },
        {
          "internalType": "address",
          "name": "account",
          "type": "address"
        }
      ],
      "name": "revokeRole",
      "outputs": [],
      "stateMutability": "nonpayable",
      "type": "function"
    },
    {
      "inputs": [],
      "name": "symbol",
      "outputs": [
        {
          "internalType": "string",
          "name": "",
          "type": "string"
        }
      ],
      "stateMutability": "view",
      "type": "function",
      "constant": true
    },
    {
      "inputs": [],
      "name": "totalSupply",
      "outputs": [
        {
          "internalType": "uint256",
          "name": "",
          "type": "uint256"
        }
      ],
      "stateMutability": "view",
      "type": "function",
      "constant": true
    },
    {
      "inputs": [
        {
          "internalType": "address",
          "name": "recipient",
          "type": "address"
        },
        {
          "internalType": "uint256",
          "name": "amount",
          "type": "uint256"
        }
      ],
      "name": "transfer",
      "outputs": [
        {
          "internalType": "bool",
          "name": "",
          "type": "bool"
        }
      ],
      "stateMutability": "nonpayable",
      "type": "function"
    },
    {
      "inputs": [
        {
          "internalType": "address",
          "name": "sender",
          "type": "address"
        },
        {
          "internalType": "address",
          "name": "recipient",
          "type": "address"
        },
        {
          "internalType": "uint256",
          "name": "amount",
          "type": "uint256"
        }
      ],
      "name": "transferFrom",
      "outputs": [
        {
          "internalType": "bool",
          "name": "",
          "type": "bool"
        }
      ],
      "stateMutability": "nonpayable",
      "type": "function"
    },
    {
      "inputs": [
        {
          "internalType": "address",
          "name": "vestingTimelockAddress",
          "type": "address"
        },
        {
          "internalType": "address",
          "name": "airdropPool",
          "type": "address"
        },
        {
          "internalType": "address",
          "name": "alphaLaunchpadPool",
          "type": "address"
        },
        {
          "internalType": "address",
          "name": "seedSalePool",
          "type": "address"
        },
        {
          "internalType": "address",
          "name": "publicSalePool1",
          "type": "address"
        },
        {
          "internalType": "address",
          "name": "publicSalePool2",
          "type": "address"
        },
        {
          "internalType": "address",
          "name": "publicSalePool3",
          "type": "address"
        },
        {
          "internalType": "address",
          "name": "teamPool",
          "type": "address"
        },
        {
          "internalType": "address",
          "name": "incentivisationPool",
          "type": "address"
        },
        {
          "internalType": "address",
          "name": "xprtStakersPool",
          "type": "address"
        },
        {
          "internalType": "address",
          "name": "protocolTreasuryPool",
          "type": "address"
        },
        {
          "internalType": "address",
          "name": "communityDevelopmentFundPool",
          "type": "address"
        },
        {
          "internalType": "address",
          "name": "retroactiveRewardProtocolBootstrapPool",
          "type": "address"
        }
      ],
      "name": "initialize",
      "outputs": [],
      "stateMutability": "nonpayable",
      "type": "function"
    },
    {
      "inputs": [],
      "name": "checkInflation",
      "outputs": [
        {
          "internalType": "uint256",
          "name": "totalInflatedSupply",
          "type": "uint256"
        },
        {
          "internalType": "uint256",
          "name": "lastInflationBlockTime",
          "type": "uint256"
        }
      ],
      "stateMutability": "nonpayable",
      "type": "function"
    },
    {
      "inputs": [],
      "name": "getInflation",
      "outputs": [
        {
          "internalType": "uint256",
          "name": "totalInflatedSupply",
          "type": "uint256"
        },
        {
          "internalType": "uint256",
          "name": "inflationRate",
          "type": "uint256"
        },
        {
          "internalType": "uint256",
          "name": "valueDivisor",
          "type": "uint256"
        },
        {
          "internalType": "uint256",
          "name": "inflationPeriod",
          "type": "uint256"
        },
        {
          "internalType": "uint256",
          "name": "lastInflationBlockTime",
          "type": "uint256"
        },
        {
          "internalType": "uint256",
          "name": "supplyMaxLimit",
          "type": "uint256"
        }
      ],
      "stateMutability": "view",
      "type": "function",
      "constant": true
    },
    {
      "inputs": [
        {
          "internalType": "uint256",
          "name": "inflationRate",
          "type": "uint256"
        },
        {
          "internalType": "uint256",
          "name": "inflationPeriod",
          "type": "uint256"
        }
      ],
      "name": "setInflation",
      "outputs": [
        {
          "internalType": "bool",
          "name": "success",
          "type": "bool"
        }
      ],
      "stateMutability": "nonpayable",
      "type": "function"
    },
    {
      "inputs": [
        {
          "internalType": "uint256",
          "name": "supplyMaxLimit",
          "type": "uint256"
        }
      ],
      "name": "setSupplyMaxLimit",
      "outputs": [
        {
          "internalType": "bool",
          "name": "success",
          "type": "bool"
        }
      ],
      "stateMutability": "nonpayable",
      "type": "function"
    },
    {
      "inputs": [
        {
          "internalType": "address",
          "name": "to",
          "type": "address"
        },
        {
          "internalType": "uint256",
          "name": "tokens",
          "type": "uint256"
        }
      ],
      "name": "mint",
      "outputs": [
        {
          "internalType": "bool",
          "name": "success",
          "type": "bool"
        }
      ],
      "stateMutability": "nonpayable",
      "type": "function"
    },
    {
      "inputs": [
        {
          "internalType": "address",
          "name": "vestingTimelockAddress",
          "type": "address"
        }
      ],
      "name": "setVestingTimelockContract",
      "outputs": [],
      "stateMutability": "nonpayable",
      "type": "function"
    },
    {
      "inputs": [
        {
          "internalType": "address",
          "name": "beneficiary",
          "type": "address"
        },
        {
          "internalType": "uint256",
          "name": "startTime",
          "type": "uint256"
        },
        {
          "internalType": "uint256",
          "name": "cliffPeriod",
          "type": "uint256"
        },
        {
          "internalType": "uint256",
          "name": "instalmentAmount",
          "type": "uint256"
        },
        {
          "internalType": "uint256",
          "name": "instalmentCount",
          "type": "uint256"
        },
        {
          "internalType": "uint256",
          "name": "instalmentPeriod",
          "type": "uint256"
        }
      ],
      "name": "addVesting",
      "outputs": [
        {
          "internalType": "uint256",
          "name": "totalVestingAmount",
          "type": "uint256"
        }
      ],
      "stateMutability": "nonpayable",
      "type": "function"
    },
    {
      "inputs": [],
      "name": "pause",
      "outputs": [
        {
          "internalType": "bool",
          "name": "success",
          "type": "bool"
        }
      ],
      "stateMutability": "nonpayable",
      "type": "function"
    },
    {
      "inputs": [],
      "name": "unpause",
      "outputs": [
        {
          "internalType": "bool",
          "name": "success",
          "type": "bool"
        }
      ],
      "stateMutability": "nonpayable",
      "type": "function"
    }
  ],
  "bytecode": "0x608060405234801561001057600080fd5b50612f48806100206000396000f3fe608060405234801561001057600080fd5b50600436106103db5760003560e01c80638321296d1161020a578063c32ab7f711610125578063d547741f116100b8578063e2f97bb011610087578063e2f97bb0146109e6578063e63ab1e9146109ee578063e6f0dfdf146109f6578063ef22082c146109fe578063f2e7ccc914610a06576103db565b8063d547741f14610949578063d5a9577114610975578063dd62ed3e146109b0578063e1e2e3bf146109de576103db565b8063cb31a85f116100f4578063cb31a85f14610929578063cdc6c53714610931578063d182a8c914610939578063d539139314610941576103db565b8063c32ab7f7146108f4578063c947755a146108fc578063c94d747b14610904578063ca15c8731461090c576103db565b8063a457c2d71161019d578063b381a8111161016c578063b381a811146108d4578063b4029d5e146108dc578063b999f6d0146108e4578063b9c266ba146108ec576103db565b8063a457c2d71461086c578063a55ba9d414610898578063a60d5e2d146108a0578063a9059cbb146108a8576103db565b806391d14854116101d957806391d148541461082857806395d89b411461085457806398e8fd021461085c578063a217fddf14610864576103db565b80638321296d146107d85780638456cb59146107f55780638969873f146107fd5780639010d07c14610805576103db565b80633f4ba83a116102fa5780635d2ae67b1161028d578063710679631161025c57806371067963146107b8578063728a99ee146107c05780637744e3c7146107c85780637b17361c146107d0576103db565b80635d2ae67b146107615780635e07970b146107695780636789dafd1461077157806370a0823114610792576103db565b80634ad3087c116102c95780634ad3087c146107055780634b5c79ad1461070d5780635b0d59e6146107155780635c975abb14610759576103db565b80633f4ba83a146106a657806340c10f19146106ae578063453c69cb146106da578063499f002c146106fd576103db565b80632cc39ff51161037257806336568abe1161034157806336568abe1461063e578063395093511461066a5780633aed93b6146106965780633e118dbe1461069e576103db565b80632cc39ff51461055e5780632f2ff15d146105665780632fdd983d14610592578063313ce56714610620576103db565b806318160ddd116103ae57806318160ddd146104db57806320dd4868146104e357806323b872dd1461050b578063248a9ca314610541576103db565b806306fdde03146103e0578063095ea7b31461045d5780630cf79b2a1461049d5780630e054f02146104b7575b600080fd5b6103e8610a0e565b6040805160208082528351818301528351919283929083019185019080838360005b8381101561042257818101518382015260200161040a565b50505050905090810190601f16801561044f5780820380516001836020036101000a031916815260200191505b509250505060405180910390f35b6104896004803603604081101561047357600080fd5b506001600160a01b038135169060200135610aa4565b604080519115158252519081900360200190f35b6104a5610ac2565b60408051918252519081900360200190f35b6104bf610ad1565b604080516001600160a01b039092168252519081900360200190f35b6104a5610ae0565b610509600480360360208110156104f957600080fd5b50356001600160a01b0316610ae6565b005b6104896004803603606081101561052157600080fd5b506001600160a01b03813581169160208101359091169060400135610bc8565b6104a56004803603602081101561055757600080fd5b5035610c50565b6104bf610c65565b6105096004803603604081101561057c57600080fd5b50803590602001356001600160a01b0316610c75565b61050960048036036101a08110156105a957600080fd5b506001600160a01b038135811691602081013582169160408201358116916060810135821691608082013581169160a081013582169160c082013581169160e08101358216916101008201358116916101208101358216916101408201358116916101608101358216916101809091013516610cdc565b610628611181565b6040805160ff9092168252519081900360200190f35b6105096004803603604081101561065457600080fd5b50803590602001356001600160a01b031661118a565b6104896004803603604081101561068057600080fd5b506001600160a01b0381351690602001356111eb565b6104a5611239565b6104a5611249565b61048961124f565b610489600480360360408110156106c457600080fd5b506001600160a01b0381351690602001356112b3565b610489600480360360408110156106f057600080fd5b508035906020013561137b565b6104a56114fa565b6104a5611501565b6104bf611510565b6104a5600480360360c081101561072b57600080fd5b506001600160a01b038135169060208101359060408101359060608101359060808101359060a0013561151f565b6104896116be565b6104a56116c7565b6104bf6116d6565b6107796116e6565b6040805192835260208301919091528051918290030190f35b6104a5600480360360208110156107a857600080fd5b50356001600160a01b031661173d565b6104bf611758565b6104a5611768565b6104a561176e565b6104a5611775565b610489600480360360208110156107ee57600080fd5b503561177d565b610489611876565b6104a56118d4565b6104bf6004803603604081101561081b57600080fd5b50803590602001356118e3565b6104896004803603604081101561083e57600080fd5b50803590602001356001600160a01b03166118fb565b6103e8611913565b6104bf611974565b6104a5611984565b6104896004803603604081101561088257600080fd5b506001600160a01b038135169060200135611989565b6104a56119f1565b6104a5611a01565b610489600480360360408110156108be57600080fd5b506001600160a01b038135169060200135611a08565b6104a5611a1c565b6104bf611a25565b6104bf611a35565b6104bf611a45565b6104bf611a55565b6104a5611a65565b6104a5611a6d565b6104a56004803603602081101561092257600080fd5b5035611a7c565b6104bf611a93565b6104a5611aa3565b6104a5611ab2565b6104a5611ac2565b6105096004803603604081101561095f57600080fd5b50803590602001356001600160a01b0316611ae6565b61097d611b3f565b604080519687526020870195909552858501939093526060850191909152608084015260a0830152519081900360c00190f35b6104a5600480360360408110156109c657600080fd5b506001600160a01b0381358116916020013516611b5e565b6104bf611b89565b6104bf611b99565b6104a5611ba8565b6104a5611bba565b6104a5611bc1565b6104a5611bc8565b60368054604080516020601f6002600019610100600188161502019095169490940493840181900481028201810190925282815260609390929091830182828015610a9a5780601f10610a6f57610100808354040283529160200191610a9a565b820191906000526020600020905b815481529060010190602001808311610a7d57829003601f168201915b5050505050905090565b6000610ab8610ab1611bd7565b8484611bdb565b5060015b92915050565b6a0aefea174389736478000081565b60fd546001600160a01b031681565b60355490565b610af86000610af3611bd7565b6118fb565b610b2f576040805162461bcd60e51b815260206004820152600360248201526250533960e81b604482015290519081900360640190fd5b6001600160a01b038116610b73576040805162461bcd60e51b815260206004808301919091526024820152630505331360e41b604482015290519081900360640190fd5b61010980546001600160a01b0383166001600160a01b0319909116811790915560408051918252517f5e31e3a89ede0d5e39be17ca2a414f0dbdfd4f9a8a9a1054a8358fdf84581ab49181900360200190a150565b6000610bd5848484611cc7565b610c4584610be1611bd7565b610c4085604051806060016040528060288152602001612e2e602891396001600160a01b038a16600090815260346020526040812090610c1f611bd7565b6001600160a01b031681526020810191909152604001600020549190611e24565b611bdb565b5060015b9392505050565b60009081526097602052604090206002015490565b610104546001600160a01b031681565b600082815260976020526040902060020154610c9390610af3611bd7565b610cce5760405162461bcd60e51b815260040180806020018281038252602f815260200180612d38602f913960400191505060405180910390fd5b610cd88282611ebb565b5050565b600054610100900460ff1680610cf55750610cf5611f24565b80610d03575060005460ff16155b610d3e5760405162461bcd60e51b815260040180806020018281038252602e815260200180612ddf602e913960400191505060405180910390fd5b600054610100900460ff16158015610d69576000805460ff1961ff0019909116610100171660011790555b610db56040518060400160405280600c81526020016b3829aa20a5a2902a37b5b2b760a11b81525060405180604001604052806006815260200165505354414b4560d01b815250611f35565b610dbd611feb565b610dc561209d565b610dd76000610dd2611bd7565b610cce565b610df1600080516020612e56833981519152610dd2611bd7565b610e1d7f9f2df0fed2c77648de5860a4cc508cd0818c85b8b8a1ab4ceeef8d981c8956a6610dd2611bd7565b600160fb819055508d61010960006101000a8154816001600160a01b0302191690836001600160a01b03160217905550610e57601261213a565b633b9aca0060fc819055506b019d971e4fe8401e7400000061010a819055508c60fd60006101000a8154816001600160a01b0302191690836001600160a01b031602179055508b60fe60006101000a8154816001600160a01b0302191690836001600160a01b031602179055508a60ff60006101000a8154816001600160a01b0302191690836001600160a01b031602179055508961010060006101000a8154816001600160a01b0302191690836001600160a01b031602179055508861010160006101000a8154816001600160a01b0302191690836001600160a01b031602179055508761010260006101000a8154816001600160a01b0302191690836001600160a01b031602179055508661010360006101000a8154816001600160a01b0302191690836001600160a01b031602179055508561010460006101000a8154816001600160a01b0302191690836001600160a01b031602179055508461010560006101000a8154816001600160a01b0302191690836001600160a01b031602179055508361010660006101000a8154816001600160a01b0302191690836001600160a01b031602179055508261010760006101000a8154816001600160a01b0302191690836001600160a01b031602179055508161010860006101000a8154816001600160a01b0302191690836001600160a01b0316021790555061107d60fd60009054906101000a90046001600160a01b03166a0422ca8b0a00a425000000612150565b60fe5461109e906001600160a01b03166a084595161401484a000000612150565b610104546110c0906001600160a01b03166a0aefea1743897364780000612150565b610105546110e2906001600160a01b03166a0108b2a2c2802909400000612150565b61010654611104906001600160a01b03166a0383f8f62ee6f1ec400000612150565b61010754611126906001600160a01b03166a0160ee32f8e7c7eecc0000612150565b61010854611148906001600160a01b03166a0bfe7e93369b759e800000612150565b61115e306b017452bc3865ca661dbc00006112b3565b508015611171576000805461ff00191690555b5050505050505050505050505050565b60385460ff1690565b611192611bd7565b6001600160a01b0316816001600160a01b0316146111e15760405162461bcd60e51b815260040180806020018281038252602f815260200180612ee4602f913960400191505060405180910390fd5b610cd88282612242565b6000610ab86111f8611bd7565b84610c408560346000611209611bd7565b6001600160a01b03908116825260208083019390935260409182016000908120918c1681529252902054906122ab565b6b017452bc3865ca661dbc000081565b60fb5481565b600061126b600080516020612e56833981519152610af3611bd7565b6112a5576040805162461bcd60e51b815260206004808301919091526024820152635053313360e01b604482015290519081900360640190fd5b6112ad612305565b50600190565b60006112e17f9f2df0fed2c77648de5860a4cc508cd0818c85b8b8a1ab4ceeef8d981c8956a6610af3611bd7565b611318576040805162461bcd60e51b815260206004820152600360248201526250533760e81b604482015290519081900360640190fd5b6113206123a5565b505061010a5461133883611332610ae0565b906122ab565b1115611371576040805162461bcd60e51b81526020600482015260036024820152620a0a6760eb1b604482015290519081900360640190fd5b610ab88383612150565b600061138981610af3611bd7565b6113c0576040805162461bcd60e51b815260206004820152600360248201526228299960e91b604482015290519081900360640190fd5b60fc546113ce9060646124fe565b831115611408576040805162461bcd60e51b815260206004820152600360248201526250533360e81b604482015290519081900360640190fd5b60008211611443576040805162461bcd60e51b81526020600482015260036024820152621414cd60ea1b604482015290519081900360640190fd5b61144b6123a5565b505061010b83905561010c82905561010d546114a05761149661148c606461148661010b5460fc5461010a546125579092919063ffffffff16565b90612610565b61010a54906122ab565b61010a554261010d555b5060017f3626ade5797d5d9ff68b2dd6193599e26a3cb5d1f6afb37ca308e7533ff620e56114cc611bd7565b604080516001600160a01b03909216825260208201869052818101859052519081900360600190a192915050565b61010d5481565b6a0108b2a2c280290940000081565b60ff546001600160a01b031681565b6000600260c9541415611579576040805162461bcd60e51b815260206004820152601f60248201527f5265656e7472616e637947756172643a207265656e7472616e742063616c6c00604482015290519081900360640190fd5b600260c95561158b6000610af3611bd7565b6115c5576040805162461bcd60e51b815260206004808301919091526024820152635053313160e01b604482015290519081900360640190fd5b6115cf84846124fe565b610109549091506115ea9030906001600160a01b0316611b5e565b81111561160a576101095461160a9030906001600160a01b031683611bdb565b610109546040805163d41c912560e01b81523060048201526001600160a01b038a81166024830152604482018a9052606482018990526084820188905260a4820187905260c482018690529151919092169163d41c91259160e48083019260209291908290030181600087803b15801561168357600080fd5b505af1158015611697573d6000803e3d6000fd5b505050506040513d60208110156116ad57600080fd5b5050600160c9559695505050505050565b60655460ff1690565b6a0bfe7e93369b759e80000081565b610100546001600160a01b031681565b6000806116f581610af3611bd7565b61172c576040805162461bcd60e51b815260206004820152600360248201526250533160e81b604482015290519081900360640190fd5b6117346123a5565b90939092509050565b6001600160a01b031660009081526033602052604090205490565b610107546001600160a01b031681565b60fc5481565b61010e5481565b633b9aca0081565b600061178b81610af3611bd7565b6117c2576040805162461bcd60e51b815260206004820152600360248201526250533560e81b604482015290519081900360640190fd5b61010a54821015611800576040805162461bcd60e51b815260206004820152600360248201526228299b60e91b604482015290519081900360640190fd5b6118086123a5565b505061010a5461010e54141561181e574261010d555b5061010e81905560017fc7ef0200a4197b576e0fd91f28652dedae560532b3d4ea0193cc124b3c16f4cf611850611bd7565b604080516001600160a01b039092168252602082018590528051918290030190a1919050565b6000611892600080516020612e56833981519152610af3611bd7565b6118cc576040805162461bcd60e51b815260206004808301919091526024820152632829989960e11b604482015290519081900360640190fd5b6112ad612677565b6a084595161401484a00000081565b6000828152609760205260408120610c4990836126fa565b6000828152609760205260408120610c499083612706565b60378054604080516020601f6002600019610100600188161502019095169490940493840181900481028201810190925282815260609390929091830182828015610a9a5780601f10610a6f57610100808354040283529160200191610a9a565b610105546001600160a01b031681565b600081565b6000610ab8611996611bd7565b84610c4085604051806060016040528060258152602001612ebf60259139603460006119c0611bd7565b6001600160a01b03908116825260208083019390935260409182016000908120918d16815292529020549190611e24565b6b0409f9cbc7c4a04c2200000081565b61010c5481565b6000610ab8611a15611bd7565b8484611cc7565b64037e11d60081565b610103546001600160a01b031681565b610102546001600160a01b031681565b610101546001600160a01b031681565b610106546001600160a01b031681565b6301e1338081565b6a0422ca8b0a00a42500000081565b6000818152609760205260408120610abc9061271b565b610109546001600160a01b031681565b6a0383f8f62ee6f1ec40000081565b6b019d971e4fe8401e7400000081565b7f9f2df0fed2c77648de5860a4cc508cd0818c85b8b8a1ab4ceeef8d981c8956a681565b600082815260976020526040902060020154611b0490610af3611bd7565b6111e15760405162461bcd60e51b8152600401808060200182810382526030815260200180612daf6030913960400191505060405180910390fd5b61010a5461010b5460fc5461010c5461010d5461010e54909192939495565b6001600160a01b03918216600090815260346020908152604080832093909416825291909152205490565b610108546001600160a01b031681565b60fe546001600160a01b031681565b600080516020612e5683398151915281565b61010a5481565b61010b5481565b6a0160ee32f8e7c7eecc000081565b3390565b6001600160a01b038316611c205760405162461bcd60e51b8152600401808060200182810382526024815260200180612e9b6024913960400191505060405180910390fd5b6001600160a01b038216611c655760405162461bcd60e51b8152600401808060200182810382526022815260200180612d676022913960400191505060405180910390fd5b6001600160a01b03808416600081815260346020908152604080832094871680845294825291829020859055815185815291517f8c5be1e5ebec7d5bd14f71427d1e84f3dd0314c0f7b2291e5b200ac8c7c3b9259281900390910190a3505050565b6001600160a01b038316611d0c5760405162461bcd60e51b8152600401808060200182810382526025815260200180612e766025913960400191505060405180910390fd5b6001600160a01b038216611d515760405162461bcd60e51b8152600401808060200182810382526023815260200180612d156023913960400191505060405180910390fd5b611d5c838383612726565b611d9981604051806060016040528060268152602001612d89602691396001600160a01b0386166000908152603360205260409020549190611e24565b6001600160a01b038085166000908152603360205260408082209390935590841681522054611dc890826122ab565b6001600160a01b0380841660008181526033602090815260409182902094909455805185815290519193928716927fddf252ad1be2c89b69c2b068fc378daa952ba7f163c4a11628f55a4df523b3ef92918290030190a3505050565b60008184841115611eb35760405162461bcd60e51b81526004018080602001828103825283818151815260200191508051906020019080838360005b83811015611e78578181015183820152602001611e60565b50505050905090810190601f168015611ea55780820380516001836020036101000a031916815260200191505b509250505060405180910390fd5b505050900390565b6000828152609760205260409020611ed39082612774565b15610cd857611ee0611bd7565b6001600160a01b0316816001600160a01b0316837f2f8788117e7eff1d82e926ec794901d17c78024a50270940304540a733656f0d60405160405180910390a45050565b6000611f2f30612789565b15905090565b600054610100900460ff1680611f4e5750611f4e611f24565b80611f5c575060005460ff16155b611f975760405162461bcd60e51b815260040180806020018281038252602e815260200180612ddf602e913960400191505060405180910390fd5b600054610100900460ff16158015611fc2576000805460ff1961ff0019909116610100171660011790555b611fca61278f565b611fd4838361282f565b8015611fe6576000805461ff00191690555b505050565b600054610100900460ff16806120045750612004611f24565b80612012575060005460ff16155b61204d5760405162461bcd60e51b815260040180806020018281038252602e815260200180612ddf602e913960400191505060405180910390fd5b600054610100900460ff16158015612078576000805460ff1961ff0019909116610100171660011790555b61208061278f565b61208861278f565b801561209a576000805461ff00191690555b50565b600054610100900460ff16806120b657506120b6611f24565b806120c4575060005460ff16155b6120ff5760405162461bcd60e51b815260040180806020018281038252602e815260200180612ddf602e913960400191505060405180910390fd5b600054610100900460ff1615801561212a576000805460ff1961ff0019909116610100171660011790555b61213261278f565b612088612907565b6038805460ff191660ff92909216919091179055565b6001600160a01b0382166121ab576040805162461bcd60e51b815260206004820152601f60248201527f45524332303a206d696e7420746f20746865207a65726f206164647265737300604482015290519081900360640190fd5b6121b760008383612726565b6035546121c490826122ab565b6035556001600160a01b0382166000908152603360205260409020546121ea90826122ab565b6001600160a01b03831660008181526033602090815260408083209490945583518581529351929391927fddf252ad1be2c89b69c2b068fc378daa952ba7f163c4a11628f55a4df523b3ef9281900390910190a35050565b600082815260976020526040902061225a90826129b2565b15610cd857612267611bd7565b6001600160a01b0316816001600160a01b0316837ff6391f5c32d9c69d2a47ea670b442974b53935d1edc7fd64eb21e047a839171b60405160405180910390a45050565b600082820183811015610c49576040805162461bcd60e51b815260206004820152601b60248201527f536166654d6174683a206164646974696f6e206f766572666c6f770000000000604482015290519081900360640190fd5b61230d6116be565b612355576040805162461bcd60e51b815260206004820152601460248201527314185d5cd8589b194e881b9bdd081c185d5cd95960621b604482015290519081900360640190fd5b6065805460ff191690557f5db9ee0a495bf2e6ff9c91a7834c1ba4fdd244a5e8aa4e537bd38aeae4b073aa612388611bd7565b604080516001600160a01b039092168252519081900360200190a1565b60008061010e5461010a541015806123be575061010b54155b806123ca575061010c54155b156123de57505061010a5461010d546124fa565b60006123f661010d54426129c790919063ffffffff16565b90506000612425606461148661010b5460fc546b019d971e4fe8401e740000006125579092919063ffffffff16565b9050600061243f61010c548461261090919063ffffffff16565b9050600061244d82846124fe565b905081156124e95761010e5461010a5461246790836122ab565b1161247f5761010a5461247a90826122ab565b612484565b61010e545b61010a5561010c546124a49061249a90846124fe565b61010d54906122ab565b61010d81905560408051918252602082018390524282820152517f36581a2b25903f92b9cf76ccf14ea53151d6f302d54de9ddb6259a7f67993bfd9181900360600190a15b61010d54945061010a549550505050505b9091565b60008261250d57506000610abc565b8282028284828161251a57fe5b0414610c495760405162461bcd60e51b8152600401808060200182810382526021815260200180612e0d6021913960400191505060405180910390fd5b60008060006125668686612a24565b915091506000848061257457fe5b868809905082811115612588576001820391505b9182900391816125a65784838161259b57fe5b049350505050610c49565b8482106125fa576040805162461bcd60e51b815260206004820152601a60248201527f46756c6c4d6174683a2046554c4c4449565f4f564552464c4f57000000000000604482015290519081900360640190fd5b612605838387612a51565b979650505050505050565b6000808211612666576040805162461bcd60e51b815260206004820152601a60248201527f536166654d6174683a206469766973696f6e206279207a65726f000000000000604482015290519081900360640190fd5b81838161266f57fe5b049392505050565b61267f6116be565b156126c4576040805162461bcd60e51b815260206004820152601060248201526f14185d5cd8589b194e881c185d5cd95960821b604482015290519081900360640190fd5b6065805460ff191660011790557f62e78cea01bee320cd4e420270b5ea74000d11b0c9f74754ebdbfc544b05a258612388611bd7565b6000610c498383612ac1565b6000610c49836001600160a01b038416612b25565b6000610abc82612b3d565b61272e6116be565b15612769576040805162461bcd60e51b815260206004808301919091526024820152631414cc4d60e21b604482015290519081900360640190fd5b611fe6838383611fe6565b6000610c49836001600160a01b038416612b41565b3b151590565b600054610100900460ff16806127a857506127a8611f24565b806127b6575060005460ff16155b6127f15760405162461bcd60e51b815260040180806020018281038252602e815260200180612ddf602e913960400191505060405180910390fd5b600054610100900460ff16158015612088576000805460ff1961ff001990911661010017166001179055801561209a576000805461ff001916905550565b600054610100900460ff16806128485750612848611f24565b80612856575060005460ff16155b6128915760405162461bcd60e51b815260040180806020018281038252602e815260200180612ddf602e913960400191505060405180910390fd5b600054610100900460ff161580156128bc576000805460ff1961ff0019909116610100171660011790555b82516128cf906036906020860190612c51565b5081516128e3906037906020850190612c51565b506038805460ff191660121790558015611fe6576000805461ff0019169055505050565b600054610100900460ff16806129205750612920611f24565b8061292e575060005460ff16155b6129695760405162461bcd60e51b815260040180806020018281038252602e815260200180612ddf602e913960400191505060405180910390fd5b600054610100900460ff16158015612994576000805460ff1961ff0019909116610100171660011790555b6065805460ff19169055801561209a576000805461ff001916905550565b6000610c49836001600160a01b038416612b8b565b600082821115612a1e576040805162461bcd60e51b815260206004820152601e60248201527f536166654d6174683a207375627472616374696f6e206f766572666c6f770000604482015290519081900360640190fd5b50900390565b6000808060001984860990508385029250828103915082811015612a49576001820391505b509250929050565b60008181038216808381612a6157fe5b049250808581612a6d57fe5b049450808160000381612a7c57fe5b60028581038087028203028087028203028087028203028087028203028087028203028087028203029586029003909402930460010193909302939093010292915050565b81546000908210612b035760405162461bcd60e51b8152600401808060200182810382526022815260200180612cf36022913960400191505060405180910390fd5b826000018281548110612b1257fe5b9060005260206000200154905092915050565b60009081526001919091016020526040902054151590565b5490565b6000612b4d8383612b25565b612b8357508154600181810184556000848152602080822090930184905584548482528286019093526040902091909155610abc565b506000610abc565b60008181526001830160205260408120548015612c475783546000198083019190810190600090879083908110612bbe57fe5b9060005260206000200154905080876000018481548110612bdb57fe5b600091825260208083209091019290925582815260018981019092526040902090840190558654879080612c0b57fe5b60019003818190600052602060002001600090559055866001016000878152602001908152602001600020600090556001945050505050610abc565b6000915050610abc565b828054600181600116156101000203166002900490600052602060002090601f016020900481019282612c875760008555612ccd565b82601f10612ca057805160ff1916838001178555612ccd565b82800160010185558215612ccd579182015b82811115612ccd578251825591602001919060010190612cb2565b50612cd9929150612cdd565b5090565b5b80821115612cd95760008155600101612cde56fe456e756d657261626c655365743a20696e646578206f7574206f6620626f756e647345524332303a207472616e7366657220746f20746865207a65726f2061646472657373416363657373436f6e74726f6c3a2073656e646572206d75737420626520616e2061646d696e20746f206772616e7445524332303a20617070726f766520746f20746865207a65726f206164647265737345524332303a207472616e7366657220616d6f756e7420657863656564732062616c616e6365416363657373436f6e74726f6c3a2073656e646572206d75737420626520616e2061646d696e20746f207265766f6b65496e697469616c697a61626c653a20636f6e747261637420697320616c726561647920696e697469616c697a6564536166654d6174683a206d756c7469706c69636174696f6e206f766572666c6f7745524332303a207472616e7366657220616d6f756e74206578636565647320616c6c6f77616e636565d7a28e3265b37a6474929f336521b332c1681b933f6cb9f3376673440d862a45524332303a207472616e736665722066726f6d20746865207a65726f206164647265737345524332303a20617070726f76652066726f6d20746865207a65726f206164647265737345524332303a2064656372656173656420616c6c6f77616e63652062656c6f77207a65726f416363657373436f6e74726f6c3a2063616e206f6e6c792072656e6f756e636520726f6c657320666f722073656c66a2646970667358221220fb3171ee92155e96fc85ba25ebf380ef935c648e0e76be1cbdc8255dc0406f6664736f6c63430007060033",
  "immutableReferences": {},
  "source": "/*\n Copyright [2019] - [2021], PERSISTENCE TECHNOLOGIES PTE. LTD. and the ERC20 contributors\n SPDX-License-Identifier: Apache-2.0\n*/\n\npragma solidity >=0.7.0;\n\nimport \"@openzeppelin/contracts-upgradeable/token/ERC20/ERC20Upgradeable.sol\";\nimport \"@openzeppelin/contracts-upgradeable/utils/PausableUpgradeable.sol\";\nimport \"@openzeppelin/contracts-upgradeable/access/AccessControlUpgradeable.sol\";\nimport \"@openzeppelin/contracts-upgradeable/utils/ReentrancyGuardUpgradeable.sol\";\nimport \"@openzeppelin/contracts-upgradeable/math/SafeMathUpgradeable.sol\";\nimport \"./libraries/FullMath.sol\";\nimport \"./interfaces/IVestingTimelockV3.sol\";\nimport \"./interfaces/IPSTAKE.sol\";\n\ncontract PSTAKE is\n  IPSTAKE,\n  ERC20Upgradeable,\n  PausableUpgradeable,\n  AccessControlUpgradeable,\n  ReentrancyGuardUpgradeable\n{\n  // including libraries\n  using SafeMathUpgradeable for uint256;\n  using FullMath for uint256;\n\n  // constants defining access control ROLES\n  bytes32 public constant PAUSER_ROLE = keccak256(\"PAUSER_ROLE\");\n  bytes32 public constant MINTER_ROLE = keccak256(\"MINTER_ROLE\");\n\n  // variable pertaining to contract upgrades versioning and value divisor\n  uint256 public _version;\n  uint256 public _valueDivisor;\n\n  // addresses pertaining to various tokenomics strategy\n  address public _airdropPool;\n  address public _alphaLaunchpadPool;\n  address public _seedSalePool;\n  address public _publicSalePool1;\n  address public _publicSalePool2;\n  address public _publicSalePool3;\n  address public _teamPool;\n  address public _incentivisationPool;\n  address public _xprtStakersPool;\n  address public _protocolTreasuryPool;\n  address public _communityDevelopmentFundPool;\n  address public _retroactiveRewardProtocolBootstrapPool;\n\n  // address of vesting timelock contract to enable several vesting strategy\n  address public _vestingTimelockAddress;\n\n  // total inflated supply and the supply limit component to implement inflation\n  uint256 public override _totalInflatedSupply;\n  uint256 public _inflationRate;\n  uint256 public _inflationPeriod;\n  uint256 public override _lastInflationBlockTime;\n  uint256 public override _supplyMaxLimit;\n\n  // constants for value allocation\n  uint256 public constant VALUE_DIVISOR = uint256(1e9);\n  uint256 public constant INFLATION_RATE = uint256(15e9);\n  uint256 public constant INFLATION_PERIOD = 365 days;\n  uint256 public constant SUPPLY_AT_GENESIS = uint256(500000000e18);\n  uint256 public constant TOTAL_VESTED_SUPPLY = uint256(450111111e18);\n  uint256 public constant SUPPLY_MAX_LIMIT = uint256(1250000000e18);\n\n  // pre-allocate tokens to strategy pools\n  uint256 public constant AIRDROPPOOLALLOCATION = uint256(5000000e18);\n  uint256 public constant ALPHALAUNCHPADPOOLALLOCATION = uint256(10000000e18);\n  uint256 public constant INCENTIVISATIONPOOLALLOCATION = uint256(13222222e18);\n  uint256 public constant XPRTSTAKERSPOOLALLOCATION = uint256(1250000e18);\n  uint256 public constant PROTOCOLTREASURYPOOLALLOCATION = uint256(4250000e18);\n  uint256 public constant COMMUNITYDEVELOPMENTFUNDPOOLALLOCATION =\n    uint256(1666667e18);\n  uint256 public constant RETROACTIVEREWARDPROTOCOLBOOTSTRAPPOOLALLOCATION =\n    uint256(14500000e18);\n\n  /**\n   * @dev Constructor for initializing the PSTAKE contract.\n   * @param vestingTimelockAddress - address of the vesting timelock contract.\n   * @param airdropPool - address of the airdrop pool.\n   * @param alphaLaunchpadPool - address of the alpha launchpad pool.\n   * @param seedSalePool - address of the seed sale pool.\n   * @param publicSalePool1 - address of the public sale pool1.\n   * @param publicSalePool2 - address of the public sale pool2.\n   * @param publicSalePool3 - address of the public sale pool3.\n   * @param teamPool - address of the team pool.\n   * @param incentivisationPool - address of the incentivising pool.\n   * @param xprtStakersPool - address of the xprt stakers pool.\n   * @param protocolTreasuryPool - address of the protocol treasury pool.\n   * @param communityDevelopmentFundPool - address of the community development fund pool.\n   * @param retroactiveRewardProtocolBootstrapPool - address of the retroactive reward protocol bootstrap pool.\n   */\n  function initialize(\n    address vestingTimelockAddress,\n    address airdropPool,\n    address alphaLaunchpadPool,\n    address seedSalePool,\n    address publicSalePool1,\n    address publicSalePool2,\n    address publicSalePool3,\n    address teamPool,\n    address incentivisationPool,\n    address xprtStakersPool,\n    address protocolTreasuryPool,\n    address communityDevelopmentFundPool,\n    address retroactiveRewardProtocolBootstrapPool\n  ) public virtual initializer {\n    __ERC20_init(\"pSTAKE Token\", \"PSTAKE\");\n    __AccessControl_init();\n    __Pausable_init();\n    _setupRole(DEFAULT_ADMIN_ROLE, _msgSender());\n    _setupRole(PAUSER_ROLE, _msgSender());\n    _setupRole(MINTER_ROLE, _msgSender());\n\n    // setup the version and vesting timelock contract\n    _version = 1;\n    _vestingTimelockAddress = vestingTimelockAddress;\n    // PSTAKE is an erc20 token hence 18 decimal places\n    _setupDecimals(18);\n    _valueDivisor = VALUE_DIVISOR;\n    // _inflationRate = INFLATION_RATE;\n    // _inflationPeriod = INFLATION_PERIOD;\n    // _lastInflationBlockTime = block.timestamp;\n    _totalInflatedSupply = uint256(SUPPLY_AT_GENESIS);\n    // _supplyMaxLimit = SUPPLY_MAX_LIMIT;\n    // allocate the various tokenomics strategy pool addresses\n    // (must be different addresses because each address can have only one active vesting strategy at a time)\n    _airdropPool = airdropPool;\n    _alphaLaunchpadPool = alphaLaunchpadPool;\n    _seedSalePool = seedSalePool;\n    _publicSalePool1 = publicSalePool1;\n    _publicSalePool2 = publicSalePool2;\n    _publicSalePool3 = publicSalePool3;\n    _teamPool = teamPool;\n    _incentivisationPool = incentivisationPool;\n    _xprtStakersPool = xprtStakersPool;\n    _protocolTreasuryPool = protocolTreasuryPool;\n    _communityDevelopmentFundPool = communityDevelopmentFundPool;\n    _retroactiveRewardProtocolBootstrapPool = retroactiveRewardProtocolBootstrapPool;\n\n    // pre-allocate tokens to strategy pools\n    _mint(_airdropPool, AIRDROPPOOLALLOCATION);\n    _mint(_alphaLaunchpadPool, ALPHALAUNCHPADPOOLALLOCATION);\n    _mint(_incentivisationPool, INCENTIVISATIONPOOLALLOCATION);\n    _mint(_xprtStakersPool, XPRTSTAKERSPOOLALLOCATION);\n    _mint(_protocolTreasuryPool, PROTOCOLTREASURYPOOLALLOCATION);\n    _mint(\n      _communityDevelopmentFundPool,\n      COMMUNITYDEVELOPMENTFUNDPOOLALLOCATION\n    );\n    _mint(\n      _retroactiveRewardProtocolBootstrapPool,\n      RETROACTIVEREWARDPROTOCOLBOOTSTRAPPOOLALLOCATION\n    );\n\n    // accumulate tokens to allocate for vesting strategies (total supply - initial circulating supply)\n    mint(address(this), TOTAL_VESTED_SUPPLY);\n\n    // approve the vesting timelock contract to pull the tokens\n    // _approve(address(this), _vestingTimelockAddress, TOTAL_VESTED_SUPPLY);\n\n    // ALLOCATING VESTING STRATEGIES\n  }\n\n  /**\n   * @dev Check inflation\n   * Emits a {CheckInflation} event with 'block height', 'inflationComponent', and 'timestamp'.\n   *\n   */\n  function _checkInflation()\n    internal\n    returns (uint256 totalInflatedSupply, uint256 lastInflationBlockTime)\n  {\n    // if the _totalInflatedSupply has already reacted _supplyMaxLimit or inflation properties not set, then return\n    if (\n      _totalInflatedSupply >= _supplyMaxLimit ||\n      _inflationRate == 0 ||\n      _inflationPeriod == 0\n    ) return (_totalInflatedSupply, _lastInflationBlockTime);\n\n    // get the time since last inflation\n    uint256 timeSinceLastInflation = (block.timestamp).sub(\n      _lastInflationBlockTime\n    );\n\n    // get the inflation amount for one cycle of inflation period\n    uint256 inflationPerInstalment = (\n      uint256(SUPPLY_AT_GENESIS).mulDiv(_inflationRate, _valueDivisor)\n    ).div(100);\n\n    // get the number of cycles/instalments of inflation that are pending to be updated\n    uint256 inflationInstalments = timeSinceLastInflation.div(_inflationPeriod);\n    uint256 additionalInflation = inflationInstalments.mul(\n      inflationPerInstalment\n    );\n\n    if (inflationInstalments > 0) {\n      // if adding additionalInflation to _totalInflatedSupply crosses _supplyMaxLimit then make _totalInflatedSupply as _supplyMaxLimit\n      _totalInflatedSupply = _totalInflatedSupply.add(additionalInflation) >\n        _supplyMaxLimit\n        ? _supplyMaxLimit\n        : _totalInflatedSupply.add(additionalInflation);\n      /* process if (_totalInflatedSupply > _supplyMaxLimit) */\n      _lastInflationBlockTime = _lastInflationBlockTime.add(\n        _inflationPeriod.mul(inflationInstalments)\n      );\n\n      // emit an event\n      emit CheckInflation(\n        _lastInflationBlockTime,\n        additionalInflation,\n        block.timestamp\n      );\n    }\n\n    // get the return values\n    lastInflationBlockTime = _lastInflationBlockTime;\n    totalInflatedSupply = _totalInflatedSupply;\n  }\n\n  /**\n   * @dev checks the inflation and sets the inflation parameters if the inflation cycle has changed\n   *\n   */\n  function checkInflation()\n    public\n    virtual\n    override\n    returns (uint256 totalInflatedSupply, uint256 lastInflationBlockTime)\n  {\n    require(hasRole(DEFAULT_ADMIN_ROLE, _msgSender()), \"PS1\");\n    (totalInflatedSupply, lastInflationBlockTime) = _checkInflation();\n  }\n\n  /**\n   * @dev returns the properties pertaining to inflation\n   */\n  function getInflation()\n    public\n    view\n    virtual\n    override\n    returns (\n      uint256 totalInflatedSupply,\n      uint256 inflationRate,\n      uint256 valueDivisor,\n      uint256 inflationPeriod,\n      uint256 lastInflationBlockTime,\n      uint256 supplyMaxLimit\n    )\n  {\n    return (\n      _totalInflatedSupply,\n      _inflationRate,\n      _valueDivisor,\n      _inflationPeriod,\n      _lastInflationBlockTime,\n      _supplyMaxLimit\n    );\n  }\n\n  /**\n   * @dev Set inflation\n   * @param inflationRate: inflation rate given as value between 0 and 100\n   * @param inflationPeriod: inflation cycle in seconds\n   *\n   * Emits a {SetInflationRate} event.\n   *\n   */\n  function setInflation(uint256 inflationRate, uint256 inflationPeriod)\n    public\n    virtual\n    override\n    returns (bool success)\n  {\n    require(hasRole(DEFAULT_ADMIN_ROLE, _msgSender()), \"PS2\");\n    // check inflation rate to be not more than 100 since it is a percentage\n    require(inflationRate <= _valueDivisor.mul(100), \"PS3\");\n    require(inflationPeriod > 0, \"PS4\");\n    // execute check inflation to update the inflation values before setting the inflation\n    _checkInflation();\n    // after enabling inflation, one way to arrest inflation can be to set a large inflationPeriod value\n    _inflationRate = inflationRate;\n    _inflationPeriod = inflationPeriod;\n    // if this is the first time inflation values are being set (inflation activation) then\n    // initialize _totalInflatedSupply with the inflated value and update _lastInflationBlockTime\n    // the inflation cycle begins just as these values are set\n    if (_lastInflationBlockTime == 0) {\n      _totalInflatedSupply = _totalInflatedSupply.add(\n        (_totalInflatedSupply.mulDiv(_inflationRate, _valueDivisor)).div(100)\n      );\n      _lastInflationBlockTime = block.timestamp;\n    }\n    success = true;\n    emit SetInflationRate(_msgSender(), inflationRate, inflationPeriod);\n  }\n\n  /**\n   * @dev Set supply max limit of the inflation component\n   * @param supplyMaxLimit: supply max limit value\n   *\n   * Emits a {SetSupplyMaxLimit} event.\n   *\n   */\n  function setSupplyMaxLimit(uint256 supplyMaxLimit)\n    public\n    virtual\n    override\n    returns (bool success)\n  {\n    // check this function to be callable only by the admin\n    require(hasRole(DEFAULT_ADMIN_ROLE, _msgSender()), \"PS5\");\n    // new supply max limit cannot be less than _totalInflatedSupply\n    require(supplyMaxLimit >= _totalInflatedSupply, \"PS6\");\n    // execute check inflation to update the inflation values before setting the inflation\n    _checkInflation();\n    // if the total inflated supply has already reached supply max limit then update _lastInflationBlockTime\n    // to restart the inflation cycle again\n    if (_supplyMaxLimit == _totalInflatedSupply) {\n      _lastInflationBlockTime = block.timestamp;\n    }\n    _supplyMaxLimit = supplyMaxLimit;\n    success = true;\n    emit SetSupplyMaxLimit(_msgSender(), supplyMaxLimit);\n  }\n\n  /**\n   * @dev Mint new PSTAKE for the provided 'address' and 'amount'\n   *\n   * Emits a {Transfer} event with 'to' set to address and 'tokens' set to amount of tokens.\n   */\n  function mint(address to, uint256 tokens)\n    public\n    virtual\n    override\n    returns (bool success)\n  {\n    require(hasRole(MINTER_ROLE, _msgSender()), \"PS7\");\n\n    // condition to check if the total supply doesnt cross the inflated supply\n    _checkInflation();\n    require((totalSupply()).add(tokens) <= _totalInflatedSupply, \"PS8\");\n\n    // mint the tokens\n    _mint(to, tokens);\n    return true;\n  }\n\n  /**\n   * @dev Set 'contract address', called from constructor\n   * @param vestingTimelockAddress: Vesting timelock contract address\n   *\n   * Emits a {SetVestingTimelockContract} event with '_contract' set to the VestingTimelockcontract address.\n   *\n   */\n  function setVestingTimelockContract(address vestingTimelockAddress)\n    public\n    virtual\n    override\n  {\n    require(hasRole(DEFAULT_ADMIN_ROLE, _msgSender()), \"PS9\");\n    require(vestingTimelockAddress != address(0), \"PS10\");\n    _vestingTimelockAddress = vestingTimelockAddress;\n    emit SetVestingTimelockContract(vestingTimelockAddress);\n  }\n\n  /**\n   * @dev adds a vesting grant initiated by this contract as manager\n   * @param beneficiary: beneficiary address\n   * @param startTime: start time\n   * @param cliffPeriod: initial waiting period\n   * @param instalmentAmount: installment amount\n   * @param instalmentCount: instalment count\n   * @param instalmentPeriod: instalment period\n   */\n  function addVesting(\n    address beneficiary,\n    uint256 startTime,\n    uint256 cliffPeriod,\n    uint256 instalmentAmount,\n    uint256 instalmentCount,\n    uint256 instalmentPeriod\n  ) public virtual override nonReentrant returns (uint256 totalVestingAmount) {\n    require(hasRole(DEFAULT_ADMIN_ROLE, _msgSender()), \"PS11\");\n\n    totalVestingAmount = instalmentAmount.mul(instalmentCount);\n\n    // get approval for transfer of total vesting amount if not already there\n    if (totalVestingAmount > allowance(address(this), _vestingTimelockAddress))\n      _approve(address(this), _vestingTimelockAddress, totalVestingAmount);\n\n    IVestingTimelockV3(_vestingTimelockAddress).addGrant(\n      address(this),\n      beneficiary,\n      startTime,\n      cliffPeriod,\n      instalmentAmount,\n      instalmentCount,\n      instalmentPeriod\n    );\n  }\n\n  /**\n   * @dev Triggers stopped state.\n   *\n   *\n   * - The contract must not be paused.\n   */\n  function pause() public virtual override returns (bool success) {\n    require(hasRole(PAUSER_ROLE, _msgSender()), \"PS12\");\n    _pause();\n    return true;\n  }\n\n  /**\n   * @dev Returns to normal state.\n   *\n   *\n   * - The contract must be paused.\n   */\n  function unpause() public virtual override returns (bool success) {\n    require(hasRole(PAUSER_ROLE, _msgSender()), \"PS13\");\n    _unpause();\n    return true;\n  }\n\n  /**\n   * @dev Hook that is called before any transfer of tokens. This includes\n   * minting and burning.\n   *\n   */\n  function _beforeTokenTransfer(\n    address from,\n    address to,\n    uint256 amount\n  ) internal virtual override {\n    require(!paused(), \"PS14\");\n    super._beforeTokenTransfer(from, to, amount);\n  }\n}\n",
  "sourcePath": "/home/aditimahesh/Documents/Work/Persistence/go/src/github.com/persistenceOne/ERC20/contracts/PSTAKE.sol",
  "compiler": {
    "name": "solc",
    "version": "0.7.6+commit.7338295f.Emscripten.clang"
  },
  "schemaVersion": "3.4.3",
  "updatedAt": "2021-12-21T08:53:20.550Z",
  "networkType": "ethereum",
  "devdoc": {
    "kind": "dev",
    "methods": {
      "addVesting(address,uint256,uint256,uint256,uint256,uint256)": {
        "details": "adds a vesting grant initiated by this contract as manager",
        "params": {
          "beneficiary": ": beneficiary address",
          "cliffPeriod": ": initial waiting period",
          "instalmentAmount": ": installment amount",
          "instalmentCount": ": instalment count",
          "instalmentPeriod": ": instalment period",
          "startTime": ": start time"
        }
      },
      "allowance(address,address)": {
        "details": "See {IERC20-allowance}."
      },
      "approve(address,uint256)": {
        "details": "See {IERC20-approve}. Requirements: - `spender` cannot be the zero address."
      },
      "balanceOf(address)": {
        "details": "See {IERC20-balanceOf}."
      },
      "checkInflation()": {
        "details": "checks the inflation and sets the inflation parameters if the inflation cycle has changed"
      },
      "decimals()": {
        "details": "Returns the number of decimals used to get its user representation. For example, if `decimals` equals `2`, a balance of `505` tokens should be displayed to a user as `5,05` (`505 / 10 ** 2`). Tokens usually opt for a value of 18, imitating the relationship between Ether and Wei. This is the value {ERC20} uses, unless {_setupDecimals} is called. NOTE: This information is only used for _display_ purposes: it in no way affects any of the arithmetic of the contract, including {IERC20-balanceOf} and {IERC20-transfer}."
      },
      "decreaseAllowance(address,uint256)": {
        "details": "Atomically decreases the allowance granted to `spender` by the caller. This is an alternative to {approve} that can be used as a mitigation for problems described in {IERC20-approve}. Emits an {Approval} event indicating the updated allowance. Requirements: - `spender` cannot be the zero address. - `spender` must have allowance for the caller of at least `subtractedValue`."
      },
      "getInflation()": {
        "details": "returns the properties pertaining to inflation"
      },
      "getRoleAdmin(bytes32)": {
        "details": "Returns the admin role that controls `role`. See {grantRole} and {revokeRole}. To change a role's admin, use {_setRoleAdmin}."
      },
      "getRoleMember(bytes32,uint256)": {
        "details": "Returns one of the accounts that have `role`. `index` must be a value between 0 and {getRoleMemberCount}, non-inclusive. Role bearers are not sorted in any particular way, and their ordering may change at any point. WARNING: When using {getRoleMember} and {getRoleMemberCount}, make sure you perform all queries on the same block. See the following https://forum.openzeppelin.com/t/iterating-over-elements-on-enumerableset-in-openzeppelin-contracts/2296[forum post] for more information."
      },
      "getRoleMemberCount(bytes32)": {
        "details": "Returns the number of accounts that have `role`. Can be used together with {getRoleMember} to enumerate all bearers of a role."
      },
      "grantRole(bytes32,address)": {
        "details": "Grants `role` to `account`. If `account` had not been already granted `role`, emits a {RoleGranted} event. Requirements: - the caller must have ``role``'s admin role."
      },
      "hasRole(bytes32,address)": {
        "details": "Returns `true` if `account` has been granted `role`."
      },
      "increaseAllowance(address,uint256)": {
        "details": "Atomically increases the allowance granted to `spender` by the caller. This is an alternative to {approve} that can be used as a mitigation for problems described in {IERC20-approve}. Emits an {Approval} event indicating the updated allowance. Requirements: - `spender` cannot be the zero address."
      },
      "initialize(address,address,address,address,address,address,address,address,address,address,address,address,address)": {
        "details": "Constructor for initializing the PSTAKE contract.",
        "params": {
          "airdropPool": "- address of the airdrop pool.",
          "alphaLaunchpadPool": "- address of the alpha launchpad pool.",
          "communityDevelopmentFundPool": "- address of the community development fund pool.",
          "incentivisationPool": "- address of the incentivising pool.",
          "protocolTreasuryPool": "- address of the protocol treasury pool.",
          "publicSalePool1": "- address of the public sale pool1.",
          "publicSalePool2": "- address of the public sale pool2.",
          "publicSalePool3": "- address of the public sale pool3.",
          "retroactiveRewardProtocolBootstrapPool": "- address of the retroactive reward protocol bootstrap pool.",
          "seedSalePool": "- address of the seed sale pool.",
          "teamPool": "- address of the team pool.",
          "vestingTimelockAddress": "- address of the vesting timelock contract.",
          "xprtStakersPool": "- address of the xprt stakers pool."
        }
      },
      "mint(address,uint256)": {
        "details": "Mint new PSTAKE for the provided 'address' and 'amount' Emits a {Transfer} event with 'to' set to address and 'tokens' set to amount of tokens."
      },
      "name()": {
        "details": "Returns the name of the token."
      },
      "pause()": {
        "details": "Triggers stopped state. - The contract must not be paused."
      },
      "paused()": {
        "details": "Returns true if the contract is paused, and false otherwise."
      },
      "renounceRole(bytes32,address)": {
        "details": "Revokes `role` from the calling account. Roles are often managed via {grantRole} and {revokeRole}: this function's purpose is to provide a mechanism for accounts to lose their privileges if they are compromised (such as when a trusted device is misplaced). If the calling account had been granted `role`, emits a {RoleRevoked} event. Requirements: - the caller must be `account`."
      },
      "revokeRole(bytes32,address)": {
        "details": "Revokes `role` from `account`. If `account` had been granted `role`, emits a {RoleRevoked} event. Requirements: - the caller must have ``role``'s admin role."
      },
      "setInflation(uint256,uint256)": {
        "details": "Set inflation",
        "params": {
          "inflationPeriod": ": inflation cycle in seconds Emits a {SetInflationRate} event.",
          "inflationRate": ": inflation rate given as value between 0 and 100"
        }
      },
      "setSupplyMaxLimit(uint256)": {
        "details": "Set supply max limit of the inflation component",
        "params": {
          "supplyMaxLimit": ": supply max limit value Emits a {SetSupplyMaxLimit} event."
        }
      },
      "setVestingTimelockContract(address)": {
        "details": "Set 'contract address', called from constructor",
        "params": {
          "vestingTimelockAddress": ": Vesting timelock contract address Emits a {SetVestingTimelockContract} event with '_contract' set to the VestingTimelockcontract address."
        }
      },
      "symbol()": {
        "details": "Returns the symbol of the token, usually a shorter version of the name."
      },
      "totalSupply()": {
        "details": "See {IERC20-totalSupply}."
      },
      "transfer(address,uint256)": {
        "details": "See {IERC20-transfer}. Requirements: - `recipient` cannot be the zero address. - the caller must have a balance of at least `amount`."
      },
      "transferFrom(address,address,uint256)": {
        "details": "See {IERC20-transferFrom}. Emits an {Approval} event indicating the updated allowance. This is not required by the EIP. See the note at the beginning of {ERC20}. Requirements: - `sender` and `recipient` cannot be the zero address. - `sender` must have a balance of at least `amount`. - the caller must have allowance for ``sender``'s tokens of at least `amount`."
      },
      "unpause()": {
        "details": "Returns to normal state. - The contract must be paused."
      }
    },
    "stateVariables": {
      "_lastInflationBlockTime": {
        "details": "getter method created from variable definition"
      },
      "_supplyMaxLimit": {
        "details": "getter method created from variable definition"
      },
      "_totalInflatedSupply": {
        "details": "getter method created from variable definition"
      }
    },
    "version": 1
  },
  "userdoc": {
    "kind": "user",
    "methods": {},
    "version": 1
  }
}