{
  "contractName": "PSTAKE",
  "abi": [
    {
      "anonymous": false,
      "inputs": [
        {
          "indexed": false,
          "internalType": "address",
          "name": "token",
          "type": "address"
        },
        {
          "indexed": false,
          "internalType": "address",
          "name": "accountAddress",
          "type": "address"
        },
        {
          "indexed": false,
          "internalType": "uint256",
          "name": "startTime",
          "type": "uint256"
        },
        {
          "indexed": false,
          "internalType": "uint256",
          "name": "cliffPeriod",
          "type": "uint256"
        },
        {
          "indexed": false,
          "internalType": "uint256",
          "name": "tokens",
          "type": "uint256"
        },
        {
          "indexed": false,
          "internalType": "uint256",
          "name": "instalmentAmount",
          "type": "uint256"
        },
        {
          "indexed": false,
          "internalType": "uint256",
          "name": "instalmentCount",
          "type": "uint256"
        },
        {
          "indexed": false,
          "internalType": "uint256",
          "name": "instalmentPeriod",
          "type": "uint256"
        },
        {
          "indexed": false,
          "internalType": "address",
          "name": "grantManager",
          "type": "address"
        },
        {
          "indexed": false,
          "internalType": "uint256",
          "name": "timestamp",
          "type": "uint256"
        }
      ],
      "name": "AddGrant",
      "type": "event"
    },
    {
      "anonymous": false,
      "inputs": [
        {
          "indexed": true,
          "internalType": "address",
          "name": "owner",
          "type": "address"
        },
        {
          "indexed": true,
          "internalType": "address",
          "name": "spender",
          "type": "address"
        },
        {
          "indexed": false,
          "internalType": "uint256",
          "name": "value",
          "type": "uint256"
        }
      ],
      "name": "Approval",
      "type": "event"
    },
    {
      "anonymous": false,
      "inputs": [
        {
          "indexed": false,
          "internalType": "uint256",
          "name": "lastInflationBlockTime",
          "type": "uint256"
        },
        {
          "indexed": false,
          "internalType": "uint256",
          "name": "inflationAdded",
          "type": "uint256"
        },
        {
          "indexed": false,
          "internalType": "uint256",
          "name": "timestamp",
          "type": "uint256"
        }
      ],
      "name": "CheckInflation",
      "type": "event"
    },
    {
      "anonymous": false,
      "inputs": [
        {
          "indexed": false,
          "internalType": "address",
          "name": "account",
          "type": "address"
        }
      ],
      "name": "Paused",
      "type": "event"
    },
    {
      "anonymous": false,
      "inputs": [
        {
          "indexed": true,
          "internalType": "bytes32",
          "name": "role",
          "type": "bytes32"
        },
        {
          "indexed": true,
          "internalType": "bytes32",
          "name": "previousAdminRole",
          "type": "bytes32"
        },
        {
          "indexed": true,
          "internalType": "bytes32",
          "name": "newAdminRole",
          "type": "bytes32"
        }
      ],
      "name": "RoleAdminChanged",
      "type": "event"
    },
    {
      "anonymous": false,
      "inputs": [
        {
          "indexed": true,
          "internalType": "bytes32",
          "name": "role",
          "type": "bytes32"
        },
        {
          "indexed": true,
          "internalType": "address",
          "name": "account",
          "type": "address"
        },
        {
          "indexed": true,
          "internalType": "address",
          "name": "sender",
          "type": "address"
        }
      ],
      "name": "RoleGranted",
      "type": "event"
    },
    {
      "anonymous": false,
      "inputs": [
        {
          "indexed": true,
          "internalType": "bytes32",
          "name": "role",
          "type": "bytes32"
        },
        {
          "indexed": true,
          "internalType": "address",
          "name": "account",
          "type": "address"
        },
        {
          "indexed": true,
          "internalType": "address",
          "name": "sender",
          "type": "address"
        }
      ],
      "name": "RoleRevoked",
      "type": "event"
    },
    {
      "anonymous": false,
      "inputs": [
        {
          "indexed": false,
          "internalType": "address",
          "name": "accountAddress",
          "type": "address"
        },
        {
          "indexed": false,
          "internalType": "uint256",
          "name": "inflationRate",
          "type": "uint256"
        },
        {
          "indexed": false,
          "internalType": "uint256",
          "name": "inflationPeriod",
          "type": "uint256"
        }
      ],
      "name": "SetInflationRate",
      "type": "event"
    },
    {
      "anonymous": false,
      "inputs": [
        {
          "indexed": false,
          "internalType": "address",
          "name": "accountAddress",
          "type": "address"
        },
        {
          "indexed": false,
          "internalType": "uint256",
          "name": "supplyMaxLimit",
          "type": "uint256"
        }
      ],
      "name": "SetSupplyMaxLimit",
      "type": "event"
    },
    {
      "anonymous": false,
      "inputs": [
        {
          "indexed": false,
          "internalType": "address",
          "name": "vestingTimelockAddress",
          "type": "address"
        }
      ],
      "name": "SetVestingTimelockContract",
      "type": "event"
    },
    {
      "anonymous": false,
      "inputs": [
        {
          "indexed": true,
          "internalType": "address",
          "name": "from",
          "type": "address"
        },
        {
          "indexed": true,
          "internalType": "address",
          "name": "to",
          "type": "address"
        },
        {
          "indexed": false,
          "internalType": "uint256",
          "name": "value",
          "type": "uint256"
        }
      ],
      "name": "Transfer",
      "type": "event"
    },
    {
      "anonymous": false,
      "inputs": [
        {
          "indexed": false,
          "internalType": "address",
          "name": "account",
          "type": "address"
        }
      ],
      "name": "Unpaused",
      "type": "event"
    },
    {
      "inputs": [],
      "name": "AIRDROPPOOLALLOCATION",
      "outputs": [
        {
          "internalType": "uint256",
          "name": "",
          "type": "uint256"
        }
      ],
      "stateMutability": "view",
      "type": "function",
      "constant": true
    },
    {
      "inputs": [],
      "name": "ALPHALAUNCHPADPOOLALLOCATION",
      "outputs": [
        {
          "internalType": "uint256",
          "name": "",
          "type": "uint256"
        }
      ],
      "stateMutability": "view",
      "type": "function",
      "constant": true
    },
    {
      "inputs": [],
      "name": "COMMUNITYDEVELOPMENTFUNDPOOLALLOCATION",
      "outputs": [
        {
          "internalType": "uint256",
          "name": "",
          "type": "uint256"
        }
      ],
      "stateMutability": "view",
      "type": "function",
      "constant": true
    },
    {
      "inputs": [],
      "name": "DEFAULT_ADMIN_ROLE",
      "outputs": [
        {
          "internalType": "bytes32",
          "name": "",
          "type": "bytes32"
        }
      ],
      "stateMutability": "view",
      "type": "function",
      "constant": true
    },
    {
      "inputs": [],
      "name": "INCENTIVISATIONPOOLALLOCATION",
      "outputs": [
        {
          "internalType": "uint256",
          "name": "",
          "type": "uint256"
        }
      ],
      "stateMutability": "view",
      "type": "function",
      "constant": true
    },
    {
      "inputs": [],
      "name": "INFLATION_PERIOD",
      "outputs": [
        {
          "internalType": "uint256",
          "name": "",
          "type": "uint256"
        }
      ],
      "stateMutability": "view",
      "type": "function",
      "constant": true
    },
    {
      "inputs": [],
      "name": "INFLATION_RATE",
      "outputs": [
        {
          "internalType": "uint256",
          "name": "",
          "type": "uint256"
        }
      ],
      "stateMutability": "view",
      "type": "function",
      "constant": true
    },
    {
      "inputs": [],
      "name": "MINTER_ROLE",
      "outputs": [
        {
          "internalType": "bytes32",
          "name": "",
          "type": "bytes32"
        }
      ],
      "stateMutability": "view",
      "type": "function",
      "constant": true
    },
    {
      "inputs": [],
      "name": "PAUSER_ROLE",
      "outputs": [
        {
          "internalType": "bytes32",
          "name": "",
          "type": "bytes32"
        }
      ],
      "stateMutability": "view",
      "type": "function",
      "constant": true
    },
    {
      "inputs": [],
      "name": "PROTOCOLTREASURYPOOLALLOCATION",
      "outputs": [
        {
          "internalType": "uint256",
          "name": "",
          "type": "uint256"
        }
      ],
      "stateMutability": "view",
      "type": "function",
      "constant": true
    },
    {
      "inputs": [],
      "name": "RETROACTIVEREWARDPROTOCOLBOOTSTRAPPOOLALLOCATION",
      "outputs": [
        {
          "internalType": "uint256",
          "name": "",
          "type": "uint256"
        }
      ],
      "stateMutability": "view",
      "type": "function",
      "constant": true
    },
    {
      "inputs": [],
      "name": "SUPPLY_AT_GENESIS",
      "outputs": [
        {
          "internalType": "uint256",
          "name": "",
          "type": "uint256"
        }
      ],
      "stateMutability": "view",
      "type": "function",
      "constant": true
    },
    {
      "inputs": [],
      "name": "SUPPLY_MAX_LIMIT",
      "outputs": [
        {
          "internalType": "uint256",
          "name": "",
          "type": "uint256"
        }
      ],
      "stateMutability": "view",
      "type": "function",
      "constant": true
    },
    {
      "inputs": [],
      "name": "TOTAL_VESTED_SUPPLY",
      "outputs": [
        {
          "internalType": "uint256",
          "name": "",
          "type": "uint256"
        }
      ],
      "stateMutability": "view",
      "type": "function",
      "constant": true
    },
    {
      "inputs": [],
      "name": "VALUE_DIVISOR",
      "outputs": [
        {
          "internalType": "uint256",
          "name": "",
          "type": "uint256"
        }
      ],
      "stateMutability": "view",
      "type": "function",
      "constant": true
    },
    {
      "inputs": [],
      "name": "XPRTSTAKERSPOOLALLOCATION",
      "outputs": [
        {
          "internalType": "uint256",
          "name": "",
          "type": "uint256"
        }
      ],
      "stateMutability": "view",
      "type": "function",
      "constant": true
    },
    {
      "inputs": [],
      "name": "_airdropPool",
      "outputs": [
        {
          "internalType": "address",
          "name": "",
          "type": "address"
        }
      ],
      "stateMutability": "view",
      "type": "function",
      "constant": true
    },
    {
      "inputs": [],
      "name": "_alphaLaunchpadPool",
      "outputs": [
        {
          "internalType": "address",
          "name": "",
          "type": "address"
        }
      ],
      "stateMutability": "view",
      "type": "function",
      "constant": true
    },
    {
      "inputs": [],
      "name": "_communityDevelopmentFundPool",
      "outputs": [
        {
          "internalType": "address",
          "name": "",
          "type": "address"
        }
      ],
      "stateMutability": "view",
      "type": "function",
      "constant": true
    },
    {
      "inputs": [],
      "name": "_incentivisationPool",
      "outputs": [
        {
          "internalType": "address",
          "name": "",
          "type": "address"
        }
      ],
      "stateMutability": "view",
      "type": "function",
      "constant": true
    },
    {
      "inputs": [],
      "name": "_inflationPeriod",
      "outputs": [
        {
          "internalType": "uint256",
          "name": "",
          "type": "uint256"
        }
      ],
      "stateMutability": "view",
      "type": "function",
      "constant": true
    },
    {
      "inputs": [],
      "name": "_inflationRate",
      "outputs": [
        {
          "internalType": "uint256",
          "name": "",
          "type": "uint256"
        }
      ],
      "stateMutability": "view",
      "type": "function",
      "constant": true
    },
    {
      "inputs": [],
      "name": "_lastInflationBlockTime",
      "outputs": [
        {
          "internalType": "uint256",
          "name": "",
          "type": "uint256"
        }
      ],
      "stateMutability": "view",
      "type": "function",
      "constant": true
    },
    {
      "inputs": [],
      "name": "_protocolTreasuryPool",
      "outputs": [
        {
          "internalType": "address",
          "name": "",
          "type": "address"
        }
      ],
      "stateMutability": "view",
      "type": "function",
      "constant": true
    },
    {
      "inputs": [],
      "name": "_publicSalePool1",
      "outputs": [
        {
          "internalType": "address",
          "name": "",
          "type": "address"
        }
      ],
      "stateMutability": "view",
      "type": "function",
      "constant": true
    },
    {
      "inputs": [],
      "name": "_publicSalePool2",
      "outputs": [
        {
          "internalType": "address",
          "name": "",
          "type": "address"
        }
      ],
      "stateMutability": "view",
      "type": "function",
      "constant": true
    },
    {
      "inputs": [],
      "name": "_publicSalePool3",
      "outputs": [
        {
          "internalType": "address",
          "name": "",
          "type": "address"
        }
      ],
      "stateMutability": "view",
      "type": "function",
      "constant": true
    },
    {
      "inputs": [],
      "name": "_retroactiveRewardProtocolBootstrapPool",
      "outputs": [
        {
          "internalType": "address",
          "name": "",
          "type": "address"
        }
      ],
      "stateMutability": "view",
      "type": "function",
      "constant": true
    },
    {
      "inputs": [],
      "name": "_seedSalePool",
      "outputs": [
        {
          "internalType": "address",
          "name": "",
          "type": "address"
        }
      ],
      "stateMutability": "view",
      "type": "function",
      "constant": true
    },
    {
      "inputs": [],
      "name": "_supplyMaxLimit",
      "outputs": [
        {
          "internalType": "uint256",
          "name": "",
          "type": "uint256"
        }
      ],
      "stateMutability": "view",
      "type": "function",
      "constant": true
    },
    {
      "inputs": [],
      "name": "_teamPool",
      "outputs": [
        {
          "internalType": "address",
          "name": "",
          "type": "address"
        }
      ],
      "stateMutability": "view",
      "type": "function",
      "constant": true
    },
    {
      "inputs": [],
      "name": "_totalInflatedSupply",
      "outputs": [
        {
          "internalType": "uint256",
          "name": "",
          "type": "uint256"
        }
      ],
      "stateMutability": "view",
      "type": "function",
      "constant": true
    },
    {
      "inputs": [],
      "name": "_valueDivisor",
      "outputs": [
        {
          "internalType": "uint256",
          "name": "",
          "type": "uint256"
        }
      ],
      "stateMutability": "view",
      "type": "function",
      "constant": true
    },
    {
      "inputs": [],
      "name": "_version",
      "outputs": [
        {
          "internalType": "uint256",
          "name": "",
          "type": "uint256"
        }
      ],
      "stateMutability": "view",
      "type": "function",
      "constant": true
    },
    {
      "inputs": [],
      "name": "_vestingTimelockAddress",
      "outputs": [
        {
          "internalType": "address",
          "name": "",
          "type": "address"
        }
      ],
      "stateMutability": "view",
      "type": "function",
      "constant": true
    },
    {
      "inputs": [],
      "name": "_xprtStakersPool",
      "outputs": [
        {
          "internalType": "address",
          "name": "",
          "type": "address"
        }
      ],
      "stateMutability": "view",
      "type": "function",
      "constant": true
    },
    {
      "inputs": [
        {
          "internalType": "address",
          "name": "owner",
          "type": "address"
        },
        {
          "internalType": "address",
          "name": "spender",
          "type": "address"
        }
      ],
      "name": "allowance",
      "outputs": [
        {
          "internalType": "uint256",
          "name": "",
          "type": "uint256"
        }
      ],
      "stateMutability": "view",
      "type": "function",
      "constant": true
    },
    {
      "inputs": [
        {
          "internalType": "address",
          "name": "spender",
          "type": "address"
        },
        {
          "internalType": "uint256",
          "name": "amount",
          "type": "uint256"
        }
      ],
      "name": "approve",
      "outputs": [
        {
          "internalType": "bool",
          "name": "",
          "type": "bool"
        }
      ],
      "stateMutability": "nonpayable",
      "type": "function"
    },
    {
      "inputs": [
        {
          "internalType": "address",
          "name": "account",
          "type": "address"
        }
      ],
      "name": "balanceOf",
      "outputs": [
        {
          "internalType": "uint256",
          "name": "",
          "type": "uint256"
        }
      ],
      "stateMutability": "view",
      "type": "function",
      "constant": true
    },
    {
      "inputs": [],
      "name": "decimals",
      "outputs": [
        {
          "internalType": "uint8",
          "name": "",
          "type": "uint8"
        }
      ],
      "stateMutability": "view",
      "type": "function",
      "constant": true
    },
    {
      "inputs": [
        {
          "internalType": "address",
          "name": "spender",
          "type": "address"
        },
        {
          "internalType": "uint256",
          "name": "subtractedValue",
          "type": "uint256"
        }
      ],
      "name": "decreaseAllowance",
      "outputs": [
        {
          "internalType": "bool",
          "name": "",
          "type": "bool"
        }
      ],
      "stateMutability": "nonpayable",
      "type": "function"
    },
    {
      "inputs": [
        {
          "internalType": "bytes32",
          "name": "role",
          "type": "bytes32"
        }
      ],
      "name": "getRoleAdmin",
      "outputs": [
        {
          "internalType": "bytes32",
          "name": "",
          "type": "bytes32"
        }
      ],
      "stateMutability": "view",
      "type": "function",
      "constant": true
    },
    {
      "inputs": [
        {
          "internalType": "bytes32",
          "name": "role",
          "type": "bytes32"
        },
        {
          "internalType": "uint256",
          "name": "index",
          "type": "uint256"
        }
      ],
      "name": "getRoleMember",
      "outputs": [
        {
          "internalType": "address",
          "name": "",
          "type": "address"
        }
      ],
      "stateMutability": "view",
      "type": "function",
      "constant": true
    },
    {
      "inputs": [
        {
          "internalType": "bytes32",
          "name": "role",
          "type": "bytes32"
        }
      ],
      "name": "getRoleMemberCount",
      "outputs": [
        {
          "internalType": "uint256",
          "name": "",
          "type": "uint256"
        }
      ],
      "stateMutability": "view",
      "type": "function",
      "constant": true
    },
    {
      "inputs": [
        {
          "internalType": "bytes32",
          "name": "role",
          "type": "bytes32"
        },
        {
          "internalType": "address",
          "name": "account",
          "type": "address"
        }
      ],
      "name": "grantRole",
      "outputs": [],
      "stateMutability": "nonpayable",
      "type": "function"
    },
    {
      "inputs": [
        {
          "internalType": "bytes32",
          "name": "role",
          "type": "bytes32"
        },
        {
          "internalType": "address",
          "name": "account",
          "type": "address"
        }
      ],
      "name": "hasRole",
      "outputs": [
        {
          "internalType": "bool",
          "name": "",
          "type": "bool"
        }
      ],
      "stateMutability": "view",
      "type": "function",
      "constant": true
    },
    {
      "inputs": [
        {
          "internalType": "address",
          "name": "spender",
          "type": "address"
        },
        {
          "internalType": "uint256",
          "name": "addedValue",
          "type": "uint256"
        }
      ],
      "name": "increaseAllowance",
      "outputs": [
        {
          "internalType": "bool",
          "name": "",
          "type": "bool"
        }
      ],
      "stateMutability": "nonpayable",
      "type": "function"
    },
    {
      "inputs": [],
      "name": "name",
      "outputs": [
        {
          "internalType": "string",
          "name": "",
          "type": "string"
        }
      ],
      "stateMutability": "view",
      "type": "function",
      "constant": true
    },
    {
      "inputs": [],
      "name": "paused",
      "outputs": [
        {
          "internalType": "bool",
          "name": "",
          "type": "bool"
        }
      ],
      "stateMutability": "view",
      "type": "function",
      "constant": true
    },
    {
      "inputs": [
        {
          "internalType": "bytes32",
          "name": "role",
          "type": "bytes32"
        },
        {
          "internalType": "address",
          "name": "account",
          "type": "address"
        }
      ],
      "name": "renounceRole",
      "outputs": [],
      "stateMutability": "nonpayable",
      "type": "function"
    },
    {
      "inputs": [
        {
          "internalType": "bytes32",
          "name": "role",
          "type": "bytes32"
        },
        {
          "internalType": "address",
          "name": "account",
          "type": "address"
        }
      ],
      "name": "revokeRole",
      "outputs": [],
      "stateMutability": "nonpayable",
      "type": "function"
    },
    {
      "inputs": [],
      "name": "symbol",
      "outputs": [
        {
          "internalType": "string",
          "name": "",
          "type": "string"
        }
      ],
      "stateMutability": "view",
      "type": "function",
      "constant": true
    },
    {
      "inputs": [],
      "name": "totalSupply",
      "outputs": [
        {
          "internalType": "uint256",
          "name": "",
          "type": "uint256"
        }
      ],
      "stateMutability": "view",
      "type": "function",
      "constant": true
    },
    {
      "inputs": [
        {
          "internalType": "address",
          "name": "recipient",
          "type": "address"
        },
        {
          "internalType": "uint256",
          "name": "amount",
          "type": "uint256"
        }
      ],
      "name": "transfer",
      "outputs": [
        {
          "internalType": "bool",
          "name": "",
          "type": "bool"
        }
      ],
      "stateMutability": "nonpayable",
      "type": "function"
    },
    {
      "inputs": [
        {
          "internalType": "address",
          "name": "sender",
          "type": "address"
        },
        {
          "internalType": "address",
          "name": "recipient",
          "type": "address"
        },
        {
          "internalType": "uint256",
          "name": "amount",
          "type": "uint256"
        }
      ],
      "name": "transferFrom",
      "outputs": [
        {
          "internalType": "bool",
          "name": "",
          "type": "bool"
        }
      ],
      "stateMutability": "nonpayable",
      "type": "function"
    },
    {
      "inputs": [
        {
          "internalType": "address",
          "name": "vestingTimelockAddress",
          "type": "address"
        },
        {
          "internalType": "address",
          "name": "airdropPool",
          "type": "address"
        },
        {
          "internalType": "address",
          "name": "alphaLaunchpadPool",
          "type": "address"
        },
        {
          "internalType": "address",
          "name": "seedSalePool",
          "type": "address"
        },
        {
          "internalType": "address",
          "name": "publicSalePool1",
          "type": "address"
        },
        {
          "internalType": "address",
          "name": "publicSalePool2",
          "type": "address"
        },
        {
          "internalType": "address",
          "name": "publicSalePool3",
          "type": "address"
        },
        {
          "internalType": "address",
          "name": "teamPool",
          "type": "address"
        },
        {
          "internalType": "address",
          "name": "incentivisationPool",
          "type": "address"
        },
        {
          "internalType": "address",
          "name": "xprtStakersPool",
          "type": "address"
        },
        {
          "internalType": "address",
          "name": "protocolTreasuryPool",
          "type": "address"
        },
        {
          "internalType": "address",
          "name": "communityDevelopmentFundPool",
          "type": "address"
        },
        {
          "internalType": "address",
          "name": "retroactiveRewardProtocolBootstrapPool",
          "type": "address"
        }
      ],
      "name": "initialize",
      "outputs": [],
      "stateMutability": "nonpayable",
      "type": "function"
    },
    {
      "inputs": [],
      "name": "checkInflation",
      "outputs": [
        {
          "internalType": "uint256",
          "name": "totalInflatedSupply",
          "type": "uint256"
        },
        {
          "internalType": "uint256",
          "name": "lastInflationBlockTime",
          "type": "uint256"
        }
      ],
      "stateMutability": "nonpayable",
      "type": "function"
    },
    {
      "inputs": [],
      "name": "getInflation",
      "outputs": [
        {
          "internalType": "uint256",
          "name": "totalInflatedSupply",
          "type": "uint256"
        },
        {
          "internalType": "uint256",
          "name": "inflationRate",
          "type": "uint256"
        },
        {
          "internalType": "uint256",
          "name": "valueDivisor",
          "type": "uint256"
        },
        {
          "internalType": "uint256",
          "name": "inflationPeriod",
          "type": "uint256"
        },
        {
          "internalType": "uint256",
          "name": "lastInflationBlockTime",
          "type": "uint256"
        },
        {
          "internalType": "uint256",
          "name": "supplyMaxLimit",
          "type": "uint256"
        }
      ],
      "stateMutability": "view",
      "type": "function",
      "constant": true
    },
    {
      "inputs": [
        {
          "internalType": "uint256",
          "name": "inflationRate",
          "type": "uint256"
        },
        {
          "internalType": "uint256",
          "name": "inflationPeriod",
          "type": "uint256"
        }
      ],
      "name": "setInflation",
      "outputs": [
        {
          "internalType": "bool",
          "name": "success",
          "type": "bool"
        }
      ],
      "stateMutability": "nonpayable",
      "type": "function"
    },
    {
      "inputs": [
        {
          "internalType": "uint256",
          "name": "supplyMaxLimit",
          "type": "uint256"
        }
      ],
      "name": "setSupplyMaxLimit",
      "outputs": [
        {
          "internalType": "bool",
          "name": "success",
          "type": "bool"
        }
      ],
      "stateMutability": "nonpayable",
      "type": "function"
    },
    {
      "inputs": [
        {
          "internalType": "address",
          "name": "to",
          "type": "address"
        },
        {
          "internalType": "uint256",
          "name": "tokens",
          "type": "uint256"
        }
      ],
      "name": "mint",
      "outputs": [
        {
          "internalType": "bool",
          "name": "success",
          "type": "bool"
        }
      ],
      "stateMutability": "nonpayable",
      "type": "function"
    },
    {
      "inputs": [
        {
          "internalType": "address",
          "name": "vestingTimelockAddress",
          "type": "address"
        }
      ],
      "name": "setVestingTimelockContract",
      "outputs": [],
      "stateMutability": "nonpayable",
      "type": "function"
    },
    {
      "inputs": [
        {
          "internalType": "address",
          "name": "beneficiary",
          "type": "address"
        },
        {
          "internalType": "uint256",
          "name": "startTime",
          "type": "uint256"
        },
        {
          "internalType": "uint256",
          "name": "cliffPeriod",
          "type": "uint256"
        },
        {
          "internalType": "uint256",
          "name": "instalmentAmount",
          "type": "uint256"
        },
        {
          "internalType": "uint256",
          "name": "instalmentCount",
          "type": "uint256"
        },
        {
          "internalType": "uint256",
          "name": "instalmentPeriod",
          "type": "uint256"
        }
      ],
      "name": "addVesting",
      "outputs": [
        {
          "internalType": "uint256",
          "name": "totalVestingAmount",
          "type": "uint256"
        }
      ],
      "stateMutability": "nonpayable",
      "type": "function"
    },
    {
      "inputs": [],
      "name": "pause",
      "outputs": [
        {
          "internalType": "bool",
          "name": "success",
          "type": "bool"
        }
      ],
      "stateMutability": "nonpayable",
      "type": "function"
    },
    {
      "inputs": [],
      "name": "unpause",
      "outputs": [
        {
          "internalType": "bool",
          "name": "success",
          "type": "bool"
        }
      ],
      "stateMutability": "nonpayable",
      "type": "function"
    }
  ],
  "bytecode": "0x608060405234801561001057600080fd5b50613071806100206000396000f3fe608060405234801561001057600080fd5b50600436106103db5760003560e01c80638321296d1161020a578063c32ab7f711610125578063d547741f116100b8578063e2f97bb011610087578063e2f97bb0146109e6578063e63ab1e9146109ee578063e6f0dfdf146109f6578063ef22082c146109fe578063f2e7ccc914610a06576103db565b8063d547741f14610949578063d5a9577114610975578063dd62ed3e146109b0578063e1e2e3bf146109de576103db565b8063cb31a85f116100f4578063cb31a85f14610929578063cdc6c53714610931578063d182a8c914610939578063d539139314610941576103db565b8063c32ab7f7146108f4578063c947755a146108fc578063c94d747b14610904578063ca15c8731461090c576103db565b8063a457c2d71161019d578063b381a8111161016c578063b381a811146108d4578063b4029d5e146108dc578063b999f6d0146108e4578063b9c266ba146108ec576103db565b8063a457c2d71461086c578063a55ba9d414610898578063a60d5e2d146108a0578063a9059cbb146108a8576103db565b806391d14854116101d957806391d148541461082857806395d89b411461085457806398e8fd021461085c578063a217fddf14610864576103db565b80638321296d146107d85780638456cb59146107f55780638969873f146107fd5780639010d07c14610805576103db565b80633f4ba83a116102fa5780635d2ae67b1161028d578063710679631161025c57806371067963146107b8578063728a99ee146107c05780637744e3c7146107c85780637b17361c146107d0576103db565b80635d2ae67b146107615780635e07970b146107695780636789dafd1461077157806370a0823114610792576103db565b80634ad3087c116102c95780634ad3087c146107055780634b5c79ad1461070d5780635b0d59e6146107155780635c975abb14610759576103db565b80633f4ba83a146106a657806340c10f19146106ae578063453c69cb146106da578063499f002c146106fd576103db565b80632cc39ff51161037257806336568abe1161034157806336568abe1461063e578063395093511461066a5780633aed93b6146106965780633e118dbe1461069e576103db565b80632cc39ff51461055e5780632f2ff15d146105665780632fdd983d14610592578063313ce56714610620576103db565b806318160ddd116103ae57806318160ddd146104db57806320dd4868146104e357806323b872dd1461050b578063248a9ca314610541576103db565b806306fdde03146103e0578063095ea7b31461045d5780630cf79b2a1461049d5780630e054f02146104b7575b600080fd5b6103e8610a0e565b6040805160208082528351818301528351919283929083019185019080838360005b8381101561042257818101518382015260200161040a565b50505050905090810190601f16801561044f5780820380516001836020036101000a031916815260200191505b509250505060405180910390f35b6104896004803603604081101561047357600080fd5b506001600160a01b038135169060200135610aa4565b604080519115158252519081900360200190f35b6104a5610ac2565b60408051918252519081900360200190f35b6104bf610ad1565b604080516001600160a01b039092168252519081900360200190f35b6104a5610ae0565b610509600480360360208110156104f957600080fd5b50356001600160a01b0316610ae6565b005b6104896004803603606081101561052157600080fd5b506001600160a01b03813581169160208101359091169060400135610bc8565b6104a56004803603602081101561055757600080fd5b5035610c50565b6104bf610c65565b6105096004803603604081101561057c57600080fd5b50803590602001356001600160a01b0316610c75565b61050960048036036101a08110156105a957600080fd5b506001600160a01b038135811691602081013582169160408201358116916060810135821691608082013581169160a081013582169160c082013581169160e08101358216916101008201358116916101208101358216916101408201358116916101608101358216916101809091013516610cdc565b6106286111ba565b6040805160ff9092168252519081900360200190f35b6105096004803603604081101561065457600080fd5b50803590602001356001600160a01b03166111c3565b6104896004803603604081101561068057600080fd5b506001600160a01b038135169060200135611224565b6104a5611272565b6104a5611282565b610489611288565b610489600480360360408110156106c457600080fd5b506001600160a01b0381351690602001356112e9565b610489600480360360408110156106f057600080fd5b50803590602001356113b1565b6104a5611530565b6104a5611537565b6104bf611546565b6104a5600480360360c081101561072b57600080fd5b506001600160a01b038135169060208101359060408101359060608101359060808101359060a00135611555565b610489611784565b6104a561178d565b6104bf61179c565b6107796117ac565b6040805192835260208301919091528051918290030190f35b6104a5600480360360208110156107a857600080fd5b50356001600160a01b0316611806565b6104bf611821565b6104a5611831565b6104a5611837565b6104a561183e565b610489600480360360208110156107ee57600080fd5b5035611846565b610489611942565b6104a561199d565b6104bf6004803603604081101561081b57600080fd5b50803590602001356119ac565b6104896004803603604081101561083e57600080fd5b50803590602001356001600160a01b03166119c4565b6103e86119dc565b6104bf611a3d565b6104a5611a4d565b6104896004803603604081101561088257600080fd5b506001600160a01b038135169060200135611a52565b6104a5611aba565b6104a5611aca565b610489600480360360408110156108be57600080fd5b506001600160a01b038135169060200135611ad1565b6104a5611ae5565b6104bf611aee565b6104bf611afe565b6104bf611b0e565b6104bf611b1e565b6104a5611b2e565b6104a5611b36565b6104a56004803603602081101561092257600080fd5b5035611b45565b6104bf611b5c565b6104a5611b6c565b6104a5611b7b565b6104a5611b8b565b6105096004803603604081101561095f57600080fd5b50803590602001356001600160a01b0316611baf565b61097d611c08565b604080519687526020870195909552858501939093526060850191909152608084015260a0830152519081900360c00190f35b6104a5600480360360408110156109c657600080fd5b506001600160a01b0381358116916020013516611c27565b6104bf611c52565b6104bf611c62565b6104a5611c71565b6104a5611c83565b6104a5611c8a565b6104a5611c91565b60368054604080516020601f6002600019610100600188161502019095169490940493840181900481028201810190925282815260609390929091830182828015610a9a5780601f10610a6f57610100808354040283529160200191610a9a565b820191906000526020600020905b815481529060010190602001808311610a7d57829003601f168201915b5050505050905090565b6000610ab8610ab1611ca0565b8484611ca4565b5060015b92915050565b6a0aefea174389736478000081565b60fd546001600160a01b031681565b60355490565b610af86000610af3611ca0565b6119c4565b610b2f576040805162461bcd60e51b815260206004820152600360248201526228299b60e91b604482015290519081900360640190fd5b6001600160a01b038116610b73576040805162461bcd60e51b815260206004808301919091526024820152635053313160e01b604482015290519081900360640190fd5b61010980546001600160a01b0383166001600160a01b0319909116811790915560408051918252517f5e31e3a89ede0d5e39be17ca2a414f0dbdfd4f9a8a9a1054a8358fdf84581ab49181900360200190a150565b6000610bd5848484611d90565b610c4584610be1611ca0565b610c4085604051806060016040528060288152602001612f57602891396001600160a01b038a16600090815260346020526040812090610c1f611ca0565b6001600160a01b031681526020810191909152604001600020549190611eed565b611ca4565b5060015b9392505050565b60009081526097602052604090206002015490565b610104546001600160a01b031681565b600082815260976020526040902060020154610c9390610af3611ca0565b610cce5760405162461bcd60e51b815260040180806020018281038252602f815260200180612e61602f913960400191505060405180910390fd5b610cd88282611f84565b5050565b600054610100900460ff1680610cf55750610cf5611fed565b80610d03575060005460ff16155b610d3e5760405162461bcd60e51b815260040180806020018281038252602e815260200180612f08602e913960400191505060405180910390fd5b600054610100900460ff16158015610d69576000805460ff1961ff0019909116610100171660011790555b610db56040518060400160405280600c81526020016b3829aa20a5a2902a37b5b2b760a11b81525060405180604001604052806006815260200165505354414b4560d01b815250611ffe565b610dbd6120b4565b610dc5612166565b610dd76000610dd2611ca0565b610cce565b610df1600080516020612f7f833981519152610dd2611ca0565b610e1d7f9f2df0fed2c77648de5860a4cc508cd0818c85b8b8a1ab4ceeef8d981c8956a6610dd2611ca0565b600160fb819055508d61010960006101000a8154816001600160a01b0302191690836001600160a01b03160217905550610e576012612203565b633b9aca0060fc819055506b019d971e4fe8401e7400000061010a819055506b0409f9cbc7c4a04c2200000061010e819055508c60fd60006101000a8154816001600160a01b0302191690836001600160a01b031602179055508b60fe60006101000a8154816001600160a01b0302191690836001600160a01b031602179055508a60ff60006101000a8154816001600160a01b0302191690836001600160a01b031602179055508961010060006101000a8154816001600160a01b0302191690836001600160a01b031602179055508861010160006101000a8154816001600160a01b0302191690836001600160a01b031602179055508761010260006101000a8154816001600160a01b0302191690836001600160a01b031602179055508661010360006101000a8154816001600160a01b0302191690836001600160a01b031602179055508561010460006101000a8154816001600160a01b0302191690836001600160a01b031602179055508461010560006101000a8154816001600160a01b0302191690836001600160a01b031602179055508361010660006101000a8154816001600160a01b0302191690836001600160a01b031602179055508261010760006101000a8154816001600160a01b0302191690836001600160a01b031602179055508161010860006101000a8154816001600160a01b0302191690836001600160a01b0316021790555061109160fd60009054906101000a90046001600160a01b03166a0422ca8b0a00a425000000612219565b60fe546110b2906001600160a01b03166a084595161401484a000000612219565b610104546110d4906001600160a01b03166a0aefea1743897364780000612219565b610105546110f6906001600160a01b03166a0108b2a2c2802909400000612219565b61010654611118906001600160a01b03166a0383f8f62ee6f1ec400000612219565b6101075461113a906001600160a01b03166a0160ee32f8e7c7eecc0000612219565b6101085461115c906001600160a01b03166a0bfe7e93369b759e800000612219565b611172306b017452bc3865ca661dbc00006112e9565b50610109546111989030906001600160a01b03166b017452bc3865ca661dbc0000611ca4565b80156111aa576000805461ff00191690555b5050505050505050505050505050565b60385460ff1690565b6111cb611ca0565b6001600160a01b0316816001600160a01b03161461121a5760405162461bcd60e51b815260040180806020018281038252602f81526020018061300d602f913960400191505060405180910390fd5b610cd8828261230b565b6000610ab8611231611ca0565b84610c408560346000611242611ca0565b6001600160a01b03908116825260208083019390935260409182016000908120918c168152925290205490612374565b6b017452bc3865ca661dbc000081565b60fb5481565b60006112a4600080516020612f7f833981519152610af3611ca0565b6112db576040805162461bcd60e51b81526020600482015260036024820152621414cd60ea1b604482015290519081900360640190fd5b6112e36123ce565b50600190565b60006113177f9f2df0fed2c77648de5860a4cc508cd0818c85b8b8a1ab4ceeef8d981c8956a6610af3611ca0565b61134e576040805162461bcd60e51b815260206004820152600360248201526250533160e81b604482015290519081900360640190fd5b61135661246e565b505061010a5461136e83611368610ae0565b90612374565b11156113a7576040805162461bcd60e51b815260206004820152600360248201526228299960e91b604482015290519081900360640190fd5b610ab88383612219565b60006113bf81610af3611ca0565b6113f6576040805162461bcd60e51b815260206004820152600360248201526205053360ec1b604482015290519081900360640190fd5b60fc5461140490606461262a565b83111561143e576040805162461bcd60e51b815260206004820152600360248201526250533760e81b604482015290519081900360640190fd5b60008211611479576040805162461bcd60e51b815260206004820152600360248201526250533960e81b604482015290519081900360640190fd5b61148161246e565b505061010b83905561010c82905561010d546114d6576114cc6114c260646114bc61010b5460fc5461010a546126839092919063ffffffff16565b9061273c565b61010a5490612374565b61010a554261010d555b5060017f3626ade5797d5d9ff68b2dd6193599e26a3cb5d1f6afb37ca308e7533ff620e5611502611ca0565b604080516001600160a01b03909216825260208201869052818101859052519081900360600190a192915050565b61010d5481565b6a0108b2a2c280290940000081565b60ff546001600160a01b031681565b6000600260c95414156115af576040805162461bcd60e51b815260206004820152601f60248201527f5265656e7472616e637947756172643a207265656e7472616e742063616c6c00604482015290519081900360640190fd5b600260c9556115c16000610af3611ca0565b6115fb576040805162461bcd60e51b815260206004808301919091526024820152632829989960e11b604482015290519081900360640190fd5b611605848461262a565b610109549091506116209030906001600160a01b0316611c27565b81111561164057610109546116409030906001600160a01b031683611ca4565b610109546040805163d41c912560e01b81523060048201526001600160a01b038a81166024830152604482018a9052606482018990526084820188905260a4820187905260c482018690529151919092169163d41c91259160e48083019260209291908290030181600087803b1580156116b957600080fd5b505af11580156116cd573d6000803e3d6000fd5b505050506040513d60208110156116e357600080fd5b507fe15747a0fb729eba912c4bff7340d0ba7e74e36b43b68640e5b336c9773e75af90503088888885898989611717611ca0565b604080516001600160a01b039a8b168152988a1660208a0152888101979097526060880195909552608087019390935260a086019190915260c085015260e0840152909216610100820152426101208201529051908190036101400190a1600160c9559695505050505050565b60655460ff1690565b6a0bfe7e93369b759e80000081565b610100546001600160a01b031681565b6000806117bb81610af3611ca0565b6117f5576040805162461bcd60e51b815260206004808301919091526024820152635053313360e01b604482015290519081900360640190fd5b6117fd61246e565b90939092509050565b6001600160a01b031660009081526033602052604090205490565b610107546001600160a01b031681565b60fc5481565b61010e5481565b633b9aca0081565b600061185481610af3611ca0565b61188b576040805162461bcd60e51b81526020600482015260036024820152620a0a6760eb1b604482015290519081900360640190fd5b61010a548210156118cc576040805162461bcd60e51b815260206004808301919091526024820152630505331360e41b604482015290519081900360640190fd5b6118d461246e565b505061010a5461010e5414156118ea574261010d555b5061010e81905560017fc7ef0200a4197b576e0fd91f28652dedae560532b3d4ea0193cc124b3c16f4cf61191c611ca0565b604080516001600160a01b039092168252602082018590528051918290030190a1919050565b600061195e600080516020612f7f833981519152610af3611ca0565b611995576040805162461bcd60e51b815260206004820152600360248201526250533360e81b604482015290519081900360640190fd5b6112e36127a3565b6a084595161401484a00000081565b6000828152609760205260408120610c499083612826565b6000828152609760205260408120610c499083612832565b60378054604080516020601f6002600019610100600188161502019095169490940493840181900481028201810190925282815260609390929091830182828015610a9a5780601f10610a6f57610100808354040283529160200191610a9a565b610105546001600160a01b031681565b600081565b6000610ab8611a5f611ca0565b84610c4085604051806060016040528060258152602001612fe86025913960346000611a89611ca0565b6001600160a01b03908116825260208083019390935260409182016000908120918d16815292529020549190611eed565b6b0409f9cbc7c4a04c2200000081565b61010c5481565b6000610ab8611ade611ca0565b8484611d90565b64037e11d60081565b610103546001600160a01b031681565b610102546001600160a01b031681565b610101546001600160a01b031681565b610106546001600160a01b031681565b6301e1338081565b6a0422ca8b0a00a42500000081565b6000818152609760205260408120610abc90612847565b610109546001600160a01b031681565b6a0383f8f62ee6f1ec40000081565b6b019d971e4fe8401e7400000081565b7f9f2df0fed2c77648de5860a4cc508cd0818c85b8b8a1ab4ceeef8d981c8956a681565b600082815260976020526040902060020154611bcd90610af3611ca0565b61121a5760405162461bcd60e51b8152600401808060200182810382526030815260200180612ed86030913960400191505060405180910390fd5b61010a5461010b5460fc5461010c5461010d5461010e54909192939495565b6001600160a01b03918216600090815260346020908152604080832093909416825291909152205490565b610108546001600160a01b031681565b60fe546001600160a01b031681565b600080516020612f7f83398151915281565b61010a5481565b61010b5481565b6a0160ee32f8e7c7eecc000081565b3390565b6001600160a01b038316611ce95760405162461bcd60e51b8152600401808060200182810382526024815260200180612fc46024913960400191505060405180910390fd5b6001600160a01b038216611d2e5760405162461bcd60e51b8152600401808060200182810382526022815260200180612e906022913960400191505060405180910390fd5b6001600160a01b03808416600081815260346020908152604080832094871680845294825291829020859055815185815291517f8c5be1e5ebec7d5bd14f71427d1e84f3dd0314c0f7b2291e5b200ac8c7c3b9259281900390910190a3505050565b6001600160a01b038316611dd55760405162461bcd60e51b8152600401808060200182810382526025815260200180612f9f6025913960400191505060405180910390fd5b6001600160a01b038216611e1a5760405162461bcd60e51b8152600401808060200182810382526023815260200180612e3e6023913960400191505060405180910390fd5b611e25838383612852565b611e6281604051806060016040528060268152602001612eb2602691396001600160a01b0386166000908152603360205260409020549190611eed565b6001600160a01b038085166000908152603360205260408082209390935590841681522054611e919082612374565b6001600160a01b0380841660008181526033602090815260409182902094909455805185815290519193928716927fddf252ad1be2c89b69c2b068fc378daa952ba7f163c4a11628f55a4df523b3ef92918290030190a3505050565b60008184841115611f7c5760405162461bcd60e51b81526004018080602001828103825283818151815260200191508051906020019080838360005b83811015611f41578181015183820152602001611f29565b50505050905090810190601f168015611f6e5780820380516001836020036101000a031916815260200191505b509250505060405180910390fd5b505050900390565b6000828152609760205260409020611f9c908261289d565b15610cd857611fa9611ca0565b6001600160a01b0316816001600160a01b0316837f2f8788117e7eff1d82e926ec794901d17c78024a50270940304540a733656f0d60405160405180910390a45050565b6000611ff8306128b2565b15905090565b600054610100900460ff16806120175750612017611fed565b80612025575060005460ff16155b6120605760405162461bcd60e51b815260040180806020018281038252602e815260200180612f08602e913960400191505060405180910390fd5b600054610100900460ff1615801561208b576000805460ff1961ff0019909116610100171660011790555b6120936128b8565b61209d8383612958565b80156120af576000805461ff00191690555b505050565b600054610100900460ff16806120cd57506120cd611fed565b806120db575060005460ff16155b6121165760405162461bcd60e51b815260040180806020018281038252602e815260200180612f08602e913960400191505060405180910390fd5b600054610100900460ff16158015612141576000805460ff1961ff0019909116610100171660011790555b6121496128b8565b6121516128b8565b8015612163576000805461ff00191690555b50565b600054610100900460ff168061217f575061217f611fed565b8061218d575060005460ff16155b6121c85760405162461bcd60e51b815260040180806020018281038252602e815260200180612f08602e913960400191505060405180910390fd5b600054610100900460ff161580156121f3576000805460ff1961ff0019909116610100171660011790555b6121fb6128b8565b612151612a30565b6038805460ff191660ff92909216919091179055565b6001600160a01b038216612274576040805162461bcd60e51b815260206004820152601f60248201527f45524332303a206d696e7420746f20746865207a65726f206164647265737300604482015290519081900360640190fd5b61228060008383612852565b60355461228d9082612374565b6035556001600160a01b0382166000908152603360205260409020546122b39082612374565b6001600160a01b03831660008181526033602090815260408083209490945583518581529351929391927fddf252ad1be2c89b69c2b068fc378daa952ba7f163c4a11628f55a4df523b3ef9281900390910190a35050565b60008281526097602052604090206123239082612adb565b15610cd857612330611ca0565b6001600160a01b0316816001600160a01b0316837ff6391f5c32d9c69d2a47ea670b442974b53935d1edc7fd64eb21e047a839171b60405160405180910390a45050565b600082820183811015610c49576040805162461bcd60e51b815260206004820152601b60248201527f536166654d6174683a206164646974696f6e206f766572666c6f770000000000604482015290519081900360640190fd5b6123d6611784565b61241e576040805162461bcd60e51b815260206004820152601460248201527314185d5cd8589b194e881b9bdd081c185d5cd95960621b604482015290519081900360640190fd5b6065805460ff191690557f5db9ee0a495bf2e6ff9c91a7834c1ba4fdd244a5e8aa4e537bd38aeae4b073aa612451611ca0565b604080516001600160a01b039092168252519081900360200190a1565b60008061010e5461010a54101580612487575061010b54155b80612493575061010c54155b156124a757505061010a5461010d54612626565b60006124bf61010d5442612af090919063ffffffff16565b905060006124ee60646114bc61010b5460fc546b019d971e4fe8401e740000006126839092919063ffffffff16565b9050600061250861010c548461273c90919063ffffffff16565b90506000612516828461262a565b9050600061253061010c548461262a90919063ffffffff16565b905060008084156126125761010e5461010a5461254d9086612374565b11156125935761010a5461010e5461256491612af0565b61010e5461010a559150612579838386612683565b61010d5490915061258a9082612374565b61010d556125b8565b61010a546125a19085612374565b61010a5561010d546125b39084612374565b61010d555b7f36581a2b25903f92b9cf76ccf14ea53151d6f302d54de9ddb6259a7f67993bfd61010d546125f361010c548861262a90919063ffffffff16565b6040805192835260208301919091524282820152519081900360600190a15b61010d54975061010a549850505050505050505b9091565b60008261263957506000610abc565b8282028284828161264657fe5b0414610c495760405162461bcd60e51b8152600401808060200182810382526021815260200180612f366021913960400191505060405180910390fd5b60008060006126928686612b4d565b91509150600084806126a057fe5b8688099050828111156126b4576001820391505b9182900391816126d2578483816126c757fe5b049350505050610c49565b848210612726576040805162461bcd60e51b815260206004820152601a60248201527f46756c6c4d6174683a2046554c4c4449565f4f564552464c4f57000000000000604482015290519081900360640190fd5b612731838387612b7a565b979650505050505050565b6000808211612792576040805162461bcd60e51b815260206004820152601a60248201527f536166654d6174683a206469766973696f6e206279207a65726f000000000000604482015290519081900360640190fd5b81838161279b57fe5b049392505050565b6127ab611784565b156127f0576040805162461bcd60e51b815260206004820152601060248201526f14185d5cd8589b194e881c185d5cd95960821b604482015290519081900360640190fd5b6065805460ff191660011790557f62e78cea01bee320cd4e420270b5ea74000d11b0c9f74754ebdbfc544b05a258612451611ca0565b6000610c498383612bea565b6000610c49836001600160a01b038416612c4e565b6000610abc82612c66565b61285a611784565b15612892576040805162461bcd60e51b815260206004820152600360248201526250533560e81b604482015290519081900360640190fd5b6120af8383836120af565b6000610c49836001600160a01b038416612c6a565b3b151590565b600054610100900460ff16806128d157506128d1611fed565b806128df575060005460ff16155b61291a5760405162461bcd60e51b815260040180806020018281038252602e815260200180612f08602e913960400191505060405180910390fd5b600054610100900460ff16158015612151576000805460ff1961ff0019909116610100171660011790558015612163576000805461ff001916905550565b600054610100900460ff16806129715750612971611fed565b8061297f575060005460ff16155b6129ba5760405162461bcd60e51b815260040180806020018281038252602e815260200180612f08602e913960400191505060405180910390fd5b600054610100900460ff161580156129e5576000805460ff1961ff0019909116610100171660011790555b82516129f8906036906020860190612d7a565b508151612a0c906037906020850190612d7a565b506038805460ff1916601217905580156120af576000805461ff0019169055505050565b600054610100900460ff1680612a495750612a49611fed565b80612a57575060005460ff16155b612a925760405162461bcd60e51b815260040180806020018281038252602e815260200180612f08602e913960400191505060405180910390fd5b600054610100900460ff16158015612abd576000805460ff1961ff0019909116610100171660011790555b6065805460ff191690558015612163576000805461ff001916905550565b6000610c49836001600160a01b038416612cb4565b600082821115612b47576040805162461bcd60e51b815260206004820152601e60248201527f536166654d6174683a207375627472616374696f6e206f766572666c6f770000604482015290519081900360640190fd5b50900390565b6000808060001984860990508385029250828103915082811015612b72576001820391505b509250929050565b60008181038216808381612b8a57fe5b049250808581612b9657fe5b049450808160000381612ba557fe5b60028581038087028203028087028203028087028203028087028203028087028203028087028203029586029003909402930460010193909302939093010292915050565b81546000908210612c2c5760405162461bcd60e51b8152600401808060200182810382526022815260200180612e1c6022913960400191505060405180910390fd5b826000018281548110612c3b57fe5b9060005260206000200154905092915050565b60009081526001919091016020526040902054151590565b5490565b6000612c768383612c4e565b612cac57508154600181810184556000848152602080822090930184905584548482528286019093526040902091909155610abc565b506000610abc565b60008181526001830160205260408120548015612d705783546000198083019190810190600090879083908110612ce757fe5b9060005260206000200154905080876000018481548110612d0457fe5b600091825260208083209091019290925582815260018981019092526040902090840190558654879080612d3457fe5b60019003818190600052602060002001600090559055866001016000878152602001908152602001600020600090556001945050505050610abc565b6000915050610abc565b828054600181600116156101000203166002900490600052602060002090601f016020900481019282612db05760008555612df6565b82601f10612dc957805160ff1916838001178555612df6565b82800160010185558215612df6579182015b82811115612df6578251825591602001919060010190612ddb565b50612e02929150612e06565b5090565b5b80821115612e025760008155600101612e0756fe456e756d657261626c655365743a20696e646578206f7574206f6620626f756e647345524332303a207472616e7366657220746f20746865207a65726f2061646472657373416363657373436f6e74726f6c3a2073656e646572206d75737420626520616e2061646d696e20746f206772616e7445524332303a20617070726f766520746f20746865207a65726f206164647265737345524332303a207472616e7366657220616d6f756e7420657863656564732062616c616e6365416363657373436f6e74726f6c3a2073656e646572206d75737420626520616e2061646d696e20746f207265766f6b65496e697469616c697a61626c653a20636f6e747261637420697320616c726561647920696e697469616c697a6564536166654d6174683a206d756c7469706c69636174696f6e206f766572666c6f7745524332303a207472616e7366657220616d6f756e74206578636565647320616c6c6f77616e636565d7a28e3265b37a6474929f336521b332c1681b933f6cb9f3376673440d862a45524332303a207472616e736665722066726f6d20746865207a65726f206164647265737345524332303a20617070726f76652066726f6d20746865207a65726f206164647265737345524332303a2064656372656173656420616c6c6f77616e63652062656c6f77207a65726f416363657373436f6e74726f6c3a2063616e206f6e6c792072656e6f756e636520726f6c657320666f722073656c66a2646970667358221220f49ca82541f9d2b24269fb28128831f49f4af1fb1304e1537993c762aa7f9e1364736f6c63430007060033",
  "immutableReferences": {},
  "source": "// SPDX-License-Identifier: UNLICENSED\npragma solidity >=0.7.0;\n\nimport \"@openzeppelin/contracts-upgradeable/token/ERC20/ERC20Upgradeable.sol\";\nimport \"@openzeppelin/contracts-upgradeable/utils/PausableUpgradeable.sol\";\nimport \"@openzeppelin/contracts-upgradeable/access/AccessControlUpgradeable.sol\";\nimport \"@openzeppelin/contracts-upgradeable/utils/ReentrancyGuardUpgradeable.sol\";\nimport \"@openzeppelin/contracts-upgradeable/math/SafeMathUpgradeable.sol\";\nimport \"./libraries/FullMath.sol\";\nimport \"./interfaces/IVestingTimelockV2.sol\";\nimport \"./interfaces/IPSTAKE.sol\";\n\ncontract PSTAKE is\n  IPSTAKE,\n  ERC20Upgradeable,\n  PausableUpgradeable,\n  AccessControlUpgradeable,\n  ReentrancyGuardUpgradeable\n{\n  // including libraries\n  using SafeMathUpgradeable for uint256;\n  using FullMath for uint256;\n\n  // constants defining access control ROLES\n  bytes32 public constant PAUSER_ROLE = keccak256(\"PAUSER_ROLE\");\n  bytes32 public constant MINTER_ROLE = keccak256(\"MINTER_ROLE\");\n\n  // variable pertaining to contract upgrades versioning and value divisor\n  uint256 public _version;\n  uint256 public _valueDivisor;\n\n  // addresses pertaining to various tokenomics strategy\n  address public _airdropPool;\n  address public _alphaLaunchpadPool;\n  address public _seedSalePool;\n  address public _publicSalePool1;\n  address public _publicSalePool2;\n  address public _publicSalePool3;\n  address public _teamPool;\n  address public _incentivisationPool;\n  address public _xprtStakersPool;\n  address public _protocolTreasuryPool;\n  address public _communityDevelopmentFundPool;\n  address public _retroactiveRewardProtocolBootstrapPool;\n\n  // address of vesting timelock contract to enable several vesting strategy\n  address public _vestingTimelockAddress;\n\n  // total inflated supply and the supply limit component to implement inflation\n  uint256 public override _totalInflatedSupply;\n  uint256 public _inflationRate;\n  uint256 public _inflationPeriod;\n  uint256 public override _lastInflationBlockTime;\n  uint256 public override _supplyMaxLimit;\n\n  // constants for value allocation\n  uint256 public constant VALUE_DIVISOR = uint256(1e9);\n  uint256 public constant INFLATION_RATE = uint256(15e9);\n  uint256 public constant INFLATION_PERIOD = 365 days;\n  uint256 public constant SUPPLY_AT_GENESIS = uint256(500000000e18);\n  uint256 public constant TOTAL_VESTED_SUPPLY = uint256(450111111e18);\n  uint256 public constant SUPPLY_MAX_LIMIT = uint256(1250000000e18);\n\n  // pre-allocate tokens to strategy pools\n  uint256 public constant AIRDROPPOOLALLOCATION = uint256(5000000e18);\n  uint256 public constant ALPHALAUNCHPADPOOLALLOCATION = uint256(10000000e18);\n  uint256 public constant INCENTIVISATIONPOOLALLOCATION = uint256(13222222e18);\n  uint256 public constant XPRTSTAKERSPOOLALLOCATION = uint256(1250000e18);\n  uint256 public constant PROTOCOLTREASURYPOOLALLOCATION = uint256(4250000e18);\n  uint256 public constant COMMUNITYDEVELOPMENTFUNDPOOLALLOCATION =\n    uint256(1666667e18);\n  uint256 public constant RETROACTIVEREWARDPROTOCOLBOOTSTRAPPOOLALLOCATION =\n    uint256(14500000e18);\n\n  /**\n   * @dev Constructor for initializing the PSTAKE contract.\n   * @param vestingTimelockAddress - address of the vesting timelock contract.\n   * @param airdropPool - address of the airdrop pool.\n   * @param alphaLaunchpadPool - address of the alpha launchpad pool.\n   * @param seedSalePool - address of the seed sale pool.\n   * @param publicSalePool1 - address of the public sale pool1.\n   * @param publicSalePool2 - address of the public sale pool2.\n   * @param publicSalePool3 - address of the public sale pool3.\n   * @param teamPool - address of the team pool.\n   * @param incentivisationPool - address of the incentivising pool.\n   * @param xprtStakersPool - address of the xprt stakers pool.\n   * @param protocolTreasuryPool - address of the protocol treasury pool.\n   * @param communityDevelopmentFundPool - address of the community development fund pool.\n   * @param retroactiveRewardProtocolBootstrapPool - address of the retroactive reward protocol bootstrap pool.\n   */\n  function initialize(\n    address vestingTimelockAddress,\n    address airdropPool,\n    address alphaLaunchpadPool,\n    address seedSalePool,\n    address publicSalePool1,\n    address publicSalePool2,\n    address publicSalePool3,\n    address teamPool,\n    address incentivisationPool,\n    address xprtStakersPool,\n    address protocolTreasuryPool,\n    address communityDevelopmentFundPool,\n    address retroactiveRewardProtocolBootstrapPool\n  ) public virtual initializer {\n    __ERC20_init(\"pSTAKE Token\", \"PSTAKE\");\n    __AccessControl_init();\n    __Pausable_init();\n    _setupRole(DEFAULT_ADMIN_ROLE, _msgSender());\n    _setupRole(PAUSER_ROLE, _msgSender());\n    _setupRole(MINTER_ROLE, _msgSender());\n\n    // setup the version and vesting timelock contract\n    _version = 1;\n    _vestingTimelockAddress = vestingTimelockAddress;\n    // PSTAKE is an erc20 token hence 18 decimal places\n    _setupDecimals(18);\n    _valueDivisor = VALUE_DIVISOR;\n    // _inflationRate = INFLATION_RATE;\n    // _inflationPeriod = INFLATION_PERIOD;\n    // _lastInflationBlockTime = block.timestamp;\n    _totalInflatedSupply = uint256(SUPPLY_AT_GENESIS);\n    _supplyMaxLimit = SUPPLY_MAX_LIMIT;\n    // allocate the various tokenomics strategy pool addresses\n    // (must be different addresses because each address can have only one active vesting strategy at a time)\n    _airdropPool = airdropPool;\n    _alphaLaunchpadPool = alphaLaunchpadPool;\n    _seedSalePool = seedSalePool;\n    _publicSalePool1 = publicSalePool1;\n    _publicSalePool2 = publicSalePool2;\n    _publicSalePool3 = publicSalePool3;\n    _teamPool = teamPool;\n    _incentivisationPool = incentivisationPool;\n    _xprtStakersPool = xprtStakersPool;\n    _protocolTreasuryPool = protocolTreasuryPool;\n    _communityDevelopmentFundPool = communityDevelopmentFundPool;\n    _retroactiveRewardProtocolBootstrapPool = retroactiveRewardProtocolBootstrapPool;\n\n    // pre-allocate tokens to strategy pools\n    _mint(_airdropPool, AIRDROPPOOLALLOCATION);\n    _mint(_alphaLaunchpadPool, ALPHALAUNCHPADPOOLALLOCATION);\n    _mint(_incentivisationPool, INCENTIVISATIONPOOLALLOCATION);\n    _mint(_xprtStakersPool, XPRTSTAKERSPOOLALLOCATION);\n    _mint(_protocolTreasuryPool, PROTOCOLTREASURYPOOLALLOCATION);\n    _mint(\n      _communityDevelopmentFundPool,\n      COMMUNITYDEVELOPMENTFUNDPOOLALLOCATION\n    );\n    _mint(\n      _retroactiveRewardProtocolBootstrapPool,\n      RETROACTIVEREWARDPROTOCOLBOOTSTRAPPOOLALLOCATION\n    );\n\n    // accumulate tokens to allocate for vesting strategies (total supply - initial circulating supply)\n    mint(address(this), TOTAL_VESTED_SUPPLY);\n\n    // approve the vesting timelock contract to pull the tokens\n    _approve(address(this), _vestingTimelockAddress, TOTAL_VESTED_SUPPLY);\n\n    // ALLOCATING VESTING STRATEGIES\n\n    /* // airdrop pool\n    IVestingTimelockV2(_vestingTimelockAddress).addGrant(\n      address(this),\n      _airdropPool,\n      block.timestamp,\n      (30 days + 10 hours),\n      uint256(5000000e18),\n      5,\n      (30 days + 10 hours)\n    );\n\n    // seedSale pool\n    IVestingTimelockV2(_vestingTimelockAddress).addGrant(\n      address(this),\n      _seedSalePool,\n      block.timestamp,\n      // 6 months\n      (182 days + 12 hours),\n      uint256(8333333e18),\n      12,\n      (30 days + 10 hours)\n    );\n\n    // publicSalePool1 pool\n    IVestingTimelockV2(_vestingTimelockAddress).addGrant(\n      address(this),\n      _publicSalePool1,\n      block.timestamp,\n      // 6 months\n      (182 days + 12 hours),\n      uint256(833333e18),\n      6,\n      (30 days + 10 hours)\n    );\n\n    // publicSalePool2 pool\n    IVestingTimelockV2(_vestingTimelockAddress).addGrant(\n      address(this),\n      _publicSalePool2,\n      block.timestamp,\n      // 3 months\n      (91 days + 6 hours),\n      uint256(1666667e18),\n      6,\n      (30 days + 10 hours)\n    );\n\n    // publicSalePool3 pool\n    IVestingTimelockV2(_vestingTimelockAddress).addGrant(\n      address(this),\n      _publicSalePool3,\n      block.timestamp,\n      (30 days + 10 hours),\n      uint256(10000000e18),\n      1,\n      0\n    );\n\n    // team pool\n    IVestingTimelockV2(_vestingTimelockAddress).addGrant(\n      address(this),\n      _teamPool,\n      block.timestamp,\n      // 18 months\n      (547 days + 12 hours),\n      uint256(4444444e18),\n      18,\n      (30 days + 10 hours)\n    );\n\n    // incentivisation pool\n    IVestingTimelockV2(_vestingTimelockAddress).addGrant(\n      address(this),\n      _incentivisationPool,\n      block.timestamp,\n      // 3 months\n      (91 days + 6 hours),\n      uint256(13222222e18),\n      8,\n      // 3 months\n      (91 days + 6 hours)\n    );\n\n    // xprtStakers pool\n    IVestingTimelockV2(_vestingTimelockAddress).addGrant(\n      address(this),\n      _xprtStakersPool,\n      block.timestamp,\n      (30 days + 10 hours),\n      uint256(1250000e18),\n      11,\n      (30 days + 10 hours)\n    );\n\n    // protocolTreasury pool\n    IVestingTimelockV2(_vestingTimelockAddress).addGrant(\n      address(this),\n      _protocolTreasuryPool,\n      block.timestamp,\n      // 2 months\n      (60 days + 20 hours),\n      uint256(4250000e18),\n      17,\n      // 2 months\n      (60 days + 20 hours)\n    );\n\n    // communityDevelopmentFund pool\n    IVestingTimelockV2(_vestingTimelockAddress).addGrant(\n      address(this),\n      _communityDevelopmentFundPool,\n      block.timestamp,\n      // 3 months\n      (91 days + 6 hours),\n      uint256(1666667e18),\n      17,\n      // 3 months\n      (91 days + 6 hours)\n    ); */\n  }\n\n  /**\n   * @dev Check inflation\n   * Emits a {CheckInflation} event with 'block height', 'inflationComponent', and 'timestamp'.\n   *\n   */\n  function _checkInflation()\n    internal\n    returns (uint256 totalInflatedSupply, uint256 lastInflationBlockTime)\n  {\n    // if the _totalInflatedSupply has already reacted _supplyMaxLimit or inflation properties not set, then return\n    if (\n      _totalInflatedSupply >= _supplyMaxLimit ||\n      _inflationRate == 0 ||\n      _inflationPeriod == 0\n    ) return (_totalInflatedSupply, _lastInflationBlockTime);\n\n    // get the time since last inflation\n    uint256 timeSinceLastInflation = (block.timestamp).sub(\n      _lastInflationBlockTime\n    );\n\n    // get the inflation amount for one cycle of inflation period\n    uint256 inflationPerInstalment = (\n      uint256(SUPPLY_AT_GENESIS).mulDiv(_inflationRate, _valueDivisor)\n    ).div(100);\n\n    // get the number of cycles/instalments of inflation that are pending to be updated\n    uint256 inflationInstalments = timeSinceLastInflation.div(_inflationPeriod);\n    uint256 additionalInflation = inflationInstalments.mul(\n      inflationPerInstalment\n    );\n    uint256 additionalBlockTime = inflationInstalments.mul(_inflationPeriod);\n    uint256 currentInflationDiff;\n    uint256 currentBlockTimeDiff;\n\n    if (inflationInstalments > 0) {\n      // add additional instalment to total inflated supply and update last Inflation BlockTime\n      if (_totalInflatedSupply.add(additionalInflation) > _supplyMaxLimit) {\n        currentInflationDiff = _supplyMaxLimit.sub(_totalInflatedSupply);\n\n        // set totalInflatedSupply as supply max limit\n        _totalInflatedSupply = _supplyMaxLimit;\n\n        // update the _lastInflationBlockTime value\n        currentBlockTimeDiff = additionalBlockTime.mulDiv(\n          currentInflationDiff,\n          additionalInflation\n        );\n        _lastInflationBlockTime = _lastInflationBlockTime.add(\n          currentBlockTimeDiff\n        );\n      } else {\n        // update _lastInflationBlockTime with the time period pertaining to inflationInstalments\n        _totalInflatedSupply = _totalInflatedSupply.add(additionalInflation);\n        _lastInflationBlockTime = _lastInflationBlockTime.add(\n          additionalBlockTime\n        );\n      }\n\n      // emit an event\n      emit CheckInflation(\n        _lastInflationBlockTime,\n        inflationInstalments.mul(_inflationPeriod),\n        block.timestamp\n      );\n    }\n\n    lastInflationBlockTime = _lastInflationBlockTime;\n    totalInflatedSupply = _totalInflatedSupply;\n  }\n\n  /**\n   * @dev checks the inflation and sets the inflation parameters if the inflation cycle has changed\n   *\n   */\n  function checkInflation()\n    public\n    virtual\n    override\n    returns (uint256 totalInflatedSupply, uint256 lastInflationBlockTime)\n  {\n    require(hasRole(DEFAULT_ADMIN_ROLE, _msgSender()), \"PS13\");\n    (totalInflatedSupply, lastInflationBlockTime) = _checkInflation();\n  }\n\n  /**\n   * @dev returns the properties pertaining to inflation\n   */\n  function getInflation()\n    public\n    view\n    virtual\n    override\n    returns (\n      uint256 totalInflatedSupply,\n      uint256 inflationRate,\n      uint256 valueDivisor,\n      uint256 inflationPeriod,\n      uint256 lastInflationBlockTime,\n      uint256 supplyMaxLimit\n    )\n  {\n    return (\n      _totalInflatedSupply,\n      _inflationRate,\n      _valueDivisor,\n      _inflationPeriod,\n      _lastInflationBlockTime,\n      _supplyMaxLimit\n    );\n  }\n\n  /**\n   * @dev Set inflation\n   * @param inflationRate: inflation rate given as value between 0 and 100\n   * @param inflationPeriod: inflation cycle in seconds\n   */\n  function setInflation(uint256 inflationRate, uint256 inflationPeriod)\n    public\n    virtual\n    override\n    returns (bool success)\n  {\n    require(hasRole(DEFAULT_ADMIN_ROLE, _msgSender()), \"PS0\");\n    // require inflation rate to be not more than 100 since it is a percentage\n    require(inflationRate <= _valueDivisor.mul(100), \"PS7\");\n    require(inflationPeriod > 0, \"PS9\");\n    // execute check inflation to update the inflation values before setting the inflation\n    _checkInflation();\n    // after enabling inflation, one way to arrest inflation can be to set a large inflationPeriod value\n    _inflationRate = inflationRate;\n    _inflationPeriod = inflationPeriod;\n    // if this is the first time inflation values are being set (inflation activation) then\n    // initialize _totalInflatedSupply with the inflated value and update _lastInflationBlockTime\n    // the inflation cycle begins just as these values are set\n    if (_lastInflationBlockTime == 0) {\n      _totalInflatedSupply = _totalInflatedSupply.add(\n        (_totalInflatedSupply.mulDiv(_inflationRate, _valueDivisor)).div(100)\n      );\n      _lastInflationBlockTime = block.timestamp;\n    }\n    success = true;\n    emit SetInflationRate(_msgSender(), inflationRate, inflationPeriod);\n  }\n\n  /**\n   * @dev Set supply max limit of the inflation component\n   * @param supplyMaxLimit: supply max limit value\n   *\n   */\n  function setSupplyMaxLimit(uint256 supplyMaxLimit)\n    public\n    virtual\n    override\n    returns (bool success)\n  {\n    // require this function to be callable only by the admin\n    require(hasRole(DEFAULT_ADMIN_ROLE, _msgSender()), \"PS8\");\n    // new supply max limit cannot be less than _totalInflatedSupply\n    require(supplyMaxLimit >= _totalInflatedSupply, \"PS10\");\n    // execute check inflation to update the inflation values before setting the inflation\n    _checkInflation();\n    // if the total inflated supply has already reached supply max limit then update _lastInflationBlockTime\n    // to restart the inflation cycle again\n    if (_supplyMaxLimit == _totalInflatedSupply) {\n      _lastInflationBlockTime = block.timestamp;\n    }\n    _supplyMaxLimit = supplyMaxLimit;\n    success = true;\n    emit SetSupplyMaxLimit(_msgSender(), supplyMaxLimit);\n  }\n\n  /**\n   * @dev Mint new PSTAKE for the provided 'address' and 'amount'\n   *\n   *\n   * Emits a {MintTokens} event with 'to' set to address and 'tokens' set to amount of tokens.\n   *\n   * Requirements:\n   *\n   * - `amount` cannot be less than zero.\n   *\n   */\n  function mint(address to, uint256 tokens)\n    public\n    virtual\n    override\n    returns (bool success)\n  {\n    require(hasRole(MINTER_ROLE, _msgSender()), \"PS1\");\n\n    // condition to check if the total supply doesnt cross the inflated supply\n    _checkInflation();\n    require((totalSupply()).add(tokens) <= _totalInflatedSupply, \"PS2\");\n\n    // mint the tokens\n    _mint(to, tokens);\n    return true;\n  }\n\n  /**\n   * @dev Set 'contract address', called from constructor\n   * @param vestingTimelockAddress: Vesting timelock contract address\n   *\n   * Emits a {SetVestingTimelockContract} event with '_contract' set to the VestingTimelockcontract address.\n   */\n  function setVestingTimelockContract(address vestingTimelockAddress)\n    public\n    virtual\n    override\n  {\n    require(hasRole(DEFAULT_ADMIN_ROLE, _msgSender()), \"PS6\");\n    require(vestingTimelockAddress != address(0), \"PS11\");\n    _vestingTimelockAddress = vestingTimelockAddress;\n    emit SetVestingTimelockContract(vestingTimelockAddress);\n  }\n\n  /**\n   * @dev adds a vesting grant initiated by this contract as manager\n   * @param beneficiary beneficiary address\n   * @param startTime start time\n   * @param cliffPeriod initial waiting period\n   * @param instalmentAmount installment amount\n   * @param instalmentCount instalment count\n   * @param instalmentPeriod instalment period\n   *\n   * Emits a {AddVesting} event.\n   */\n  function addVesting(\n    address beneficiary,\n    uint256 startTime,\n    uint256 cliffPeriod,\n    uint256 instalmentAmount,\n    uint256 instalmentCount,\n    uint256 instalmentPeriod\n  ) public virtual override nonReentrant returns (uint256 totalVestingAmount) {\n    require(hasRole(DEFAULT_ADMIN_ROLE, _msgSender()), \"PS12\");\n\n    totalVestingAmount = instalmentAmount.mul(instalmentCount);\n\n    // get approval for transfer of total vesting amount if not already there\n    if (totalVestingAmount > allowance(address(this), _vestingTimelockAddress))\n      _approve(address(this), _vestingTimelockAddress, totalVestingAmount);\n\n    IVestingTimelockV2(_vestingTimelockAddress).addGrant(\n      address(this),\n      beneficiary,\n      startTime,\n      cliffPeriod,\n      instalmentAmount,\n      instalmentCount,\n      instalmentPeriod\n    );\n\n    emit AddGrant(\n      address(this),\n      beneficiary,\n      startTime,\n      cliffPeriod,\n      totalVestingAmount,\n      instalmentAmount,\n      instalmentCount,\n      instalmentPeriod,\n      _msgSender(),\n      block.timestamp\n    );\n  }\n\n  /**\n   * @dev Triggers stopped state.\n   *\n   * Requirements:\n   *\n   * - The contract must not be paused.\n   */\n  function pause() public virtual override returns (bool success) {\n    require(hasRole(PAUSER_ROLE, _msgSender()), \"PS3\");\n    _pause();\n    return true;\n  }\n\n  /**\n   * @dev Returns to normal state.\n   *\n   * Requirements:\n   *\n   * - The contract must be paused.\n   */\n  function unpause() public virtual override returns (bool success) {\n    require(hasRole(PAUSER_ROLE, _msgSender()), \"PS4\");\n    _unpause();\n    return true;\n  }\n\n  /**\n   * @dev Hook that is called before any transfer of tokens. This includes\n   * minting and burning.\n   *\n   * Calling conditions:\n   *\n   * - when `from` and `to` are both non-zero, `amount` of ``from``'s tokens\n   * will be to transferred to `to`.\n   * - when `from` is zero, `amount` tokens will be minted for `to`.\n   * - when `to` is zero, `amount` of ``from``'s tokens will be burned.\n   * - `from` and `to` are never both zero.\n   *\n   */\n  function _beforeTokenTransfer(\n    address from,\n    address to,\n    uint256 amount\n  ) internal virtual override {\n    require(!paused(), \"PS5\");\n    super._beforeTokenTransfer(from, to, amount);\n  }\n}\n",
  "sourcePath": "C:\\Users\\Kamlesh\\Persistence\\pStake\\codebase\\erc20\\contracts\\PSTAKE.sol",
  "compiler": {
    "name": "solc",
    "version": "0.7.6+commit.7338295f.Emscripten.clang"
  },
  "schemaVersion": "3.4.3",
  "updatedAt": "2021-11-23T06:45:48.869Z",
  "networkType": "ethereum",
  "devdoc": {
    "kind": "dev",
    "methods": {
      "addVesting(address,uint256,uint256,uint256,uint256,uint256)": {
        "details": "adds a vesting grant initiated by this contract as manager",
        "params": {
          "beneficiary": "beneficiary address",
          "cliffPeriod": "initial waiting period",
          "instalmentAmount": "installment amount",
          "instalmentCount": "instalment count",
          "instalmentPeriod": "instalment period Emits a {AddVesting} event.",
          "startTime": "start time"
        }
      },
      "allowance(address,address)": {
        "details": "See {IERC20-allowance}."
      },
      "approve(address,uint256)": {
        "details": "See {IERC20-approve}. Requirements: - `spender` cannot be the zero address."
      },
      "balanceOf(address)": {
        "details": "See {IERC20-balanceOf}."
      },
      "checkInflation()": {
        "details": "checks the inflation and sets the inflation parameters if the inflation cycle has changed"
      },
      "decimals()": {
        "details": "Returns the number of decimals used to get its user representation. For example, if `decimals` equals `2`, a balance of `505` tokens should be displayed to a user as `5,05` (`505 / 10 ** 2`). Tokens usually opt for a value of 18, imitating the relationship between Ether and Wei. This is the value {ERC20} uses, unless {_setupDecimals} is called. NOTE: This information is only used for _display_ purposes: it in no way affects any of the arithmetic of the contract, including {IERC20-balanceOf} and {IERC20-transfer}."
      },
      "decreaseAllowance(address,uint256)": {
        "details": "Atomically decreases the allowance granted to `spender` by the caller. This is an alternative to {approve} that can be used as a mitigation for problems described in {IERC20-approve}. Emits an {Approval} event indicating the updated allowance. Requirements: - `spender` cannot be the zero address. - `spender` must have allowance for the caller of at least `subtractedValue`."
      },
      "getInflation()": {
        "details": "returns the properties pertaining to inflation"
      },
      "getRoleAdmin(bytes32)": {
        "details": "Returns the admin role that controls `role`. See {grantRole} and {revokeRole}. To change a role's admin, use {_setRoleAdmin}."
      },
      "getRoleMember(bytes32,uint256)": {
        "details": "Returns one of the accounts that have `role`. `index` must be a value between 0 and {getRoleMemberCount}, non-inclusive. Role bearers are not sorted in any particular way, and their ordering may change at any point. WARNING: When using {getRoleMember} and {getRoleMemberCount}, make sure you perform all queries on the same block. See the following https://forum.openzeppelin.com/t/iterating-over-elements-on-enumerableset-in-openzeppelin-contracts/2296[forum post] for more information."
      },
      "getRoleMemberCount(bytes32)": {
        "details": "Returns the number of accounts that have `role`. Can be used together with {getRoleMember} to enumerate all bearers of a role."
      },
      "grantRole(bytes32,address)": {
        "details": "Grants `role` to `account`. If `account` had not been already granted `role`, emits a {RoleGranted} event. Requirements: - the caller must have ``role``'s admin role."
      },
      "hasRole(bytes32,address)": {
        "details": "Returns `true` if `account` has been granted `role`."
      },
      "increaseAllowance(address,uint256)": {
        "details": "Atomically increases the allowance granted to `spender` by the caller. This is an alternative to {approve} that can be used as a mitigation for problems described in {IERC20-approve}. Emits an {Approval} event indicating the updated allowance. Requirements: - `spender` cannot be the zero address."
      },
      "initialize(address,address,address,address,address,address,address,address,address,address,address,address,address)": {
        "details": "Constructor for initializing the PSTAKE contract.",
        "params": {
          "airdropPool": "- address of the airdrop pool.",
          "alphaLaunchpadPool": "- address of the alpha launchpad pool.",
          "communityDevelopmentFundPool": "- address of the community development fund pool.",
          "incentivisationPool": "- address of the incentivising pool.",
          "protocolTreasuryPool": "- address of the protocol treasury pool.",
          "publicSalePool1": "- address of the public sale pool1.",
          "publicSalePool2": "- address of the public sale pool2.",
          "publicSalePool3": "- address of the public sale pool3.",
          "retroactiveRewardProtocolBootstrapPool": "- address of the retroactive reward protocol bootstrap pool.",
          "seedSalePool": "- address of the seed sale pool.",
          "teamPool": "- address of the team pool.",
          "vestingTimelockAddress": "- address of the vesting timelock contract.",
          "xprtStakersPool": "- address of the xprt stakers pool."
        }
      },
      "mint(address,uint256)": {
        "details": "Mint new PSTAKE for the provided 'address' and 'amount' Emits a {MintTokens} event with 'to' set to address and 'tokens' set to amount of tokens. Requirements: - `amount` cannot be less than zero."
      },
      "name()": {
        "details": "Returns the name of the token."
      },
      "pause()": {
        "details": "Triggers stopped state. Requirements: - The contract must not be paused."
      },
      "paused()": {
        "details": "Returns true if the contract is paused, and false otherwise."
      },
      "renounceRole(bytes32,address)": {
        "details": "Revokes `role` from the calling account. Roles are often managed via {grantRole} and {revokeRole}: this function's purpose is to provide a mechanism for accounts to lose their privileges if they are compromised (such as when a trusted device is misplaced). If the calling account had been granted `role`, emits a {RoleRevoked} event. Requirements: - the caller must be `account`."
      },
      "revokeRole(bytes32,address)": {
        "details": "Revokes `role` from `account`. If `account` had been granted `role`, emits a {RoleRevoked} event. Requirements: - the caller must have ``role``'s admin role."
      },
      "setInflation(uint256,uint256)": {
        "details": "Set inflation",
        "params": {
          "inflationPeriod": ": inflation cycle in seconds",
          "inflationRate": ": inflation rate given as value between 0 and 100"
        }
      },
      "setSupplyMaxLimit(uint256)": {
        "details": "Set supply max limit of the inflation component",
        "params": {
          "supplyMaxLimit": ": supply max limit value"
        }
      },
      "setVestingTimelockContract(address)": {
        "details": "Set 'contract address', called from constructor",
        "params": {
          "vestingTimelockAddress": ": Vesting timelock contract address Emits a {SetVestingTimelockContract} event with '_contract' set to the VestingTimelockcontract address."
        }
      },
      "symbol()": {
        "details": "Returns the symbol of the token, usually a shorter version of the name."
      },
      "totalSupply()": {
        "details": "See {IERC20-totalSupply}."
      },
      "transfer(address,uint256)": {
        "details": "See {IERC20-transfer}. Requirements: - `recipient` cannot be the zero address. - the caller must have a balance of at least `amount`."
      },
      "transferFrom(address,address,uint256)": {
        "details": "See {IERC20-transferFrom}. Emits an {Approval} event indicating the updated allowance. This is not required by the EIP. See the note at the beginning of {ERC20}. Requirements: - `sender` and `recipient` cannot be the zero address. - `sender` must have a balance of at least `amount`. - the caller must have allowance for ``sender``'s tokens of at least `amount`."
      },
      "unpause()": {
        "details": "Returns to normal state. Requirements: - The contract must be paused."
      }
    },
    "stateVariables": {
      "_lastInflationBlockTime": {
        "details": "getter method created from variable definition"
      },
      "_supplyMaxLimit": {
        "details": "getter method created from variable definition"
      },
      "_totalInflatedSupply": {
        "details": "getter method created from variable definition"
      }
    },
    "version": 1
  },
  "userdoc": {
    "kind": "user",
    "methods": {},
    "version": 1
  }
}