{
  "contractName": "PSTAKE",
  "abi": [
    {
      "anonymous": false,
      "inputs": [
        {
          "indexed": true,
          "internalType": "address",
          "name": "owner",
          "type": "address"
        },
        {
          "indexed": true,
          "internalType": "address",
          "name": "spender",
          "type": "address"
        },
        {
          "indexed": false,
          "internalType": "uint256",
          "name": "value",
          "type": "uint256"
        }
      ],
      "name": "Approval",
      "type": "event"
    },
    {
      "anonymous": false,
      "inputs": [
        {
          "indexed": false,
          "internalType": "uint256",
          "name": "lastInflationBlockTime",
          "type": "uint256"
        },
        {
          "indexed": false,
          "internalType": "uint256",
          "name": "inflationAdded",
          "type": "uint256"
        },
        {
          "indexed": false,
          "internalType": "uint256",
          "name": "timestamp",
          "type": "uint256"
        }
      ],
      "name": "CheckInflation",
      "type": "event"
    },
    {
      "anonymous": false,
      "inputs": [
        {
          "indexed": false,
          "internalType": "address",
          "name": "account",
          "type": "address"
        }
      ],
      "name": "Paused",
      "type": "event"
    },
    {
      "anonymous": false,
      "inputs": [
        {
          "indexed": true,
          "internalType": "bytes32",
          "name": "role",
          "type": "bytes32"
        },
        {
          "indexed": true,
          "internalType": "bytes32",
          "name": "previousAdminRole",
          "type": "bytes32"
        },
        {
          "indexed": true,
          "internalType": "bytes32",
          "name": "newAdminRole",
          "type": "bytes32"
        }
      ],
      "name": "RoleAdminChanged",
      "type": "event"
    },
    {
      "anonymous": false,
      "inputs": [
        {
          "indexed": true,
          "internalType": "bytes32",
          "name": "role",
          "type": "bytes32"
        },
        {
          "indexed": true,
          "internalType": "address",
          "name": "account",
          "type": "address"
        },
        {
          "indexed": true,
          "internalType": "address",
          "name": "sender",
          "type": "address"
        }
      ],
      "name": "RoleGranted",
      "type": "event"
    },
    {
      "anonymous": false,
      "inputs": [
        {
          "indexed": true,
          "internalType": "bytes32",
          "name": "role",
          "type": "bytes32"
        },
        {
          "indexed": true,
          "internalType": "address",
          "name": "account",
          "type": "address"
        },
        {
          "indexed": true,
          "internalType": "address",
          "name": "sender",
          "type": "address"
        }
      ],
      "name": "RoleRevoked",
      "type": "event"
    },
    {
      "anonymous": false,
      "inputs": [
        {
          "indexed": false,
          "internalType": "address",
          "name": "accountAddress",
          "type": "address"
        },
        {
          "indexed": false,
          "internalType": "uint256",
          "name": "inflationRate",
          "type": "uint256"
        }
      ],
      "name": "SetInflationRate",
      "type": "event"
    },
    {
      "anonymous": false,
      "inputs": [
        {
          "indexed": false,
          "internalType": "address",
          "name": "accountAddress",
          "type": "address"
        },
        {
          "indexed": false,
          "internalType": "uint256",
          "name": "supplyMaxLimit",
          "type": "uint256"
        }
      ],
      "name": "SetSupplyMaxLimit",
      "type": "event"
    },
    {
      "anonymous": false,
      "inputs": [
        {
          "indexed": false,
          "internalType": "address",
          "name": "vestingTimelockAddress",
          "type": "address"
        }
      ],
      "name": "SetVestingTimelockContract",
      "type": "event"
    },
    {
      "anonymous": false,
      "inputs": [
        {
          "indexed": true,
          "internalType": "address",
          "name": "from",
          "type": "address"
        },
        {
          "indexed": true,
          "internalType": "address",
          "name": "to",
          "type": "address"
        },
        {
          "indexed": false,
          "internalType": "uint256",
          "name": "value",
          "type": "uint256"
        }
      ],
      "name": "Transfer",
      "type": "event"
    },
    {
      "anonymous": false,
      "inputs": [
        {
          "indexed": false,
          "internalType": "address",
          "name": "account",
          "type": "address"
        }
      ],
      "name": "Unpaused",
      "type": "event"
    },
    {
      "inputs": [],
      "name": "AIRDROPPOOLALLOCATION",
      "outputs": [
        {
          "internalType": "uint256",
          "name": "",
          "type": "uint256"
        }
      ],
      "stateMutability": "view",
      "type": "function"
    },
    {
      "inputs": [],
      "name": "ALPHALAUNCHPADPOOLALLOCATION",
      "outputs": [
        {
          "internalType": "uint256",
          "name": "",
          "type": "uint256"
        }
      ],
      "stateMutability": "view",
      "type": "function"
    },
    {
      "inputs": [],
      "name": "COMMUNITYDEVELOPMENTFUNDPOOLALLOCATION",
      "outputs": [
        {
          "internalType": "uint256",
          "name": "",
          "type": "uint256"
        }
      ],
      "stateMutability": "view",
      "type": "function"
    },
    {
      "inputs": [],
      "name": "DEFAULT_ADMIN_ROLE",
      "outputs": [
        {
          "internalType": "bytes32",
          "name": "",
          "type": "bytes32"
        }
      ],
      "stateMutability": "view",
      "type": "function"
    },
    {
      "inputs": [],
      "name": "INCENTIVISATIONPOOLALLOCATION",
      "outputs": [
        {
          "internalType": "uint256",
          "name": "",
          "type": "uint256"
        }
      ],
      "stateMutability": "view",
      "type": "function"
    },
    {
      "inputs": [],
      "name": "INFLATION_PERIOD",
      "outputs": [
        {
          "internalType": "uint256",
          "name": "",
          "type": "uint256"
        }
      ],
      "stateMutability": "view",
      "type": "function"
    },
    {
      "inputs": [],
      "name": "INFLATION_RATE",
      "outputs": [
        {
          "internalType": "uint256",
          "name": "",
          "type": "uint256"
        }
      ],
      "stateMutability": "view",
      "type": "function"
    },
    {
      "inputs": [],
      "name": "MINTER_ROLE",
      "outputs": [
        {
          "internalType": "bytes32",
          "name": "",
          "type": "bytes32"
        }
      ],
      "stateMutability": "view",
      "type": "function"
    },
    {
      "inputs": [],
      "name": "PAUSER_ROLE",
      "outputs": [
        {
          "internalType": "bytes32",
          "name": "",
          "type": "bytes32"
        }
      ],
      "stateMutability": "view",
      "type": "function"
    },
    {
      "inputs": [],
      "name": "PROTOCOLTREASURYPOOLALLOCATION",
      "outputs": [
        {
          "internalType": "uint256",
          "name": "",
          "type": "uint256"
        }
      ],
      "stateMutability": "view",
      "type": "function"
    },
    {
      "inputs": [],
      "name": "RETROACTIVEREWARDPROTOCOLBOOTSTRAPPOOLALLOCATION",
      "outputs": [
        {
          "internalType": "uint256",
          "name": "",
          "type": "uint256"
        }
      ],
      "stateMutability": "view",
      "type": "function"
    },
    {
      "inputs": [],
      "name": "SUPPLY_AT_GENESIS",
      "outputs": [
        {
          "internalType": "uint256",
          "name": "",
          "type": "uint256"
        }
      ],
      "stateMutability": "view",
      "type": "function"
    },
    {
      "inputs": [],
      "name": "SUPPLY_MAX_LIMIT",
      "outputs": [
        {
          "internalType": "uint256",
          "name": "",
          "type": "uint256"
        }
      ],
      "stateMutability": "view",
      "type": "function"
    },
    {
      "inputs": [],
      "name": "TOTAL_VESTED_SUPPLY",
      "outputs": [
        {
          "internalType": "uint256",
          "name": "",
          "type": "uint256"
        }
      ],
      "stateMutability": "view",
      "type": "function"
    },
    {
      "inputs": [],
      "name": "VALUE_DIVISOR",
      "outputs": [
        {
          "internalType": "uint256",
          "name": "",
          "type": "uint256"
        }
      ],
      "stateMutability": "view",
      "type": "function"
    },
    {
      "inputs": [],
      "name": "XPRTSTAKERSPOOLALLOCATION",
      "outputs": [
        {
          "internalType": "uint256",
          "name": "",
          "type": "uint256"
        }
      ],
      "stateMutability": "view",
      "type": "function"
    },
    {
      "inputs": [],
      "name": "_airdropPool",
      "outputs": [
        {
          "internalType": "address",
          "name": "",
          "type": "address"
        }
      ],
      "stateMutability": "view",
      "type": "function"
    },
    {
      "inputs": [],
      "name": "_alphaLaunchpadPool",
      "outputs": [
        {
          "internalType": "address",
          "name": "",
          "type": "address"
        }
      ],
      "stateMutability": "view",
      "type": "function"
    },
    {
      "inputs": [],
      "name": "_communityDevelopmentFundPool",
      "outputs": [
        {
          "internalType": "address",
          "name": "",
          "type": "address"
        }
      ],
      "stateMutability": "view",
      "type": "function"
    },
    {
      "inputs": [],
      "name": "_incentivisationPool",
      "outputs": [
        {
          "internalType": "address",
          "name": "",
          "type": "address"
        }
      ],
      "stateMutability": "view",
      "type": "function"
    },
    {
      "inputs": [],
      "name": "_inflationPeriod",
      "outputs": [
        {
          "internalType": "uint256",
          "name": "",
          "type": "uint256"
        }
      ],
      "stateMutability": "view",
      "type": "function"
    },
    {
      "inputs": [],
      "name": "_inflationRate",
      "outputs": [
        {
          "internalType": "uint256",
          "name": "",
          "type": "uint256"
        }
      ],
      "stateMutability": "view",
      "type": "function"
    },
    {
      "inputs": [],
      "name": "_lastInflationBlockTime",
      "outputs": [
        {
          "internalType": "uint256",
          "name": "",
          "type": "uint256"
        }
      ],
      "stateMutability": "view",
      "type": "function"
    },
    {
      "inputs": [],
      "name": "_protocolTreasuryPool",
      "outputs": [
        {
          "internalType": "address",
          "name": "",
          "type": "address"
        }
      ],
      "stateMutability": "view",
      "type": "function"
    },
    {
      "inputs": [],
      "name": "_publicSalePool1",
      "outputs": [
        {
          "internalType": "address",
          "name": "",
          "type": "address"
        }
      ],
      "stateMutability": "view",
      "type": "function"
    },
    {
      "inputs": [],
      "name": "_publicSalePool2",
      "outputs": [
        {
          "internalType": "address",
          "name": "",
          "type": "address"
        }
      ],
      "stateMutability": "view",
      "type": "function"
    },
    {
      "inputs": [],
      "name": "_publicSalePool3",
      "outputs": [
        {
          "internalType": "address",
          "name": "",
          "type": "address"
        }
      ],
      "stateMutability": "view",
      "type": "function"
    },
    {
      "inputs": [],
      "name": "_retroactiveRewardProtocolBootstrapPool",
      "outputs": [
        {
          "internalType": "address",
          "name": "",
          "type": "address"
        }
      ],
      "stateMutability": "view",
      "type": "function"
    },
    {
      "inputs": [],
      "name": "_seedSalePool",
      "outputs": [
        {
          "internalType": "address",
          "name": "",
          "type": "address"
        }
      ],
      "stateMutability": "view",
      "type": "function"
    },
    {
      "inputs": [],
      "name": "_supplyMaxLimit",
      "outputs": [
        {
          "internalType": "uint256",
          "name": "",
          "type": "uint256"
        }
      ],
      "stateMutability": "view",
      "type": "function"
    },
    {
      "inputs": [],
      "name": "_teamPool",
      "outputs": [
        {
          "internalType": "address",
          "name": "",
          "type": "address"
        }
      ],
      "stateMutability": "view",
      "type": "function"
    },
    {
      "inputs": [],
      "name": "_totalInflatedSupply",
      "outputs": [
        {
          "internalType": "uint256",
          "name": "",
          "type": "uint256"
        }
      ],
      "stateMutability": "view",
      "type": "function"
    },
    {
      "inputs": [],
      "name": "_valueDivisor",
      "outputs": [
        {
          "internalType": "uint256",
          "name": "",
          "type": "uint256"
        }
      ],
      "stateMutability": "view",
      "type": "function"
    },
    {
      "inputs": [],
      "name": "_version",
      "outputs": [
        {
          "internalType": "uint256",
          "name": "",
          "type": "uint256"
        }
      ],
      "stateMutability": "view",
      "type": "function"
    },
    {
      "inputs": [],
      "name": "_vestingTimelockAddress",
      "outputs": [
        {
          "internalType": "address",
          "name": "",
          "type": "address"
        }
      ],
      "stateMutability": "view",
      "type": "function"
    },
    {
      "inputs": [],
      "name": "_xprtStakersPool",
      "outputs": [
        {
          "internalType": "address",
          "name": "",
          "type": "address"
        }
      ],
      "stateMutability": "view",
      "type": "function"
    },
    {
      "inputs": [
        {
          "internalType": "address",
          "name": "owner",
          "type": "address"
        },
        {
          "internalType": "address",
          "name": "spender",
          "type": "address"
        }
      ],
      "name": "allowance",
      "outputs": [
        {
          "internalType": "uint256",
          "name": "",
          "type": "uint256"
        }
      ],
      "stateMutability": "view",
      "type": "function"
    },
    {
      "inputs": [
        {
          "internalType": "address",
          "name": "spender",
          "type": "address"
        },
        {
          "internalType": "uint256",
          "name": "amount",
          "type": "uint256"
        }
      ],
      "name": "approve",
      "outputs": [
        {
          "internalType": "bool",
          "name": "",
          "type": "bool"
        }
      ],
      "stateMutability": "nonpayable",
      "type": "function"
    },
    {
      "inputs": [
        {
          "internalType": "address",
          "name": "account",
          "type": "address"
        }
      ],
      "name": "balanceOf",
      "outputs": [
        {
          "internalType": "uint256",
          "name": "",
          "type": "uint256"
        }
      ],
      "stateMutability": "view",
      "type": "function"
    },
    {
      "inputs": [],
      "name": "decimals",
      "outputs": [
        {
          "internalType": "uint8",
          "name": "",
          "type": "uint8"
        }
      ],
      "stateMutability": "view",
      "type": "function"
    },
    {
      "inputs": [
        {
          "internalType": "address",
          "name": "spender",
          "type": "address"
        },
        {
          "internalType": "uint256",
          "name": "subtractedValue",
          "type": "uint256"
        }
      ],
      "name": "decreaseAllowance",
      "outputs": [
        {
          "internalType": "bool",
          "name": "",
          "type": "bool"
        }
      ],
      "stateMutability": "nonpayable",
      "type": "function"
    },
    {
      "inputs": [
        {
          "internalType": "bytes32",
          "name": "role",
          "type": "bytes32"
        }
      ],
      "name": "getRoleAdmin",
      "outputs": [
        {
          "internalType": "bytes32",
          "name": "",
          "type": "bytes32"
        }
      ],
      "stateMutability": "view",
      "type": "function"
    },
    {
      "inputs": [
        {
          "internalType": "bytes32",
          "name": "role",
          "type": "bytes32"
        },
        {
          "internalType": "uint256",
          "name": "index",
          "type": "uint256"
        }
      ],
      "name": "getRoleMember",
      "outputs": [
        {
          "internalType": "address",
          "name": "",
          "type": "address"
        }
      ],
      "stateMutability": "view",
      "type": "function"
    },
    {
      "inputs": [
        {
          "internalType": "bytes32",
          "name": "role",
          "type": "bytes32"
        }
      ],
      "name": "getRoleMemberCount",
      "outputs": [
        {
          "internalType": "uint256",
          "name": "",
          "type": "uint256"
        }
      ],
      "stateMutability": "view",
      "type": "function"
    },
    {
      "inputs": [
        {
          "internalType": "bytes32",
          "name": "role",
          "type": "bytes32"
        },
        {
          "internalType": "address",
          "name": "account",
          "type": "address"
        }
      ],
      "name": "grantRole",
      "outputs": [],
      "stateMutability": "nonpayable",
      "type": "function"
    },
    {
      "inputs": [
        {
          "internalType": "bytes32",
          "name": "role",
          "type": "bytes32"
        },
        {
          "internalType": "address",
          "name": "account",
          "type": "address"
        }
      ],
      "name": "hasRole",
      "outputs": [
        {
          "internalType": "bool",
          "name": "",
          "type": "bool"
        }
      ],
      "stateMutability": "view",
      "type": "function"
    },
    {
      "inputs": [
        {
          "internalType": "address",
          "name": "spender",
          "type": "address"
        },
        {
          "internalType": "uint256",
          "name": "addedValue",
          "type": "uint256"
        }
      ],
      "name": "increaseAllowance",
      "outputs": [
        {
          "internalType": "bool",
          "name": "",
          "type": "bool"
        }
      ],
      "stateMutability": "nonpayable",
      "type": "function"
    },
    {
      "inputs": [],
      "name": "name",
      "outputs": [
        {
          "internalType": "string",
          "name": "",
          "type": "string"
        }
      ],
      "stateMutability": "view",
      "type": "function"
    },
    {
      "inputs": [],
      "name": "paused",
      "outputs": [
        {
          "internalType": "bool",
          "name": "",
          "type": "bool"
        }
      ],
      "stateMutability": "view",
      "type": "function"
    },
    {
      "inputs": [
        {
          "internalType": "bytes32",
          "name": "role",
          "type": "bytes32"
        },
        {
          "internalType": "address",
          "name": "account",
          "type": "address"
        }
      ],
      "name": "renounceRole",
      "outputs": [],
      "stateMutability": "nonpayable",
      "type": "function"
    },
    {
      "inputs": [
        {
          "internalType": "bytes32",
          "name": "role",
          "type": "bytes32"
        },
        {
          "internalType": "address",
          "name": "account",
          "type": "address"
        }
      ],
      "name": "revokeRole",
      "outputs": [],
      "stateMutability": "nonpayable",
      "type": "function"
    },
    {
      "inputs": [],
      "name": "symbol",
      "outputs": [
        {
          "internalType": "string",
          "name": "",
          "type": "string"
        }
      ],
      "stateMutability": "view",
      "type": "function"
    },
    {
      "inputs": [],
      "name": "totalSupply",
      "outputs": [
        {
          "internalType": "uint256",
          "name": "",
          "type": "uint256"
        }
      ],
      "stateMutability": "view",
      "type": "function"
    },
    {
      "inputs": [
        {
          "internalType": "address",
          "name": "recipient",
          "type": "address"
        },
        {
          "internalType": "uint256",
          "name": "amount",
          "type": "uint256"
        }
      ],
      "name": "transfer",
      "outputs": [
        {
          "internalType": "bool",
          "name": "",
          "type": "bool"
        }
      ],
      "stateMutability": "nonpayable",
      "type": "function"
    },
    {
      "inputs": [
        {
          "internalType": "address",
          "name": "sender",
          "type": "address"
        },
        {
          "internalType": "address",
          "name": "recipient",
          "type": "address"
        },
        {
          "internalType": "uint256",
          "name": "amount",
          "type": "uint256"
        }
      ],
      "name": "transferFrom",
      "outputs": [
        {
          "internalType": "bool",
          "name": "",
          "type": "bool"
        }
      ],
      "stateMutability": "nonpayable",
      "type": "function"
    },
    {
      "inputs": [
        {
          "internalType": "address",
          "name": "vestingTimelockAddress",
          "type": "address"
        },
        {
          "internalType": "address",
          "name": "airdropPool",
          "type": "address"
        },
        {
          "internalType": "address",
          "name": "alphaLaunchpadPool",
          "type": "address"
        },
        {
          "internalType": "address",
          "name": "seedSalePool",
          "type": "address"
        },
        {
          "internalType": "address",
          "name": "publicSalePool1",
          "type": "address"
        },
        {
          "internalType": "address",
          "name": "publicSalePool2",
          "type": "address"
        },
        {
          "internalType": "address",
          "name": "publicSalePool3",
          "type": "address"
        },
        {
          "internalType": "address",
          "name": "teamPool",
          "type": "address"
        },
        {
          "internalType": "address",
          "name": "incentivisationPool",
          "type": "address"
        },
        {
          "internalType": "address",
          "name": "xprtStakersPool",
          "type": "address"
        },
        {
          "internalType": "address",
          "name": "protocolTreasuryPool",
          "type": "address"
        },
        {
          "internalType": "address",
          "name": "communityDevelopmentFundPool",
          "type": "address"
        },
        {
          "internalType": "address",
          "name": "retroactiveRewardProtocolBootstrapPool",
          "type": "address"
        }
      ],
      "name": "initialize",
      "outputs": [],
      "stateMutability": "nonpayable",
      "type": "function"
    },
    {
      "inputs": [
        {
          "internalType": "uint256",
          "name": "inflationRate",
          "type": "uint256"
        }
      ],
      "name": "setInflation",
      "outputs": [
        {
          "internalType": "bool",
          "name": "success",
          "type": "bool"
        }
      ],
      "stateMutability": "nonpayable",
      "type": "function"
    },
    {
      "inputs": [
        {
          "internalType": "uint256",
          "name": "supplyMaxLimit",
          "type": "uint256"
        }
      ],
      "name": "setSupplyMaxLimit",
      "outputs": [
        {
          "internalType": "bool",
          "name": "success",
          "type": "bool"
        }
      ],
      "stateMutability": "nonpayable",
      "type": "function"
    },
    {
      "inputs": [
        {
          "internalType": "address",
          "name": "to",
          "type": "address"
        },
        {
          "internalType": "uint256",
          "name": "tokens",
          "type": "uint256"
        }
      ],
      "name": "mint",
      "outputs": [
        {
          "internalType": "bool",
          "name": "success",
          "type": "bool"
        }
      ],
      "stateMutability": "nonpayable",
      "type": "function"
    },
    {
      "inputs": [
        {
          "internalType": "address",
          "name": "vestingTimelockAddress",
          "type": "address"
        }
      ],
      "name": "setVestingTimelockContract",
      "outputs": [],
      "stateMutability": "nonpayable",
      "type": "function"
    },
    {
      "inputs": [],
      "name": "pause",
      "outputs": [
        {
          "internalType": "bool",
          "name": "success",
          "type": "bool"
        }
      ],
      "stateMutability": "nonpayable",
      "type": "function"
    },
    {
      "inputs": [],
      "name": "unpause",
      "outputs": [
        {
          "internalType": "bool",
          "name": "success",
          "type": "bool"
        }
      ],
      "stateMutability": "nonpayable",
      "type": "function"
    }
  ],
  "bytecode": "0x608060405234801561001057600080fd5b50612b48806100206000396000f3fe608060405234801561001057600080fd5b50600436106103ba5760003560e01c80638969873f116101f4578063c947755a1161011a578063dd62ed3e116100ad578063e63ab1e91161007c578063e63ab1e914610927578063e6f0dfdf1461092f578063ef22082c14610937578063f2e7ccc91461093f576103ba565b8063dd62ed3e146108cc578063e0a8ed52146108fa578063e1e2e3bf14610917578063e2f97bb01461091f576103ba565b8063cdc6c537116100e9578063cdc6c53714610888578063d182a8c914610890578063d539139314610898578063d547741f146108a0576103ba565b8063c947755a14610853578063c94d747b1461085b578063ca15c87314610863578063cb31a85f14610880576103ba565b8063a55ba9d411610192578063b4029d5e11610161578063b4029d5e14610833578063b999f6d01461083b578063b9c266ba14610843578063c32ab7f71461084b576103ba565b8063a55ba9d4146107ef578063a60d5e2d146107f7578063a9059cbb146107ff578063b381a8111461082b576103ba565b806395d89b41116101ce57806395d89b41146107ab57806398e8fd02146107b3578063a217fddf146107bb578063a457c2d7146107c3576103ba565b80638969873f146107545780639010d07c1461075c57806391d148541461077f576103ba565b80633e118dbe116102e45780635e07970b116102775780637744e3c7116102465780637744e3c71461071f5780637b17361c146107275780638321296d1461072f5780638456cb591461074c576103ba565b80635e07970b146106e157806370a08231146106e9578063710679631461070f578063728a99ee14610717576103ba565b80634ad3087c116102b35780634ad3087c146106c15780634b5c79ad146106c95780635c975abb146106d15780635d2ae67b146106d9576103ba565b80633e118dbe1461067d5780633f4ba83a1461068557806340c10f191461068d578063499f002c146106b9576103ba565b8063248a9ca31161035c578063313ce5671161032b578063313ce567146105ff57806336568abe1461061d57806339509351146106495780633aed93b614610675576103ba565b8063248a9ca3146105205780632cc39ff51461053d5780632f2ff15d146105455780632fdd983d14610571576103ba565b80630e054f02116103985780630e054f021461049657806318160ddd146104ba57806320dd4868146104c257806323b872dd146104ea576103ba565b806306fdde03146103bf578063095ea7b31461043c5780630cf79b2a1461047c575b600080fd5b6103c7610947565b6040805160208082528351818301528351919283929083019185019080838360005b838110156104015781810151838201526020016103e9565b50505050905090810190601f16801561042e5780820380516001836020036101000a031916815260200191505b509250505060405180910390f35b6104686004803603604081101561045257600080fd5b506001600160a01b0381351690602001356109de565b604080519115158252519081900360200190f35b6104846109fc565b60408051918252519081900360200190f35b61049e610a0b565b604080516001600160a01b039092168252519081900360200190f35b610484610a1a565b6104e8600480360360208110156104d857600080fd5b50356001600160a01b0316610a20565b005b6104686004803603606081101561050057600080fd5b506001600160a01b03813581169160208101359091169060400135610abd565b6104846004803603602081101561053657600080fd5b5035610b45565b61049e610b5a565b6104e86004803603604081101561055b57600080fd5b50803590602001356001600160a01b0316610b69565b6104e860048036036101a081101561058857600080fd5b506001600160a01b038135811691602081013582169160408201358116916060810135821691608082013581169160a081013582169160c082013581169160e08101358216916101008201358116916101208101358216916101408201358116916101608101358216916101809091013516610bd0565b6106076110b9565b6040805160ff9092168252519081900360200190f35b6104e86004803603604081101561063357600080fd5b50803590602001356001600160a01b03166110c2565b6104686004803603604081101561065f57600080fd5b506001600160a01b038135169060200135611123565b610484611171565b610484611181565b610468611187565b610468600480360360408110156106a357600080fd5b506001600160a01b0381351690602001356111e8565b6104846112ae565b6104846112b4565b61049e6112c3565b6104686112d2565b6104846112db565b61049e6112ea565b610484600480360360208110156106ff57600080fd5b50356001600160a01b03166112f9565b61049e611314565b610484611323565b610484611329565b61048461132f565b6104686004803603602081101561074557600080fd5b5035611337565b6104686113d3565b61048461142e565b61049e6004803603604081101561077257600080fd5b508035906020013561143d565b6104686004803603604081101561079557600080fd5b50803590602001356001600160a01b0316611455565b6103c761146d565b61049e6114ce565b6104846114dd565b610468600480360360408110156107d957600080fd5b506001600160a01b0381351690602001356114e2565b61048461154a565b61048461155a565b6104686004803603604081101561081557600080fd5b506001600160a01b038135169060200135611560565b610484611574565b61049e61157c565b61049e61158b565b61049e61159a565b61049e6115a9565b6104846115b8565b6104846115c0565b6104846004803603602081101561087957600080fd5b50356115cf565b61049e6115e6565b6104846115f5565b610484611604565b610484611614565b6104e8600480360360408110156108b657600080fd5b50803590602001356001600160a01b0316611638565b610484600480360360408110156108e257600080fd5b506001600160a01b0381358116916020013516611691565b6104686004803603602081101561091057600080fd5b50356116bc565b61049e61176f565b61049e61177e565b61048461178d565b61048461179f565b6104846117a5565b6104846117ab565b60368054604080516020601f60026000196101006001881615020190951694909404938401819004810282018101909252828152606093909290918301828280156109d35780601f106109a8576101008083540402835291602001916109d3565b820191906000526020600020905b8154815290600101906020018083116109b657829003601f168201915b505050505090505b90565b60006109f26109eb6117ba565b84846117be565b5060015b92915050565b6a0aefea174389736478000081565b60cb546001600160a01b031681565b60355490565b610a326000610a2d6117ba565b611455565b610a69576040805162461bcd60e51b815260206004820152600360248201526228299b60e91b604482015290519081900360640190fd5b60d780546001600160a01b0383166001600160a01b0319909116811790915560408051918252517f5e31e3a89ede0d5e39be17ca2a414f0dbdfd4f9a8a9a1054a8358fdf84581ab49181900360200190a150565b6000610aca8484846118aa565b610b3a84610ad66117ba565b610b3585604051806060016040528060288152602001612a2e602891396001600160a01b038a16600090815260346020526040812090610b146117ba565b6001600160a01b031681526020810191909152604001600020549190611a07565b6117be565b5060015b9392505050565b60009081526097602052604090206002015490565b60d2546001600160a01b031681565b600082815260976020526040902060020154610b8790610a2d6117ba565b610bc25760405162461bcd60e51b815260040180806020018281038252602f815260200180612938602f913960400191505060405180910390fd5b610bcc8282611a9e565b5050565b600054610100900460ff1680610be95750610be9611b07565b80610bf7575060005460ff16155b610c325760405162461bcd60e51b815260040180806020018281038252602e8152602001806129df602e913960400191505060405180910390fd5b600054610100900460ff16158015610c5d576000805460ff1961ff0019909116610100171660011790555b610ca96040518060400160405280600c81526020016b3829aa20a5a2902a37b5b2b760a11b81525060405180604001604052806006815260200165505354414b4560d01b815250611b18565b610cb1611bce565b610cb9611c80565b610ccb6000610cc66117ba565b610bc2565b610ce5600080516020612a56833981519152610cc66117ba565b610d117f9f2df0fed2c77648de5860a4cc508cd0818c85b8b8a1ab4ceeef8d981c8956a6610cc66117ba565b610d1b6012611d1d565b6308f0d18060d9819055506301e1338060da81905550633b9aca0060ca819055504260db819055506b019d971e4fe8401e7400000060d8819055506b0409f9cbc7c4a04c2200000060dc81905550600160c9819055508d60d760006101000a8154816001600160a01b0302191690836001600160a01b031602179055508c60cb60006101000a8154816001600160a01b0302191690836001600160a01b031602179055508b60cc60006101000a8154816001600160a01b0302191690836001600160a01b031602179055508a60cd60006101000a8154816001600160a01b0302191690836001600160a01b031602179055508960ce60006101000a8154816001600160a01b0302191690836001600160a01b031602179055508860cf60006101000a8154816001600160a01b0302191690836001600160a01b031602179055508760d060006101000a8154816001600160a01b0302191690836001600160a01b031602179055508660d160006101000a8154816001600160a01b0302191690836001600160a01b031602179055508560d260006101000a8154816001600160a01b0302191690836001600160a01b031602179055508460d360006101000a8154816001600160a01b0302191690836001600160a01b031602179055508360d460006101000a8154816001600160a01b0302191690836001600160a01b031602179055508260d560006101000a8154816001600160a01b0302191690836001600160a01b031602179055508160d660006101000a8154816001600160a01b0302191690836001600160a01b03160217905550610f9660cb60009054906101000a90046001600160a01b03166a0422ca8b0a00a425000000611d33565b60cc54610fb7906001600160a01b03166a084595161401484a000000611d33565b60d254610fd8906001600160a01b03166a0aefea1743897364780000611d33565b60d354610ff9906001600160a01b03166a0108b2a2c2802909400000611d33565b60d45461101a906001600160a01b03166a0383f8f62ee6f1ec400000611d33565b60d55461103b906001600160a01b03166a0160ee32f8e7c7eecc0000611d33565b60d65461105c906001600160a01b03166a0bfe7e93369b759e800000611d33565b611072306b017452bc3865ca661dbc00006111e8565b5060d7546110979030906001600160a01b03166b017452bc3865ca661dbc00006117be565b80156110a9576000805461ff00191690555b5050505050505050505050505050565b60385460ff1690565b6110ca6117ba565b6001600160a01b0316816001600160a01b0316146111195760405162461bcd60e51b815260040180806020018281038252602f815260200180612ae4602f913960400191505060405180910390fd5b610bcc8282611e25565b60006109f26111306117ba565b84610b3585603460006111416117ba565b6001600160a01b03908116825260208083019390935260409182016000908120918c168152925290205490611e8e565b6b017452bc3865ca661dbc000081565b60c95481565b60006111a3600080516020612a56833981519152610a2d6117ba565b6111da576040805162461bcd60e51b81526020600482015260036024820152621414cd60ea1b604482015290519081900360640190fd5b6111e2611ee8565b50600190565b60006112167f9f2df0fed2c77648de5860a4cc508cd0818c85b8b8a1ab4ceeef8d981c8956a6610a2d6117ba565b61124d576040805162461bcd60e51b815260206004820152600360248201526250533160e81b604482015290519081900360640190fd5b611255611f88565b5060d85461126b83611265610a1a565b90611e8e565b11156112a4576040805162461bcd60e51b815260206004820152600360248201526228299960e91b604482015290519081900360640190fd5b6109f28383611d33565b60db5481565b6a0108b2a2c280290940000081565b60cd546001600160a01b031681565b60655460ff1690565b6a0bfe7e93369b759e80000081565b60ce546001600160a01b031681565b6001600160a01b031660009081526033602052604090205490565b60d5546001600160a01b031681565b60ca5481565b60dc5481565b633b9aca0081565b600061134581610a2d6117ba565b61137c576040805162461bcd60e51b81526020600482015260036024820152620a0a6760eb1b604482015290519081900360640190fd5b5060dc81905560017fc7ef0200a4197b576e0fd91f28652dedae560532b3d4ea0193cc124b3c16f4cf6113ad6117ba565b604080516001600160a01b039092168252602082018590528051918290030190a1919050565b60006113ef600080516020612a56833981519152610a2d6117ba565b611426576040805162461bcd60e51b815260206004820152600360248201526250533360e81b604482015290519081900360640190fd5b6111e2612101565b6a084595161401484a00000081565b6000828152609760205260408120610b3e9083612184565b6000828152609760205260408120610b3e9083612190565b60378054604080516020601f60026000196101006001881615020190951694909404938401819004810282018101909252828152606093909290918301828280156109d35780601f106109a8576101008083540402835291602001916109d3565b60d3546001600160a01b031681565b600081565b60006109f26114ef6117ba565b84610b3585604051806060016040528060258152602001612abf60259139603460006115196117ba565b6001600160a01b03908116825260208083019390935260409182016000908120918d16815292529020549190611a07565b6b0409f9cbc7c4a04c2200000081565b60da5481565b60006109f261156d6117ba565b84846118aa565b6308f0d18081565b60d1546001600160a01b031681565b60d0546001600160a01b031681565b60cf546001600160a01b031681565b60d4546001600160a01b031681565b6301e1338081565b6a0422ca8b0a00a42500000081565b60008181526097602052604081206109f6906121a5565b60d7546001600160a01b031681565b6a0383f8f62ee6f1ec40000081565b6b019d971e4fe8401e7400000081565b7f9f2df0fed2c77648de5860a4cc508cd0818c85b8b8a1ab4ceeef8d981c8956a681565b60008281526097602052604090206002015461165690610a2d6117ba565b6111195760405162461bcd60e51b81526004018080602001828103825260308152602001806129af6030913960400191505060405180910390fd5b6001600160a01b03918216600090815260346020908152604080832093909416825291909152205490565b60006116ca81610a2d6117ba565b611701576040805162461bcd60e51b815260206004820152600360248201526205053360ec1b604482015290519081900360640190fd5b60ca5482111561173e576040805162461bcd60e51b815260206004820152600360248201526250533760e81b604482015290519081900360640190fd5b5060d981905560017f7ea77b8c38c819099337d8be2f901417fede78c3a2b5e7d2da4285a7983bd7f06113ad6117ba565b60d6546001600160a01b031681565b60cc546001600160a01b031681565b600080516020612a5683398151915281565b60d85481565b60d95481565b6a0160ee32f8e7c7eecc000081565b3390565b6001600160a01b0383166118035760405162461bcd60e51b8152600401808060200182810382526024815260200180612a9b6024913960400191505060405180910390fd5b6001600160a01b0382166118485760405162461bcd60e51b81526004018080602001828103825260228152602001806129676022913960400191505060405180910390fd5b6001600160a01b03808416600081815260346020908152604080832094871680845294825291829020859055815185815291517f8c5be1e5ebec7d5bd14f71427d1e84f3dd0314c0f7b2291e5b200ac8c7c3b9259281900390910190a3505050565b6001600160a01b0383166118ef5760405162461bcd60e51b8152600401808060200182810382526025815260200180612a766025913960400191505060405180910390fd5b6001600160a01b0382166119345760405162461bcd60e51b81526004018080602001828103825260238152602001806129156023913960400191505060405180910390fd5b61193f8383836121b0565b61197c81604051806060016040528060268152602001612989602691396001600160a01b0386166000908152603360205260409020549190611a07565b6001600160a01b0380851660009081526033602052604080822093909355908416815220546119ab9082611e8e565b6001600160a01b0380841660008181526033602090815260409182902094909455805185815290519193928716927fddf252ad1be2c89b69c2b068fc378daa952ba7f163c4a11628f55a4df523b3ef92918290030190a3505050565b60008184841115611a965760405162461bcd60e51b81526004018080602001828103825283818151815260200191508051906020019080838360005b83811015611a5b578181015183820152602001611a43565b50505050905090810190601f168015611a885780820380516001836020036101000a031916815260200191505b509250505060405180910390fd5b505050900390565b6000828152609760205260409020611ab690826121fb565b15610bcc57611ac36117ba565b6001600160a01b0316816001600160a01b0316837f2f8788117e7eff1d82e926ec794901d17c78024a50270940304540a733656f0d60405160405180910390a45050565b6000611b1230612210565b15905090565b600054610100900460ff1680611b315750611b31611b07565b80611b3f575060005460ff16155b611b7a5760405162461bcd60e51b815260040180806020018281038252602e8152602001806129df602e913960400191505060405180910390fd5b600054610100900460ff16158015611ba5576000805460ff1961ff0019909116610100171660011790555b611bad612216565b611bb783836122b6565b8015611bc9576000805461ff00191690555b505050565b600054610100900460ff1680611be75750611be7611b07565b80611bf5575060005460ff16155b611c305760405162461bcd60e51b815260040180806020018281038252602e8152602001806129df602e913960400191505060405180910390fd5b600054610100900460ff16158015611c5b576000805460ff1961ff0019909116610100171660011790555b611c63612216565b611c6b612216565b8015611c7d576000805461ff00191690555b50565b600054610100900460ff1680611c995750611c99611b07565b80611ca7575060005460ff16155b611ce25760405162461bcd60e51b815260040180806020018281038252602e8152602001806129df602e913960400191505060405180910390fd5b600054610100900460ff16158015611d0d576000805460ff1961ff0019909116610100171660011790555b611d15612216565b611c6b61238e565b6038805460ff191660ff92909216919091179055565b6001600160a01b038216611d8e576040805162461bcd60e51b815260206004820152601f60248201527f45524332303a206d696e7420746f20746865207a65726f206164647265737300604482015290519081900360640190fd5b611d9a600083836121b0565b603554611da79082611e8e565b6035556001600160a01b038216600090815260336020526040902054611dcd9082611e8e565b6001600160a01b03831660008181526033602090815260408083209490945583518581529351929391927fddf252ad1be2c89b69c2b068fc378daa952ba7f163c4a11628f55a4df523b3ef9281900390910190a35050565b6000828152609760205260409020611e3d9082612439565b15610bcc57611e4a6117ba565b6001600160a01b0316816001600160a01b0316837ff6391f5c32d9c69d2a47ea670b442974b53935d1edc7fd64eb21e047a839171b60405160405180910390a45050565b600082820183811015610b3e576040805162461bcd60e51b815260206004820152601b60248201527f536166654d6174683a206164646974696f6e206f766572666c6f770000000000604482015290519081900360640190fd5b611ef06112d2565b611f38576040805162461bcd60e51b815260206004820152601460248201527314185d5cd8589b194e881b9bdd081c185d5cd95960621b604482015290519081900360640190fd5b6065805460ff191690557f5db9ee0a495bf2e6ff9c91a7834c1ba4fdd244a5e8aa4e537bd38aeae4b073aa611f6b6117ba565b604080516001600160a01b039092168252519081900360200190a1565b600060dc5460d85410611f9a576109db565b6000611fb160db544261244e90919063ffffffff16565b90506000611fda60d95460ca546b019d971e4fe8401e740000006124ab9092919063ffffffff16565b90506000611ff360da548461256490919063ffffffff16565b9050600061200182846125cb565b9050600061201a60da54846125cb90919063ffffffff16565b905082156120f457600061203b60d85460dc5461244e90919063ffffffff16565b60d85490915061204b9084611e8e565b60d881905560dc54101561208a5760dc5460d855600060db8190556120718383866124ab565b60db549091506120819082611e8e565b60db555061209b565b60db546120979083611e8e565b60db555b7f36581a2b25903f92b9cf76ccf14ea53151d6f302d54de9ddb6259a7f67993bfd60db546120d460da54876125cb90919063ffffffff16565b6040805192835260208301919091524282820152519081900360600190a1505b60d8549550505050505090565b6121096112d2565b1561214e576040805162461bcd60e51b815260206004820152601060248201526f14185d5cd8589b194e881c185d5cd95960821b604482015290519081900360640190fd5b6065805460ff191660011790557f62e78cea01bee320cd4e420270b5ea74000d11b0c9f74754ebdbfc544b05a258611f6b6117ba565b6000610b3e8383612624565b6000610b3e836001600160a01b038416612688565b60006109f6826126a0565b6121b86112d2565b156121f0576040805162461bcd60e51b815260206004820152600360248201526250533560e81b604482015290519081900360640190fd5b611bc9838383611bc9565b6000610b3e836001600160a01b0384166126a4565b3b151590565b600054610100900460ff168061222f575061222f611b07565b8061223d575060005460ff16155b6122785760405162461bcd60e51b815260040180806020018281038252602e8152602001806129df602e913960400191505060405180910390fd5b600054610100900460ff16158015611c6b576000805460ff1961ff0019909116610100171660011790558015611c7d576000805461ff001916905550565b600054610100900460ff16806122cf57506122cf611b07565b806122dd575060005460ff16155b6123185760405162461bcd60e51b815260040180806020018281038252602e8152602001806129df602e913960400191505060405180910390fd5b600054610100900460ff16158015612343576000805460ff1961ff0019909116610100171660011790555b8251612356906036906020860190612851565b50815161236a906037906020850190612851565b506038805460ff191660121790558015611bc9576000805461ff0019169055505050565b600054610100900460ff16806123a757506123a7611b07565b806123b5575060005460ff16155b6123f05760405162461bcd60e51b815260040180806020018281038252602e8152602001806129df602e913960400191505060405180910390fd5b600054610100900460ff1615801561241b576000805460ff1961ff0019909116610100171660011790555b6065805460ff191690558015611c7d576000805461ff001916905550565b6000610b3e836001600160a01b0384166126ee565b6000828211156124a5576040805162461bcd60e51b815260206004820152601e60248201527f536166654d6174683a207375627472616374696f6e206f766572666c6f770000604482015290519081900360640190fd5b50900390565b60008060006124ba86866127b4565b91509150600084806124c857fe5b8688099050828111156124dc576001820391505b9182900391816124fa578483816124ef57fe5b049350505050610b3e565b84821061254e576040805162461bcd60e51b815260206004820152601a60248201527f46756c6c4d6174683a2046554c4c4449565f4f564552464c4f57000000000000604482015290519081900360640190fd5b6125598383876127e1565b979650505050505050565b60008082116125ba576040805162461bcd60e51b815260206004820152601a60248201527f536166654d6174683a206469766973696f6e206279207a65726f000000000000604482015290519081900360640190fd5b8183816125c357fe5b049392505050565b6000826125da575060006109f6565b828202828482816125e757fe5b0414610b3e5760405162461bcd60e51b8152600401808060200182810382526021815260200180612a0d6021913960400191505060405180910390fd5b815460009082106126665760405162461bcd60e51b81526004018080602001828103825260228152602001806128f36022913960400191505060405180910390fd5b82600001828154811061267557fe5b9060005260206000200154905092915050565b60009081526001919091016020526040902054151590565b5490565b60006126b08383612688565b6126e6575081546001818101845560008481526020808220909301849055845484825282860190935260409020919091556109f6565b5060006109f6565b600081815260018301602052604081205480156127aa578354600019808301919081019060009087908390811061272157fe5b906000526020600020015490508087600001848154811061273e57fe5b60009182526020808320909101929092558281526001898101909252604090209084019055865487908061276e57fe5b600190038181906000526020600020016000905590558660010160008781526020019081526020016000206000905560019450505050506109f6565b60009150506109f6565b60008080600019848609905083850292508281039150828110156127d9576001820391505b509250929050565b600081810382168083816127f157fe5b0492508085816127fd57fe5b04945080816000038161280c57fe5b60028581038087028203028087028203028087028203028087028203028087028203028087028203029586029003909402930460010193909302939093010292915050565b828054600181600116156101000203166002900490600052602060002090601f01602090048101928261288757600085556128cd565b82601f106128a057805160ff19168380011785556128cd565b828001600101855582156128cd579182015b828111156128cd5782518255916020019190600101906128b2565b506128d99291506128dd565b5090565b5b808211156128d957600081556001016128de56fe456e756d657261626c655365743a20696e646578206f7574206f6620626f756e647345524332303a207472616e7366657220746f20746865207a65726f2061646472657373416363657373436f6e74726f6c3a2073656e646572206d75737420626520616e2061646d696e20746f206772616e7445524332303a20617070726f766520746f20746865207a65726f206164647265737345524332303a207472616e7366657220616d6f756e7420657863656564732062616c616e6365416363657373436f6e74726f6c3a2073656e646572206d75737420626520616e2061646d696e20746f207265766f6b65496e697469616c697a61626c653a20636f6e747261637420697320616c726561647920696e697469616c697a6564536166654d6174683a206d756c7469706c69636174696f6e206f766572666c6f7745524332303a207472616e7366657220616d6f756e74206578636565647320616c6c6f77616e636565d7a28e3265b37a6474929f336521b332c1681b933f6cb9f3376673440d862a45524332303a207472616e736665722066726f6d20746865207a65726f206164647265737345524332303a20617070726f76652066726f6d20746865207a65726f206164647265737345524332303a2064656372656173656420616c6c6f77616e63652062656c6f77207a65726f416363657373436f6e74726f6c3a2063616e206f6e6c792072656e6f756e636520726f6c657320666f722073656c66a26469706673582212206a4489767b6146780ac77afefda302511bafe6b7cf736e96156ad3f0ec15a49b64736f6c63430007060033",
  "immutableReferences": {},
  "source": "// SPDX-License-Identifier: UNLICENSED\npragma solidity >=0.7.0;\n\nimport \"@openzeppelin/contracts-upgradeable/token/ERC20/ERC20Upgradeable.sol\";\nimport \"@openzeppelin/contracts-upgradeable/utils/PausableUpgradeable.sol\";\nimport \"@openzeppelin/contracts-upgradeable/access/AccessControlUpgradeable.sol\";\nimport \"@openzeppelin/contracts-upgradeable/math/SafeMathUpgradeable.sol\";\nimport \"./libraries/FullMath.sol\";\nimport \"./interfaces/IVestingTimelockV2.sol\";\nimport \"./interfaces/IPSTAKE.sol\";\n\ncontract PSTAKE is\n  IPSTAKE,\n  ERC20Upgradeable,\n  PausableUpgradeable,\n  AccessControlUpgradeable\n{\n  // including libraries\n  using SafeMathUpgradeable for uint256;\n  using FullMath for uint256;\n\n  // constants defining access control ROLES\n  bytes32 public constant PAUSER_ROLE = keccak256(\"PAUSER_ROLE\");\n  bytes32 public constant MINTER_ROLE = keccak256(\"MINTER_ROLE\");\n\n  // variable pertaining to contract upgrades versioning and value divisor\n  uint256 public _version;\n  uint256 public _valueDivisor;\n\n  // addresses pertaining to various tokenomics strategy\n  address public _airdropPool;\n  address public _alphaLaunchpadPool;\n  address public _seedSalePool;\n  address public _publicSalePool1;\n  address public _publicSalePool2;\n  address public _publicSalePool3;\n  address public _teamPool;\n  address public _incentivisationPool;\n  address public _xprtStakersPool;\n  address public _protocolTreasuryPool;\n  address public _communityDevelopmentFundPool;\n  address public _retroactiveRewardProtocolBootstrapPool;\n\n  // address of vesting timelock contract to enable several vesting strategy\n  address public _vestingTimelockAddress;\n\n  // total inflated supply and the supply limit component to implement inflation\n  uint256 public _totalInflatedSupply;\n  uint256 public _inflationRate;\n  uint256 public _inflationPeriod;\n  uint256 public _lastInflationBlockTime;\n  uint256 public _supplyMaxLimit;\n\n  // constants for value allocation\n  uint256 public constant INFLATION_RATE = uint256(15e7);\n  uint256 public constant INFLATION_PERIOD = 365 days;\n  uint256 public constant VALUE_DIVISOR = uint256(1e9);\n  uint256 public constant SUPPLY_AT_GENESIS = uint256(500000000e18);\n  uint256 public constant TOTAL_VESTED_SUPPLY = uint256(450111111e18);\n  uint256 public constant SUPPLY_MAX_LIMIT = uint256(1250000000e18);\n\n  // pre-allocate tokens to strategy pools\n  uint256 public constant AIRDROPPOOLALLOCATION = uint256(5000000e18);\n  uint256 public constant ALPHALAUNCHPADPOOLALLOCATION = uint256(10000000e18);\n  uint256 public constant INCENTIVISATIONPOOLALLOCATION = uint256(13222222e18);\n  uint256 public constant XPRTSTAKERSPOOLALLOCATION = uint256(1250000e18);\n  uint256 public constant PROTOCOLTREASURYPOOLALLOCATION = uint256(4250000e18);\n  uint256 public constant COMMUNITYDEVELOPMENTFUNDPOOLALLOCATION =\n    uint256(1666667e18);\n  uint256 public constant RETROACTIVEREWARDPROTOCOLBOOTSTRAPPOOLALLOCATION =\n    uint256(14500000e18);\n\n  /**\n   * @dev Constructor for initializing the PSTAKE contract.\n   * @param vestingTimelockAddress - address of the vesting timelock contract.\n   * @param airdropPool - address of the airdrop pool.\n   * @param alphaLaunchpadPool - address of the alpha launchpad pool.\n   * @param seedSalePool - address of the seed sale pool.\n   * @param publicSalePool1 - address of the public sale pool1.\n   * @param publicSalePool2 - address of the public sale pool2.\n   * @param publicSalePool3 - address of the public sale pool3.\n   * @param teamPool - address of the team pool.\n   * @param incentivisationPool - address of the incentivising pool.\n   * @param xprtStakersPool - address of the xprt stakers pool.\n   * @param protocolTreasuryPool - address of the protocol treasury pool.\n   * @param communityDevelopmentFundPool - address of the community development fund pool.\n   * @param retroactiveRewardProtocolBootstrapPool - address of the retroactive reward protocol bootstrap pool.\n   */\n  function initialize(\n    address vestingTimelockAddress,\n    address airdropPool,\n    address alphaLaunchpadPool,\n    address seedSalePool,\n    address publicSalePool1,\n    address publicSalePool2,\n    address publicSalePool3,\n    address teamPool,\n    address incentivisationPool,\n    address xprtStakersPool,\n    address protocolTreasuryPool,\n    address communityDevelopmentFundPool,\n    address retroactiveRewardProtocolBootstrapPool\n  ) public virtual initializer {\n    __ERC20_init(\"pSTAKE Token\", \"PSTAKE\");\n    __AccessControl_init();\n    __Pausable_init();\n    _setupRole(DEFAULT_ADMIN_ROLE, _msgSender());\n    _setupRole(PAUSER_ROLE, _msgSender());\n    _setupRole(MINTER_ROLE, _msgSender());\n\n    // PSTAKE is an erc20 token hence 18 decimal places\n    _setupDecimals(18);\n    _inflationRate = INFLATION_RATE;\n    _inflationPeriod = INFLATION_PERIOD;\n    _valueDivisor = VALUE_DIVISOR;\n    _lastInflationBlockTime = block.timestamp;\n    _totalInflatedSupply = SUPPLY_AT_GENESIS;\n    _supplyMaxLimit = SUPPLY_MAX_LIMIT;\n\n    // setup the version and vesting timelock contract\n    _version = 1;\n    _vestingTimelockAddress = vestingTimelockAddress;\n\n    // allocate the various tokenomics strategy pool addresses\n    // (must be different addresses because each address can have only one active vesting strategy at a time)\n    _airdropPool = airdropPool;\n    _alphaLaunchpadPool = alphaLaunchpadPool;\n    _seedSalePool = seedSalePool;\n    _publicSalePool1 = publicSalePool1;\n    _publicSalePool2 = publicSalePool2;\n    _publicSalePool3 = publicSalePool3;\n    _teamPool = teamPool;\n    _incentivisationPool = incentivisationPool;\n    _xprtStakersPool = xprtStakersPool;\n    _protocolTreasuryPool = protocolTreasuryPool;\n    _communityDevelopmentFundPool = communityDevelopmentFundPool;\n    _retroactiveRewardProtocolBootstrapPool = retroactiveRewardProtocolBootstrapPool;\n\n    // pre-allocate tokens to strategy pools\n    _mint(_airdropPool, AIRDROPPOOLALLOCATION);\n    _mint(_alphaLaunchpadPool, ALPHALAUNCHPADPOOLALLOCATION);\n    _mint(_incentivisationPool, INCENTIVISATIONPOOLALLOCATION);\n    _mint(_xprtStakersPool, XPRTSTAKERSPOOLALLOCATION);\n    _mint(_protocolTreasuryPool, PROTOCOLTREASURYPOOLALLOCATION);\n    _mint(\n      _communityDevelopmentFundPool,\n      COMMUNITYDEVELOPMENTFUNDPOOLALLOCATION\n    );\n    _mint(\n      _retroactiveRewardProtocolBootstrapPool,\n      RETROACTIVEREWARDPROTOCOLBOOTSTRAPPOOLALLOCATION\n    );\n\n    // accumulate tokens to allocate for vesting strategies (total supply - initial circulating supply)\n    mint(address(this), TOTAL_VESTED_SUPPLY);\n\n    // approve the vesting timelock contract to pull the tokens\n    _approve(address(this), _vestingTimelockAddress, TOTAL_VESTED_SUPPLY);\n\n    // ALLOCATING VESTING STRATEGIES\n\n    /*  // airdrop pool\n    IVestingTimelockV2(_vestingTimelockAddress).addGrantAsInstalment(\n      address(this),\n      _airdropPool,\n      block.timestamp,\n      // 1 month\n      (30 days + 10 hours),\n      uint256(5000000e18),\n      5,\n      // 1 month\n      (30 days + 10 hours),\n      false\n    );\n\n    // seedSale pool\n    IVestingTimelockV2(_vestingTimelockAddress).addGrantAsInstalment(\n      address(this),\n      _seedSalePool,\n      block.timestamp,\n      // 6 months\n      (182 days + 12 hours),\n      uint256(8333333e18),\n      12,\n      // 1 month\n      (30 days + 10 hours),\n      false\n    );\n\n    // publicSalePool1 pool\n    IVestingTimelockV2(_vestingTimelockAddress).addGrantAsInstalment(\n      address(this),\n      _publicSalePool1,\n      block.timestamp,\n      // 6 months\n      (182 days + 12 hours),\n      uint256(833333e18),\n      6,\n      // 1 month\n      (30 days + 10 hours),\n      false\n    );\n\n    // publicSalePool2 pool\n    IVestingTimelockV2(_vestingTimelockAddress).addGrantAsInstalment(\n      address(this),\n      _publicSalePool2,\n      block.timestamp,\n      // 3 months\n      (91 days + 6 hours),\n      uint256(1666667e18),\n      6,\n      // 1 month\n      (30 days + 10 hours),\n      false\n    );\n\n    // publicSalePool3 pool\n    IVestingTimelockV2(_vestingTimelockAddress).addGrantAsInstalment(\n      address(this),\n      _publicSalePool3,\n      block.timestamp,\n      // 1 month\n      (30 days + 10 hours),\n      uint256(10000000e18),\n      1,\n      // 0 month\n      0,\n      false\n    );\n\n    // team pool\n    IVestingTimelockV2(_vestingTimelockAddress).addGrantAsInstalment(\n      address(this),\n      _teamPool,\n      block.timestamp,\n      // 18 months\n      (547 days + 12 hours),\n      uint256(4444444e18),\n      18,\n      // 1 month\n      (30 days + 10 hours),\n      false\n    );\n\n    // incentivisation pool\n    IVestingTimelockV2(_vestingTimelockAddress).addGrantAsInstalment(\n      address(this),\n      _incentivisationPool,\n      block.timestamp,\n      // 3 months\n      (91 days + 6 hours),\n      uint256(13222222e18),\n      8,\n      // 3 months\n      (91 days + 6 hours),\n      false\n    );\n\n    // xprtStakers pool\n    IVestingTimelockV2(_vestingTimelockAddress).addGrantAsInstalment(\n      address(this),\n      _xprtStakersPool,\n      block.timestamp,\n      // 1 month\n      (30 days + 10 hours),\n      uint256(1250000e18),\n      11,\n      // 1 month\n      (30 days + 10 hours),\n      false\n    );\n\n    // protocolTreasury pool\n    IVestingTimelockV2(_vestingTimelockAddress).addGrantAsInstalment(\n      address(this),\n      _protocolTreasuryPool,\n      block.timestamp,\n      // 2 months\n      (60 days + 20 hours),\n      uint256(4250000e18),\n      17,\n      // 2 months\n      (60 days + 20 hours),\n      false\n    );\n\n    // communityDevelopmentFund pool\n    IVestingTimelockV2(_vestingTimelockAddress).addGrantAsInstalment(\n      address(this),\n      _communityDevelopmentFundPool,\n      block.timestamp,\n      // 3 months\n      (91 days + 6 hours),\n      uint256(1666667e18),\n      17,\n      // 3 months\n      (91 days + 6 hours),\n      false\n    ); */\n  }\n\n  /**\n   * @dev Check inflation\n   * Emits a {CheckInflation} event with 'block height', 'inflationComponent', and 'timestamp'.\n   *\n   */\n  function _checkInflation() internal returns (uint256 totalInflatedSupply) {\n    // if the _totalInflatedSupply has already reacted _supplyMaxLimit then return\n    if (_totalInflatedSupply >= _supplyMaxLimit) return (totalInflatedSupply);\n\n    // get the time since last inflation\n    uint256 timeSinceLastInflation = (block.timestamp).sub(\n      _lastInflationBlockTime\n    );\n\n    // get the inflation amount for one cycle of inflation period\n    uint256 inflationPerInstalment = uint256(SUPPLY_AT_GENESIS).mulDiv(\n      _inflationRate,\n      _valueDivisor\n    );\n\n    // get the number of cycles/instalments of inflation that are pending to be updated\n    uint256 inflationInstalments = timeSinceLastInflation.div(_inflationPeriod);\n    uint256 additionalInflation = inflationInstalments.mul(\n      inflationPerInstalment\n    );\n    uint256 additionalBlockTime = inflationInstalments.mul(_inflationPeriod);\n\n    if (inflationInstalments > 0) {\n      // add inflationPerInstalment to total inflated supply\n      uint256 inflationDiff = _supplyMaxLimit.sub(_totalInflatedSupply);\n      _totalInflatedSupply = _totalInflatedSupply.add(additionalInflation);\n\n      if (_totalInflatedSupply > _supplyMaxLimit) {\n        // set totalInflatedSupply as supply max limit\n        _totalInflatedSupply = _supplyMaxLimit;\n        _lastInflationBlockTime = 0;\n\n        // update the _lastInflationBlockTime value\n        uint256 blockTimeDiff = additionalBlockTime.mulDiv(\n          inflationDiff,\n          additionalInflation\n        );\n        _lastInflationBlockTime = _lastInflationBlockTime.add(blockTimeDiff);\n      } else {\n        // update _lastInflationBlockTime with the time period pertaining to inflationInstalments\n        _lastInflationBlockTime = _lastInflationBlockTime.add(\n          additionalBlockTime\n        );\n      }\n\n      // emit an event\n      emit CheckInflation(\n        _lastInflationBlockTime,\n        inflationInstalments.mul(_inflationPeriod),\n        block.timestamp\n      );\n    }\n\n    totalInflatedSupply = _totalInflatedSupply;\n  }\n\n  /**\n   * @dev Set inflation\n   * @param inflationRate: inflation rate.\n   *\n   */\n  function setInflation(uint256 inflationRate)\n    public\n    virtual\n    override\n    returns (bool success)\n  {\n    require(hasRole(DEFAULT_ADMIN_ROLE, _msgSender()), \"PS0\");\n    // require inflation rate to be not more than 100 since it is a percentage\n    require(inflationRate <= _valueDivisor, \"PS7\");\n    _inflationRate = inflationRate;\n    success = true;\n    emit SetInflationRate(_msgSender(), inflationRate);\n  }\n\n  /**\n   * @dev Set supply max limit of the inflation component\n   * @param supplyMaxLimit: supply max limit value\n   *\n   */\n  function setSupplyMaxLimit(uint256 supplyMaxLimit)\n    public\n    virtual\n    override\n    returns (bool success)\n  {\n    // require this function to be callable only by the admin\n    require(hasRole(DEFAULT_ADMIN_ROLE, _msgSender()), \"PS8\");\n    _supplyMaxLimit = supplyMaxLimit;\n    success = true;\n    emit SetSupplyMaxLimit(_msgSender(), supplyMaxLimit);\n  }\n\n  /**\n   * @dev Mint new PSTAKE for the provided 'address' and 'amount'\n   *\n   *\n   * Emits a {MintTokens} event with 'to' set to address and 'tokens' set to amount of tokens.\n   *\n   * Requirements:\n   *\n   * - `amount` cannot be less than zero.\n   *\n   */\n  function mint(address to, uint256 tokens)\n    public\n    virtual\n    override\n    returns (bool success)\n  {\n    require(hasRole(MINTER_ROLE, _msgSender()), \"PS1\");\n\n    // condition to check if the total supply doesnt cross the inflated supply\n    _checkInflation();\n    require((totalSupply()).add(tokens) <= _totalInflatedSupply, \"PS2\");\n\n    // mint the tokens\n    _mint(to, tokens);\n    return true;\n  }\n\n  /**\n   * @dev Set 'contract address', called from constructor\n   * @param vestingTimelockAddress: Vesting timelock contract address\n   *\n   * Emits a {SetVestingTimelockContract} event with '_contract' set to the VestingTimelockcontract address.\n   */\n  function setVestingTimelockContract(address vestingTimelockAddress)\n    public\n    virtual\n    override\n  {\n    require(hasRole(DEFAULT_ADMIN_ROLE, _msgSender()), \"PS6\");\n    _vestingTimelockAddress = vestingTimelockAddress;\n    emit SetVestingTimelockContract(vestingTimelockAddress);\n  }\n\n  /**\n   * @dev Triggers stopped state.\n   *\n   * Requirements:\n   *\n   * - The contract must not be paused.\n   */\n  function pause() public virtual override returns (bool success) {\n    require(hasRole(PAUSER_ROLE, _msgSender()), \"PS3\");\n    _pause();\n    return true;\n  }\n\n  /**\n   * @dev Returns to normal state.\n   *\n   * Requirements:\n   *\n   * - The contract must be paused.\n   */\n  function unpause() public virtual override returns (bool success) {\n    require(hasRole(PAUSER_ROLE, _msgSender()), \"PS4\");\n    _unpause();\n    return true;\n  }\n\n  /**\n   * @dev Hook that is called before any transfer of tokens. This includes\n   * minting and burning.\n   *\n   * Calling conditions:\n   *\n   * - when `from` and `to` are both non-zero, `amount` of ``from``'s tokens\n   * will be to transferred to `to`.\n   * - when `from` is zero, `amount` tokens will be minted for `to`.\n   * - when `to` is zero, `amount` of ``from``'s tokens will be burned.\n   * - `from` and `to` are never both zero.\n   *\n   */\n  function _beforeTokenTransfer(\n    address from,\n    address to,\n    uint256 amount\n  ) internal virtual override {\n    require(!paused(), \"PS5\");\n    super._beforeTokenTransfer(from, to, amount);\n  }\n}\n",
  "sourcePath": "/home/aditimahesh/Documents/Work/Persistence/go/src/github.com/persistenceOne/ERC20/contracts/PSTAKE.sol",
  "compiler": {
    "name": "solc",
    "version": "0.7.6+commit.7338295f.Emscripten.clang"
  },
  "schemaVersion": "3.4.3",
  "updatedAt": "2021-11-15T09:55:44.345Z",
  "devdoc": {
    "kind": "dev",
    "methods": {
      "allowance(address,address)": {
        "details": "See {IERC20-allowance}."
      },
      "approve(address,uint256)": {
        "details": "See {IERC20-approve}. Requirements: - `spender` cannot be the zero address."
      },
      "balanceOf(address)": {
        "details": "See {IERC20-balanceOf}."
      },
      "decimals()": {
        "details": "Returns the number of decimals used to get its user representation. For example, if `decimals` equals `2`, a balance of `505` tokens should be displayed to a user as `5,05` (`505 / 10 ** 2`). Tokens usually opt for a value of 18, imitating the relationship between Ether and Wei. This is the value {ERC20} uses, unless {_setupDecimals} is called. NOTE: This information is only used for _display_ purposes: it in no way affects any of the arithmetic of the contract, including {IERC20-balanceOf} and {IERC20-transfer}."
      },
      "decreaseAllowance(address,uint256)": {
        "details": "Atomically decreases the allowance granted to `spender` by the caller. This is an alternative to {approve} that can be used as a mitigation for problems described in {IERC20-approve}. Emits an {Approval} event indicating the updated allowance. Requirements: - `spender` cannot be the zero address. - `spender` must have allowance for the caller of at least `subtractedValue`."
      },
      "getRoleAdmin(bytes32)": {
        "details": "Returns the admin role that controls `role`. See {grantRole} and {revokeRole}. To change a role's admin, use {_setRoleAdmin}."
      },
      "getRoleMember(bytes32,uint256)": {
        "details": "Returns one of the accounts that have `role`. `index` must be a value between 0 and {getRoleMemberCount}, non-inclusive. Role bearers are not sorted in any particular way, and their ordering may change at any point. WARNING: When using {getRoleMember} and {getRoleMemberCount}, make sure you perform all queries on the same block. See the following https://forum.openzeppelin.com/t/iterating-over-elements-on-enumerableset-in-openzeppelin-contracts/2296[forum post] for more information."
      },
      "getRoleMemberCount(bytes32)": {
        "details": "Returns the number of accounts that have `role`. Can be used together with {getRoleMember} to enumerate all bearers of a role."
      },
      "grantRole(bytes32,address)": {
        "details": "Grants `role` to `account`. If `account` had not been already granted `role`, emits a {RoleGranted} event. Requirements: - the caller must have ``role``'s admin role."
      },
      "hasRole(bytes32,address)": {
        "details": "Returns `true` if `account` has been granted `role`."
      },
      "increaseAllowance(address,uint256)": {
        "details": "Atomically increases the allowance granted to `spender` by the caller. This is an alternative to {approve} that can be used as a mitigation for problems described in {IERC20-approve}. Emits an {Approval} event indicating the updated allowance. Requirements: - `spender` cannot be the zero address."
      },
      "initialize(address,address,address,address,address,address,address,address,address,address,address,address,address)": {
        "details": "Constructor for initializing the PSTAKE contract.",
        "params": {
          "airdropPool": "- address of the airdrop pool.",
          "alphaLaunchpadPool": "- address of the alpha launchpad pool.",
          "communityDevelopmentFundPool": "- address of the community development fund pool.",
          "incentivisationPool": "- address of the incentivising pool.",
          "protocolTreasuryPool": "- address of the protocol treasury pool.",
          "publicSalePool1": "- address of the public sale pool1.",
          "publicSalePool2": "- address of the public sale pool2.",
          "publicSalePool3": "- address of the public sale pool3.",
          "retroactiveRewardProtocolBootstrapPool": "- address of the retroactive reward protocol bootstrap pool.",
          "seedSalePool": "- address of the seed sale pool.",
          "teamPool": "- address of the team pool.",
          "vestingTimelockAddress": "- address of the vesting timelock contract.",
          "xprtStakersPool": "- address of the xprt stakers pool."
        }
      },
      "mint(address,uint256)": {
        "details": "Mint new PSTAKE for the provided 'address' and 'amount' Emits a {MintTokens} event with 'to' set to address and 'tokens' set to amount of tokens. Requirements: - `amount` cannot be less than zero."
      },
      "name()": {
        "details": "Returns the name of the token."
      },
      "pause()": {
        "details": "Triggers stopped state. Requirements: - The contract must not be paused."
      },
      "paused()": {
        "details": "Returns true if the contract is paused, and false otherwise."
      },
      "renounceRole(bytes32,address)": {
        "details": "Revokes `role` from the calling account. Roles are often managed via {grantRole} and {revokeRole}: this function's purpose is to provide a mechanism for accounts to lose their privileges if they are compromised (such as when a trusted device is misplaced). If the calling account had been granted `role`, emits a {RoleRevoked} event. Requirements: - the caller must be `account`."
      },
      "revokeRole(bytes32,address)": {
        "details": "Revokes `role` from `account`. If `account` had been granted `role`, emits a {RoleRevoked} event. Requirements: - the caller must have ``role``'s admin role."
      },
      "setInflation(uint256)": {
        "details": "Set inflation",
        "params": {
          "inflationRate": ": inflation rate."
        }
      },
      "setSupplyMaxLimit(uint256)": {
        "details": "Set supply max limit of the inflation component",
        "params": {
          "supplyMaxLimit": ": supply max limit value"
        }
      },
      "setVestingTimelockContract(address)": {
        "details": "Set 'contract address', called from constructor",
        "params": {
          "vestingTimelockAddress": ": Vesting timelock contract address Emits a {SetVestingTimelockContract} event with '_contract' set to the VestingTimelockcontract address."
        }
      },
      "symbol()": {
        "details": "Returns the symbol of the token, usually a shorter version of the name."
      },
      "totalSupply()": {
        "details": "See {IERC20-totalSupply}."
      },
      "transfer(address,uint256)": {
        "details": "See {IERC20-transfer}. Requirements: - `recipient` cannot be the zero address. - the caller must have a balance of at least `amount`."
      },
      "transferFrom(address,address,uint256)": {
        "details": "See {IERC20-transferFrom}. Emits an {Approval} event indicating the updated allowance. This is not required by the EIP. See the note at the beginning of {ERC20}. Requirements: - `sender` and `recipient` cannot be the zero address. - `sender` must have a balance of at least `amount`. - the caller must have allowance for ``sender``'s tokens of at least `amount`."
      },
      "unpause()": {
        "details": "Returns to normal state. Requirements: - The contract must be paused."
      }
    },
    "version": 1
  },
  "userdoc": {
    "kind": "user",
    "methods": {},
    "version": 1
  }
}