{
  "contractName": "PSTAKE",
  "abi": [
    {
      "anonymous": false,
      "inputs": [
        {
          "indexed": true,
          "internalType": "address",
          "name": "owner",
          "type": "address"
        },
        {
          "indexed": true,
          "internalType": "address",
          "name": "spender",
          "type": "address"
        },
        {
          "indexed": false,
          "internalType": "uint256",
          "name": "value",
          "type": "uint256"
        }
      ],
      "name": "Approval",
      "type": "event"
    },
    {
      "anonymous": false,
      "inputs": [
        {
          "indexed": false,
          "internalType": "uint256",
          "name": "lastInflationBlockTime",
          "type": "uint256"
        },
        {
          "indexed": false,
          "internalType": "uint256",
          "name": "inflationAdded",
          "type": "uint256"
        },
        {
          "indexed": false,
          "internalType": "uint256",
          "name": "timestamp",
          "type": "uint256"
        }
      ],
      "name": "CheckInflation",
      "type": "event"
    },
    {
      "anonymous": false,
      "inputs": [
        {
          "indexed": false,
          "internalType": "address",
          "name": "account",
          "type": "address"
        }
      ],
      "name": "Paused",
      "type": "event"
    },
    {
      "anonymous": false,
      "inputs": [
        {
          "indexed": true,
          "internalType": "bytes32",
          "name": "role",
          "type": "bytes32"
        },
        {
          "indexed": true,
          "internalType": "bytes32",
          "name": "previousAdminRole",
          "type": "bytes32"
        },
        {
          "indexed": true,
          "internalType": "bytes32",
          "name": "newAdminRole",
          "type": "bytes32"
        }
      ],
      "name": "RoleAdminChanged",
      "type": "event"
    },
    {
      "anonymous": false,
      "inputs": [
        {
          "indexed": true,
          "internalType": "bytes32",
          "name": "role",
          "type": "bytes32"
        },
        {
          "indexed": true,
          "internalType": "address",
          "name": "account",
          "type": "address"
        },
        {
          "indexed": true,
          "internalType": "address",
          "name": "sender",
          "type": "address"
        }
      ],
      "name": "RoleGranted",
      "type": "event"
    },
    {
      "anonymous": false,
      "inputs": [
        {
          "indexed": true,
          "internalType": "bytes32",
          "name": "role",
          "type": "bytes32"
        },
        {
          "indexed": true,
          "internalType": "address",
          "name": "account",
          "type": "address"
        },
        {
          "indexed": true,
          "internalType": "address",
          "name": "sender",
          "type": "address"
        }
      ],
      "name": "RoleRevoked",
      "type": "event"
    },
    {
      "anonymous": false,
      "inputs": [
        {
          "indexed": false,
          "internalType": "address",
          "name": "vestingTimelockAddress",
          "type": "address"
        }
      ],
      "name": "SetVestingTimelockContract",
      "type": "event"
    },
    {
      "anonymous": false,
      "inputs": [
        {
          "indexed": true,
          "internalType": "address",
          "name": "from",
          "type": "address"
        },
        {
          "indexed": true,
          "internalType": "address",
          "name": "to",
          "type": "address"
        },
        {
          "indexed": false,
          "internalType": "uint256",
          "name": "value",
          "type": "uint256"
        }
      ],
      "name": "Transfer",
      "type": "event"
    },
    {
      "anonymous": false,
      "inputs": [
        {
          "indexed": false,
          "internalType": "address",
          "name": "account",
          "type": "address"
        }
      ],
      "name": "Unpaused",
      "type": "event"
    },
    {
      "inputs": [],
      "name": "AIRDROPPOOLALLOCATION",
      "outputs": [
        {
          "internalType": "uint256",
          "name": "",
          "type": "uint256"
        }
      ],
      "stateMutability": "view",
      "type": "function",
      "constant": true
    },
    {
      "inputs": [],
      "name": "ALPHALAUNCHPADPOOLALLOCATION",
      "outputs": [
        {
          "internalType": "uint256",
          "name": "",
          "type": "uint256"
        }
      ],
      "stateMutability": "view",
      "type": "function",
      "constant": true
    },
    {
      "inputs": [],
      "name": "COMMUNITYDEVELOPMENTFUNDPOOLALLOCATION",
      "outputs": [
        {
          "internalType": "uint256",
          "name": "",
          "type": "uint256"
        }
      ],
      "stateMutability": "view",
      "type": "function",
      "constant": true
    },
    {
      "inputs": [],
      "name": "DEFAULT_ADMIN_ROLE",
      "outputs": [
        {
          "internalType": "bytes32",
          "name": "",
          "type": "bytes32"
        }
      ],
      "stateMutability": "view",
      "type": "function",
      "constant": true
    },
    {
      "inputs": [],
      "name": "INCENTIVISATIONPOOLALLOCATION",
      "outputs": [
        {
          "internalType": "uint256",
          "name": "",
          "type": "uint256"
        }
      ],
      "stateMutability": "view",
      "type": "function",
      "constant": true
    },
    {
      "inputs": [],
      "name": "INFLATION_PERIOD",
      "outputs": [
        {
          "internalType": "uint256",
          "name": "",
          "type": "uint256"
        }
      ],
      "stateMutability": "view",
      "type": "function",
      "constant": true
    },
    {
      "inputs": [],
      "name": "INFLATION_RATE",
      "outputs": [
        {
          "internalType": "uint256",
          "name": "",
          "type": "uint256"
        }
      ],
      "stateMutability": "view",
      "type": "function",
      "constant": true
    },
    {
      "inputs": [],
      "name": "PAUSER_ROLE",
      "outputs": [
        {
          "internalType": "bytes32",
          "name": "",
          "type": "bytes32"
        }
      ],
      "stateMutability": "view",
      "type": "function",
      "constant": true
    },
    {
      "inputs": [],
      "name": "PROTOCOLTREASURYPOOLALLOCATION",
      "outputs": [
        {
          "internalType": "uint256",
          "name": "",
          "type": "uint256"
        }
      ],
      "stateMutability": "view",
      "type": "function",
      "constant": true
    },
    {
      "inputs": [],
      "name": "RETROACTIVEREWARDPROTOCOLBOOTSTRAPPOOLALLOCATION",
      "outputs": [
        {
          "internalType": "uint256",
          "name": "",
          "type": "uint256"
        }
      ],
      "stateMutability": "view",
      "type": "function",
      "constant": true
    },
    {
      "inputs": [],
      "name": "SUPPLY_AT_GENESIS",
      "outputs": [
        {
          "internalType": "uint256",
          "name": "",
          "type": "uint256"
        }
      ],
      "stateMutability": "view",
      "type": "function",
      "constant": true
    },
    {
      "inputs": [],
      "name": "SUPPLY_MAX_LIMIT",
      "outputs": [
        {
          "internalType": "uint256",
          "name": "",
          "type": "uint256"
        }
      ],
      "stateMutability": "view",
      "type": "function",
      "constant": true
    },
    {
      "inputs": [],
      "name": "TOTAL_VESTED_SUPPLY",
      "outputs": [
        {
          "internalType": "uint256",
          "name": "",
          "type": "uint256"
        }
      ],
      "stateMutability": "view",
      "type": "function",
      "constant": true
    },
    {
      "inputs": [],
      "name": "VALUE_DIVISOR",
      "outputs": [
        {
          "internalType": "uint256",
          "name": "",
          "type": "uint256"
        }
      ],
      "stateMutability": "view",
      "type": "function",
      "constant": true
    },
    {
      "inputs": [],
      "name": "XPRTSTAKERSPOOLALLOCATION",
      "outputs": [
        {
          "internalType": "uint256",
          "name": "",
          "type": "uint256"
        }
      ],
      "stateMutability": "view",
      "type": "function",
      "constant": true
    },
    {
      "inputs": [],
      "name": "_airdropPool",
      "outputs": [
        {
          "internalType": "address",
          "name": "",
          "type": "address"
        }
      ],
      "stateMutability": "view",
      "type": "function",
      "constant": true
    },
    {
      "inputs": [],
      "name": "_alphaLaunchpadPool",
      "outputs": [
        {
          "internalType": "address",
          "name": "",
          "type": "address"
        }
      ],
      "stateMutability": "view",
      "type": "function",
      "constant": true
    },
    {
      "inputs": [],
      "name": "_communityDevelopmentFundPool",
      "outputs": [
        {
          "internalType": "address",
          "name": "",
          "type": "address"
        }
      ],
      "stateMutability": "view",
      "type": "function",
      "constant": true
    },
    {
      "inputs": [],
      "name": "_incentivisationPool",
      "outputs": [
        {
          "internalType": "address",
          "name": "",
          "type": "address"
        }
      ],
      "stateMutability": "view",
      "type": "function",
      "constant": true
    },
    {
      "inputs": [],
      "name": "_inflationPeriod",
      "outputs": [
        {
          "internalType": "uint256",
          "name": "",
          "type": "uint256"
        }
      ],
      "stateMutability": "view",
      "type": "function",
      "constant": true
    },
    {
      "inputs": [],
      "name": "_inflationRate",
      "outputs": [
        {
          "internalType": "uint256",
          "name": "",
          "type": "uint256"
        }
      ],
      "stateMutability": "view",
      "type": "function",
      "constant": true
    },
    {
      "inputs": [],
      "name": "_lastInflationBlockTime",
      "outputs": [
        {
          "internalType": "uint256",
          "name": "",
          "type": "uint256"
        }
      ],
      "stateMutability": "view",
      "type": "function",
      "constant": true
    },
    {
      "inputs": [],
      "name": "_protocolTreasuryPool",
      "outputs": [
        {
          "internalType": "address",
          "name": "",
          "type": "address"
        }
      ],
      "stateMutability": "view",
      "type": "function",
      "constant": true
    },
    {
      "inputs": [],
      "name": "_publicSalePool1",
      "outputs": [
        {
          "internalType": "address",
          "name": "",
          "type": "address"
        }
      ],
      "stateMutability": "view",
      "type": "function",
      "constant": true
    },
    {
      "inputs": [],
      "name": "_publicSalePool2",
      "outputs": [
        {
          "internalType": "address",
          "name": "",
          "type": "address"
        }
      ],
      "stateMutability": "view",
      "type": "function",
      "constant": true
    },
    {
      "inputs": [],
      "name": "_publicSalePool3",
      "outputs": [
        {
          "internalType": "address",
          "name": "",
          "type": "address"
        }
      ],
      "stateMutability": "view",
      "type": "function",
      "constant": true
    },
    {
      "inputs": [],
      "name": "_retroactiveRewardProtocolBootstrapPool",
      "outputs": [
        {
          "internalType": "address",
          "name": "",
          "type": "address"
        }
      ],
      "stateMutability": "view",
      "type": "function",
      "constant": true
    },
    {
      "inputs": [],
      "name": "_seedSalePool",
      "outputs": [
        {
          "internalType": "address",
          "name": "",
          "type": "address"
        }
      ],
      "stateMutability": "view",
      "type": "function",
      "constant": true
    },
    {
      "inputs": [],
      "name": "_supplyMaxLimit",
      "outputs": [
        {
          "internalType": "uint256",
          "name": "",
          "type": "uint256"
        }
      ],
      "stateMutability": "view",
      "type": "function",
      "constant": true
    },
    {
      "inputs": [],
      "name": "_teamPool",
      "outputs": [
        {
          "internalType": "address",
          "name": "",
          "type": "address"
        }
      ],
      "stateMutability": "view",
      "type": "function",
      "constant": true
    },
    {
      "inputs": [],
      "name": "_totalInflatedSupply",
      "outputs": [
        {
          "internalType": "uint256",
          "name": "",
          "type": "uint256"
        }
      ],
      "stateMutability": "view",
      "type": "function",
      "constant": true
    },
    {
      "inputs": [],
      "name": "_valueDivisor",
      "outputs": [
        {
          "internalType": "uint256",
          "name": "",
          "type": "uint256"
        }
      ],
      "stateMutability": "view",
      "type": "function",
      "constant": true
    },
    {
      "inputs": [],
      "name": "_version",
      "outputs": [
        {
          "internalType": "uint256",
          "name": "",
          "type": "uint256"
        }
      ],
      "stateMutability": "view",
      "type": "function",
      "constant": true
    },
    {
      "inputs": [],
      "name": "_vestingTimelockAddress",
      "outputs": [
        {
          "internalType": "address",
          "name": "",
          "type": "address"
        }
      ],
      "stateMutability": "view",
      "type": "function",
      "constant": true
    },
    {
      "inputs": [],
      "name": "_xprtStakersPool",
      "outputs": [
        {
          "internalType": "address",
          "name": "",
          "type": "address"
        }
      ],
      "stateMutability": "view",
      "type": "function",
      "constant": true
    },
    {
      "inputs": [
        {
          "internalType": "address",
          "name": "owner",
          "type": "address"
        },
        {
          "internalType": "address",
          "name": "spender",
          "type": "address"
        }
      ],
      "name": "allowance",
      "outputs": [
        {
          "internalType": "uint256",
          "name": "",
          "type": "uint256"
        }
      ],
      "stateMutability": "view",
      "type": "function",
      "constant": true
    },
    {
      "inputs": [
        {
          "internalType": "address",
          "name": "spender",
          "type": "address"
        },
        {
          "internalType": "uint256",
          "name": "amount",
          "type": "uint256"
        }
      ],
      "name": "approve",
      "outputs": [
        {
          "internalType": "bool",
          "name": "",
          "type": "bool"
        }
      ],
      "stateMutability": "nonpayable",
      "type": "function"
    },
    {
      "inputs": [
        {
          "internalType": "address",
          "name": "account",
          "type": "address"
        }
      ],
      "name": "balanceOf",
      "outputs": [
        {
          "internalType": "uint256",
          "name": "",
          "type": "uint256"
        }
      ],
      "stateMutability": "view",
      "type": "function",
      "constant": true
    },
    {
      "inputs": [],
      "name": "decimals",
      "outputs": [
        {
          "internalType": "uint8",
          "name": "",
          "type": "uint8"
        }
      ],
      "stateMutability": "view",
      "type": "function",
      "constant": true
    },
    {
      "inputs": [
        {
          "internalType": "address",
          "name": "spender",
          "type": "address"
        },
        {
          "internalType": "uint256",
          "name": "subtractedValue",
          "type": "uint256"
        }
      ],
      "name": "decreaseAllowance",
      "outputs": [
        {
          "internalType": "bool",
          "name": "",
          "type": "bool"
        }
      ],
      "stateMutability": "nonpayable",
      "type": "function"
    },
    {
      "inputs": [
        {
          "internalType": "bytes32",
          "name": "role",
          "type": "bytes32"
        }
      ],
      "name": "getRoleAdmin",
      "outputs": [
        {
          "internalType": "bytes32",
          "name": "",
          "type": "bytes32"
        }
      ],
      "stateMutability": "view",
      "type": "function",
      "constant": true
    },
    {
      "inputs": [
        {
          "internalType": "bytes32",
          "name": "role",
          "type": "bytes32"
        },
        {
          "internalType": "uint256",
          "name": "index",
          "type": "uint256"
        }
      ],
      "name": "getRoleMember",
      "outputs": [
        {
          "internalType": "address",
          "name": "",
          "type": "address"
        }
      ],
      "stateMutability": "view",
      "type": "function",
      "constant": true
    },
    {
      "inputs": [
        {
          "internalType": "bytes32",
          "name": "role",
          "type": "bytes32"
        }
      ],
      "name": "getRoleMemberCount",
      "outputs": [
        {
          "internalType": "uint256",
          "name": "",
          "type": "uint256"
        }
      ],
      "stateMutability": "view",
      "type": "function",
      "constant": true
    },
    {
      "inputs": [
        {
          "internalType": "bytes32",
          "name": "role",
          "type": "bytes32"
        },
        {
          "internalType": "address",
          "name": "account",
          "type": "address"
        }
      ],
      "name": "grantRole",
      "outputs": [],
      "stateMutability": "nonpayable",
      "type": "function"
    },
    {
      "inputs": [
        {
          "internalType": "bytes32",
          "name": "role",
          "type": "bytes32"
        },
        {
          "internalType": "address",
          "name": "account",
          "type": "address"
        }
      ],
      "name": "hasRole",
      "outputs": [
        {
          "internalType": "bool",
          "name": "",
          "type": "bool"
        }
      ],
      "stateMutability": "view",
      "type": "function",
      "constant": true
    },
    {
      "inputs": [
        {
          "internalType": "address",
          "name": "spender",
          "type": "address"
        },
        {
          "internalType": "uint256",
          "name": "addedValue",
          "type": "uint256"
        }
      ],
      "name": "increaseAllowance",
      "outputs": [
        {
          "internalType": "bool",
          "name": "",
          "type": "bool"
        }
      ],
      "stateMutability": "nonpayable",
      "type": "function"
    },
    {
      "inputs": [],
      "name": "name",
      "outputs": [
        {
          "internalType": "string",
          "name": "",
          "type": "string"
        }
      ],
      "stateMutability": "view",
      "type": "function",
      "constant": true
    },
    {
      "inputs": [],
      "name": "paused",
      "outputs": [
        {
          "internalType": "bool",
          "name": "",
          "type": "bool"
        }
      ],
      "stateMutability": "view",
      "type": "function",
      "constant": true
    },
    {
      "inputs": [
        {
          "internalType": "bytes32",
          "name": "role",
          "type": "bytes32"
        },
        {
          "internalType": "address",
          "name": "account",
          "type": "address"
        }
      ],
      "name": "renounceRole",
      "outputs": [],
      "stateMutability": "nonpayable",
      "type": "function"
    },
    {
      "inputs": [
        {
          "internalType": "bytes32",
          "name": "role",
          "type": "bytes32"
        },
        {
          "internalType": "address",
          "name": "account",
          "type": "address"
        }
      ],
      "name": "revokeRole",
      "outputs": [],
      "stateMutability": "nonpayable",
      "type": "function"
    },
    {
      "inputs": [],
      "name": "symbol",
      "outputs": [
        {
          "internalType": "string",
          "name": "",
          "type": "string"
        }
      ],
      "stateMutability": "view",
      "type": "function",
      "constant": true
    },
    {
      "inputs": [],
      "name": "totalSupply",
      "outputs": [
        {
          "internalType": "uint256",
          "name": "",
          "type": "uint256"
        }
      ],
      "stateMutability": "view",
      "type": "function",
      "constant": true
    },
    {
      "inputs": [
        {
          "internalType": "address",
          "name": "recipient",
          "type": "address"
        },
        {
          "internalType": "uint256",
          "name": "amount",
          "type": "uint256"
        }
      ],
      "name": "transfer",
      "outputs": [
        {
          "internalType": "bool",
          "name": "",
          "type": "bool"
        }
      ],
      "stateMutability": "nonpayable",
      "type": "function"
    },
    {
      "inputs": [
        {
          "internalType": "address",
          "name": "sender",
          "type": "address"
        },
        {
          "internalType": "address",
          "name": "recipient",
          "type": "address"
        },
        {
          "internalType": "uint256",
          "name": "amount",
          "type": "uint256"
        }
      ],
      "name": "transferFrom",
      "outputs": [
        {
          "internalType": "bool",
          "name": "",
          "type": "bool"
        }
      ],
      "stateMutability": "nonpayable",
      "type": "function"
    },
    {
      "inputs": [
        {
          "internalType": "address",
          "name": "vestingTimelockAddress",
          "type": "address"
        },
        {
          "internalType": "address",
          "name": "airdropPool",
          "type": "address"
        },
        {
          "internalType": "address",
          "name": "alphaLaunchpadPool",
          "type": "address"
        },
        {
          "internalType": "address",
          "name": "seedSalePool",
          "type": "address"
        },
        {
          "internalType": "address",
          "name": "publicSalePool1",
          "type": "address"
        },
        {
          "internalType": "address",
          "name": "publicSalePool2",
          "type": "address"
        },
        {
          "internalType": "address",
          "name": "publicSalePool3",
          "type": "address"
        },
        {
          "internalType": "address",
          "name": "teamPool",
          "type": "address"
        },
        {
          "internalType": "address",
          "name": "incentivisationPool",
          "type": "address"
        },
        {
          "internalType": "address",
          "name": "xprtStakersPool",
          "type": "address"
        },
        {
          "internalType": "address",
          "name": "protocolTreasuryPool",
          "type": "address"
        },
        {
          "internalType": "address",
          "name": "communityDevelopmentFundPool",
          "type": "address"
        },
        {
          "internalType": "address",
          "name": "retroactiveRewardProtocolBootstrapPool",
          "type": "address"
        }
      ],
      "name": "initialize",
      "outputs": [],
      "stateMutability": "nonpayable",
      "type": "function"
    },
    {
      "inputs": [
        {
          "internalType": "uint256",
          "name": "inflationRate",
          "type": "uint256"
        }
      ],
      "name": "setInflation",
      "outputs": [
        {
          "internalType": "bool",
          "name": "success",
          "type": "bool"
        }
      ],
      "stateMutability": "nonpayable",
      "type": "function"
    },
    {
      "inputs": [
        {
          "internalType": "address",
          "name": "to",
          "type": "address"
        },
        {
          "internalType": "uint256",
          "name": "tokens",
          "type": "uint256"
        }
      ],
      "name": "mint",
      "outputs": [
        {
          "internalType": "bool",
          "name": "success",
          "type": "bool"
        }
      ],
      "stateMutability": "nonpayable",
      "type": "function"
    },
    {
      "inputs": [
        {
          "internalType": "address",
          "name": "vestingTimelockAddress",
          "type": "address"
        }
      ],
      "name": "setVestingTimelockContract",
      "outputs": [],
      "stateMutability": "nonpayable",
      "type": "function"
    },
    {
      "inputs": [],
      "name": "pause",
      "outputs": [
        {
          "internalType": "bool",
          "name": "success",
          "type": "bool"
        }
      ],
      "stateMutability": "nonpayable",
      "type": "function"
    },
    {
      "inputs": [],
      "name": "unpause",
      "outputs": [
        {
          "internalType": "bool",
          "name": "success",
          "type": "bool"
        }
      ],
      "stateMutability": "nonpayable",
      "type": "function"
    }
  ],
  "bytecode": "0x608060405234801561001057600080fd5b5061293e806100206000396000f3fe608060405234801561001057600080fd5b50600436106103a45760003560e01c80638969873f116101e9578063c947755a1161010f578063dd62ed3e116100ad578063e63ab1e91161007c578063e63ab1e9146108ec578063e6f0dfdf146108f4578063ef22082c146108fc578063f2e7ccc914610904576103a4565b8063dd62ed3e14610891578063e0a8ed52146108bf578063e1e2e3bf146108dc578063e2f97bb0146108e4576103a4565b8063cb31a85f116100e9578063cb31a85f1461084d578063cdc6c53714610855578063d182a8c91461085d578063d547741f14610865576103a4565b8063c947755a14610820578063c94d747b14610828578063ca15c87314610830576103a4565b8063a55ba9d411610187578063b4029d5e11610156578063b4029d5e14610800578063b999f6d014610808578063b9c266ba14610810578063c32ab7f714610818576103a4565b8063a55ba9d4146107bc578063a60d5e2d146107c4578063a9059cbb146107cc578063b381a811146107f8576103a4565b806395d89b41116101c357806395d89b411461077857806398e8fd0214610780578063a217fddf14610788578063a457c2d714610790576103a4565b80638969873f146107215780639010d07c1461072957806391d148541461074c576103a4565b80633e118dbe116102ce5780635d2ae67b1161026c578063728a99ee1161023b578063728a99ee146107015780637744e3c7146107095780637b17361c146107115780638456cb5914610719576103a4565b80635d2ae67b146106c35780635e07970b146106cb57806370a08231146106d357806371067963146106f9576103a4565b8063499f002c116102a8578063499f002c146106a35780634ad3087c146106ab5780634b5c79ad146106b35780635c975abb146106bb576103a4565b80633e118dbe146106675780633f4ba83a1461066f57806340c10f1914610677576103a4565b8063248a9ca311610346578063313ce56711610315578063313ce567146105e957806336568abe1461060757806339509351146106335780633aed93b61461065f576103a4565b8063248a9ca31461050a5780632cc39ff5146105275780632f2ff15d1461052f5780632fdd983d1461055b576103a4565b80630e054f02116103825780630e054f021461048057806318160ddd146104a457806320dd4868146104ac57806323b872dd146104d4576103a4565b806306fdde03146103a9578063095ea7b3146104265780630cf79b2a14610466575b600080fd5b6103b161090c565b6040805160208082528351818301528351919283929083019185019080838360005b838110156103eb5781810151838201526020016103d3565b50505050905090810190601f1680156104185780820380516001836020036101000a031916815260200191505b509250505060405180910390f35b6104526004803603604081101561043c57600080fd5b506001600160a01b0381351690602001356109a3565b604080519115158252519081900360200190f35b61046e6109c1565b60408051918252519081900360200190f35b6104886109d0565b604080516001600160a01b039092168252519081900360200190f35b61046e6109df565b6104d2600480360360208110156104c257600080fd5b50356001600160a01b03166109e5565b005b610452600480360360608110156104ea57600080fd5b506001600160a01b03813581169160208101359091169060400135610a82565b61046e6004803603602081101561052057600080fd5b5035610b0a565b610488610b1f565b6104d26004803603604081101561054557600080fd5b50803590602001356001600160a01b0316610b2e565b6104d260048036036101a081101561057257600080fd5b506001600160a01b038135811691602081013582169160408201358116916060810135821691608082013581169160a081013582169160c082013581169160e08101358216916101008201358116916101208101358216916101408201358116916101608101358216916101809091013516610b95565b6105f1611052565b6040805160ff9092168252519081900360200190f35b6104d26004803603604081101561061d57600080fd5b50803590602001356001600160a01b031661105b565b6104526004803603604081101561064957600080fd5b506001600160a01b0381351690602001356110bc565b61046e61110a565b61046e61111a565b610452611120565b6104526004803603604081101561068d57600080fd5b506001600160a01b038135169060200135611181565b61046e611227565b61046e61122d565b61048861123c565b61045261124b565b61046e611254565b610488611263565b61046e600480360360208110156106e957600080fd5b50356001600160a01b0316611272565b61048861128d565b61046e61129c565b61046e6112a2565b61046e6112a8565b6104526112b0565b61046e61130b565b6104886004803603604081101561073f57600080fd5b508035906020013561131a565b6104526004803603604081101561076257600080fd5b50803590602001356001600160a01b0316611332565b6103b161134a565b6104886113ab565b61046e6113ba565b610452600480360360408110156107a657600080fd5b506001600160a01b0381351690602001356113bf565b61046e611427565b61046e611437565b610452600480360360408110156107e257600080fd5b506001600160a01b03813516906020013561143d565b61046e611451565b610488611459565b610488611468565b610488611477565b610488611486565b61046e611495565b61046e61149d565b61046e6004803603602081101561084657600080fd5b50356114ac565b6104886114c3565b61046e6114d2565b61046e6114e1565b6104d26004803603604081101561087b57600080fd5b50803590602001356001600160a01b03166114f1565b61046e600480360360408110156108a757600080fd5b506001600160a01b038135811691602001351661154a565b610452600480360360208110156108d557600080fd5b5035611575565b6104886115c3565b6104886115d2565b61046e6115e1565b61046e6115f3565b61046e6115f9565b61046e6115ff565b60368054604080516020601f60026000196101006001881615020190951694909404938401819004810282018101909252828152606093909290918301828280156109985780601f1061096d57610100808354040283529160200191610998565b820191906000526020600020905b81548152906001019060200180831161097b57829003601f168201915b505050505090505b90565b60006109b76109b061160e565b8484611612565b5060015b92915050565b6a0aefea174389736478000081565b60cb546001600160a01b031681565b60355490565b6109f760006109f261160e565b611332565b610a2e576040805162461bcd60e51b815260206004820152600360248201526228299b60e91b604482015290519081900360640190fd5b60d780546001600160a01b0383166001600160a01b0319909116811790915560408051918252517f5e31e3a89ede0d5e39be17ca2a414f0dbdfd4f9a8a9a1054a8358fdf84581ab49181900360200190a150565b6000610a8f8484846116fe565b610aff84610a9b61160e565b610afa85604051806060016040528060288152602001612824602891396001600160a01b038a16600090815260346020526040812090610ad961160e565b6001600160a01b03168152602081019190915260400160002054919061185b565b611612565b5060015b9392505050565b60009081526097602052604090206002015490565b60d2546001600160a01b031681565b600082815260976020526040902060020154610b4c906109f261160e565b610b875760405162461bcd60e51b815260040180806020018281038252602f81526020018061272e602f913960400191505060405180910390fd5b610b9182826118f2565b5050565b600054610100900460ff1680610bae5750610bae61195b565b80610bbc575060005460ff16155b610bf75760405162461bcd60e51b815260040180806020018281038252602e8152602001806127d5602e913960400191505060405180910390fd5b600054610100900460ff16158015610c22576000805460ff1961ff0019909116610100171660011790555b610c6e6040518060400160405280600c81526020016b3829aa20a5a2902a37b5b2b760a11b81525060405180604001604052806006815260200165505354414b4560d01b81525061196c565b610c76611a22565b610c7e611ad4565b610c906000610c8b61160e565b610b87565b610caa60008051602061284c833981519152610c8b61160e565b610cb46012611b71565b6308f0d18060d9819055506301e1338060da81905550633b9aca0060ca819055504260db819055506b019d971e4fe8401e7400000060d8819055506b0409f9cbc7c4a04c2200000060dc81905550600160c9819055508d60d760006101000a8154816001600160a01b0302191690836001600160a01b031602179055508c60cb60006101000a8154816001600160a01b0302191690836001600160a01b031602179055508b60cc60006101000a8154816001600160a01b0302191690836001600160a01b031602179055508a60cd60006101000a8154816001600160a01b0302191690836001600160a01b031602179055508960ce60006101000a8154816001600160a01b0302191690836001600160a01b031602179055508860cf60006101000a8154816001600160a01b0302191690836001600160a01b031602179055508760d060006101000a8154816001600160a01b0302191690836001600160a01b031602179055508660d160006101000a8154816001600160a01b0302191690836001600160a01b031602179055508560d260006101000a8154816001600160a01b0302191690836001600160a01b031602179055508460d360006101000a8154816001600160a01b0302191690836001600160a01b031602179055508360d460006101000a8154816001600160a01b0302191690836001600160a01b031602179055508260d560006101000a8154816001600160a01b0302191690836001600160a01b031602179055508160d660006101000a8154816001600160a01b0302191690836001600160a01b03160217905550610f2f60cb60009054906101000a90046001600160a01b03166a0422ca8b0a00a425000000611b87565b60cc54610f50906001600160a01b03166a084595161401484a000000611b87565b60d254610f71906001600160a01b03166a0aefea1743897364780000611b87565b60d354610f92906001600160a01b03166a0108b2a2c2802909400000611b87565b60d454610fb3906001600160a01b03166a0383f8f62ee6f1ec400000611b87565b60d554610fd4906001600160a01b03166a0160ee32f8e7c7eecc0000611b87565b60d654610ff5906001600160a01b03166a0bfe7e93369b759e800000611b87565b61100b306b017452bc3865ca661dbc0000611181565b5060d7546110309030906001600160a01b03166b017452bc3865ca661dbc0000611612565b8015611042576000805461ff00191690555b5050505050505050505050505050565b60385460ff1690565b61106361160e565b6001600160a01b0316816001600160a01b0316146110b25760405162461bcd60e51b815260040180806020018281038252602f8152602001806128da602f913960400191505060405180910390fd5b610b918282611c79565b60006109b76110c961160e565b84610afa85603460006110da61160e565b6001600160a01b03908116825260208083019390935260409182016000908120918c168152925290205490611ce2565b6b017452bc3865ca661dbc000081565b60c95481565b600061113c60008051602061284c8339815191526109f261160e565b611173576040805162461bcd60e51b81526020600482015260036024820152621414cd60ea1b604482015290519081900360640190fd5b61117b611d3c565b50600190565b600061118f816109f261160e565b6111c6576040805162461bcd60e51b815260206004820152600360248201526250533160e81b604482015290519081900360640190fd5b6111ce611ddc565b5060d8546111e4836111de6109df565b90611ce2565b111561121d576040805162461bcd60e51b815260206004820152600360248201526228299960e91b604482015290519081900360640190fd5b6109b78383611b87565b60db5481565b6a0108b2a2c280290940000081565b60cd546001600160a01b031681565b60655460ff1690565b6a0bfe7e93369b759e80000081565b60ce546001600160a01b031681565b6001600160a01b031660009081526033602052604090205490565b60d5546001600160a01b031681565b60ca5481565b60dc5481565b633b9aca0081565b60006112cc60008051602061284c8339815191526109f261160e565b611303576040805162461bcd60e51b815260206004820152600360248201526250533360e81b604482015290519081900360640190fd5b61117b611ef7565b6a084595161401484a00000081565b6000828152609760205260408120610b039083611f7a565b6000828152609760205260408120610b039083611f86565b60378054604080516020601f60026000196101006001881615020190951694909404938401819004810282018101909252828152606093909290918301828280156109985780601f1061096d57610100808354040283529160200191610998565b60d3546001600160a01b031681565b600081565b60006109b76113cc61160e565b84610afa856040518060600160405280602581526020016128b560259139603460006113f661160e565b6001600160a01b03908116825260208083019390935260409182016000908120918d1681529252902054919061185b565b6b0409f9cbc7c4a04c2200000081565b60da5481565b60006109b761144a61160e565b84846116fe565b6308f0d18081565b60d1546001600160a01b031681565b60d0546001600160a01b031681565b60cf546001600160a01b031681565b60d4546001600160a01b031681565b6301e1338081565b6a0422ca8b0a00a42500000081565b60008181526097602052604081206109bb90611f9b565b60d7546001600160a01b031681565b6a0383f8f62ee6f1ec40000081565b6b019d971e4fe8401e7400000081565b60008281526097602052604090206002015461150f906109f261160e565b6110b25760405162461bcd60e51b81526004018080602001828103825260308152602001806127a56030913960400191505060405180910390fd5b6001600160a01b03918216600090815260346020908152604080832093909416825291909152205490565b6000611583816109f261160e565b6115ba576040805162461bcd60e51b815260206004820152600360248201526205053360ec1b604482015290519081900360640190fd5b5060d955600190565b60d6546001600160a01b031681565b60cc546001600160a01b031681565b60008051602061284c83398151915281565b60d85481565b60d95481565b6a0160ee32f8e7c7eecc000081565b3390565b6001600160a01b0383166116575760405162461bcd60e51b81526004018080602001828103825260248152602001806128916024913960400191505060405180910390fd5b6001600160a01b03821661169c5760405162461bcd60e51b815260040180806020018281038252602281526020018061275d6022913960400191505060405180910390fd5b6001600160a01b03808416600081815260346020908152604080832094871680845294825291829020859055815185815291517f8c5be1e5ebec7d5bd14f71427d1e84f3dd0314c0f7b2291e5b200ac8c7c3b9259281900390910190a3505050565b6001600160a01b0383166117435760405162461bcd60e51b815260040180806020018281038252602581526020018061286c6025913960400191505060405180910390fd5b6001600160a01b0382166117885760405162461bcd60e51b815260040180806020018281038252602381526020018061270b6023913960400191505060405180910390fd5b611793838383611fa6565b6117d08160405180606001604052806026815260200161277f602691396001600160a01b038616600090815260336020526040902054919061185b565b6001600160a01b0380851660009081526033602052604080822093909355908416815220546117ff9082611ce2565b6001600160a01b0380841660008181526033602090815260409182902094909455805185815290519193928716927fddf252ad1be2c89b69c2b068fc378daa952ba7f163c4a11628f55a4df523b3ef92918290030190a3505050565b600081848411156118ea5760405162461bcd60e51b81526004018080602001828103825283818151815260200191508051906020019080838360005b838110156118af578181015183820152602001611897565b50505050905090810190601f1680156118dc5780820380516001836020036101000a031916815260200191505b509250505060405180910390fd5b505050900390565b600082815260976020526040902061190a9082611ff1565b15610b915761191761160e565b6001600160a01b0316816001600160a01b0316837f2f8788117e7eff1d82e926ec794901d17c78024a50270940304540a733656f0d60405160405180910390a45050565b600061196630612006565b15905090565b600054610100900460ff1680611985575061198561195b565b80611993575060005460ff16155b6119ce5760405162461bcd60e51b815260040180806020018281038252602e8152602001806127d5602e913960400191505060405180910390fd5b600054610100900460ff161580156119f9576000805460ff1961ff0019909116610100171660011790555b611a0161200c565b611a0b83836120ac565b8015611a1d576000805461ff00191690555b505050565b600054610100900460ff1680611a3b5750611a3b61195b565b80611a49575060005460ff16155b611a845760405162461bcd60e51b815260040180806020018281038252602e8152602001806127d5602e913960400191505060405180910390fd5b600054610100900460ff16158015611aaf576000805460ff1961ff0019909116610100171660011790555b611ab761200c565b611abf61200c565b8015611ad1576000805461ff00191690555b50565b600054610100900460ff1680611aed5750611aed61195b565b80611afb575060005460ff16155b611b365760405162461bcd60e51b815260040180806020018281038252602e8152602001806127d5602e913960400191505060405180910390fd5b600054610100900460ff16158015611b61576000805460ff1961ff0019909116610100171660011790555b611b6961200c565b611abf612184565b6038805460ff191660ff92909216919091179055565b6001600160a01b038216611be2576040805162461bcd60e51b815260206004820152601f60248201527f45524332303a206d696e7420746f20746865207a65726f206164647265737300604482015290519081900360640190fd5b611bee60008383611fa6565b603554611bfb9082611ce2565b6035556001600160a01b038216600090815260336020526040902054611c219082611ce2565b6001600160a01b03831660008181526033602090815260408083209490945583518581529351929391927fddf252ad1be2c89b69c2b068fc378daa952ba7f163c4a11628f55a4df523b3ef9281900390910190a35050565b6000828152609760205260409020611c91908261222f565b15610b9157611c9e61160e565b6001600160a01b0316816001600160a01b0316837ff6391f5c32d9c69d2a47ea670b442974b53935d1edc7fd64eb21e047a839171b60405160405180910390a45050565b600082820183811015610b03576040805162461bcd60e51b815260206004820152601b60248201527f536166654d6174683a206164646974696f6e206f766572666c6f770000000000604482015290519081900360640190fd5b611d4461124b565b611d8c576040805162461bcd60e51b815260206004820152601460248201527314185d5cd8589b194e881b9bdd081c185d5cd95960621b604482015290519081900360640190fd5b6065805460ff191690557f5db9ee0a495bf2e6ff9c91a7834c1ba4fdd244a5e8aa4e537bd38aeae4b073aa611dbf61160e565b604080516001600160a01b039092168252519081900360200190a1565b600060dc5460d85410611dee576109a0565b6000611e0560db544261224490919063ffffffff16565b90506000611e2e60d95460ca546b019d971e4fe8401e740000006122a19092919063ffffffff16565b90506000611e4760da548461235a90919063ffffffff16565b90508015611eec57611e65611e5c82846123c1565b60d85490611ce2565b60d881905560dc5410611e7a5760d854611e7e565b60dc545b60d855611e97611e8e82846123c1565b60db5490611ce2565b60db81905560da547f36581a2b25903f92b9cf76ccf14ea53151d6f302d54de9ddb6259a7f67993bfd9190611ecd9084906123c1565b6040805192835260208301919091524282820152519081900360600190a15b60d854935050505090565b611eff61124b565b15611f44576040805162461bcd60e51b815260206004820152601060248201526f14185d5cd8589b194e881c185d5cd95960821b604482015290519081900360640190fd5b6065805460ff191660011790557f62e78cea01bee320cd4e420270b5ea74000d11b0c9f74754ebdbfc544b05a258611dbf61160e565b6000610b03838361241a565b6000610b03836001600160a01b03841661247e565b60006109bb82612496565b611fae61124b565b15611fe6576040805162461bcd60e51b815260206004820152600360248201526250533560e81b604482015290519081900360640190fd5b611a1d838383611a1d565b6000610b03836001600160a01b03841661249a565b3b151590565b600054610100900460ff1680612025575061202561195b565b80612033575060005460ff16155b61206e5760405162461bcd60e51b815260040180806020018281038252602e8152602001806127d5602e913960400191505060405180910390fd5b600054610100900460ff16158015611abf576000805460ff1961ff0019909116610100171660011790558015611ad1576000805461ff001916905550565b600054610100900460ff16806120c557506120c561195b565b806120d3575060005460ff16155b61210e5760405162461bcd60e51b815260040180806020018281038252602e8152602001806127d5602e913960400191505060405180910390fd5b600054610100900460ff16158015612139576000805460ff1961ff0019909116610100171660011790555b825161214c906036906020860190612647565b508151612160906037906020850190612647565b506038805460ff191660121790558015611a1d576000805461ff0019169055505050565b600054610100900460ff168061219d575061219d61195b565b806121ab575060005460ff16155b6121e65760405162461bcd60e51b815260040180806020018281038252602e8152602001806127d5602e913960400191505060405180910390fd5b600054610100900460ff16158015612211576000805460ff1961ff0019909116610100171660011790555b6065805460ff191690558015611ad1576000805461ff001916905550565b6000610b03836001600160a01b0384166124e4565b60008282111561229b576040805162461bcd60e51b815260206004820152601e60248201527f536166654d6174683a207375627472616374696f6e206f766572666c6f770000604482015290519081900360640190fd5b50900390565b60008060006122b086866125aa565b91509150600084806122be57fe5b8688099050828111156122d2576001820391505b9182900391816122f0578483816122e557fe5b049350505050610b03565b848210612344576040805162461bcd60e51b815260206004820152601a60248201527f46756c6c4d6174683a2046554c4c4449565f4f564552464c4f57000000000000604482015290519081900360640190fd5b61234f8383876125d7565b979650505050505050565b60008082116123b0576040805162461bcd60e51b815260206004820152601a60248201527f536166654d6174683a206469766973696f6e206279207a65726f000000000000604482015290519081900360640190fd5b8183816123b957fe5b049392505050565b6000826123d0575060006109bb565b828202828482816123dd57fe5b0414610b035760405162461bcd60e51b81526004018080602001828103825260218152602001806128036021913960400191505060405180910390fd5b8154600090821061245c5760405162461bcd60e51b81526004018080602001828103825260228152602001806126e96022913960400191505060405180910390fd5b82600001828154811061246b57fe5b9060005260206000200154905092915050565b60009081526001919091016020526040902054151590565b5490565b60006124a6838361247e565b6124dc575081546001818101845560008481526020808220909301849055845484825282860190935260409020919091556109bb565b5060006109bb565b600081815260018301602052604081205480156125a0578354600019808301919081019060009087908390811061251757fe5b906000526020600020015490508087600001848154811061253457fe5b60009182526020808320909101929092558281526001898101909252604090209084019055865487908061256457fe5b600190038181906000526020600020016000905590558660010160008781526020019081526020016000206000905560019450505050506109bb565b60009150506109bb565b60008080600019848609905083850292508281039150828110156125cf576001820391505b509250929050565b600081810382168083816125e757fe5b0492508085816125f357fe5b04945080816000038161260257fe5b60028581038087028203028087028203028087028203028087028203028087028203028087028203029586029003909402930460010193909302939093010292915050565b828054600181600116156101000203166002900490600052602060002090601f01602090048101928261267d57600085556126c3565b82601f1061269657805160ff19168380011785556126c3565b828001600101855582156126c3579182015b828111156126c35782518255916020019190600101906126a8565b506126cf9291506126d3565b5090565b5b808211156126cf57600081556001016126d456fe456e756d657261626c655365743a20696e646578206f7574206f6620626f756e647345524332303a207472616e7366657220746f20746865207a65726f2061646472657373416363657373436f6e74726f6c3a2073656e646572206d75737420626520616e2061646d696e20746f206772616e7445524332303a20617070726f766520746f20746865207a65726f206164647265737345524332303a207472616e7366657220616d6f756e7420657863656564732062616c616e6365416363657373436f6e74726f6c3a2073656e646572206d75737420626520616e2061646d696e20746f207265766f6b65496e697469616c697a61626c653a20636f6e747261637420697320616c726561647920696e697469616c697a6564536166654d6174683a206d756c7469706c69636174696f6e206f766572666c6f7745524332303a207472616e7366657220616d6f756e74206578636565647320616c6c6f77616e636565d7a28e3265b37a6474929f336521b332c1681b933f6cb9f3376673440d862a45524332303a207472616e736665722066726f6d20746865207a65726f206164647265737345524332303a20617070726f76652066726f6d20746865207a65726f206164647265737345524332303a2064656372656173656420616c6c6f77616e63652062656c6f77207a65726f416363657373436f6e74726f6c3a2063616e206f6e6c792072656e6f756e636520726f6c657320666f722073656c66a2646970667358221220b081dff6818a9e597a6c77bab02894b7f583b814746ce35c33a0d04e47ad93a364736f6c63430007060033",
  "immutableReferences": {},
  "source": "// SPDX-License-Identifier: UNLICENSED\npragma solidity >=0.7.0;\n\nimport \"@openzeppelin/contracts-upgradeable/token/ERC20/ERC20Upgradeable.sol\";\nimport \"@openzeppelin/contracts-upgradeable/utils/PausableUpgradeable.sol\";\nimport \"@openzeppelin/contracts-upgradeable/access/AccessControlUpgradeable.sol\";\nimport \"@openzeppelin/contracts-upgradeable/math/SafeMathUpgradeable.sol\";\nimport \"./libraries/FullMath.sol\";\nimport \"./interfaces/IVestingTimelockV2.sol\";\nimport \"./interfaces/IPSTAKE.sol\";\n\ncontract PSTAKE is\n  IPSTAKE,\n  ERC20Upgradeable,\n  PausableUpgradeable,\n  AccessControlUpgradeable\n{\n  // including libraries\n  using SafeMathUpgradeable for uint256;\n  using FullMath for uint256;\n\n  // constants defining access control ROLES\n  bytes32 public constant PAUSER_ROLE = keccak256(\"PAUSER_ROLE\");\n\n  // variable pertaining to contract upgrades versioning and value divisor\n  uint256 public _version;\n  uint256 public _valueDivisor;\n\n  // addresses pertaining to various tokenomics strategy\n  address public _airdropPool;\n  address public _alphaLaunchpadPool;\n  address public _seedSalePool;\n  address public _publicSalePool1;\n  address public _publicSalePool2;\n  address public _publicSalePool3;\n  address public _teamPool;\n  address public _incentivisationPool;\n  address public _xprtStakersPool;\n  address public _protocolTreasuryPool;\n  address public _communityDevelopmentFundPool;\n  address public _retroactiveRewardProtocolBootstrapPool;\n\n  // address of vesting timelock contract to enable several vesting strategy\n  address public _vestingTimelockAddress;\n\n  // total inflated supply and the supply limit component to implement inflation\n  uint256 public _totalInflatedSupply;\n  uint256 public _inflationRate;\n  uint256 public _inflationPeriod;\n  uint256 public _lastInflationBlockTime;\n  uint256 public _supplyMaxLimit;\n\n  // constants for value allocation\n  uint256 public constant INFLATION_RATE = uint256(15e7);\n  uint256 public constant INFLATION_PERIOD = 365 days;\n  uint256 public constant VALUE_DIVISOR = uint256(1e9);\n  uint256 public constant SUPPLY_AT_GENESIS = uint256(500000000e18);\n  uint256 public constant TOTAL_VESTED_SUPPLY = uint256(450111111e18);\n  uint256 public constant SUPPLY_MAX_LIMIT = uint256(1250000000e18);\n\n  // pre-allocate tokens to strategy pools\n  uint256 public constant AIRDROPPOOLALLOCATION = uint256(5000000e18);\n  uint256 public constant ALPHALAUNCHPADPOOLALLOCATION = uint256(10000000e18);\n  uint256 public constant INCENTIVISATIONPOOLALLOCATION = uint256(13222222e18);\n  uint256 public constant XPRTSTAKERSPOOLALLOCATION = uint256(1250000e18);\n  uint256 public constant PROTOCOLTREASURYPOOLALLOCATION = uint256(4250000e18);\n  uint256 public constant COMMUNITYDEVELOPMENTFUNDPOOLALLOCATION =\n    uint256(1666667e18);\n  uint256 public constant RETROACTIVEREWARDPROTOCOLBOOTSTRAPPOOLALLOCATION =\n    uint256(14500000e18);\n\n  /**\n   * @dev Constructor for initializing the PSTAKE contract.\n   * @param vestingTimelockAddress - address of the vesting timelock contract.\n   * @param airdropPool - address of the airdrop pool.\n   * @param alphaLaunchpadPool - address of the alpha launchpad pool.\n   * @param seedSalePool - address of the seed sale pool.\n   * @param publicSalePool1 - address of the public sale pool1.\n   * @param publicSalePool2 - address of the public sale pool2.\n   * @param publicSalePool3 - address of the public sale pool3.\n   * @param teamPool - address of the team pool.\n   * @param incentivisationPool - address of the incentivising pool.\n   * @param xprtStakersPool - address of the xprt stakers pool.\n   * @param protocolTreasuryPool - address of the protocol treasury pool.\n   * @param communityDevelopmentFundPool - address of the community development fund pool.\n   * @param retroactiveRewardProtocolBootstrapPool - address of the retroactive reward protocol bootstrap pool.\n   */\n  function initialize(\n    address vestingTimelockAddress,\n    address airdropPool,\n    address alphaLaunchpadPool,\n    address seedSalePool,\n    address publicSalePool1,\n    address publicSalePool2,\n    address publicSalePool3,\n    address teamPool,\n    address incentivisationPool,\n    address xprtStakersPool,\n    address protocolTreasuryPool,\n    address communityDevelopmentFundPool,\n    address retroactiveRewardProtocolBootstrapPool\n  ) public virtual initializer {\n    __ERC20_init(\"pSTAKE Token\", \"PSTAKE\");\n    __AccessControl_init();\n    __Pausable_init();\n    _setupRole(DEFAULT_ADMIN_ROLE, _msgSender());\n    _setupRole(PAUSER_ROLE, _msgSender());\n\n    // PSTAKE is an erc20 token hence 18 decimal places\n    _setupDecimals(18);\n    _inflationRate = INFLATION_RATE;\n    _inflationPeriod = INFLATION_PERIOD;\n    _valueDivisor = VALUE_DIVISOR;\n    _lastInflationBlockTime = block.timestamp;\n    _totalInflatedSupply = SUPPLY_AT_GENESIS;\n    _supplyMaxLimit = SUPPLY_MAX_LIMIT;\n\n    // setup the version and vesting timelock contract\n    _version = 1;\n    _vestingTimelockAddress = vestingTimelockAddress;\n\n    // allocate the various tokenomics strategy pool addresses\n    // (must be different addresses because each address can have only one active vesting strategy at a time)\n    _airdropPool = airdropPool;\n    _alphaLaunchpadPool = alphaLaunchpadPool;\n    _seedSalePool = seedSalePool;\n    _publicSalePool1 = publicSalePool1;\n    _publicSalePool2 = publicSalePool2;\n    _publicSalePool3 = publicSalePool3;\n    _teamPool = teamPool;\n    _incentivisationPool = incentivisationPool;\n    _xprtStakersPool = xprtStakersPool;\n    _protocolTreasuryPool = protocolTreasuryPool;\n    _communityDevelopmentFundPool = communityDevelopmentFundPool;\n    _retroactiveRewardProtocolBootstrapPool = retroactiveRewardProtocolBootstrapPool;\n\n    // pre-allocate tokens to strategy pools\n    _mint(_airdropPool, AIRDROPPOOLALLOCATION);\n    _mint(_alphaLaunchpadPool, ALPHALAUNCHPADPOOLALLOCATION);\n    _mint(_incentivisationPool, INCENTIVISATIONPOOLALLOCATION);\n    _mint(_xprtStakersPool, XPRTSTAKERSPOOLALLOCATION);\n    _mint(_protocolTreasuryPool, PROTOCOLTREASURYPOOLALLOCATION);\n    _mint(\n      _communityDevelopmentFundPool,\n      COMMUNITYDEVELOPMENTFUNDPOOLALLOCATION\n    );\n    _mint(\n      _retroactiveRewardProtocolBootstrapPool,\n      RETROACTIVEREWARDPROTOCOLBOOTSTRAPPOOLALLOCATION\n    );\n\n    // accumulate tokens to allocate for vesting strategies (total supply - initial circulating supply)\n    mint(address(this), TOTAL_VESTED_SUPPLY);\n\n    // approve the vesting timelock contract to pull the tokens\n    _approve(address(this), _vestingTimelockAddress, TOTAL_VESTED_SUPPLY);\n\n    // ALLOCATING VESTING STRATEGIES\n\n    /*  // airdrop pool\n    IVestingTimelockV2(_vestingTimelockAddress).addGrantAsInstalment(\n      address(this),\n      _airdropPool,\n      block.timestamp,\n      // 1 month\n      (30 days + 10 hours),\n      uint256(5000000e18),\n      5,\n      // 1 month\n      (30 days + 10 hours),\n      false\n    );\n\n    // seedSale pool\n    IVestingTimelockV2(_vestingTimelockAddress).addGrantAsInstalment(\n      address(this),\n      _seedSalePool,\n      block.timestamp,\n      // 6 months\n      (182 days + 12 hours),\n      uint256(8333333e18),\n      12,\n      // 1 month\n      (30 days + 10 hours),\n      false\n    );\n\n    // publicSalePool1 pool\n    IVestingTimelockV2(_vestingTimelockAddress).addGrantAsInstalment(\n      address(this),\n      _publicSalePool1,\n      block.timestamp,\n      // 6 months\n      (182 days + 12 hours),\n      uint256(833333e18),\n      6,\n      // 1 month\n      (30 days + 10 hours),\n      false\n    );\n\n    // publicSalePool2 pool\n    IVestingTimelockV2(_vestingTimelockAddress).addGrantAsInstalment(\n      address(this),\n      _publicSalePool2,\n      block.timestamp,\n      // 3 months\n      (91 days + 6 hours),\n      uint256(1666667e18),\n      6,\n      // 1 month\n      (30 days + 10 hours),\n      false\n    );\n\n    // publicSalePool3 pool\n    IVestingTimelockV2(_vestingTimelockAddress).addGrantAsInstalment(\n      address(this),\n      _publicSalePool3,\n      block.timestamp,\n      // 1 month\n      (30 days + 10 hours),\n      uint256(10000000e18),\n      1,\n      // 0 month\n      0,\n      false\n    );\n\n    // team pool\n    IVestingTimelockV2(_vestingTimelockAddress).addGrantAsInstalment(\n      address(this),\n      _teamPool,\n      block.timestamp,\n      // 18 months\n      (547 days + 12 hours),\n      uint256(4444444e18),\n      18,\n      // 1 month\n      (30 days + 10 hours),\n      false\n    );\n\n    // incentivisation pool\n    IVestingTimelockV2(_vestingTimelockAddress).addGrantAsInstalment(\n      address(this),\n      _incentivisationPool,\n      block.timestamp,\n      // 3 months\n      (91 days + 6 hours),\n      uint256(13222222e18),\n      8,\n      // 3 months\n      (91 days + 6 hours),\n      false\n    );\n\n    // xprtStakers pool\n    IVestingTimelockV2(_vestingTimelockAddress).addGrantAsInstalment(\n      address(this),\n      _xprtStakersPool,\n      block.timestamp,\n      // 1 month\n      (30 days + 10 hours),\n      uint256(1250000e18),\n      11,\n      // 1 month\n      (30 days + 10 hours),\n      false\n    );\n\n    // protocolTreasury pool\n    IVestingTimelockV2(_vestingTimelockAddress).addGrantAsInstalment(\n      address(this),\n      _protocolTreasuryPool,\n      block.timestamp,\n      // 2 months\n      (60 days + 20 hours),\n      uint256(4250000e18),\n      17,\n      // 2 months\n      (60 days + 20 hours),\n      false\n    );\n\n    // communityDevelopmentFund pool\n    IVestingTimelockV2(_vestingTimelockAddress).addGrantAsInstalment(\n      address(this),\n      _communityDevelopmentFundPool,\n      block.timestamp,\n      // 3 months\n      (91 days + 6 hours),\n      uint256(1666667e18),\n      17,\n      // 3 months\n      (91 days + 6 hours),\n      false\n    ); */\n  }\n\n  /**\n   * @dev Check inflation\n   * Emits a {CheckInflation} event with 'block height', 'inflationComponent', and 'timestamp'.\n   *\n   */\n  function _checkInflation() internal returns (uint256 totalInflatedSupply) {\n    // if the _totalInflatedSupply has already reacted _supplyMaxLimit then return\n    if (_totalInflatedSupply >= _supplyMaxLimit) return (totalInflatedSupply);\n\n    // get the time since last inflation\n    uint256 timeSinceLastInflation = (block.timestamp).sub(\n      _lastInflationBlockTime\n    );\n\n    // get the inflation amount for one cycle of inflation period\n    uint256 inflationPerInstalment = uint256(SUPPLY_AT_GENESIS).mulDiv(\n      _inflationRate,\n      _valueDivisor\n    );\n\n    // get the number of cycles/instalments of inflation that are pending to be updated\n    uint256 inflationInstalments = timeSinceLastInflation.div(_inflationPeriod);\n\n    if (inflationInstalments > 0) {\n      // add inflationPerInstalment to total inflated supply\n      _totalInflatedSupply = _totalInflatedSupply.add(\n        inflationInstalments.mul(inflationPerInstalment)\n      );\n\n      // if total inflated supply crosses the SUPPLY_MAX_LIMIT then update till SUPPLY_MAX_LIMIT\n      _totalInflatedSupply = _totalInflatedSupply > _supplyMaxLimit\n        ? _supplyMaxLimit\n        : _totalInflatedSupply;\n\n      // update _lastInflationBlockTime with the time period pertaining to inflationInstalments\n      _lastInflationBlockTime = _lastInflationBlockTime.add(\n        inflationInstalments.mul(inflationPerInstalment)\n      );\n\n      // emit an event\n      emit CheckInflation(\n        _lastInflationBlockTime,\n        inflationInstalments.mul(_inflationPeriod),\n        block.timestamp\n      );\n    }\n\n    totalInflatedSupply = _totalInflatedSupply;\n  }\n\n  /**\n   * @dev Set inflation\n   * @param inflationRate: inflation rate.\n   *\n   */\n  function setInflation(uint256 inflationRate)\n    public\n    virtual\n    override\n    returns (bool success)\n  {\n    require(hasRole(DEFAULT_ADMIN_ROLE, _msgSender()), \"PS0\");\n    _inflationRate = inflationRate;\n    success = true;\n  }\n\n  /**\n   * @dev Mint new PSTAKE for the provided 'address' and 'amount'\n   *\n   *\n   * Emits a {MintTokens} event with 'to' set to address and 'tokens' set to amount of tokens.\n   *\n   * Requirements:\n   *\n   * - `amount` cannot be less than zero.\n   *\n   */\n  function mint(address to, uint256 tokens)\n    public\n    virtual\n    override\n    returns (bool success)\n  {\n    require(hasRole(DEFAULT_ADMIN_ROLE, _msgSender()), \"PS1\");\n\n    // condition to check if the total supply doesnt cross the inflated supply\n    _checkInflation();\n    require((totalSupply()).add(tokens) <= _totalInflatedSupply, \"PS2\");\n\n    // mint the tokens\n    _mint(to, tokens);\n    return true;\n  }\n\n  /**\n   * @dev Set 'contract address', called from constructor\n   * @param vestingTimelockAddress: Vesting timelock contract address\n   *\n   * Emits a {SetVestingTimelockContract} event with '_contract' set to the VestingTimelockcontract address.\n   */\n  function setVestingTimelockContract(address vestingTimelockAddress)\n    public\n    virtual\n    override\n  {\n    require(hasRole(DEFAULT_ADMIN_ROLE, _msgSender()), \"PS6\");\n    _vestingTimelockAddress = vestingTimelockAddress;\n    emit SetVestingTimelockContract(vestingTimelockAddress);\n  }\n\n  /**\n   * @dev Triggers stopped state.\n   *\n   * Requirements:\n   *\n   * - The contract must not be paused.\n   */\n  function pause() public virtual override returns (bool success) {\n    require(hasRole(PAUSER_ROLE, _msgSender()), \"PS3\");\n    _pause();\n    return true;\n  }\n\n  /**\n   * @dev Returns to normal state.\n   *\n   * Requirements:\n   *\n   * - The contract must be paused.\n   */\n  function unpause() public virtual override returns (bool success) {\n    require(hasRole(PAUSER_ROLE, _msgSender()), \"PS4\");\n    _unpause();\n    return true;\n  }\n\n  /**\n   * @dev Hook that is called before any transfer of tokens. This includes\n   * minting and burning.\n   *\n   * Calling conditions:\n   *\n   * - when `from` and `to` are both non-zero, `amount` of ``from``'s tokens\n   * will be to transferred to `to`.\n   * - when `from` is zero, `amount` tokens will be minted for `to`.\n   * - when `to` is zero, `amount` of ``from``'s tokens will be burned.\n   * - `from` and `to` are never both zero.\n   *\n   */\n  function _beforeTokenTransfer(\n    address from,\n    address to,\n    uint256 amount\n  ) internal virtual override {\n    require(!paused(), \"PS5\");\n    super._beforeTokenTransfer(from, to, amount);\n  }\n}\n",
  "sourcePath": "C:\\Users\\Kamlesh\\Persistence\\pStake\\codebase\\erc20\\contracts\\PSTAKE.sol",
  "compiler": {
    "name": "solc",
    "version": "0.7.6+commit.7338295f.Emscripten.clang"
  },
  "schemaVersion": "3.4.3",
  "updatedAt": "2021-11-15T04:47:21.239Z",
  "networkType": "ethereum",
  "devdoc": {
    "kind": "dev",
    "methods": {
      "allowance(address,address)": {
        "details": "See {IERC20-allowance}."
      },
      "approve(address,uint256)": {
        "details": "See {IERC20-approve}. Requirements: - `spender` cannot be the zero address."
      },
      "balanceOf(address)": {
        "details": "See {IERC20-balanceOf}."
      },
      "decimals()": {
        "details": "Returns the number of decimals used to get its user representation. For example, if `decimals` equals `2`, a balance of `505` tokens should be displayed to a user as `5,05` (`505 / 10 ** 2`). Tokens usually opt for a value of 18, imitating the relationship between Ether and Wei. This is the value {ERC20} uses, unless {_setupDecimals} is called. NOTE: This information is only used for _display_ purposes: it in no way affects any of the arithmetic of the contract, including {IERC20-balanceOf} and {IERC20-transfer}."
      },
      "decreaseAllowance(address,uint256)": {
        "details": "Atomically decreases the allowance granted to `spender` by the caller. This is an alternative to {approve} that can be used as a mitigation for problems described in {IERC20-approve}. Emits an {Approval} event indicating the updated allowance. Requirements: - `spender` cannot be the zero address. - `spender` must have allowance for the caller of at least `subtractedValue`."
      },
      "getRoleAdmin(bytes32)": {
        "details": "Returns the admin role that controls `role`. See {grantRole} and {revokeRole}. To change a role's admin, use {_setRoleAdmin}."
      },
      "getRoleMember(bytes32,uint256)": {
        "details": "Returns one of the accounts that have `role`. `index` must be a value between 0 and {getRoleMemberCount}, non-inclusive. Role bearers are not sorted in any particular way, and their ordering may change at any point. WARNING: When using {getRoleMember} and {getRoleMemberCount}, make sure you perform all queries on the same block. See the following https://forum.openzeppelin.com/t/iterating-over-elements-on-enumerableset-in-openzeppelin-contracts/2296[forum post] for more information."
      },
      "getRoleMemberCount(bytes32)": {
        "details": "Returns the number of accounts that have `role`. Can be used together with {getRoleMember} to enumerate all bearers of a role."
      },
      "grantRole(bytes32,address)": {
        "details": "Grants `role` to `account`. If `account` had not been already granted `role`, emits a {RoleGranted} event. Requirements: - the caller must have ``role``'s admin role."
      },
      "hasRole(bytes32,address)": {
        "details": "Returns `true` if `account` has been granted `role`."
      },
      "increaseAllowance(address,uint256)": {
        "details": "Atomically increases the allowance granted to `spender` by the caller. This is an alternative to {approve} that can be used as a mitigation for problems described in {IERC20-approve}. Emits an {Approval} event indicating the updated allowance. Requirements: - `spender` cannot be the zero address."
      },
      "initialize(address,address,address,address,address,address,address,address,address,address,address,address,address)": {
        "details": "Constructor for initializing the PSTAKE contract.",
        "params": {
          "airdropPool": "- address of the airdrop pool.",
          "alphaLaunchpadPool": "- address of the alpha launchpad pool.",
          "communityDevelopmentFundPool": "- address of the community development fund pool.",
          "incentivisationPool": "- address of the incentivising pool.",
          "protocolTreasuryPool": "- address of the protocol treasury pool.",
          "publicSalePool1": "- address of the public sale pool1.",
          "publicSalePool2": "- address of the public sale pool2.",
          "publicSalePool3": "- address of the public sale pool3.",
          "retroactiveRewardProtocolBootstrapPool": "- address of the retroactive reward protocol bootstrap pool.",
          "seedSalePool": "- address of the seed sale pool.",
          "teamPool": "- address of the team pool.",
          "vestingTimelockAddress": "- address of the vesting timelock contract.",
          "xprtStakersPool": "- address of the xprt stakers pool."
        }
      },
      "mint(address,uint256)": {
        "details": "Mint new PSTAKE for the provided 'address' and 'amount' Emits a {MintTokens} event with 'to' set to address and 'tokens' set to amount of tokens. Requirements: - `amount` cannot be less than zero."
      },
      "name()": {
        "details": "Returns the name of the token."
      },
      "pause()": {
        "details": "Triggers stopped state. Requirements: - The contract must not be paused."
      },
      "paused()": {
        "details": "Returns true if the contract is paused, and false otherwise."
      },
      "renounceRole(bytes32,address)": {
        "details": "Revokes `role` from the calling account. Roles are often managed via {grantRole} and {revokeRole}: this function's purpose is to provide a mechanism for accounts to lose their privileges if they are compromised (such as when a trusted device is misplaced). If the calling account had been granted `role`, emits a {RoleRevoked} event. Requirements: - the caller must be `account`."
      },
      "revokeRole(bytes32,address)": {
        "details": "Revokes `role` from `account`. If `account` had been granted `role`, emits a {RoleRevoked} event. Requirements: - the caller must have ``role``'s admin role."
      },
      "setInflation(uint256)": {
        "details": "Set inflation",
        "params": {
          "inflationRate": ": inflation rate."
        }
      },
      "setVestingTimelockContract(address)": {
        "details": "Set 'contract address', called from constructor",
        "params": {
          "vestingTimelockAddress": ": Vesting timelock contract address Emits a {SetVestingTimelockContract} event with '_contract' set to the VestingTimelockcontract address."
        }
      },
      "symbol()": {
        "details": "Returns the symbol of the token, usually a shorter version of the name."
      },
      "totalSupply()": {
        "details": "See {IERC20-totalSupply}."
      },
      "transfer(address,uint256)": {
        "details": "See {IERC20-transfer}. Requirements: - `recipient` cannot be the zero address. - the caller must have a balance of at least `amount`."
      },
      "transferFrom(address,address,uint256)": {
        "details": "See {IERC20-transferFrom}. Emits an {Approval} event indicating the updated allowance. This is not required by the EIP. See the note at the beginning of {ERC20}. Requirements: - `sender` and `recipient` cannot be the zero address. - `sender` must have a balance of at least `amount`. - the caller must have allowance for ``sender``'s tokens of at least `amount`."
      },
      "unpause()": {
        "details": "Returns to normal state. Requirements: - The contract must be paused."
      }
    },
    "version": 1
  },
  "userdoc": {
    "kind": "user",
    "methods": {},
    "version": 1
  }
}