{
  "contractName": "PSTAKE",
  "abi": [
    {
      "anonymous": false,
      "inputs": [
        {
          "indexed": true,
          "internalType": "address",
          "name": "owner",
          "type": "address"
        },
        {
          "indexed": true,
          "internalType": "address",
          "name": "spender",
          "type": "address"
        },
        {
          "indexed": false,
          "internalType": "uint256",
          "name": "value",
          "type": "uint256"
        }
      ],
      "name": "Approval",
      "type": "event"
    },
    {
      "anonymous": false,
      "inputs": [
        {
          "indexed": false,
          "internalType": "uint256",
          "name": "blockHeight",
          "type": "uint256"
        },
        {
          "indexed": false,
          "internalType": "uint256",
          "name": "inflationComponent",
          "type": "uint256"
        },
        {
          "indexed": false,
          "internalType": "uint256",
          "name": "timestamp",
          "type": "uint256"
        }
      ],
      "name": "CheckInflation",
      "type": "event"
    },
    {
      "anonymous": false,
      "inputs": [
        {
          "indexed": false,
          "internalType": "address",
          "name": "account",
          "type": "address"
        }
      ],
      "name": "Paused",
      "type": "event"
    },
    {
      "anonymous": false,
      "inputs": [
        {
          "indexed": true,
          "internalType": "bytes32",
          "name": "role",
          "type": "bytes32"
        },
        {
          "indexed": true,
          "internalType": "bytes32",
          "name": "previousAdminRole",
          "type": "bytes32"
        },
        {
          "indexed": true,
          "internalType": "bytes32",
          "name": "newAdminRole",
          "type": "bytes32"
        }
      ],
      "name": "RoleAdminChanged",
      "type": "event"
    },
    {
      "anonymous": false,
      "inputs": [
        {
          "indexed": true,
          "internalType": "bytes32",
          "name": "role",
          "type": "bytes32"
        },
        {
          "indexed": true,
          "internalType": "address",
          "name": "account",
          "type": "address"
        },
        {
          "indexed": true,
          "internalType": "address",
          "name": "sender",
          "type": "address"
        }
      ],
      "name": "RoleGranted",
      "type": "event"
    },
    {
      "anonymous": false,
      "inputs": [
        {
          "indexed": true,
          "internalType": "bytes32",
          "name": "role",
          "type": "bytes32"
        },
        {
          "indexed": true,
          "internalType": "address",
          "name": "account",
          "type": "address"
        },
        {
          "indexed": true,
          "internalType": "address",
          "name": "sender",
          "type": "address"
        }
      ],
      "name": "RoleRevoked",
      "type": "event"
    },
    {
      "anonymous": false,
      "inputs": [
        {
          "indexed": true,
          "internalType": "address",
          "name": "from",
          "type": "address"
        },
        {
          "indexed": true,
          "internalType": "address",
          "name": "to",
          "type": "address"
        },
        {
          "indexed": false,
          "internalType": "uint256",
          "name": "value",
          "type": "uint256"
        }
      ],
      "name": "Transfer",
      "type": "event"
    },
    {
      "anonymous": false,
      "inputs": [
        {
          "indexed": false,
          "internalType": "address",
          "name": "account",
          "type": "address"
        }
      ],
      "name": "Unpaused",
      "type": "event"
    },
    {
      "inputs": [],
      "name": "BLOCKS_PER_YEAR",
      "outputs": [
        {
          "internalType": "uint256",
          "name": "",
          "type": "uint256"
        }
      ],
      "stateMutability": "view",
      "type": "function"
    },
    {
      "inputs": [],
      "name": "DEFAULT_ADMIN_ROLE",
      "outputs": [
        {
          "internalType": "bytes32",
          "name": "",
          "type": "bytes32"
        }
      ],
      "stateMutability": "view",
      "type": "function"
    },
    {
      "inputs": [],
      "name": "PAUSER_ROLE",
      "outputs": [
        {
          "internalType": "bytes32",
          "name": "",
          "type": "bytes32"
        }
      ],
      "stateMutability": "view",
      "type": "function"
    },
    {
      "inputs": [],
      "name": "SUPPLY_AT_GENESIS",
      "outputs": [
        {
          "internalType": "uint256",
          "name": "",
          "type": "uint256"
        }
      ],
      "stateMutability": "view",
      "type": "function"
    },
    {
      "inputs": [],
      "name": "_airdropPool",
      "outputs": [
        {
          "internalType": "address",
          "name": "",
          "type": "address"
        }
      ],
      "stateMutability": "view",
      "type": "function"
    },
    {
      "inputs": [],
      "name": "_communityDevelopmentFundPool",
      "outputs": [
        {
          "internalType": "address",
          "name": "",
          "type": "address"
        }
      ],
      "stateMutability": "view",
      "type": "function"
    },
    {
      "inputs": [],
      "name": "_communityDevelopmentFundPool2",
      "outputs": [
        {
          "internalType": "address",
          "name": "",
          "type": "address"
        }
      ],
      "stateMutability": "view",
      "type": "function"
    },
    {
      "inputs": [],
      "name": "_incentivisationPool",
      "outputs": [
        {
          "internalType": "address",
          "name": "",
          "type": "address"
        }
      ],
      "stateMutability": "view",
      "type": "function"
    },
    {
      "inputs": [],
      "name": "_inflationRate",
      "outputs": [
        {
          "internalType": "uint256",
          "name": "",
          "type": "uint256"
        }
      ],
      "stateMutability": "view",
      "type": "function"
    },
    {
      "inputs": [],
      "name": "_lastInflationBlockHeight",
      "outputs": [
        {
          "internalType": "uint256",
          "name": "",
          "type": "uint256"
        }
      ],
      "stateMutability": "view",
      "type": "function"
    },
    {
      "inputs": [],
      "name": "_protocolTreasuryPool",
      "outputs": [
        {
          "internalType": "address",
          "name": "",
          "type": "address"
        }
      ],
      "stateMutability": "view",
      "type": "function"
    },
    {
      "inputs": [],
      "name": "_seedSalePool",
      "outputs": [
        {
          "internalType": "address",
          "name": "",
          "type": "address"
        }
      ],
      "stateMutability": "view",
      "type": "function"
    },
    {
      "inputs": [],
      "name": "_strategicFoundationSalePool",
      "outputs": [
        {
          "internalType": "address",
          "name": "",
          "type": "address"
        }
      ],
      "stateMutability": "view",
      "type": "function"
    },
    {
      "inputs": [],
      "name": "_teamPool",
      "outputs": [
        {
          "internalType": "address",
          "name": "",
          "type": "address"
        }
      ],
      "stateMutability": "view",
      "type": "function"
    },
    {
      "inputs": [],
      "name": "_totalInflatedSupply",
      "outputs": [
        {
          "internalType": "uint256",
          "name": "",
          "type": "uint256"
        }
      ],
      "stateMutability": "view",
      "type": "function"
    },
    {
      "inputs": [],
      "name": "_valueDivisor",
      "outputs": [
        {
          "internalType": "uint256",
          "name": "",
          "type": "uint256"
        }
      ],
      "stateMutability": "view",
      "type": "function"
    },
    {
      "inputs": [],
      "name": "_version",
      "outputs": [
        {
          "internalType": "uint256",
          "name": "",
          "type": "uint256"
        }
      ],
      "stateMutability": "view",
      "type": "function"
    },
    {
      "inputs": [],
      "name": "_vestingTimelockAddress",
      "outputs": [
        {
          "internalType": "address",
          "name": "",
          "type": "address"
        }
      ],
      "stateMutability": "view",
      "type": "function"
    },
    {
      "inputs": [],
      "name": "_xprtStakersPool",
      "outputs": [
        {
          "internalType": "address",
          "name": "",
          "type": "address"
        }
      ],
      "stateMutability": "view",
      "type": "function"
    },
    {
      "inputs": [
        {
          "internalType": "address",
          "name": "owner",
          "type": "address"
        },
        {
          "internalType": "address",
          "name": "spender",
          "type": "address"
        }
      ],
      "name": "allowance",
      "outputs": [
        {
          "internalType": "uint256",
          "name": "",
          "type": "uint256"
        }
      ],
      "stateMutability": "view",
      "type": "function"
    },
    {
      "inputs": [
        {
          "internalType": "address",
          "name": "spender",
          "type": "address"
        },
        {
          "internalType": "uint256",
          "name": "amount",
          "type": "uint256"
        }
      ],
      "name": "approve",
      "outputs": [
        {
          "internalType": "bool",
          "name": "",
          "type": "bool"
        }
      ],
      "stateMutability": "nonpayable",
      "type": "function"
    },
    {
      "inputs": [
        {
          "internalType": "address",
          "name": "account",
          "type": "address"
        }
      ],
      "name": "balanceOf",
      "outputs": [
        {
          "internalType": "uint256",
          "name": "",
          "type": "uint256"
        }
      ],
      "stateMutability": "view",
      "type": "function"
    },
    {
      "inputs": [],
      "name": "decimals",
      "outputs": [
        {
          "internalType": "uint8",
          "name": "",
          "type": "uint8"
        }
      ],
      "stateMutability": "view",
      "type": "function"
    },
    {
      "inputs": [
        {
          "internalType": "address",
          "name": "spender",
          "type": "address"
        },
        {
          "internalType": "uint256",
          "name": "subtractedValue",
          "type": "uint256"
        }
      ],
      "name": "decreaseAllowance",
      "outputs": [
        {
          "internalType": "bool",
          "name": "",
          "type": "bool"
        }
      ],
      "stateMutability": "nonpayable",
      "type": "function"
    },
    {
      "inputs": [
        {
          "internalType": "bytes32",
          "name": "role",
          "type": "bytes32"
        }
      ],
      "name": "getRoleAdmin",
      "outputs": [
        {
          "internalType": "bytes32",
          "name": "",
          "type": "bytes32"
        }
      ],
      "stateMutability": "view",
      "type": "function"
    },
    {
      "inputs": [
        {
          "internalType": "bytes32",
          "name": "role",
          "type": "bytes32"
        },
        {
          "internalType": "uint256",
          "name": "index",
          "type": "uint256"
        }
      ],
      "name": "getRoleMember",
      "outputs": [
        {
          "internalType": "address",
          "name": "",
          "type": "address"
        }
      ],
      "stateMutability": "view",
      "type": "function"
    },
    {
      "inputs": [
        {
          "internalType": "bytes32",
          "name": "role",
          "type": "bytes32"
        }
      ],
      "name": "getRoleMemberCount",
      "outputs": [
        {
          "internalType": "uint256",
          "name": "",
          "type": "uint256"
        }
      ],
      "stateMutability": "view",
      "type": "function"
    },
    {
      "inputs": [
        {
          "internalType": "bytes32",
          "name": "role",
          "type": "bytes32"
        },
        {
          "internalType": "address",
          "name": "account",
          "type": "address"
        }
      ],
      "name": "grantRole",
      "outputs": [],
      "stateMutability": "nonpayable",
      "type": "function"
    },
    {
      "inputs": [
        {
          "internalType": "bytes32",
          "name": "role",
          "type": "bytes32"
        },
        {
          "internalType": "address",
          "name": "account",
          "type": "address"
        }
      ],
      "name": "hasRole",
      "outputs": [
        {
          "internalType": "bool",
          "name": "",
          "type": "bool"
        }
      ],
      "stateMutability": "view",
      "type": "function"
    },
    {
      "inputs": [
        {
          "internalType": "address",
          "name": "spender",
          "type": "address"
        },
        {
          "internalType": "uint256",
          "name": "addedValue",
          "type": "uint256"
        }
      ],
      "name": "increaseAllowance",
      "outputs": [
        {
          "internalType": "bool",
          "name": "",
          "type": "bool"
        }
      ],
      "stateMutability": "nonpayable",
      "type": "function"
    },
    {
      "inputs": [],
      "name": "name",
      "outputs": [
        {
          "internalType": "string",
          "name": "",
          "type": "string"
        }
      ],
      "stateMutability": "view",
      "type": "function"
    },
    {
      "inputs": [],
      "name": "paused",
      "outputs": [
        {
          "internalType": "bool",
          "name": "",
          "type": "bool"
        }
      ],
      "stateMutability": "view",
      "type": "function"
    },
    {
      "inputs": [
        {
          "internalType": "bytes32",
          "name": "role",
          "type": "bytes32"
        },
        {
          "internalType": "address",
          "name": "account",
          "type": "address"
        }
      ],
      "name": "renounceRole",
      "outputs": [],
      "stateMutability": "nonpayable",
      "type": "function"
    },
    {
      "inputs": [
        {
          "internalType": "bytes32",
          "name": "role",
          "type": "bytes32"
        },
        {
          "internalType": "address",
          "name": "account",
          "type": "address"
        }
      ],
      "name": "revokeRole",
      "outputs": [],
      "stateMutability": "nonpayable",
      "type": "function"
    },
    {
      "inputs": [],
      "name": "symbol",
      "outputs": [
        {
          "internalType": "string",
          "name": "",
          "type": "string"
        }
      ],
      "stateMutability": "view",
      "type": "function"
    },
    {
      "inputs": [],
      "name": "totalSupply",
      "outputs": [
        {
          "internalType": "uint256",
          "name": "",
          "type": "uint256"
        }
      ],
      "stateMutability": "view",
      "type": "function"
    },
    {
      "inputs": [
        {
          "internalType": "address",
          "name": "recipient",
          "type": "address"
        },
        {
          "internalType": "uint256",
          "name": "amount",
          "type": "uint256"
        }
      ],
      "name": "transfer",
      "outputs": [
        {
          "internalType": "bool",
          "name": "",
          "type": "bool"
        }
      ],
      "stateMutability": "nonpayable",
      "type": "function"
    },
    {
      "inputs": [
        {
          "internalType": "address",
          "name": "sender",
          "type": "address"
        },
        {
          "internalType": "address",
          "name": "recipient",
          "type": "address"
        },
        {
          "internalType": "uint256",
          "name": "amount",
          "type": "uint256"
        }
      ],
      "name": "transferFrom",
      "outputs": [
        {
          "internalType": "bool",
          "name": "",
          "type": "bool"
        }
      ],
      "stateMutability": "nonpayable",
      "type": "function"
    },
    {
      "inputs": [
        {
          "internalType": "uint256",
          "name": "inflationRate",
          "type": "uint256"
        },
        {
          "internalType": "address",
          "name": "pauserAddress",
          "type": "address"
        },
        {
          "internalType": "address",
          "name": "vestingTimelockAddress",
          "type": "address"
        },
        {
          "internalType": "address",
          "name": "airdropPool",
          "type": "address"
        },
        {
          "internalType": "address",
          "name": "seedSalePool",
          "type": "address"
        },
        {
          "internalType": "address",
          "name": "strategicFoundationSalePool",
          "type": "address"
        },
        {
          "internalType": "address",
          "name": "teamPool",
          "type": "address"
        },
        {
          "internalType": "address",
          "name": "incentivisationPool",
          "type": "address"
        },
        {
          "internalType": "address",
          "name": "xprtStakersPool",
          "type": "address"
        },
        {
          "internalType": "address",
          "name": "protocolTreasuryPool",
          "type": "address"
        },
        {
          "internalType": "address",
          "name": "communityDevelopmentFundPool",
          "type": "address"
        },
        {
          "internalType": "address",
          "name": "communityDevelopmentFundPool2",
          "type": "address"
        }
      ],
      "name": "initialize",
      "outputs": [],
      "stateMutability": "nonpayable",
      "type": "function"
    },
    {
      "inputs": [],
      "name": "checkInflation",
      "outputs": [
        {
          "internalType": "bool",
          "name": "success",
          "type": "bool"
        }
      ],
      "stateMutability": "nonpayable",
      "type": "function"
    },
    {
      "inputs": [
        {
          "internalType": "uint256",
          "name": "inflationRate",
          "type": "uint256"
        }
      ],
      "name": "setInflation",
      "outputs": [
        {
          "internalType": "bool",
          "name": "success",
          "type": "bool"
        }
      ],
      "stateMutability": "nonpayable",
      "type": "function"
    },
    {
      "inputs": [
        {
          "internalType": "address",
          "name": "to",
          "type": "address"
        },
        {
          "internalType": "uint256",
          "name": "tokens",
          "type": "uint256"
        }
      ],
      "name": "mint",
      "outputs": [
        {
          "internalType": "bool",
          "name": "success",
          "type": "bool"
        }
      ],
      "stateMutability": "nonpayable",
      "type": "function"
    },
    {
      "inputs": [],
      "name": "pause",
      "outputs": [
        {
          "internalType": "bool",
          "name": "success",
          "type": "bool"
        }
      ],
      "stateMutability": "nonpayable",
      "type": "function"
    },
    {
      "inputs": [],
      "name": "unpause",
      "outputs": [
        {
          "internalType": "bool",
          "name": "success",
          "type": "bool"
        }
      ],
      "stateMutability": "nonpayable",
      "type": "function"
    }
  ],
  "bytecode": "0x608060405234801561001057600080fd5b50612905806100206000396000f3fe608060405234801561001057600080fd5b50600436106102745760003560e01c80639010d07c11610151578063cb31a85f116100c3578063dd62ed3e11610087578063dd62ed3e146106c8578063e0a8ed52146106f6578063e3a06e6414610713578063e63ab1e91461071b578063e6f0dfdf14610723578063ef22082c1461072b57610274565b8063cb31a85f14610601578063d182a8c914610609578063d2d082e614610611578063d37db1d214610694578063d547741f1461069c57610274565b8063a457c2d711610115578063a457c2d714610574578063a9059cbb146105a0578063b37e02a0146105cc578063b4029d5e146105d4578063c32ab7f7146105dc578063ca15c873146105e457610274565b80639010d07c1461050d57806391d148541461053057806395d89b411461055c57806398e8fd0214610564578063a217fddf1461056c57610274565b806339509351116101ea5780635c975abb116101ae5780635c975abb146104bf5780636789dafd146104c757806370a08231146104cf57806371067963146104f5578063728a99ee146104fd5780638456cb591461050557610274565b8063395093511461044f5780633e118dbe1461047b5780633f4ba83a1461048357806340c10f191461048b5780634b5c79ad146104b757610274565b8063248a9ca31161023c578063248a9ca3146103aa5780632bbb4501146103c75780632cc39ff5146103cf5780632f2ff15d146103d7578063313ce5671461040557806336568abe1461042357610274565b806306fdde0314610279578063095ea7b3146102f65780630e054f021461033657806318160ddd1461035a57806323b872dd14610374575b600080fd5b610281610733565b6040805160208082528351818301528351919283929083019185019080838360005b838110156102bb5781810151838201526020016102a3565b50505050905090810190601f1680156102e85780820380516001836020036101000a031916815260200191505b509250505060405180910390f35b6103226004803603604081101561030c57600080fd5b506001600160a01b0381351690602001356107c9565b604080519115158252519081900360200190f35b61033e6107e7565b604080516001600160a01b039092168252519081900360200190f35b6103626107f6565b60408051918252519081900360200190f35b6103226004803603606081101561038a57600080fd5b506001600160a01b038135811691602081013590911690604001356107fc565b610362600480360360208110156103c057600080fd5b5035610884565b61033e610899565b61033e6108a8565b610403600480360360408110156103ed57600080fd5b50803590602001356001600160a01b03166108b7565b005b61040d610923565b6040805160ff9092168252519081900360200190f35b6104036004803603604081101561043957600080fd5b50803590602001356001600160a01b031661092c565b6103226004803603604081101561046557600080fd5b506001600160a01b03813516906020013561098d565b6103626109db565b6103226109e1565b610322600480360360408110156104a157600080fd5b506001600160a01b038135169060200135610a42565b61033e610ae8565b610322610af7565b610322610b00565b610362600480360360208110156104e557600080fd5b50356001600160a01b0316610bb3565b61033e610bce565b610362610bdd565b610322610be3565b61033e6004803603604081101561052357600080fd5b5080359060200135610c3e565b6103226004803603604081101561054657600080fd5b50803590602001356001600160a01b0316610c56565b610281610c6e565b61033e610ccf565b610362610cde565b6103226004803603604081101561058a57600080fd5b506001600160a01b038135169060200135610ce3565b610322600480360360408110156105b657600080fd5b506001600160a01b038135169060200135610d4b565b61033e610d5f565b61033e610d6e565b61033e610d7d565b610362600480360360208110156105fa57600080fd5b5035610d8c565b61033e610da3565b610362610db2565b610403600480360361018081101561062857600080fd5b508035906001600160a01b03602082013581169160408101358216916060820135811691608081013582169160a082013581169160c081013582169160e08201358116916101008101358216916101208201358116916101408101358216916101609091013516610dc2565b610362611731565b610403600480360360408110156106b257600080fd5b50803590602001356001600160a01b0316611738565b610362600480360360408110156106de57600080fd5b506001600160a01b0381358116916020013516611791565b6103226004803603602081101561070c57600080fd5b50356117bc565b61036261180a565b610362611810565b610362611822565b610362611828565b60368054604080516020601f60026000196101006001881615020190951694909404938401819004810282018101909252828152606093909290918301828280156107bf5780601f10610794576101008083540402835291602001916107bf565b820191906000526020600020905b8154815290600101906020018083116107a257829003601f168201915b5050505050905090565b60006107dd6107d661182e565b8484611832565b5060015b92915050565b60cb546001600160a01b031681565b60355490565b600061080984848461191e565b6108798461081561182e565b610874856040518060600160405280602881526020016127eb602891396001600160a01b038a1660009081526034602052604081209061085361182e565b6001600160a01b031681526020810191909152604001600020549190611a7b565b611832565b5060015b9392505050565b60009081526097602052604090206002015490565b60d3546001600160a01b031681565b60cf546001600160a01b031681565b6000828152609760205260409020600201546108da906108d561182e565b610c56565b6109155760405162461bcd60e51b815260040180806020018281038252602f815260200180612716602f913960400191505060405180910390fd5b61091f8282611b12565b5050565b60385460ff1690565b61093461182e565b6001600160a01b0316816001600160a01b0316146109835760405162461bcd60e51b815260040180806020018281038252602f8152602001806128a1602f913960400191505060405180910390fd5b61091f8282611b7b565b60006107dd61099a61182e565b8461087485603460006109ab61182e565b6001600160a01b03908116825260208083019390935260409182016000908120918c168152925290205490611be4565b60c95481565b60006109fd6000805160206128138339815191526108d561182e565b610a34576040805162461bcd60e51b81526020600482015260036024820152621414cd60ea1b604482015290519081900360640190fd5b610a3c611c3e565b50600190565b6000610a50816108d561182e565b610a87576040805162461bcd60e51b815260206004820152600360248201526250533160e81b604482015290519081900360640190fd5b610a8f610b00565b5060d554610aa583610a9f6107f6565b90611be4565b1115610ade576040805162461bcd60e51b815260206004820152600360248201526228299960e91b604482015290519081900360640190fd5b6107dd8383611cde565b60cc546001600160a01b031681565b60655460ff1690565b600043610b1b6224bba060d754611be490919063ffffffff16565b11610a3c576000610b4760d65460ca546b019d971e4fe8401e74000000611dd09092919063ffffffff16565b60d554909150610b579082611be4565b60d5554360d78190557f36581a2b25903f92b9cf76ccf14ea53151d6f302d54de9ddb6259a7f67993bfd90610b8f906224bba0611be4565b60408051918252602082018490524282820152519081900360600190a15050600190565b6001600160a01b031660009081526033602052604090205490565b60d2546001600160a01b031681565b60ca5481565b6000610bff6000805160206128138339815191526108d561182e565b610c36576040805162461bcd60e51b815260206004820152600360248201526250533360e81b604482015290519081900360640190fd5b610a3c611e89565b600082815260976020526040812061087d9083611f0c565b600082815260976020526040812061087d9083611f18565b60378054604080516020601f60026000196101006001881615020190951694909404938401819004810282018101909252828152606093909290918301828280156107bf5780601f10610794576101008083540402835291602001916107bf565b60d0546001600160a01b031681565b600081565b60006107dd610cf061182e565b846108748560405180606001604052806025815260200161287c6025913960346000610d1a61182e565b6001600160a01b03908116825260208083019390935260409182016000908120918d16815292529020549190611a7b565b60006107dd610d5861182e565b848461191e565b60cd546001600160a01b031681565b60ce546001600160a01b031681565b60d1546001600160a01b031681565b60008181526097602052604081206107e190611f2d565b60d4546001600160a01b031681565b6b019d971e4fe8401e7400000081565b600054610100900460ff1680610ddb5750610ddb611f38565b80610de9575060005460ff16155b610e245760405162461bcd60e51b815260040180806020018281038252602e8152602001806127bd602e913960400191505060405180910390fd5b600054610100900460ff16158015610e4f576000805460ff1961ff0019909116610100171660011790555b610e9b6040518060400160405280600c81526020016b3829aa20a5a2902a37b5b2b760a11b81525060405180604001604052806006815260200165505354414b4560d01b815250611f49565b610ea3611fff565b610eab6120b1565b610ebd6000610eb861182e565b610915565b610ed56000805160206128138339815191528d610915565b610edf601261214e565b60d68d9055633b9aca0060ca554360d7556b019d971e4fe8401e7400000060d555600160c95560d480546001600160a01b03199081166001600160a01b038e81169190911790925560cb805482168d8416179081905560cc805483168d851617905560cd805483168c851617905560ce805483168b851617905560cf805483168a851617905560d08054831689851617905560d18054831688851617905560d28054831687851617905560d3805490921685841617909155610fad91166a108b2a2c28029094000000611cde565b60cf54610fce906001600160a01b03166a108b2a2c28029094000000611cde565b60d054610fef906001600160a01b03166a01b929c32f4f66d4580000611cde565b60d154611010906001600160a01b03166a052b7d2dcc80cd2e400000611cde565b60d254611031906001600160a01b03166a0295be96e6406697200000611cde565b611047306b017306646fb62a62b2480000610a42565b5060d45461106c9030906001600160a01b03166b017306646fb62a62b2480000611832565b60d45460cb546040805163dc76511160e01b81523060048201526001600160a01b03928316602482015242604482015262f099c060648201526a084595161401484a0000006084820152600160a4820152600060c4820181905260e482018190529151929093169263dc765111926101048083019360209383900390910190829087803b1580156110fc57600080fd5b505af1158015611110573d6000803e3d6000fd5b505050506040513d602081101561112657600080fd5b505060d45460cc546040805163dc76511160e01b81523060048201526001600160a01b03928316602482015242604482015262f099c060648201526a037253787de81a014c00006084820152600c60a4820152622819a060c4820152600060e482018190529151929093169263dc765111926101048083019360209383900390910190829087803b1580156111ba57600080fd5b505af11580156111ce573d6000803e3d6000fd5b505050506040513d60208110156111e457600080fd5b505060d45460cd546040805163dc76511160e01b81523060048201526001600160a01b03928316602482015242604482015262f099c060648201526a0108b2a2c28029094000006084820152600c60a4820152622819a060c4820152600060e482018190529151929093169263dc765111926101048083019360209383900390910190829087803b15801561127857600080fd5b505af115801561128c573d6000803e3d6000fd5b505050506040513d60208110156112a257600080fd5b505060d45460ce546040805163dc76511160e01b81523060048201526001600160a01b0392831660248201524260448201526301e1338060648201526a037253787de81a014c00006084820152601260a4820152622819a060c4820152600060e482018190529151929093169263dc765111926101048083019360209383900390910190829087803b15801561133757600080fd5b505af115801561134b573d6000803e3d6000fd5b505050506040513d602081101561136157600080fd5b505060d45460cf546040805163dc76511160e01b81523060048201526001600160a01b03928316602482015242604482015262784ce0606482018190526a108b2a2c280290940000006084830152600860a483015260c4820152600060e482018190529151929093169263dc765111926101048083019360209383900390910190829087803b1580156113f357600080fd5b505af1158015611407573d6000803e3d6000fd5b505050506040513d602081101561141d57600080fd5b505060d45460d0546040805163dc76511160e01b81523060048201526001600160a01b039283166024820152426044820152622819a0606482018190526a01b929b54e98b32cf400006084830152600b60a483015260c4820152600060e482018190529151929093169263dc765111926101048083019360209383900390910190829087803b1580156114af57600080fd5b505af11580156114c3573d6000803e3d6000fd5b505050506040513d60208110156114d957600080fd5b505060d45460d1546040805163dc76511160e01b81523060048201526001600160a01b03928316602482015242604482015262784ce0606482018190526a052b7d2dcc80cd2e4000006084830152600b60a483015260c4820152600060e482018190529151929093169263dc765111926101048083019360209383900390910190829087803b15801561156b57600080fd5b505af115801561157f573d6000803e3d6000fd5b505050506040513d602081101561159557600080fd5b505060d45460d2546040805163dc76511160e01b81523060048201526001600160a01b03928316602482015242604482015262784ce0606482018190526a0295be96e64066972000006084830152600e60a483015260c4820152600060e482018190529151929093169263dc765111926101048083019360209383900390910190829087803b15801561162757600080fd5b505af115801561163b573d6000803e3d6000fd5b505050506040513d602081101561165157600080fd5b505060d45460d3546040805163dc76511160e01b81523060048201526001600160a01b039283166024820152426044820152630694344060648201526a0295be96e64066972000006084820152600160a4820152600060c4820181905260e482018190529151929093169263dc765111926101048083019360209383900390910190829087803b1580156116e457600080fd5b505af11580156116f8573d6000803e3d6000fd5b505050506040513d602081101561170e57600080fd5b50508015611722576000805461ff00191690555b50505050505050505050505050565b6224bba081565b600082815260976020526040902060020154611756906108d561182e565b6109835760405162461bcd60e51b815260040180806020018281038252603081526020018061278d6030913960400191505060405180910390fd5b6001600160a01b03918216600090815260346020908152604080832093909416825291909152205490565b60006117ca816108d561182e565b611801576040805162461bcd60e51b815260206004820152600360248201526205053360ec1b604482015290519081900360640190fd5b5060d655600190565b60d75481565b60008051602061281383398151915281565b60d55481565b60d65481565b3390565b6001600160a01b0383166118775760405162461bcd60e51b81526004018080602001828103825260248152602001806128586024913960400191505060405180910390fd5b6001600160a01b0382166118bc5760405162461bcd60e51b81526004018080602001828103825260228152602001806127456022913960400191505060405180910390fd5b6001600160a01b03808416600081815260346020908152604080832094871680845294825291829020859055815185815291517f8c5be1e5ebec7d5bd14f71427d1e84f3dd0314c0f7b2291e5b200ac8c7c3b9259281900390910190a3505050565b6001600160a01b0383166119635760405162461bcd60e51b81526004018080602001828103825260258152602001806128336025913960400191505060405180910390fd5b6001600160a01b0382166119a85760405162461bcd60e51b81526004018080602001828103825260238152602001806126f36023913960400191505060405180910390fd5b6119b3838383612164565b6119f081604051806060016040528060268152602001612767602691396001600160a01b0386166000908152603360205260409020549190611a7b565b6001600160a01b038085166000908152603360205260408082209390935590841681522054611a1f9082611be4565b6001600160a01b0380841660008181526033602090815260409182902094909455805185815290519193928716927fddf252ad1be2c89b69c2b068fc378daa952ba7f163c4a11628f55a4df523b3ef92918290030190a3505050565b60008184841115611b0a5760405162461bcd60e51b81526004018080602001828103825283818151815260200191508051906020019080838360005b83811015611acf578181015183820152602001611ab7565b50505050905090810190601f168015611afc5780820380516001836020036101000a031916815260200191505b509250505060405180910390fd5b505050900390565b6000828152609760205260409020611b2a90826121af565b1561091f57611b3761182e565b6001600160a01b0316816001600160a01b0316837f2f8788117e7eff1d82e926ec794901d17c78024a50270940304540a733656f0d60405160405180910390a45050565b6000828152609760205260409020611b9390826121c4565b1561091f57611ba061182e565b6001600160a01b0316816001600160a01b0316837ff6391f5c32d9c69d2a47ea670b442974b53935d1edc7fd64eb21e047a839171b60405160405180910390a45050565b60008282018381101561087d576040805162461bcd60e51b815260206004820152601b60248201527f536166654d6174683a206164646974696f6e206f766572666c6f770000000000604482015290519081900360640190fd5b611c46610af7565b611c8e576040805162461bcd60e51b815260206004820152601460248201527314185d5cd8589b194e881b9bdd081c185d5cd95960621b604482015290519081900360640190fd5b6065805460ff191690557f5db9ee0a495bf2e6ff9c91a7834c1ba4fdd244a5e8aa4e537bd38aeae4b073aa611cc161182e565b604080516001600160a01b039092168252519081900360200190a1565b6001600160a01b038216611d39576040805162461bcd60e51b815260206004820152601f60248201527f45524332303a206d696e7420746f20746865207a65726f206164647265737300604482015290519081900360640190fd5b611d4560008383612164565b603554611d529082611be4565b6035556001600160a01b038216600090815260336020526040902054611d789082611be4565b6001600160a01b03831660008181526033602090815260408083209490945583518581529351929391927fddf252ad1be2c89b69c2b068fc378daa952ba7f163c4a11628f55a4df523b3ef9281900390910190a35050565b6000806000611ddf86866121d9565b9150915060008480611ded57fe5b868809905082811115611e01576001820391505b918290039181611e1f57848381611e1457fe5b04935050505061087d565b848210611e73576040805162461bcd60e51b815260206004820152601a60248201527f46756c6c4d6174683a2046554c4c4449565f4f564552464c4f57000000000000604482015290519081900360640190fd5b611e7e838387612206565b979650505050505050565b611e91610af7565b15611ed6576040805162461bcd60e51b815260206004820152601060248201526f14185d5cd8589b194e881c185d5cd95960821b604482015290519081900360640190fd5b6065805460ff191660011790557f62e78cea01bee320cd4e420270b5ea74000d11b0c9f74754ebdbfc544b05a258611cc161182e565b600061087d8383612276565b600061087d836001600160a01b0384166122da565b60006107e1826122f2565b6000611f43306122f6565b15905090565b600054610100900460ff1680611f625750611f62611f38565b80611f70575060005460ff16155b611fab5760405162461bcd60e51b815260040180806020018281038252602e8152602001806127bd602e913960400191505060405180910390fd5b600054610100900460ff16158015611fd6576000805460ff1961ff0019909116610100171660011790555b611fde6122fc565b611fe8838361239c565b8015611ffa576000805461ff00191690555b505050565b600054610100900460ff16806120185750612018611f38565b80612026575060005460ff16155b6120615760405162461bcd60e51b815260040180806020018281038252602e8152602001806127bd602e913960400191505060405180910390fd5b600054610100900460ff1615801561208c576000805460ff1961ff0019909116610100171660011790555b6120946122fc565b61209c6122fc565b80156120ae576000805461ff00191690555b50565b600054610100900460ff16806120ca57506120ca611f38565b806120d8575060005460ff16155b6121135760405162461bcd60e51b815260040180806020018281038252602e8152602001806127bd602e913960400191505060405180910390fd5b600054610100900460ff1615801561213e576000805460ff1961ff0019909116610100171660011790555b6121466122fc565b61209c612474565b6038805460ff191660ff92909216919091179055565b61216c610af7565b156121a4576040805162461bcd60e51b815260206004820152600360248201526250533560e81b604482015290519081900360640190fd5b611ffa838383611ffa565b600061087d836001600160a01b03841661251f565b600061087d836001600160a01b038416612569565b60008080600019848609905083850292508281039150828110156121fe576001820391505b509250929050565b6000818103821680838161221657fe5b04925080858161222257fe5b04945080816000038161223157fe5b60028581038087028203028087028203028087028203028087028203028087028203028087028203029586029003909402930460010193909302939093010292915050565b815460009082106122b85760405162461bcd60e51b81526004018080602001828103825260228152602001806126d16022913960400191505060405180910390fd5b8260000182815481106122c757fe5b9060005260206000200154905092915050565b60009081526001919091016020526040902054151590565b5490565b3b151590565b600054610100900460ff16806123155750612315611f38565b80612323575060005460ff16155b61235e5760405162461bcd60e51b815260040180806020018281038252602e8152602001806127bd602e913960400191505060405180910390fd5b600054610100900460ff1615801561209c576000805460ff1961ff00199091166101001716600117905580156120ae576000805461ff001916905550565b600054610100900460ff16806123b557506123b5611f38565b806123c3575060005460ff16155b6123fe5760405162461bcd60e51b815260040180806020018281038252602e8152602001806127bd602e913960400191505060405180910390fd5b600054610100900460ff16158015612429576000805460ff1961ff0019909116610100171660011790555b825161243c90603690602086019061262f565b50815161245090603790602085019061262f565b506038805460ff191660121790558015611ffa576000805461ff0019169055505050565b600054610100900460ff168061248d575061248d611f38565b8061249b575060005460ff16155b6124d65760405162461bcd60e51b815260040180806020018281038252602e8152602001806127bd602e913960400191505060405180910390fd5b600054610100900460ff16158015612501576000805460ff1961ff0019909116610100171660011790555b6065805460ff1916905580156120ae576000805461ff001916905550565b600061252b83836122da565b612561575081546001818101845560008481526020808220909301849055845484825282860190935260409020919091556107e1565b5060006107e1565b60008181526001830160205260408120548015612625578354600019808301919081019060009087908390811061259c57fe5b90600052602060002001549050808760000184815481106125b957fe5b6000918252602080832090910192909255828152600189810190925260409020908401905586548790806125e957fe5b600190038181906000526020600020016000905590558660010160008781526020019081526020016000206000905560019450505050506107e1565b60009150506107e1565b828054600181600116156101000203166002900490600052602060002090601f01602090048101928261266557600085556126ab565b82601f1061267e57805160ff19168380011785556126ab565b828001600101855582156126ab579182015b828111156126ab578251825591602001919060010190612690565b506126b79291506126bb565b5090565b5b808211156126b757600081556001016126bc56fe456e756d657261626c655365743a20696e646578206f7574206f6620626f756e647345524332303a207472616e7366657220746f20746865207a65726f2061646472657373416363657373436f6e74726f6c3a2073656e646572206d75737420626520616e2061646d696e20746f206772616e7445524332303a20617070726f766520746f20746865207a65726f206164647265737345524332303a207472616e7366657220616d6f756e7420657863656564732062616c616e6365416363657373436f6e74726f6c3a2073656e646572206d75737420626520616e2061646d696e20746f207265766f6b65496e697469616c697a61626c653a20636f6e747261637420697320616c726561647920696e697469616c697a656445524332303a207472616e7366657220616d6f756e74206578636565647320616c6c6f77616e636565d7a28e3265b37a6474929f336521b332c1681b933f6cb9f3376673440d862a45524332303a207472616e736665722066726f6d20746865207a65726f206164647265737345524332303a20617070726f76652066726f6d20746865207a65726f206164647265737345524332303a2064656372656173656420616c6c6f77616e63652062656c6f77207a65726f416363657373436f6e74726f6c3a2063616e206f6e6c792072656e6f756e636520726f6c657320666f722073656c66a2646970667358221220fa13464615daebe1bddbea1675b6435bd607457e67a0b7300c3ce0bdacb5966364736f6c63430007060033",
  "immutableReferences": {},
  "source": "// SPDX-License-Identifier: UNLICENSED\npragma solidity >=0.7.0;\n\nimport \"@openzeppelin/contracts-upgradeable/token/ERC20/ERC20Upgradeable.sol\";\nimport \"@openzeppelin/contracts-upgradeable/utils/PausableUpgradeable.sol\";\nimport \"@openzeppelin/contracts-upgradeable/access/AccessControlUpgradeable.sol\";\nimport \"@openzeppelin/contracts-upgradeable/math/SafeMathUpgradeable.sol\";\nimport \"./libraries/FullMath.sol\";\nimport \"./interfaces/IVestingTimelockV2.sol\";\nimport \"./interfaces/IPSTAKE.sol\";\n\ncontract PSTAKE is\n  IPSTAKE,\n  ERC20Upgradeable,\n  PausableUpgradeable,\n  AccessControlUpgradeable\n{\n  // including libraries\n  using SafeMathUpgradeable for uint256;\n  using FullMath for uint256;\n\n  // constants defining access control ROLES\n  bytes32 public constant PAUSER_ROLE = keccak256(\"PAUSER_ROLE\");\n\n  // variable pertaining to contract upgrades versioning and value divisor\n  uint256 public _version;\n  uint256 public _valueDivisor;\n\n  // addresses pertaining to various tokenomics strategy\n  address public _airdropPool;\n  address public _seedSalePool;\n  address public _strategicFoundationSalePool;\n  address public _teamPool;\n  address public _incentivisationPool;\n  address public _xprtStakersPool;\n  address public _protocolTreasuryPool;\n  address public _communityDevelopmentFundPool;\n  address public _communityDevelopmentFundPool2;\n\n  // address of vesting timelock contract to enable several vesting strategy\n  address public _vestingTimelockAddress;\n\n  // total inflated supply and the supply limit component to implement inflation\n  uint256 public _totalInflatedSupply;\n  uint256 public _inflationRate;\n  uint256 public _lastInflationBlockHeight;\n  uint256 public constant SUPPLY_AT_GENESIS = uint256(500000000e18);\n  uint256 public constant BLOCKS_PER_YEAR = uint256(2407328);\n\n  /**\n   * @dev Constructor for initializing the UToken contract.\n   * @param pauserAddress - address of the pauser admin.\n   */\n  function initialize(\n    uint256 inflationRate,\n    address pauserAddress,\n    address vestingTimelockAddress,\n    address airdropPool,\n    address seedSalePool,\n    address strategicFoundationSalePool,\n    address teamPool,\n    address incentivisationPool,\n    address xprtStakersPool,\n    address protocolTreasuryPool,\n    address communityDevelopmentFundPool,\n    address communityDevelopmentFundPool2\n  ) public virtual initializer {\n    __ERC20_init(\"pSTAKE Token\", \"PSTAKE\");\n    __AccessControl_init();\n    __Pausable_init();\n    _setupRole(DEFAULT_ADMIN_ROLE, _msgSender());\n    _setupRole(PAUSER_ROLE, pauserAddress);\n\n    // PSTAKE is an erc20 token hence 18 decimal places\n    _setupDecimals(18);\n    _inflationRate = inflationRate;\n    _valueDivisor = uint256(1e9);\n    _lastInflationBlockHeight = block.number;\n    _totalInflatedSupply = uint256(500000000e18);\n\n    // setup the version and vesting timelock contract\n    _version = 1;\n    _vestingTimelockAddress = vestingTimelockAddress;\n\n    // allocate the various tokenomics strategy pool addresses\n    _airdropPool = airdropPool;\n    _seedSalePool = seedSalePool;\n    _strategicFoundationSalePool = strategicFoundationSalePool;\n    _teamPool = teamPool;\n    _incentivisationPool = incentivisationPool;\n    _xprtStakersPool = xprtStakersPool;\n    _protocolTreasuryPool = protocolTreasuryPool;\n    _communityDevelopmentFundPool = communityDevelopmentFundPool;\n    _communityDevelopmentFundPool2 = communityDevelopmentFundPool2;\n\n    // pre-allocate tokens to strategy pools\n    _mint(_airdropPool, uint256(20000000e18));\n    _mint(_incentivisationPool, uint256(20000000e18));\n    _mint(_xprtStakersPool, uint256(2083334e18));\n    _mint(_protocolTreasuryPool, uint256(6250000e18));\n    _mint(_communityDevelopmentFundPool, uint256(3125000e18));\n\n    // accumulate tokens to allocate for vesting strategies (total supply - initial circulating supply)\n    mint(address(this), uint256(448541666e18));\n\n    // approve the vesting timelock contract to pull the tokens\n    _approve(address(this), _vestingTimelockAddress, uint256(448541666e18));\n    // create vesting strategies\n\n    // airdrop pool\n    IVestingTimelockV2(_vestingTimelockAddress).addGrantAsInstalment(\n      address(this),\n      _airdropPool,\n      block.timestamp,\n      (182 days + 12 hours),\n      uint256(10000000e18),\n      1,\n      0,\n      false\n    );\n\n    // seedSale pool\n    IVestingTimelockV2(_vestingTimelockAddress).addGrantAsInstalment(\n      address(this),\n      _seedSalePool,\n      block.timestamp,\n      // 6 months\n      (182 days + 12 hours),\n      uint256(4166667e18),\n      12,\n      // 1 month\n      (30 days + 10 hours),\n      false\n    );\n\n    // strategicFoundationSale pool\n    IVestingTimelockV2(_vestingTimelockAddress).addGrantAsInstalment(\n      address(this),\n      _strategicFoundationSalePool,\n      block.timestamp,\n      // 6 months\n      (182 days + 12 hours),\n      uint256(1250000e18),\n      12,\n      // 1 month\n      (30 days + 10 hours),\n      false\n    );\n\n    // team pool\n    IVestingTimelockV2(_vestingTimelockAddress).addGrantAsInstalment(\n      address(this),\n      _teamPool,\n      block.timestamp,\n      // 12 months\n      365 days,\n      uint256(4166667e18),\n      18,\n      // 1 month\n      (30 days + 10 hours),\n      false\n    );\n\n    // incentivisation pool\n    IVestingTimelockV2(_vestingTimelockAddress).addGrantAsInstalment(\n      address(this),\n      _incentivisationPool,\n      block.timestamp,\n      // 3 months\n      (91 days + 6 hours),\n      uint256(20000000e18),\n      8,\n      // 3 months\n      (91 days + 6 hours),\n      false\n    );\n\n    // xprtStakers pool\n    IVestingTimelockV2(_vestingTimelockAddress).addGrantAsInstalment(\n      address(this),\n      _xprtStakersPool,\n      block.timestamp,\n      // 1 month\n      (30 days + 10 hours),\n      uint256(2083333e18),\n      11,\n      // 1 month\n      (30 days + 10 hours),\n      false\n    );\n\n    // protocolTreasury pool\n    IVestingTimelockV2(_vestingTimelockAddress).addGrantAsInstalment(\n      address(this),\n      _protocolTreasuryPool,\n      block.timestamp,\n      // 3 months\n      (91 days + 6 hours),\n      uint256(6250000e18),\n      11,\n      // 3 months\n      (91 days + 6 hours),\n      false\n    );\n\n    // communityDevelopmentFund pool\n    IVestingTimelockV2(_vestingTimelockAddress).addGrantAsInstalment(\n      address(this),\n      _communityDevelopmentFundPool,\n      block.timestamp,\n      // 3 months\n      (91 days + 6 hours),\n      uint256(3125000e18),\n      14,\n      // 3 months\n      (91 days + 6 hours),\n      false\n    );\n\n    // communityDevelopmentFund2 pool\n    IVestingTimelockV2(_vestingTimelockAddress).addGrantAsInstalment(\n      address(this),\n      _communityDevelopmentFundPool2,\n      block.timestamp,\n      // 42 months\n      (1277 days + 12 hours),\n      uint256(3125000e18),\n      1,\n      // 0 months\n      0,\n      false\n    );\n  }\n\n  /**\n   * @dev A token holder contract that will allow a beneficiary to extract\n   */\n  function checkInflation() public virtual override returns (bool success) {\n    if (_lastInflationBlockHeight.add(BLOCKS_PER_YEAR) <= block.number) {\n      // add inflation component to total inflated supply\n      uint256 inflationComponent = uint256(SUPPLY_AT_GENESIS).mulDiv(\n        _inflationRate,\n        _valueDivisor\n      );\n      _totalInflatedSupply = _totalInflatedSupply.add(inflationComponent);\n      _lastInflationBlockHeight = block.number;\n      emit CheckInflation(\n        _lastInflationBlockHeight.add(BLOCKS_PER_YEAR),\n        inflationComponent,\n        block.timestamp\n      );\n    }\n    success = true;\n  }\n\n  /**\n   * @dev A token holder contract that will allow a beneficiary to extract\n   */\n  function setInflation(uint256 inflationRate)\n    public\n    virtual\n    override\n    returns (bool success)\n  {\n    require(hasRole(DEFAULT_ADMIN_ROLE, _msgSender()), \"PS0\");\n    _inflationRate = inflationRate;\n    success = true;\n  }\n\n  /**\n   * @dev Mint new PSTAKE for the provided 'address' and 'amount'\n   *\n   *\n   * Emits a {MintTokens} event with 'to' set to address and 'tokens' set to amount of tokens.\n   *\n   * Requirements:\n   *\n   * - `amount` cannot be less than zero.\n   *\n   */\n  function mint(address to, uint256 tokens)\n    public\n    virtual\n    override\n    returns (bool success)\n  {\n    require(hasRole(DEFAULT_ADMIN_ROLE, _msgSender()), \"PS1\");\n    // condition to check if the total supply doesnt cross the inflated supply\n    checkInflation();\n    require((totalSupply()).add(tokens) <= _totalInflatedSupply, \"PS2\");\n\n    // mint the tokens\n    _mint(to, tokens);\n    return true;\n  }\n\n  /**\n   * @dev Triggers stopped state.\n   *\n   * Requirements:\n   *\n   * - The contract must not be paused.\n   */\n  function pause() public virtual override returns (bool success) {\n    require(hasRole(PAUSER_ROLE, _msgSender()), \"PS3\");\n    _pause();\n    return true;\n  }\n\n  /**\n   * @dev Returns to normal state.\n   *\n   * Requirements:\n   *\n   * - The contract must be paused.\n   */\n  function unpause() public virtual override returns (bool success) {\n    require(hasRole(PAUSER_ROLE, _msgSender()), \"PS4\");\n    _unpause();\n    return true;\n  }\n\n  /**\n   * @dev Hook that is called before any transfer of tokens. This includes\n   * minting and burning.\n   *\n   * Calling conditions:\n   *\n   * - when `from` and `to` are both non-zero, `amount` of ``from``'s tokens\n   * will be to transferred to `to`.\n   * - when `from` is zero, `amount` tokens will be minted for `to`.\n   * - when `to` is zero, `amount` of ``from``'s tokens will be burned.\n   * - `from` and `to` are never both zero.\n   *\n   */\n  function _beforeTokenTransfer(\n    address from,\n    address to,\n    uint256 amount\n  ) internal virtual override {\n    require(!paused(), \"PS5\");\n    super._beforeTokenTransfer(from, to, amount);\n  }\n}\n",
  "sourcePath": "C:\\Users\\Kamlesh\\Persistence\\pStake\\codebase\\erc20\\contracts\\PSTAKE.sol",
  "compiler": {
    "name": "solc",
    "version": "0.7.6+commit.7338295f.Emscripten.clang"
  },
  "schemaVersion": "3.4.3",
  "updatedAt": "2021-11-02T06:14:04.329Z",
  "devdoc": {
    "kind": "dev",
    "methods": {
      "allowance(address,address)": {
        "details": "See {IERC20-allowance}."
      },
      "approve(address,uint256)": {
        "details": "See {IERC20-approve}. Requirements: - `spender` cannot be the zero address."
      },
      "balanceOf(address)": {
        "details": "See {IERC20-balanceOf}."
      },
      "checkInflation()": {
        "details": "A token holder contract that will allow a beneficiary to extract"
      },
      "decimals()": {
        "details": "Returns the number of decimals used to get its user representation. For example, if `decimals` equals `2`, a balance of `505` tokens should be displayed to a user as `5,05` (`505 / 10 ** 2`). Tokens usually opt for a value of 18, imitating the relationship between Ether and Wei. This is the value {ERC20} uses, unless {_setupDecimals} is called. NOTE: This information is only used for _display_ purposes: it in no way affects any of the arithmetic of the contract, including {IERC20-balanceOf} and {IERC20-transfer}."
      },
      "decreaseAllowance(address,uint256)": {
        "details": "Atomically decreases the allowance granted to `spender` by the caller. This is an alternative to {approve} that can be used as a mitigation for problems described in {IERC20-approve}. Emits an {Approval} event indicating the updated allowance. Requirements: - `spender` cannot be the zero address. - `spender` must have allowance for the caller of at least `subtractedValue`."
      },
      "getRoleAdmin(bytes32)": {
        "details": "Returns the admin role that controls `role`. See {grantRole} and {revokeRole}. To change a role's admin, use {_setRoleAdmin}."
      },
      "getRoleMember(bytes32,uint256)": {
        "details": "Returns one of the accounts that have `role`. `index` must be a value between 0 and {getRoleMemberCount}, non-inclusive. Role bearers are not sorted in any particular way, and their ordering may change at any point. WARNING: When using {getRoleMember} and {getRoleMemberCount}, make sure you perform all queries on the same block. See the following https://forum.openzeppelin.com/t/iterating-over-elements-on-enumerableset-in-openzeppelin-contracts/2296[forum post] for more information."
      },
      "getRoleMemberCount(bytes32)": {
        "details": "Returns the number of accounts that have `role`. Can be used together with {getRoleMember} to enumerate all bearers of a role."
      },
      "grantRole(bytes32,address)": {
        "details": "Grants `role` to `account`. If `account` had not been already granted `role`, emits a {RoleGranted} event. Requirements: - the caller must have ``role``'s admin role."
      },
      "hasRole(bytes32,address)": {
        "details": "Returns `true` if `account` has been granted `role`."
      },
      "increaseAllowance(address,uint256)": {
        "details": "Atomically increases the allowance granted to `spender` by the caller. This is an alternative to {approve} that can be used as a mitigation for problems described in {IERC20-approve}. Emits an {Approval} event indicating the updated allowance. Requirements: - `spender` cannot be the zero address."
      },
      "initialize(uint256,address,address,address,address,address,address,address,address,address,address,address)": {
        "details": "Constructor for initializing the UToken contract.",
        "params": {
          "pauserAddress": "- address of the pauser admin."
        }
      },
      "mint(address,uint256)": {
        "details": "Mint new PSTAKE for the provided 'address' and 'amount' Emits a {MintTokens} event with 'to' set to address and 'tokens' set to amount of tokens. Requirements: - `amount` cannot be less than zero."
      },
      "name()": {
        "details": "Returns the name of the token."
      },
      "pause()": {
        "details": "Triggers stopped state. Requirements: - The contract must not be paused."
      },
      "paused()": {
        "details": "Returns true if the contract is paused, and false otherwise."
      },
      "renounceRole(bytes32,address)": {
        "details": "Revokes `role` from the calling account. Roles are often managed via {grantRole} and {revokeRole}: this function's purpose is to provide a mechanism for accounts to lose their privileges if they are compromised (such as when a trusted device is misplaced). If the calling account had been granted `role`, emits a {RoleRevoked} event. Requirements: - the caller must be `account`."
      },
      "revokeRole(bytes32,address)": {
        "details": "Revokes `role` from `account`. If `account` had been granted `role`, emits a {RoleRevoked} event. Requirements: - the caller must have ``role``'s admin role."
      },
      "setInflation(uint256)": {
        "details": "A token holder contract that will allow a beneficiary to extract"
      },
      "symbol()": {
        "details": "Returns the symbol of the token, usually a shorter version of the name."
      },
      "totalSupply()": {
        "details": "See {IERC20-totalSupply}."
      },
      "transfer(address,uint256)": {
        "details": "See {IERC20-transfer}. Requirements: - `recipient` cannot be the zero address. - the caller must have a balance of at least `amount`."
      },
      "transferFrom(address,address,uint256)": {
        "details": "See {IERC20-transferFrom}. Emits an {Approval} event indicating the updated allowance. This is not required by the EIP. See the note at the beginning of {ERC20}. Requirements: - `sender` and `recipient` cannot be the zero address. - `sender` must have a balance of at least `amount`. - the caller must have allowance for ``sender``'s tokens of at least `amount`."
      },
      "unpause()": {
        "details": "Returns to normal state. Requirements: - The contract must be paused."
      }
    },
    "version": 1
  },
  "userdoc": {
    "kind": "user",
    "methods": {},
    "version": 1
  }
}