{
  "contractName": "VestingTimelockV3",
  "abi": [
    {
      "anonymous": false,
      "inputs": [
        {
          "indexed": false,
          "internalType": "address",
          "name": "token",
          "type": "address"
        },
        {
          "indexed": false,
          "internalType": "address",
          "name": "accountAddress",
          "type": "address"
        },
        {
          "indexed": false,
          "internalType": "uint256",
          "name": "startTime",
          "type": "uint256"
        },
        {
          "indexed": false,
          "internalType": "uint256",
          "name": "cliffPeriod",
          "type": "uint256"
        },
        {
          "indexed": false,
          "internalType": "uint256",
          "name": "tokens",
          "type": "uint256"
        },
        {
          "indexed": false,
          "internalType": "uint256",
          "name": "instalmentAmount",
          "type": "uint256"
        },
        {
          "indexed": false,
          "internalType": "uint256",
          "name": "instalmentCount",
          "type": "uint256"
        },
        {
          "indexed": false,
          "internalType": "uint256",
          "name": "instalmentPeriod",
          "type": "uint256"
        },
        {
          "indexed": false,
          "internalType": "address",
          "name": "grantManager",
          "type": "address"
        },
        {
          "indexed": false,
          "internalType": "uint256",
          "name": "timestamp",
          "type": "uint256"
        }
      ],
      "name": "AddGrant",
      "type": "event"
    },
    {
      "anonymous": false,
      "inputs": [
        {
          "indexed": false,
          "internalType": "address",
          "name": "token",
          "type": "address"
        },
        {
          "indexed": false,
          "internalType": "address",
          "name": "accountAddress",
          "type": "address"
        },
        {
          "indexed": false,
          "internalType": "uint256",
          "name": "tokens",
          "type": "uint256"
        },
        {
          "indexed": false,
          "internalType": "uint256",
          "name": "timestamp",
          "type": "uint256"
        }
      ],
      "name": "ClaimGrant",
      "type": "event"
    },
    {
      "anonymous": false,
      "inputs": [
        {
          "indexed": false,
          "internalType": "address",
          "name": "account",
          "type": "address"
        }
      ],
      "name": "Paused",
      "type": "event"
    },
    {
      "anonymous": false,
      "inputs": [
        {
          "indexed": false,
          "internalType": "address",
          "name": "token",
          "type": "address"
        },
        {
          "indexed": false,
          "internalType": "address",
          "name": "sender",
          "type": "address"
        },
        {
          "indexed": false,
          "internalType": "address",
          "name": "accountAddress",
          "type": "address"
        },
        {
          "indexed": false,
          "internalType": "address",
          "name": "grantManager",
          "type": "address"
        },
        {
          "indexed": false,
          "internalType": "uint256",
          "name": "tokens",
          "type": "uint256"
        },
        {
          "indexed": false,
          "internalType": "uint256",
          "name": "timestamp",
          "type": "uint256"
        }
      ],
      "name": "RevokeGrant",
      "type": "event"
    },
    {
      "anonymous": false,
      "inputs": [
        {
          "indexed": true,
          "internalType": "bytes32",
          "name": "role",
          "type": "bytes32"
        },
        {
          "indexed": true,
          "internalType": "bytes32",
          "name": "previousAdminRole",
          "type": "bytes32"
        },
        {
          "indexed": true,
          "internalType": "bytes32",
          "name": "newAdminRole",
          "type": "bytes32"
        }
      ],
      "name": "RoleAdminChanged",
      "type": "event"
    },
    {
      "anonymous": false,
      "inputs": [
        {
          "indexed": true,
          "internalType": "bytes32",
          "name": "role",
          "type": "bytes32"
        },
        {
          "indexed": true,
          "internalType": "address",
          "name": "account",
          "type": "address"
        },
        {
          "indexed": true,
          "internalType": "address",
          "name": "sender",
          "type": "address"
        }
      ],
      "name": "RoleGranted",
      "type": "event"
    },
    {
      "anonymous": false,
      "inputs": [
        {
          "indexed": true,
          "internalType": "bytes32",
          "name": "role",
          "type": "bytes32"
        },
        {
          "indexed": true,
          "internalType": "address",
          "name": "account",
          "type": "address"
        },
        {
          "indexed": true,
          "internalType": "address",
          "name": "sender",
          "type": "address"
        }
      ],
      "name": "RoleRevoked",
      "type": "event"
    },
    {
      "anonymous": false,
      "inputs": [
        {
          "indexed": false,
          "internalType": "address",
          "name": "account",
          "type": "address"
        }
      ],
      "name": "Unpaused",
      "type": "event"
    },
    {
      "inputs": [],
      "name": "DEFAULT_ADMIN_ROLE",
      "outputs": [
        {
          "internalType": "bytes32",
          "name": "",
          "type": "bytes32"
        }
      ],
      "stateMutability": "view",
      "type": "function"
    },
    {
      "inputs": [],
      "name": "GRANT_ADMIN_ROLE",
      "outputs": [
        {
          "internalType": "bytes32",
          "name": "",
          "type": "bytes32"
        }
      ],
      "stateMutability": "view",
      "type": "function"
    },
    {
      "inputs": [],
      "name": "PAUSER_ROLE",
      "outputs": [
        {
          "internalType": "bytes32",
          "name": "",
          "type": "bytes32"
        }
      ],
      "stateMutability": "view",
      "type": "function"
    },
    {
      "inputs": [
        {
          "internalType": "address",
          "name": "",
          "type": "address"
        }
      ],
      "name": "_grantCount",
      "outputs": [
        {
          "internalType": "uint256",
          "name": "",
          "type": "uint256"
        }
      ],
      "stateMutability": "view",
      "type": "function"
    },
    {
      "inputs": [
        {
          "internalType": "address",
          "name": "",
          "type": "address"
        },
        {
          "internalType": "address",
          "name": "",
          "type": "address"
        }
      ],
      "name": "_grantData",
      "outputs": [
        {
          "internalType": "bool",
          "name": "isActive",
          "type": "bool"
        },
        {
          "internalType": "uint256",
          "name": "cliffPeriod",
          "type": "uint256"
        },
        {
          "internalType": "uint256",
          "name": "instalmentPeriod",
          "type": "uint256"
        },
        {
          "internalType": "uint256",
          "name": "startTime",
          "type": "uint256"
        },
        {
          "internalType": "uint256",
          "name": "endTime",
          "type": "uint256"
        },
        {
          "internalType": "uint256",
          "name": "lastClaimedTime",
          "type": "uint256"
        },
        {
          "internalType": "uint256",
          "name": "instalmentCount",
          "type": "uint256"
        },
        {
          "internalType": "uint256",
          "name": "instalmentAmount",
          "type": "uint256"
        },
        {
          "internalType": "uint256",
          "name": "amountReceived",
          "type": "uint256"
        },
        {
          "internalType": "address",
          "name": "grantManager",
          "type": "address"
        }
      ],
      "stateMutability": "view",
      "type": "function"
    },
    {
      "inputs": [],
      "name": "_version",
      "outputs": [
        {
          "internalType": "uint256",
          "name": "",
          "type": "uint256"
        }
      ],
      "stateMutability": "view",
      "type": "function"
    },
    {
      "inputs": [
        {
          "internalType": "bytes32",
          "name": "role",
          "type": "bytes32"
        }
      ],
      "name": "getRoleAdmin",
      "outputs": [
        {
          "internalType": "bytes32",
          "name": "",
          "type": "bytes32"
        }
      ],
      "stateMutability": "view",
      "type": "function"
    },
    {
      "inputs": [
        {
          "internalType": "bytes32",
          "name": "role",
          "type": "bytes32"
        },
        {
          "internalType": "uint256",
          "name": "index",
          "type": "uint256"
        }
      ],
      "name": "getRoleMember",
      "outputs": [
        {
          "internalType": "address",
          "name": "",
          "type": "address"
        }
      ],
      "stateMutability": "view",
      "type": "function"
    },
    {
      "inputs": [
        {
          "internalType": "bytes32",
          "name": "role",
          "type": "bytes32"
        }
      ],
      "name": "getRoleMemberCount",
      "outputs": [
        {
          "internalType": "uint256",
          "name": "",
          "type": "uint256"
        }
      ],
      "stateMutability": "view",
      "type": "function"
    },
    {
      "inputs": [
        {
          "internalType": "bytes32",
          "name": "role",
          "type": "bytes32"
        },
        {
          "internalType": "address",
          "name": "account",
          "type": "address"
        }
      ],
      "name": "grantRole",
      "outputs": [],
      "stateMutability": "nonpayable",
      "type": "function"
    },
    {
      "inputs": [
        {
          "internalType": "bytes32",
          "name": "role",
          "type": "bytes32"
        },
        {
          "internalType": "address",
          "name": "account",
          "type": "address"
        }
      ],
      "name": "hasRole",
      "outputs": [
        {
          "internalType": "bool",
          "name": "",
          "type": "bool"
        }
      ],
      "stateMutability": "view",
      "type": "function"
    },
    {
      "inputs": [],
      "name": "paused",
      "outputs": [
        {
          "internalType": "bool",
          "name": "",
          "type": "bool"
        }
      ],
      "stateMutability": "view",
      "type": "function"
    },
    {
      "inputs": [
        {
          "internalType": "bytes32",
          "name": "role",
          "type": "bytes32"
        },
        {
          "internalType": "address",
          "name": "account",
          "type": "address"
        }
      ],
      "name": "renounceRole",
      "outputs": [],
      "stateMutability": "nonpayable",
      "type": "function"
    },
    {
      "inputs": [
        {
          "internalType": "bytes32",
          "name": "role",
          "type": "bytes32"
        },
        {
          "internalType": "address",
          "name": "account",
          "type": "address"
        }
      ],
      "name": "revokeRole",
      "outputs": [],
      "stateMutability": "nonpayable",
      "type": "function"
    },
    {
      "inputs": [
        {
          "internalType": "address",
          "name": "pauserAddress_",
          "type": "address"
        },
        {
          "internalType": "address",
          "name": "grantAdminAddress_",
          "type": "address"
        }
      ],
      "name": "initialize",
      "outputs": [],
      "stateMutability": "nonpayable",
      "type": "function"
    },
    {
      "inputs": [
        {
          "internalType": "address",
          "name": "token_",
          "type": "address"
        },
        {
          "internalType": "address",
          "name": "beneficiary_",
          "type": "address"
        }
      ],
      "name": "getGrant",
      "outputs": [
        {
          "internalType": "uint256",
          "name": "startTime",
          "type": "uint256"
        },
        {
          "internalType": "uint256",
          "name": "endTime",
          "type": "uint256"
        },
        {
          "internalType": "uint256",
          "name": "cliffPeriod",
          "type": "uint256"
        },
        {
          "internalType": "bool",
          "name": "isActive",
          "type": "bool"
        },
        {
          "internalType": "uint256",
          "name": "instalmentAmount",
          "type": "uint256"
        },
        {
          "internalType": "uint256",
          "name": "instalmentCount",
          "type": "uint256"
        },
        {
          "internalType": "uint256",
          "name": "instalmentPeriod",
          "type": "uint256"
        },
        {
          "internalType": "uint256",
          "name": "amountReceived",
          "type": "uint256"
        },
        {
          "internalType": "address",
          "name": "grantManager",
          "type": "address"
        },
        {
          "internalType": "uint256",
          "name": "lastClaimedTime",
          "type": "uint256"
        }
      ],
      "stateMutability": "view",
      "type": "function"
    },
    {
      "inputs": [
        {
          "internalType": "address",
          "name": "token_",
          "type": "address"
        },
        {
          "internalType": "address",
          "name": "beneficiary_",
          "type": "address"
        }
      ],
      "name": "getPending",
      "outputs": [
        {
          "internalType": "uint256",
          "name": "pendingAmount",
          "type": "uint256"
        },
        {
          "internalType": "uint256",
          "name": "pendingTime",
          "type": "uint256"
        },
        {
          "internalType": "uint256",
          "name": "pendingInstalment",
          "type": "uint256"
        }
      ],
      "stateMutability": "view",
      "type": "function"
    },
    {
      "inputs": [
        {
          "internalType": "address",
          "name": "token_",
          "type": "address"
        },
        {
          "internalType": "address",
          "name": "beneficiary_",
          "type": "address"
        }
      ],
      "name": "getRemaining",
      "outputs": [
        {
          "internalType": "uint256",
          "name": "remainingAmount",
          "type": "uint256"
        },
        {
          "internalType": "uint256",
          "name": "remainingTime",
          "type": "uint256"
        },
        {
          "internalType": "uint256",
          "name": "remainingInstalment",
          "type": "uint256"
        }
      ],
      "stateMutability": "view",
      "type": "function"
    },
    {
      "inputs": [
        {
          "internalType": "address",
          "name": "token_",
          "type": "address"
        },
        {
          "internalType": "address",
          "name": "beneficiary_",
          "type": "address"
        },
        {
          "internalType": "uint256",
          "name": "startTime_",
          "type": "uint256"
        },
        {
          "internalType": "uint256",
          "name": "cliffPeriod_",
          "type": "uint256"
        },
        {
          "internalType": "uint256",
          "name": "instalmentAmount_",
          "type": "uint256"
        },
        {
          "internalType": "uint256",
          "name": "instalmentCount_",
          "type": "uint256"
        },
        {
          "internalType": "uint256",
          "name": "instalmentPeriod_",
          "type": "uint256"
        }
      ],
      "name": "addGrant",
      "outputs": [
        {
          "internalType": "uint256",
          "name": "totalVestingAmount",
          "type": "uint256"
        }
      ],
      "stateMutability": "nonpayable",
      "type": "function"
    },
    {
      "inputs": [
        {
          "internalType": "address",
          "name": "token_",
          "type": "address"
        },
        {
          "internalType": "address",
          "name": "beneficiary_",
          "type": "address"
        }
      ],
      "name": "revokeGrant",
      "outputs": [
        {
          "internalType": "uint256",
          "name": "remainingAmount",
          "type": "uint256"
        }
      ],
      "stateMutability": "nonpayable",
      "type": "function"
    },
    {
      "inputs": [
        {
          "internalType": "address",
          "name": "token_",
          "type": "address"
        },
        {
          "internalType": "address",
          "name": "beneficiary_",
          "type": "address"
        }
      ],
      "name": "claimGrant",
      "outputs": [
        {
          "internalType": "uint256",
          "name": "pendingAmount",
          "type": "uint256"
        }
      ],
      "stateMutability": "nonpayable",
      "type": "function"
    },
    {
      "inputs": [],
      "name": "pause",
      "outputs": [
        {
          "internalType": "bool",
          "name": "success",
          "type": "bool"
        }
      ],
      "stateMutability": "nonpayable",
      "type": "function"
    },
    {
      "inputs": [],
      "name": "unpause",
      "outputs": [
        {
          "internalType": "bool",
          "name": "success",
          "type": "bool"
        }
      ],
      "stateMutability": "nonpayable",
      "type": "function"
    }
  ],
  "bytecode": "0x608060405234801561001057600080fd5b50612540806100206000396000f3fe608060405234801561001057600080fd5b506004361061014d5760003560e01c80635c975abb116100c3578063a217fddf1161007c578063a217fddf1461048e578063b415884414610496578063ca15c873146104c4578063d41c9125146104e1578063d547741f1461052f578063e63ab1e91461055b5761014d565b80635c975abb1461035e5780636d1319eb146103665780638456cb59146103ed57806388984a0d146103f55780639010d07c1461042357806391d14854146104625761014d565b806336568abe1161011557806336568abe146102315780633e118dbe1461025d5780633f4ba83a14610265578063454249f614610281578063485cc9551461030a5780635138b2b7146103385761014d565b80630a68e60b1461015257806314820f2f14610192578063248a9ca3146101de5780632c0acd2c146101fb5780632f2ff15d14610203575b600080fd5b6101806004803603604081101561016857600080fd5b506001600160a01b0381358116916020013516610563565b60408051918252519081900360200190f35b6101c0600480360360408110156101a857600080fd5b506001600160a01b03813581169160200135166107cf565b60408051938452602084019290925282820152519081900360600190f35b610180600480360360208110156101f457600080fd5b50356109d6565b6101806109eb565b61022f6004803603604081101561021957600080fd5b50803590602001356001600160a01b03166109fd565b005b61022f6004803603604081101561024757600080fd5b50803590602001356001600160a01b0316610a64565b610180610ac5565b61026d610acb565b604080519115158252519081900360200190f35b6102af6004803603604081101561029757600080fd5b506001600160a01b0381358116916020013516610b2f565b604080519a15158b5260208b0199909952898901979097526060890195909552608088019390935260a087019190915260c086015260e08501526101008401526001600160a01b031661012083015251908190036101400190f35b61022f6004803603604081101561032057600080fd5b506001600160a01b0381358116916020013516610b98565b6101806004803603602081101561034e57600080fd5b50356001600160a01b0316610c96565b61026d610ca8565b6103946004803603604081101561037c57600080fd5b506001600160a01b0381358116916020013516610cb1565b604080519a8b5260208b0199909952898901979097529415156060890152608088019390935260a087019190915260c086015260e08501526001600160a01b031661010084015261012083015251908190036101400190f35b61026d610db2565b6101c06004803603604081101561040b57600080fd5b506001600160a01b0381358116916020013516610e10565b6104466004803603604081101561043957600080fd5b5080359060200135610f9c565b604080516001600160a01b039092168252519081900360200190f35b61026d6004803603604081101561047857600080fd5b50803590602001356001600160a01b0316610fbd565b610180610fd5565b610180600480360360408110156104ac57600080fd5b506001600160a01b0381358116916020013516610fda565b610180600480360360208110156104da57600080fd5b50356112b0565b610180600480360360e08110156104f757600080fd5b506001600160a01b03813581169160208101359091169060408101359060608101359060808101359060a08101359060c001356112c7565b61022f6004803603604081101561054557600080fd5b50803590602001356001600160a01b0316611730565b610180611789565b6000600260015414156105bd576040805162461bcd60e51b815260206004820152601f60248201527f5265656e7472616e637947756172643a207265656e7472616e742063616c6c00604482015290519081900360640190fd5b60026001556001600160a01b038316158015906105e257506001600160a01b03821615155b610619576040805162461bcd60e51b815260206004820152600360248201526256543560e81b604482015290519081900360640190fd5b6001600160a01b03808416600090815260cb60209081526040808320868516808552925290912060098101549092169061065161179b565b6001600160a01b0316148061067e5750806001600160a01b031661067361179b565b6001600160a01b0316145b806106a357506106a360008051602061249283398151915261069e61179b565b610fbd565b6106da576040805162461bcd60e51b81526020600482015260036024820152622b2a1b60e91b604482015290519081900360640190fd5b815460ff1680156106f2575081600401548260050154105b610729576040805162461bcd60e51b815260206004820152600360248201526215950d60ea1b604482015290519081900360640190fd5b6107338585610e10565b5050825460ff1916835592508215610759576107596001600160a01b038616828561179f565b7faec9010fac0b1ff6564311742cf8039a0865acea568a5616cdbcf8e407cb5cd28561078361179b565b604080516001600160a01b0393841681529183166020830152828816828201529184166060820152608081018690524260a082015290519081900360c00190a150506001805592915050565b600080806001600160a01b03851615806107f057506001600160a01b038416155b156107fa576109cf565b6001600160a01b03808616600090815260cb6020908152604080832088851684528252808320815161014081018352815460ff1615801582526001830154948201949094526002820154928101929092526003810154606083015260048101546080830152600581015460a0830152600681015460c0830152600781015460e083015260088101546101008301526009015490931661012084015290918291806108ac575080608001518160a0015110155b806108b9575060e0810151155b806108d65750602081015160608201516108d2916117f1565b4211155b156108e3575050506109cf565b806080015142116108f457426108fa565b80608001515b915080606001518160a0015110610915578060a0015161091b565b80606001515b9250610927828461184b565b945060008082604001511161093d57600161097b565b61097b6001610975846040015161096f610968876020015188606001516117f190919063ffffffff16565b889061184b565b906118a8565b906117f1565b90506109a382610100015161099d8460e001518461190f90919063ffffffff16565b9061184b565b965060008260e00151116109b85760006109c8565b60e08201516109c89088906118a8565b9450505050505b9250925092565b60009081526097602052604090206002015490565b60008051602061249283398151915281565b600082815260976020526040902060020154610a1b9061069e61179b565b610a565760405162461bcd60e51b815260040180806020018281038252602f81526020018061239e602f913960400191505060405180910390fd5b610a608282611968565b5050565b610a6c61179b565b6001600160a01b0316816001600160a01b031614610abb5760405162461bcd60e51b815260040180806020018281038252602f8152602001806124dc602f913960400191505060405180910390fd5b610a6082826119d1565b60c95481565b6000610ae760008051602061247283398151915261069e61179b565b610b21576040805162461bcd60e51b815260206004808301919091526024820152630565432360e41b604482015290519081900360640190fd5b610b29611a3a565b50600190565b60cb602090815260009283526040808420909152908252902080546001820154600283015460038401546004850154600586015460068701546007880154600889015460099099015460ff9098169896979596949593949293919290916001600160a01b03168a565b600054610100900460ff1680610bb15750610bb1611ada565b80610bbf575060005460ff16155b610bfa5760405162461bcd60e51b815260040180806020018281038252602e815260200180612423602e913960400191505060405180910390fd5b600054610100900460ff16158015610c25576000805460ff1961ff0019909116610100171660011790555b610c2d611aeb565b610c35611b95565b610c3d611c35565b610c4f6000610c4a61179b565b610a56565b610c6760008051602061247283398151915284610a56565b610c7f60008051602061249283398151915283610a56565b8015610c91576000805461ff00191690555b505050565b60ca6020526000908152604090205481565b60655460ff1690565b60008080808080808080806001600160a01b038c1615801590610cdc57506001600160a01b038b1615155b505050506001600160a01b03808a16600090815260cb602090815260408083208c85168452825291829020825161014081018452815460ff16151580825260018301549382018490526002830154948201859052600383015460608301819052600484015460808401819052600585015460a08501819052600686015460c08601819052600787015460e0870181905260088801546101008801819052600990980154909a16610120909601869052929f50909d50949b509099509497509395509193509091909295989b9194979a5092959850565b6000610dce60008051602061247283398151915261069e61179b565b610e08576040805162461bcd60e51b815260206004808301919091526024820152635654313960e01b604482015290519081900360640190fd5b610b29611ce0565b600080806001600160a01b0385161580610e3157506001600160a01b038416155b15610e3b576109cf565b6001600160a01b03808616600090815260cb602090815260408083208885168452825291829020825161014081018452815460ff16151581526001820154928101929092526002810154928201929092526003820154606082015260048201546080820152600582015460a0820152600682015460c0820152600782015460e0820181905260088301546101008301526009909201549092166101208301521580610ee8575060c0810151155b15610ef357506109cf565b600080610f118360c001518460e0015161190f90919063ffffffff16565b9050610f2b8361010001518261184b90919063ffffffff16565b9550610f448360e00151876118a890919063ffffffff16565b935082606001518360a0015110610f5f578260a00151610f65565b82606001515b915082608001518211610f785781610f7e565b82608001515b6080840151909250610f90908361184b565b94505050509250925092565b6000828152609760205260408120610fb49083611d63565b90505b92915050565b6000828152609760205260408120610fb49083611d6f565b600081565b600060026001541415611034576040805162461bcd60e51b815260206004820152601f60248201527f5265656e7472616e637947756172643a207265656e7472616e742063616c6c00604482015290519081900360640190fd5b6002600155611041610ca8565b15611086576040805162461bcd60e51b815260206004820152601060248201526f14185d5cd8589b194e881c185d5cd95960821b604482015290519081900360640190fd5b6001600160a01b038316158015906110a657506001600160a01b03821615155b6110dd576040805162461bcd60e51b81526020600482015260036024820152620aca8760eb1b604482015290519081900360640190fd5b6001600160a01b03808416600090815260cb60209081526040808320868516808552925290912060098101549092169061111561179b565b6001600160a01b031614806111425750806001600160a01b031661113761179b565b6001600160a01b0316145b80611162575061116260008051602061249283398151915261069e61179b565b61119c576040805162461bcd60e51b815260206004808301919091526024820152630565431360e41b604482015290519081900360640190fd5b815460ff1680156111c257506008820154600683015460078401546111c09161190f565b115b6111fc576040805162461bcd60e51b815260206004808301919091526024820152632b2a189960e11b604482015290519081900360640190fd5b61120685856107cf565b50909350508215611240576112256001600160a01b038616858561179f565b600882015461123490846117f1565b60088301554260058301555b8160040154421061125457815460ff191682555b604080516001600160a01b0380881682528616602082015280820185905242606082015290517fe66d51f31c8a9131ea2d5eeef8ef1bb6c991a682392cf84096e45f04933f57349181900360800190a150506001805592915050565b6000818152609760205260408120610fb790611d84565b600060026001541415611321576040805162461bcd60e51b815260206004820152601f60248201527f5265656e7472616e637947756172643a207265656e7472616e742063616c6c00604482015290519081900360640190fd5b60026001556001600160a01b0388161580159061134657506001600160a01b03871615155b801561135557506312cc030085105b801561136d575061136a426312cc030061184b565b86115b80156113855750611382426312cc03006117f1565b86105b80156113915750600084115b801561139d5750600083115b80156113aa57506104b083105b80156113b957506312cc030082105b6113f0576040805162461bcd60e51b815260206004820152600360248201526256543360e81b604482015290519081900360640190fd5b6001831180156113fe575081155b15611439576040805162461bcd60e51b815260206004808301919091526024820152630aca862760e31b604482015290519081900360640190fd5b611443848461190f565b905080886001600160a01b03166370a0823161145d61179b565b6040518263ffffffff1660e01b815260040180826001600160a01b0316815260200191505060206040518083038186803b15801561149a57600080fd5b505afa1580156114ae573d6000803e3d6000fd5b505050506040513d60208110156114c457600080fd5b50511015611502576040805162461bcd60e51b815260206004808301919091526024820152635654313160e01b604482015290519081900360640190fd5b6001600160a01b03808916600090815260cb60209081526040808320938b168352929052205460ff1615611566576040805162461bcd60e51b815260206004808301919091526024820152635654313760e01b604482015290519081900360640190fd5b61158361157161179b565b6001600160a01b038a16903084611d8f565b60006115a761159d61159686600161184b565b859061190f565b61097589896117f1565b90506115b161231d565b6060810188905260808101829052602081018790526001815260e0810186905260c08101859052604081018490526115e761179b565b6001600160a01b0390811661012083019081528b8216600090815260cb602090815260408083208e861684528252918290208551815460ff1916901515178155908501516001820155908401516002820155606084015160038201556080840151600482015560a0840151600582015560c0840151600682015560e0840151600782015561010084015160088201559051600990910180546001600160a01b031916919092161790557fe15747a0fb729eba912c4bff7340d0ba7e74e36b43b68640e5b336c9773e75af8a8a8a8a878b8b8b6116c161179b565b604080516001600160a01b039a8b168152988a1660208a0152888101979097526060880195909552608087019390935260a086019190915260c085015260e0840152909216610100820152426101208201529051908190036101400190a1505060018055979650505050505050565b60008281526097602052604090206002015461174e9061069e61179b565b610abb5760405162461bcd60e51b81526004018080602001828103825260308152602001806123f36030913960400191505060405180910390fd5b60008051602061247283398151915281565b3390565b604080516001600160a01b038416602482015260448082018490528251808303909101815260649091019091526020810180516001600160e01b031663a9059cbb60e01b179052610c91908490611def565b600082820183811015610fb4576040805162461bcd60e51b815260206004820152601b60248201527f536166654d6174683a206164646974696f6e206f766572666c6f770000000000604482015290519081900360640190fd5b6000828211156118a2576040805162461bcd60e51b815260206004820152601e60248201527f536166654d6174683a207375627472616374696f6e206f766572666c6f770000604482015290519081900360640190fd5b50900390565b60008082116118fe576040805162461bcd60e51b815260206004820152601a60248201527f536166654d6174683a206469766973696f6e206279207a65726f000000000000604482015290519081900360640190fd5b81838161190757fe5b049392505050565b60008261191e57506000610fb7565b8282028284828161192b57fe5b0414610fb45760405162461bcd60e51b81526004018080602001828103825260218152602001806124516021913960400191505060405180910390fd5b60008281526097602052604090206119809082611ea0565b15610a605761198d61179b565b6001600160a01b0316816001600160a01b0316837f2f8788117e7eff1d82e926ec794901d17c78024a50270940304540a733656f0d60405160405180910390a45050565b60008281526097602052604090206119e99082611eb5565b15610a60576119f661179b565b6001600160a01b0316816001600160a01b0316837ff6391f5c32d9c69d2a47ea670b442974b53935d1edc7fd64eb21e047a839171b60405160405180910390a45050565b611a42610ca8565b611a8a576040805162461bcd60e51b815260206004820152601460248201527314185d5cd8589b194e881b9bdd081c185d5cd95960621b604482015290519081900360640190fd5b6065805460ff191690557f5db9ee0a495bf2e6ff9c91a7834c1ba4fdd244a5e8aa4e537bd38aeae4b073aa611abd61179b565b604080516001600160a01b039092168252519081900360200190a1565b6000611ae530611eca565b15905090565b600054610100900460ff1680611b045750611b04611ada565b80611b12575060005460ff16155b611b4d5760405162461bcd60e51b815260040180806020018281038252602e815260200180612423602e913960400191505060405180910390fd5b600054610100900460ff16158015611b78576000805460ff1961ff0019909116610100171660011790555b611b80611ed0565b8015611b92576000805461ff00191690555b50565b600054610100900460ff1680611bae5750611bae611ada565b80611bbc575060005460ff16155b611bf75760405162461bcd60e51b815260040180806020018281038252602e815260200180612423602e913960400191505060405180910390fd5b600054610100900460ff16158015611b80576000805460ff1961ff0019909116610100171660011790558015611b92576000805461ff001916905550565b600054610100900460ff1680611c4e5750611c4e611ada565b80611c5c575060005460ff16155b611c975760405162461bcd60e51b815260040180806020018281038252602e815260200180612423602e913960400191505060405180910390fd5b600054610100900460ff16158015611cc2576000805460ff1961ff0019909116610100171660011790555b6065805460ff191690558015611b92576000805461ff001916905550565b611ce8610ca8565b15611d2d576040805162461bcd60e51b815260206004820152601060248201526f14185d5cd8589b194e881c185d5cd95960821b604482015290519081900360640190fd5b6065805460ff191660011790557f62e78cea01bee320cd4e420270b5ea74000d11b0c9f74754ebdbfc544b05a258611abd61179b565b6000610fb48383611f75565b6000610fb4836001600160a01b038416611fd9565b6000610fb782611ff1565b604080516001600160a01b0380861660248301528416604482015260648082018490528251808303909101815260849091019091526020810180516001600160e01b03166323b872dd60e01b179052611de9908590611def565b50505050565b6000611e44826040518060400160405280602081526020017f5361666545524332303a206c6f772d6c6576656c2063616c6c206661696c6564815250856001600160a01b0316611ff59092919063ffffffff16565b805190915015610c9157808060200190516020811015611e6357600080fd5b5051610c915760405162461bcd60e51b815260040180806020018281038252602a8152602001806124b2602a913960400191505060405180910390fd5b6000610fb4836001600160a01b03841661200e565b6000610fb4836001600160a01b038416612058565b3b151590565b600054610100900460ff1680611ee95750611ee9611ada565b80611ef7575060005460ff16155b611f325760405162461bcd60e51b815260040180806020018281038252602e815260200180612423602e913960400191505060405180910390fd5b600054610100900460ff16158015611f5d576000805460ff1961ff0019909116610100171660011790555b600180558015611b92576000805461ff001916905550565b81546000908210611fb75760405162461bcd60e51b815260040180806020018281038252602281526020018061237c6022913960400191505060405180910390fd5b826000018281548110611fc657fe5b9060005260206000200154905092915050565b60009081526001919091016020526040902054151590565b5490565b6060612004848460008561211e565b90505b9392505050565b600061201a8383611fd9565b61205057508154600181810184556000848152602080822090930184905584548482528286019093526040902091909155610fb7565b506000610fb7565b60008181526001830160205260408120548015612114578354600019808301919081019060009087908390811061208b57fe5b90600052602060002001549050808760000184815481106120a857fe5b6000918252602080832090910192909255828152600189810190925260409020908401905586548790806120d857fe5b60019003818190600052602060002001600090559055866001016000878152602001908152602001600020600090556001945050505050610fb7565b6000915050610fb7565b60608247101561215f5760405162461bcd60e51b81526004018080602001828103825260268152602001806123cd6026913960400191505060405180910390fd5b61216885611eca565b6121b9576040805162461bcd60e51b815260206004820152601d60248201527f416464726573733a2063616c6c20746f206e6f6e2d636f6e7472616374000000604482015290519081900360640190fd5b600080866001600160a01b031685876040518082805190602001908083835b602083106121f75780518252601f1990920191602091820191016121d8565b6001836020036101000a03801982511681845116808217855250505050505090500191505060006040518083038185875af1925050503d8060008114612259576040519150601f19603f3d011682016040523d82523d6000602084013e61225e565b606091505b509150915061226e828286612279565b979650505050505050565b60608315612288575081612007565b8251156122985782518084602001fd5b8160405162461bcd60e51b81526004018080602001828103825283818151815260200191508051906020019080838360005b838110156122e25781810151838201526020016122ca565b50505050905090810190601f16801561230f5780820380516001836020036101000a031916815260200191505b509250505060405180910390fd5b604051806101400160405280600015158152602001600081526020016000815260200160008152602001600081526020016000815260200160008152602001600081526020016000815260200160006001600160a01b03168152509056fe456e756d657261626c655365743a20696e646578206f7574206f6620626f756e6473416363657373436f6e74726f6c3a2073656e646572206d75737420626520616e2061646d696e20746f206772616e74416464726573733a20696e73756666696369656e742062616c616e636520666f722063616c6c416363657373436f6e74726f6c3a2073656e646572206d75737420626520616e2061646d696e20746f207265766f6b65496e697469616c697a61626c653a20636f6e747261637420697320616c726561647920696e697469616c697a6564536166654d6174683a206d756c7469706c69636174696f6e206f766572666c6f7765d7a28e3265b37a6474929f336521b332c1681b933f6cb9f3376673440d862a6a7a39ad350f111635f4a31ec3e3e5ca2f76f78880b843ba3f8705d7d3ac3eb95361666545524332303a204552433230206f7065726174696f6e20646964206e6f742073756363656564416363657373436f6e74726f6c3a2063616e206f6e6c792072656e6f756e636520726f6c657320666f722073656c66a26469706673582212203c955b84a34165771143c9f40f9161fc35a0019037f051b23fd80bb7cd44d65d64736f6c63430007060033",
  "immutableReferences": {},
  "source": "// SPDX-License-Identifier: Unlicensed\npragma solidity >=0.7.0;\n\nimport \"@openzeppelin/contracts-upgradeable/proxy/Initializable.sol\";\nimport \"@openzeppelin/contracts-upgradeable/math/SafeMathUpgradeable.sol\";\nimport \"@openzeppelin/contracts-upgradeable/proxy/Initializable.sol\";\nimport \"@openzeppelin/contracts-upgradeable/access/AccessControlUpgradeable.sol\";\nimport \"@openzeppelin/contracts-upgradeable/utils/PausableUpgradeable.sol\";\nimport \"@openzeppelin/contracts-upgradeable/utils/ReentrancyGuardUpgradeable.sol\";\nimport \"@openzeppelin/contracts-upgradeable/token/ERC20/SafeERC20Upgradeable.sol\";\nimport \"@openzeppelin/contracts-upgradeable/token/ERC20/IERC20Upgradeable.sol\";\nimport \"./libraries/FullMath.sol\";\nimport \"./interfaces/IVestingTimelockV3.sol\";\n\n/**\n * @dev A token holder contract that will allow a beneficiary to extract the\n * tokens after a given release time.\n * Supports multiple vesting strategies like Cliffed, Continuous, Stepped etc.\n */\ncontract VestingTimelockV3 is\n  Initializable,\n  IVestingTimelockV3,\n  ReentrancyGuardUpgradeable,\n  PausableUpgradeable,\n  AccessControlUpgradeable\n{\n  // including libraries\n  using SafeERC20Upgradeable for IERC20Upgradeable;\n  using SafeMathUpgradeable for uint256;\n  using FullMath for uint256;\n\n  // Access Roles\n  bytes32 public constant PAUSER_ROLE = keccak256(\"PAUSER_ROLE\");\n  bytes32 public constant GRANT_ADMIN_ROLE = keccak256(\"GRANT_ADMIN_ROLE\");\n\n  // variable pertaining to contract upgrades versioning\n  uint256 public _version;\n\n  mapping(address => uint256) public _grantCount;\n\n  // Vesting grant parameters mapped to grant ID\n\n  /* struct Grant {\n    bool isActive;\n    uint32 cliffPeriod;\n    uint32 instalmentPeriod;\n    uint48 startTime;\n    uint48 endTime;\n    uint48 lastClaimedTime;\n    uint40 instalmentCount;\n    uint256 instalmentAmount;\n    uint256 amountReceived;\n    address grantManager;\n  } */\n\n  struct Grant {\n    bool isActive;\n    uint256 cliffPeriod;\n    uint256 instalmentPeriod;\n    uint256 startTime;\n    uint256 endTime;\n    uint256 lastClaimedTime;\n    uint256 instalmentCount;\n    uint256 instalmentAmount;\n    uint256 amountReceived;\n    address grantManager;\n  }\n\n  // ID from the token and beneficiary\n  mapping(address => mapping(address => Grant)) public _grantData;\n\n  /**\n   * @dev Constructor for initializing the Vesting Timelock contract.\n   * @param pauserAddress_ - address of the pauser admin.\n   * @param grantAdminAddress_ - address of the grant admin.\n   */\n  function initialize(address pauserAddress_, address grantAdminAddress_)\n    public\n    virtual\n    initializer\n  {\n    __ReentrancyGuard_init();\n    __AccessControl_init_unchained();\n    __Pausable_init_unchained();\n    _setupRole(DEFAULT_ADMIN_ROLE, _msgSender());\n    _setupRole(PAUSER_ROLE, pauserAddress_);\n    _setupRole(GRANT_ADMIN_ROLE, grantAdminAddress_);\n  }\n\n  /**\n   * @dev Get the details of the vesting grant for a user\n   * @param token_: address of token\n   * @param beneficiary_: address of beneficiary\n   */\n  function getGrant(address token_, address beneficiary_)\n    public\n    view\n    virtual\n    override\n    returns (\n      uint256 startTime,\n      uint256 endTime,\n      uint256 cliffPeriod,\n      bool isActive,\n      uint256 instalmentAmount,\n      uint256 instalmentCount,\n      uint256 instalmentPeriod,\n      uint256 amountReceived,\n      address grantManager,\n      uint256 lastClaimedTime\n    )\n  {\n    if (token_ != address(0) && beneficiary_ != address(0)) {}\n    Grant memory grant = _grantData[token_][beneficiary_];\n    return (\n      uint256(grant.startTime),\n      uint256(grant.endTime),\n      uint256(grant.cliffPeriod),\n      grant.isActive,\n      uint256(grant.instalmentAmount),\n      uint256(grant.instalmentCount),\n      uint256(grant.instalmentPeriod),\n      uint256(grant.amountReceived),\n      grant.grantManager,\n      uint256(grant.lastClaimedTime)\n    );\n  }\n\n  /**\n   * @dev calculate the pending time in the currently vesting installment\n   * @param token_: token address\n   * @param beneficiary_: beneficiary address\n   */\n  function getPending(address token_, address beneficiary_)\n    public\n    view\n    virtual\n    override\n    returns (\n      uint256 pendingAmount,\n      uint256 pendingTime,\n      uint256 pendingInstalment\n    )\n  {\n    if (token_ == address(0) || beneficiary_ == address(0))\n      return (pendingAmount, pendingTime, pendingInstalment);\n\n    uint256 lowerTimestamp;\n    uint256 higherTimestamp;\n    Grant memory grant = _grantData[token_][beneficiary_];\n\n    // if the last claimed timstamp has crossed the endTime or if cliff time is not\n    // crossed by _lastClaimedTime[id_], return zero\n    if (\n      !grant.isActive ||\n      grant.lastClaimedTime >= grant.endTime ||\n      grant.instalmentAmount <= 0 ||\n      block.timestamp <= grant.startTime.add(grant.cliffPeriod)\n    ) return (pendingAmount, pendingTime, pendingInstalment);\n\n    higherTimestamp = (block.timestamp > grant.endTime)\n      ? grant.endTime\n      : block.timestamp;\n\n    lowerTimestamp = (\n      grant.lastClaimedTime < grant.startTime\n        ? grant.startTime\n        : grant.lastClaimedTime\n    );\n\n    // calculate pending time between last claimed and current time, counter starting from startTime\n    pendingTime = higherTimestamp.sub(lowerTimestamp);\n\n    // calculate the pending amount\n    uint256 cumulativeInstalments = grant.instalmentPeriod > 0\n      ? (\n        (\n          (higherTimestamp.sub(grant.startTime.add(grant.cliffPeriod))).div(\n            grant.instalmentPeriod\n          )\n        ).add(1)\n      )\n      : 1;\n\n    pendingAmount = (cumulativeInstalments.mul(grant.instalmentAmount)).sub(\n      grant.amountReceived\n    );\n\n    // calculate the pendingInstalment from the pendingAmount calculated above\n    pendingInstalment = grant.instalmentAmount > 0\n      ? pendingAmount.div(grant.instalmentAmount)\n      : 0;\n  }\n\n  /**\n   * @dev calculate the remaining amount\n   * @param token_: token address\n   * @param beneficiary_: beneficiary address\n   */\n  function getRemaining(address token_, address beneficiary_)\n    public\n    view\n    virtual\n    override\n    returns (\n      uint256 remainingAmount,\n      uint256 remainingTime,\n      uint256 remainingInstalment\n    )\n  {\n    if (token_ == address(0) || beneficiary_ == address(0))\n      return (remainingAmount, remainingTime, remainingInstalment);\n\n    Grant memory grant = _grantData[token_][beneficiary_];\n    // if the instalment amount is 0 then return\n    if (grant.instalmentAmount <= 0 || grant.instalmentCount <= 0)\n      return (remainingAmount, remainingTime, remainingInstalment);\n\n    uint256 lastClaimedTime;\n    uint256 totalAmount = (grant.instalmentAmount).mul(grant.instalmentCount);\n\n    remainingAmount = totalAmount.sub(grant.amountReceived);\n    remainingInstalment = remainingAmount.div(grant.instalmentAmount);\n\n    // get the lastClaimedTime as a value inside range grant.startTime & grant.endTime\n    lastClaimedTime = grant.lastClaimedTime < grant.startTime\n      ? grant.startTime\n      : grant.lastClaimedTime;\n    lastClaimedTime = lastClaimedTime > grant.endTime\n      ? grant.endTime\n      : lastClaimedTime;\n\n    // calculate remainingTime by subtracting lastClaimedTime from the end tim\n    remainingTime = (grant.endTime).sub(lastClaimedTime);\n  }\n\n  /**\n   * @dev Transfers tokens held by beneficiary to timelock in installments\n   * @param token_: token address\n   * @param beneficiary_: beneficiary address\n   * @param startTime_: start time\n   * @param cliffPeriod_: initial waiting period\n   * @param instalmentAmount_: installment amount\n   * @param instalmentCount_: instalment count\n   * @param instalmentPeriod_: instalment period\n   *\n   * Emits a {AddGrantAsInstalment} event.\n   */\n  function addGrant(\n    address token_,\n    address beneficiary_,\n    uint256 startTime_,\n    uint256 cliffPeriod_,\n    uint256 instalmentAmount_,\n    uint256 instalmentCount_,\n    uint256 instalmentPeriod_\n  ) public virtual override nonReentrant returns (uint256 totalVestingAmount) {\n    // Require statements to for transaction sanity check\n    require(\n      token_ != address(0) &&\n        beneficiary_ != (address(0)) &&\n        // max limit of cliff period is 10 years (in seconds)\n        cliffPeriod_ < (3650 days) &&\n        // min range for start time starts from 10 years in the past\n        startTime_ > ((block.timestamp).sub(3650 days)) &&\n        // max range for start time starts from 10 years in the future\n        startTime_ < ((block.timestamp).add(3650 days)) &&\n        instalmentAmount_ > 0 &&\n        instalmentCount_ > 0 &&\n        instalmentCount_ < 1200 &&\n        // max limit of instalment period is 10 years (in seconds)\n        instalmentPeriod_ < (3650 days),\n      \"VT3\"\n    );\n\n    // require instalmentPeriod to be set when the instalmentCount is more than 1\n    require(!(instalmentCount_ > 1 && instalmentPeriod_ == 0), \"VT18\");\n\n    // check the calling address has suffecient tokens and then transfer tokens to this contract\n    totalVestingAmount = instalmentAmount_.mul(instalmentCount_);\n    require(\n      IERC20Upgradeable(token_).balanceOf(_msgSender()) >= totalVestingAmount,\n      \"VT11\"\n    );\n\n    // check if the grant is not already active\n    // Grant memory grant = _grantData[token_][beneficiary_];\n    // check if an existing active grant is not already in effect\n    require(!_grantData[token_][beneficiary_].isActive, \"VT17\");\n\n    IERC20Upgradeable(token_).safeTransferFrom(\n      _msgSender(),\n      address(this),\n      totalVestingAmount\n    );\n\n    uint256 endTime = startTime_.add(cliffPeriod_).add(\n      instalmentPeriod_.mul(instalmentCount_.sub(1))\n    );\n\n    // create a new grant and set it to the mapping\n    Grant memory newGrant;\n    newGrant.startTime = startTime_;\n    newGrant.endTime = endTime;\n    newGrant.cliffPeriod = cliffPeriod_;\n    newGrant.isActive = true;\n    newGrant.instalmentAmount = instalmentAmount_;\n    newGrant.instalmentCount = instalmentCount_;\n    newGrant.instalmentPeriod = instalmentPeriod_;\n    newGrant.grantManager = _msgSender();\n    _grantData[token_][beneficiary_] = newGrant;\n\n    emit AddGrant(\n      token_,\n      beneficiary_,\n      startTime_,\n      cliffPeriod_,\n      totalVestingAmount,\n      instalmentAmount_,\n      instalmentCount_,\n      instalmentPeriod_,\n      _msgSender(),\n      block.timestamp\n    );\n  }\n\n  /**\n   * @dev Revoke grant tokens held by timelock to beneficiary.\n   * @param token_: token address\n   * @param beneficiary_: beneficiary address\n   *\n   * Emits a {RevokeGrant} event.\n   */\n  function revokeGrant(address token_, address beneficiary_)\n    public\n    virtual\n    override\n    nonReentrant\n    returns (uint256 remainingAmount)\n  {\n    // require beneficiary not be address(0)\n    require(token_ != address(0) && beneficiary_ != (address(0)), \"VT5\");\n\n    Grant storage grant = _grantData[token_][beneficiary_];\n    address grantManager = grant.grantManager;\n\n    // Grant can be revoked by the beneficiary, grant manager or GRANT ADMIN defined in the contract\n    require(\n      _msgSender() == beneficiary_ ||\n        _msgSender() == grantManager ||\n        hasRole(GRANT_ADMIN_ROLE, _msgSender()),\n      \"VT6\"\n    );\n\n    // find the remaining amount after revoke and transfer it back to the grant manager\n    // require the end date for grant to not have passed\n    require(grant.isActive && grant.lastClaimedTime < grant.endTime, \"VT4\");\n\n    (remainingAmount, , ) = getRemaining(token_, beneficiary_);\n    // deactivate the grant (keep other values intact)\n    grant.isActive = false;\n\n    if (remainingAmount > 0) {\n      // delete _grantID[token_][beneficiary_];\n      IERC20Upgradeable(token_).safeTransfer(grantManager, remainingAmount);\n    }\n\n    // emit an event for record\n    emit RevokeGrant(\n      token_,\n      _msgSender(),\n      beneficiary_,\n      grantManager,\n      remainingAmount,\n      block.timestamp\n    );\n  }\n\n  /**\n   * @dev Transfers tokens held by timelock to beneficiary.\n   * @param token_: token address\n   * @param beneficiary_: beneficiary address\n   *\n   * Emits a {ClaimGrant} event.\n   */\n  function claimGrant(address token_, address beneficiary_)\n    external\n    virtual\n    override\n    nonReentrant\n    whenNotPaused\n    returns (uint256 pendingAmount)\n  {\n    // require beneficiary not be address(0)\n    require(token_ != address(0) && beneficiary_ != (address(0)), \"VT8\");\n\n    // get the grant manager from the grant data\n    Grant storage grant = _grantData[token_][beneficiary_];\n    address grantManager = grant.grantManager;\n\n    // Grant can be revoked by the beneficiary, grant manager or GRANT ADMIN defined in the contract\n    require(\n      _msgSender() == beneficiary_ ||\n        _msgSender() == grantManager ||\n        hasRole(GRANT_ADMIN_ROLE, _msgSender()),\n      \"VT10\"\n    );\n\n    // require the grant to be active and vesting amount still pending to be credited to beneficiary for claiming\n    require(\n      grant.isActive &&\n        (grant.instalmentAmount.mul(grant.instalmentCount) >\n          grant.amountReceived),\n      \"VT12\"\n    );\n\n    // get the pending amount to be credited to beneficiary\n    (pendingAmount, , ) = getPending(token_, beneficiary_);\n\n    if (pendingAmount > 0) {\n      IERC20Upgradeable(token_).safeTransfer(beneficiary_, pendingAmount);\n      grant.amountReceived = grant.amountReceived.add(pendingAmount);\n\n      // set last claimed for the grant to current time\n      grant.lastClaimedTime = block.timestamp;\n    }\n\n    // if all the vesting amount has been claimed, then deactivate grant\n    if (block.timestamp >= grant.endTime) {\n      grant.isActive = false;\n    }\n\n    emit ClaimGrant(token_, beneficiary_, pendingAmount, block.timestamp);\n  }\n\n  /**\n   * @dev Triggers stopped state.\n   *\n   * Requirements:\n   *\n   * - The contract must not be paused.\n   */\n  function pause() public virtual override returns (bool success) {\n    require(hasRole(PAUSER_ROLE, _msgSender()), \"VT19\");\n    _pause();\n    return true;\n  }\n\n  /**\n   * @dev Returns to normal state.\n   *\n   * Requirements:\n   *\n   * - The contract must be paused.\n   */\n  function unpause() public virtual override returns (bool success) {\n    require(hasRole(PAUSER_ROLE, _msgSender()), \"VT20\");\n    _unpause();\n    return true;\n  }\n}\n",
  "sourcePath": "C:\\Users\\Kamlesh\\Persistence\\pStake\\codebase\\erc20\\contracts\\VestingTimelockV3.sol",
  "compiler": {
    "name": "solc",
    "version": "0.7.6+commit.7338295f.Emscripten.clang"
  },
  "schemaVersion": "3.4.3",
  "updatedAt": "2021-11-17T03:02:18.785Z",
  "devdoc": {
    "details": "A token holder contract that will allow a beneficiary to extract the tokens after a given release time. Supports multiple vesting strategies like Cliffed, Continuous, Stepped etc.",
    "kind": "dev",
    "methods": {
      "addGrant(address,address,uint256,uint256,uint256,uint256,uint256)": {
        "details": "Transfers tokens held by beneficiary to timelock in installments",
        "params": {
          "beneficiary_": ": beneficiary address",
          "cliffPeriod_": ": initial waiting period",
          "instalmentAmount_": ": installment amount",
          "instalmentCount_": ": instalment count",
          "instalmentPeriod_": ": instalment period Emits a {AddGrantAsInstalment} event.",
          "startTime_": ": start time",
          "token_": ": token address"
        }
      },
      "claimGrant(address,address)": {
        "details": "Transfers tokens held by timelock to beneficiary.",
        "params": {
          "beneficiary_": ": beneficiary address Emits a {ClaimGrant} event.",
          "token_": ": token address"
        }
      },
      "getGrant(address,address)": {
        "details": "Get the details of the vesting grant for a user",
        "params": {
          "beneficiary_": ": address of beneficiary",
          "token_": ": address of token"
        }
      },
      "getPending(address,address)": {
        "details": "calculate the pending time in the currently vesting installment",
        "params": {
          "beneficiary_": ": beneficiary address",
          "token_": ": token address"
        }
      },
      "getRemaining(address,address)": {
        "details": "calculate the remaining amount",
        "params": {
          "beneficiary_": ": beneficiary address",
          "token_": ": token address"
        }
      },
      "getRoleAdmin(bytes32)": {
        "details": "Returns the admin role that controls `role`. See {grantRole} and {revokeRole}. To change a role's admin, use {_setRoleAdmin}."
      },
      "getRoleMember(bytes32,uint256)": {
        "details": "Returns one of the accounts that have `role`. `index` must be a value between 0 and {getRoleMemberCount}, non-inclusive. Role bearers are not sorted in any particular way, and their ordering may change at any point. WARNING: When using {getRoleMember} and {getRoleMemberCount}, make sure you perform all queries on the same block. See the following https://forum.openzeppelin.com/t/iterating-over-elements-on-enumerableset-in-openzeppelin-contracts/2296[forum post] for more information."
      },
      "getRoleMemberCount(bytes32)": {
        "details": "Returns the number of accounts that have `role`. Can be used together with {getRoleMember} to enumerate all bearers of a role."
      },
      "grantRole(bytes32,address)": {
        "details": "Grants `role` to `account`. If `account` had not been already granted `role`, emits a {RoleGranted} event. Requirements: - the caller must have ``role``'s admin role."
      },
      "hasRole(bytes32,address)": {
        "details": "Returns `true` if `account` has been granted `role`."
      },
      "initialize(address,address)": {
        "details": "Constructor for initializing the Vesting Timelock contract.",
        "params": {
          "grantAdminAddress_": "- address of the grant admin.",
          "pauserAddress_": "- address of the pauser admin."
        }
      },
      "pause()": {
        "details": "Triggers stopped state. Requirements: - The contract must not be paused."
      },
      "paused()": {
        "details": "Returns true if the contract is paused, and false otherwise."
      },
      "renounceRole(bytes32,address)": {
        "details": "Revokes `role` from the calling account. Roles are often managed via {grantRole} and {revokeRole}: this function's purpose is to provide a mechanism for accounts to lose their privileges if they are compromised (such as when a trusted device is misplaced). If the calling account had been granted `role`, emits a {RoleRevoked} event. Requirements: - the caller must be `account`."
      },
      "revokeGrant(address,address)": {
        "details": "Revoke grant tokens held by timelock to beneficiary.",
        "params": {
          "beneficiary_": ": beneficiary address Emits a {RevokeGrant} event.",
          "token_": ": token address"
        }
      },
      "revokeRole(bytes32,address)": {
        "details": "Revokes `role` from `account`. If `account` had been granted `role`, emits a {RoleRevoked} event. Requirements: - the caller must have ``role``'s admin role."
      },
      "unpause()": {
        "details": "Returns to normal state. Requirements: - The contract must be paused."
      }
    },
    "version": 1
  },
  "userdoc": {
    "kind": "user",
    "methods": {},
    "version": 1
  }
}