{
  "contractName": "VestingTimelockV3",
  "abi": [
    {
      "anonymous": false,
      "inputs": [
        {
          "indexed": false,
          "internalType": "address",
          "name": "token",
          "type": "address"
        },
        {
          "indexed": false,
          "internalType": "address",
          "name": "accountAddress",
          "type": "address"
        },
        {
          "indexed": false,
          "internalType": "uint256",
          "name": "startTime",
          "type": "uint256"
        },
        {
          "indexed": false,
          "internalType": "uint256",
          "name": "cliffPeriod",
          "type": "uint256"
        },
        {
          "indexed": false,
          "internalType": "uint256",
          "name": "tokens",
          "type": "uint256"
        },
        {
          "indexed": false,
          "internalType": "uint256",
          "name": "instalmentAmount",
          "type": "uint256"
        },
        {
          "indexed": false,
          "internalType": "uint256",
          "name": "instalmentCount",
          "type": "uint256"
        },
        {
          "indexed": false,
          "internalType": "uint256",
          "name": "instalmentPeriod",
          "type": "uint256"
        },
        {
          "indexed": false,
          "internalType": "address",
          "name": "grantManager",
          "type": "address"
        },
        {
          "indexed": false,
          "internalType": "uint256",
          "name": "timestamp",
          "type": "uint256"
        }
      ],
      "name": "AddGrant",
      "type": "event"
    },
    {
      "anonymous": false,
      "inputs": [
        {
          "indexed": false,
          "internalType": "address",
          "name": "token",
          "type": "address"
        },
        {
          "indexed": false,
          "internalType": "address",
          "name": "accountAddress",
          "type": "address"
        },
        {
          "indexed": false,
          "internalType": "uint256",
          "name": "tokens",
          "type": "uint256"
        },
        {
          "indexed": false,
          "internalType": "uint256",
          "name": "timestamp",
          "type": "uint256"
        }
      ],
      "name": "ClaimGrant",
      "type": "event"
    },
    {
      "anonymous": false,
      "inputs": [
        {
          "indexed": false,
          "internalType": "address",
          "name": "account",
          "type": "address"
        }
      ],
      "name": "Paused",
      "type": "event"
    },
    {
      "anonymous": false,
      "inputs": [
        {
          "indexed": false,
          "internalType": "address",
          "name": "token",
          "type": "address"
        },
        {
          "indexed": false,
          "internalType": "address",
          "name": "sender",
          "type": "address"
        },
        {
          "indexed": false,
          "internalType": "address",
          "name": "accountAddress",
          "type": "address"
        },
        {
          "indexed": false,
          "internalType": "address",
          "name": "grantManager",
          "type": "address"
        },
        {
          "indexed": false,
          "internalType": "uint256",
          "name": "tokens",
          "type": "uint256"
        },
        {
          "indexed": false,
          "internalType": "uint256",
          "name": "timestamp",
          "type": "uint256"
        }
      ],
      "name": "RevokeGrant",
      "type": "event"
    },
    {
      "anonymous": false,
      "inputs": [
        {
          "indexed": true,
          "internalType": "bytes32",
          "name": "role",
          "type": "bytes32"
        },
        {
          "indexed": true,
          "internalType": "bytes32",
          "name": "previousAdminRole",
          "type": "bytes32"
        },
        {
          "indexed": true,
          "internalType": "bytes32",
          "name": "newAdminRole",
          "type": "bytes32"
        }
      ],
      "name": "RoleAdminChanged",
      "type": "event"
    },
    {
      "anonymous": false,
      "inputs": [
        {
          "indexed": true,
          "internalType": "bytes32",
          "name": "role",
          "type": "bytes32"
        },
        {
          "indexed": true,
          "internalType": "address",
          "name": "account",
          "type": "address"
        },
        {
          "indexed": true,
          "internalType": "address",
          "name": "sender",
          "type": "address"
        }
      ],
      "name": "RoleGranted",
      "type": "event"
    },
    {
      "anonymous": false,
      "inputs": [
        {
          "indexed": true,
          "internalType": "bytes32",
          "name": "role",
          "type": "bytes32"
        },
        {
          "indexed": true,
          "internalType": "address",
          "name": "account",
          "type": "address"
        },
        {
          "indexed": true,
          "internalType": "address",
          "name": "sender",
          "type": "address"
        }
      ],
      "name": "RoleRevoked",
      "type": "event"
    },
    {
      "anonymous": false,
      "inputs": [
        {
          "indexed": false,
          "internalType": "address",
          "name": "account",
          "type": "address"
        }
      ],
      "name": "Unpaused",
      "type": "event"
    },
    {
      "inputs": [],
      "name": "DEFAULT_ADMIN_ROLE",
      "outputs": [
        {
          "internalType": "bytes32",
          "name": "",
          "type": "bytes32"
        }
      ],
      "stateMutability": "view",
      "type": "function",
      "constant": true
    },
    {
      "inputs": [],
      "name": "GRANT_ADMIN_ROLE",
      "outputs": [
        {
          "internalType": "bytes32",
          "name": "",
          "type": "bytes32"
        }
      ],
      "stateMutability": "view",
      "type": "function",
      "constant": true
    },
    {
      "inputs": [],
      "name": "PAUSER_ROLE",
      "outputs": [
        {
          "internalType": "bytes32",
          "name": "",
          "type": "bytes32"
        }
      ],
      "stateMutability": "view",
      "type": "function",
      "constant": true
    },
    {
      "inputs": [
        {
          "internalType": "address",
          "name": "",
          "type": "address"
        },
        {
          "internalType": "address",
          "name": "",
          "type": "address"
        }
      ],
      "name": "_grantData",
      "outputs": [
        {
          "internalType": "bool",
          "name": "isActive",
          "type": "bool"
        },
        {
          "internalType": "uint32",
          "name": "cliffPeriod",
          "type": "uint32"
        },
        {
          "internalType": "uint32",
          "name": "instalmentPeriod",
          "type": "uint32"
        },
        {
          "internalType": "uint48",
          "name": "startTime",
          "type": "uint48"
        },
        {
          "internalType": "uint48",
          "name": "endTime",
          "type": "uint48"
        },
        {
          "internalType": "uint48",
          "name": "lastClaimedTime",
          "type": "uint48"
        },
        {
          "internalType": "uint40",
          "name": "instalmentCount",
          "type": "uint40"
        },
        {
          "internalType": "uint256",
          "name": "instalmentAmount",
          "type": "uint256"
        },
        {
          "internalType": "uint256",
          "name": "amountReceived",
          "type": "uint256"
        },
        {
          "internalType": "address",
          "name": "grantManager",
          "type": "address"
        }
      ],
      "stateMutability": "view",
      "type": "function",
      "constant": true
    },
    {
      "inputs": [],
      "name": "_version",
      "outputs": [
        {
          "internalType": "uint256",
          "name": "",
          "type": "uint256"
        }
      ],
      "stateMutability": "view",
      "type": "function",
      "constant": true
    },
    {
      "inputs": [
        {
          "internalType": "bytes32",
          "name": "role",
          "type": "bytes32"
        }
      ],
      "name": "getRoleAdmin",
      "outputs": [
        {
          "internalType": "bytes32",
          "name": "",
          "type": "bytes32"
        }
      ],
      "stateMutability": "view",
      "type": "function",
      "constant": true
    },
    {
      "inputs": [
        {
          "internalType": "bytes32",
          "name": "role",
          "type": "bytes32"
        },
        {
          "internalType": "uint256",
          "name": "index",
          "type": "uint256"
        }
      ],
      "name": "getRoleMember",
      "outputs": [
        {
          "internalType": "address",
          "name": "",
          "type": "address"
        }
      ],
      "stateMutability": "view",
      "type": "function",
      "constant": true
    },
    {
      "inputs": [
        {
          "internalType": "bytes32",
          "name": "role",
          "type": "bytes32"
        }
      ],
      "name": "getRoleMemberCount",
      "outputs": [
        {
          "internalType": "uint256",
          "name": "",
          "type": "uint256"
        }
      ],
      "stateMutability": "view",
      "type": "function",
      "constant": true
    },
    {
      "inputs": [
        {
          "internalType": "bytes32",
          "name": "role",
          "type": "bytes32"
        },
        {
          "internalType": "address",
          "name": "account",
          "type": "address"
        }
      ],
      "name": "grantRole",
      "outputs": [],
      "stateMutability": "nonpayable",
      "type": "function"
    },
    {
      "inputs": [
        {
          "internalType": "bytes32",
          "name": "role",
          "type": "bytes32"
        },
        {
          "internalType": "address",
          "name": "account",
          "type": "address"
        }
      ],
      "name": "hasRole",
      "outputs": [
        {
          "internalType": "bool",
          "name": "",
          "type": "bool"
        }
      ],
      "stateMutability": "view",
      "type": "function",
      "constant": true
    },
    {
      "inputs": [],
      "name": "paused",
      "outputs": [
        {
          "internalType": "bool",
          "name": "",
          "type": "bool"
        }
      ],
      "stateMutability": "view",
      "type": "function",
      "constant": true
    },
    {
      "inputs": [
        {
          "internalType": "bytes32",
          "name": "role",
          "type": "bytes32"
        },
        {
          "internalType": "address",
          "name": "account",
          "type": "address"
        }
      ],
      "name": "renounceRole",
      "outputs": [],
      "stateMutability": "nonpayable",
      "type": "function"
    },
    {
      "inputs": [
        {
          "internalType": "bytes32",
          "name": "role",
          "type": "bytes32"
        },
        {
          "internalType": "address",
          "name": "account",
          "type": "address"
        }
      ],
      "name": "revokeRole",
      "outputs": [],
      "stateMutability": "nonpayable",
      "type": "function"
    },
    {
      "inputs": [
        {
          "internalType": "address",
          "name": "pauserAddress_",
          "type": "address"
        },
        {
          "internalType": "address",
          "name": "grantAdminAddress_",
          "type": "address"
        }
      ],
      "name": "initialize",
      "outputs": [],
      "stateMutability": "nonpayable",
      "type": "function"
    },
    {
      "inputs": [
        {
          "internalType": "address",
          "name": "token_",
          "type": "address"
        },
        {
          "internalType": "address",
          "name": "beneficiary_",
          "type": "address"
        }
      ],
      "name": "getPending",
      "outputs": [
        {
          "internalType": "uint256",
          "name": "pendingAmount",
          "type": "uint256"
        },
        {
          "internalType": "uint256",
          "name": "pendingTime",
          "type": "uint256"
        },
        {
          "internalType": "uint256",
          "name": "pendingInstalment",
          "type": "uint256"
        }
      ],
      "stateMutability": "view",
      "type": "function",
      "constant": true
    },
    {
      "inputs": [
        {
          "internalType": "address",
          "name": "token_",
          "type": "address"
        },
        {
          "internalType": "address",
          "name": "beneficiary_",
          "type": "address"
        }
      ],
      "name": "getRemaining",
      "outputs": [
        {
          "internalType": "uint256",
          "name": "remainingAmount",
          "type": "uint256"
        },
        {
          "internalType": "uint256",
          "name": "remainingTime",
          "type": "uint256"
        },
        {
          "internalType": "uint256",
          "name": "remainingInstalment",
          "type": "uint256"
        }
      ],
      "stateMutability": "view",
      "type": "function",
      "constant": true
    },
    {
      "inputs": [
        {
          "internalType": "address",
          "name": "token_",
          "type": "address"
        },
        {
          "internalType": "address",
          "name": "beneficiary_",
          "type": "address"
        },
        {
          "internalType": "uint256",
          "name": "startTime_",
          "type": "uint256"
        },
        {
          "internalType": "uint256",
          "name": "cliffPeriod_",
          "type": "uint256"
        },
        {
          "internalType": "uint256",
          "name": "instalmentAmount_",
          "type": "uint256"
        },
        {
          "internalType": "uint256",
          "name": "instalmentCount_",
          "type": "uint256"
        },
        {
          "internalType": "uint256",
          "name": "instalmentPeriod_",
          "type": "uint256"
        }
      ],
      "name": "addGrant",
      "outputs": [
        {
          "internalType": "uint256",
          "name": "totalVestingAmount",
          "type": "uint256"
        }
      ],
      "stateMutability": "nonpayable",
      "type": "function"
    },
    {
      "inputs": [
        {
          "internalType": "address",
          "name": "token_",
          "type": "address"
        },
        {
          "internalType": "address",
          "name": "beneficiary_",
          "type": "address"
        }
      ],
      "name": "revokeGrant",
      "outputs": [
        {
          "internalType": "uint256",
          "name": "remainingAmount",
          "type": "uint256"
        }
      ],
      "stateMutability": "nonpayable",
      "type": "function"
    },
    {
      "inputs": [
        {
          "internalType": "address",
          "name": "token_",
          "type": "address"
        },
        {
          "internalType": "address",
          "name": "beneficiary_",
          "type": "address"
        }
      ],
      "name": "claimGrant",
      "outputs": [
        {
          "internalType": "uint256",
          "name": "pendingAmount",
          "type": "uint256"
        }
      ],
      "stateMutability": "nonpayable",
      "type": "function"
    },
    {
      "inputs": [],
      "name": "pause",
      "outputs": [
        {
          "internalType": "bool",
          "name": "success",
          "type": "bool"
        }
      ],
      "stateMutability": "nonpayable",
      "type": "function"
    },
    {
      "inputs": [],
      "name": "unpause",
      "outputs": [
        {
          "internalType": "bool",
          "name": "success",
          "type": "bool"
        }
      ],
      "stateMutability": "nonpayable",
      "type": "function"
    }
  ],
  "bytecode": "0x608060405234801561001057600080fd5b50612563806100206000396000f3fe608060405234801561001057600080fd5b50600436106101375760003560e01c80635c975abb116100b8578063a217fddf1161007c578063a217fddf146103e7578063b4158844146103ef578063ca15c8731461041d578063d41c91251461043a578063d547741f14610488578063e63ab1e9146104b457610137565b80635c975abb1461033e5780638456cb591461034657806388984a0d1461034e5780639010d07c1461037c57806391d14854146103bb57610137565b806336568abe116100ff57806336568abe1461021b5780633e118dbe146102475780633f4ba83a1461024f578063454249f61461026b578063485cc9551461031057610137565b80630a68e60b1461013c57806314820f2f1461017c578063248a9ca3146101c85780632c0acd2c146101e55780632f2ff15d146101ed575b600080fd5b61016a6004803603604081101561015257600080fd5b506001600160a01b03813581169160200135166104bc565b60408051918252519081900360200190f35b6101aa6004803603604081101561019257600080fd5b506001600160a01b0381358116916020013516610739565b60408051938452602084019290925282820152519081900360600190f35b61016a600480360360208110156101de57600080fd5b50356109ad565b61016a6109c2565b6102196004803603604081101561020357600080fd5b50803590602001356001600160a01b03166109d4565b005b6102196004803603604081101561023157600080fd5b50803590602001356001600160a01b0316610a3b565b61016a610a9c565b610257610aa2565b604080519115158252519081900360200190f35b6102996004803603604081101561028157600080fd5b506001600160a01b0381358116916020013516610b06565b604080519a15158b5263ffffffff998a1660208c0152979098168988015265ffffffffffff95861660608a015293851660808901529190931660a087015264ffffffffff90921660c086015260e08501919091526101008401526001600160a01b0390911661012083015251908190036101400190f35b6102196004803603604081101561032657600080fd5b506001600160a01b0381358116916020013516610b92565b610257610c90565b610257610c99565b6101aa6004803603604081101561036457600080fd5b506001600160a01b0381358116916020013516610cf7565b61039f6004803603604081101561039257600080fd5b5080359060200135610ef4565b604080516001600160a01b039092168252519081900360200190f35b610257600480360360408110156103d157600080fd5b50803590602001356001600160a01b0316610f15565b61016a610f2d565b61016a6004803603604081101561040557600080fd5b506001600160a01b0381358116916020013516610f32565b61016a6004803603602081101561043357600080fd5b5035611239565b61016a600480360360e081101561045057600080fd5b506001600160a01b03813581169160208101359091169060408101359060608101359060808101359060a08101359060c00135611250565b6102196004803603604081101561049e57600080fd5b50803590602001356001600160a01b031661175d565b61016a6117b6565b600060026001541415610516576040805162461bcd60e51b815260206004820152601f60248201527f5265656e7472616e637947756172643a207265656e7472616e742063616c6c00604482015290519081900360640190fd5b60026001556001600160a01b0383161580159061053b57506001600160a01b03821615155b610572576040805162461bcd60e51b815260206004820152600360248201526256543560e81b604482015290519081900360640190fd5b6001600160a01b03808416600090815260ca6020908152604080832086851680855292529091206003810154909216906105aa6117c8565b6001600160a01b031614806105d75750806001600160a01b03166105cc6117c8565b6001600160a01b0316145b806105fc57506105fc6000805160206124b58339815191526105f76117c8565b610f15565b610633576040805162461bcd60e51b81526020600482015260036024820152622b2a1b60e91b604482015290519081900360640190fd5b815460ff16801561065c5750815465ffffffffffff600160781b82048116600160a81b90920416105b610693576040805162461bcd60e51b815260206004820152600360248201526215950d60ea1b604482015290519081900360640190fd5b61069d8585610cf7565b5050825460ff19168355925082156106c3576106c36001600160a01b03861682856117cc565b7faec9010fac0b1ff6564311742cf8039a0865acea568a5616cdbcf8e407cb5cd2856106ed6117c8565b604080516001600160a01b0393841681529183166020830152828816828201529184166060820152608081018690524260a082015290519081900360c00190a150506001805592915050565b600080806001600160a01b038516158061075a57506001600160a01b038416155b15610764576109a6565b6001600160a01b03858116600090815260ca6020908152604080832088851684528252808320815161014081018352815460ff81161515825261010080820463ffffffff908116968401879052600160281b8304811695840195909552600160481b820465ffffffffffff90811660608501819052600160781b840482166080860152600160a81b840490911660a0850152600160d81b90920464ffffffffff1660c0840152600184015460e0840152600284015490830152600390920154909516610120860152929384939092849261084092919061181e16565b825190915015806108695750816080015165ffffffffffff168260a0015165ffffffffffff1610155b80610876575060e0820151155b806108815750804211155b1561088f57505050506109a6565b816080015165ffffffffffff1642116108a857426108b6565b816080015165ffffffffffff165b9250816060015165ffffffffffff168260a0015165ffffffffffff16106108e9578160a0015165ffffffffffff166108f7565b816060015165ffffffffffff165b93506109038385611878565b9550600080836040015163ffffffff161161091f576001610951565b610951600161094b856040015163ffffffff16610945868961187890919063ffffffff16565b906118d5565b9061181e565b90506109798361010001516109738560e001518461193c90919063ffffffff16565b90611878565b975060008360e001511161098e57600061099e565b60e083015161099e9089906118d5565b955050505050505b9250925092565b60009081526097602052604090206002015490565b6000805160206124b583398151915281565b6000828152609760205260409020600201546109f2906105f76117c8565b610a2d5760405162461bcd60e51b815260040180806020018281038252602f8152602001806123c1602f913960400191505060405180910390fd5b610a378282611995565b5050565b610a436117c8565b6001600160a01b0316816001600160a01b031614610a925760405162461bcd60e51b815260040180806020018281038252602f8152602001806124ff602f913960400191505060405180910390fd5b610a3782826119fe565b60c95481565b6000610abe6000805160206124958339815191526105f76117c8565b610af8576040805162461bcd60e51b815260206004808301919091526024820152630565432360e41b604482015290519081900360640190fd5b610b00611a67565b50600190565b60ca602090815260009283526040808420909152908252902080546001820154600283015460039093015460ff83169363ffffffff6101008504811694600160281b81049091169365ffffffffffff600160481b8304811694600160781b8404821694600160a81b85049092169364ffffffffff600160d81b909104169291906001600160a01b03168a565b600054610100900460ff1680610bab5750610bab611b07565b80610bb9575060005460ff16155b610bf45760405162461bcd60e51b815260040180806020018281038252602e815260200180612446602e913960400191505060405180910390fd5b600054610100900460ff16158015610c1f576000805460ff1961ff0019909116610100171660011790555b610c27611b18565b610c2f611bc2565b610c37611c62565b610c496000610c446117c8565b610a2d565b610c6160008051602061249583398151915284610a2d565b610c796000805160206124b583398151915283610a2d565b8015610c8b576000805461ff00191690555b505050565b60655460ff1690565b6000610cb56000805160206124958339815191526105f76117c8565b610cef576040805162461bcd60e51b815260206004808301919091526024820152635654313960e01b604482015290519081900360640190fd5b610b00611d0d565b600080806001600160a01b0385161580610d1857506001600160a01b038416155b15610d22576109a6565b6001600160a01b03808616600090815260ca602090815260408083208885168452825291829020825161014081018452815460ff81161515825263ffffffff610100808304821695840195909552600160281b8204169482019490945265ffffffffffff600160481b850481166060830152600160781b850481166080830152600160a81b85041660a082015264ffffffffff600160d81b9094049390931660c0840152600181015460e0840181905260028201549284019290925260030154909216610120820152901580610e01575060c081015164ffffffffff16155b15610e0c57506109a6565b600080610e318360c0015164ffffffffff168460e0015161193c90919063ffffffff16565b9050610e4b8361010001518261187890919063ffffffff16565b9550610e648360e00151876118d590919063ffffffff16565b9350826060015165ffffffffffff168360a0015165ffffffffffff1610610e97578260a0015165ffffffffffff16610ea5565b826060015165ffffffffffff165b9150826080015165ffffffffffff168211610ec05781610ece565b826080015165ffffffffffff165b6080840151909250610ee89065ffffffffffff1683611878565b94505050509250925092565b6000828152609760205260408120610f0c9083611d90565b90505b92915050565b6000828152609760205260408120610f0c9083611d9c565b600081565b600060026001541415610f8c576040805162461bcd60e51b815260206004820152601f60248201527f5265656e7472616e637947756172643a207265656e7472616e742063616c6c00604482015290519081900360640190fd5b6002600155610f99610c90565b15610fde576040805162461bcd60e51b815260206004820152601060248201526f14185d5cd8589b194e881c185d5cd95960821b604482015290519081900360640190fd5b6001600160a01b03831615801590610ffe57506001600160a01b03821615155b611035576040805162461bcd60e51b81526020600482015260036024820152620aca8760eb1b604482015290519081900360640190fd5b6001600160a01b03808416600090815260ca60209081526040808320868516808552925290912060038101549092169061106d6117c8565b6001600160a01b0316148061109a5750806001600160a01b031661108f6117c8565b6001600160a01b0316145b806110ba57506110ba6000805160206124b58339815191526105f76117c8565b6110f4576040805162461bcd60e51b815260206004808301919091526024820152630565431360e41b604482015290519081900360640190fd5b815460ff168015611125575060028201548254600184015461112391600160d81b900464ffffffffff1661193c565b115b61115f576040805162461bcd60e51b815260206004808301919091526024820152632b2a189960e11b604482015290519081900360640190fd5b6111698585610739565b509093505082156111bd576111886001600160a01b03861685856117cc565b6002820154611197908461181e565b6002830155815465ffffffffffff60a81b1916600160a81b4265ffffffffffff16021782555b8154600160781b900465ffffffffffff1642106111dd57815460ff191682555b604080516001600160a01b0380881682528616602082015280820185905242606082015290517fe66d51f31c8a9131ea2d5eeef8ef1bb6c991a682392cf84096e45f04933f57349181900360800190a150506001805592915050565b6000818152609760205260408120610f0f90611db1565b6000600260015414156112aa576040805162461bcd60e51b815260206004820152601f60248201527f5265656e7472616e637947756172643a207265656e7472616e742063616c6c00604482015290519081900360640190fd5b60026001556001600160a01b038816158015906112cf57506001600160a01b03871615155b80156112de57506312cc030085105b80156112f657506112f3426312cc0300611878565b86115b801561130e575061130b426312cc030061181e565b86105b801561131a5750600084115b80156113265750600083115b801561133357506104b083105b801561134257506312cc030082105b611379576040805162461bcd60e51b815260206004820152600360248201526256543360e81b604482015290519081900360640190fd5b600183118015611387575081155b156113c2576040805162461bcd60e51b815260206004808301919091526024820152630aca862760e31b604482015290519081900360640190fd5b6113cc848461193c565b905080886001600160a01b03166370a082316113e66117c8565b6040518263ffffffff1660e01b815260040180826001600160a01b0316815260200191505060206040518083038186803b15801561142357600080fd5b505afa158015611437573d6000803e3d6000fd5b505050506040513d602081101561144d57600080fd5b5051101561148b576040805162461bcd60e51b815260206004808301919091526024820152635654313160e01b604482015290519081900360640190fd5b6001600160a01b03808916600090815260ca60209081526040808320938b168352929052205460ff16156114ef576040805162461bcd60e51b815260206004808301919091526024820152635654313760e01b604482015290519081900360640190fd5b61150c6114fa6117c8565b6001600160a01b038a16903084611dbc565b600061153061152661151f866001611878565b859061193c565b61094b898961181e565b905061153a61234a565b65ffffffffffff80891660608301528216608082015263ffffffff80881660208301526001825260e0820187905264ffffffffff861660c0830152841660408201526115846117c8565b6001600160a01b0390811661012083019081528b8216600090815260ca602090815260408083208e861684528252918290208551815492870151938701516060880151608089015160a08a015160c08b015160ff199097169415159490941764ffffffff00191661010063ffffffff98891681029190911768ffffffff00000000001916600160281b9890941697909702929092176effffffffffff0000000000000000001916600160481b65ffffffffffff928316021765ffffffffffff60781b1916600160781b928216929092029190911765ffffffffffff60a81b1916600160a81b9190921602176001600160d81b0316600160d81b64ffffffffff9093169290920291909117815560e085015160018201559084015160028201559051600390910180546001600160a01b031916919092161790557fe15747a0fb729eba912c4bff7340d0ba7e74e36b43b68640e5b336c9773e75af8a8a8a8a878b8b8b6116ee6117c8565b604080516001600160a01b039a8b168152988a1660208a0152888101979097526060880195909552608087019390935260a086019190915260c085015260e0840152909216610100820152426101208201529051908190036101400190a1505060018055979650505050505050565b60008281526097602052604090206002015461177b906105f76117c8565b610a925760405162461bcd60e51b81526004018080602001828103825260308152602001806124166030913960400191505060405180910390fd5b60008051602061249583398151915281565b3390565b604080516001600160a01b038416602482015260448082018490528251808303909101815260649091019091526020810180516001600160e01b031663a9059cbb60e01b179052610c8b908490611e1c565b600082820183811015610f0c576040805162461bcd60e51b815260206004820152601b60248201527f536166654d6174683a206164646974696f6e206f766572666c6f770000000000604482015290519081900360640190fd5b6000828211156118cf576040805162461bcd60e51b815260206004820152601e60248201527f536166654d6174683a207375627472616374696f6e206f766572666c6f770000604482015290519081900360640190fd5b50900390565b600080821161192b576040805162461bcd60e51b815260206004820152601a60248201527f536166654d6174683a206469766973696f6e206279207a65726f000000000000604482015290519081900360640190fd5b81838161193457fe5b049392505050565b60008261194b57506000610f0f565b8282028284828161195857fe5b0414610f0c5760405162461bcd60e51b81526004018080602001828103825260218152602001806124746021913960400191505060405180910390fd5b60008281526097602052604090206119ad9082611ecd565b15610a37576119ba6117c8565b6001600160a01b0316816001600160a01b0316837f2f8788117e7eff1d82e926ec794901d17c78024a50270940304540a733656f0d60405160405180910390a45050565b6000828152609760205260409020611a169082611ee2565b15610a3757611a236117c8565b6001600160a01b0316816001600160a01b0316837ff6391f5c32d9c69d2a47ea670b442974b53935d1edc7fd64eb21e047a839171b60405160405180910390a45050565b611a6f610c90565b611ab7576040805162461bcd60e51b815260206004820152601460248201527314185d5cd8589b194e881b9bdd081c185d5cd95960621b604482015290519081900360640190fd5b6065805460ff191690557f5db9ee0a495bf2e6ff9c91a7834c1ba4fdd244a5e8aa4e537bd38aeae4b073aa611aea6117c8565b604080516001600160a01b039092168252519081900360200190a1565b6000611b1230611ef7565b15905090565b600054610100900460ff1680611b315750611b31611b07565b80611b3f575060005460ff16155b611b7a5760405162461bcd60e51b815260040180806020018281038252602e815260200180612446602e913960400191505060405180910390fd5b600054610100900460ff16158015611ba5576000805460ff1961ff0019909116610100171660011790555b611bad611efd565b8015611bbf576000805461ff00191690555b50565b600054610100900460ff1680611bdb5750611bdb611b07565b80611be9575060005460ff16155b611c245760405162461bcd60e51b815260040180806020018281038252602e815260200180612446602e913960400191505060405180910390fd5b600054610100900460ff16158015611bad576000805460ff1961ff0019909116610100171660011790558015611bbf576000805461ff001916905550565b600054610100900460ff1680611c7b5750611c7b611b07565b80611c89575060005460ff16155b611cc45760405162461bcd60e51b815260040180806020018281038252602e815260200180612446602e913960400191505060405180910390fd5b600054610100900460ff16158015611cef576000805460ff1961ff0019909116610100171660011790555b6065805460ff191690558015611bbf576000805461ff001916905550565b611d15610c90565b15611d5a576040805162461bcd60e51b815260206004820152601060248201526f14185d5cd8589b194e881c185d5cd95960821b604482015290519081900360640190fd5b6065805460ff191660011790557f62e78cea01bee320cd4e420270b5ea74000d11b0c9f74754ebdbfc544b05a258611aea6117c8565b6000610f0c8383611fa2565b6000610f0c836001600160a01b038416612006565b6000610f0f8261201e565b604080516001600160a01b0380861660248301528416604482015260648082018490528251808303909101815260849091019091526020810180516001600160e01b03166323b872dd60e01b179052611e16908590611e1c565b50505050565b6000611e71826040518060400160405280602081526020017f5361666545524332303a206c6f772d6c6576656c2063616c6c206661696c6564815250856001600160a01b03166120229092919063ffffffff16565b805190915015610c8b57808060200190516020811015611e9057600080fd5b5051610c8b5760405162461bcd60e51b815260040180806020018281038252602a8152602001806124d5602a913960400191505060405180910390fd5b6000610f0c836001600160a01b03841661203b565b6000610f0c836001600160a01b038416612085565b3b151590565b600054610100900460ff1680611f165750611f16611b07565b80611f24575060005460ff16155b611f5f5760405162461bcd60e51b815260040180806020018281038252602e815260200180612446602e913960400191505060405180910390fd5b600054610100900460ff16158015611f8a576000805460ff1961ff0019909116610100171660011790555b600180558015611bbf576000805461ff001916905550565b81546000908210611fe45760405162461bcd60e51b815260040180806020018281038252602281526020018061239f6022913960400191505060405180910390fd5b826000018281548110611ff357fe5b9060005260206000200154905092915050565b60009081526001919091016020526040902054151590565b5490565b6060612031848460008561214b565b90505b9392505050565b60006120478383612006565b61207d57508154600181810184556000848152602080822090930184905584548482528286019093526040902091909155610f0f565b506000610f0f565b6000818152600183016020526040812054801561214157835460001980830191908101906000908790839081106120b857fe5b90600052602060002001549050808760000184815481106120d557fe5b60009182526020808320909101929092558281526001898101909252604090209084019055865487908061210557fe5b60019003818190600052602060002001600090559055866001016000878152602001908152602001600020600090556001945050505050610f0f565b6000915050610f0f565b60608247101561218c5760405162461bcd60e51b81526004018080602001828103825260268152602001806123f06026913960400191505060405180910390fd5b61219585611ef7565b6121e6576040805162461bcd60e51b815260206004820152601d60248201527f416464726573733a2063616c6c20746f206e6f6e2d636f6e7472616374000000604482015290519081900360640190fd5b600080866001600160a01b031685876040518082805190602001908083835b602083106122245780518252601f199092019160209182019101612205565b6001836020036101000a03801982511681845116808217855250505050505090500191505060006040518083038185875af1925050503d8060008114612286576040519150601f19603f3d011682016040523d82523d6000602084013e61228b565b606091505b509150915061229b8282866122a6565b979650505050505050565b606083156122b5575081612034565b8251156122c55782518084602001fd5b8160405162461bcd60e51b81526004018080602001828103825283818151815260200191508051906020019080838360005b8381101561230f5781810151838201526020016122f7565b50505050905090810190601f16801561233c5780820380516001836020036101000a031916815260200191505b509250505060405180910390fd5b6040805161014081018252600080825260208201819052918101829052606081018290526080810182905260a0810182905260c0810182905260e0810182905261010081018290526101208101919091529056fe456e756d657261626c655365743a20696e646578206f7574206f6620626f756e6473416363657373436f6e74726f6c3a2073656e646572206d75737420626520616e2061646d696e20746f206772616e74416464726573733a20696e73756666696369656e742062616c616e636520666f722063616c6c416363657373436f6e74726f6c3a2073656e646572206d75737420626520616e2061646d696e20746f207265766f6b65496e697469616c697a61626c653a20636f6e747261637420697320616c726561647920696e697469616c697a6564536166654d6174683a206d756c7469706c69636174696f6e206f766572666c6f7765d7a28e3265b37a6474929f336521b332c1681b933f6cb9f3376673440d862a6a7a39ad350f111635f4a31ec3e3e5ca2f76f78880b843ba3f8705d7d3ac3eb95361666545524332303a204552433230206f7065726174696f6e20646964206e6f742073756363656564416363657373436f6e74726f6c3a2063616e206f6e6c792072656e6f756e636520726f6c657320666f722073656c66a26469706673582212208a7a349dc40c90a90c5058a8bb07a7f823a1e3833bd10927bf2f92e737df1b8464736f6c63430007060033",
  "immutableReferences": {},
  "source": "// SPDX-License-Identifier: Unlicensed\npragma solidity >=0.7.0;\n\nimport \"@openzeppelin/contracts-upgradeable/proxy/Initializable.sol\";\nimport \"@openzeppelin/contracts-upgradeable/math/SafeMathUpgradeable.sol\";\nimport \"@openzeppelin/contracts-upgradeable/proxy/Initializable.sol\";\nimport \"@openzeppelin/contracts-upgradeable/access/AccessControlUpgradeable.sol\";\nimport \"@openzeppelin/contracts-upgradeable/utils/PausableUpgradeable.sol\";\nimport \"@openzeppelin/contracts-upgradeable/utils/ReentrancyGuardUpgradeable.sol\";\nimport \"@openzeppelin/contracts-upgradeable/token/ERC20/SafeERC20Upgradeable.sol\";\nimport \"@openzeppelin/contracts-upgradeable/token/ERC20/IERC20Upgradeable.sol\";\nimport \"./libraries/FullMath.sol\";\nimport \"./interfaces/IVestingTimelockV3.sol\";\n\n/**\n * @dev A token holder contract that will allow a beneficiary to extract the\n * tokens after a given release time.\n * Supports multiple vesting strategies like Cliffed, Continuous, Stepped etc.\n */\ncontract VestingTimelockV3 is\n  Initializable,\n  IVestingTimelockV3,\n  ReentrancyGuardUpgradeable,\n  PausableUpgradeable,\n  AccessControlUpgradeable\n{\n  // including libraries\n  using SafeERC20Upgradeable for IERC20Upgradeable;\n  using SafeMathUpgradeable for uint256;\n  using FullMath for uint256;\n\n  // Access Roles\n  bytes32 public constant PAUSER_ROLE = keccak256(\"PAUSER_ROLE\");\n  bytes32 public constant GRANT_ADMIN_ROLE = keccak256(\"GRANT_ADMIN_ROLE\");\n\n  // variable pertaining to contract upgrades versioning\n  uint256 public _version;\n\n  // mapping(address => uint256) public _grantCount;\n\n  // Vesting grant parameters (tightly packed)\n  struct Grant {\n    bool isActive;\n    uint32 cliffPeriod;\n    uint32 instalmentPeriod;\n    uint48 startTime;\n    uint48 endTime;\n    uint48 lastClaimedTime;\n    uint40 instalmentCount;\n    uint256 instalmentAmount;\n    uint256 amountReceived;\n    address grantManager;\n  }\n\n  // ID from the token and beneficiary\n  mapping(address => mapping(address => Grant)) public override _grantData;\n\n  /**\n   * @dev Constructor for initializing the Vesting Timelock contract.\n   * @param pauserAddress_ - address of the pauser admin.\n   * @param grantAdminAddress_ - address of the grant admin.\n   */\n  function initialize(address pauserAddress_, address grantAdminAddress_)\n    public\n    virtual\n    initializer\n  {\n    __ReentrancyGuard_init();\n    __AccessControl_init_unchained();\n    __Pausable_init_unchained();\n    _setupRole(DEFAULT_ADMIN_ROLE, _msgSender());\n    _setupRole(PAUSER_ROLE, pauserAddress_);\n    _setupRole(GRANT_ADMIN_ROLE, grantAdminAddress_);\n  }\n\n  /**\n   * @dev Get the details of the vesting grant for a user\n   * @param token_: address of token\n   * @param beneficiary_: address of beneficiary\n   */\n  /* function getGrant(address token_, address beneficiary_)\n    public\n    view\n    virtual\n    override\n    returns (\n      uint256 startTime,\n      uint256 endTime,\n      uint256 cliffPeriod,\n      bool isActive,\n      uint256 instalmentAmount,\n      uint256 instalmentCount,\n      uint256 instalmentPeriod,\n      uint256 amountReceived,\n      address grantManager,\n      uint256 lastClaimedTime\n    )\n  {\n    if (token_ != address(0) && beneficiary_ != address(0)) {}\n    Grant memory grant = _grantData[token_][beneficiary_];\n    return (\n      uint256(grant.startTime),\n      uint256(grant.endTime),\n      uint256(grant.cliffPeriod),\n      grant.isActive,\n      uint256(grant.instalmentAmount),\n      uint256(grant.instalmentCount),\n      uint256(grant.instalmentPeriod),\n      uint256(grant.amountReceived),\n      grant.grantManager,\n      uint256(grant.lastClaimedTime)\n    );\n  } */\n\n  /**\n   * @dev calculate the pending time in the currently vesting installment\n   * @param token_: token address\n   * @param beneficiary_: beneficiary address\n   */\n  function getPending(address token_, address beneficiary_)\n    public\n    view\n    virtual\n    override\n    returns (\n      uint256 pendingAmount,\n      uint256 pendingTime,\n      uint256 pendingInstalment\n    )\n  {\n    if (token_ == address(0) || beneficiary_ == address(0))\n      return (pendingAmount, pendingTime, pendingInstalment);\n\n    uint256 lowerTimestamp;\n    uint256 higherTimestamp;\n    Grant memory grant = _grantData[token_][beneficiary_];\n    uint256 vestingStartTime = uint256(grant.startTime).add(\n      uint256(grant.cliffPeriod)\n    );\n\n    // if the last claimed timstamp has crossed the endTime or if cliff time is not\n    // crossed by _lastClaimedTime[id_], return zero\n    if (\n      !grant.isActive ||\n      grant.lastClaimedTime >= grant.endTime ||\n      grant.instalmentAmount <= 0 ||\n      block.timestamp <= vestingStartTime\n    ) return (pendingAmount, pendingTime, pendingInstalment);\n\n    higherTimestamp = (block.timestamp > uint256(grant.endTime))\n      ? uint256(grant.endTime)\n      : block.timestamp;\n\n    lowerTimestamp = (\n      grant.lastClaimedTime < grant.startTime\n        ? uint256(grant.startTime)\n        : uint256(grant.lastClaimedTime)\n    );\n\n    // calculate pending time between last claimed and current time, counter starting from startTime\n    pendingTime = higherTimestamp.sub(lowerTimestamp);\n\n    // calculate the pending amount\n    uint256 cumulativeInstalments = grant.instalmentPeriod > 0\n      ? (\n        (\n          (higherTimestamp.sub(vestingStartTime)).div(\n            uint256(grant.instalmentPeriod)\n          )\n        ).add(1)\n      )\n      : 1;\n\n    pendingAmount = (cumulativeInstalments.mul(grant.instalmentAmount)).sub(\n      grant.amountReceived\n    );\n\n    // calculate the pendingInstalment from the pendingAmount calculated above\n    pendingInstalment = grant.instalmentAmount > 0\n      ? pendingAmount.div(grant.instalmentAmount)\n      : 0;\n  }\n\n  /**\n   * @dev calculate the remaining amount\n   * @param token_: token address\n   * @param beneficiary_: beneficiary address\n   */\n  function getRemaining(address token_, address beneficiary_)\n    public\n    view\n    virtual\n    override\n    returns (\n      uint256 remainingAmount,\n      uint256 remainingTime,\n      uint256 remainingInstalment\n    )\n  {\n    if (token_ == address(0) || beneficiary_ == address(0))\n      return (remainingAmount, remainingTime, remainingInstalment);\n\n    Grant memory grant = _grantData[token_][beneficiary_];\n    // if the instalment amount is 0 then return\n    if (grant.instalmentAmount <= 0 || grant.instalmentCount <= 0)\n      return (remainingAmount, remainingTime, remainingInstalment);\n\n    uint256 lastClaimedTime;\n    uint256 totalAmount = (grant.instalmentAmount).mul(\n      uint256(grant.instalmentCount)\n    );\n\n    remainingAmount = totalAmount.sub(grant.amountReceived);\n    remainingInstalment = remainingAmount.div(grant.instalmentAmount);\n\n    // get the lastClaimedTime as a value inside range grant.startTime & grant.endTime\n    lastClaimedTime = uint256(grant.lastClaimedTime) < uint256(grant.startTime)\n      ? uint256(grant.startTime)\n      : uint256(grant.lastClaimedTime);\n    lastClaimedTime = lastClaimedTime > uint256(grant.endTime)\n      ? uint256(grant.endTime)\n      : lastClaimedTime;\n\n    // calculate remainingTime by subtracting lastClaimedTime from the end tim\n    remainingTime = uint256(grant.endTime).sub(lastClaimedTime);\n  }\n\n  /**\n   * @dev Transfers tokens held by beneficiary to timelock in installments\n   * @param token_: token address\n   * @param beneficiary_: beneficiary address\n   * @param startTime_: start time\n   * @param cliffPeriod_: initial waiting period\n   * @param instalmentAmount_: installment amount\n   * @param instalmentCount_: instalment count\n   * @param instalmentPeriod_: instalment period\n   *\n   * Emits a {AddGrantAsInstalment} event.\n   */\n  function addGrant(\n    address token_,\n    address beneficiary_,\n    uint256 startTime_,\n    uint256 cliffPeriod_,\n    uint256 instalmentAmount_,\n    uint256 instalmentCount_,\n    uint256 instalmentPeriod_\n  ) public virtual override nonReentrant returns (uint256 totalVestingAmount) {\n    // Require statements to for transaction sanity check\n    require(\n      token_ != address(0) &&\n        beneficiary_ != (address(0)) &&\n        // max limit of cliff period is 10 years (in seconds)\n        cliffPeriod_ < (3650 days) &&\n        // min range for start time starts from 10 years in the past\n        startTime_ > ((block.timestamp).sub(3650 days)) &&\n        // max range for start time starts from 10 years in the future\n        startTime_ < ((block.timestamp).add(3650 days)) &&\n        instalmentAmount_ > 0 &&\n        instalmentCount_ > 0 &&\n        instalmentCount_ < 1200 &&\n        // max limit of instalment period is 10 years (in seconds)\n        instalmentPeriod_ < (3650 days),\n      \"VT3\"\n    );\n\n    // require instalmentPeriod to be set when the instalmentCount is more than 1\n    require(!(instalmentCount_ > 1 && instalmentPeriod_ == 0), \"VT18\");\n\n    // check the calling address has suffecient tokens and then transfer tokens to this contract\n    totalVestingAmount = instalmentAmount_.mul(instalmentCount_);\n    require(\n      IERC20Upgradeable(token_).balanceOf(_msgSender()) >= totalVestingAmount,\n      \"VT11\"\n    );\n\n    // check if the grant is not already active\n    // Grant memory grant = _grantData[token_][beneficiary_];\n    // check if an existing active grant is not already in effect\n    require(!_grantData[token_][beneficiary_].isActive, \"VT17\");\n\n    IERC20Upgradeable(token_).safeTransferFrom(\n      _msgSender(),\n      address(this),\n      totalVestingAmount\n    );\n\n    uint48 endTime = uint48(\n      startTime_.add(cliffPeriod_).add(\n        instalmentPeriod_.mul(instalmentCount_.sub(1))\n      )\n    );\n\n    // create a new grant and set it to the mapping\n    Grant memory newGrant;\n    newGrant.startTime = uint48(startTime_);\n    newGrant.endTime = endTime;\n    newGrant.cliffPeriod = uint32(cliffPeriod_);\n    newGrant.isActive = true;\n    newGrant.instalmentAmount = instalmentAmount_;\n    newGrant.instalmentCount = uint40(instalmentCount_);\n    newGrant.instalmentPeriod = uint32(instalmentPeriod_);\n    newGrant.grantManager = _msgSender();\n    _grantData[token_][beneficiary_] = newGrant;\n\n    emit AddGrant(\n      token_,\n      beneficiary_,\n      startTime_,\n      cliffPeriod_,\n      totalVestingAmount,\n      instalmentAmount_,\n      instalmentCount_,\n      instalmentPeriod_,\n      _msgSender(),\n      block.timestamp\n    );\n  }\n\n  /**\n   * @dev Revoke grant tokens held by timelock to beneficiary.\n   * @param token_: token address\n   * @param beneficiary_: beneficiary address\n   *\n   * Emits a {RevokeGrant} event.\n   */\n  function revokeGrant(address token_, address beneficiary_)\n    public\n    virtual\n    override\n    nonReentrant\n    returns (uint256 remainingAmount)\n  {\n    // require beneficiary not be address(0)\n    require(token_ != address(0) && beneficiary_ != (address(0)), \"VT5\");\n\n    Grant storage grant = _grantData[token_][beneficiary_];\n    address grantManager = grant.grantManager;\n\n    // Grant can be revoked by the beneficiary, grant manager or GRANT ADMIN defined in the contract\n    require(\n      _msgSender() == beneficiary_ ||\n        _msgSender() == grantManager ||\n        hasRole(GRANT_ADMIN_ROLE, _msgSender()),\n      \"VT6\"\n    );\n\n    // find the remaining amount after revoke and transfer it back to the grant manager\n    // require the end date for grant to not have passed\n    require(grant.isActive && grant.lastClaimedTime < grant.endTime, \"VT4\");\n\n    (remainingAmount, , ) = getRemaining(token_, beneficiary_);\n    // deactivate the grant (keep other values intact)\n    grant.isActive = false;\n\n    if (remainingAmount > 0) {\n      // delete _grantID[token_][beneficiary_];\n      IERC20Upgradeable(token_).safeTransfer(grantManager, remainingAmount);\n    }\n\n    // emit an event for record\n    emit RevokeGrant(\n      token_,\n      _msgSender(),\n      beneficiary_,\n      grantManager,\n      remainingAmount,\n      block.timestamp\n    );\n  }\n\n  /**\n   * @dev Transfers tokens held by timelock to beneficiary.\n   * @param token_: token address\n   * @param beneficiary_: beneficiary address\n   *\n   * Emits a {ClaimGrant} event.\n   */\n  function claimGrant(address token_, address beneficiary_)\n    external\n    virtual\n    override\n    nonReentrant\n    whenNotPaused\n    returns (uint256 pendingAmount)\n  {\n    // require beneficiary not be address(0)\n    require(token_ != address(0) && beneficiary_ != (address(0)), \"VT8\");\n\n    // get the grant manager from the grant data\n    Grant storage grant = _grantData[token_][beneficiary_];\n    address grantManager = grant.grantManager;\n\n    // Grant can be revoked by the beneficiary, grant manager or GRANT ADMIN defined in the contract\n    require(\n      _msgSender() == beneficiary_ ||\n        _msgSender() == grantManager ||\n        hasRole(GRANT_ADMIN_ROLE, _msgSender()),\n      \"VT10\"\n    );\n\n    // require the grant to be active and vesting amount still pending to be credited to beneficiary for claiming\n    require(\n      grant.isActive &&\n        (grant.instalmentAmount.mul(uint256(grant.instalmentCount)) >\n          grant.amountReceived),\n      \"VT12\"\n    );\n\n    // get the pending amount to be credited to beneficiary\n    (pendingAmount, , ) = getPending(token_, beneficiary_);\n\n    if (pendingAmount > 0) {\n      IERC20Upgradeable(token_).safeTransfer(beneficiary_, pendingAmount);\n      grant.amountReceived = grant.amountReceived.add(pendingAmount);\n\n      // set last claimed for the grant to current time\n      grant.lastClaimedTime = uint48(block.timestamp);\n    }\n\n    // if all the vesting amount has been claimed, then deactivate grant\n    if (block.timestamp >= uint256(grant.endTime)) {\n      grant.isActive = false;\n    }\n\n    emit ClaimGrant(token_, beneficiary_, pendingAmount, block.timestamp);\n  }\n\n  /**\n   * @dev Triggers stopped state.\n   *\n   * Requirements:\n   *\n   * - The contract must not be paused.\n   */\n  function pause() public virtual override returns (bool success) {\n    require(hasRole(PAUSER_ROLE, _msgSender()), \"VT19\");\n    _pause();\n    return true;\n  }\n\n  /**\n   * @dev Returns to normal state.\n   *\n   * Requirements:\n   *\n   * - The contract must be paused.\n   */\n  function unpause() public virtual override returns (bool success) {\n    require(hasRole(PAUSER_ROLE, _msgSender()), \"VT20\");\n    _unpause();\n    return true;\n  }\n}\n",
  "sourcePath": "C:\\Users\\Kamlesh\\Persistence\\pStake\\codebase\\erc20\\contracts\\VestingTimelockV3.sol",
  "compiler": {
    "name": "solc",
    "version": "0.7.6+commit.7338295f.Emscripten.clang"
  },
  "schemaVersion": "3.4.3",
  "updatedAt": "2021-11-23T03:06:57.418Z",
  "networkType": "ethereum",
  "devdoc": {
    "details": "A token holder contract that will allow a beneficiary to extract the tokens after a given release time. Supports multiple vesting strategies like Cliffed, Continuous, Stepped etc.",
    "kind": "dev",
    "methods": {
      "addGrant(address,address,uint256,uint256,uint256,uint256,uint256)": {
        "details": "Transfers tokens held by beneficiary to timelock in installments",
        "params": {
          "beneficiary_": ": beneficiary address",
          "cliffPeriod_": ": initial waiting period",
          "instalmentAmount_": ": installment amount",
          "instalmentCount_": ": instalment count",
          "instalmentPeriod_": ": instalment period Emits a {AddGrantAsInstalment} event.",
          "startTime_": ": start time",
          "token_": ": token address"
        }
      },
      "claimGrant(address,address)": {
        "details": "Transfers tokens held by timelock to beneficiary.",
        "params": {
          "beneficiary_": ": beneficiary address Emits a {ClaimGrant} event.",
          "token_": ": token address"
        }
      },
      "getPending(address,address)": {
        "details": "calculate the pending time in the currently vesting installment",
        "params": {
          "beneficiary_": ": beneficiary address",
          "token_": ": token address"
        }
      },
      "getRemaining(address,address)": {
        "details": "calculate the remaining amount",
        "params": {
          "beneficiary_": ": beneficiary address",
          "token_": ": token address"
        }
      },
      "getRoleAdmin(bytes32)": {
        "details": "Returns the admin role that controls `role`. See {grantRole} and {revokeRole}. To change a role's admin, use {_setRoleAdmin}."
      },
      "getRoleMember(bytes32,uint256)": {
        "details": "Returns one of the accounts that have `role`. `index` must be a value between 0 and {getRoleMemberCount}, non-inclusive. Role bearers are not sorted in any particular way, and their ordering may change at any point. WARNING: When using {getRoleMember} and {getRoleMemberCount}, make sure you perform all queries on the same block. See the following https://forum.openzeppelin.com/t/iterating-over-elements-on-enumerableset-in-openzeppelin-contracts/2296[forum post] for more information."
      },
      "getRoleMemberCount(bytes32)": {
        "details": "Returns the number of accounts that have `role`. Can be used together with {getRoleMember} to enumerate all bearers of a role."
      },
      "grantRole(bytes32,address)": {
        "details": "Grants `role` to `account`. If `account` had not been already granted `role`, emits a {RoleGranted} event. Requirements: - the caller must have ``role``'s admin role."
      },
      "hasRole(bytes32,address)": {
        "details": "Returns `true` if `account` has been granted `role`."
      },
      "initialize(address,address)": {
        "details": "Constructor for initializing the Vesting Timelock contract.",
        "params": {
          "grantAdminAddress_": "- address of the grant admin.",
          "pauserAddress_": "- address of the pauser admin."
        }
      },
      "pause()": {
        "details": "Triggers stopped state. Requirements: - The contract must not be paused."
      },
      "paused()": {
        "details": "Returns true if the contract is paused, and false otherwise."
      },
      "renounceRole(bytes32,address)": {
        "details": "Revokes `role` from the calling account. Roles are often managed via {grantRole} and {revokeRole}: this function's purpose is to provide a mechanism for accounts to lose their privileges if they are compromised (such as when a trusted device is misplaced). If the calling account had been granted `role`, emits a {RoleRevoked} event. Requirements: - the caller must be `account`."
      },
      "revokeGrant(address,address)": {
        "details": "Revoke grant tokens held by timelock to beneficiary.",
        "params": {
          "beneficiary_": ": beneficiary address Emits a {RevokeGrant} event.",
          "token_": ": token address"
        }
      },
      "revokeRole(bytes32,address)": {
        "details": "Revokes `role` from `account`. If `account` had been granted `role`, emits a {RoleRevoked} event. Requirements: - the caller must have ``role``'s admin role."
      },
      "unpause()": {
        "details": "Returns to normal state. Requirements: - The contract must be paused."
      }
    },
    "stateVariables": {
      "_grantData": {
        "details": "Get the details of the vesting grant for a user",
        "params": {
          "beneficiary_": ": address of beneficiary",
          "token_": ": address of token"
        }
      }
    },
    "version": 1
  },
  "userdoc": {
    "kind": "user",
    "methods": {},
    "version": 1
  }
}