{
  "contractName": "VestingTimelockV2",
  "abi": [
    {
      "anonymous": false,
      "inputs": [
        {
          "indexed": false,
          "internalType": "uint256",
          "name": "id",
          "type": "uint256"
        },
        {
          "indexed": false,
          "internalType": "address",
          "name": "token",
          "type": "address"
        },
        {
          "indexed": false,
          "internalType": "address",
          "name": "accountAddress",
          "type": "address"
        },
        {
          "indexed": false,
          "internalType": "uint256",
          "name": "startTime",
          "type": "uint256"
        },
        {
          "indexed": false,
          "internalType": "uint256",
          "name": "cliffTime",
          "type": "uint256"
        },
        {
          "indexed": false,
          "internalType": "uint256",
          "name": "tokens",
          "type": "uint256"
        },
        {
          "indexed": false,
          "internalType": "uint256",
          "name": "instalmentCount",
          "type": "uint256"
        },
        {
          "indexed": false,
          "internalType": "uint256",
          "name": "instalmentPeriod",
          "type": "uint256"
        },
        {
          "indexed": false,
          "internalType": "bool",
          "name": "isContinuousVesting",
          "type": "bool"
        },
        {
          "indexed": false,
          "internalType": "address",
          "name": "grantManager",
          "type": "address"
        },
        {
          "indexed": false,
          "internalType": "uint256",
          "name": "timestamp",
          "type": "uint256"
        }
      ],
      "name": "AddGrant",
      "type": "event"
    },
    {
      "anonymous": false,
      "inputs": [
        {
          "indexed": false,
          "internalType": "uint256",
          "name": "id",
          "type": "uint256"
        },
        {
          "indexed": false,
          "internalType": "address",
          "name": "token",
          "type": "address"
        },
        {
          "indexed": false,
          "internalType": "address",
          "name": "accountAddress",
          "type": "address"
        },
        {
          "indexed": false,
          "internalType": "uint256",
          "name": "startTime",
          "type": "uint256"
        },
        {
          "indexed": false,
          "internalType": "uint256",
          "name": "cliffTime",
          "type": "uint256"
        },
        {
          "indexed": false,
          "internalType": "uint256",
          "name": "tokens",
          "type": "uint256"
        },
        {
          "indexed": false,
          "internalType": "uint256",
          "name": "instalmentCount",
          "type": "uint256"
        },
        {
          "indexed": false,
          "internalType": "uint256",
          "name": "instalmentPeriod",
          "type": "uint256"
        },
        {
          "indexed": false,
          "internalType": "bool",
          "name": "isContinuousVesting",
          "type": "bool"
        },
        {
          "indexed": false,
          "internalType": "address",
          "name": "grantManager",
          "type": "address"
        },
        {
          "indexed": false,
          "internalType": "uint256",
          "name": "timestamp",
          "type": "uint256"
        }
      ],
      "name": "AddGrantAsInstalment",
      "type": "event"
    },
    {
      "anonymous": false,
      "inputs": [
        {
          "indexed": false,
          "internalType": "address",
          "name": "token",
          "type": "address"
        },
        {
          "indexed": false,
          "internalType": "address",
          "name": "accountAddress",
          "type": "address"
        },
        {
          "indexed": false,
          "internalType": "uint256",
          "name": "tokens",
          "type": "uint256"
        },
        {
          "indexed": false,
          "internalType": "uint256",
          "name": "timestamp",
          "type": "uint256"
        }
      ],
      "name": "ClaimGrant",
      "type": "event"
    },
    {
      "anonymous": false,
      "inputs": [
        {
          "indexed": false,
          "internalType": "address",
          "name": "account",
          "type": "address"
        }
      ],
      "name": "Paused",
      "type": "event"
    },
    {
      "anonymous": false,
      "inputs": [
        {
          "indexed": false,
          "internalType": "address",
          "name": "token",
          "type": "address"
        },
        {
          "indexed": false,
          "internalType": "address",
          "name": "accountAddress",
          "type": "address"
        },
        {
          "indexed": false,
          "internalType": "address",
          "name": "grantManager",
          "type": "address"
        },
        {
          "indexed": false,
          "internalType": "uint256",
          "name": "tokens",
          "type": "uint256"
        },
        {
          "indexed": false,
          "internalType": "uint256",
          "name": "timestamp",
          "type": "uint256"
        }
      ],
      "name": "RevokeGrant",
      "type": "event"
    },
    {
      "anonymous": false,
      "inputs": [
        {
          "indexed": true,
          "internalType": "bytes32",
          "name": "role",
          "type": "bytes32"
        },
        {
          "indexed": true,
          "internalType": "bytes32",
          "name": "previousAdminRole",
          "type": "bytes32"
        },
        {
          "indexed": true,
          "internalType": "bytes32",
          "name": "newAdminRole",
          "type": "bytes32"
        }
      ],
      "name": "RoleAdminChanged",
      "type": "event"
    },
    {
      "anonymous": false,
      "inputs": [
        {
          "indexed": true,
          "internalType": "bytes32",
          "name": "role",
          "type": "bytes32"
        },
        {
          "indexed": true,
          "internalType": "address",
          "name": "account",
          "type": "address"
        },
        {
          "indexed": true,
          "internalType": "address",
          "name": "sender",
          "type": "address"
        }
      ],
      "name": "RoleGranted",
      "type": "event"
    },
    {
      "anonymous": false,
      "inputs": [
        {
          "indexed": true,
          "internalType": "bytes32",
          "name": "role",
          "type": "bytes32"
        },
        {
          "indexed": true,
          "internalType": "address",
          "name": "account",
          "type": "address"
        },
        {
          "indexed": true,
          "internalType": "address",
          "name": "sender",
          "type": "address"
        }
      ],
      "name": "RoleRevoked",
      "type": "event"
    },
    {
      "anonymous": false,
      "inputs": [
        {
          "indexed": false,
          "internalType": "address",
          "name": "account",
          "type": "address"
        }
      ],
      "name": "Unpaused",
      "type": "event"
    },
    {
      "inputs": [],
      "name": "DEFAULT_ADMIN_ROLE",
      "outputs": [
        {
          "internalType": "bytes32",
          "name": "",
          "type": "bytes32"
        }
      ],
      "stateMutability": "view",
      "type": "function",
      "constant": true
    },
    {
      "inputs": [],
      "name": "GRANT_ADMIN_ROLE",
      "outputs": [
        {
          "internalType": "bytes32",
          "name": "",
          "type": "bytes32"
        }
      ],
      "stateMutability": "view",
      "type": "function",
      "constant": true
    },
    {
      "inputs": [],
      "name": "PAUSER_ROLE",
      "outputs": [
        {
          "internalType": "bytes32",
          "name": "",
          "type": "bytes32"
        }
      ],
      "stateMutability": "view",
      "type": "function",
      "constant": true
    },
    {
      "inputs": [
        {
          "internalType": "address",
          "name": "",
          "type": "address"
        },
        {
          "internalType": "address",
          "name": "",
          "type": "address"
        }
      ],
      "name": "_beneficiaryID",
      "outputs": [
        {
          "internalType": "uint256",
          "name": "",
          "type": "uint256"
        }
      ],
      "stateMutability": "view",
      "type": "function",
      "constant": true
    },
    {
      "inputs": [
        {
          "internalType": "address",
          "name": "",
          "type": "address"
        }
      ],
      "name": "_grantCount",
      "outputs": [
        {
          "internalType": "uint256",
          "name": "",
          "type": "uint256"
        }
      ],
      "stateMutability": "view",
      "type": "function",
      "constant": true
    },
    {
      "inputs": [],
      "name": "_id",
      "outputs": [
        {
          "internalType": "uint256",
          "name": "",
          "type": "uint256"
        }
      ],
      "stateMutability": "view",
      "type": "function",
      "constant": true
    },
    {
      "inputs": [
        {
          "internalType": "uint256",
          "name": "",
          "type": "uint256"
        }
      ],
      "name": "_lastClaimedTimestamp",
      "outputs": [
        {
          "internalType": "uint256",
          "name": "",
          "type": "uint256"
        }
      ],
      "stateMutability": "view",
      "type": "function",
      "constant": true
    },
    {
      "inputs": [],
      "name": "_version",
      "outputs": [
        {
          "internalType": "uint256",
          "name": "",
          "type": "uint256"
        }
      ],
      "stateMutability": "view",
      "type": "function",
      "constant": true
    },
    {
      "inputs": [
        {
          "internalType": "bytes32",
          "name": "role",
          "type": "bytes32"
        }
      ],
      "name": "getRoleAdmin",
      "outputs": [
        {
          "internalType": "bytes32",
          "name": "",
          "type": "bytes32"
        }
      ],
      "stateMutability": "view",
      "type": "function",
      "constant": true
    },
    {
      "inputs": [
        {
          "internalType": "bytes32",
          "name": "role",
          "type": "bytes32"
        },
        {
          "internalType": "uint256",
          "name": "index",
          "type": "uint256"
        }
      ],
      "name": "getRoleMember",
      "outputs": [
        {
          "internalType": "address",
          "name": "",
          "type": "address"
        }
      ],
      "stateMutability": "view",
      "type": "function",
      "constant": true
    },
    {
      "inputs": [
        {
          "internalType": "bytes32",
          "name": "role",
          "type": "bytes32"
        }
      ],
      "name": "getRoleMemberCount",
      "outputs": [
        {
          "internalType": "uint256",
          "name": "",
          "type": "uint256"
        }
      ],
      "stateMutability": "view",
      "type": "function",
      "constant": true
    },
    {
      "inputs": [
        {
          "internalType": "bytes32",
          "name": "role",
          "type": "bytes32"
        },
        {
          "internalType": "address",
          "name": "account",
          "type": "address"
        }
      ],
      "name": "grantRole",
      "outputs": [],
      "stateMutability": "nonpayable",
      "type": "function"
    },
    {
      "inputs": [
        {
          "internalType": "bytes32",
          "name": "role",
          "type": "bytes32"
        },
        {
          "internalType": "address",
          "name": "account",
          "type": "address"
        }
      ],
      "name": "hasRole",
      "outputs": [
        {
          "internalType": "bool",
          "name": "",
          "type": "bool"
        }
      ],
      "stateMutability": "view",
      "type": "function",
      "constant": true
    },
    {
      "inputs": [],
      "name": "paused",
      "outputs": [
        {
          "internalType": "bool",
          "name": "",
          "type": "bool"
        }
      ],
      "stateMutability": "view",
      "type": "function",
      "constant": true
    },
    {
      "inputs": [
        {
          "internalType": "bytes32",
          "name": "role",
          "type": "bytes32"
        },
        {
          "internalType": "address",
          "name": "account",
          "type": "address"
        }
      ],
      "name": "renounceRole",
      "outputs": [],
      "stateMutability": "nonpayable",
      "type": "function"
    },
    {
      "inputs": [
        {
          "internalType": "bytes32",
          "name": "role",
          "type": "bytes32"
        },
        {
          "internalType": "address",
          "name": "account",
          "type": "address"
        }
      ],
      "name": "revokeRole",
      "outputs": [],
      "stateMutability": "nonpayable",
      "type": "function"
    },
    {
      "inputs": [
        {
          "internalType": "address",
          "name": "pauserAddress_",
          "type": "address"
        },
        {
          "internalType": "address",
          "name": "grantAdminAddress_",
          "type": "address"
        }
      ],
      "name": "initialize",
      "outputs": [],
      "stateMutability": "nonpayable",
      "type": "function"
    },
    {
      "inputs": [
        {
          "internalType": "address",
          "name": "token_",
          "type": "address"
        },
        {
          "internalType": "address",
          "name": "beneficiary_",
          "type": "address"
        }
      ],
      "name": "getGrant",
      "outputs": [
        {
          "internalType": "uint256",
          "name": "startTime",
          "type": "uint256"
        },
        {
          "internalType": "uint256",
          "name": "endTime",
          "type": "uint256"
        },
        {
          "internalType": "uint256",
          "name": "cliffTime",
          "type": "uint256"
        },
        {
          "internalType": "address",
          "name": "beneficiary",
          "type": "address"
        },
        {
          "internalType": "bool",
          "name": "isActive",
          "type": "bool"
        },
        {
          "internalType": "uint256",
          "name": "instalmentAmount",
          "type": "uint256"
        },
        {
          "internalType": "uint256",
          "name": "instalmentCount",
          "type": "uint256"
        },
        {
          "internalType": "uint256",
          "name": "instalmentPeriod",
          "type": "uint256"
        },
        {
          "internalType": "uint256",
          "name": "amountReceived",
          "type": "uint256"
        },
        {
          "internalType": "bool",
          "name": "isContinuousVesting",
          "type": "bool"
        },
        {
          "internalType": "address",
          "name": "grantManager",
          "type": "address"
        }
      ],
      "stateMutability": "view",
      "type": "function",
      "constant": true
    },
    {
      "inputs": [
        {
          "internalType": "uint256",
          "name": "id_",
          "type": "uint256"
        }
      ],
      "name": "getGrantFromID",
      "outputs": [
        {
          "internalType": "uint256",
          "name": "startTime",
          "type": "uint256"
        },
        {
          "internalType": "uint256",
          "name": "endTime",
          "type": "uint256"
        },
        {
          "internalType": "uint256",
          "name": "cliffTime",
          "type": "uint256"
        },
        {
          "internalType": "address",
          "name": "beneficiary",
          "type": "address"
        },
        {
          "internalType": "bool",
          "name": "isActive",
          "type": "bool"
        },
        {
          "internalType": "uint256",
          "name": "instalmentAmount",
          "type": "uint256"
        },
        {
          "internalType": "uint256",
          "name": "instalmentCount",
          "type": "uint256"
        },
        {
          "internalType": "uint256",
          "name": "instalmentPeriod",
          "type": "uint256"
        },
        {
          "internalType": "uint256",
          "name": "amountReceived",
          "type": "uint256"
        },
        {
          "internalType": "bool",
          "name": "isContinuousVesting",
          "type": "bool"
        },
        {
          "internalType": "address",
          "name": "grantManager",
          "type": "address"
        }
      ],
      "stateMutability": "view",
      "type": "function",
      "constant": true
    },
    {
      "inputs": [
        {
          "internalType": "address",
          "name": "token_",
          "type": "address"
        },
        {
          "internalType": "address",
          "name": "beneficiary_",
          "type": "address"
        }
      ],
      "name": "getPending",
      "outputs": [
        {
          "internalType": "uint256",
          "name": "pendingAmount",
          "type": "uint256"
        },
        {
          "internalType": "uint256",
          "name": "pendingTime",
          "type": "uint256"
        },
        {
          "internalType": "uint256",
          "name": "pendingInstalment",
          "type": "uint256"
        }
      ],
      "stateMutability": "view",
      "type": "function",
      "constant": true
    },
    {
      "inputs": [
        {
          "internalType": "uint256",
          "name": "id_",
          "type": "uint256"
        }
      ],
      "name": "getPendingFromID",
      "outputs": [
        {
          "internalType": "uint256",
          "name": "pendingAmount",
          "type": "uint256"
        },
        {
          "internalType": "uint256",
          "name": "pendingTime",
          "type": "uint256"
        },
        {
          "internalType": "uint256",
          "name": "pendingInstalment",
          "type": "uint256"
        }
      ],
      "stateMutability": "view",
      "type": "function",
      "constant": true
    },
    {
      "inputs": [
        {
          "internalType": "address",
          "name": "token_",
          "type": "address"
        },
        {
          "internalType": "address",
          "name": "beneficiary_",
          "type": "address"
        }
      ],
      "name": "getRemaining",
      "outputs": [
        {
          "internalType": "uint256",
          "name": "remainingAmount",
          "type": "uint256"
        },
        {
          "internalType": "uint256",
          "name": "remainingTime",
          "type": "uint256"
        },
        {
          "internalType": "uint256",
          "name": "remainingInstalment",
          "type": "uint256"
        }
      ],
      "stateMutability": "view",
      "type": "function",
      "constant": true
    },
    {
      "inputs": [
        {
          "internalType": "uint256",
          "name": "id_",
          "type": "uint256"
        }
      ],
      "name": "getRemainingFromID",
      "outputs": [
        {
          "internalType": "uint256",
          "name": "remainingAmount",
          "type": "uint256"
        },
        {
          "internalType": "uint256",
          "name": "remainingTime",
          "type": "uint256"
        },
        {
          "internalType": "uint256",
          "name": "remainingInstalment",
          "type": "uint256"
        }
      ],
      "stateMutability": "view",
      "type": "function",
      "constant": true
    },
    {
      "inputs": [
        {
          "internalType": "address",
          "name": "token_",
          "type": "address"
        },
        {
          "internalType": "address",
          "name": "beneficiary_",
          "type": "address"
        },
        {
          "internalType": "uint256",
          "name": "startTime_",
          "type": "uint256"
        },
        {
          "internalType": "uint256",
          "name": "cliffPeriod_",
          "type": "uint256"
        },
        {
          "internalType": "uint256",
          "name": "totalAmount_",
          "type": "uint256"
        },
        {
          "internalType": "uint256",
          "name": "instalmentCount_",
          "type": "uint256"
        },
        {
          "internalType": "uint256",
          "name": "instalmentPeriod_",
          "type": "uint256"
        },
        {
          "internalType": "bool",
          "name": "isContinuousVesting_",
          "type": "bool"
        }
      ],
      "name": "addGrant",
      "outputs": [
        {
          "internalType": "uint256",
          "name": "instalmentAmount",
          "type": "uint256"
        }
      ],
      "stateMutability": "nonpayable",
      "type": "function"
    },
    {
      "inputs": [
        {
          "internalType": "address",
          "name": "token_",
          "type": "address"
        },
        {
          "internalType": "address",
          "name": "beneficiary_",
          "type": "address"
        },
        {
          "internalType": "uint256",
          "name": "startTime_",
          "type": "uint256"
        },
        {
          "internalType": "uint256",
          "name": "cliffPeriod_",
          "type": "uint256"
        },
        {
          "internalType": "uint256",
          "name": "instalmentAmount_",
          "type": "uint256"
        },
        {
          "internalType": "uint256",
          "name": "instalmentCount_",
          "type": "uint256"
        },
        {
          "internalType": "uint256",
          "name": "instalmentPeriod_",
          "type": "uint256"
        },
        {
          "internalType": "bool",
          "name": "isContinuousVesting_",
          "type": "bool"
        }
      ],
      "name": "addGrantAsInstalment",
      "outputs": [
        {
          "internalType": "uint256",
          "name": "totalVestingAmount",
          "type": "uint256"
        }
      ],
      "stateMutability": "nonpayable",
      "type": "function"
    },
    {
      "inputs": [
        {
          "internalType": "address",
          "name": "token_",
          "type": "address"
        },
        {
          "internalType": "address",
          "name": "beneficiary_",
          "type": "address"
        },
        {
          "internalType": "address",
          "name": "grantManager_",
          "type": "address"
        }
      ],
      "name": "revokeGrant",
      "outputs": [
        {
          "internalType": "uint256",
          "name": "remainingAmount",
          "type": "uint256"
        }
      ],
      "stateMutability": "nonpayable",
      "type": "function"
    },
    {
      "inputs": [
        {
          "internalType": "address",
          "name": "token_",
          "type": "address"
        },
        {
          "internalType": "address",
          "name": "beneficiary_",
          "type": "address"
        }
      ],
      "name": "claimGrant",
      "outputs": [],
      "stateMutability": "nonpayable",
      "type": "function"
    },
    {
      "inputs": [],
      "name": "pause",
      "outputs": [
        {
          "internalType": "bool",
          "name": "success",
          "type": "bool"
        }
      ],
      "stateMutability": "nonpayable",
      "type": "function"
    },
    {
      "inputs": [],
      "name": "unpause",
      "outputs": [
        {
          "internalType": "bool",
          "name": "success",
          "type": "bool"
        }
      ],
      "stateMutability": "nonpayable",
      "type": "function"
    }
  ],
  "bytecode": "0x608060405234801561001057600080fd5b50612ec4806100206000396000f3fe608060405234801561001057600080fd5b50600436106101cf5760003560e01c80636ad1ee3d11610104578063a217fddf116100a2578063d6003d9e11610071578063d6003d9e146105d1578063d7a6dbe3146105ee578063dc7651111461061c578063e63ab1e914610673576101cf565b8063a217fddf14610552578063b41588441461055a578063ca15c87314610588578063d547741f146105a5576101cf565b806388984a0d116100de57806388984a0d1461049c5780639010d07c146104ca57806391d14854146105095780639f08f86914610535576101cf565b80636ad1ee3d146103e55780636d1319eb146104025780638456cb5914610494576101cf565b806336568abe11610171578063417cbd911161014b578063417cbd9114610351578063485cc955146103895780635138b2b7146103b75780635c975abb146103dd576101cf565b806336568abe146103015780633e118dbe1461032d5780633f4ba83a14610335576101cf565b8063248a9ca3116101ad578063248a9ca3146102915780632c0acd2c146102ae5780632f2ff15d146102b65780632fdd100a146102e4576101cf565b806305180237146101d45780630bf5bff7146101ee57806314820f2f14610245575b600080fd5b6101dc61067b565b60408051918252519081900360200190f35b6101dc600480360361010081101561020557600080fd5b506001600160a01b03813581169160208101359091169060408101359060608101359060808101359060a08101359060c08101359060e001351515610681565b6102736004803603604081101561025b57600080fd5b506001600160a01b03813581169160200135166108ec565b60408051938452602084019290925282820152519081900360600190f35b6101dc600480360360208110156102a757600080fd5b5035610956565b6101dc61096b565b6102e2600480360360408110156102cc57600080fd5b50803590602001356001600160a01b031661097d565b005b6101dc600480360360208110156102fa57600080fd5b50356109e9565b6102e26004803603604081101561031757600080fd5b50803590602001356001600160a01b03166109fb565b6101dc610a5c565b61033d610a62565b604080519115158252519081900360200190f35b6101dc6004803603606081101561036757600080fd5b506001600160a01b038135811691602081013582169160409091013516610ac7565b6102e26004803603604081101561039f57600080fd5b506001600160a01b0381358116916020013516610d7e565b6101dc600480360360208110156103cd57600080fd5b50356001600160a01b0316610e7c565b61033d610e8e565b610273600480360360208110156103fb57600080fd5b5035610e97565b6104306004803603604081101561041857600080fd5b506001600160a01b0381358116916020013516610ebd565b604080519b8c5260208c019a909a528a8a01989098526001600160a01b0396871660608b015294151560808a015260a089019390935260c088019190915260e087015261010086015215156101208501521661014083015251908190036101600190f35b61033d610f6e565b610273600480360360408110156104b257600080fd5b506001600160a01b0381358116916020013516610fcd565b6104ed600480360360408110156104e057600080fd5b5080359060200135611027565b604080516001600160a01b039092168252519081900360200190f35b61033d6004803603604081101561051f57600080fd5b50803590602001356001600160a01b0316611048565b6104306004803603602081101561054b57600080fd5b5035611060565b6101dc6110a0565b6102e26004803603604081101561057057600080fd5b506001600160a01b03813581169160200135166110a5565b6101dc6004803603602081101561059e57600080fd5b5035611407565b6102e2600480360360408110156105bb57600080fd5b50803590602001356001600160a01b031661141e565b610273600480360360208110156105e757600080fd5b5035611477565b6101dc6004803603604081101561060457600080fd5b506001600160a01b038135811691602001351661148e565b6101dc600480360361010081101561063357600080fd5b506001600160a01b03813581169160208101359091169060408101359060608101359060808101359060a08101359060c08101359060e0013515156114ab565b6101dc6116d5565b60ca5481565b6000600260015414156106c9576040805162461bcd60e51b815260206004820152601f6024820152600080516020612d0f833981519152604482015290519081900360640190fd5b60026001556001600160a01b038916158015906106ee57506001600160a01b03881615155b80156106f957508415155b801561070457508315155b61073b576040805162461bcd60e51b81526020600482015260036024820152622b2a1960e91b604482015290519081900360640190fd5b61074585856116e7565b905084896001600160a01b03166370a082318a6040518263ffffffff1660e01b815260040180826001600160a01b0316815260200191505060206040518083038186803b15801561079557600080fd5b505afa1580156107a9573d6000803e3d6000fd5b505050506040513d60208110156107bf57600080fd5b505110156107cc57600080fd5b6107e96107d761174e565b6001600160a01b038b16903088611752565b60ca80546001908101918290556001600160a01b03808c16600090815260cb60209081526040808320805490950190945560cc8152838220928d1682529190915220819055610846818a8a8a868a8a8a61084161174e565b6117b2565b7fb202c3f08fb28e09344f349ec8dd3dbc7afff036295930c73f97ddff38c3bc00818b8b8b8b8b8b8b8b61087861174e565b604080519a8b526001600160a01b03998a1660208c01529789168a89015260608a0196909652608089019490945260a088019290925260c087015260e086015215156101008501529091166101208301524261014083015251908190036101600190a1506001805598975050505050505050565b600080806001600160a01b038516158061090d57506001600160a01b038416155b156109175761094f565b6001600160a01b03808616600090815260cc6020908152604080832093881683529290522054610946816118d4565b91955093509150505b9250925092565b60009081526097602052604090206002015490565b600080516020612df483398151915281565b6000828152609760205260409020600201546109a09061099b61174e565b611048565b6109db5760405162461bcd60e51b815260040180806020018281038252602f815260200180612ce0602f913960400191505060405180910390fd5b6109e58282611c38565b5050565b60d86020526000908152604090205481565b610a0361174e565b6001600160a01b0316816001600160a01b031614610a525760405162461bcd60e51b815260040180806020018281038252602f815260200180612e60602f913960400191505060405180910390fd5b6109e58282611ca1565b60c95481565b6000610a7e600080516020612dd483398151915261099b61174e565b610ab95760405162461bcd60e51b8152600401808060200182810382526022815260200180612e3e6022913960400191505060405180910390fd5b610ac1611d0a565b50600190565b600060026001541415610b0f576040805162461bcd60e51b815260206004820152601f6024820152600080516020612d0f833981519152604482015290519081900360640190fd5b60026001556001600160a01b03841615801590610b3457506001600160a01b03831615155b8015610b4857506001600160a01b03821615155b610b7f576040805162461bcd60e51b815260206004820152600360248201526256543560e81b604482015290519081900360640190fd5b826001600160a01b0316610b9161174e565b6001600160a01b03161480610bbe5750816001600160a01b0316610bb361174e565b6001600160a01b0316145b80610bde5750610bde600080516020612df483398151915261099b61174e565b610c15576040805162461bcd60e51b81526020600482015260036024820152622b2a1b60e91b604482015290519081900360640190fd5b6001600160a01b03808516600090815260cc602090815260408083209387168352929052205480610c73576040805162461bcd60e51b815260206004820152600360248201526256543760e81b604482015290519081900360640190fd5b610c7c81611daa565b9150846001600160a01b03166370a08231306040518263ffffffff1660e01b815260040180826001600160a01b0316815260200191505060206040518083038186803b158015610ccb57600080fd5b505afa158015610cdf573d6000803e3d6000fd5b505050506040513d6020811015610cf557600080fd5b5051821115610d0057fe5b8115610d1a57610d1a6001600160a01b0386168484611e32565b604080516001600160a01b03808816825280871660208301528516818301526060810184905242608082015290517f622e473ff9b0fdf0725b70cd5aa11e70471d028e6a7ceda8f72c2efa84a6ac5c9181900360a00190a150600180559392505050565b600054610100900460ff1680610d975750610d97611e84565b80610da5575060005460ff16155b610de05760405162461bcd60e51b815260040180806020018281038252602e815260200180612d85602e913960400191505060405180910390fd5b600054610100900460ff16158015610e0b576000805460ff1961ff0019909116610100171660011790555b610e13611e95565b610e1b611f3f565b610e23611fdf565b610e356000610e3061174e565b6109db565b610e4d600080516020612dd4833981519152846109db565b610e65600080516020612df4833981519152836109db565b8015610e77576000805461ff00191690555b505050565b60cb6020526000908152604090205481565b60655460ff1690565b6000808083610ea557610eb6565b610eae8461208a565b919450925090505b9193909250565b6000808080808080808080806001600160a01b038d161580610ee657506001600160a01b038c16155b15610ef057610f5e565b600060cc60008f6001600160a01b03166001600160a01b0316815260200190815260200160002060008e6001600160a01b03166001600160a01b03168152602001908152602001600020549050610f46816122a6565b9b509b509b509b509b509b509b509b509b509b509b50505b9295989b509295989b9093969950565b6000610f8a600080516020612dd483398151915261099b61174e565b610fc55760405162461bcd60e51b8152600401808060200182810382526022815260200180612e3e6022913960400191505060405180910390fd5b610ac1612413565b600080806001600160a01b0385161580610fee57506001600160a01b038416155b15610ff85761094f565b6001600160a01b03808616600090815260cc60209081526040808320938816835292905220546109468161208a565b600082815260976020526040812061103f9083612496565b90505b92915050565b600082815260976020526040812061103f90836124a2565b600080600080600080600080600080600061107a8c6122a6565b9a509a509a509a509a509a509a509a509a509a509a505b91939597999b90929496989a50565b600081565b600260015414156110eb576040805162461bcd60e51b815260206004820152601f6024820152600080516020612d0f833981519152604482015290519081900360640190fd5b60026001556110f8610e8e565b1561113d576040805162461bcd60e51b815260206004820152601060248201526f14185d5cd8589b194e881c185d5cd95960821b604482015290519081900360640190fd5b6001600160a01b0382161580159061115d57506001600160a01b03811615155b611194576040805162461bcd60e51b81526020600482015260036024820152620aca8760eb1b604482015290519081900360640190fd5b6001600160a01b03808316600090815260cc6020908152604080832093851683529290522054806111f2576040805162461bcd60e51b815260206004820152600360248201526256543960e81b604482015290519081900360640190fd5b600081815260d760205260409020546001600160a01b0390811690831661121761174e565b6001600160a01b031614806112445750806001600160a01b031661123961174e565b6001600160a01b0316145b806112645750611264600080516020612df483398151915261099b61174e565b61129e576040805162461bcd60e51b815260206004808301919091526024820152630565431360e41b604482015290519081900360640190fd5b600082815260d1602052604090205460ff1680156112e45750600082815260d5602090815260408083205460d383528184205460d29093529220546112e2916124b7565b115b61131e576040805162461bcd60e51b815260206004808301919091526024820152632b2a189960e11b604482015290519081900360640190fd5b6000611329836118d4565b50909150508015611371576113486001600160a01b0386168583611e32565b600083815260d560205260409020546113619082612510565b600084815260d560205260409020555b600083815260d860209081526040808320429081905560ce90925290912054116113ac57600083815260d160205260409020805460ff191690555b604080516001600160a01b0380881682528616602082015280820183905242606082015290517fe66d51f31c8a9131ea2d5eeef8ef1bb6c991a682392cf84096e45f04933f57349181900360800190a1505060018055505050565b60008181526097602052604081206110429061256a565b60008281526097602052604090206002015461143c9061099b61174e565b610a525760405162461bcd60e51b8152600401808060200182810382526030815260200180612d556030913960400191505060405180910390fd5b600080808361148557610eb6565b610eae846118d4565b60cc60209081526000928352604080842090915290825290205481565b6000600260015414156114f3576040805162461bcd60e51b815260206004820152601f6024820152600080516020612d0f833981519152604482015290519081900360640190fd5b60026001556001600160a01b0389161580159061151857506001600160a01b03881615155b801561152357508415155b801561152e57508315155b611565576040805162461bcd60e51b815260206004820152600360248201526256543360e81b604482015290519081900360640190fd5b61156f85856124b7565b905080896001600160a01b03166370a0823161158961174e565b6040518263ffffffff1660e01b815260040180826001600160a01b0316815260200191505060206040518083038186803b1580156115c657600080fd5b505afa1580156115da573d6000803e3d6000fd5b505050506040513d60208110156115f057600080fd5b5051101561162e576040805162461bcd60e51b815260206004808301919091526024820152635654313160e01b604482015290519081900360640190fd5b61164b61163961174e565b6001600160a01b038b16903084611752565b60ca80546001908101918290556001600160a01b03808c16600090815260cb60209081526040808320805490950190945560cc8152838220928d16825291909152208190556116a3818a8a8a8a8a8a8a61084161174e565b7f8ab096c8e89db3c4e8214cdf5815512e3b8b066274966b6078000d5be951867f818b8b8b8b8b8b8b8b61087861174e565b600080516020612dd483398151915281565b600080821161173d576040805162461bcd60e51b815260206004820152601a60248201527f536166654d6174683a206469766973696f6e206279207a65726f000000000000604482015290519081900360640190fd5b81838161174657fe5b049392505050565b3390565b604080516001600160a01b0380861660248301528416604482015260648082018490528251808303909101815260849091019091526020810180516001600160e01b03166323b872dd60e01b1790526117ac908590612575565b50505050565b600089815260d1602052604090205460ff16156117fc576040805162461bcd60e51b815260206004820152600360248201526256543160e81b604482015290519081900360640190fd5b600061182661181661180f876001612626565b86906124b7565b6118208a8a612510565b90612510565b60009a8b5260cd60209081526040808d209a909a5560ce8152898c209190915560cf8152888b20979097555060d0865286892080546001600160a01b03199081166001600160a01b039a8b161790915560d18752878a20805460ff1990811660011790915560d28852888b209690965560d38752878a209490945560d486528689209290925560d6855285882080549094169015151790925560d79092529190932080549093169116179055565b600081815260d8602090815260408083205460cf83528184205460cd909352908320548392839291839182918291829161190d91612510565b421161191d575050505050610eb6565b600089815260d1602052604090205460ff1615806119495750600089815260ce60205260409020548510155b15611958575050505050610eb6565b600089815260cf602090815260408083205460cd9092529091205461197c91612510565b851061198857846119ac565b600089815260cf602090815260408083205460cd909252909120546119ac91612510565b60008a815260ce602052604090205490935042116119ca57426119da565b600089815260ce60205260409020545b60008a815260cd602052604090205490925085106119f85784611a08565b600089815260cd60205260409020545b9450611a148286612626565b9650611a208284612626565b60008a815260d46020526040902054909150611a3d908290612683565b60008a815260d6602052604090205490945060ff1615611b9f57600089815260cf602090815260408083205460cd90925290912054611a7b91612510565b831115611ad15760008411611aa957600089815260d46020526040902054611aa49082906116e7565b611aca565b600089815260d46020526040902054611aca906001906118209084906116e7565b9550611b23565b60008411611aff57600089815260d46020526040902054611afa906001906118209084906116e7565b611b20565b600089815260d46020526040902054611b20906002906118209084906116e7565b95505b60008411611b4a57600089815260d26020526040902054611b459087906124b7565b611b98565b600089815260d26020526040902054611b9890611b7290611b6c896001612626565b906124b7565b60008b815260d2602090815260408083205460d4909252909120546118209188916126ea565b9750611c2c565b600089815260cf602090815260408083205460cd90925290912054611bc391612510565b831115611beb57600089815260d46020526040902054611be49082906116e7565b9550611c0f565b600089815260d46020526040902054611c0c906001906118209084906116e7565b95505b600089815260d26020526040902054611c299087906124b7565b97505b50505050509193909250565b6000828152609760205260409020611c5090826127a5565b156109e557611c5d61174e565b6001600160a01b0316816001600160a01b0316837f2f8788117e7eff1d82e926ec794901d17c78024a50270940304540a733656f0d60405160405180910390a45050565b6000828152609760205260409020611cb990826127ba565b156109e557611cc661174e565b6001600160a01b0316816001600160a01b0316837ff6391f5c32d9c69d2a47ea670b442974b53935d1edc7fd64eb21e047a839171b60405160405180910390a45050565b611d12610e8e565b611d5a576040805162461bcd60e51b815260206004820152601460248201527314185d5cd8589b194e881b9bdd081c185d5cd95960621b604482015290519081900360640190fd5b6065805460ff191690557f5db9ee0a495bf2e6ff9c91a7834c1ba4fdd244a5e8aa4e537bd38aeae4b073aa611d8d61174e565b604080516001600160a01b039092168252519081900360200190a1565b600081815260d1602052604081205460ff168015611dd55750600082815260ce602052604090205442105b611e0c576040805162461bcd60e51b815260206004820152600360248201526215950d60ea1b604482015290519081900360640190fd5b611e158261208a565b5050600092835260d16020526040909220805460ff191690555090565b604080516001600160a01b038416602482015260448082018490528251808303909101815260649091019091526020810180516001600160e01b031663a9059cbb60e01b179052610e77908490612575565b6000611e8f306127cf565b15905090565b600054610100900460ff1680611eae5750611eae611e84565b80611ebc575060005460ff16155b611ef75760405162461bcd60e51b815260040180806020018281038252602e815260200180612d85602e913960400191505060405180910390fd5b600054610100900460ff16158015611f22576000805460ff1961ff0019909116610100171660011790555b611f2a6127d5565b8015611f3c576000805461ff00191690555b50565b600054610100900460ff1680611f585750611f58611e84565b80611f66575060005460ff16155b611fa15760405162461bcd60e51b815260040180806020018281038252602e815260200180612d85602e913960400191505060405180910390fd5b600054610100900460ff16158015611f2a576000805460ff1961ff0019909116610100171660011790558015611f3c576000805461ff001916905550565b600054610100900460ff1680611ff85750611ff8611e84565b80612006575060005460ff16155b6120415760405162461bcd60e51b815260040180806020018281038252602e815260200180612d85602e913960400191505060405180910390fd5b600054610100900460ff1615801561206c576000805460ff1961ff0019909116610100171660011790555b6065805460ff191690558015611f3c576000805461ff001916905550565b600081815260d8602090815260408083205460cf83528184205460cd90935290832054839283929183916120be9190612510565b821161211f57600086815260d3602090815260408083205460d2909252909120546120e8916124b7565b600087815260ce60205260409020546121019084612626565b600088815260d3602052604090205491965094509250610eb6915050565b600086815260d1602052604090205460ff16158061214b5750600086815260ce60205260409020548210155b15612157575050610eb6565b600086815260ce60205260409020546121709083612626565b600087815260d4602052604090205490945061218d908590612683565b600087815260d6602052604090205490915060ff161561223557600086815260d460205260409020546121c19085906116e7565b9250600081116121ea57600086815260d260205260409020546121e59084906124b7565b61222e565b600086815260d2602052604090205461222e906122089085906124b7565b600088815260d2602090815260408083205460d4909252909120546118209185916126ea565b945061229d565b6000811161225c57600086815260d460205260409020546122579085906116e7565b61227d565b600086815260d4602052604090205461227d906001906118209087906116e7565b600087815260d2602052604090205490935061229a9084906124b7565b94505b50509193909250565b6000808080808080808080808b6122bc57611091565b60cd600060ca5481526020019081526020016000205460ce600060ca5481526020019081526020016000205460cf600060ca5481526020019081526020016000205460d0600060ca54815260200190815260200160002060009054906101000a90046001600160a01b031660d1600060ca54815260200190815260200160002060009054906101000a900460ff1660d2600060ca5481526020019081526020016000205460d3600060ca5481526020019081526020016000205460d4600060ca5481526020019081526020016000205460d5600060ca5481526020019081526020016000205460d6600060ca54815260200190815260200160002060009054906101000a900460ff1660d7600060ca54815260200190815260200160002060009054906101000a90046001600160a01b03169a509a509a509a509a509a509a509a509a509a509a5091939597999b90929496989a50565b61241b610e8e565b15612460576040805162461bcd60e51b815260206004820152601060248201526f14185d5cd8589b194e881c185d5cd95960821b604482015290519081900360640190fd5b6065805460ff191660011790557f62e78cea01bee320cd4e420270b5ea74000d11b0c9f74754ebdbfc544b05a258611d8d61174e565b600061103f838361287a565b600061103f836001600160a01b0384166128de565b6000826124c657506000611042565b828202828482816124d357fe5b041461103f5760405162461bcd60e51b8152600401808060200182810382526021815260200180612db36021913960400191505060405180910390fd5b60008282018381101561103f576040805162461bcd60e51b815260206004820152601b60248201527f536166654d6174683a206164646974696f6e206f766572666c6f770000000000604482015290519081900360640190fd5b6000611042826128f6565b60006125ca826040518060400160405280602081526020017f5361666545524332303a206c6f772d6c6576656c2063616c6c206661696c6564815250856001600160a01b03166128fa9092919063ffffffff16565b805190915015610e77578080602001905160208110156125e957600080fd5b5051610e775760405162461bcd60e51b815260040180806020018281038252602a815260200180612e14602a913960400191505060405180910390fd5b60008282111561267d576040805162461bcd60e51b815260206004820152601e60248201527f536166654d6174683a207375627472616374696f6e206f766572666c6f770000604482015290519081900360640190fd5b50900390565b60008082116126d9576040805162461bcd60e51b815260206004820152601860248201527f536166654d6174683a206d6f64756c6f206279207a65726f0000000000000000604482015290519081900360640190fd5b8183816126e257fe5b069392505050565b60008060006126f98686612911565b915091506000848061270757fe5b86880990508281111561271b576001820391505b9182900391816127395784838161272e57fe5b04935050505061279e565b84821061278d576040805162461bcd60e51b815260206004820152601a60248201527f46756c6c4d6174683a2046554c4c4449565f4f564552464c4f57000000000000604482015290519081900360640190fd5b61279883838761293e565b93505050505b9392505050565b600061103f836001600160a01b0384166129ae565b600061103f836001600160a01b0384166129f8565b3b151590565b600054610100900460ff16806127ee57506127ee611e84565b806127fc575060005460ff16155b6128375760405162461bcd60e51b815260040180806020018281038252602e815260200180612d85602e913960400191505060405180910390fd5b600054610100900460ff16158015612862576000805460ff1961ff0019909116610100171660011790555b600180558015611f3c576000805461ff001916905550565b815460009082106128bc5760405162461bcd60e51b8152600401808060200182810382526022815260200180612cbe6022913960400191505060405180910390fd5b8260000182815481106128cb57fe5b9060005260206000200154905092915050565b60009081526001919091016020526040902054151590565b5490565b60606129098484600085612abe565b949350505050565b6000808060001984860990508385029250828103915082811015612936576001820391505b509250929050565b6000818103821680838161294e57fe5b04925080858161295a57fe5b04945080816000038161296957fe5b60028581038087028203028087028203028087028203028087028203028087028203028087028203029586029003909402930460010193909302939093010292915050565b60006129ba83836128de565b6129f057508154600181810184556000848152602080822090930184905584548482528286019093526040902091909155611042565b506000611042565b60008181526001830160205260408120548015612ab45783546000198083019190810190600090879083908110612a2b57fe5b9060005260206000200154905080876000018481548110612a4857fe5b600091825260208083209091019290925582815260018981019092526040902090840190558654879080612a7857fe5b60019003818190600052602060002001600090559055866001016000878152602001908152602001600020600090556001945050505050611042565b6000915050611042565b606082471015612aff5760405162461bcd60e51b8152600401808060200182810382526026815260200180612d2f6026913960400191505060405180910390fd5b612b08856127cf565b612b59576040805162461bcd60e51b815260206004820152601d60248201527f416464726573733a2063616c6c20746f206e6f6e2d636f6e7472616374000000604482015290519081900360640190fd5b600080866001600160a01b031685876040518082805190602001908083835b60208310612b975780518252601f199092019160209182019101612b78565b6001836020036101000a03801982511681845116808217855250505050505090500191505060006040518083038185875af1925050503d8060008114612bf9576040519150601f19603f3d011682016040523d82523d6000602084013e612bfe565b606091505b5091509150612c0e828286612c19565b979650505050505050565b60608315612c2857508161279e565b825115612c385782518084602001fd5b8160405162461bcd60e51b81526004018080602001828103825283818151815260200191508051906020019080838360005b83811015612c82578181015183820152602001612c6a565b50505050905090810190601f168015612caf5780820380516001836020036101000a031916815260200191505b509250505060405180910390fdfe456e756d657261626c655365743a20696e646578206f7574206f6620626f756e6473416363657373436f6e74726f6c3a2073656e646572206d75737420626520616e2061646d696e20746f206772616e745265656e7472616e637947756172643a207265656e7472616e742063616c6c00416464726573733a20696e73756666696369656e742062616c616e636520666f722063616c6c416363657373436f6e74726f6c3a2073656e646572206d75737420626520616e2061646d696e20746f207265766f6b65496e697469616c697a61626c653a20636f6e747261637420697320616c726561647920696e697469616c697a6564536166654d6174683a206d756c7469706c69636174696f6e206f766572666c6f7765d7a28e3265b37a6474929f336521b332c1681b933f6cb9f3376673440d862a6a7a39ad350f111635f4a31ec3e3e5ca2f76f78880b843ba3f8705d7d3ac3eb95361666545524332303a204552433230206f7065726174696f6e20646964206e6f74207375636365656456657374696e6754696d656c6f636b3a20556e617574686f72697a65642055736572416363657373436f6e74726f6c3a2063616e206f6e6c792072656e6f756e636520726f6c657320666f722073656c66a26469706673582212202864996bd324498c26983178ed3e7fb66865f3f4f65821a378f2354fde98cccf64736f6c63430007060033",
  "immutableReferences": {},
  "source": "// SPDX-License-Identifier: Unlicensed\npragma solidity >=0.7.0;\n\nimport \"@openzeppelin/contracts-upgradeable/proxy/Initializable.sol\";\nimport \"@openzeppelin/contracts-upgradeable/math/SafeMathUpgradeable.sol\";\nimport \"@openzeppelin/contracts-upgradeable/proxy/Initializable.sol\";\nimport \"@openzeppelin/contracts-upgradeable/access/AccessControlUpgradeable.sol\";\nimport \"@openzeppelin/contracts-upgradeable/utils/PausableUpgradeable.sol\";\nimport \"@openzeppelin/contracts-upgradeable/utils/ReentrancyGuardUpgradeable.sol\";\nimport \"@openzeppelin/contracts-upgradeable/token/ERC20/SafeERC20Upgradeable.sol\";\nimport \"@openzeppelin/contracts-upgradeable/token/ERC20/IERC20Upgradeable.sol\";\nimport \"./libraries/FullMath.sol\";\nimport \"./interfaces/IVestingTimelockV2.sol\";\n\n/**\n * @dev A token holder contract that will allow a beneficiary to extract the\n * tokens after a given release time.\n * Supports multiple vesting strategies like Cliffed, Continuous, Stepped etc.\n */\ncontract VestingTimelockV2 is\n  Initializable,\n  IVestingTimelockV2,\n  ReentrancyGuardUpgradeable,\n  PausableUpgradeable,\n  AccessControlUpgradeable\n{\n  // including libraries\n  using SafeERC20Upgradeable for IERC20Upgradeable;\n  using SafeMathUpgradeable for uint256;\n  using FullMath for uint256;\n\n  // Access Roles\n  bytes32 public constant PAUSER_ROLE = keccak256(\"PAUSER_ROLE\");\n  bytes32 public constant GRANT_ADMIN_ROLE = keccak256(\"GRANT_ADMIN_ROLE\");\n\n  // variable pertaining to contract upgrades versioning\n  uint256 public _version;\n\n  // Vesting grant identifier\n  uint256 public _id;\n  mapping(address => uint256) public _grantCount;\n  mapping(address => mapping(address => uint256)) public _beneficiaryID;\n\n  // Vesting grant parameters mapped to grant ID\n  mapping(uint256 => uint256) _startTime;\n  mapping(uint256 => uint256) _endTime;\n  mapping(uint256 => uint256) _cliffPeriod;\n  mapping(uint256 => address) _beneficiary;\n  mapping(uint256 => bool) _isActive;\n  mapping(uint256 => uint256) _instalmentAmount;\n  mapping(uint256 => uint256) _instalmentCount;\n  mapping(uint256 => uint256) _instalmentPeriod;\n  mapping(uint256 => uint256) _amountReceived;\n  mapping(uint256 => bool) _isContinuousVesting;\n  mapping(uint256 => address) _grantManager;\n\n  // Last claimed timestamp mapped to grant ID\n  mapping(uint256 => uint256) public _lastClaimedTimestamp;\n\n  /**\n  * @dev Constructor for initializing the Vesting Timelock contract.\n  * @param pauserAddress_ - address of the pauser admin.\n  * @param grantAdminAddress_ - address of the grant admin.\n  */\n  function initialize(address pauserAddress_, address grantAdminAddress_)\n    public\n    virtual\n    initializer\n  {\n    __ReentrancyGuard_init();\n    __AccessControl_init_unchained();\n    __Pausable_init_unchained();\n    _setupRole(DEFAULT_ADMIN_ROLE, _msgSender());\n    _setupRole(PAUSER_ROLE, pauserAddress_);\n    _setupRole(GRANT_ADMIN_ROLE, grantAdminAddress_);\n  }\n\n  /**\n   * @dev Get the details of the vesting grant for a user\n   * @param id_: vesting grant user id\n   */\n  function _getGrant(uint256 id_)\n    internal\n    view\n    returns (\n      uint256 startTime,\n      uint256 endTime,\n      uint256 cliffTime,\n      address beneficiary,\n      bool isActive,\n      uint256 instalmentAmount,\n      uint256 instalmentCount,\n      uint256 instalmentPeriod,\n      uint256 amountReceived,\n      bool isContinuousVesting,\n      address grantManager\n    )\n  {\n    if (id_ == 0) {\n      return (\n        startTime,\n        endTime,\n        cliffTime,\n        beneficiary,\n        isActive,\n        instalmentAmount,\n        instalmentCount,\n        instalmentPeriod,\n        amountReceived,\n        isContinuousVesting,\n        grantManager\n      );\n    }\n\n    return (\n      _startTime[_id],\n      _endTime[_id],\n      _cliffPeriod[_id],\n      _beneficiary[_id],\n      _isActive[_id],\n      _instalmentAmount[_id],\n      _instalmentCount[_id],\n      _instalmentPeriod[_id],\n      _amountReceived[_id],\n      _isContinuousVesting[_id],\n      _grantManager[_id]\n    );\n  }\n\n  /**\n   * @dev Get the details of the vesting grant for a user\n   * @param token_: address of token\n   * @param beneficiary_: address of beneficiary\n   */\n  function getGrant(address token_, address beneficiary_)\n    public\n    view\n    virtual\n    override\n    returns (\n      uint256 startTime,\n      uint256 endTime,\n      uint256 cliffTime,\n      address beneficiary,\n      bool isActive,\n      uint256 instalmentAmount,\n      uint256 instalmentCount,\n      uint256 instalmentPeriod,\n      uint256 amountReceived,\n      bool isContinuousVesting,\n      address grantManager\n    )\n  {\n    if (token_ == address(0) || beneficiary_ == address(0)) {\n      return (\n        startTime,\n        endTime,\n        cliffTime,\n        beneficiary,\n        isActive,\n        instalmentAmount,\n        instalmentCount,\n        instalmentPeriod,\n        amountReceived,\n        isContinuousVesting,\n        grantManager\n      );\n    }\n    uint256 id = _beneficiaryID[token_][beneficiary_];\n    return _getGrant(id);\n  }\n\n  /**\n   * @dev get the details of the vesting grant for a user from id\n   * @param id_: vesting grant for a user id\n   */\n  function getGrantFromID(uint256 id_)\n    public\n    view\n    virtual\n    override\n    returns (\n      uint256 startTime,\n      uint256 endTime,\n      uint256 cliffTime,\n      address beneficiary,\n      bool isActive,\n      uint256 instalmentAmount,\n      uint256 instalmentCount,\n      uint256 instalmentPeriod,\n      uint256 amountReceived,\n      bool isContinuousVesting,\n      address grantManager\n    )\n  {\n    return _getGrant(id_);\n  }\n\n  /**\n    * @dev calculate the pending time in the currently vesting installment\n    * @param id_: vesting grant for a user id\n    */\n  function _getPending(uint256 id_)\n    internal\n    view\n    returns (\n      uint256 pendingAmount,\n      uint256 pendingTime,\n      uint256 pendingInstalment\n    )\n  {\n    uint256 lastClaimedTimestamp = _lastClaimedTimestamp[id_];\n    uint256 instalmentPeriodRemainder;\n    uint256 lowerTimestamp;\n    uint256 higherTimestamp;\n    uint256 pendingVestingTime;\n\n    // if cliff time is not crossed by lastClaimedTimestamp, return the full amount and instalment count\n    if (block.timestamp <= _startTime[id_].add(_cliffPeriod[id_])) {\n      return (pendingAmount, pendingTime, pendingInstalment);\n    }\n\n    // if the last claimed timstamp has crossed the endTime, return zero\n    if (!_isActive[id_] || lastClaimedTimestamp >= _endTime[id_])\n      return (pendingAmount, pendingTime, pendingInstalment);\n\n    lowerTimestamp = (lastClaimedTimestamp <\n      _startTime[id_].add(_cliffPeriod[id_]))\n      ? _startTime[id_].add(_cliffPeriod[id_])\n      : lastClaimedTimestamp;\n\n    higherTimestamp = (block.timestamp > _endTime[id_])\n      ? _endTime[id_]\n      : block.timestamp;\n\n    lastClaimedTimestamp = (\n      lastClaimedTimestamp < _startTime[id_]\n        ? _startTime[id_]\n        : lastClaimedTimestamp\n    );\n\n    // calculate pending time between last claimed and current time\n    pendingTime = higherTimestamp.sub(lastClaimedTimestamp);\n    pendingVestingTime = higherTimestamp.sub(lowerTimestamp);\n\n    // calculate the pending time in the currently vesting instalment\n    instalmentPeriodRemainder = pendingVestingTime.mod(_instalmentPeriod[id_]);\n\n    // calculate pendingAmount as per vesting mode\n    if (_isContinuousVesting[id_]) {\n      // _instalmentPeriod[id_] zero condition need not be checked as it would come under already elapsed grant's end time\n      if (lowerTimestamp > _startTime[id_].add(_cliffPeriod[id_])) {\n        pendingInstalment = (instalmentPeriodRemainder > 0)\n          ? (pendingVestingTime.div(_instalmentPeriod[id_])).add(1)\n          : (pendingVestingTime.div(_instalmentPeriod[id_]));\n      } else {\n        pendingInstalment = (instalmentPeriodRemainder > 0)\n          ? (pendingVestingTime.div(_instalmentPeriod[id_])).add(2)\n          : (pendingVestingTime.div(_instalmentPeriod[id_])).add(1);\n      }\n\n      // pending amount will contain the amount pro-rated to the time diff component also, along with the pendingInstalment\n      pendingAmount = (instalmentPeriodRemainder > 0)\n        ? (\n          (\n            instalmentPeriodRemainder.mulDiv(\n              _instalmentAmount[id_],\n              _instalmentPeriod[id_]\n            )\n          ).add((pendingInstalment.sub(1)).mul(_instalmentAmount[id_]))\n        )\n        : (pendingInstalment.mul(_instalmentAmount[id_]));\n    } else {\n      // _instalmentPeriod[id_] zero condition need not be checked as it would come under already elapsed grant's end time\n      if (lowerTimestamp > _startTime[id_].add(_cliffPeriod[id_])) {\n        pendingInstalment = (pendingVestingTime.div(_instalmentPeriod[id_]));\n      } else {\n        pendingInstalment = (pendingVestingTime.div(_instalmentPeriod[id_]))\n          .add(1);\n      }\n\n      // pending amount will be directly derived from pendingInstalment\n      pendingAmount = pendingInstalment.mul(_instalmentAmount[id_]);\n    }\n  }\n\n  /**\n    * @dev calculate the pending time in the currently vesting installment\n    * @param token_: token address\n    * @param beneficiary_: beneficiary address\n    */\n  function getPending(address token_, address beneficiary_)\n    public\n    view\n    virtual\n    override\n    returns (\n      uint256 pendingAmount,\n      uint256 pendingTime,\n      uint256 pendingInstalment\n    )\n  {\n    if (token_ == address(0) || beneficiary_ == address(0))\n      return (pendingAmount, pendingTime, pendingInstalment);\n\n    uint256 id = _beneficiaryID[token_][beneficiary_];\n    (pendingAmount, pendingTime, pendingInstalment) = _getPending(id);\n  }\n\n  /**\n    * @dev calculate the pending time in the currently vesting installment from user id\n    * @param id_: user id\n    */\n  function getPendingFromID(uint256 id_)\n    public\n    view\n    virtual\n    override\n    returns (\n      uint256 pendingAmount,\n      uint256 pendingTime,\n      uint256 pendingInstalment\n    )\n  {\n    if (id_ == 0) return (pendingAmount, pendingTime, pendingInstalment);\n    (pendingAmount, pendingTime, pendingInstalment) = _getPending(id_);\n  }\n\n  /**\n    * @dev calculate the remaining amount\n    * @param id_: user id\n    */\n  function _getRemaining(uint256 id_)\n    internal\n    view\n    returns (\n      uint256 remainingAmount,\n      uint256 remainingTime,\n      uint256 remainingInstalment\n    )\n  {\n    uint256 lastClaimedTimestamp = _lastClaimedTimestamp[id_];\n    uint256 instalmentPeriodRemainder;\n\n    // if cliff time is not crossed by lastClaimedTimestamp, return the full amount and instalment count\n    if (lastClaimedTimestamp <= _startTime[id_].add(_cliffPeriod[id_])) {\n      return (\n        _instalmentAmount[id_].mul(_instalmentCount[id_]),\n        _endTime[id_].sub(lastClaimedTimestamp),\n        _instalmentCount[id_]\n      );\n    }\n\n    // if the last claimed timstamp has crossed the endTime, return zero\n    if (!_isActive[id_] || lastClaimedTimestamp >= _endTime[id_])\n      return (remainingAmount, remainingTime, remainingInstalment);\n\n    // if cliff time is crossed then calculate the remaining data by taking the ratio\n    remainingTime = _endTime[id_].sub(lastClaimedTimestamp);\n\n    // calculate the remaining time in the currently vesting instalment\n    instalmentPeriodRemainder = remainingTime.mod(_instalmentPeriod[id_]);\n\n    // calculate remainingAmount as per vesting mode\n    if (_isContinuousVesting[id_]) {\n      // _instalmentPeriod[id_] zero condition need not be checked as it would come under already elapsed grant's end time\n      remainingInstalment = (remainingTime.div(_instalmentPeriod[id_]));\n\n      remainingAmount = (instalmentPeriodRemainder > 0)\n        ? (\n          (\n            instalmentPeriodRemainder.mulDiv(\n              _instalmentAmount[id_],\n              _instalmentPeriod[id_]\n            )\n          ).add((remainingInstalment).mul(_instalmentAmount[id_]))\n        )\n        : (remainingInstalment.mul(_instalmentAmount[id_]));\n    } else {\n      // _instalmentPeriod[id_] zero condition need not be checked as it would come under already elapsed grant's end time\n      remainingInstalment = (instalmentPeriodRemainder > 0)\n        ? (remainingTime.div(_instalmentPeriod[id_])).add(1)\n        : (remainingTime.div(_instalmentPeriod[id_]));\n\n      remainingAmount = remainingInstalment.mul(_instalmentAmount[id_]);\n    }\n  }\n\n  /**\n    * @dev calculate the remaining amount\n    * @param token_: token address\n    * @param beneficiary_: beneficiary address\n    */\n  function getRemaining(address token_, address beneficiary_)\n    public\n    view\n    virtual\n    override\n    returns (\n      uint256 remainingAmount,\n      uint256 remainingTime,\n      uint256 remainingInstalment\n    )\n  {\n    if (token_ == address(0) || beneficiary_ == address(0))\n      return (remainingAmount, remainingTime, remainingInstalment);\n\n    uint256 id = _beneficiaryID[token_][beneficiary_];\n    (remainingAmount, remainingTime, remainingInstalment) = _getRemaining(id);\n  }\n\n  /**\n    * @dev calculate the remaining amount from user id\n    * @param id_: user id\n    */\n  function getRemainingFromID(uint256 id_)\n    public\n    view\n    virtual\n    override\n    returns (\n      uint256 remainingAmount,\n      uint256 remainingTime,\n      uint256 remainingInstalment\n    )\n  {\n    if (id_ == 0) return (remainingAmount, remainingTime, remainingInstalment);\n    (remainingAmount, remainingTime, remainingInstalment) = _getRemaining(id_);\n  }\n\n  /**\n    * @dev Transfers tokens held by beneficiary to timelock.\n    * @param id_: user id\n    * @param beneficiary_: beneficiary address\n    * @param startTime_: start time\n    * @param cliffPeriod_: initial waiting period\n    * @param instalmentAmount_: instalment amount\n    * @param instalmentCount_: instalment count\n    * @param instalmentPeriod_: instalment period\n    * @param isContinuousVesting_: vesting required or not\n    * @param grantManager: grant manager address\n    */\n  function _addGrant(\n    uint256 id_,\n    address beneficiary_,\n    uint256 startTime_,\n    uint256 cliffPeriod_,\n    uint256 instalmentAmount_,\n    uint256 instalmentCount_,\n    uint256 instalmentPeriod_,\n    bool isContinuousVesting_,\n    address grantManager\n  ) internal {\n    // Require statement to check if grant is already active\n    require(!_isActive[id_], \"VT1\");\n    uint256 endTime = startTime_.add(cliffPeriod_).add(\n      instalmentPeriod_.mul(instalmentCount_.sub(1))\n    );\n\n    _startTime[id_] = startTime_;\n    _endTime[id_] = endTime;\n    _cliffPeriod[id_] = cliffPeriod_;\n    _beneficiary[id_] = beneficiary_;\n    _isActive[id_] = true;\n    _instalmentAmount[id_] = instalmentAmount_;\n    _instalmentCount[id_] = instalmentCount_;\n    _instalmentPeriod[id_] = instalmentPeriod_;\n    _isContinuousVesting[id_] = isContinuousVesting_;\n    _grantManager[id_] = grantManager;\n  }\n\n  /**\n    * @dev Transfers tokens held by beneficiary to timelock.\n    * @param token_: token address\n    * @param beneficiary_: beneficiary address\n    * @param startTime_: start time\n    * @param cliffPeriod_: initial waiting period\n    * @param totalAmount_: amount\n    * @param instalmentCount_: instalment count\n    * @param instalmentPeriod_: instalment period\n    * @param isContinuousVesting_: vesting required or not\n    *\n    * Emits a {AddGrant} event.\n    */\n  function addGrant(\n    address token_,\n    address beneficiary_,\n    uint256 startTime_,\n    uint256 cliffPeriod_,\n    uint256 totalAmount_,\n    uint256 instalmentCount_,\n    uint256 instalmentPeriod_,\n    bool isContinuousVesting_\n  ) public virtual override nonReentrant returns (uint256 instalmentAmount) {\n    // Require statements to for transaction sanity check\n    require(\n      token_ != address(0) &&\n        beneficiary_ != address(0) &&\n        totalAmount_ != 0 &&\n        instalmentCount_ != 0,\n      \"VT2\"\n    );\n\n    // check the calling address has sufficient tokens and then transfer tokens to this contract\n    instalmentAmount = totalAmount_.div(instalmentCount_);\n    require(IERC20Upgradeable(token_).balanceOf(beneficiary_) >= totalAmount_);\n    IERC20Upgradeable(token_).safeTransferFrom(\n      _msgSender(),\n      address(this),\n      totalAmount_\n    );\n\n    // generate a new id and allocate to the beneficiary\n    uint256 id = ++_id;\n    _grantCount[token_]++;\n    // add beneficiary to beneficiaryID\n    _beneficiaryID[token_][beneficiary_] = id;\n\n    _addGrant(\n      id,\n      beneficiary_,\n      startTime_,\n      cliffPeriod_,\n      instalmentAmount,\n      instalmentCount_,\n      instalmentPeriod_,\n      isContinuousVesting_,\n      _msgSender()\n    );\n\n    emit AddGrant(\n      id,\n      token_,\n      beneficiary_,\n      startTime_,\n      cliffPeriod_,\n      totalAmount_,\n      instalmentCount_,\n      instalmentPeriod_,\n      isContinuousVesting_,\n      _msgSender(),\n      block.timestamp\n    );\n  }\n\n  /**\n    * @dev Transfers tokens held by beneficiary to timelock in installments\n    * @param token_: token address\n    * @param beneficiary_: beneficiary address\n    * @param startTime_: start time\n    * @param cliffPeriod_: initial waiting period\n    * @param instalmentAmount_: installment amount\n    * @param instalmentCount_: instalment count\n    * @param instalmentPeriod_: instalment period\n    * @param isContinuousVesting_: vesting required or not\n    *\n    * Emits a {AddGrantAsInstalment} event.\n    */\n  function addGrantAsInstalment(\n    address token_,\n    address beneficiary_,\n    uint256 startTime_,\n    uint256 cliffPeriod_,\n    uint256 instalmentAmount_,\n    uint256 instalmentCount_,\n    uint256 instalmentPeriod_,\n    bool isContinuousVesting_\n  ) public virtual override nonReentrant returns (uint256 totalVestingAmount) {\n    // Require statements to for transaction sanity check\n    require(\n      token_ != address(0) &&\n        beneficiary_ != (address(0)) &&\n        instalmentAmount_ != 0 &&\n        instalmentCount_ != 0,\n      \"VT3\"\n    );\n\n    // check the calling address has suffecient tokens and then transfer tokens to this contract\n    totalVestingAmount = instalmentAmount_.mul(instalmentCount_);\n\n    require(\n      IERC20Upgradeable(token_).balanceOf(_msgSender()) >= totalVestingAmount,\n      \"VT11\"\n    );\n\n    IERC20Upgradeable(token_).safeTransferFrom(\n      _msgSender(),\n      address(this),\n      totalVestingAmount\n    );\n\n    // generate a new id and allocate to the beneficiary\n    uint256 id = ++_id;\n    _grantCount[token_]++;\n    // add beneficiary to beneficiaryID\n    _beneficiaryID[token_][beneficiary_] = id;\n\n    _addGrant(\n      id,\n      beneficiary_,\n      startTime_,\n      cliffPeriod_,\n      instalmentAmount_,\n      instalmentCount_,\n      instalmentPeriod_,\n      isContinuousVesting_,\n      _msgSender()\n    );\n\n    emit AddGrantAsInstalment(\n      id,\n      token_,\n      beneficiary_,\n      startTime_,\n      cliffPeriod_,\n      instalmentAmount_,\n      instalmentCount_,\n      instalmentPeriod_,\n      isContinuousVesting_,\n      _msgSender(),\n      block.timestamp\n    );\n  }\n\n  /**\n    * @dev Revoke grant tokens held by timelock to beneficiary.\n    * @param id_: user id\n    *\n    * Emits a {AddGrantAsInstalment} event.\n    */\n  function _revokeGrant(uint256 id_)\n    internal\n    returns (uint256 remainingAmount)\n  {\n    // require the end date for grant to not have passed\n    require(_isActive[id_] && _endTime[id_] > block.timestamp, \"VT4\");\n\n    (remainingAmount, , ) = _getRemaining(id_);\n    // deactivate the grant (keep other values intact)\n    _isActive[id_] = false;\n  }\n\n  /**\n    * @dev Revoke grant tokens held by timelock to beneficiary.\n    * @param token_: token address\n    * @param beneficiary_: beneficiary address\n    * @param grantManager_: grant manager address\n    *\n    * Emits a {RevokeGrant} event.\n    */\n  function revokeGrant(\n    address token_,\n    address beneficiary_,\n    address grantManager_\n  ) public virtual override nonReentrant returns (uint256 remainingAmount) {\n    // require beneficiary not be address(0)\n    require(\n      token_ != address(0) &&\n        beneficiary_ != (address(0)) &&\n        grantManager_ != address(0),\n      \"VT5\"\n    );\n\n    // Grant can be revoked by the beneficiary, grant manager or GRANT ADMIN defined in the contract\n    require(\n      _msgSender() == beneficiary_ ||\n        _msgSender() == grantManager_ ||\n        hasRole(GRANT_ADMIN_ROLE, _msgSender()),\n      \"VT6\"\n    );\n\n    // get the ID and delete corresponding _beneficiaryID value\n    uint256 id = _beneficiaryID[token_][beneficiary_];\n    require(id != 0, \"VT7\");\n\n    // find the remaining amount after revoke and transfer it back to the grant manager\n    remainingAmount = _revokeGrant(id);\n    assert(\n      remainingAmount <= IERC20Upgradeable(token_).balanceOf(address(this))\n    );\n\n    if (remainingAmount > 0) {\n      // delete _beneficiaryID[token_][beneficiary_];\n      IERC20Upgradeable(token_).safeTransfer(grantManager_, remainingAmount);\n    }\n\n    // emit an event for record\n    emit RevokeGrant(\n      token_,\n      beneficiary_,\n      grantManager_,\n      remainingAmount,\n      block.timestamp\n    );\n  }\n\n  /**\n    * @dev Transfers tokens held by timelock to beneficiary.\n    * @param token_: token address\n    * @param beneficiary_: beneficiary address\n    *\n    * Emits a {ClaimGrant} event.\n    */\n  function claimGrant(address token_, address beneficiary_)\n    external\n    virtual\n    override\n    nonReentrant\n    whenNotPaused\n  {\n    // require beneficiary not be address(0)\n    require(token_ != address(0) && beneficiary_ != (address(0)), \"VT8\");\n\n    // get the ID and grant manager from the grant data\n    uint256 id = _beneficiaryID[token_][beneficiary_];\n    require(id != 0, \"VT9\");\n    address grantManager = _grantManager[id];\n\n    // Grant can be revoked by the beneficiary, grant manager or GRANT ADMIN defined in the contract\n    require(\n      _msgSender() == beneficiary_ ||\n        _msgSender() == grantManager ||\n        hasRole(GRANT_ADMIN_ROLE, _msgSender()),\n      \"VT10\"\n    );\n\n    // require the grant to be active and vesting amount still pening to be credited to beneficiary for claiming\n    require(\n      _isActive[id] &&\n        (_instalmentAmount[id].mul(_instalmentCount[id]) > _amountReceived[id]),\n      \"VT12\"\n    );\n\n    // get the pending amount to be credited to beneficiary\n    (uint256 pendingAmount, , ) = _getPending(id);\n\n    if (pendingAmount > 0) {\n      IERC20Upgradeable(token_).safeTransfer(beneficiary_, pendingAmount);\n      _amountReceived[id] = _amountReceived[id].add(pendingAmount);\n    }\n\n    // set last claimed for the grant to current time\n    _lastClaimedTimestamp[id] = block.timestamp;\n\n    // if all the vesting amount has been claimed, then deactivate grant\n    if (block.timestamp >= _endTime[id]) {\n      _isActive[id] = false;\n    }\n\n    emit ClaimGrant(token_, beneficiary_, pendingAmount, block.timestamp);\n  }\n\n  /**\n   * @dev Triggers stopped state.\n   *\n   * Requirements:\n   *\n   * - The contract must not be paused.\n   */\n  function pause() public virtual override returns (bool success) {\n    require(\n      hasRole(PAUSER_ROLE, _msgSender()),\n      \"VestingTimelock: Unauthorized User\"\n    );\n    _pause();\n    return true;\n  }\n\n  /**\n   * @dev Returns to normal state.\n   *\n   * Requirements:\n   *\n   * - The contract must be paused.\n   */\n  function unpause() public virtual override returns (bool success) {\n    require(\n      hasRole(PAUSER_ROLE, _msgSender()),\n      \"VestingTimelock: Unauthorized User\"\n    );\n    _unpause();\n    return true;\n  }\n}\n",
  "sourcePath": "C:\\Users\\Kamlesh\\Persistence\\pStake\\codebase\\erc20\\contracts\\VestingTimelockV2.sol",
  "compiler": {
    "name": "solc",
    "version": "0.7.6+commit.7338295f.Emscripten.clang"
  },
  "schemaVersion": "3.4.3",
  "updatedAt": "2021-11-12T11:00:32.998Z",
  "networkType": "ethereum",
  "devdoc": {
    "details": "A token holder contract that will allow a beneficiary to extract the tokens after a given release time. Supports multiple vesting strategies like Cliffed, Continuous, Stepped etc.",
    "kind": "dev",
    "methods": {
      "addGrant(address,address,uint256,uint256,uint256,uint256,uint256,bool)": {
        "details": "Transfers tokens held by beneficiary to timelock.",
        "params": {
          "beneficiary_": ": beneficiary address",
          "cliffPeriod_": ": initial waiting period",
          "instalmentCount_": ": instalment count",
          "instalmentPeriod_": ": instalment period",
          "isContinuousVesting_": ": vesting required or not Emits a {AddGrant} event.",
          "startTime_": ": start time",
          "token_": ": token address",
          "totalAmount_": ": amount"
        }
      },
      "addGrantAsInstalment(address,address,uint256,uint256,uint256,uint256,uint256,bool)": {
        "details": "Transfers tokens held by beneficiary to timelock in installments",
        "params": {
          "beneficiary_": ": beneficiary address",
          "cliffPeriod_": ": initial waiting period",
          "instalmentAmount_": ": installment amount",
          "instalmentCount_": ": instalment count",
          "instalmentPeriod_": ": instalment period",
          "isContinuousVesting_": ": vesting required or not Emits a {AddGrantAsInstalment} event.",
          "startTime_": ": start time",
          "token_": ": token address"
        }
      },
      "claimGrant(address,address)": {
        "details": "Transfers tokens held by timelock to beneficiary.",
        "params": {
          "beneficiary_": ": beneficiary address Emits a {ClaimGrant} event.",
          "token_": ": token address"
        }
      },
      "getGrant(address,address)": {
        "details": "Get the details of the vesting grant for a user",
        "params": {
          "beneficiary_": ": address of beneficiary",
          "token_": ": address of token"
        }
      },
      "getGrantFromID(uint256)": {
        "details": "get the details of the vesting grant for a user from id",
        "params": {
          "id_": ": vesting grant for a user id"
        }
      },
      "getPending(address,address)": {
        "details": "calculate the pending time in the currently vesting installment",
        "params": {
          "beneficiary_": ": beneficiary address",
          "token_": ": token address"
        }
      },
      "getPendingFromID(uint256)": {
        "details": "calculate the pending time in the currently vesting installment from user id",
        "params": {
          "id_": ": user id"
        }
      },
      "getRemaining(address,address)": {
        "details": "calculate the remaining amount",
        "params": {
          "beneficiary_": ": beneficiary address",
          "token_": ": token address"
        }
      },
      "getRemainingFromID(uint256)": {
        "details": "calculate the remaining amount from user id",
        "params": {
          "id_": ": user id"
        }
      },
      "getRoleAdmin(bytes32)": {
        "details": "Returns the admin role that controls `role`. See {grantRole} and {revokeRole}. To change a role's admin, use {_setRoleAdmin}."
      },
      "getRoleMember(bytes32,uint256)": {
        "details": "Returns one of the accounts that have `role`. `index` must be a value between 0 and {getRoleMemberCount}, non-inclusive. Role bearers are not sorted in any particular way, and their ordering may change at any point. WARNING: When using {getRoleMember} and {getRoleMemberCount}, make sure you perform all queries on the same block. See the following https://forum.openzeppelin.com/t/iterating-over-elements-on-enumerableset-in-openzeppelin-contracts/2296[forum post] for more information."
      },
      "getRoleMemberCount(bytes32)": {
        "details": "Returns the number of accounts that have `role`. Can be used together with {getRoleMember} to enumerate all bearers of a role."
      },
      "grantRole(bytes32,address)": {
        "details": "Grants `role` to `account`. If `account` had not been already granted `role`, emits a {RoleGranted} event. Requirements: - the caller must have ``role``'s admin role."
      },
      "hasRole(bytes32,address)": {
        "details": "Returns `true` if `account` has been granted `role`."
      },
      "initialize(address,address)": {
        "details": "Constructor for initializing the Vesting Timelock contract.",
        "params": {
          "grantAdminAddress_": "- address of the grant admin.",
          "pauserAddress_": "- address of the pauser admin."
        }
      },
      "pause()": {
        "details": "Triggers stopped state. Requirements: - The contract must not be paused."
      },
      "paused()": {
        "details": "Returns true if the contract is paused, and false otherwise."
      },
      "renounceRole(bytes32,address)": {
        "details": "Revokes `role` from the calling account. Roles are often managed via {grantRole} and {revokeRole}: this function's purpose is to provide a mechanism for accounts to lose their privileges if they are compromised (such as when a trusted device is misplaced). If the calling account had been granted `role`, emits a {RoleRevoked} event. Requirements: - the caller must be `account`."
      },
      "revokeGrant(address,address,address)": {
        "details": "Revoke grant tokens held by timelock to beneficiary.",
        "params": {
          "beneficiary_": ": beneficiary address",
          "grantManager_": ": grant manager address Emits a {RevokeGrant} event.",
          "token_": ": token address"
        }
      },
      "revokeRole(bytes32,address)": {
        "details": "Revokes `role` from `account`. If `account` had been granted `role`, emits a {RoleRevoked} event. Requirements: - the caller must have ``role``'s admin role."
      },
      "unpause()": {
        "details": "Returns to normal state. Requirements: - The contract must be paused."
      }
    },
    "version": 1
  },
  "userdoc": {
    "kind": "user",
    "methods": {},
    "version": 1
  }
}