{
  "contractName": "VestingTimelockV2",
  "abi": [
    {
      "anonymous": false,
      "inputs": [
        {
          "indexed": false,
          "internalType": "uint256",
          "name": "id",
          "type": "uint256"
        },
        {
          "indexed": false,
          "internalType": "address",
          "name": "token",
          "type": "address"
        },
        {
          "indexed": false,
          "internalType": "address",
          "name": "accountAddress",
          "type": "address"
        },
        {
          "indexed": false,
          "internalType": "uint256",
          "name": "startTime",
          "type": "uint256"
        },
        {
          "indexed": false,
          "internalType": "uint256",
          "name": "cliffPeriod",
          "type": "uint256"
        },
        {
          "indexed": false,
          "internalType": "uint256",
          "name": "tokens",
          "type": "uint256"
        },
        {
          "indexed": false,
          "internalType": "uint256",
          "name": "instalmentAmount",
          "type": "uint256"
        },
        {
          "indexed": false,
          "internalType": "uint256",
          "name": "instalmentCount",
          "type": "uint256"
        },
        {
          "indexed": false,
          "internalType": "uint256",
          "name": "instalmentPeriod",
          "type": "uint256"
        },
        {
          "indexed": false,
          "internalType": "address",
          "name": "grantManager",
          "type": "address"
        },
        {
          "indexed": false,
          "internalType": "uint256",
          "name": "timestamp",
          "type": "uint256"
        }
      ],
      "name": "AddGrant",
      "type": "event"
    },
    {
      "anonymous": false,
      "inputs": [
        {
          "indexed": false,
          "internalType": "address",
          "name": "token",
          "type": "address"
        },
        {
          "indexed": false,
          "internalType": "address",
          "name": "accountAddress",
          "type": "address"
        },
        {
          "indexed": false,
          "internalType": "uint256",
          "name": "tokens",
          "type": "uint256"
        },
        {
          "indexed": false,
          "internalType": "uint256",
          "name": "timestamp",
          "type": "uint256"
        }
      ],
      "name": "ClaimGrant",
      "type": "event"
    },
    {
      "anonymous": false,
      "inputs": [
        {
          "indexed": false,
          "internalType": "address",
          "name": "account",
          "type": "address"
        }
      ],
      "name": "Paused",
      "type": "event"
    },
    {
      "anonymous": false,
      "inputs": [
        {
          "indexed": false,
          "internalType": "address",
          "name": "token",
          "type": "address"
        },
        {
          "indexed": false,
          "internalType": "address",
          "name": "accountAddress",
          "type": "address"
        },
        {
          "indexed": false,
          "internalType": "uint256",
          "name": "tokens",
          "type": "uint256"
        },
        {
          "indexed": false,
          "internalType": "uint256",
          "name": "timestamp",
          "type": "uint256"
        }
      ],
      "name": "RevokeGrant",
      "type": "event"
    },
    {
      "anonymous": false,
      "inputs": [
        {
          "indexed": true,
          "internalType": "bytes32",
          "name": "role",
          "type": "bytes32"
        },
        {
          "indexed": true,
          "internalType": "bytes32",
          "name": "previousAdminRole",
          "type": "bytes32"
        },
        {
          "indexed": true,
          "internalType": "bytes32",
          "name": "newAdminRole",
          "type": "bytes32"
        }
      ],
      "name": "RoleAdminChanged",
      "type": "event"
    },
    {
      "anonymous": false,
      "inputs": [
        {
          "indexed": true,
          "internalType": "bytes32",
          "name": "role",
          "type": "bytes32"
        },
        {
          "indexed": true,
          "internalType": "address",
          "name": "account",
          "type": "address"
        },
        {
          "indexed": true,
          "internalType": "address",
          "name": "sender",
          "type": "address"
        }
      ],
      "name": "RoleGranted",
      "type": "event"
    },
    {
      "anonymous": false,
      "inputs": [
        {
          "indexed": true,
          "internalType": "bytes32",
          "name": "role",
          "type": "bytes32"
        },
        {
          "indexed": true,
          "internalType": "address",
          "name": "account",
          "type": "address"
        },
        {
          "indexed": true,
          "internalType": "address",
          "name": "sender",
          "type": "address"
        }
      ],
      "name": "RoleRevoked",
      "type": "event"
    },
    {
      "anonymous": false,
      "inputs": [
        {
          "indexed": false,
          "internalType": "address",
          "name": "account",
          "type": "address"
        }
      ],
      "name": "Unpaused",
      "type": "event"
    },
    {
      "inputs": [],
      "name": "DEFAULT_ADMIN_ROLE",
      "outputs": [
        {
          "internalType": "bytes32",
          "name": "",
          "type": "bytes32"
        }
      ],
      "stateMutability": "view",
      "type": "function"
    },
    {
      "inputs": [],
      "name": "GRANT_ADMIN_ROLE",
      "outputs": [
        {
          "internalType": "bytes32",
          "name": "",
          "type": "bytes32"
        }
      ],
      "stateMutability": "view",
      "type": "function"
    },
    {
      "inputs": [],
      "name": "PAUSER_ROLE",
      "outputs": [
        {
          "internalType": "bytes32",
          "name": "",
          "type": "bytes32"
        }
      ],
      "stateMutability": "view",
      "type": "function"
    },
    {
      "inputs": [
        {
          "internalType": "address",
          "name": "",
          "type": "address"
        },
        {
          "internalType": "address",
          "name": "",
          "type": "address"
        }
      ],
      "name": "_beneficiaryID",
      "outputs": [
        {
          "internalType": "uint256",
          "name": "",
          "type": "uint256"
        }
      ],
      "stateMutability": "view",
      "type": "function"
    },
    {
      "inputs": [
        {
          "internalType": "address",
          "name": "",
          "type": "address"
        }
      ],
      "name": "_grantCount",
      "outputs": [
        {
          "internalType": "uint256",
          "name": "",
          "type": "uint256"
        }
      ],
      "stateMutability": "view",
      "type": "function"
    },
    {
      "inputs": [],
      "name": "_id",
      "outputs": [
        {
          "internalType": "uint256",
          "name": "",
          "type": "uint256"
        }
      ],
      "stateMutability": "view",
      "type": "function"
    },
    {
      "inputs": [
        {
          "internalType": "uint256",
          "name": "",
          "type": "uint256"
        }
      ],
      "name": "_lastClaimedTimestamp",
      "outputs": [
        {
          "internalType": "uint256",
          "name": "",
          "type": "uint256"
        }
      ],
      "stateMutability": "view",
      "type": "function"
    },
    {
      "inputs": [],
      "name": "_version",
      "outputs": [
        {
          "internalType": "uint256",
          "name": "",
          "type": "uint256"
        }
      ],
      "stateMutability": "view",
      "type": "function"
    },
    {
      "inputs": [
        {
          "internalType": "bytes32",
          "name": "role",
          "type": "bytes32"
        }
      ],
      "name": "getRoleAdmin",
      "outputs": [
        {
          "internalType": "bytes32",
          "name": "",
          "type": "bytes32"
        }
      ],
      "stateMutability": "view",
      "type": "function"
    },
    {
      "inputs": [
        {
          "internalType": "bytes32",
          "name": "role",
          "type": "bytes32"
        },
        {
          "internalType": "uint256",
          "name": "index",
          "type": "uint256"
        }
      ],
      "name": "getRoleMember",
      "outputs": [
        {
          "internalType": "address",
          "name": "",
          "type": "address"
        }
      ],
      "stateMutability": "view",
      "type": "function"
    },
    {
      "inputs": [
        {
          "internalType": "bytes32",
          "name": "role",
          "type": "bytes32"
        }
      ],
      "name": "getRoleMemberCount",
      "outputs": [
        {
          "internalType": "uint256",
          "name": "",
          "type": "uint256"
        }
      ],
      "stateMutability": "view",
      "type": "function"
    },
    {
      "inputs": [
        {
          "internalType": "bytes32",
          "name": "role",
          "type": "bytes32"
        },
        {
          "internalType": "address",
          "name": "account",
          "type": "address"
        }
      ],
      "name": "grantRole",
      "outputs": [],
      "stateMutability": "nonpayable",
      "type": "function"
    },
    {
      "inputs": [
        {
          "internalType": "bytes32",
          "name": "role",
          "type": "bytes32"
        },
        {
          "internalType": "address",
          "name": "account",
          "type": "address"
        }
      ],
      "name": "hasRole",
      "outputs": [
        {
          "internalType": "bool",
          "name": "",
          "type": "bool"
        }
      ],
      "stateMutability": "view",
      "type": "function"
    },
    {
      "inputs": [],
      "name": "paused",
      "outputs": [
        {
          "internalType": "bool",
          "name": "",
          "type": "bool"
        }
      ],
      "stateMutability": "view",
      "type": "function"
    },
    {
      "inputs": [
        {
          "internalType": "bytes32",
          "name": "role",
          "type": "bytes32"
        },
        {
          "internalType": "address",
          "name": "account",
          "type": "address"
        }
      ],
      "name": "renounceRole",
      "outputs": [],
      "stateMutability": "nonpayable",
      "type": "function"
    },
    {
      "inputs": [
        {
          "internalType": "bytes32",
          "name": "role",
          "type": "bytes32"
        },
        {
          "internalType": "address",
          "name": "account",
          "type": "address"
        }
      ],
      "name": "revokeRole",
      "outputs": [],
      "stateMutability": "nonpayable",
      "type": "function"
    },
    {
      "inputs": [
        {
          "internalType": "address",
          "name": "pauserAddress_",
          "type": "address"
        },
        {
          "internalType": "address",
          "name": "grantAdminAddress_",
          "type": "address"
        }
      ],
      "name": "initialize",
      "outputs": [],
      "stateMutability": "nonpayable",
      "type": "function"
    },
    {
      "inputs": [
        {
          "internalType": "address",
          "name": "token_",
          "type": "address"
        },
        {
          "internalType": "address",
          "name": "beneficiary_",
          "type": "address"
        }
      ],
      "name": "getGrant",
      "outputs": [
        {
          "internalType": "uint256",
          "name": "startTime",
          "type": "uint256"
        },
        {
          "internalType": "uint256",
          "name": "endTime",
          "type": "uint256"
        },
        {
          "internalType": "uint256",
          "name": "cliffPeriod",
          "type": "uint256"
        },
        {
          "internalType": "address",
          "name": "beneficiary",
          "type": "address"
        },
        {
          "internalType": "bool",
          "name": "isActive",
          "type": "bool"
        },
        {
          "internalType": "uint256",
          "name": "instalmentAmount",
          "type": "uint256"
        },
        {
          "internalType": "uint256",
          "name": "instalmentCount",
          "type": "uint256"
        },
        {
          "internalType": "uint256",
          "name": "instalmentPeriod",
          "type": "uint256"
        },
        {
          "internalType": "uint256",
          "name": "amountReceived",
          "type": "uint256"
        },
        {
          "internalType": "address",
          "name": "grantManager",
          "type": "address"
        }
      ],
      "stateMutability": "view",
      "type": "function"
    },
    {
      "inputs": [
        {
          "internalType": "uint256",
          "name": "id_",
          "type": "uint256"
        }
      ],
      "name": "getGrantFromID",
      "outputs": [
        {
          "internalType": "uint256",
          "name": "startTime",
          "type": "uint256"
        },
        {
          "internalType": "uint256",
          "name": "endTime",
          "type": "uint256"
        },
        {
          "internalType": "uint256",
          "name": "cliffPeriod",
          "type": "uint256"
        },
        {
          "internalType": "address",
          "name": "beneficiary",
          "type": "address"
        },
        {
          "internalType": "bool",
          "name": "isActive",
          "type": "bool"
        },
        {
          "internalType": "uint256",
          "name": "instalmentAmount",
          "type": "uint256"
        },
        {
          "internalType": "uint256",
          "name": "instalmentCount",
          "type": "uint256"
        },
        {
          "internalType": "uint256",
          "name": "instalmentPeriod",
          "type": "uint256"
        },
        {
          "internalType": "uint256",
          "name": "amountReceived",
          "type": "uint256"
        },
        {
          "internalType": "address",
          "name": "grantManager",
          "type": "address"
        }
      ],
      "stateMutability": "view",
      "type": "function"
    },
    {
      "inputs": [
        {
          "internalType": "address",
          "name": "token_",
          "type": "address"
        },
        {
          "internalType": "address",
          "name": "beneficiary_",
          "type": "address"
        }
      ],
      "name": "getPending",
      "outputs": [
        {
          "internalType": "uint256",
          "name": "pendingAmount",
          "type": "uint256"
        },
        {
          "internalType": "uint256",
          "name": "pendingTime",
          "type": "uint256"
        },
        {
          "internalType": "uint256",
          "name": "pendingInstalment",
          "type": "uint256"
        }
      ],
      "stateMutability": "view",
      "type": "function"
    },
    {
      "inputs": [
        {
          "internalType": "uint256",
          "name": "id_",
          "type": "uint256"
        }
      ],
      "name": "getPendingFromID",
      "outputs": [
        {
          "internalType": "uint256",
          "name": "pendingAmount",
          "type": "uint256"
        },
        {
          "internalType": "uint256",
          "name": "pendingTime",
          "type": "uint256"
        },
        {
          "internalType": "uint256",
          "name": "pendingInstalment",
          "type": "uint256"
        }
      ],
      "stateMutability": "view",
      "type": "function"
    },
    {
      "inputs": [
        {
          "internalType": "address",
          "name": "token_",
          "type": "address"
        },
        {
          "internalType": "address",
          "name": "beneficiary_",
          "type": "address"
        }
      ],
      "name": "getRemaining",
      "outputs": [
        {
          "internalType": "uint256",
          "name": "remainingAmount",
          "type": "uint256"
        },
        {
          "internalType": "uint256",
          "name": "remainingTime",
          "type": "uint256"
        },
        {
          "internalType": "uint256",
          "name": "remainingInstalment",
          "type": "uint256"
        }
      ],
      "stateMutability": "view",
      "type": "function"
    },
    {
      "inputs": [
        {
          "internalType": "uint256",
          "name": "id_",
          "type": "uint256"
        }
      ],
      "name": "getRemainingFromID",
      "outputs": [
        {
          "internalType": "uint256",
          "name": "remainingAmount",
          "type": "uint256"
        },
        {
          "internalType": "uint256",
          "name": "remainingTime",
          "type": "uint256"
        },
        {
          "internalType": "uint256",
          "name": "remainingInstalment",
          "type": "uint256"
        }
      ],
      "stateMutability": "view",
      "type": "function"
    },
    {
      "inputs": [
        {
          "internalType": "address",
          "name": "token_",
          "type": "address"
        },
        {
          "internalType": "address",
          "name": "beneficiary_",
          "type": "address"
        },
        {
          "internalType": "uint256",
          "name": "startTime_",
          "type": "uint256"
        },
        {
          "internalType": "uint256",
          "name": "cliffPeriod_",
          "type": "uint256"
        },
        {
          "internalType": "uint256",
          "name": "instalmentAmount_",
          "type": "uint256"
        },
        {
          "internalType": "uint256",
          "name": "instalmentCount_",
          "type": "uint256"
        },
        {
          "internalType": "uint256",
          "name": "instalmentPeriod_",
          "type": "uint256"
        }
      ],
      "name": "addGrant",
      "outputs": [
        {
          "internalType": "uint256",
          "name": "totalVestingAmount",
          "type": "uint256"
        }
      ],
      "stateMutability": "nonpayable",
      "type": "function"
    },
    {
      "inputs": [
        {
          "internalType": "address",
          "name": "token_",
          "type": "address"
        },
        {
          "internalType": "address",
          "name": "beneficiary_",
          "type": "address"
        }
      ],
      "name": "revokeGrant",
      "outputs": [
        {
          "internalType": "uint256",
          "name": "remainingAmount",
          "type": "uint256"
        }
      ],
      "stateMutability": "nonpayable",
      "type": "function"
    },
    {
      "inputs": [
        {
          "internalType": "address",
          "name": "token_",
          "type": "address"
        },
        {
          "internalType": "address",
          "name": "beneficiary_",
          "type": "address"
        }
      ],
      "name": "claimGrant",
      "outputs": [],
      "stateMutability": "nonpayable",
      "type": "function"
    },
    {
      "inputs": [],
      "name": "pause",
      "outputs": [
        {
          "internalType": "bool",
          "name": "success",
          "type": "bool"
        }
      ],
      "stateMutability": "nonpayable",
      "type": "function"
    },
    {
      "inputs": [],
      "name": "unpause",
      "outputs": [
        {
          "internalType": "bool",
          "name": "success",
          "type": "bool"
        }
      ],
      "stateMutability": "nonpayable",
      "type": "function"
    }
  ],
  "bytecode": "0x608060405234801561001057600080fd5b506127dc806100206000396000f3fe608060405234801561001057600080fd5b50600436106101c45760003560e01c80636d1319eb116100f9578063b415884411610097578063d547741f11610071578063d547741f1461057c578063d6003d9e146105a8578063d7a6dbe3146105c5578063e63ab1e9146105f3576101c4565b8063b4158844146104e3578063ca15c87314610511578063d41c91251461052e576101c4565b80639010d07c116100d35780639010d07c1461045357806391d14854146104925780639f08f869146104be578063a217fddf146104db576101c4565b80636d1319eb146103965780638456cb591461041d57806388984a0d14610425576101c4565b806336568abe11610166578063485cc95511610140578063485cc9551461031d5780635138b2b71461034b5780635c975abb146103715780636ad1ee3d14610379576101c4565b806336568abe146102cd5780633e118dbe146102f95780633f4ba83a14610301576101c4565b8063248a9ca3116101a2578063248a9ca31461025d5780632c0acd2c1461027a5780632f2ff15d146102825780632fdd100a146102b0576101c4565b806305180237146101c95780630a68e60b146101e357806314820f2f14610211575b600080fd5b6101d16105fb565b60408051918252519081900360200190f35b6101d1600480360360408110156101f957600080fd5b506001600160a01b0381358116916020013516610601565b61023f6004803603604081101561022757600080fd5b506001600160a01b03813581169160200135166108c6565b60408051938452602084019290925282820152519081900360600190f35b6101d16004803603602081101561027357600080fd5b5035610930565b6101d1610945565b6102ae6004803603604081101561029857600080fd5b50803590602001356001600160a01b0316610957565b005b6101d1600480360360208110156102c657600080fd5b50356109be565b6102ae600480360360408110156102e357600080fd5b50803590602001356001600160a01b03166109d0565b6101d1610a31565b610309610a37565b604080519115158252519081900360200190f35b6102ae6004803603604081101561033357600080fd5b506001600160a01b0381358116916020013516610a9c565b6101d16004803603602081101561036157600080fd5b50356001600160a01b0316610b9a565b610309610bac565b61023f6004803603602081101561038f57600080fd5b5035610bb5565b6103c4600480360360408110156103ac57600080fd5b506001600160a01b0381358116916020013516610bdb565b604080519a8b5260208b0199909952898901979097526001600160a01b0395861660608a0152931515608089015260a088019290925260c087015260e08601526101008501521661012083015251908190036101400190f35b610309610c61565b61023f6004803603604081101561043b57600080fd5b506001600160a01b0381358116916020013516610cc0565b6104766004803603604081101561046957600080fd5b5080359060200135610d1a565b604080516001600160a01b039092168252519081900360200190f35b610309600480360360408110156104a857600080fd5b50803590602001356001600160a01b0316610d3b565b6103c4600480360360208110156104d457600080fd5b5035610d53565b6101d1610d8d565b6102ae600480360360408110156104f957600080fd5b506001600160a01b0381358116916020013516610d92565b6101d16004803603602081101561052757600080fd5b5035611105565b6101d1600480360360e081101561054457600080fd5b506001600160a01b03813581169160208101359091169060408101359060608101359060808101359060a08101359060c0013561111c565b6102ae6004803603604081101561059257600080fd5b50803590602001356001600160a01b0316611440565b61023f600480360360208110156105be57600080fd5b5035611499565b6101d1600480360360408110156105db57600080fd5b506001600160a01b03813581169160200135166114b0565b6101d16114cd565b60ca5481565b60006002600154141561065b576040805162461bcd60e51b815260206004820152601f60248201527f5265656e7472616e637947756172643a207265656e7472616e742063616c6c00604482015290519081900360640190fd5b60026001556001600160a01b0383161580159061068057506001600160a01b03821615155b6106b7576040805162461bcd60e51b815260206004820152600360248201526256543560e81b604482015290519081900360640190fd5b6001600160a01b03808416600090815260cc602090815260408083209386168352929052205480610715576040805162461bcd60e51b815260206004820152600360248201526256543760e81b604482015290519081900360640190fd5b600081815260d660205260409020546001600160a01b0390811690841661073a6114df565b6001600160a01b031614806107675750806001600160a01b031661075c6114df565b6001600160a01b0316145b8061078c575061078c60008051602061270c8339815191526107876114df565b610d3b565b6107c3576040805162461bcd60e51b81526020600482015260036024820152622b2a1b60e91b604482015290519081900360640190fd5b6107cc826114e3565b9250846001600160a01b03166370a08231306040518263ffffffff1660e01b815260040180826001600160a01b0316815260200191505060206040518083038186803b15801561081b57600080fd5b505afa15801561082f573d6000803e3d6000fd5b505050506040513d602081101561084557600080fd5b505183111561085057fe5b821561086a5761086a6001600160a01b038616828561156b565b604080516001600160a01b0380881682528616602082015280820185905242606082015290517fa864adf551c6a3c3f4542abc042cf6df8e4ca30e4290bd1023661b14cb075db69181900360800190a150506001805592915050565b600080806001600160a01b03851615806108e757506001600160a01b038416155b156108f157610929565b6001600160a01b03808616600090815260cc6020908152604080832093881683529290522054610920816115bd565b91955093509150505b9250925092565b60009081526097602052604090206002015490565b60008051602061270c83398151915281565b600082815260976020526040902060020154610975906107876114df565b6109b05760405162461bcd60e51b815260040180806020018281038252602f815260200180612618602f913960400191505060405180910390fd5b6109ba8282611763565b5050565b60d76020526000908152604090205481565b6109d86114df565b6001600160a01b0316816001600160a01b031614610a275760405162461bcd60e51b815260040180806020018281038252602f815260200180612778602f913960400191505060405180910390fd5b6109ba82826117cc565b60c95481565b6000610a536000805160206126ec8339815191526107876114df565b610a8e5760405162461bcd60e51b81526004018080602001828103825260228152602001806127566022913960400191505060405180910390fd5b610a96611835565b50600190565b600054610100900460ff1680610ab55750610ab56118d5565b80610ac3575060005460ff16155b610afe5760405162461bcd60e51b815260040180806020018281038252602e81526020018061269d602e913960400191505060405180910390fd5b600054610100900460ff16158015610b29576000805460ff1961ff0019909116610100171660011790555b610b316118e6565b610b39611990565b610b41611a30565b610b536000610b4e6114df565b6109b0565b610b6b6000805160206126ec833981519152846109b0565b610b8360008051602061270c833981519152836109b0565b8015610b95576000805461ff00191690555b505050565b60cb6020526000908152604090205481565b60655460ff1690565b6000808083610bc357610bd4565b610bcc84611adb565b919450925090505b9193909250565b60008080808080808080806001600160a01b038c161580610c0357506001600160a01b038b16155b15610c0d57610c52565b6001600160a01b03808d16600090815260cc60209081526040808320938f1683529290522054610c3c81611bf5565b9a509a509a509a509a509a509a509a509a509a50505b9295989b9194979a5092959850565b6000610c7d6000805160206126ec8339815191526107876114df565b610cb85760405162461bcd60e51b81526004018080602001828103825260228152602001806127566022913960400191505060405180910390fd5b610a96611d3a565b600080806001600160a01b0385161580610ce157506001600160a01b038416155b15610ceb57610929565b6001600160a01b03808616600090815260cc602090815260408083209388168352929052205461092081611adb565b6000828152609760205260408120610d329083611dbd565b90505b92915050565b6000828152609760205260408120610d329083611dc9565b600080600080600080600080600080610d6b8b611bf5565b99509950995099509950995099509950995099505b9193959799509193959799565b600081565b60026001541415610dea576040805162461bcd60e51b815260206004820152601f60248201527f5265656e7472616e637947756172643a207265656e7472616e742063616c6c00604482015290519081900360640190fd5b6002600155610df7610bac565b15610e3c576040805162461bcd60e51b815260206004820152601060248201526f14185d5cd8589b194e881c185d5cd95960821b604482015290519081900360640190fd5b6001600160a01b03821615801590610e5c57506001600160a01b03811615155b610e93576040805162461bcd60e51b81526020600482015260036024820152620aca8760eb1b604482015290519081900360640190fd5b6001600160a01b03808316600090815260cc602090815260408083209385168352929052205480610ef1576040805162461bcd60e51b815260206004820152600360248201526256543960e81b604482015290519081900360640190fd5b600081815260d660205260409020546001600160a01b03908116908316610f166114df565b6001600160a01b03161480610f435750806001600160a01b0316610f386114df565b6001600160a01b0316145b80610f635750610f6360008051602061270c8339815191526107876114df565b610f9d576040805162461bcd60e51b815260206004808301919091526024820152630565431360e41b604482015290519081900360640190fd5b600082815260d1602052604090205460ff168015610fe35750600082815260d5602090815260408083205460d383528184205460d2909352922054610fe191611dde565b115b61101d576040805162461bcd60e51b815260206004808301919091526024820152632b2a189960e11b604482015290519081900360640190fd5b6000611028836115bd565b5090915050801561107e576110476001600160a01b038616858361156b565b600083815260d560205260409020546110609082611e37565b600084815260d5602090815260408083209390935560d79052204290555b600083815260ce602052604090205442106110aa57600083815260d160205260409020805460ff191690555b604080516001600160a01b0380881682528616602082015280820183905242606082015290517fe66d51f31c8a9131ea2d5eeef8ef1bb6c991a682392cf84096e45f04933f57349181900360800190a1505060018055505050565b6000818152609760205260408120610d3590611e91565b600060026001541415611176576040805162461bcd60e51b815260206004820152601f60248201527f5265656e7472616e637947756172643a207265656e7472616e742063616c6c00604482015290519081900360640190fd5b60026001556001600160a01b0388161580159061119b57506001600160a01b03871615155b80156111a657508315155b80156111b157508215155b6111e8576040805162461bcd60e51b815260206004820152600360248201526256543360e81b604482015290519081900360640190fd5b6111f28484611dde565b905080886001600160a01b03166370a0823161120c6114df565b6040518263ffffffff1660e01b815260040180826001600160a01b0316815260200191505060206040518083038186803b15801561124957600080fd5b505afa15801561125d573d6000803e3d6000fd5b505050506040513d602081101561127357600080fd5b505110156112b1576040805162461bcd60e51b815260206004808301919091526024820152635654313160e01b604482015290519081900360640190fd5b6001600160a01b03808916600090815260cc60209081526040808320938b1683529281528282205480835260d19091529190205460ff1615611323576040805162461bcd60e51b8152602060048083019190915260248201526315950c4d60e21b604482015290519081900360640190fd5b61134061132e6114df565b6001600160a01b038b16903085611e9c565b60ca80546001908101918290556001600160a01b03808c16600090815260cb60209081526040808320805490950190945560cc8152838220928d168252919091522081905561139c818a8a8a8a8a8a6113976114df565b611efc565b7fa897efb9fd9261ebb88a68b3e4d79c7adde24b2e36b3f7ffcff4412720647584818b8b8b8b888c8c8c6113ce6114df565b604080519a8b526001600160a01b03998a1660208c01529789168a89015260608a0196909652608089019490945260a088019290925260c087015260e08601526101008501529091166101208301524261014083015251908190036101600190a1505060018055979650505050505050565b60008281526097602052604090206002015461145e906107876114df565b610a275760405162461bcd60e51b815260040180806020018281038252603081526020018061266d6030913960400191505060405180910390fd5b60008080836114a757610bd4565b610bcc846115bd565b60cc60209081526000928352604080842090915290825290205481565b6000805160206126ec83398151915281565b3390565b600081815260d1602052604081205460ff16801561150e5750600082815260ce602052604090205442105b611545576040805162461bcd60e51b815260206004820152600360248201526215950d60ea1b604482015290519081900360640190fd5b61154e82611adb565b5050600092835260d16020526040909220805460ff191690555090565b604080516001600160a01b038416602482015260448082018490528251808303909101815260649091019091526020810180516001600160e01b031663a9059cbb60e01b179052610b95908490612003565b600081815260d16020526040812054819081908190819060ff1615806115fc5750600086815260ce602090815260408083205460d79092529091205410155b8061162a5750600086815260cf602090815260408083205460cd9092529091205461162691611e37565b4211155b15611636575050610bd4565b600086815260ce602052604090205442116116515742611661565b600086815260ce60205260409020545b600087815260cd602090815260408083205460d7909252909120549192501161169857600086815260d760205260409020546116a8565b600086815260cd60205260409020545b91506116b481836120b4565b600087815260d4602090815260408083205460cf83528184205460cd90935290832054939750919261170892600192611702926116fc916116f59190611e37565b42906120b4565b90612111565b90611e37565b600088815260d5602090815260408083205460d29092529091205491925061173b91611735908490611dde565b906120b4565b600088815260d26020526040902054909650611758908790612111565b959794965050505050565b600082815260976020526040902061177b9082612178565b156109ba576117886114df565b6001600160a01b0316816001600160a01b0316837f2f8788117e7eff1d82e926ec794901d17c78024a50270940304540a733656f0d60405160405180910390a45050565b60008281526097602052604090206117e4908261218d565b156109ba576117f16114df565b6001600160a01b0316816001600160a01b0316837ff6391f5c32d9c69d2a47ea670b442974b53935d1edc7fd64eb21e047a839171b60405160405180910390a45050565b61183d610bac565b611885576040805162461bcd60e51b815260206004820152601460248201527314185d5cd8589b194e881b9bdd081c185d5cd95960621b604482015290519081900360640190fd5b6065805460ff191690557f5db9ee0a495bf2e6ff9c91a7834c1ba4fdd244a5e8aa4e537bd38aeae4b073aa6118b86114df565b604080516001600160a01b039092168252519081900360200190a1565b60006118e0306121a2565b15905090565b600054610100900460ff16806118ff57506118ff6118d5565b8061190d575060005460ff16155b6119485760405162461bcd60e51b815260040180806020018281038252602e81526020018061269d602e913960400191505060405180910390fd5b600054610100900460ff16158015611973576000805460ff1961ff0019909116610100171660011790555b61197b6121a8565b801561198d576000805461ff00191690555b50565b600054610100900460ff16806119a957506119a96118d5565b806119b7575060005460ff16155b6119f25760405162461bcd60e51b815260040180806020018281038252602e81526020018061269d602e913960400191505060405180910390fd5b600054610100900460ff1615801561197b576000805460ff1961ff001990911661010017166001179055801561198d576000805461ff001916905550565b600054610100900460ff1680611a495750611a496118d5565b80611a57575060005460ff16155b611a925760405162461bcd60e51b815260040180806020018281038252602e81526020018061269d602e913960400191505060405180910390fd5b600054610100900460ff16158015611abd576000805460ff1961ff0019909116610100171660011790555b6065805460ff19169055801561198d576000805461ff001916905550565b600081815260d3602090815260408083205460d29092528220548291829182918291611b0691611dde565b600087815260d56020526040902054909150611b239082906120b4565b600087815260d46020526040902054909550611b40908690612111565b600087815260cd602090815260408083205460d79092529091205491945011611b7757600086815260d76020526040902054611b87565b600086815260cd60205260409020545b600087815260ce602090815260408083205460d79092529091205491935010611bbe57600086815260d76020526040902054611bce565b600086815260ce60205260409020545b600087815260ce6020526040902054909250611bea90836120b4565b935050509193909250565b60008080808080808080808a611c0a57610d80565b60cd600060ca5481526020019081526020016000205460ce600060ca5481526020019081526020016000205460cf600060ca5481526020019081526020016000205460d0600060ca54815260200190815260200160002060009054906101000a90046001600160a01b031660d1600060ca54815260200190815260200160002060009054906101000a900460ff1660d2600060ca5481526020019081526020016000205460d3600060ca5481526020019081526020016000205460d4600060ca5481526020019081526020016000205460d5600060ca5481526020019081526020016000205460d6600060ca54815260200190815260200160002060009054906101000a90046001600160a01b031699509950995099509950995099509950995099509193959799509193959799565b611d42610bac565b15611d87576040805162461bcd60e51b815260206004820152601060248201526f14185d5cd8589b194e881c185d5cd95960821b604482015290519081900360640190fd5b6065805460ff191660011790557f62e78cea01bee320cd4e420270b5ea74000d11b0c9f74754ebdbfc544b05a2586118b86114df565b6000610d32838361224d565b6000610d32836001600160a01b0384166122b1565b600082611ded57506000610d35565b82820282848281611dfa57fe5b0414610d325760405162461bcd60e51b81526004018080602001828103825260218152602001806126cb6021913960400191505060405180910390fd5b600082820183811015610d32576040805162461bcd60e51b815260206004820152601b60248201527f536166654d6174683a206164646974696f6e206f766572666c6f770000000000604482015290519081900360640190fd5b6000610d35826122c9565b604080516001600160a01b0380861660248301528416604482015260648082018490528251808303909101815260849091019091526020810180516001600160e01b03166323b872dd60e01b179052611ef6908590612003565b50505050565b600088815260d1602052604090205460ff1615611f46576040805162461bcd60e51b815260206004820152600360248201526256543160e81b604482015290519081900360640190fd5b6000611f6a611f60611f598660016120b4565b8590611dde565b6117028989611e37565b6000998a5260cd60209081526040808c209990995560ce8152888b209190915560cf8152878a20969096555060d0855285882080546001600160a01b039889166001600160a01b03199182161790915560d18652868920805460ff1916600117905560d286528689209490945560d385528588209290925560d484528487205560d6909252919093208054939092169216919091179055565b6000612058826040518060400160405280602081526020017f5361666545524332303a206c6f772d6c6576656c2063616c6c206661696c6564815250856001600160a01b03166122cd9092919063ffffffff16565b805190915015610b955780806020019051602081101561207757600080fd5b5051610b955760405162461bcd60e51b815260040180806020018281038252602a81526020018061272c602a913960400191505060405180910390fd5b60008282111561210b576040805162461bcd60e51b815260206004820152601e60248201527f536166654d6174683a207375627472616374696f6e206f766572666c6f770000604482015290519081900360640190fd5b50900390565b6000808211612167576040805162461bcd60e51b815260206004820152601a60248201527f536166654d6174683a206469766973696f6e206279207a65726f000000000000604482015290519081900360640190fd5b81838161217057fe5b049392505050565b6000610d32836001600160a01b0384166122e6565b6000610d32836001600160a01b038416612330565b3b151590565b600054610100900460ff16806121c157506121c16118d5565b806121cf575060005460ff16155b61220a5760405162461bcd60e51b815260040180806020018281038252602e81526020018061269d602e913960400191505060405180910390fd5b600054610100900460ff16158015612235576000805460ff1961ff0019909116610100171660011790555b60018055801561198d576000805461ff001916905550565b8154600090821061228f5760405162461bcd60e51b81526004018080602001828103825260228152602001806125f66022913960400191505060405180910390fd5b82600001828154811061229e57fe5b9060005260206000200154905092915050565b60009081526001919091016020526040902054151590565b5490565b60606122dc84846000856123f6565b90505b9392505050565b60006122f283836122b1565b61232857508154600181810184556000848152602080822090930184905584548482528286019093526040902091909155610d35565b506000610d35565b600081815260018301602052604081205480156123ec578354600019808301919081019060009087908390811061236357fe5b906000526020600020015490508087600001848154811061238057fe5b6000918252602080832090910192909255828152600189810190925260409020908401905586548790806123b057fe5b60019003818190600052602060002001600090559055866001016000878152602001908152602001600020600090556001945050505050610d35565b6000915050610d35565b6060824710156124375760405162461bcd60e51b81526004018080602001828103825260268152602001806126476026913960400191505060405180910390fd5b612440856121a2565b612491576040805162461bcd60e51b815260206004820152601d60248201527f416464726573733a2063616c6c20746f206e6f6e2d636f6e7472616374000000604482015290519081900360640190fd5b600080866001600160a01b031685876040518082805190602001908083835b602083106124cf5780518252601f1990920191602091820191016124b0565b6001836020036101000a03801982511681845116808217855250505050505090500191505060006040518083038185875af1925050503d8060008114612531576040519150601f19603f3d011682016040523d82523d6000602084013e612536565b606091505b5091509150612546828286612551565b979650505050505050565b606083156125605750816122df565b8251156125705782518084602001fd5b8160405162461bcd60e51b81526004018080602001828103825283818151815260200191508051906020019080838360005b838110156125ba5781810151838201526020016125a2565b50505050905090810190601f1680156125e75780820380516001836020036101000a031916815260200191505b509250505060405180910390fdfe456e756d657261626c655365743a20696e646578206f7574206f6620626f756e6473416363657373436f6e74726f6c3a2073656e646572206d75737420626520616e2061646d696e20746f206772616e74416464726573733a20696e73756666696369656e742062616c616e636520666f722063616c6c416363657373436f6e74726f6c3a2073656e646572206d75737420626520616e2061646d696e20746f207265766f6b65496e697469616c697a61626c653a20636f6e747261637420697320616c726561647920696e697469616c697a6564536166654d6174683a206d756c7469706c69636174696f6e206f766572666c6f7765d7a28e3265b37a6474929f336521b332c1681b933f6cb9f3376673440d862a6a7a39ad350f111635f4a31ec3e3e5ca2f76f78880b843ba3f8705d7d3ac3eb95361666545524332303a204552433230206f7065726174696f6e20646964206e6f74207375636365656456657374696e6754696d656c6f636b3a20556e617574686f72697a65642055736572416363657373436f6e74726f6c3a2063616e206f6e6c792072656e6f756e636520726f6c657320666f722073656c66a2646970667358221220c49a0b0f8e5b7a2e20e39362ea90f9762a2ddaffa69fb69dbdf4dc4a828b9b8964736f6c63430007060033",
  "immutableReferences": {},
  "source": "// SPDX-License-Identifier: Unlicensed\npragma solidity >=0.7.0;\n\nimport \"@openzeppelin/contracts-upgradeable/proxy/Initializable.sol\";\nimport \"@openzeppelin/contracts-upgradeable/math/SafeMathUpgradeable.sol\";\nimport \"@openzeppelin/contracts-upgradeable/proxy/Initializable.sol\";\nimport \"@openzeppelin/contracts-upgradeable/access/AccessControlUpgradeable.sol\";\nimport \"@openzeppelin/contracts-upgradeable/utils/PausableUpgradeable.sol\";\nimport \"@openzeppelin/contracts-upgradeable/utils/ReentrancyGuardUpgradeable.sol\";\nimport \"@openzeppelin/contracts-upgradeable/token/ERC20/SafeERC20Upgradeable.sol\";\nimport \"@openzeppelin/contracts-upgradeable/token/ERC20/IERC20Upgradeable.sol\";\nimport \"./libraries/FullMath.sol\";\nimport \"./interfaces/IVestingTimelockV2.sol\";\n\n/**\n * @dev A token holder contract that will allow a beneficiary to extract the\n * tokens after a given release time.\n * Supports multiple vesting strategies like Cliffed, Continuous, Stepped etc.\n */\ncontract VestingTimelockV2 is\n  Initializable,\n  IVestingTimelockV2,\n  ReentrancyGuardUpgradeable,\n  PausableUpgradeable,\n  AccessControlUpgradeable\n{\n  // including libraries\n  using SafeERC20Upgradeable for IERC20Upgradeable;\n  using SafeMathUpgradeable for uint256;\n  using FullMath for uint256;\n\n  // Access Roles\n  bytes32 public constant PAUSER_ROLE = keccak256(\"PAUSER_ROLE\");\n  bytes32 public constant GRANT_ADMIN_ROLE = keccak256(\"GRANT_ADMIN_ROLE\");\n\n  // variable pertaining to contract upgrades versioning\n  uint256 public _version;\n\n  // Vesting grant identifier\n  uint256 public _id;\n  mapping(address => uint256) public _grantCount;\n  mapping(address => mapping(address => uint256)) public _beneficiaryID;\n\n  // Vesting grant parameters mapped to grant ID\n  mapping(uint256 => uint256) _startTime;\n  mapping(uint256 => uint256) _endTime;\n  mapping(uint256 => uint256) _cliffPeriod;\n  mapping(uint256 => address) _beneficiary;\n  mapping(uint256 => bool) _isActive;\n  mapping(uint256 => uint256) _instalmentAmount;\n  mapping(uint256 => uint256) _instalmentCount;\n  mapping(uint256 => uint256) _instalmentPeriod;\n  mapping(uint256 => uint256) _amountReceived;\n  mapping(uint256 => address) _grantManager;\n\n  // Last claimed timestamp mapped to grant ID\n  mapping(uint256 => uint256) public _lastClaimedTimestamp;\n\n  /**\n   * @dev Constructor for initializing the Vesting Timelock contract.\n   * @param pauserAddress_ - address of the pauser admin.\n   * @param grantAdminAddress_ - address of the grant admin.\n   */\n  function initialize(address pauserAddress_, address grantAdminAddress_)\n    public\n    virtual\n    initializer\n  {\n    __ReentrancyGuard_init();\n    __AccessControl_init_unchained();\n    __Pausable_init_unchained();\n    _setupRole(DEFAULT_ADMIN_ROLE, _msgSender());\n    _setupRole(PAUSER_ROLE, pauserAddress_);\n    _setupRole(GRANT_ADMIN_ROLE, grantAdminAddress_);\n  }\n\n  /**\n   * @dev Get the details of the vesting grant for a user\n   * @param id_: vesting grant user id\n   */\n  function _getGrant(uint256 id_)\n    internal\n    view\n    returns (\n      uint256 startTime,\n      uint256 endTime,\n      uint256 cliffPeriod,\n      address beneficiary,\n      bool isActive,\n      uint256 instalmentAmount,\n      uint256 instalmentCount,\n      uint256 instalmentPeriod,\n      uint256 amountReceived,\n      address grantManager\n    )\n  {\n    if (id_ == 0) {\n      return (\n        startTime,\n        endTime,\n        cliffPeriod,\n        beneficiary,\n        isActive,\n        instalmentAmount,\n        instalmentCount,\n        instalmentPeriod,\n        amountReceived,\n        grantManager\n      );\n    }\n\n    return (\n      _startTime[_id],\n      _endTime[_id],\n      _cliffPeriod[_id],\n      _beneficiary[_id],\n      _isActive[_id],\n      _instalmentAmount[_id],\n      _instalmentCount[_id],\n      _instalmentPeriod[_id],\n      _amountReceived[_id],\n      _grantManager[_id]\n    );\n  }\n\n  /**\n   * @dev Get the details of the vesting grant for a user\n   * @param token_: address of token\n   * @param beneficiary_: address of beneficiary\n   */\n  function getGrant(address token_, address beneficiary_)\n    public\n    view\n    virtual\n    override\n    returns (\n      uint256 startTime,\n      uint256 endTime,\n      uint256 cliffPeriod,\n      address beneficiary,\n      bool isActive,\n      uint256 instalmentAmount,\n      uint256 instalmentCount,\n      uint256 instalmentPeriod,\n      uint256 amountReceived,\n      address grantManager\n    )\n  {\n    if (token_ == address(0) || beneficiary_ == address(0)) {\n      return (\n        startTime,\n        endTime,\n        cliffPeriod,\n        beneficiary,\n        isActive,\n        instalmentAmount,\n        instalmentCount,\n        instalmentPeriod,\n        amountReceived,\n        grantManager\n      );\n    }\n    uint256 id = _beneficiaryID[token_][beneficiary_];\n    return _getGrant(id);\n  }\n\n  /**\n   * @dev get the details of the vesting grant for a user from id\n   * @param id_: vesting grant for a user id\n   */\n  function getGrantFromID(uint256 id_)\n    public\n    view\n    virtual\n    override\n    returns (\n      uint256 startTime,\n      uint256 endTime,\n      uint256 cliffPeriod,\n      address beneficiary,\n      bool isActive,\n      uint256 instalmentAmount,\n      uint256 instalmentCount,\n      uint256 instalmentPeriod,\n      uint256 amountReceived,\n      address grantManager\n    )\n  {\n    return _getGrant(id_);\n  }\n\n  /**\n   * @dev calculate the pending time in the currently vesting installment\n   * @param id_: vesting grant for a user id\n   */\n  function _getPending(uint256 id_)\n    internal\n    view\n    returns (\n      uint256 pendingAmount,\n      uint256 pendingTime,\n      uint256 pendingInstalment\n    )\n  {\n    uint256 lowerTimestamp;\n    uint256 higherTimestamp;\n\n    // if the last claimed timstamp has crossed the endTime or if cliff time is not\n    // crossed by _lastClaimedTimestamp[id_], return zero\n    if (\n      !_isActive[id_] ||\n      _lastClaimedTimestamp[id_] >= _endTime[id_] ||\n      block.timestamp <= _startTime[id_].add(_cliffPeriod[id_])\n    ) return (pendingAmount, pendingTime, pendingInstalment);\n\n    higherTimestamp = (block.timestamp > _endTime[id_])\n      ? _endTime[id_]\n      : block.timestamp;\n\n    lowerTimestamp = (\n      _lastClaimedTimestamp[id_] < _startTime[id_]\n        ? _startTime[id_]\n        : _lastClaimedTimestamp[id_]\n    );\n\n    // calculate pending time between last claimed and current time, counter starting from startTime\n    pendingTime = higherTimestamp.sub(lowerTimestamp);\n\n    // calculate the pending amount\n    uint256 cumulativeInstalments = (\n      (\n        ((block.timestamp).sub(_startTime[id_].add(_cliffPeriod[id_]))).div(\n          _instalmentPeriod[id_]\n        )\n      ).add(1)\n    );\n\n    pendingAmount = (cumulativeInstalments.mul(_instalmentAmount[id_])).sub(\n      _amountReceived[id_]\n    );\n\n    // calculate the pendingInstalment from the pendingAmount calculated above\n    pendingInstalment = pendingAmount.div(_instalmentAmount[id_]);\n  }\n\n  /**\n   * @dev calculate the pending time in the currently vesting installment\n   * @param token_: token address\n   * @param beneficiary_: beneficiary address\n   */\n  function getPending(address token_, address beneficiary_)\n    public\n    view\n    virtual\n    override\n    returns (\n      uint256 pendingAmount,\n      uint256 pendingTime,\n      uint256 pendingInstalment\n    )\n  {\n    if (token_ == address(0) || beneficiary_ == address(0))\n      return (pendingAmount, pendingTime, pendingInstalment);\n\n    uint256 id = _beneficiaryID[token_][beneficiary_];\n    (pendingAmount, pendingTime, pendingInstalment) = _getPending(id);\n  }\n\n  /**\n   * @dev calculate the pending time in the currently vesting installment from user id\n   * @param id_: user id\n   */\n  function getPendingFromID(uint256 id_)\n    public\n    view\n    virtual\n    override\n    returns (\n      uint256 pendingAmount,\n      uint256 pendingTime,\n      uint256 pendingInstalment\n    )\n  {\n    if (id_ == 0) return (pendingAmount, pendingTime, pendingInstalment);\n    (pendingAmount, pendingTime, pendingInstalment) = _getPending(id_);\n  }\n\n  /**\n   * @dev calculate the remaining amount\n   * @param id_: user id\n   */\n  function _getRemaining(uint256 id_)\n    internal\n    view\n    returns (\n      uint256 remainingAmount,\n      uint256 remainingTime,\n      uint256 remainingInstalment\n    )\n  {\n    uint256 lastClaimedTimestamp;\n    uint256 totalAmount = (_instalmentAmount[id_]).mul(_instalmentCount[id_]);\n\n    remainingAmount = totalAmount.sub(_amountReceived[id_]);\n    remainingInstalment = remainingAmount.div(_instalmentPeriod[id_]);\n\n    // get the lastClaimedTimestamp as a value inside range _startTime[id_] & _endTime[id_]\n    lastClaimedTimestamp = _lastClaimedTimestamp[id_] < _startTime[id_]\n      ? _startTime[id_]\n      : _lastClaimedTimestamp[id_];\n    lastClaimedTimestamp = _lastClaimedTimestamp[id_] > _endTime[id_]\n      ? _endTime[id_]\n      : _lastClaimedTimestamp[id_];\n\n    // calculate remainingTime by subtracting lastClaimedTimestamp from the end tim\n    remainingTime = (_endTime[id_]).sub(lastClaimedTimestamp);\n  }\n\n  /**\n   * @dev calculate the remaining amount\n   * @param token_: token address\n   * @param beneficiary_: beneficiary address\n   */\n  function getRemaining(address token_, address beneficiary_)\n    public\n    view\n    virtual\n    override\n    returns (\n      uint256 remainingAmount,\n      uint256 remainingTime,\n      uint256 remainingInstalment\n    )\n  {\n    if (token_ == address(0) || beneficiary_ == address(0))\n      return (remainingAmount, remainingTime, remainingInstalment);\n\n    uint256 id = _beneficiaryID[token_][beneficiary_];\n    (remainingAmount, remainingTime, remainingInstalment) = _getRemaining(id);\n  }\n\n  /**\n   * @dev calculate the remaining amount from user id\n   * @param id_: user id\n   */\n  function getRemainingFromID(uint256 id_)\n    public\n    view\n    virtual\n    override\n    returns (\n      uint256 remainingAmount,\n      uint256 remainingTime,\n      uint256 remainingInstalment\n    )\n  {\n    if (id_ == 0) return (remainingAmount, remainingTime, remainingInstalment);\n    (remainingAmount, remainingTime, remainingInstalment) = _getRemaining(id_);\n  }\n\n  /**\n   * @dev Transfers tokens held by beneficiary to timelock.\n   * @param id_: user id\n   * @param beneficiary_: beneficiary address\n   * @param startTime_: start time\n   * @param cliffPeriod_: initial waiting period\n   * @param instalmentAmount_: instalment amount\n   * @param instalmentCount_: instalment count\n   * @param instalmentPeriod_: instalment period\n   * @param grantManager: grant manager address\n   */\n  function _addGrant(\n    uint256 id_,\n    address beneficiary_,\n    uint256 startTime_,\n    uint256 cliffPeriod_,\n    uint256 instalmentAmount_,\n    uint256 instalmentCount_,\n    uint256 instalmentPeriod_,\n    address grantManager\n  ) internal {\n    // Require statement to check if grant is already active\n    require(!_isActive[id_], \"VT1\");\n\n    uint256 endTime = startTime_.add(cliffPeriod_).add(\n      instalmentPeriod_.mul(instalmentCount_.sub(1))\n    );\n\n    _startTime[id_] = startTime_;\n    _endTime[id_] = endTime;\n    _cliffPeriod[id_] = cliffPeriod_;\n    _beneficiary[id_] = beneficiary_;\n    _isActive[id_] = true;\n    _instalmentAmount[id_] = instalmentAmount_;\n    _instalmentCount[id_] = instalmentCount_;\n    _instalmentPeriod[id_] = instalmentPeriod_;\n    _grantManager[id_] = grantManager;\n  }\n\n  /**\n   * @dev Transfers tokens held by beneficiary to timelock in installments\n   * @param token_: token address\n   * @param beneficiary_: beneficiary address\n   * @param startTime_: start time\n   * @param cliffPeriod_: initial waiting period\n   * @param instalmentAmount_: installment amount\n   * @param instalmentCount_: instalment count\n   * @param instalmentPeriod_: instalment period\n   *\n   * Emits a {AddGrantAsInstalment} event.\n   */\n  function addGrant(\n    address token_,\n    address beneficiary_,\n    uint256 startTime_,\n    uint256 cliffPeriod_,\n    uint256 instalmentAmount_,\n    uint256 instalmentCount_,\n    uint256 instalmentPeriod_\n  ) public virtual override nonReentrant returns (uint256 totalVestingAmount) {\n    // Require statements to for transaction sanity check\n    require(\n      token_ != address(0) &&\n        beneficiary_ != (address(0)) &&\n        instalmentAmount_ != 0 &&\n        instalmentCount_ != 0,\n      \"VT3\"\n    );\n\n    // check the calling address has suffecient tokens and then transfer tokens to this contract\n    totalVestingAmount = instalmentAmount_.mul(instalmentCount_);\n    require(\n      IERC20Upgradeable(token_).balanceOf(_msgSender()) >= totalVestingAmount,\n      \"VT11\"\n    );\n\n    // check if the grant is not already active\n    uint256 existingID = _beneficiaryID[token_][beneficiary_];\n    require(!_isActive[existingID], \"VT14\");\n\n    IERC20Upgradeable(token_).safeTransferFrom(\n      _msgSender(),\n      address(this),\n      totalVestingAmount\n    );\n\n    // generate a new id and allocate to the beneficiary\n    uint256 id = ++_id;\n    _grantCount[token_]++;\n    // add beneficiary to beneficiaryID\n    _beneficiaryID[token_][beneficiary_] = id;\n\n    _addGrant(\n      id,\n      beneficiary_,\n      startTime_,\n      cliffPeriod_,\n      instalmentAmount_,\n      instalmentCount_,\n      instalmentPeriod_,\n      _msgSender()\n    );\n\n    emit AddGrant(\n      id,\n      token_,\n      beneficiary_,\n      startTime_,\n      cliffPeriod_,\n      totalVestingAmount,\n      instalmentAmount_,\n      instalmentCount_,\n      instalmentPeriod_,\n      _msgSender(),\n      block.timestamp\n    );\n  }\n\n  /**\n   * @dev Revoke grant tokens held by timelock to beneficiary.\n   * @param id_: user id\n   *\n   * Emits a {AddGrantAsInstalment} event.\n   */\n  function _revokeGrant(uint256 id_)\n    internal\n    returns (uint256 remainingAmount)\n  {\n    // require the end date for grant to not have passed\n    require(_isActive[id_] && _endTime[id_] > block.timestamp, \"VT4\");\n\n    (remainingAmount, , ) = _getRemaining(id_);\n    // deactivate the grant (keep other values intact)\n    _isActive[id_] = false;\n  }\n\n  /**\n   * @dev Revoke grant tokens held by timelock to beneficiary.\n   * @param token_: token address\n   * @param beneficiary_: beneficiary address\n   *\n   * Emits a {RevokeGrant} event.\n   */\n  function revokeGrant(address token_, address beneficiary_)\n    public\n    virtual\n    override\n    nonReentrant\n    returns (uint256 remainingAmount)\n  {\n    // require beneficiary not be address(0)\n    require(token_ != address(0) && beneficiary_ != (address(0)), \"VT5\");\n\n    // get the ID and retrieve grantManager to compare with the msgSender()\n    uint256 id = _beneficiaryID[token_][beneficiary_];\n    require(id != 0, \"VT7\");\n    address grantManager = _grantManager[id];\n\n    // Grant can be revoked by the beneficiary, grant manager or GRANT ADMIN defined in the contract\n    require(\n      _msgSender() == beneficiary_ ||\n        _msgSender() == grantManager ||\n        hasRole(GRANT_ADMIN_ROLE, _msgSender()),\n      \"VT6\"\n    );\n\n    // find the remaining amount after revoke and transfer it back to the grant manager\n    remainingAmount = _revokeGrant(id);\n    assert(\n      remainingAmount <= IERC20Upgradeable(token_).balanceOf(address(this))\n    );\n\n    if (remainingAmount > 0) {\n      // delete _beneficiaryID[token_][beneficiary_];\n      IERC20Upgradeable(token_).safeTransfer(grantManager, remainingAmount);\n    }\n\n    // emit an event for record\n    emit RevokeGrant(token_, beneficiary_, remainingAmount, block.timestamp);\n  }\n\n  /**\n   * @dev Transfers tokens held by timelock to beneficiary.\n   * @param token_: token address\n   * @param beneficiary_: beneficiary address\n   *\n   * Emits a {ClaimGrant} event.\n   */\n  function claimGrant(address token_, address beneficiary_)\n    external\n    virtual\n    override\n    nonReentrant\n    whenNotPaused\n  {\n    // require beneficiary not be address(0)\n    require(token_ != address(0) && beneficiary_ != (address(0)), \"VT8\");\n\n    // get the ID and grant manager from the grant data\n    uint256 id = _beneficiaryID[token_][beneficiary_];\n    require(id != 0, \"VT9\");\n    address grantManager = _grantManager[id];\n\n    // Grant can be revoked by the beneficiary, grant manager or GRANT ADMIN defined in the contract\n    require(\n      _msgSender() == beneficiary_ ||\n        _msgSender() == grantManager ||\n        hasRole(GRANT_ADMIN_ROLE, _msgSender()),\n      \"VT10\"\n    );\n\n    // require the grant to be active and vesting amount still pening to be credited to beneficiary for claiming\n    require(\n      _isActive[id] &&\n        (_instalmentAmount[id].mul(_instalmentCount[id]) > _amountReceived[id]),\n      \"VT12\"\n    );\n\n    // get the pending amount to be credited to beneficiary\n    (uint256 pendingAmount, , ) = _getPending(id);\n\n    if (pendingAmount > 0) {\n      IERC20Upgradeable(token_).safeTransfer(beneficiary_, pendingAmount);\n      _amountReceived[id] = _amountReceived[id].add(pendingAmount);\n\n      // set last claimed for the grant to current time\n      _lastClaimedTimestamp[id] = block.timestamp;\n    }\n\n    // if all the vesting amount has been claimed, then deactivate grant\n    if (block.timestamp >= _endTime[id]) {\n      _isActive[id] = false;\n    }\n\n    emit ClaimGrant(token_, beneficiary_, pendingAmount, block.timestamp);\n  }\n\n  /**\n   * @dev Triggers stopped state.\n   *\n   * Requirements:\n   *\n   * - The contract must not be paused.\n   */\n  function pause() public virtual override returns (bool success) {\n    require(\n      hasRole(PAUSER_ROLE, _msgSender()),\n      \"VestingTimelock: Unauthorized User\"\n    );\n    _pause();\n    return true;\n  }\n\n  /**\n   * @dev Returns to normal state.\n   *\n   * Requirements:\n   *\n   * - The contract must be paused.\n   */\n  function unpause() public virtual override returns (bool success) {\n    require(\n      hasRole(PAUSER_ROLE, _msgSender()),\n      \"VestingTimelock: Unauthorized User\"\n    );\n    _unpause();\n    return true;\n  }\n}\n",
  "sourcePath": "C:\\Users\\Kamlesh\\Persistence\\pStake\\codebase\\erc20\\contracts\\VestingTimelockV2.sol",
  "compiler": {
    "name": "solc",
    "version": "0.7.6+commit.7338295f.Emscripten.clang"
  },
  "schemaVersion": "3.4.3",
  "updatedAt": "2021-11-12T14:11:05.692Z",
  "devdoc": {
    "details": "A token holder contract that will allow a beneficiary to extract the tokens after a given release time. Supports multiple vesting strategies like Cliffed, Continuous, Stepped etc.",
    "kind": "dev",
    "methods": {
      "addGrant(address,address,uint256,uint256,uint256,uint256,uint256)": {
        "details": "Transfers tokens held by beneficiary to timelock in installments",
        "params": {
          "beneficiary_": ": beneficiary address",
          "cliffPeriod_": ": initial waiting period",
          "instalmentAmount_": ": installment amount",
          "instalmentCount_": ": instalment count",
          "instalmentPeriod_": ": instalment period Emits a {AddGrantAsInstalment} event.",
          "startTime_": ": start time",
          "token_": ": token address"
        }
      },
      "claimGrant(address,address)": {
        "details": "Transfers tokens held by timelock to beneficiary.",
        "params": {
          "beneficiary_": ": beneficiary address Emits a {ClaimGrant} event.",
          "token_": ": token address"
        }
      },
      "getGrant(address,address)": {
        "details": "Get the details of the vesting grant for a user",
        "params": {
          "beneficiary_": ": address of beneficiary",
          "token_": ": address of token"
        }
      },
      "getGrantFromID(uint256)": {
        "details": "get the details of the vesting grant for a user from id",
        "params": {
          "id_": ": vesting grant for a user id"
        }
      },
      "getPending(address,address)": {
        "details": "calculate the pending time in the currently vesting installment",
        "params": {
          "beneficiary_": ": beneficiary address",
          "token_": ": token address"
        }
      },
      "getPendingFromID(uint256)": {
        "details": "calculate the pending time in the currently vesting installment from user id",
        "params": {
          "id_": ": user id"
        }
      },
      "getRemaining(address,address)": {
        "details": "calculate the remaining amount",
        "params": {
          "beneficiary_": ": beneficiary address",
          "token_": ": token address"
        }
      },
      "getRemainingFromID(uint256)": {
        "details": "calculate the remaining amount from user id",
        "params": {
          "id_": ": user id"
        }
      },
      "getRoleAdmin(bytes32)": {
        "details": "Returns the admin role that controls `role`. See {grantRole} and {revokeRole}. To change a role's admin, use {_setRoleAdmin}."
      },
      "getRoleMember(bytes32,uint256)": {
        "details": "Returns one of the accounts that have `role`. `index` must be a value between 0 and {getRoleMemberCount}, non-inclusive. Role bearers are not sorted in any particular way, and their ordering may change at any point. WARNING: When using {getRoleMember} and {getRoleMemberCount}, make sure you perform all queries on the same block. See the following https://forum.openzeppelin.com/t/iterating-over-elements-on-enumerableset-in-openzeppelin-contracts/2296[forum post] for more information."
      },
      "getRoleMemberCount(bytes32)": {
        "details": "Returns the number of accounts that have `role`. Can be used together with {getRoleMember} to enumerate all bearers of a role."
      },
      "grantRole(bytes32,address)": {
        "details": "Grants `role` to `account`. If `account` had not been already granted `role`, emits a {RoleGranted} event. Requirements: - the caller must have ``role``'s admin role."
      },
      "hasRole(bytes32,address)": {
        "details": "Returns `true` if `account` has been granted `role`."
      },
      "initialize(address,address)": {
        "details": "Constructor for initializing the Vesting Timelock contract.",
        "params": {
          "grantAdminAddress_": "- address of the grant admin.",
          "pauserAddress_": "- address of the pauser admin."
        }
      },
      "pause()": {
        "details": "Triggers stopped state. Requirements: - The contract must not be paused."
      },
      "paused()": {
        "details": "Returns true if the contract is paused, and false otherwise."
      },
      "renounceRole(bytes32,address)": {
        "details": "Revokes `role` from the calling account. Roles are often managed via {grantRole} and {revokeRole}: this function's purpose is to provide a mechanism for accounts to lose their privileges if they are compromised (such as when a trusted device is misplaced). If the calling account had been granted `role`, emits a {RoleRevoked} event. Requirements: - the caller must be `account`."
      },
      "revokeGrant(address,address)": {
        "details": "Revoke grant tokens held by timelock to beneficiary.",
        "params": {
          "beneficiary_": ": beneficiary address Emits a {RevokeGrant} event.",
          "token_": ": token address"
        }
      },
      "revokeRole(bytes32,address)": {
        "details": "Revokes `role` from `account`. If `account` had been granted `role`, emits a {RoleRevoked} event. Requirements: - the caller must have ``role``'s admin role."
      },
      "unpause()": {
        "details": "Returns to normal state. Requirements: - The contract must be paused."
      }
    },
    "version": 1
  },
  "userdoc": {
    "kind": "user",
    "methods": {},
    "version": 1
  }
}