{
  "contractName": "VestingTimelockV2",
  "abi": [
    {
      "anonymous": false,
      "inputs": [
        {
          "indexed": false,
          "internalType": "uint256",
          "name": "id",
          "type": "uint256"
        },
        {
          "indexed": false,
          "internalType": "address",
          "name": "token",
          "type": "address"
        },
        {
          "indexed": false,
          "internalType": "address",
          "name": "accountAddress",
          "type": "address"
        },
        {
          "indexed": false,
          "internalType": "uint256",
          "name": "startTime",
          "type": "uint256"
        },
        {
          "indexed": false,
          "internalType": "uint256",
          "name": "cliffTime",
          "type": "uint256"
        },
        {
          "indexed": false,
          "internalType": "uint256",
          "name": "tokens",
          "type": "uint256"
        },
        {
          "indexed": false,
          "internalType": "uint256",
          "name": "instalmentCount",
          "type": "uint256"
        },
        {
          "indexed": false,
          "internalType": "uint256",
          "name": "instalmentPeriod",
          "type": "uint256"
        },
        {
          "indexed": false,
          "internalType": "bool",
          "name": "isContinuousVesting",
          "type": "bool"
        },
        {
          "indexed": false,
          "internalType": "address",
          "name": "grantManager",
          "type": "address"
        },
        {
          "indexed": false,
          "internalType": "uint256",
          "name": "timestamp",
          "type": "uint256"
        }
      ],
      "name": "AddGrant",
      "type": "event"
    },
    {
      "anonymous": false,
      "inputs": [
        {
          "indexed": false,
          "internalType": "uint256",
          "name": "id",
          "type": "uint256"
        },
        {
          "indexed": false,
          "internalType": "address",
          "name": "token",
          "type": "address"
        },
        {
          "indexed": false,
          "internalType": "address",
          "name": "accountAddress",
          "type": "address"
        },
        {
          "indexed": false,
          "internalType": "uint256",
          "name": "startTime",
          "type": "uint256"
        },
        {
          "indexed": false,
          "internalType": "uint256",
          "name": "cliffTime",
          "type": "uint256"
        },
        {
          "indexed": false,
          "internalType": "uint256",
          "name": "tokens",
          "type": "uint256"
        },
        {
          "indexed": false,
          "internalType": "uint256",
          "name": "instalmentCount",
          "type": "uint256"
        },
        {
          "indexed": false,
          "internalType": "uint256",
          "name": "instalmentPeriod",
          "type": "uint256"
        },
        {
          "indexed": false,
          "internalType": "bool",
          "name": "isContinuousVesting",
          "type": "bool"
        },
        {
          "indexed": false,
          "internalType": "address",
          "name": "grantManager",
          "type": "address"
        },
        {
          "indexed": false,
          "internalType": "uint256",
          "name": "timestamp",
          "type": "uint256"
        }
      ],
      "name": "AddGrantAsInstalment",
      "type": "event"
    },
    {
      "anonymous": false,
      "inputs": [
        {
          "indexed": false,
          "internalType": "address",
          "name": "token",
          "type": "address"
        },
        {
          "indexed": false,
          "internalType": "address",
          "name": "accountAddress",
          "type": "address"
        },
        {
          "indexed": false,
          "internalType": "uint256",
          "name": "tokens",
          "type": "uint256"
        },
        {
          "indexed": false,
          "internalType": "uint256",
          "name": "timestamp",
          "type": "uint256"
        }
      ],
      "name": "ClaimGrant",
      "type": "event"
    },
    {
      "anonymous": false,
      "inputs": [
        {
          "indexed": false,
          "internalType": "address",
          "name": "account",
          "type": "address"
        }
      ],
      "name": "Paused",
      "type": "event"
    },
    {
      "anonymous": false,
      "inputs": [
        {
          "indexed": false,
          "internalType": "address",
          "name": "token",
          "type": "address"
        },
        {
          "indexed": false,
          "internalType": "address",
          "name": "accountAddress",
          "type": "address"
        },
        {
          "indexed": false,
          "internalType": "address",
          "name": "grantManager",
          "type": "address"
        },
        {
          "indexed": false,
          "internalType": "uint256",
          "name": "tokens",
          "type": "uint256"
        },
        {
          "indexed": false,
          "internalType": "uint256",
          "name": "timestamp",
          "type": "uint256"
        }
      ],
      "name": "RevokeGrant",
      "type": "event"
    },
    {
      "anonymous": false,
      "inputs": [
        {
          "indexed": true,
          "internalType": "bytes32",
          "name": "role",
          "type": "bytes32"
        },
        {
          "indexed": true,
          "internalType": "bytes32",
          "name": "previousAdminRole",
          "type": "bytes32"
        },
        {
          "indexed": true,
          "internalType": "bytes32",
          "name": "newAdminRole",
          "type": "bytes32"
        }
      ],
      "name": "RoleAdminChanged",
      "type": "event"
    },
    {
      "anonymous": false,
      "inputs": [
        {
          "indexed": true,
          "internalType": "bytes32",
          "name": "role",
          "type": "bytes32"
        },
        {
          "indexed": true,
          "internalType": "address",
          "name": "account",
          "type": "address"
        },
        {
          "indexed": true,
          "internalType": "address",
          "name": "sender",
          "type": "address"
        }
      ],
      "name": "RoleGranted",
      "type": "event"
    },
    {
      "anonymous": false,
      "inputs": [
        {
          "indexed": true,
          "internalType": "bytes32",
          "name": "role",
          "type": "bytes32"
        },
        {
          "indexed": true,
          "internalType": "address",
          "name": "account",
          "type": "address"
        },
        {
          "indexed": true,
          "internalType": "address",
          "name": "sender",
          "type": "address"
        }
      ],
      "name": "RoleRevoked",
      "type": "event"
    },
    {
      "anonymous": false,
      "inputs": [
        {
          "indexed": false,
          "internalType": "address",
          "name": "account",
          "type": "address"
        }
      ],
      "name": "Unpaused",
      "type": "event"
    },
    {
      "inputs": [],
      "name": "DEFAULT_ADMIN_ROLE",
      "outputs": [
        {
          "internalType": "bytes32",
          "name": "",
          "type": "bytes32"
        }
      ],
      "stateMutability": "view",
      "type": "function"
    },
    {
      "inputs": [],
      "name": "GRANT_ADMIN_ROLE",
      "outputs": [
        {
          "internalType": "bytes32",
          "name": "",
          "type": "bytes32"
        }
      ],
      "stateMutability": "view",
      "type": "function"
    },
    {
      "inputs": [],
      "name": "PAUSER_ROLE",
      "outputs": [
        {
          "internalType": "bytes32",
          "name": "",
          "type": "bytes32"
        }
      ],
      "stateMutability": "view",
      "type": "function"
    },
    {
      "inputs": [
        {
          "internalType": "address",
          "name": "",
          "type": "address"
        },
        {
          "internalType": "address",
          "name": "",
          "type": "address"
        }
      ],
      "name": "_beneficiaryID",
      "outputs": [
        {
          "internalType": "uint256",
          "name": "",
          "type": "uint256"
        }
      ],
      "stateMutability": "view",
      "type": "function"
    },
    {
      "inputs": [
        {
          "internalType": "address",
          "name": "",
          "type": "address"
        }
      ],
      "name": "_grantCount",
      "outputs": [
        {
          "internalType": "uint256",
          "name": "",
          "type": "uint256"
        }
      ],
      "stateMutability": "view",
      "type": "function"
    },
    {
      "inputs": [
        {
          "internalType": "uint256",
          "name": "",
          "type": "uint256"
        }
      ],
      "name": "_lastClaimedTimestamp",
      "outputs": [
        {
          "internalType": "uint256",
          "name": "",
          "type": "uint256"
        }
      ],
      "stateMutability": "view",
      "type": "function"
    },
    {
      "inputs": [],
      "name": "_version",
      "outputs": [
        {
          "internalType": "uint256",
          "name": "",
          "type": "uint256"
        }
      ],
      "stateMutability": "view",
      "type": "function"
    },
    {
      "inputs": [
        {
          "internalType": "bytes32",
          "name": "role",
          "type": "bytes32"
        }
      ],
      "name": "getRoleAdmin",
      "outputs": [
        {
          "internalType": "bytes32",
          "name": "",
          "type": "bytes32"
        }
      ],
      "stateMutability": "view",
      "type": "function"
    },
    {
      "inputs": [
        {
          "internalType": "bytes32",
          "name": "role",
          "type": "bytes32"
        },
        {
          "internalType": "uint256",
          "name": "index",
          "type": "uint256"
        }
      ],
      "name": "getRoleMember",
      "outputs": [
        {
          "internalType": "address",
          "name": "",
          "type": "address"
        }
      ],
      "stateMutability": "view",
      "type": "function"
    },
    {
      "inputs": [
        {
          "internalType": "bytes32",
          "name": "role",
          "type": "bytes32"
        }
      ],
      "name": "getRoleMemberCount",
      "outputs": [
        {
          "internalType": "uint256",
          "name": "",
          "type": "uint256"
        }
      ],
      "stateMutability": "view",
      "type": "function"
    },
    {
      "inputs": [
        {
          "internalType": "bytes32",
          "name": "role",
          "type": "bytes32"
        },
        {
          "internalType": "address",
          "name": "account",
          "type": "address"
        }
      ],
      "name": "grantRole",
      "outputs": [],
      "stateMutability": "nonpayable",
      "type": "function"
    },
    {
      "inputs": [
        {
          "internalType": "bytes32",
          "name": "role",
          "type": "bytes32"
        },
        {
          "internalType": "address",
          "name": "account",
          "type": "address"
        }
      ],
      "name": "hasRole",
      "outputs": [
        {
          "internalType": "bool",
          "name": "",
          "type": "bool"
        }
      ],
      "stateMutability": "view",
      "type": "function"
    },
    {
      "inputs": [],
      "name": "paused",
      "outputs": [
        {
          "internalType": "bool",
          "name": "",
          "type": "bool"
        }
      ],
      "stateMutability": "view",
      "type": "function"
    },
    {
      "inputs": [
        {
          "internalType": "bytes32",
          "name": "role",
          "type": "bytes32"
        },
        {
          "internalType": "address",
          "name": "account",
          "type": "address"
        }
      ],
      "name": "renounceRole",
      "outputs": [],
      "stateMutability": "nonpayable",
      "type": "function"
    },
    {
      "inputs": [
        {
          "internalType": "bytes32",
          "name": "role",
          "type": "bytes32"
        },
        {
          "internalType": "address",
          "name": "account",
          "type": "address"
        }
      ],
      "name": "revokeRole",
      "outputs": [],
      "stateMutability": "nonpayable",
      "type": "function"
    },
    {
      "inputs": [
        {
          "internalType": "address",
          "name": "pauserAddress_",
          "type": "address"
        },
        {
          "internalType": "address",
          "name": "grantAdminAddress_",
          "type": "address"
        }
      ],
      "name": "initialize",
      "outputs": [],
      "stateMutability": "nonpayable",
      "type": "function"
    },
    {
      "inputs": [
        {
          "internalType": "address",
          "name": "token_",
          "type": "address"
        },
        {
          "internalType": "address",
          "name": "beneficiary_",
          "type": "address"
        }
      ],
      "name": "getGrant",
      "outputs": [
        {
          "internalType": "uint256",
          "name": "startTime",
          "type": "uint256"
        },
        {
          "internalType": "uint256",
          "name": "endTime",
          "type": "uint256"
        },
        {
          "internalType": "uint256",
          "name": "cliffTime",
          "type": "uint256"
        },
        {
          "internalType": "address",
          "name": "beneficiary",
          "type": "address"
        },
        {
          "internalType": "bool",
          "name": "isActive",
          "type": "bool"
        },
        {
          "internalType": "uint256",
          "name": "instalmentAmount",
          "type": "uint256"
        },
        {
          "internalType": "uint256",
          "name": "instalmentCount",
          "type": "uint256"
        },
        {
          "internalType": "uint256",
          "name": "instalmentPeriod",
          "type": "uint256"
        },
        {
          "internalType": "uint256",
          "name": "amountReceived",
          "type": "uint256"
        },
        {
          "internalType": "bool",
          "name": "isContinuousVesting",
          "type": "bool"
        },
        {
          "internalType": "address",
          "name": "grantManager",
          "type": "address"
        }
      ],
      "stateMutability": "view",
      "type": "function"
    },
    {
      "inputs": [
        {
          "internalType": "uint256",
          "name": "id_",
          "type": "uint256"
        }
      ],
      "name": "getGrantFromID",
      "outputs": [
        {
          "internalType": "uint256",
          "name": "startTime",
          "type": "uint256"
        },
        {
          "internalType": "uint256",
          "name": "endTime",
          "type": "uint256"
        },
        {
          "internalType": "uint256",
          "name": "cliffTime",
          "type": "uint256"
        },
        {
          "internalType": "address",
          "name": "beneficiary",
          "type": "address"
        },
        {
          "internalType": "bool",
          "name": "isActive",
          "type": "bool"
        },
        {
          "internalType": "uint256",
          "name": "instalmentAmount",
          "type": "uint256"
        },
        {
          "internalType": "uint256",
          "name": "instalmentCount",
          "type": "uint256"
        },
        {
          "internalType": "uint256",
          "name": "instalmentPeriod",
          "type": "uint256"
        },
        {
          "internalType": "uint256",
          "name": "amountReceived",
          "type": "uint256"
        },
        {
          "internalType": "bool",
          "name": "isContinuousVesting",
          "type": "bool"
        },
        {
          "internalType": "address",
          "name": "grantManager",
          "type": "address"
        }
      ],
      "stateMutability": "view",
      "type": "function"
    },
    {
      "inputs": [
        {
          "internalType": "address",
          "name": "token_",
          "type": "address"
        },
        {
          "internalType": "address",
          "name": "beneficiary_",
          "type": "address"
        }
      ],
      "name": "getPending",
      "outputs": [
        {
          "internalType": "uint256",
          "name": "pendingAmount",
          "type": "uint256"
        },
        {
          "internalType": "uint256",
          "name": "pendingTime",
          "type": "uint256"
        },
        {
          "internalType": "uint256",
          "name": "pendingInstalment",
          "type": "uint256"
        }
      ],
      "stateMutability": "view",
      "type": "function"
    },
    {
      "inputs": [
        {
          "internalType": "uint256",
          "name": "id_",
          "type": "uint256"
        }
      ],
      "name": "getPendingFromID",
      "outputs": [
        {
          "internalType": "uint256",
          "name": "pendingAmount",
          "type": "uint256"
        },
        {
          "internalType": "uint256",
          "name": "pendingTime",
          "type": "uint256"
        },
        {
          "internalType": "uint256",
          "name": "pendingInstalment",
          "type": "uint256"
        }
      ],
      "stateMutability": "view",
      "type": "function"
    },
    {
      "inputs": [
        {
          "internalType": "address",
          "name": "token_",
          "type": "address"
        },
        {
          "internalType": "address",
          "name": "beneficiary_",
          "type": "address"
        }
      ],
      "name": "getRemaining",
      "outputs": [
        {
          "internalType": "uint256",
          "name": "remainingAmount",
          "type": "uint256"
        },
        {
          "internalType": "uint256",
          "name": "remainingTime",
          "type": "uint256"
        },
        {
          "internalType": "uint256",
          "name": "remainingInstalment",
          "type": "uint256"
        }
      ],
      "stateMutability": "view",
      "type": "function"
    },
    {
      "inputs": [
        {
          "internalType": "uint256",
          "name": "id_",
          "type": "uint256"
        }
      ],
      "name": "getRemainingFromID",
      "outputs": [
        {
          "internalType": "uint256",
          "name": "remainingAmount",
          "type": "uint256"
        },
        {
          "internalType": "uint256",
          "name": "remainingTime",
          "type": "uint256"
        },
        {
          "internalType": "uint256",
          "name": "remainingInstalment",
          "type": "uint256"
        }
      ],
      "stateMutability": "view",
      "type": "function"
    },
    {
      "inputs": [
        {
          "internalType": "address",
          "name": "token_",
          "type": "address"
        },
        {
          "internalType": "address",
          "name": "beneficiary_",
          "type": "address"
        },
        {
          "internalType": "uint256",
          "name": "startTime_",
          "type": "uint256"
        },
        {
          "internalType": "uint256",
          "name": "cliffPeriod_",
          "type": "uint256"
        },
        {
          "internalType": "uint256",
          "name": "totalAmount_",
          "type": "uint256"
        },
        {
          "internalType": "uint256",
          "name": "instalmentCount_",
          "type": "uint256"
        },
        {
          "internalType": "uint256",
          "name": "instalmentPeriod_",
          "type": "uint256"
        },
        {
          "internalType": "bool",
          "name": "isContinuousVesting_",
          "type": "bool"
        }
      ],
      "name": "addGrant",
      "outputs": [
        {
          "internalType": "uint256",
          "name": "instalmentAmount",
          "type": "uint256"
        }
      ],
      "stateMutability": "nonpayable",
      "type": "function"
    },
    {
      "inputs": [
        {
          "internalType": "address",
          "name": "token_",
          "type": "address"
        },
        {
          "internalType": "address",
          "name": "beneficiary_",
          "type": "address"
        },
        {
          "internalType": "uint256",
          "name": "startTime_",
          "type": "uint256"
        },
        {
          "internalType": "uint256",
          "name": "cliffPeriod_",
          "type": "uint256"
        },
        {
          "internalType": "uint256",
          "name": "instalmentAmount_",
          "type": "uint256"
        },
        {
          "internalType": "uint256",
          "name": "instalmentCount_",
          "type": "uint256"
        },
        {
          "internalType": "uint256",
          "name": "instalmentPeriod_",
          "type": "uint256"
        },
        {
          "internalType": "bool",
          "name": "isContinuousVesting_",
          "type": "bool"
        }
      ],
      "name": "addGrantAsInstalment",
      "outputs": [
        {
          "internalType": "uint256",
          "name": "totalVestingAmount",
          "type": "uint256"
        }
      ],
      "stateMutability": "nonpayable",
      "type": "function"
    },
    {
      "inputs": [
        {
          "internalType": "address",
          "name": "token_",
          "type": "address"
        },
        {
          "internalType": "address",
          "name": "beneficiary_",
          "type": "address"
        },
        {
          "internalType": "address",
          "name": "grantManager_",
          "type": "address"
        }
      ],
      "name": "revokeGrant",
      "outputs": [
        {
          "internalType": "uint256",
          "name": "remainingAmount",
          "type": "uint256"
        }
      ],
      "stateMutability": "nonpayable",
      "type": "function"
    },
    {
      "inputs": [
        {
          "internalType": "address",
          "name": "token_",
          "type": "address"
        },
        {
          "internalType": "address",
          "name": "beneficiary_",
          "type": "address"
        }
      ],
      "name": "claimGrant",
      "outputs": [],
      "stateMutability": "nonpayable",
      "type": "function"
    },
    {
      "inputs": [],
      "name": "pause",
      "outputs": [
        {
          "internalType": "bool",
          "name": "success",
          "type": "bool"
        }
      ],
      "stateMutability": "nonpayable",
      "type": "function"
    },
    {
      "inputs": [],
      "name": "unpause",
      "outputs": [
        {
          "internalType": "bool",
          "name": "success",
          "type": "bool"
        }
      ],
      "stateMutability": "nonpayable",
      "type": "function"
    }
  ],
  "bytecode": "0x608060405234801561001057600080fd5b50612e7b806100206000396000f3fe608060405234801561001057600080fd5b50600436106101c45760003560e01c80636d1319eb116100f9578063b415884411610097578063d6003d9e11610071578063d6003d9e146105be578063d7a6dbe3146105db578063dc76511114610609578063e63ab1e914610660576101c4565b8063b415884414610547578063ca15c87314610575578063d547741f14610592576101c4565b80639010d07c116100d35780639010d07c146104b757806391d14854146104f65780639f08f86914610522578063a217fddf1461053f576101c4565b80636d1319eb146103ef5780638456cb591461048157806388984a0d14610489576101c4565b80633e118dbe11610166578063485cc95511610140578063485cc955146103765780635138b2b7146103a45780635c975abb146103ca5780636ad1ee3d146103d2576101c4565b80633e118dbe1461031a5780633f4ba83a14610322578063417cbd911461033e576101c4565b80632c0acd2c116101a25780632c0acd2c1461029b5780632f2ff15d146102a35780632fdd100a146102d157806336568abe146102ee576101c4565b80630bf5bff7146101c957806314820f2f14610232578063248a9ca31461027e575b600080fd5b61022060048036036101008110156101e057600080fd5b506001600160a01b03813581169160208101359091169060408101359060608101359060808101359060a08101359060c08101359060e001351515610668565b60408051918252519081900360200190f35b6102606004803603604081101561024857600080fd5b506001600160a01b03813581169160200135166108d3565b60408051938452602084019290925282820152519081900360600190f35b6102206004803603602081101561029457600080fd5b503561093d565b610220610952565b6102cf600480360360408110156102b957600080fd5b50803590602001356001600160a01b0316610964565b005b610220600480360360208110156102e757600080fd5b50356109d0565b6102cf6004803603604081101561030457600080fd5b50803590602001356001600160a01b03166109e2565b610220610a43565b61032a610a49565b604080519115158252519081900360200190f35b6102206004803603606081101561035457600080fd5b506001600160a01b038135811691602081013582169160409091013516610aae565b6102cf6004803603604081101561038c57600080fd5b506001600160a01b0381358116916020013516610d87565b610220600480360360208110156103ba57600080fd5b50356001600160a01b0316610e85565b61032a610e97565b610260600480360360208110156103e857600080fd5b5035610ea0565b61041d6004803603604081101561040557600080fd5b506001600160a01b0381358116916020013516610ec6565b604080519b8c5260208c019a909a528a8a01989098526001600160a01b0396871660608b015294151560808a015260a089019390935260c088019190915260e087015261010086015215156101208501521661014083015251908190036101600190f35b61032a610f77565b6102606004803603604081101561049f57600080fd5b506001600160a01b0381358116916020013516610fd6565b6104da600480360360408110156104cd57600080fd5b5080359060200135611030565b604080516001600160a01b039092168252519081900360200190f35b61032a6004803603604081101561050c57600080fd5b50803590602001356001600160a01b0316611051565b61041d6004803603602081101561053857600080fd5b5035611069565b6102206110a9565b6102cf6004803603604081101561055d57600080fd5b506001600160a01b03813581169160200135166110ae565b6102206004803603602081101561058b57600080fd5b5035611410565b6102cf600480360360408110156105a857600080fd5b50803590602001356001600160a01b0316611427565b610260600480360360208110156105d457600080fd5b5035611480565b610220600480360360408110156105f157600080fd5b506001600160a01b0381358116916020013516611497565b610220600480360361010081101561062057600080fd5b506001600160a01b03813581169160208101359091169060408101359060608101359060808101359060a08101359060c08101359060e0013515156114b4565b6102206116de565b6000600260015414156106b0576040805162461bcd60e51b815260206004820152601f6024820152600080516020612cc6833981519152604482015290519081900360640190fd5b60026001556001600160a01b038916158015906106d557506001600160a01b03881615155b80156106e057508415155b80156106eb57508315155b610722576040805162461bcd60e51b81526020600482015260036024820152622b2a1960e91b604482015290519081900360640190fd5b61072c85856116f0565b905084896001600160a01b03166370a082318a6040518263ffffffff1660e01b815260040180826001600160a01b0316815260200191505060206040518083038186803b15801561077c57600080fd5b505afa158015610790573d6000803e3d6000fd5b505050506040513d60208110156107a657600080fd5b505110156107b357600080fd5b6107d06107be611757565b6001600160a01b038b1690308861175b565b60ca80546001908101918290556001600160a01b03808c16600090815260cb60209081526040808320805490950190945560cc8152838220928d168252919091522081905561082d818a8a8a868a8a8a610828611757565b6117bb565b7fb202c3f08fb28e09344f349ec8dd3dbc7afff036295930c73f97ddff38c3bc00818b8b8b8b8b8b8b8b61085f611757565b604080519a8b526001600160a01b03998a1660208c01529789168a89015260608a0196909652608089019490945260a088019290925260c087015260e086015215156101008501529091166101208301524261014083015251908190036101600190a1506001805598975050505050505050565b600080806001600160a01b03851615806108f457506001600160a01b038416155b156108fe57610936565b6001600160a01b03808616600090815260cc602090815260408083209388168352929052205461092d816118dd565b91955093509150505b9250925092565b60009081526097602052604090206002015490565b600080516020612dab83398151915281565b60008281526097602052604090206002015461098790610982611757565b611051565b6109c25760405162461bcd60e51b815260040180806020018281038252602f815260200180612c97602f913960400191505060405180910390fd5b6109cc8282611c25565b5050565b60d86020526000908152604090205481565b6109ea611757565b6001600160a01b0316816001600160a01b031614610a395760405162461bcd60e51b815260040180806020018281038252602f815260200180612e17602f913960400191505060405180910390fd5b6109cc8282611c8e565b60c95481565b6000610a65600080516020612d8b833981519152610982611757565b610aa05760405162461bcd60e51b8152600401808060200182810382526022815260200180612df56022913960400191505060405180910390fd5b610aa8611cf7565b50600190565b600060026001541415610af6576040805162461bcd60e51b815260206004820152601f6024820152600080516020612cc6833981519152604482015290519081900360640190fd5b60026001556001600160a01b03841615801590610b1b57506001600160a01b03831615155b8015610b2f57506001600160a01b03821615155b610b66576040805162461bcd60e51b815260206004820152600360248201526256543560e81b604482015290519081900360640190fd5b826001600160a01b0316610b78611757565b6001600160a01b03161480610ba55750816001600160a01b0316610b9a611757565b6001600160a01b0316145b80610bc55750610bc5600080516020612dab833981519152610982611757565b610bfc576040805162461bcd60e51b81526020600482015260036024820152622b2a1b60e91b604482015290519081900360640190fd5b6001600160a01b03808516600090815260cc602090815260408083209387168352929052205480610c5a576040805162461bcd60e51b815260206004820152600360248201526256543760e81b604482015290519081900360640190fd5b610c6381611d97565b9150846001600160a01b03166370a08231306040518263ffffffff1660e01b815260040180826001600160a01b0316815260200191505060206040518083038186803b158015610cb257600080fd5b505afa158015610cc6573d6000803e3d6000fd5b505050506040513d6020811015610cdc57600080fd5b5051821115610ce757fe5b8115610d23576001600160a01b03808616600081815260cc60209081526040808320948916835293905291822091909155610d23908484611e05565b604080516001600160a01b03808816825280871660208301528516818301526060810184905242608082015290517f622e473ff9b0fdf0725b70cd5aa11e70471d028e6a7ceda8f72c2efa84a6ac5c9181900360a00190a150600180559392505050565b600054610100900460ff1680610da05750610da0611e57565b80610dae575060005460ff16155b610de95760405162461bcd60e51b815260040180806020018281038252602e815260200180612d3c602e913960400191505060405180910390fd5b600054610100900460ff16158015610e14576000805460ff1961ff0019909116610100171660011790555b610e1c611e68565b610e24611f12565b610e2c611fb2565b610e3e6000610e39611757565b6109c2565b610e56600080516020612d8b833981519152846109c2565b610e6e600080516020612dab833981519152836109c2565b8015610e80576000805461ff00191690555b505050565b60cb6020526000908152604090205481565b60655460ff1690565b6000808083610eae57610ebf565b610eb78461205d565b919450925090505b9193909250565b6000808080808080808080806001600160a01b038d161580610eef57506001600160a01b038c16155b15610ef957610f67565b600060cc60008f6001600160a01b03166001600160a01b0316815260200190815260200160002060008e6001600160a01b03166001600160a01b03168152602001908152602001600020549050610f4f8161225d565b9b509b509b509b509b509b509b509b509b509b509b50505b9295989b509295989b9093969950565b6000610f93600080516020612d8b833981519152610982611757565b610fce5760405162461bcd60e51b8152600401808060200182810382526022815260200180612df56022913960400191505060405180910390fd5b610aa86123ca565b600080806001600160a01b0385161580610ff757506001600160a01b038416155b1561100157610936565b6001600160a01b03808616600090815260cc602090815260408083209388168352929052205461092d8161205d565b6000828152609760205260408120611048908361244d565b90505b92915050565b60008281526097602052604081206110489083612459565b60008060008060008060008060008060006110838c61225d565b9a509a509a509a509a509a509a509a509a509a509a505b91939597999b90929496989a50565b600081565b600260015414156110f4576040805162461bcd60e51b815260206004820152601f6024820152600080516020612cc6833981519152604482015290519081900360640190fd5b6002600155611101610e97565b15611146576040805162461bcd60e51b815260206004820152601060248201526f14185d5cd8589b194e881c185d5cd95960821b604482015290519081900360640190fd5b6001600160a01b0382161580159061116657506001600160a01b03811615155b61119d576040805162461bcd60e51b81526020600482015260036024820152620aca8760eb1b604482015290519081900360640190fd5b6001600160a01b03808316600090815260cc6020908152604080832093851683529290522054806111fb576040805162461bcd60e51b815260206004820152600360248201526256543960e81b604482015290519081900360640190fd5b600081815260d760205260409020546001600160a01b03908116908316611220611757565b6001600160a01b0316148061124d5750806001600160a01b0316611242611757565b6001600160a01b0316145b8061126d575061126d600080516020612dab833981519152610982611757565b6112a7576040805162461bcd60e51b815260206004808301919091526024820152630565431360e41b604482015290519081900360640190fd5b600082815260d1602052604090205460ff1680156112ed5750600082815260d5602090815260408083205460d383528184205460d29093529220546112eb9161246e565b115b611327576040805162461bcd60e51b815260206004808301919091526024820152632b2a189960e11b604482015290519081900360640190fd5b6000611332836118dd565b5090915050801561137a576113516001600160a01b0386168583611e05565b600083815260d5602052604090205461136a90826124c7565b600084815260d560205260409020555b600083815260d860209081526040808320429081905560ce90925290912054116113b557600083815260d160205260409020805460ff191690555b604080516001600160a01b0380881682528616602082015280820183905242606082015290517fe66d51f31c8a9131ea2d5eeef8ef1bb6c991a682392cf84096e45f04933f57349181900360800190a1505060018055505050565b600081815260976020526040812061104b90612521565b60008281526097602052604090206002015461144590610982611757565b610a395760405162461bcd60e51b8152600401808060200182810382526030815260200180612d0c6030913960400191505060405180910390fd5b600080808361148e57610ebf565b610eb7846118dd565b60cc60209081526000928352604080842090915290825290205481565b6000600260015414156114fc576040805162461bcd60e51b815260206004820152601f6024820152600080516020612cc6833981519152604482015290519081900360640190fd5b60026001556001600160a01b0389161580159061152157506001600160a01b03881615155b801561152c57508415155b801561153757508315155b61156e576040805162461bcd60e51b815260206004820152600360248201526256543360e81b604482015290519081900360640190fd5b611578858561246e565b905080896001600160a01b03166370a08231611592611757565b6040518263ffffffff1660e01b815260040180826001600160a01b0316815260200191505060206040518083038186803b1580156115cf57600080fd5b505afa1580156115e3573d6000803e3d6000fd5b505050506040513d60208110156115f957600080fd5b50511015611637576040805162461bcd60e51b815260206004808301919091526024820152635654313160e01b604482015290519081900360640190fd5b611654611642611757565b6001600160a01b038b1690308461175b565b60ca80546001908101918290556001600160a01b03808c16600090815260cb60209081526040808320805490950190945560cc8152838220928d16825291909152208190556116ac818a8a8a8a8a8a8a610828611757565b7f8ab096c8e89db3c4e8214cdf5815512e3b8b066274966b6078000d5be951867f818b8b8b8b8b8b8b8b61085f611757565b600080516020612d8b83398151915281565b6000808211611746576040805162461bcd60e51b815260206004820152601a60248201527f536166654d6174683a206469766973696f6e206279207a65726f000000000000604482015290519081900360640190fd5b81838161174f57fe5b049392505050565b3390565b604080516001600160a01b0380861660248301528416604482015260648082018490528251808303909101815260849091019091526020810180516001600160e01b03166323b872dd60e01b1790526117b590859061252c565b50505050565b600089815260d1602052604090205460ff1615611805576040805162461bcd60e51b815260206004820152600360248201526256543160e81b604482015290519081900360640190fd5b600061182f61181f6118188760016125dd565b869061246e565b6118298a8a6124c7565b906124c7565b60009a8b5260cd60209081526040808d209a909a5560ce8152898c209190915560cf8152888b20979097555060d0865286892080546001600160a01b03199081166001600160a01b039a8b161790915560d18752878a20805460ff1990811660011790915560d28852888b209690965560d38752878a209490945560d486528689209290925560d6855285882080549094169015151790925560d79092529190932080549093169116179055565b600081815260d8602090815260408083205460cf83528184205460cd9093529083205483928392918391829182918291611916916124c7565b4211611926575050505050610ebf565b600089815260ce60205260409020548510611945575050505050610ebf565b600089815260cf602090815260408083205460cd90925290912054611969916124c7565b85106119755784611999565b600089815260cf602090815260408083205460cd90925290912054611999916124c7565b60008a815260ce602052604090205490935042116119b757426119c7565b600089815260ce60205260409020545b60008a815260cd602052604090205490925085106119e557846119f5565b600089815260cd60205260409020545b9450611a0182866125dd565b9650611a0d82846125dd565b60008a815260d46020526040902054909150611a2a90829061263a565b60008a815260d6602052604090205490945060ff1615611b8c57600089815260cf602090815260408083205460cd90925290912054611a68916124c7565b831115611abe5760008411611a9657600089815260d46020526040902054611a919082906116f0565b611ab7565b600089815260d46020526040902054611ab7906001906118299084906116f0565b9550611b10565b60008411611aec57600089815260d46020526040902054611ae7906001906118299084906116f0565b611b0d565b600089815260d46020526040902054611b0d906002906118299084906116f0565b95505b60008411611b3757600089815260d26020526040902054611b3290879061246e565b611b85565b600089815260d26020526040902054611b8590611b5f90611b598960016125dd565b9061246e565b60008b815260d2602090815260408083205460d4909252909120546118299188916126a1565b9750611c19565b600089815260cf602090815260408083205460cd90925290912054611bb0916124c7565b831115611bd857600089815260d46020526040902054611bd19082906116f0565b9550611bfc565b600089815260d46020526040902054611bf9906001906118299084906116f0565b95505b600089815260d26020526040902054611c1690879061246e565b97505b50505050509193909250565b6000828152609760205260409020611c3d908261275c565b156109cc57611c4a611757565b6001600160a01b0316816001600160a01b0316837f2f8788117e7eff1d82e926ec794901d17c78024a50270940304540a733656f0d60405160405180910390a45050565b6000828152609760205260409020611ca69082612771565b156109cc57611cb3611757565b6001600160a01b0316816001600160a01b0316837ff6391f5c32d9c69d2a47ea670b442974b53935d1edc7fd64eb21e047a839171b60405160405180910390a45050565b611cff610e97565b611d47576040805162461bcd60e51b815260206004820152601460248201527314185d5cd8589b194e881b9bdd081c185d5cd95960621b604482015290519081900360640190fd5b6065805460ff191690557f5db9ee0a495bf2e6ff9c91a7834c1ba4fdd244a5e8aa4e537bd38aeae4b073aa611d7a611757565b604080516001600160a01b039092168252519081900360200190a1565b600081815260ce60205260408120544210611ddf576040805162461bcd60e51b815260206004820152600360248201526215950d60ea1b604482015290519081900360640190fd5b611de88261205d565b5050600092835260d16020526040909220805460ff191690555090565b604080516001600160a01b038416602482015260448082018490528251808303909101815260649091019091526020810180516001600160e01b031663a9059cbb60e01b179052610e8090849061252c565b6000611e6230612786565b15905090565b600054610100900460ff1680611e815750611e81611e57565b80611e8f575060005460ff16155b611eca5760405162461bcd60e51b815260040180806020018281038252602e815260200180612d3c602e913960400191505060405180910390fd5b600054610100900460ff16158015611ef5576000805460ff1961ff0019909116610100171660011790555b611efd61278c565b8015611f0f576000805461ff00191690555b50565b600054610100900460ff1680611f2b5750611f2b611e57565b80611f39575060005460ff16155b611f745760405162461bcd60e51b815260040180806020018281038252602e815260200180612d3c602e913960400191505060405180910390fd5b600054610100900460ff16158015611efd576000805460ff1961ff0019909116610100171660011790558015611f0f576000805461ff001916905550565b600054610100900460ff1680611fcb5750611fcb611e57565b80611fd9575060005460ff16155b6120145760405162461bcd60e51b815260040180806020018281038252602e815260200180612d3c602e913960400191505060405180910390fd5b600054610100900460ff1615801561203f576000805460ff1961ff0019909116610100171660011790555b6065805460ff191690558015611f0f576000805461ff001916905550565b600081815260d8602090815260408083205460cf83528184205460cd909352908320548392839291839161209191906124c7565b82116120f257600086815260d3602090815260408083205460d2909252909120546120bb9161246e565b600087815260ce60205260409020546120d490846125dd565b600088815260d3602052604090205491965094509250610ebf915050565b600086815260ce6020526040902054821061210e575050610ebf565b600086815260ce602052604090205461212790836125dd565b600087815260d4602052604090205490945061214490859061263a565b600087815260d6602052604090205490915060ff16156121ec57600086815260d460205260409020546121789085906116f0565b9250600081116121a157600086815260d2602052604090205461219c90849061246e565b6121e5565b600086815260d260205260409020546121e5906121bf90859061246e565b600088815260d2602090815260408083205460d4909252909120546118299185916126a1565b9450612254565b6000811161221357600086815260d4602052604090205461220e9085906116f0565b612234565b600086815260d46020526040902054612234906001906118299087906116f0565b600087815260d2602052604090205490935061225190849061246e565b94505b50509193909250565b6000808080808080808080808b6122735761109a565b60cd600060ca5481526020019081526020016000205460ce600060ca5481526020019081526020016000205460cf600060ca5481526020019081526020016000205460d0600060ca54815260200190815260200160002060009054906101000a90046001600160a01b031660d1600060ca54815260200190815260200160002060009054906101000a900460ff1660d2600060ca5481526020019081526020016000205460d3600060ca5481526020019081526020016000205460d4600060ca5481526020019081526020016000205460d5600060ca5481526020019081526020016000205460d6600060ca54815260200190815260200160002060009054906101000a900460ff1660d7600060ca54815260200190815260200160002060009054906101000a90046001600160a01b03169a509a509a509a509a509a509a509a509a509a509a5091939597999b90929496989a50565b6123d2610e97565b15612417576040805162461bcd60e51b815260206004820152601060248201526f14185d5cd8589b194e881c185d5cd95960821b604482015290519081900360640190fd5b6065805460ff191660011790557f62e78cea01bee320cd4e420270b5ea74000d11b0c9f74754ebdbfc544b05a258611d7a611757565b60006110488383612831565b6000611048836001600160a01b038416612895565b60008261247d5750600061104b565b8282028284828161248a57fe5b04146110485760405162461bcd60e51b8152600401808060200182810382526021815260200180612d6a6021913960400191505060405180910390fd5b600082820183811015611048576040805162461bcd60e51b815260206004820152601b60248201527f536166654d6174683a206164646974696f6e206f766572666c6f770000000000604482015290519081900360640190fd5b600061104b826128ad565b6000612581826040518060400160405280602081526020017f5361666545524332303a206c6f772d6c6576656c2063616c6c206661696c6564815250856001600160a01b03166128b19092919063ffffffff16565b805190915015610e80578080602001905160208110156125a057600080fd5b5051610e805760405162461bcd60e51b815260040180806020018281038252602a815260200180612dcb602a913960400191505060405180910390fd5b600082821115612634576040805162461bcd60e51b815260206004820152601e60248201527f536166654d6174683a207375627472616374696f6e206f766572666c6f770000604482015290519081900360640190fd5b50900390565b6000808211612690576040805162461bcd60e51b815260206004820152601860248201527f536166654d6174683a206d6f64756c6f206279207a65726f0000000000000000604482015290519081900360640190fd5b81838161269957fe5b069392505050565b60008060006126b086866128c8565b91509150600084806126be57fe5b8688099050828111156126d2576001820391505b9182900391816126f0578483816126e557fe5b049350505050612755565b848210612744576040805162461bcd60e51b815260206004820152601a60248201527f46756c6c4d6174683a2046554c4c4449565f4f564552464c4f57000000000000604482015290519081900360640190fd5b61274f8383876128f5565b93505050505b9392505050565b6000611048836001600160a01b038416612965565b6000611048836001600160a01b0384166129af565b3b151590565b600054610100900460ff16806127a557506127a5611e57565b806127b3575060005460ff16155b6127ee5760405162461bcd60e51b815260040180806020018281038252602e815260200180612d3c602e913960400191505060405180910390fd5b600054610100900460ff16158015612819576000805460ff1961ff0019909116610100171660011790555b600180558015611f0f576000805461ff001916905550565b815460009082106128735760405162461bcd60e51b8152600401808060200182810382526022815260200180612c756022913960400191505060405180910390fd5b82600001828154811061288257fe5b9060005260206000200154905092915050565b60009081526001919091016020526040902054151590565b5490565b60606128c08484600085612a75565b949350505050565b60008080600019848609905083850292508281039150828110156128ed576001820391505b509250929050565b6000818103821680838161290557fe5b04925080858161291157fe5b04945080816000038161292057fe5b60028581038087028203028087028203028087028203028087028203028087028203028087028203029586029003909402930460010193909302939093010292915050565b60006129718383612895565b6129a75750815460018181018455600084815260208082209093018490558454848252828601909352604090209190915561104b565b50600061104b565b60008181526001830160205260408120548015612a6b57835460001980830191908101906000908790839081106129e257fe5b90600052602060002001549050808760000184815481106129ff57fe5b600091825260208083209091019290925582815260018981019092526040902090840190558654879080612a2f57fe5b6001900381819060005260206000200160009055905586600101600087815260200190815260200160002060009055600194505050505061104b565b600091505061104b565b606082471015612ab65760405162461bcd60e51b8152600401808060200182810382526026815260200180612ce66026913960400191505060405180910390fd5b612abf85612786565b612b10576040805162461bcd60e51b815260206004820152601d60248201527f416464726573733a2063616c6c20746f206e6f6e2d636f6e7472616374000000604482015290519081900360640190fd5b600080866001600160a01b031685876040518082805190602001908083835b60208310612b4e5780518252601f199092019160209182019101612b2f565b6001836020036101000a03801982511681845116808217855250505050505090500191505060006040518083038185875af1925050503d8060008114612bb0576040519150601f19603f3d011682016040523d82523d6000602084013e612bb5565b606091505b5091509150612bc5828286612bd0565b979650505050505050565b60608315612bdf575081612755565b825115612bef5782518084602001fd5b8160405162461bcd60e51b81526004018080602001828103825283818151815260200191508051906020019080838360005b83811015612c39578181015183820152602001612c21565b50505050905090810190601f168015612c665780820380516001836020036101000a031916815260200191505b509250505060405180910390fdfe456e756d657261626c655365743a20696e646578206f7574206f6620626f756e6473416363657373436f6e74726f6c3a2073656e646572206d75737420626520616e2061646d696e20746f206772616e745265656e7472616e637947756172643a207265656e7472616e742063616c6c00416464726573733a20696e73756666696369656e742062616c616e636520666f722063616c6c416363657373436f6e74726f6c3a2073656e646572206d75737420626520616e2061646d696e20746f207265766f6b65496e697469616c697a61626c653a20636f6e747261637420697320616c726561647920696e697469616c697a6564536166654d6174683a206d756c7469706c69636174696f6e206f766572666c6f7765d7a28e3265b37a6474929f336521b332c1681b933f6cb9f3376673440d862a6a7a39ad350f111635f4a31ec3e3e5ca2f76f78880b843ba3f8705d7d3ac3eb95361666545524332303a204552433230206f7065726174696f6e20646964206e6f74207375636365656456657374696e6754696d656c6f636b3a20556e617574686f72697a65642055736572416363657373436f6e74726f6c3a2063616e206f6e6c792072656e6f756e636520726f6c657320666f722073656c66a26469706673582212206898acfdd7421bb27a55968edaefc24e05df41233268b38d6cc681552781872364736f6c63430007060033",
  "immutableReferences": {},
  "source": "// SPDX-License-Identifier: Unlicensed\npragma solidity >=0.7.0;\n\nimport \"@openzeppelin/contracts-upgradeable/proxy/Initializable.sol\";\nimport \"@openzeppelin/contracts-upgradeable/math/SafeMathUpgradeable.sol\";\nimport \"@openzeppelin/contracts-upgradeable/proxy/Initializable.sol\";\nimport \"@openzeppelin/contracts-upgradeable/access/AccessControlUpgradeable.sol\";\nimport \"@openzeppelin/contracts-upgradeable/utils/PausableUpgradeable.sol\";\nimport \"@openzeppelin/contracts-upgradeable/utils/ReentrancyGuardUpgradeable.sol\";\nimport \"@openzeppelin/contracts-upgradeable/token/ERC20/SafeERC20Upgradeable.sol\";\nimport \"@openzeppelin/contracts-upgradeable/token/ERC20/IERC20Upgradeable.sol\";\nimport \"./libraries/FullMath.sol\";\nimport \"./interfaces/IVestingTimelockV2.sol\";\n\n/**\n * @dev A token holder contract that will allow a beneficiary to extract the\n * tokens after a given release time.\n * Supports multiple vesting strategies like Cliffed, Continuous, Stepped etc.\n */\ncontract VestingTimelockV2 is\n  Initializable,\n  IVestingTimelockV2,\n  ReentrancyGuardUpgradeable,\n  PausableUpgradeable,\n  AccessControlUpgradeable\n{\n  // including libraries\n  using SafeERC20Upgradeable for IERC20Upgradeable;\n  using SafeMathUpgradeable for uint256;\n  using FullMath for uint256;\n\n  // Access Roles\n  bytes32 public constant PAUSER_ROLE = keccak256(\"PAUSER_ROLE\");\n  bytes32 public constant GRANT_ADMIN_ROLE = keccak256(\"GRANT_ADMIN_ROLE\");\n\n  // variable pertaining to contract upgrades versioning\n  uint256 public _version;\n\n  // Vesting grant identifier\n  uint256 _id;\n  mapping(address => uint256) public _grantCount;\n  mapping(address => mapping(address => uint256)) public _beneficiaryID;\n\n  // Vesting grant parameters mapped to grant ID\n  mapping(uint256 => uint256) _startTime;\n  mapping(uint256 => uint256) _endTime;\n  mapping(uint256 => uint256) _cliffTime;\n  mapping(uint256 => address) _beneficiary;\n  mapping(uint256 => bool) _isActive;\n  mapping(uint256 => uint256) _instalmentAmount;\n  mapping(uint256 => uint256) _instalmentCount;\n  mapping(uint256 => uint256) _instalmentPeriod;\n  mapping(uint256 => uint256) _amountReceived;\n  mapping(uint256 => bool) _isContinuousVesting;\n  mapping(uint256 => address) _grantManager;\n\n  // Last claimed timestamp mapped to grant ID\n  mapping(uint256 => uint256) public _lastClaimedTimestamp;\n\n  /**\n   * @dev Constructor for initializing the SToken contract.\n   */\n  function initialize(address pauserAddress_, address grantAdminAddress_)\n    public\n    virtual\n    initializer\n  {\n    __ReentrancyGuard_init();\n    __AccessControl_init_unchained();\n    __Pausable_init_unchained();\n    _setupRole(DEFAULT_ADMIN_ROLE, _msgSender());\n    _setupRole(PAUSER_ROLE, pauserAddress_);\n    _setupRole(GRANT_ADMIN_ROLE, grantAdminAddress_);\n  }\n\n  /**\n   * @notice Transfers tokens held by beneficiary to timelock.\n   */\n  function _getGrant(uint256 id_)\n    internal\n    view\n    returns (\n      uint256 startTime,\n      uint256 endTime,\n      uint256 cliffTime,\n      address beneficiary,\n      bool isActive,\n      uint256 instalmentAmount,\n      uint256 instalmentCount,\n      uint256 instalmentPeriod,\n      uint256 amountReceived,\n      bool isContinuousVesting,\n      address grantManager\n    )\n  {\n    if (id_ == 0) {\n      return (\n        startTime,\n        endTime,\n        cliffTime,\n        beneficiary,\n        isActive,\n        instalmentAmount,\n        instalmentCount,\n        instalmentPeriod,\n        amountReceived,\n        isContinuousVesting,\n        grantManager\n      );\n    }\n\n    return (\n      _startTime[_id],\n      _endTime[_id],\n      _cliffTime[_id],\n      _beneficiary[_id],\n      _isActive[_id],\n      _instalmentAmount[_id],\n      _instalmentCount[_id],\n      _instalmentPeriod[_id],\n      _amountReceived[_id],\n      _isContinuousVesting[_id],\n      _grantManager[_id]\n    );\n  }\n\n  /**\n   * @dev get the details of the vesting grant for a user\n   */\n  function getGrant(address token_, address beneficiary_)\n    public\n    view\n    virtual\n    override\n    returns (\n      uint256 startTime,\n      uint256 endTime,\n      uint256 cliffTime,\n      address beneficiary,\n      bool isActive,\n      uint256 instalmentAmount,\n      uint256 instalmentCount,\n      uint256 instalmentPeriod,\n      uint256 amountReceived,\n      bool isContinuousVesting,\n      address grantManager\n    )\n  {\n    if (token_ == address(0) || beneficiary_ == address(0)) {\n      return (\n        startTime,\n        endTime,\n        cliffTime,\n        beneficiary,\n        isActive,\n        instalmentAmount,\n        instalmentCount,\n        instalmentPeriod,\n        amountReceived,\n        isContinuousVesting,\n        grantManager\n      );\n    }\n    uint256 id = _beneficiaryID[token_][beneficiary_];\n    return _getGrant(id);\n  }\n\n  /**\n   * @dev get the details of the vesting grant for a user\n   */\n  function getGrantFromID(uint256 id_)\n    public\n    view\n    virtual\n    override\n    returns (\n      uint256 startTime,\n      uint256 endTime,\n      uint256 cliffTime,\n      address beneficiary,\n      bool isActive,\n      uint256 instalmentAmount,\n      uint256 instalmentCount,\n      uint256 instalmentPeriod,\n      uint256 amountReceived,\n      bool isContinuousVesting,\n      address grantManager\n    )\n  {\n    return _getGrant(id_);\n  }\n\n  /**\n   * @notice Transfers tokens held by beneficiary to timelock.\n   */\n  function _getPending(uint256 id_)\n    internal\n    view\n    returns (\n      uint256 pendingAmount,\n      uint256 pendingTime,\n      uint256 pendingInstalment\n    )\n  {\n    uint256 lastClaimedTimestamp = _lastClaimedTimestamp[id_];\n    uint256 instalmentPeriodRemainder;\n    uint256 lowerTimestamp;\n    uint256 higherTimestamp;\n    uint256 pendingVestingTime;\n\n    // if cliff time is not crossed by lastClaimedTimestamp, return the full amount and instalment count\n    if (block.timestamp <= _startTime[id_].add(_cliffTime[id_])) {\n      return (pendingAmount, pendingTime, pendingInstalment);\n    }\n\n    // if the last claimed timstamp has crossed the endTime, return zero\n    if (lastClaimedTimestamp >= _endTime[id_])\n      return (pendingAmount, pendingTime, pendingInstalment);\n\n    lowerTimestamp = (lastClaimedTimestamp <\n      _startTime[id_].add(_cliffTime[id_]))\n      ? _startTime[id_].add(_cliffTime[id_])\n      : lastClaimedTimestamp;\n\n    higherTimestamp = (block.timestamp > _endTime[id_])\n      ? _endTime[id_]\n      : block.timestamp;\n\n    lastClaimedTimestamp = (\n      lastClaimedTimestamp < _startTime[id_]\n        ? _startTime[id_]\n        : lastClaimedTimestamp\n    );\n\n    // calculate pending time between last claimed and current time\n    pendingTime = higherTimestamp.sub(lastClaimedTimestamp);\n    pendingVestingTime = higherTimestamp.sub(lowerTimestamp);\n\n    // calculate the pending time in the currently vesting instalment\n    instalmentPeriodRemainder = pendingVestingTime.mod(_instalmentPeriod[id_]);\n\n    // calculate pendingAmount as per vesting mode\n    if (_isContinuousVesting[id_]) {\n      // _instalmentPeriod[id_] zero condition need not be checked as it would come under already elapsed grant's end time\n      if (lowerTimestamp > _startTime[id_].add(_cliffTime[id_])) {\n        pendingInstalment = (instalmentPeriodRemainder > 0)\n          ? (pendingVestingTime.div(_instalmentPeriod[id_])).add(1)\n          : (pendingVestingTime.div(_instalmentPeriod[id_]));\n      } else {\n        pendingInstalment = (instalmentPeriodRemainder > 0)\n          ? (pendingVestingTime.div(_instalmentPeriod[id_])).add(2)\n          : (pendingVestingTime.div(_instalmentPeriod[id_])).add(1);\n      }\n\n      // pending amount will contain the amount pro-rated to the time diff component also, along with the pendingInstalment\n      pendingAmount = (instalmentPeriodRemainder > 0)\n        ? (\n          (\n            instalmentPeriodRemainder.mulDiv(\n              _instalmentAmount[id_],\n              _instalmentPeriod[id_]\n            )\n          ).add((pendingInstalment.sub(1)).mul(_instalmentAmount[id_]))\n        )\n        : (pendingInstalment.mul(_instalmentAmount[id_]));\n    } else {\n      // _instalmentPeriod[id_] zero condition need not be checked as it would come under already elapsed grant's end time\n      if (lowerTimestamp > _startTime[id_].add(_cliffTime[id_])) {\n        pendingInstalment = (pendingVestingTime.div(_instalmentPeriod[id_]));\n      } else {\n        pendingInstalment = (pendingVestingTime.div(_instalmentPeriod[id_]))\n          .add(1);\n      }\n\n      // pending amount will be directly derived from pendingInstalment\n      pendingAmount = pendingInstalment.mul(_instalmentAmount[id_]);\n    }\n  }\n\n  /**\n   * @dev get the details of the vesting grant for a user\n   */\n  function getPending(address token_, address beneficiary_)\n    public\n    view\n    virtual\n    override\n    returns (\n      uint256 pendingAmount,\n      uint256 pendingTime,\n      uint256 pendingInstalment\n    )\n  {\n    if (token_ == address(0) || beneficiary_ == address(0))\n      return (pendingAmount, pendingTime, pendingInstalment);\n\n    uint256 id = _beneficiaryID[token_][beneficiary_];\n    (pendingAmount, pendingTime, pendingInstalment) = _getPending(id);\n  }\n\n  /**\n   * @dev get the details of the vesting grant for a user\n   */\n  function getPendingFromID(uint256 id_)\n    public\n    view\n    virtual\n    override\n    returns (\n      uint256 pendingAmount,\n      uint256 pendingTime,\n      uint256 pendingInstalment\n    )\n  {\n    if (id_ == 0) return (pendingAmount, pendingTime, pendingInstalment);\n    (pendingAmount, pendingTime, pendingInstalment) = _getPending(id_);\n  }\n\n  /**\n   * @notice Transfers tokens held by beneficiary to timelock.\n   */\n  function _getRemaining(uint256 id_)\n    internal\n    view\n    returns (\n      uint256 remainingAmount,\n      uint256 remainingTime,\n      uint256 remainingInstalment\n    )\n  {\n    uint256 lastClaimedTimestamp = _lastClaimedTimestamp[id_];\n    uint256 instalmentPeriodRemainder;\n\n    // if cliff time is not crossed by lastClaimedTimestamp, return the full amount and instalment count\n    if (lastClaimedTimestamp <= _startTime[id_].add(_cliffTime[id_])) {\n      return (\n        _instalmentAmount[id_].mul(_instalmentCount[id_]),\n        _endTime[id_].sub(lastClaimedTimestamp),\n        _instalmentCount[id_]\n      );\n    }\n\n    // if the last claimed timstamp has crossed the endTime, return zero\n    if (lastClaimedTimestamp >= _endTime[id_])\n      return (remainingAmount, remainingTime, remainingInstalment);\n\n    // if cliff time is crossed then calculate the remaining data by taking the ratio\n    remainingTime = _endTime[id_].sub(lastClaimedTimestamp);\n\n    // calculate the remaining time in the currently vesting instalment\n    instalmentPeriodRemainder = remainingTime.mod(_instalmentPeriod[id_]);\n\n    // calculate remainingAmount as per vesting mode\n    if (_isContinuousVesting[id_]) {\n      // _instalmentPeriod[id_] zero condition need not be checked as it would come under already elapsed grant's end time\n      remainingInstalment = (remainingTime.div(_instalmentPeriod[id_]));\n\n      remainingAmount = (instalmentPeriodRemainder > 0)\n        ? (\n          (\n            instalmentPeriodRemainder.mulDiv(\n              _instalmentAmount[id_],\n              _instalmentPeriod[id_]\n            )\n          ).add((remainingInstalment).mul(_instalmentAmount[id_]))\n        )\n        : (remainingInstalment.mul(_instalmentAmount[id_]));\n    } else {\n      // _instalmentPeriod[id_] zero condition need not be checked as it would come under already elapsed grant's end time\n      remainingInstalment = (instalmentPeriodRemainder > 0)\n        ? (remainingTime.div(_instalmentPeriod[id_])).add(1)\n        : (remainingTime.div(_instalmentPeriod[id_]));\n\n      remainingAmount = remainingInstalment.mul(_instalmentAmount[id_]);\n    }\n  }\n\n  /**\n   * @dev get the details of the vesting grant for a user\n   */\n  function getRemaining(address token_, address beneficiary_)\n    public\n    view\n    virtual\n    override\n    returns (\n      uint256 remainingAmount,\n      uint256 remainingTime,\n      uint256 remainingInstalment\n    )\n  {\n    if (token_ == address(0) || beneficiary_ == address(0))\n      return (remainingAmount, remainingTime, remainingInstalment);\n\n    uint256 id = _beneficiaryID[token_][beneficiary_];\n    (remainingAmount, remainingTime, remainingInstalment) = _getRemaining(id);\n  }\n\n  /**\n   * @dev get the details of the vesting grant for a user\n   */\n  function getRemainingFromID(uint256 id_)\n    public\n    view\n    virtual\n    override\n    returns (\n      uint256 remainingAmount,\n      uint256 remainingTime,\n      uint256 remainingInstalment\n    )\n  {\n    if (id_ == 0) return (remainingAmount, remainingTime, remainingInstalment);\n    (remainingAmount, remainingTime, remainingInstalment) = _getRemaining(id_);\n  }\n\n  /**\n   * @notice Transfers tokens held by beneficiary to timelock.\n   */\n  function _addGrant(\n    uint256 id_,\n    address beneficiary_,\n    uint256 startTime_,\n    uint256 cliffPeriod_,\n    uint256 instalmentAmount_,\n    uint256 instalmentCount_,\n    uint256 instalmentPeriod_,\n    bool isContinuousVesting_,\n    address grantManager\n  ) internal {\n    // Require statement to check if grant is already active\n    require(!_isActive[id_], \"VT1\");\n    uint256 endTime = startTime_.add(cliffPeriod_).add(\n      instalmentPeriod_.mul(instalmentCount_.sub(1))\n    );\n\n    _startTime[id_] = startTime_;\n    _endTime[id_] = endTime;\n    _cliffTime[id_] = cliffPeriod_;\n    _beneficiary[id_] = beneficiary_;\n    _isActive[id_] = true;\n    _instalmentAmount[id_] = instalmentAmount_;\n    _instalmentCount[id_] = instalmentCount_;\n    _instalmentPeriod[id_] = instalmentPeriod_;\n    _isContinuousVesting[id_] = isContinuousVesting_;\n    _grantManager[id_] = grantManager;\n  }\n\n  /**\n   * @notice Transfers tokens held by beneficiary to timelock.\n   */\n  function addGrant(\n    address token_,\n    address beneficiary_,\n    uint256 startTime_,\n    uint256 cliffPeriod_,\n    uint256 totalAmount_,\n    uint256 instalmentCount_,\n    uint256 instalmentPeriod_,\n    bool isContinuousVesting_\n  ) public virtual override nonReentrant returns (uint256 instalmentAmount) {\n    // Require statements to for transaction sanity check\n    require(\n      token_ != address(0) &&\n        beneficiary_ != address(0) &&\n        totalAmount_ != 0 &&\n        instalmentCount_ != 0,\n      \"VT2\"\n    );\n\n    // check the calling address has suffecient tokens and then transfer tokens to this contract\n    instalmentAmount = totalAmount_.div(instalmentCount_);\n    require(IERC20Upgradeable(token_).balanceOf(beneficiary_) >= totalAmount_);\n    IERC20Upgradeable(token_).safeTransferFrom(\n      _msgSender(),\n      address(this),\n      totalAmount_\n    );\n\n    // generate a new id and allocate to the beneficiary\n    uint256 id = ++_id;\n    _grantCount[token_]++;\n    // add beneficiary to beneficiaryID\n    _beneficiaryID[token_][beneficiary_] = id;\n\n    _addGrant(\n      id,\n      beneficiary_,\n      startTime_,\n      cliffPeriod_,\n      instalmentAmount,\n      instalmentCount_,\n      instalmentPeriod_,\n      isContinuousVesting_,\n      _msgSender()\n    );\n\n    emit AddGrant(\n      id,\n      token_,\n      beneficiary_,\n      startTime_,\n      cliffPeriod_,\n      totalAmount_,\n      instalmentCount_,\n      instalmentPeriod_,\n      isContinuousVesting_,\n      _msgSender(),\n      block.timestamp\n    );\n  }\n\n  /**\n   * @notice Transfers tokens held by beneficiary to timelock.\n   */\n  function addGrantAsInstalment(\n    address token_,\n    address beneficiary_,\n    uint256 startTime_,\n    uint256 cliffPeriod_,\n    uint256 instalmentAmount_,\n    uint256 instalmentCount_,\n    uint256 instalmentPeriod_,\n    bool isContinuousVesting_\n  ) public virtual override nonReentrant returns (uint256 totalVestingAmount) {\n    // Require statements to for transaction sanity check\n    require(\n      token_ != address(0) &&\n        beneficiary_ != (address(0)) &&\n        instalmentAmount_ != 0 &&\n        instalmentCount_ != 0,\n      \"VT3\"\n    );\n\n    // check the calling address has suffecient tokens and then transfer tokens to this contract\n    totalVestingAmount = instalmentAmount_.mul(instalmentCount_);\n\n    require(\n      IERC20Upgradeable(token_).balanceOf(_msgSender()) >= totalVestingAmount,\n      \"VT11\"\n    );\n\n    IERC20Upgradeable(token_).safeTransferFrom(\n      _msgSender(),\n      address(this),\n      totalVestingAmount\n    );\n\n    // generate a new id and allocate to the beneficiary\n    uint256 id = ++_id;\n    _grantCount[token_]++;\n    // add beneficiary to beneficiaryID\n    _beneficiaryID[token_][beneficiary_] = id;\n\n    _addGrant(\n      id,\n      beneficiary_,\n      startTime_,\n      cliffPeriod_,\n      instalmentAmount_,\n      instalmentCount_,\n      instalmentPeriod_,\n      isContinuousVesting_,\n      _msgSender()\n    );\n\n    emit AddGrantAsInstalment(\n      id,\n      token_,\n      beneficiary_,\n      startTime_,\n      cliffPeriod_,\n      instalmentAmount_,\n      instalmentCount_,\n      instalmentPeriod_,\n      isContinuousVesting_,\n      _msgSender(),\n      block.timestamp\n    );\n  }\n\n  /**\n   * @notice revokeGrant tokens held by timelock to beneficiary.\n   */\n  function _revokeGrant(uint256 id_)\n    internal\n    returns (uint256 remainingAmount)\n  {\n    // require the end date for grant to not have passed\n    require(_endTime[id_] > block.timestamp, \"VT4\");\n\n    (remainingAmount, , ) = _getRemaining(id_);\n    // deactivate the grant (keep other values intact)\n    _isActive[id_] = false;\n  }\n\n  /**\n   * @notice revokeGrant tokens held by timelock to beneficiary.\n   */\n  function revokeGrant(\n    address token_,\n    address beneficiary_,\n    address grantManager_\n  ) public virtual override nonReentrant returns (uint256 remainingAmount) {\n    // require beneficiary not be address(0)\n    require(\n      token_ != address(0) &&\n        beneficiary_ != (address(0)) &&\n        grantManager_ != address(0),\n      \"VT5\"\n    );\n\n    // Grant can be revoked by the beneficiary, grant manager or GRANT ADMIN defined in the contract\n    require(\n      _msgSender() == beneficiary_ ||\n        _msgSender() == grantManager_ ||\n        hasRole(GRANT_ADMIN_ROLE, _msgSender()),\n      \"VT6\"\n    );\n\n    // get the ID and delete corresponding _beneficiaryID value\n    uint256 id = _beneficiaryID[token_][beneficiary_];\n    require(id != 0, \"VT7\");\n\n    // find the remaining amount after revoke and transfer it back to the grant manager\n    remainingAmount = _revokeGrant(id);\n    assert(\n      remainingAmount <= IERC20Upgradeable(token_).balanceOf(address(this))\n    );\n\n    if (remainingAmount > 0) {\n      delete _beneficiaryID[token_][beneficiary_];\n      IERC20Upgradeable(token_).safeTransfer(grantManager_, remainingAmount);\n    }\n\n    // emit an event for record\n    emit RevokeGrant(\n      token_,\n      beneficiary_,\n      grantManager_,\n      remainingAmount,\n      block.timestamp\n    );\n  }\n\n  /**\n   * @notice Transfers tokens held by timelock to beneficiary.\n   */\n  function claimGrant(address token_, address beneficiary_)\n    external\n    virtual\n    override\n    nonReentrant\n    whenNotPaused\n  {\n    // require beneficiary not be address(0)\n    require(token_ != address(0) && beneficiary_ != (address(0)), \"VT8\");\n\n    // get the ID and grant manager from the grant data\n    uint256 id = _beneficiaryID[token_][beneficiary_];\n    require(id != 0, \"VT9\");\n    address grantManager = _grantManager[id];\n\n    // Grant can be revoked by the beneficiary, grant manager or GRANT ADMIN defined in the contract\n    require(\n      _msgSender() == beneficiary_ ||\n        _msgSender() == grantManager ||\n        hasRole(GRANT_ADMIN_ROLE, _msgSender()),\n      \"VT10\"\n    );\n\n    // require the grant to be active and vesting amount still pening to be credited to beneficiary for claiming\n    require(\n      _isActive[id] &&\n        (_instalmentAmount[id].mul(_instalmentCount[id]) > _amountReceived[id]),\n      \"VT12\"\n    );\n\n    // get the pending amount to be credited to beneficiary\n    (uint256 pendingAmount, , ) = _getPending(id);\n\n    if (pendingAmount > 0) {\n      IERC20Upgradeable(token_).safeTransfer(beneficiary_, pendingAmount);\n      _amountReceived[id] = _amountReceived[id].add(pendingAmount);\n    }\n\n    // set last claimed for the grant to current time\n    _lastClaimedTimestamp[id] = block.timestamp;\n\n    // if all the vesting amount has been claimed, then deactivate grant\n    if (block.timestamp >= _endTime[id]) {\n      _isActive[id] = false;\n    }\n\n    emit ClaimGrant(token_, beneficiary_, pendingAmount, block.timestamp);\n  }\n\n  /**\n   * @dev Triggers stopped state.\n   *\n   * Requirements:\n   *\n   * - The contract must not be paused.\n   */\n  function pause() public virtual override returns (bool success) {\n    require(\n      hasRole(PAUSER_ROLE, _msgSender()),\n      \"VestingTimelock: Unauthorized User\"\n    );\n    _pause();\n    return true;\n  }\n\n  /**\n   * @dev Returns to normal state.\n   *\n   * Requirements:\n   *\n   * - The contract must be paused.\n   */\n  function unpause() public virtual override returns (bool success) {\n    require(\n      hasRole(PAUSER_ROLE, _msgSender()),\n      \"VestingTimelock: Unauthorized User\"\n    );\n    _unpause();\n    return true;\n  }\n}\n",
  "sourcePath": "C:\\Users\\Kamlesh\\Persistence\\pStake\\codebase\\erc20\\contracts\\VestingTimelockV2.sol",
  "compiler": {
    "name": "solc",
    "version": "0.7.6+commit.7338295f.Emscripten.clang"
  },
  "schemaVersion": "3.4.3",
  "updatedAt": "2021-11-03T02:25:00.158Z",
  "devdoc": {
    "details": "A token holder contract that will allow a beneficiary to extract the tokens after a given release time. Supports multiple vesting strategies like Cliffed, Continuous, Stepped etc.",
    "kind": "dev",
    "methods": {
      "getGrant(address,address)": {
        "details": "get the details of the vesting grant for a user"
      },
      "getGrantFromID(uint256)": {
        "details": "get the details of the vesting grant for a user"
      },
      "getPending(address,address)": {
        "details": "get the details of the vesting grant for a user"
      },
      "getPendingFromID(uint256)": {
        "details": "get the details of the vesting grant for a user"
      },
      "getRemaining(address,address)": {
        "details": "get the details of the vesting grant for a user"
      },
      "getRemainingFromID(uint256)": {
        "details": "get the details of the vesting grant for a user"
      },
      "getRoleAdmin(bytes32)": {
        "details": "Returns the admin role that controls `role`. See {grantRole} and {revokeRole}. To change a role's admin, use {_setRoleAdmin}."
      },
      "getRoleMember(bytes32,uint256)": {
        "details": "Returns one of the accounts that have `role`. `index` must be a value between 0 and {getRoleMemberCount}, non-inclusive. Role bearers are not sorted in any particular way, and their ordering may change at any point. WARNING: When using {getRoleMember} and {getRoleMemberCount}, make sure you perform all queries on the same block. See the following https://forum.openzeppelin.com/t/iterating-over-elements-on-enumerableset-in-openzeppelin-contracts/2296[forum post] for more information."
      },
      "getRoleMemberCount(bytes32)": {
        "details": "Returns the number of accounts that have `role`. Can be used together with {getRoleMember} to enumerate all bearers of a role."
      },
      "grantRole(bytes32,address)": {
        "details": "Grants `role` to `account`. If `account` had not been already granted `role`, emits a {RoleGranted} event. Requirements: - the caller must have ``role``'s admin role."
      },
      "hasRole(bytes32,address)": {
        "details": "Returns `true` if `account` has been granted `role`."
      },
      "initialize(address,address)": {
        "details": "Constructor for initializing the SToken contract."
      },
      "pause()": {
        "details": "Triggers stopped state. Requirements: - The contract must not be paused."
      },
      "paused()": {
        "details": "Returns true if the contract is paused, and false otherwise."
      },
      "renounceRole(bytes32,address)": {
        "details": "Revokes `role` from the calling account. Roles are often managed via {grantRole} and {revokeRole}: this function's purpose is to provide a mechanism for accounts to lose their privileges if they are compromised (such as when a trusted device is misplaced). If the calling account had been granted `role`, emits a {RoleRevoked} event. Requirements: - the caller must be `account`."
      },
      "revokeRole(bytes32,address)": {
        "details": "Revokes `role` from `account`. If `account` had been granted `role`, emits a {RoleRevoked} event. Requirements: - the caller must have ``role``'s admin role."
      },
      "unpause()": {
        "details": "Returns to normal state. Requirements: - The contract must be paused."
      }
    },
    "version": 1
  },
  "userdoc": {
    "kind": "user",
    "methods": {
      "addGrant(address,address,uint256,uint256,uint256,uint256,uint256,bool)": {
        "notice": "Transfers tokens held by beneficiary to timelock."
      },
      "addGrantAsInstalment(address,address,uint256,uint256,uint256,uint256,uint256,bool)": {
        "notice": "Transfers tokens held by beneficiary to timelock."
      },
      "claimGrant(address,address)": {
        "notice": "Transfers tokens held by timelock to beneficiary."
      },
      "revokeGrant(address,address,address)": {
        "notice": "revokeGrant tokens held by timelock to beneficiary."
      }
    },
    "version": 1
  }
}