{
  "contractName": "VestingTimelockV2",
  "abi": [
    {
      "anonymous": false,
      "inputs": [
        {
          "indexed": false,
          "internalType": "uint256",
          "name": "id",
          "type": "uint256"
        },
        {
          "indexed": false,
          "internalType": "address",
          "name": "token",
          "type": "address"
        },
        {
          "indexed": false,
          "internalType": "address",
          "name": "accountAddress",
          "type": "address"
        },
        {
          "indexed": false,
          "internalType": "uint256",
          "name": "startTime",
          "type": "uint256"
        },
        {
          "indexed": false,
          "internalType": "uint256",
          "name": "cliffPeriod",
          "type": "uint256"
        },
        {
          "indexed": false,
          "internalType": "uint256",
          "name": "tokens",
          "type": "uint256"
        },
        {
          "indexed": false,
          "internalType": "uint256",
          "name": "instalmentAmount",
          "type": "uint256"
        },
        {
          "indexed": false,
          "internalType": "uint256",
          "name": "instalmentCount",
          "type": "uint256"
        },
        {
          "indexed": false,
          "internalType": "uint256",
          "name": "instalmentPeriod",
          "type": "uint256"
        },
        {
          "indexed": false,
          "internalType": "address",
          "name": "grantManager",
          "type": "address"
        },
        {
          "indexed": false,
          "internalType": "uint256",
          "name": "timestamp",
          "type": "uint256"
        }
      ],
      "name": "AddGrant",
      "type": "event"
    },
    {
      "anonymous": false,
      "inputs": [
        {
          "indexed": false,
          "internalType": "uint256",
          "name": "id",
          "type": "uint256"
        },
        {
          "indexed": false,
          "internalType": "address",
          "name": "token",
          "type": "address"
        },
        {
          "indexed": false,
          "internalType": "address",
          "name": "accountAddress",
          "type": "address"
        },
        {
          "indexed": false,
          "internalType": "uint256",
          "name": "tokens",
          "type": "uint256"
        },
        {
          "indexed": false,
          "internalType": "uint256",
          "name": "timestamp",
          "type": "uint256"
        }
      ],
      "name": "ClaimGrant",
      "type": "event"
    },
    {
      "anonymous": false,
      "inputs": [
        {
          "indexed": false,
          "internalType": "address",
          "name": "account",
          "type": "address"
        }
      ],
      "name": "Paused",
      "type": "event"
    },
    {
      "anonymous": false,
      "inputs": [
        {
          "indexed": false,
          "internalType": "uint256",
          "name": "id",
          "type": "uint256"
        },
        {
          "indexed": false,
          "internalType": "address",
          "name": "token",
          "type": "address"
        },
        {
          "indexed": false,
          "internalType": "address",
          "name": "sender",
          "type": "address"
        },
        {
          "indexed": false,
          "internalType": "address",
          "name": "accountAddress",
          "type": "address"
        },
        {
          "indexed": false,
          "internalType": "address",
          "name": "grantManager",
          "type": "address"
        },
        {
          "indexed": false,
          "internalType": "uint256",
          "name": "tokens",
          "type": "uint256"
        },
        {
          "indexed": false,
          "internalType": "uint256",
          "name": "timestamp",
          "type": "uint256"
        }
      ],
      "name": "RevokeGrant",
      "type": "event"
    },
    {
      "anonymous": false,
      "inputs": [
        {
          "indexed": true,
          "internalType": "bytes32",
          "name": "role",
          "type": "bytes32"
        },
        {
          "indexed": true,
          "internalType": "bytes32",
          "name": "previousAdminRole",
          "type": "bytes32"
        },
        {
          "indexed": true,
          "internalType": "bytes32",
          "name": "newAdminRole",
          "type": "bytes32"
        }
      ],
      "name": "RoleAdminChanged",
      "type": "event"
    },
    {
      "anonymous": false,
      "inputs": [
        {
          "indexed": true,
          "internalType": "bytes32",
          "name": "role",
          "type": "bytes32"
        },
        {
          "indexed": true,
          "internalType": "address",
          "name": "account",
          "type": "address"
        },
        {
          "indexed": true,
          "internalType": "address",
          "name": "sender",
          "type": "address"
        }
      ],
      "name": "RoleGranted",
      "type": "event"
    },
    {
      "anonymous": false,
      "inputs": [
        {
          "indexed": true,
          "internalType": "bytes32",
          "name": "role",
          "type": "bytes32"
        },
        {
          "indexed": true,
          "internalType": "address",
          "name": "account",
          "type": "address"
        },
        {
          "indexed": true,
          "internalType": "address",
          "name": "sender",
          "type": "address"
        }
      ],
      "name": "RoleRevoked",
      "type": "event"
    },
    {
      "anonymous": false,
      "inputs": [
        {
          "indexed": false,
          "internalType": "address",
          "name": "account",
          "type": "address"
        }
      ],
      "name": "Unpaused",
      "type": "event"
    },
    {
      "inputs": [],
      "name": "DEFAULT_ADMIN_ROLE",
      "outputs": [
        {
          "internalType": "bytes32",
          "name": "",
          "type": "bytes32"
        }
      ],
      "stateMutability": "view",
      "type": "function"
    },
    {
      "inputs": [],
      "name": "GRANT_ADMIN_ROLE",
      "outputs": [
        {
          "internalType": "bytes32",
          "name": "",
          "type": "bytes32"
        }
      ],
      "stateMutability": "view",
      "type": "function"
    },
    {
      "inputs": [],
      "name": "PAUSER_ROLE",
      "outputs": [
        {
          "internalType": "bytes32",
          "name": "",
          "type": "bytes32"
        }
      ],
      "stateMutability": "view",
      "type": "function"
    },
    {
      "inputs": [
        {
          "internalType": "address",
          "name": "",
          "type": "address"
        }
      ],
      "name": "_grantCount",
      "outputs": [
        {
          "internalType": "uint256",
          "name": "",
          "type": "uint256"
        }
      ],
      "stateMutability": "view",
      "type": "function"
    },
    {
      "inputs": [
        {
          "internalType": "address",
          "name": "",
          "type": "address"
        },
        {
          "internalType": "address",
          "name": "",
          "type": "address"
        }
      ],
      "name": "_grantID",
      "outputs": [
        {
          "internalType": "uint256",
          "name": "",
          "type": "uint256"
        }
      ],
      "stateMutability": "view",
      "type": "function"
    },
    {
      "inputs": [],
      "name": "_id",
      "outputs": [
        {
          "internalType": "uint256",
          "name": "",
          "type": "uint256"
        }
      ],
      "stateMutability": "view",
      "type": "function"
    },
    {
      "inputs": [
        {
          "internalType": "uint256",
          "name": "",
          "type": "uint256"
        }
      ],
      "name": "_lastClaimedTimestamp",
      "outputs": [
        {
          "internalType": "uint256",
          "name": "",
          "type": "uint256"
        }
      ],
      "stateMutability": "view",
      "type": "function"
    },
    {
      "inputs": [],
      "name": "_version",
      "outputs": [
        {
          "internalType": "uint256",
          "name": "",
          "type": "uint256"
        }
      ],
      "stateMutability": "view",
      "type": "function"
    },
    {
      "inputs": [
        {
          "internalType": "bytes32",
          "name": "role",
          "type": "bytes32"
        }
      ],
      "name": "getRoleAdmin",
      "outputs": [
        {
          "internalType": "bytes32",
          "name": "",
          "type": "bytes32"
        }
      ],
      "stateMutability": "view",
      "type": "function"
    },
    {
      "inputs": [
        {
          "internalType": "bytes32",
          "name": "role",
          "type": "bytes32"
        },
        {
          "internalType": "uint256",
          "name": "index",
          "type": "uint256"
        }
      ],
      "name": "getRoleMember",
      "outputs": [
        {
          "internalType": "address",
          "name": "",
          "type": "address"
        }
      ],
      "stateMutability": "view",
      "type": "function"
    },
    {
      "inputs": [
        {
          "internalType": "bytes32",
          "name": "role",
          "type": "bytes32"
        }
      ],
      "name": "getRoleMemberCount",
      "outputs": [
        {
          "internalType": "uint256",
          "name": "",
          "type": "uint256"
        }
      ],
      "stateMutability": "view",
      "type": "function"
    },
    {
      "inputs": [
        {
          "internalType": "bytes32",
          "name": "role",
          "type": "bytes32"
        },
        {
          "internalType": "address",
          "name": "account",
          "type": "address"
        }
      ],
      "name": "grantRole",
      "outputs": [],
      "stateMutability": "nonpayable",
      "type": "function"
    },
    {
      "inputs": [
        {
          "internalType": "bytes32",
          "name": "role",
          "type": "bytes32"
        },
        {
          "internalType": "address",
          "name": "account",
          "type": "address"
        }
      ],
      "name": "hasRole",
      "outputs": [
        {
          "internalType": "bool",
          "name": "",
          "type": "bool"
        }
      ],
      "stateMutability": "view",
      "type": "function"
    },
    {
      "inputs": [],
      "name": "paused",
      "outputs": [
        {
          "internalType": "bool",
          "name": "",
          "type": "bool"
        }
      ],
      "stateMutability": "view",
      "type": "function"
    },
    {
      "inputs": [
        {
          "internalType": "bytes32",
          "name": "role",
          "type": "bytes32"
        },
        {
          "internalType": "address",
          "name": "account",
          "type": "address"
        }
      ],
      "name": "renounceRole",
      "outputs": [],
      "stateMutability": "nonpayable",
      "type": "function"
    },
    {
      "inputs": [
        {
          "internalType": "bytes32",
          "name": "role",
          "type": "bytes32"
        },
        {
          "internalType": "address",
          "name": "account",
          "type": "address"
        }
      ],
      "name": "revokeRole",
      "outputs": [],
      "stateMutability": "nonpayable",
      "type": "function"
    },
    {
      "inputs": [
        {
          "internalType": "address",
          "name": "pauserAddress_",
          "type": "address"
        },
        {
          "internalType": "address",
          "name": "grantAdminAddress_",
          "type": "address"
        }
      ],
      "name": "initialize",
      "outputs": [],
      "stateMutability": "nonpayable",
      "type": "function"
    },
    {
      "inputs": [
        {
          "internalType": "address",
          "name": "token_",
          "type": "address"
        },
        {
          "internalType": "address",
          "name": "beneficiary_",
          "type": "address"
        }
      ],
      "name": "getGrant",
      "outputs": [
        {
          "internalType": "address",
          "name": "token",
          "type": "address"
        },
        {
          "internalType": "uint256",
          "name": "startTime",
          "type": "uint256"
        },
        {
          "internalType": "uint256",
          "name": "endTime",
          "type": "uint256"
        },
        {
          "internalType": "uint256",
          "name": "cliffPeriod",
          "type": "uint256"
        },
        {
          "internalType": "address",
          "name": "beneficiary",
          "type": "address"
        },
        {
          "internalType": "bool",
          "name": "isActive",
          "type": "bool"
        },
        {
          "internalType": "uint256",
          "name": "instalmentAmount",
          "type": "uint256"
        },
        {
          "internalType": "uint256",
          "name": "instalmentCount",
          "type": "uint256"
        },
        {
          "internalType": "uint256",
          "name": "instalmentPeriod",
          "type": "uint256"
        },
        {
          "internalType": "uint256",
          "name": "amountReceived",
          "type": "uint256"
        },
        {
          "internalType": "address",
          "name": "grantManager",
          "type": "address"
        }
      ],
      "stateMutability": "view",
      "type": "function"
    },
    {
      "inputs": [
        {
          "internalType": "uint256",
          "name": "id_",
          "type": "uint256"
        }
      ],
      "name": "getGrantFromID",
      "outputs": [
        {
          "internalType": "address",
          "name": "token",
          "type": "address"
        },
        {
          "internalType": "uint256",
          "name": "startTime",
          "type": "uint256"
        },
        {
          "internalType": "uint256",
          "name": "endTime",
          "type": "uint256"
        },
        {
          "internalType": "uint256",
          "name": "cliffPeriod",
          "type": "uint256"
        },
        {
          "internalType": "address",
          "name": "beneficiary",
          "type": "address"
        },
        {
          "internalType": "bool",
          "name": "isActive",
          "type": "bool"
        },
        {
          "internalType": "uint256",
          "name": "instalmentAmount",
          "type": "uint256"
        },
        {
          "internalType": "uint256",
          "name": "instalmentCount",
          "type": "uint256"
        },
        {
          "internalType": "uint256",
          "name": "instalmentPeriod",
          "type": "uint256"
        },
        {
          "internalType": "uint256",
          "name": "amountReceived",
          "type": "uint256"
        },
        {
          "internalType": "address",
          "name": "grantManager",
          "type": "address"
        }
      ],
      "stateMutability": "view",
      "type": "function"
    },
    {
      "inputs": [
        {
          "internalType": "address",
          "name": "token_",
          "type": "address"
        },
        {
          "internalType": "address",
          "name": "beneficiary_",
          "type": "address"
        }
      ],
      "name": "getPending",
      "outputs": [
        {
          "internalType": "uint256",
          "name": "pendingAmount",
          "type": "uint256"
        },
        {
          "internalType": "uint256",
          "name": "pendingTime",
          "type": "uint256"
        },
        {
          "internalType": "uint256",
          "name": "pendingInstalment",
          "type": "uint256"
        }
      ],
      "stateMutability": "view",
      "type": "function"
    },
    {
      "inputs": [
        {
          "internalType": "uint256",
          "name": "id_",
          "type": "uint256"
        }
      ],
      "name": "getPendingFromID",
      "outputs": [
        {
          "internalType": "uint256",
          "name": "pendingAmount",
          "type": "uint256"
        },
        {
          "internalType": "uint256",
          "name": "pendingTime",
          "type": "uint256"
        },
        {
          "internalType": "uint256",
          "name": "pendingInstalment",
          "type": "uint256"
        }
      ],
      "stateMutability": "view",
      "type": "function"
    },
    {
      "inputs": [
        {
          "internalType": "address",
          "name": "token_",
          "type": "address"
        },
        {
          "internalType": "address",
          "name": "beneficiary_",
          "type": "address"
        }
      ],
      "name": "getRemaining",
      "outputs": [
        {
          "internalType": "uint256",
          "name": "remainingAmount",
          "type": "uint256"
        },
        {
          "internalType": "uint256",
          "name": "remainingTime",
          "type": "uint256"
        },
        {
          "internalType": "uint256",
          "name": "remainingInstalment",
          "type": "uint256"
        }
      ],
      "stateMutability": "view",
      "type": "function"
    },
    {
      "inputs": [
        {
          "internalType": "uint256",
          "name": "id_",
          "type": "uint256"
        }
      ],
      "name": "getRemainingFromID",
      "outputs": [
        {
          "internalType": "uint256",
          "name": "remainingAmount",
          "type": "uint256"
        },
        {
          "internalType": "uint256",
          "name": "remainingTime",
          "type": "uint256"
        },
        {
          "internalType": "uint256",
          "name": "remainingInstalment",
          "type": "uint256"
        }
      ],
      "stateMutability": "view",
      "type": "function"
    },
    {
      "inputs": [
        {
          "internalType": "address",
          "name": "token_",
          "type": "address"
        },
        {
          "internalType": "address",
          "name": "beneficiary_",
          "type": "address"
        },
        {
          "internalType": "uint256",
          "name": "startTime_",
          "type": "uint256"
        },
        {
          "internalType": "uint256",
          "name": "cliffPeriod_",
          "type": "uint256"
        },
        {
          "internalType": "uint256",
          "name": "instalmentAmount_",
          "type": "uint256"
        },
        {
          "internalType": "uint256",
          "name": "instalmentCount_",
          "type": "uint256"
        },
        {
          "internalType": "uint256",
          "name": "instalmentPeriod_",
          "type": "uint256"
        }
      ],
      "name": "addGrant",
      "outputs": [
        {
          "internalType": "uint256",
          "name": "totalVestingAmount",
          "type": "uint256"
        }
      ],
      "stateMutability": "nonpayable",
      "type": "function"
    },
    {
      "inputs": [
        {
          "internalType": "address",
          "name": "token_",
          "type": "address"
        },
        {
          "internalType": "address",
          "name": "beneficiary_",
          "type": "address"
        }
      ],
      "name": "revokeGrant",
      "outputs": [
        {
          "internalType": "uint256",
          "name": "remainingAmount",
          "type": "uint256"
        }
      ],
      "stateMutability": "nonpayable",
      "type": "function"
    },
    {
      "inputs": [
        {
          "internalType": "uint256",
          "name": "id_",
          "type": "uint256"
        }
      ],
      "name": "revokeGrantFromID",
      "outputs": [
        {
          "internalType": "uint256",
          "name": "remainingAmount",
          "type": "uint256"
        }
      ],
      "stateMutability": "nonpayable",
      "type": "function"
    },
    {
      "inputs": [
        {
          "internalType": "address",
          "name": "token_",
          "type": "address"
        },
        {
          "internalType": "address",
          "name": "beneficiary_",
          "type": "address"
        }
      ],
      "name": "claimGrant",
      "outputs": [
        {
          "internalType": "uint256",
          "name": "pendingAmount",
          "type": "uint256"
        }
      ],
      "stateMutability": "nonpayable",
      "type": "function"
    },
    {
      "inputs": [],
      "name": "pause",
      "outputs": [
        {
          "internalType": "bool",
          "name": "success",
          "type": "bool"
        }
      ],
      "stateMutability": "nonpayable",
      "type": "function"
    },
    {
      "inputs": [],
      "name": "unpause",
      "outputs": [
        {
          "internalType": "bool",
          "name": "success",
          "type": "bool"
        }
      ],
      "stateMutability": "nonpayable",
      "type": "function"
    }
  ],
  "bytecode": "0x608060405234801561001057600080fd5b50612b2b806100206000396000f3fe608060405234801561001057600080fd5b50600436106101cf5760003560e01c80636d1319eb116101045780639f08f869116100a2578063d41c912511610071578063d41c912514610592578063d547741f146105e0578063d6003d9e1461060c578063e63ab1e914610629576101cf565b80639f08f86914610522578063a217fddf1461053f578063b415884414610547578063ca15c87314610575576101cf565b806388984a0d116100de57806388984a0d1461045b5780638fb22393146104895780639010d07c146104b757806391d14854146104f6576101cf565b80636d1319eb146103a157806371eaa3d7146104365780638456cb5914610453576101cf565b806336568abe11610171578063485cc9551161014b578063485cc955146103285780635138b2b7146103565780635c975abb1461037c5780636ad1ee3d14610384576101cf565b806336568abe146102d85780633e118dbe146103045780633f4ba83a1461030c576101cf565b8063248a9ca3116101ad578063248a9ca3146102685780632c0acd2c146102855780632f2ff15d1461028d5780632fdd100a146102bb576101cf565b806305180237146101d45780630a68e60b146101ee57806314820f2f1461021c575b600080fd5b6101dc610631565b60408051918252519081900360200190f35b6101dc6004803603604081101561020457600080fd5b506001600160a01b0381358116916020013516610637565b61024a6004803603604081101561023257600080fd5b506001600160a01b0381358116916020013516610888565b60408051938452602084019290925282820152519081900360600190f35b6101dc6004803603602081101561027e57600080fd5b50356108f2565b6101dc610907565b6102b9600480360360408110156102a357600080fd5b50803590602001356001600160a01b0316610919565b005b6101dc600480360360208110156102d157600080fd5b5035610980565b6102b9600480360360408110156102ee57600080fd5b50803590602001356001600160a01b0316610992565b6101dc6109f3565b6103146109f9565b604080519115158252519081900360200190f35b6102b96004803603604081101561033e57600080fd5b506001600160a01b0381358116916020013516610a5e565b6101dc6004803603602081101561036c57600080fd5b50356001600160a01b0316610b5c565b610314610b6e565b61024a6004803603602081101561039a57600080fd5b5035610b77565b6103cf600480360360408110156103b757600080fd5b506001600160a01b0381358116916020013516610b9d565b604080516001600160a01b039c8d168152602081019b909b528a81019990995260608a0197909752948916608089015292151560a088015260c087019190915260e08601526101008501526101208401529092166101408201529051908190036101600190f35b6101dc6004803603602081101561044c57600080fd5b5035610c4e565b610314610e56565b61024a6004803603604081101561047157600080fd5b506001600160a01b0381358116916020013516610eb5565b6101dc6004803603604081101561049f57600080fd5b506001600160a01b0381358116916020013516610f0f565b6104da600480360360408110156104cd57600080fd5b5080359060200135610f2c565b604080516001600160a01b039092168252519081900360200190f35b6103146004803603604081101561050c57600080fd5b50803590602001356001600160a01b0316610f4d565b6103cf6004803603602081101561053857600080fd5b5035610f65565b6101dc610fa5565b6101dc6004803603604081101561055d57600080fd5b506001600160a01b0381358116916020013516610faa565b6101dc6004803603602081101561058b57600080fd5b5035611312565b6101dc600480360360e08110156105a857600080fd5b506001600160a01b03813581169160208101359091169060408101359060608101359060808101359060a08101359060c00135611329565b6102b9600480360360408110156105f657600080fd5b50803590602001356001600160a01b03166116e2565b61024a6004803603602081101561062257600080fd5b503561173b565b6101dc611752565b60ca5481565b60006002600154141561067f576040805162461bcd60e51b815260206004820152601f6024820152600080516020612976833981519152604482015290519081900360640190fd5b60026001556001600160a01b038316158015906106a457506001600160a01b03821615155b6106db576040805162461bcd60e51b815260206004820152600360248201526256543560e81b604482015290519081900360640190fd5b6001600160a01b03808416600090815260cc602090815260408083209386168352929052205480610739576040805162461bcd60e51b815260206004820152600360248201526256543760e81b604482015290519081900360640190fd5b600081815260d760205260409020546001600160a01b0390811690841661075e611764565b6001600160a01b0316148061078b5750806001600160a01b0316610780611764565b6001600160a01b0316145b806107b057506107b0600080516020612a5b8339815191526107ab611764565b610f4d565b6107e7576040805162461bcd60e51b81526020600482015260036024820152622b2a1b60e91b604482015290519081900360640190fd5b6107f082611768565b9250821561080c5761080c6001600160a01b03861682856117fb565b7f12db531e034bde4cb66fbffe576297c4f787da4d3b6e45cc904b579d2733f82e8286610837611764565b604080519384526001600160a01b039283166020850152908216838201528188166060840152908416608083015260a082018690524260c0830152519081900360e00190a150506001805592915050565b600080806001600160a01b03851615806108a957506001600160a01b038416155b156108b3576108eb565b6001600160a01b03808616600090815260cc60209081526040808320938816835292905220546108e28161184d565b91955093509150505b9250925092565b60009081526097602052604090206002015490565b600080516020612a5b83398151915281565b600082815260976020526040902060020154610937906107ab611764565b6109725760405162461bcd60e51b815260040180806020018281038252602f815260200180612947602f913960400191505060405180910390fd5b61097c8282611a3c565b5050565b60d86020526000908152604090205481565b61099a611764565b6001600160a01b0316816001600160a01b0316146109e95760405162461bcd60e51b815260040180806020018281038252602f815260200180612ac7602f913960400191505060405180910390fd5b61097c8282611aa5565b60c95481565b6000610a15600080516020612a3b8339815191526107ab611764565b610a505760405162461bcd60e51b8152600401808060200182810382526022815260200180612aa56022913960400191505060405180910390fd5b610a58611b0e565b50600190565b600054610100900460ff1680610a775750610a77611bae565b80610a85575060005460ff16155b610ac05760405162461bcd60e51b815260040180806020018281038252602e8152602001806129ec602e913960400191505060405180910390fd5b600054610100900460ff16158015610aeb576000805460ff1961ff0019909116610100171660011790555b610af3611bbf565b610afb611c69565b610b03611d09565b610b156000610b10611764565b610972565b610b2d600080516020612a3b83398151915284610972565b610b45600080516020612a5b83398151915283610972565b8015610b57576000805461ff00191690555b505050565b60cb6020526000908152604090205481565b60655460ff1690565b6000808083610b8557610b96565b610b8e84611db4565b919450925090505b9193909250565b6000808080808080808080806001600160a01b038d161580610bc657506001600160a01b038c16155b15610bd057610c3e565b600060cc60008f6001600160a01b03166001600160a01b0316815260200190815260200160002060008e6001600160a01b03166001600160a01b03168152602001908152602001600020549050610c2681611ee5565b9b509b509b509b509b509b509b509b509b509b509b50505b9295989b509295989b9093969950565b600060026001541415610c96576040805162461bcd60e51b815260206004820152601f6024820152600080516020612976833981519152604482015290519081900360640190fd5b600260015581610cd6576040805162461bcd60e51b815260206004808301919091526024820152635654313560e01b604482015290519081900360640190fd5b600082815260d7602090815260408083205460d1909252909120546001600160a01b03918216911680610d07611764565b6001600160a01b03161480610d345750816001600160a01b0316610d29611764565b6001600160a01b0316145b80610d545750610d54600080516020612a5b8339815191526107ab611764565b610d8e576040805162461bcd60e51b815260206004808301919091526024820152632b2a189b60e11b604482015290519081900360640190fd5b610d9784611768565b92508215610dc257600084815260cd6020526040902054610dc2906001600160a01b031683856117fb565b600084815260cd60205260409020547f12db531e034bde4cb66fbffe576297c4f787da4d3b6e45cc904b579d2733f82e9085906001600160a01b0316610e06611764565b604080519384526001600160a01b039283166020850152908216838201528185166060840152908516608083015260a082018690524260c0830152519081900360e00190a1505060018055919050565b6000610e72600080516020612a3b8339815191526107ab611764565b610ead5760405162461bcd60e51b8152600401808060200182810382526022815260200180612aa56022913960400191505060405180910390fd5b610a58612058565b600080806001600160a01b0385161580610ed657506001600160a01b038416155b15610ee0576108eb565b6001600160a01b03808616600090815260cc60209081526040808320938816835292905220546108e281611db4565b60cc60209081526000928352604080842090915290825290205481565b6000828152609760205260408120610f4490836120db565b90505b92915050565b6000828152609760205260408120610f4490836120e7565b6000806000806000806000806000806000610f7f8c611ee5565b9a509a509a509a509a509a509a509a509a509a509a505b91939597999b90929496989a50565b600081565b600060026001541415610ff2576040805162461bcd60e51b815260206004820152601f6024820152600080516020612976833981519152604482015290519081900360640190fd5b6002600155610fff610b6e565b15611044576040805162461bcd60e51b815260206004820152601060248201526f14185d5cd8589b194e881c185d5cd95960821b604482015290519081900360640190fd5b6001600160a01b0383161580159061106457506001600160a01b03821615155b61109b576040805162461bcd60e51b81526020600482015260036024820152620aca8760eb1b604482015290519081900360640190fd5b6001600160a01b03808416600090815260cc6020908152604080832093861683529290522054806110f9576040805162461bcd60e51b815260206004820152600360248201526256543960e81b604482015290519081900360640190fd5b600081815260d760205260409020546001600160a01b0390811690841661111e611764565b6001600160a01b0316148061114b5750806001600160a01b0316611140611764565b6001600160a01b0316145b8061116b575061116b600080516020612a5b8339815191526107ab611764565b6111a5576040805162461bcd60e51b815260206004808301919091526024820152630565431360e41b604482015290519081900360640190fd5b600082815260d2602052604090205460ff1680156111eb5750600082815260d6602090815260408083205460d483528184205460d39093529220546111e9916120fc565b115b611225576040805162461bcd60e51b815260206004808301919091526024820152632b2a189960e11b604482015290519081900360640190fd5b61122e8261184d565b509093505082156112845761124d6001600160a01b03861685856117fb565b600082815260d660205260409020546112669084612155565b600083815260d6602090815260408083209390935560d89052204290555b600082815260cf602052604090205442106112b057600082815260d260205260409020805460ff191690555b604080518381526001600160a01b0380881660208301528616818301526060810185905242608082015290517f7870701b5520f2a0db58bdd51d32c359199cd29f066c5eb9980b3bddb3609cde9181900360a00190a150506001805592915050565b6000818152609760205260408120610f47906121af565b600060026001541415611371576040805162461bcd60e51b815260206004820152601f6024820152600080516020612976833981519152604482015290519081900360640190fd5b60026001556001600160a01b0388161580159061139657506001600160a01b03871615155b80156113a557506312cc030085105b80156113bd57506113ba426312cc03006121ba565b86115b80156113d557506113d2426312cc0300612155565b86105b80156113e15750600084115b80156113ed5750600083115b80156113fa57506104b083105b801561140957506312cc030082105b611440576040805162461bcd60e51b815260206004820152600360248201526256543360e81b604482015290519081900360640190fd5b60018311801561144e575081155b15611489576040805162461bcd60e51b815260206004808301919091526024820152630aca862760e31b604482015290519081900360640190fd5b61149384846120fc565b905080886001600160a01b03166370a082316114ad611764565b6040518263ffffffff1660e01b815260040180826001600160a01b0316815260200191505060206040518083038186803b1580156114ea57600080fd5b505afa1580156114fe573d6000803e3d6000fd5b505050506040513d602081101561151457600080fd5b50511015611552576040805162461bcd60e51b815260206004808301919091526024820152635654313160e01b604482015290519081900360640190fd5b6001600160a01b03808916600090815260cc60209081526040808320938b1683529281528282205480835260d29091529190205460ff16156115c4576040805162461bcd60e51b815260206004808301919091526024820152635654313760e01b604482015290519081900360640190fd5b6115e16115cf611764565b6001600160a01b038b16903085612217565b60ca80546001908101918290556001600160a01b03808c16600090815260cb60209081526040808320805490950190945560cc8152838220928d168252919091522081905561163e818b8b8b8b8b8b8b611639611764565b612277565b7fa897efb9fd9261ebb88a68b3e4d79c7adde24b2e36b3f7ffcff4412720647584818b8b8b8b888c8c8c611670611764565b604080519a8b526001600160a01b03998a1660208c01529789168a89015260608a0196909652608089019490945260a088019290925260c087015260e08601526101008501529091166101208301524261014083015251908190036101600190a1505060018055979650505050505050565b600082815260976020526040902060020154611700906107ab611764565b6109e95760405162461bcd60e51b81526004018080602001828103825260308152602001806129bc6030913960400191505060405180910390fd5b600080808361174957610b96565b610b8e8461184d565b600080516020612a3b83398151915281565b3390565b600081815260d2602052604081205460ff16801561179e5750600082815260cf602090815260408083205460d890925290912054105b6117d5576040805162461bcd60e51b815260206004820152600360248201526215950d60ea1b604482015290519081900360640190fd5b6117de82611db4565b5050600092835260d26020526040909220805460ff191690555090565b604080516001600160a01b038416602482015260448082018490528251808303909101815260649091019091526020810180516001600160e01b031663a9059cbb60e01b179052610b5790849061238f565b600081815260d26020526040812054819081908190819060ff16158061188c5750600086815260cf602090815260408083205460d89092529091205410155b806118a35750600086815260d36020526040902054155b806118d15750600086815260d0602090815260408083205460ce909252909120546118cd91612155565b4211155b156118dd575050610b96565b600086815260cf602052604090205442116118f85742611908565b600086815260cf60205260409020545b600087815260ce602090815260408083205460d8909252909120549192501161193f57600086815260d8602052604090205461194f565b600086815260ce60205260409020545b915061195b81836121ba565b600087815260d56020526040812054919550906119795760016119c7565b600087815260d5602090815260408083205460d083528184205460ce9093529220546119c7926001926119c1926119bb916119b49190612155565b87906121ba565b90612440565b90612155565b600088815260d6602090815260408083205460d3909252909120549192506119fa916119f49084906120fc565b906121ba565b600088815260d36020526040902054909650611a17576000611a31565b600087815260d36020526040902054611a31908790612440565b959794965050505050565b6000828152609760205260409020611a5490826124a7565b1561097c57611a61611764565b6001600160a01b0316816001600160a01b0316837f2f8788117e7eff1d82e926ec794901d17c78024a50270940304540a733656f0d60405160405180910390a45050565b6000828152609760205260409020611abd90826124bc565b1561097c57611aca611764565b6001600160a01b0316816001600160a01b0316837ff6391f5c32d9c69d2a47ea670b442974b53935d1edc7fd64eb21e047a839171b60405160405180910390a45050565b611b16610b6e565b611b5e576040805162461bcd60e51b815260206004820152601460248201527314185d5cd8589b194e881b9bdd081c185d5cd95960621b604482015290519081900360640190fd5b6065805460ff191690557f5db9ee0a495bf2e6ff9c91a7834c1ba4fdd244a5e8aa4e537bd38aeae4b073aa611b91611764565b604080516001600160a01b039092168252519081900360200190a1565b6000611bb9306124d1565b15905090565b600054610100900460ff1680611bd85750611bd8611bae565b80611be6575060005460ff16155b611c215760405162461bcd60e51b815260040180806020018281038252602e8152602001806129ec602e913960400191505060405180910390fd5b600054610100900460ff16158015611c4c576000805460ff1961ff0019909116610100171660011790555b611c546124d7565b8015611c66576000805461ff00191690555b50565b600054610100900460ff1680611c825750611c82611bae565b80611c90575060005460ff16155b611ccb5760405162461bcd60e51b815260040180806020018281038252602e8152602001806129ec602e913960400191505060405180910390fd5b600054610100900460ff16158015611c54576000805460ff1961ff0019909116610100171660011790558015611c66576000805461ff001916905550565b600054610100900460ff1680611d225750611d22611bae565b80611d30575060005460ff16155b611d6b5760405162461bcd60e51b815260040180806020018281038252602e8152602001806129ec602e913960400191505060405180910390fd5b600054610100900460ff16158015611d96576000805460ff1961ff0019909116610100171660011790555b6065805460ff191690558015611c66576000805461ff001916905550565b600081815260d36020526040812054819081901580611ddf5750600084815260d46020526040902054155b15611de957610b96565b600084815260d4602090815260408083205460d39092528220548291611e0f91906120fc565b600087815260d66020526040902054909150611e2c9082906121ba565b600087815260d36020526040902054909550611e49908690612440565b600087815260ce602090815260408083205460d89092529091205491945011611e8057600086815260d86020526040902054611e90565b600086815260ce60205260409020545b600087815260cf60205260409020549092508211611eae5781611ebe565b600086815260cf60205260409020545b600087815260cf6020526040902054909250611eda90836121ba565b935050509193909250565b6000808080808080808080808b611efb57610f96565b60cd600060ca54815260200190815260200160002060009054906101000a90046001600160a01b031660ce600060ca5481526020019081526020016000205460cf600060ca5481526020019081526020016000205460d0600060ca5481526020019081526020016000205460d1600060ca54815260200190815260200160002060009054906101000a90046001600160a01b031660d2600060ca54815260200190815260200160002060009054906101000a900460ff1660d3600060ca5481526020019081526020016000205460d4600060ca5481526020019081526020016000205460d5600060ca5481526020019081526020016000205460d6600060ca5481526020019081526020016000205460d7600060ca54815260200190815260200160002060009054906101000a90046001600160a01b03169a509a509a509a509a509a509a509a509a509a509a5091939597999b90929496989a50565b612060610b6e565b156120a5576040805162461bcd60e51b815260206004820152601060248201526f14185d5cd8589b194e881c185d5cd95960821b604482015290519081900360640190fd5b6065805460ff191660011790557f62e78cea01bee320cd4e420270b5ea74000d11b0c9f74754ebdbfc544b05a258611b91611764565b6000610f44838361257c565b6000610f44836001600160a01b0384166125e0565b60008261210b57506000610f47565b8282028284828161211857fe5b0414610f445760405162461bcd60e51b8152600401808060200182810382526021815260200180612a1a6021913960400191505060405180910390fd5b600082820183811015610f44576040805162461bcd60e51b815260206004820152601b60248201527f536166654d6174683a206164646974696f6e206f766572666c6f770000000000604482015290519081900360640190fd5b6000610f47826125f8565b600082821115612211576040805162461bcd60e51b815260206004820152601e60248201527f536166654d6174683a207375627472616374696f6e206f766572666c6f770000604482015290519081900360640190fd5b50900390565b604080516001600160a01b0380861660248301528416604482015260648082018490528251808303909101815260849091019091526020810180516001600160e01b03166323b872dd60e01b17905261227190859061238f565b50505050565b600089815260d2602052604090205460ff16156122c1576040805162461bcd60e51b815260206004820152600360248201526256543160e81b604482015290519081900360640190fd5b60006122e56122db6122d48660016121ba565b85906120fc565b6119c18989612155565b60009a8b5260cd60209081526040808d2080546001600160a01b03199081166001600160a01b039e8f161790915560ce8352818e209a909a5560cf8252808d209290925560d08152818c209790975560d18752808b2080548916998b16999099179098555060d28552868920805460ff1916600117905560d385528689209390935560d484528588209190915560d583528487205560d79091529190932080549093169116179055565b60006123e4826040518060400160405280602081526020017f5361666545524332303a206c6f772d6c6576656c2063616c6c206661696c6564815250856001600160a01b03166125fc9092919063ffffffff16565b805190915015610b575780806020019051602081101561240357600080fd5b5051610b575760405162461bcd60e51b815260040180806020018281038252602a815260200180612a7b602a913960400191505060405180910390fd5b6000808211612496576040805162461bcd60e51b815260206004820152601a60248201527f536166654d6174683a206469766973696f6e206279207a65726f000000000000604482015290519081900360640190fd5b81838161249f57fe5b049392505050565b6000610f44836001600160a01b038416612615565b6000610f44836001600160a01b03841661265f565b3b151590565b600054610100900460ff16806124f057506124f0611bae565b806124fe575060005460ff16155b6125395760405162461bcd60e51b815260040180806020018281038252602e8152602001806129ec602e913960400191505060405180910390fd5b600054610100900460ff16158015612564576000805460ff1961ff0019909116610100171660011790555b600180558015611c66576000805461ff001916905550565b815460009082106125be5760405162461bcd60e51b81526004018080602001828103825260228152602001806129256022913960400191505060405180910390fd5b8260000182815481106125cd57fe5b9060005260206000200154905092915050565b60009081526001919091016020526040902054151590565b5490565b606061260b8484600085612725565b90505b9392505050565b600061262183836125e0565b61265757508154600181810184556000848152602080822090930184905584548482528286019093526040902091909155610f47565b506000610f47565b6000818152600183016020526040812054801561271b578354600019808301919081019060009087908390811061269257fe5b90600052602060002001549050808760000184815481106126af57fe5b6000918252602080832090910192909255828152600189810190925260409020908401905586548790806126df57fe5b60019003818190600052602060002001600090559055866001016000878152602001908152602001600020600090556001945050505050610f47565b6000915050610f47565b6060824710156127665760405162461bcd60e51b81526004018080602001828103825260268152602001806129966026913960400191505060405180910390fd5b61276f856124d1565b6127c0576040805162461bcd60e51b815260206004820152601d60248201527f416464726573733a2063616c6c20746f206e6f6e2d636f6e7472616374000000604482015290519081900360640190fd5b600080866001600160a01b031685876040518082805190602001908083835b602083106127fe5780518252601f1990920191602091820191016127df565b6001836020036101000a03801982511681845116808217855250505050505090500191505060006040518083038185875af1925050503d8060008114612860576040519150601f19603f3d011682016040523d82523d6000602084013e612865565b606091505b5091509150612875828286612880565b979650505050505050565b6060831561288f57508161260e565b82511561289f5782518084602001fd5b8160405162461bcd60e51b81526004018080602001828103825283818151815260200191508051906020019080838360005b838110156128e95781810151838201526020016128d1565b50505050905090810190601f1680156129165780820380516001836020036101000a031916815260200191505b509250505060405180910390fdfe456e756d657261626c655365743a20696e646578206f7574206f6620626f756e6473416363657373436f6e74726f6c3a2073656e646572206d75737420626520616e2061646d696e20746f206772616e745265656e7472616e637947756172643a207265656e7472616e742063616c6c00416464726573733a20696e73756666696369656e742062616c616e636520666f722063616c6c416363657373436f6e74726f6c3a2073656e646572206d75737420626520616e2061646d696e20746f207265766f6b65496e697469616c697a61626c653a20636f6e747261637420697320616c726561647920696e697469616c697a6564536166654d6174683a206d756c7469706c69636174696f6e206f766572666c6f7765d7a28e3265b37a6474929f336521b332c1681b933f6cb9f3376673440d862a6a7a39ad350f111635f4a31ec3e3e5ca2f76f78880b843ba3f8705d7d3ac3eb95361666545524332303a204552433230206f7065726174696f6e20646964206e6f74207375636365656456657374696e6754696d656c6f636b3a20556e617574686f72697a65642055736572416363657373436f6e74726f6c3a2063616e206f6e6c792072656e6f756e636520726f6c657320666f722073656c66a264697066735822122002f062f61ab3729dad463cf884ad29adcc57ab8c40b34f538b99e2f8fd7bc52464736f6c63430007060033",
  "immutableReferences": {},
  "source": "// SPDX-License-Identifier: Unlicensed\npragma solidity >=0.7.0;\n\nimport \"@openzeppelin/contracts-upgradeable/proxy/Initializable.sol\";\nimport \"@openzeppelin/contracts-upgradeable/math/SafeMathUpgradeable.sol\";\nimport \"@openzeppelin/contracts-upgradeable/proxy/Initializable.sol\";\nimport \"@openzeppelin/contracts-upgradeable/access/AccessControlUpgradeable.sol\";\nimport \"@openzeppelin/contracts-upgradeable/utils/PausableUpgradeable.sol\";\nimport \"@openzeppelin/contracts-upgradeable/utils/ReentrancyGuardUpgradeable.sol\";\nimport \"@openzeppelin/contracts-upgradeable/token/ERC20/SafeERC20Upgradeable.sol\";\nimport \"@openzeppelin/contracts-upgradeable/token/ERC20/IERC20Upgradeable.sol\";\nimport \"./libraries/FullMath.sol\";\nimport \"./interfaces/IVestingTimelockV2.sol\";\n\n/**\n * @dev A token holder contract that will allow a beneficiary to extract the\n * tokens after a given release time.\n * Supports multiple vesting strategies like Cliffed, Continuous, Stepped etc.\n */\ncontract VestingTimelockV2 is\n  Initializable,\n  IVestingTimelockV2,\n  ReentrancyGuardUpgradeable,\n  PausableUpgradeable,\n  AccessControlUpgradeable\n{\n  // including libraries\n  using SafeERC20Upgradeable for IERC20Upgradeable;\n  using SafeMathUpgradeable for uint256;\n  using FullMath for uint256;\n\n  // Access Roles\n  bytes32 public constant PAUSER_ROLE = keccak256(\"PAUSER_ROLE\");\n  bytes32 public constant GRANT_ADMIN_ROLE = keccak256(\"GRANT_ADMIN_ROLE\");\n\n  // variable pertaining to contract upgrades versioning\n  uint256 public _version;\n\n  // Vesting grant identifier\n  uint256 public _id;\n  mapping(address => uint256) public _grantCount;\n  // ID from the token and beneficiary\n  mapping(address => mapping(address => uint256)) public _grantID;\n\n  // Vesting grant parameters mapped to grant ID\n  mapping(uint256 => address) _token;\n  mapping(uint256 => uint256) _startTime;\n  mapping(uint256 => uint256) _endTime;\n  mapping(uint256 => uint256) _cliffPeriod;\n  mapping(uint256 => address) _beneficiary;\n  mapping(uint256 => bool) _isActive;\n  mapping(uint256 => uint256) _instalmentAmount;\n  mapping(uint256 => uint256) _instalmentCount;\n  mapping(uint256 => uint256) _instalmentPeriod;\n  mapping(uint256 => uint256) _amountReceived;\n  mapping(uint256 => address) _grantManager;\n\n  // Last claimed timestamp mapped to grant ID\n  mapping(uint256 => uint256) public _lastClaimedTimestamp;\n\n  /**\n   * @dev Constructor for initializing the Vesting Timelock contract.\n   * @param pauserAddress_ - address of the pauser admin.\n   * @param grantAdminAddress_ - address of the grant admin.\n   */\n  function initialize(address pauserAddress_, address grantAdminAddress_)\n    public\n    virtual\n    initializer\n  {\n    __ReentrancyGuard_init();\n    __AccessControl_init_unchained();\n    __Pausable_init_unchained();\n    _setupRole(DEFAULT_ADMIN_ROLE, _msgSender());\n    _setupRole(PAUSER_ROLE, pauserAddress_);\n    _setupRole(GRANT_ADMIN_ROLE, grantAdminAddress_);\n  }\n\n  /**\n   * @dev Get the details of the vesting grant for a user\n   * @param id_: vesting grant user id\n   */\n  function _getGrant(uint256 id_)\n    internal\n    view\n    returns (\n      address token,\n      uint256 startTime,\n      uint256 endTime,\n      uint256 cliffPeriod,\n      address beneficiary,\n      bool isActive,\n      uint256 instalmentAmount,\n      uint256 instalmentCount,\n      uint256 instalmentPeriod,\n      uint256 amountReceived,\n      address grantManager\n    )\n  {\n    if (id_ == 0) {\n      return (\n        token,\n        startTime,\n        endTime,\n        cliffPeriod,\n        beneficiary,\n        isActive,\n        instalmentAmount,\n        instalmentCount,\n        instalmentPeriod,\n        amountReceived,\n        grantManager\n      );\n    }\n\n    return (\n      _token[_id],\n      _startTime[_id],\n      _endTime[_id],\n      _cliffPeriod[_id],\n      _beneficiary[_id],\n      _isActive[_id],\n      _instalmentAmount[_id],\n      _instalmentCount[_id],\n      _instalmentPeriod[_id],\n      _amountReceived[_id],\n      _grantManager[_id]\n    );\n  }\n\n  /**\n   * @dev Get the details of the vesting grant for a user\n   * @param token_: address of token\n   * @param beneficiary_: address of beneficiary\n   */\n  function getGrant(address token_, address beneficiary_)\n    public\n    view\n    virtual\n    override\n    returns (\n      address token,\n      uint256 startTime,\n      uint256 endTime,\n      uint256 cliffPeriod,\n      address beneficiary,\n      bool isActive,\n      uint256 instalmentAmount,\n      uint256 instalmentCount,\n      uint256 instalmentPeriod,\n      uint256 amountReceived,\n      address grantManager\n    )\n  {\n    if (token_ == address(0) || beneficiary_ == address(0)) {\n      return (\n        token,\n        startTime,\n        endTime,\n        cliffPeriod,\n        beneficiary,\n        isActive,\n        instalmentAmount,\n        instalmentCount,\n        instalmentPeriod,\n        amountReceived,\n        grantManager\n      );\n    }\n    uint256 id = _grantID[token_][beneficiary_];\n    return _getGrant(id);\n  }\n\n  /**\n   * @dev get the details of the vesting grant for a user from id\n   * @param id_: vesting grant for a user id\n   */\n  function getGrantFromID(uint256 id_)\n    public\n    view\n    virtual\n    override\n    returns (\n      address token,\n      uint256 startTime,\n      uint256 endTime,\n      uint256 cliffPeriod,\n      address beneficiary,\n      bool isActive,\n      uint256 instalmentAmount,\n      uint256 instalmentCount,\n      uint256 instalmentPeriod,\n      uint256 amountReceived,\n      address grantManager\n    )\n  {\n    return _getGrant(id_);\n  }\n\n  /**\n   * @dev calculate the pending time in the currently vesting installment\n   * @param id_: vesting grant for a user id\n   */\n  function _getPending(uint256 id_)\n    internal\n    view\n    returns (\n      uint256 pendingAmount,\n      uint256 pendingTime,\n      uint256 pendingInstalment\n    )\n  {\n    uint256 lowerTimestamp;\n    uint256 higherTimestamp;\n\n    // if the last claimed timstamp has crossed the endTime or if cliff time is not\n    // crossed by _lastClaimedTimestamp[id_], return zero\n    if (\n      !_isActive[id_] ||\n      _lastClaimedTimestamp[id_] >= _endTime[id_] ||\n      _instalmentAmount[id_] <= 0 ||\n      block.timestamp <= _startTime[id_].add(_cliffPeriod[id_])\n    ) return (pendingAmount, pendingTime, pendingInstalment);\n\n    higherTimestamp = (block.timestamp > _endTime[id_])\n      ? _endTime[id_]\n      : block.timestamp;\n\n    lowerTimestamp = (\n      _lastClaimedTimestamp[id_] < _startTime[id_]\n        ? _startTime[id_]\n        : _lastClaimedTimestamp[id_]\n    );\n\n    // calculate pending time between last claimed and current time, counter starting from startTime\n    pendingTime = higherTimestamp.sub(lowerTimestamp);\n\n    // calculate the pending amount\n    uint256 cumulativeInstalments = _instalmentPeriod[id_] > 0\n      ? (\n        (\n          (higherTimestamp.sub(_startTime[id_].add(_cliffPeriod[id_]))).div(\n            _instalmentPeriod[id_]\n          )\n        ).add(1)\n      )\n      : 1;\n\n    pendingAmount = (cumulativeInstalments.mul(_instalmentAmount[id_])).sub(\n      _amountReceived[id_]\n    );\n\n    // calculate the pendingInstalment from the pendingAmount calculated above\n    pendingInstalment = _instalmentAmount[id_] > 0\n      ? pendingAmount.div(_instalmentAmount[id_])\n      : 0;\n  }\n\n  /**\n   * @dev calculate the pending time in the currently vesting installment\n   * @param token_: token address\n   * @param beneficiary_: beneficiary address\n   */\n  function getPending(address token_, address beneficiary_)\n    public\n    view\n    virtual\n    override\n    returns (\n      uint256 pendingAmount,\n      uint256 pendingTime,\n      uint256 pendingInstalment\n    )\n  {\n    if (token_ == address(0) || beneficiary_ == address(0))\n      return (pendingAmount, pendingTime, pendingInstalment);\n\n    uint256 id = _grantID[token_][beneficiary_];\n    (pendingAmount, pendingTime, pendingInstalment) = _getPending(id);\n  }\n\n  /**\n   * @dev calculate the pending time in the currently vesting installment from user id\n   * @param id_: user id\n   */\n  function getPendingFromID(uint256 id_)\n    public\n    view\n    virtual\n    override\n    returns (\n      uint256 pendingAmount,\n      uint256 pendingTime,\n      uint256 pendingInstalment\n    )\n  {\n    if (id_ == 0) return (pendingAmount, pendingTime, pendingInstalment);\n    (pendingAmount, pendingTime, pendingInstalment) = _getPending(id_);\n  }\n\n  /**\n   * @dev calculate the remaining amount\n   * @param id_: user id\n   */\n  function _getRemaining(uint256 id_)\n    internal\n    view\n    returns (\n      uint256 remainingAmount,\n      uint256 remainingTime,\n      uint256 remainingInstalment\n    )\n  {\n    // if the instalment amount is 0 then return\n    if (_instalmentAmount[id_] <= 0 || _instalmentCount[id_] <= 0)\n      return (remainingAmount, remainingTime, remainingInstalment);\n\n    uint256 lastClaimedTimestamp;\n    uint256 totalAmount = (_instalmentAmount[id_]).mul(_instalmentCount[id_]);\n\n    remainingAmount = totalAmount.sub(_amountReceived[id_]);\n    remainingInstalment = remainingAmount.div(_instalmentAmount[id_]);\n\n    // get the lastClaimedTimestamp as a value inside range _startTime[id_] & _endTime[id_]\n    lastClaimedTimestamp = _lastClaimedTimestamp[id_] < _startTime[id_]\n      ? _startTime[id_]\n      : _lastClaimedTimestamp[id_];\n    lastClaimedTimestamp = lastClaimedTimestamp > _endTime[id_]\n      ? _endTime[id_]\n      : lastClaimedTimestamp;\n\n    // calculate remainingTime by subtracting lastClaimedTimestamp from the end tim\n    remainingTime = (_endTime[id_]).sub(lastClaimedTimestamp);\n  }\n\n  /**\n   * @dev calculate the remaining amount\n   * @param token_: token address\n   * @param beneficiary_: beneficiary address\n   */\n  function getRemaining(address token_, address beneficiary_)\n    public\n    view\n    virtual\n    override\n    returns (\n      uint256 remainingAmount,\n      uint256 remainingTime,\n      uint256 remainingInstalment\n    )\n  {\n    if (token_ == address(0) || beneficiary_ == address(0))\n      return (remainingAmount, remainingTime, remainingInstalment);\n\n    uint256 id = _grantID[token_][beneficiary_];\n    (remainingAmount, remainingTime, remainingInstalment) = _getRemaining(id);\n  }\n\n  /**\n   * @dev calculate the remaining amount from user id\n   * @param id_: user id\n   */\n  function getRemainingFromID(uint256 id_)\n    public\n    view\n    virtual\n    override\n    returns (\n      uint256 remainingAmount,\n      uint256 remainingTime,\n      uint256 remainingInstalment\n    )\n  {\n    if (id_ == 0) return (remainingAmount, remainingTime, remainingInstalment);\n    (remainingAmount, remainingTime, remainingInstalment) = _getRemaining(id_);\n  }\n\n  /**\n   * @dev Transfers tokens held by beneficiary to timelock.\n   * @param id_: user id\n   * @param token_: token contract address\n   * @param beneficiary_: beneficiary address\n   * @param startTime_: start time\n   * @param cliffPeriod_: initial waiting period\n   * @param instalmentAmount_: instalment amount\n   * @param instalmentCount_: instalment count\n   * @param instalmentPeriod_: instalment period\n   * @param grantManager: grant manager address\n   */\n  function _addGrant(\n    uint256 id_,\n    address token_,\n    address beneficiary_,\n    uint256 startTime_,\n    uint256 cliffPeriod_,\n    uint256 instalmentAmount_,\n    uint256 instalmentCount_,\n    uint256 instalmentPeriod_,\n    address grantManager\n  ) internal {\n    // Require statement to check if grant is already active\n    require(!_isActive[id_], \"VT1\");\n\n    uint256 endTime = startTime_.add(cliffPeriod_).add(\n      instalmentPeriod_.mul(instalmentCount_.sub(1))\n    );\n\n    _token[id_] = token_;\n    _startTime[id_] = startTime_;\n    _endTime[id_] = endTime;\n    _cliffPeriod[id_] = cliffPeriod_;\n    _beneficiary[id_] = beneficiary_;\n    _isActive[id_] = true;\n    _instalmentAmount[id_] = instalmentAmount_;\n    _instalmentCount[id_] = instalmentCount_;\n    _instalmentPeriod[id_] = instalmentPeriod_;\n    _grantManager[id_] = grantManager;\n  }\n\n  /**\n   * @dev Transfers tokens held by beneficiary to timelock in installments\n   * @param token_: token address\n   * @param beneficiary_: beneficiary address\n   * @param startTime_: start time\n   * @param cliffPeriod_: initial waiting period\n   * @param instalmentAmount_: installment amount\n   * @param instalmentCount_: instalment count\n   * @param instalmentPeriod_: instalment period\n   *\n   * Emits a {AddGrantAsInstalment} event.\n   */\n  function addGrant(\n    address token_,\n    address beneficiary_,\n    uint256 startTime_,\n    uint256 cliffPeriod_,\n    uint256 instalmentAmount_,\n    uint256 instalmentCount_,\n    uint256 instalmentPeriod_\n  ) public virtual override nonReentrant returns (uint256 totalVestingAmount) {\n    // Require statements to for transaction sanity check\n    require(\n      token_ != address(0) &&\n        beneficiary_ != (address(0)) &&\n        // max limit of cliff period is 10 years (in seconds)\n        cliffPeriod_ < (3650 days) &&\n        // min range for start time starts from 10 years in the past\n        startTime_ > ((block.timestamp).sub(3650 days)) &&\n        // max range for start time starts from 10 years in the future\n        startTime_ < ((block.timestamp).add(3650 days)) &&\n        instalmentAmount_ > 0 &&\n        instalmentCount_ > 0 &&\n        instalmentCount_ < 1200 &&\n        // max limit of instalment period is 10 years (in seconds)\n        instalmentPeriod_ < (3650 days),\n      \"VT3\"\n    );\n\n    // require instalmentPeriod to be set when the instalmentCount is more than 1\n    require(!(instalmentCount_ > 1 && instalmentPeriod_ == 0), \"VT18\");\n\n    // check the calling address has suffecient tokens and then transfer tokens to this contract\n    totalVestingAmount = instalmentAmount_.mul(instalmentCount_);\n    require(\n      IERC20Upgradeable(token_).balanceOf(_msgSender()) >= totalVestingAmount,\n      \"VT11\"\n    );\n\n    // check if the grant is not already active\n    uint256 existingID = _grantID[token_][beneficiary_];\n    // check if an existing active grant is not already in effect\n    require(!_isActive[existingID], \"VT17\");\n\n    IERC20Upgradeable(token_).safeTransferFrom(\n      _msgSender(),\n      address(this),\n      totalVestingAmount\n    );\n\n    // generate a new id and allocate to the beneficiary\n    uint256 id = ++_id;\n    _grantCount[token_]++;\n    // add beneficiary to beneficiaryID\n    _grantID[token_][beneficiary_] = id;\n\n    _addGrant(\n      id,\n      token_,\n      beneficiary_,\n      startTime_,\n      cliffPeriod_,\n      instalmentAmount_,\n      instalmentCount_,\n      instalmentPeriod_,\n      _msgSender()\n    );\n\n    emit AddGrant(\n      id,\n      token_,\n      beneficiary_,\n      startTime_,\n      cliffPeriod_,\n      totalVestingAmount,\n      instalmentAmount_,\n      instalmentCount_,\n      instalmentPeriod_,\n      _msgSender(),\n      block.timestamp\n    );\n  }\n\n  /**\n   * @dev Revoke grant tokens held by timelock to beneficiary.\n   * @param id_: user id\n   *\n   * Emits a {AddGrantAsInstalment} event.\n   */\n  function _revokeGrant(uint256 id_)\n    internal\n    returns (uint256 remainingAmount)\n  {\n    // require the end date for grant to not have passed\n    require(\n      _isActive[id_] && _lastClaimedTimestamp[id_] < _endTime[id_],\n      \"VT4\"\n    );\n\n    (remainingAmount, , ) = _getRemaining(id_);\n    // deactivate the grant (keep other values intact)\n    _isActive[id_] = false;\n  }\n\n  /**\n   * @dev Revoke grant tokens held by timelock to beneficiary.\n   * @param token_: token address\n   * @param beneficiary_: beneficiary address\n   *\n   * Emits a {RevokeGrant} event.\n   */\n  function revokeGrant(address token_, address beneficiary_)\n    public\n    virtual\n    override\n    nonReentrant\n    returns (uint256 remainingAmount)\n  {\n    // require beneficiary not be address(0)\n    require(token_ != address(0) && beneficiary_ != (address(0)), \"VT5\");\n\n    // get the ID and retrieve grantManager to compare with the msgSender()\n    uint256 id = _grantID[token_][beneficiary_];\n    require(id != 0, \"VT7\");\n    address grantManager = _grantManager[id];\n\n    // Grant can be revoked by the beneficiary, grant manager or GRANT ADMIN defined in the contract\n    require(\n      _msgSender() == beneficiary_ ||\n        _msgSender() == grantManager ||\n        hasRole(GRANT_ADMIN_ROLE, _msgSender()),\n      \"VT6\"\n    );\n\n    // find the remaining amount after revoke and transfer it back to the grant manager\n    remainingAmount = _revokeGrant(id);\n    if (remainingAmount > 0) {\n      // delete _grantID[token_][beneficiary_];\n      IERC20Upgradeable(token_).safeTransfer(grantManager, remainingAmount);\n    }\n\n    // emit an event for record\n    emit RevokeGrant(\n      id,\n      token_,\n      _msgSender(),\n      beneficiary_,\n      grantManager,\n      remainingAmount,\n      block.timestamp\n    );\n  }\n\n  /**\n   * @dev Revoke grant tokens held by timelock to beneficiary.\n   * @param id_: grant ID\n   *\n   * Emits a {RevokeGrant} event.\n   */\n  function revokeGrantFromID(uint256 id_)\n    public\n    virtual\n    override\n    nonReentrant\n    returns (uint256 remainingAmount)\n  {\n    require(id_ != 0, \"VT15\");\n    // get grantManager and beneficiary\n    address grantManager = _grantManager[id_];\n    address beneficiary = _beneficiary[id_];\n\n    // Grant can be revoked by the beneficiary, grant manager or GRANT ADMIN defined in the contract\n    require(\n      _msgSender() == beneficiary ||\n        _msgSender() == grantManager ||\n        hasRole(GRANT_ADMIN_ROLE, _msgSender()),\n      \"VT16\"\n    );\n\n    // find the remaining amount after revoke and transfer it back to the grant manager\n    remainingAmount = _revokeGrant(id_);\n\n    if (remainingAmount > 0) {\n      // delete _grantID[token_][beneficiary_];\n      IERC20Upgradeable(_token[id_]).safeTransfer(\n        grantManager,\n        remainingAmount\n      );\n    }\n\n    // emit an event for record\n    emit RevokeGrant(\n      id_,\n      _token[id_],\n      _msgSender(),\n      beneficiary,\n      grantManager,\n      remainingAmount,\n      block.timestamp\n    );\n  }\n\n  /**\n   * @dev Transfers tokens held by timelock to beneficiary.\n   * @param token_: token address\n   * @param beneficiary_: beneficiary address\n   *\n   * Emits a {ClaimGrant} event.\n   */\n  function claimGrant(address token_, address beneficiary_)\n    external\n    virtual\n    override\n    nonReentrant\n    whenNotPaused\n    returns (uint256 pendingAmount)\n  {\n    // require beneficiary not be address(0)\n    require(token_ != address(0) && beneficiary_ != (address(0)), \"VT8\");\n\n    // get the ID and grant manager from the grant data\n    uint256 id = _grantID[token_][beneficiary_];\n    require(id != 0, \"VT9\");\n    address grantManager = _grantManager[id];\n\n    // Grant can be revoked by the beneficiary, grant manager or GRANT ADMIN defined in the contract\n    require(\n      _msgSender() == beneficiary_ ||\n        _msgSender() == grantManager ||\n        hasRole(GRANT_ADMIN_ROLE, _msgSender()),\n      \"VT10\"\n    );\n\n    // require the grant to be active and vesting amount still pending to be credited to beneficiary for claiming\n    require(\n      _isActive[id] &&\n        (_instalmentAmount[id].mul(_instalmentCount[id]) > _amountReceived[id]),\n      \"VT12\"\n    );\n\n    // get the pending amount to be credited to beneficiary\n    (pendingAmount, , ) = _getPending(id);\n\n    if (pendingAmount > 0) {\n      IERC20Upgradeable(token_).safeTransfer(beneficiary_, pendingAmount);\n      _amountReceived[id] = _amountReceived[id].add(pendingAmount);\n\n      // set last claimed for the grant to current time\n      _lastClaimedTimestamp[id] = block.timestamp;\n    }\n\n    // if all the vesting amount has been claimed, then deactivate grant\n    if (block.timestamp >= _endTime[id]) {\n      _isActive[id] = false;\n    }\n\n    emit ClaimGrant(id, token_, beneficiary_, pendingAmount, block.timestamp);\n  }\n\n  /**\n   * @dev Triggers stopped state.\n   *\n   * Requirements:\n   *\n   * - The contract must not be paused.\n   */\n  function pause() public virtual override returns (bool success) {\n    require(\n      hasRole(PAUSER_ROLE, _msgSender()),\n      \"VestingTimelock: Unauthorized User\"\n    );\n    _pause();\n    return true;\n  }\n\n  /**\n   * @dev Returns to normal state.\n   *\n   * Requirements:\n   *\n   * - The contract must be paused.\n   */\n  function unpause() public virtual override returns (bool success) {\n    require(\n      hasRole(PAUSER_ROLE, _msgSender()),\n      \"VestingTimelock: Unauthorized User\"\n    );\n    _unpause();\n    return true;\n  }\n}\n",
  "sourcePath": "C:\\Users\\Kamlesh\\Persistence\\pStake\\codebase\\erc20\\contracts\\VestingTimelockV2.sol",
  "compiler": {
    "name": "solc",
    "version": "0.7.6+commit.7338295f.Emscripten.clang"
  },
  "schemaVersion": "3.4.3",
  "updatedAt": "2021-11-15T06:13:27.620Z",
  "devdoc": {
    "details": "A token holder contract that will allow a beneficiary to extract the tokens after a given release time. Supports multiple vesting strategies like Cliffed, Continuous, Stepped etc.",
    "kind": "dev",
    "methods": {
      "addGrant(address,address,uint256,uint256,uint256,uint256,uint256)": {
        "details": "Transfers tokens held by beneficiary to timelock in installments",
        "params": {
          "beneficiary_": ": beneficiary address",
          "cliffPeriod_": ": initial waiting period",
          "instalmentAmount_": ": installment amount",
          "instalmentCount_": ": instalment count",
          "instalmentPeriod_": ": instalment period Emits a {AddGrantAsInstalment} event.",
          "startTime_": ": start time",
          "token_": ": token address"
        }
      },
      "claimGrant(address,address)": {
        "details": "Transfers tokens held by timelock to beneficiary.",
        "params": {
          "beneficiary_": ": beneficiary address Emits a {ClaimGrant} event.",
          "token_": ": token address"
        }
      },
      "getGrant(address,address)": {
        "details": "Get the details of the vesting grant for a user",
        "params": {
          "beneficiary_": ": address of beneficiary",
          "token_": ": address of token"
        }
      },
      "getGrantFromID(uint256)": {
        "details": "get the details of the vesting grant for a user from id",
        "params": {
          "id_": ": vesting grant for a user id"
        }
      },
      "getPending(address,address)": {
        "details": "calculate the pending time in the currently vesting installment",
        "params": {
          "beneficiary_": ": beneficiary address",
          "token_": ": token address"
        }
      },
      "getPendingFromID(uint256)": {
        "details": "calculate the pending time in the currently vesting installment from user id",
        "params": {
          "id_": ": user id"
        }
      },
      "getRemaining(address,address)": {
        "details": "calculate the remaining amount",
        "params": {
          "beneficiary_": ": beneficiary address",
          "token_": ": token address"
        }
      },
      "getRemainingFromID(uint256)": {
        "details": "calculate the remaining amount from user id",
        "params": {
          "id_": ": user id"
        }
      },
      "getRoleAdmin(bytes32)": {
        "details": "Returns the admin role that controls `role`. See {grantRole} and {revokeRole}. To change a role's admin, use {_setRoleAdmin}."
      },
      "getRoleMember(bytes32,uint256)": {
        "details": "Returns one of the accounts that have `role`. `index` must be a value between 0 and {getRoleMemberCount}, non-inclusive. Role bearers are not sorted in any particular way, and their ordering may change at any point. WARNING: When using {getRoleMember} and {getRoleMemberCount}, make sure you perform all queries on the same block. See the following https://forum.openzeppelin.com/t/iterating-over-elements-on-enumerableset-in-openzeppelin-contracts/2296[forum post] for more information."
      },
      "getRoleMemberCount(bytes32)": {
        "details": "Returns the number of accounts that have `role`. Can be used together with {getRoleMember} to enumerate all bearers of a role."
      },
      "grantRole(bytes32,address)": {
        "details": "Grants `role` to `account`. If `account` had not been already granted `role`, emits a {RoleGranted} event. Requirements: - the caller must have ``role``'s admin role."
      },
      "hasRole(bytes32,address)": {
        "details": "Returns `true` if `account` has been granted `role`."
      },
      "initialize(address,address)": {
        "details": "Constructor for initializing the Vesting Timelock contract.",
        "params": {
          "grantAdminAddress_": "- address of the grant admin.",
          "pauserAddress_": "- address of the pauser admin."
        }
      },
      "pause()": {
        "details": "Triggers stopped state. Requirements: - The contract must not be paused."
      },
      "paused()": {
        "details": "Returns true if the contract is paused, and false otherwise."
      },
      "renounceRole(bytes32,address)": {
        "details": "Revokes `role` from the calling account. Roles are often managed via {grantRole} and {revokeRole}: this function's purpose is to provide a mechanism for accounts to lose their privileges if they are compromised (such as when a trusted device is misplaced). If the calling account had been granted `role`, emits a {RoleRevoked} event. Requirements: - the caller must be `account`."
      },
      "revokeGrant(address,address)": {
        "details": "Revoke grant tokens held by timelock to beneficiary.",
        "params": {
          "beneficiary_": ": beneficiary address Emits a {RevokeGrant} event.",
          "token_": ": token address"
        }
      },
      "revokeGrantFromID(uint256)": {
        "details": "Revoke grant tokens held by timelock to beneficiary.",
        "params": {
          "id_": ": grant ID Emits a {RevokeGrant} event."
        }
      },
      "revokeRole(bytes32,address)": {
        "details": "Revokes `role` from `account`. If `account` had been granted `role`, emits a {RoleRevoked} event. Requirements: - the caller must have ``role``'s admin role."
      },
      "unpause()": {
        "details": "Returns to normal state. Requirements: - The contract must be paused."
      }
    },
    "version": 1
  },
  "userdoc": {
    "kind": "user",
    "methods": {},
    "version": 1
  }
}