{
  "contractName": "VestingTimelockV2",
  "abi": [
    {
      "anonymous": false,
      "inputs": [
        {
          "indexed": false,
          "internalType": "uint256",
          "name": "id",
          "type": "uint256"
        },
        {
          "indexed": false,
          "internalType": "address",
          "name": "token",
          "type": "address"
        },
        {
          "indexed": false,
          "internalType": "address",
          "name": "accountAddress",
          "type": "address"
        },
        {
          "indexed": false,
          "internalType": "uint256",
          "name": "startTime",
          "type": "uint256"
        },
        {
          "indexed": false,
          "internalType": "uint256",
          "name": "cliffTime",
          "type": "uint256"
        },
        {
          "indexed": false,
          "internalType": "uint256",
          "name": "tokens",
          "type": "uint256"
        },
        {
          "indexed": false,
          "internalType": "uint256",
          "name": "instalmentCount",
          "type": "uint256"
        },
        {
          "indexed": false,
          "internalType": "uint256",
          "name": "instalmentPeriod",
          "type": "uint256"
        },
        {
          "indexed": false,
          "internalType": "bool",
          "name": "isContinuousVesting",
          "type": "bool"
        },
        {
          "indexed": false,
          "internalType": "address",
          "name": "grantManager",
          "type": "address"
        },
        {
          "indexed": false,
          "internalType": "uint256",
          "name": "timestamp",
          "type": "uint256"
        }
      ],
      "name": "AddGrant",
      "type": "event"
    },
    {
      "anonymous": false,
      "inputs": [
        {
          "indexed": false,
          "internalType": "uint256",
          "name": "id",
          "type": "uint256"
        },
        {
          "indexed": false,
          "internalType": "address",
          "name": "token",
          "type": "address"
        },
        {
          "indexed": false,
          "internalType": "address",
          "name": "accountAddress",
          "type": "address"
        },
        {
          "indexed": false,
          "internalType": "uint256",
          "name": "startTime",
          "type": "uint256"
        },
        {
          "indexed": false,
          "internalType": "uint256",
          "name": "cliffTime",
          "type": "uint256"
        },
        {
          "indexed": false,
          "internalType": "uint256",
          "name": "tokens",
          "type": "uint256"
        },
        {
          "indexed": false,
          "internalType": "uint256",
          "name": "instalmentCount",
          "type": "uint256"
        },
        {
          "indexed": false,
          "internalType": "uint256",
          "name": "instalmentPeriod",
          "type": "uint256"
        },
        {
          "indexed": false,
          "internalType": "bool",
          "name": "isContinuousVesting",
          "type": "bool"
        },
        {
          "indexed": false,
          "internalType": "address",
          "name": "grantManager",
          "type": "address"
        },
        {
          "indexed": false,
          "internalType": "uint256",
          "name": "timestamp",
          "type": "uint256"
        }
      ],
      "name": "AddGrantAsInstalment",
      "type": "event"
    },
    {
      "anonymous": false,
      "inputs": [
        {
          "indexed": false,
          "internalType": "address",
          "name": "token",
          "type": "address"
        },
        {
          "indexed": false,
          "internalType": "address",
          "name": "accountAddress",
          "type": "address"
        },
        {
          "indexed": false,
          "internalType": "uint256",
          "name": "tokens",
          "type": "uint256"
        },
        {
          "indexed": false,
          "internalType": "uint256",
          "name": "timestamp",
          "type": "uint256"
        }
      ],
      "name": "ClaimGrant",
      "type": "event"
    },
    {
      "anonymous": false,
      "inputs": [
        {
          "indexed": false,
          "internalType": "address",
          "name": "account",
          "type": "address"
        }
      ],
      "name": "Paused",
      "type": "event"
    },
    {
      "anonymous": false,
      "inputs": [
        {
          "indexed": false,
          "internalType": "address",
          "name": "token",
          "type": "address"
        },
        {
          "indexed": false,
          "internalType": "address",
          "name": "accountAddress",
          "type": "address"
        },
        {
          "indexed": false,
          "internalType": "address",
          "name": "grantManager",
          "type": "address"
        },
        {
          "indexed": false,
          "internalType": "uint256",
          "name": "tokens",
          "type": "uint256"
        },
        {
          "indexed": false,
          "internalType": "uint256",
          "name": "timestamp",
          "type": "uint256"
        }
      ],
      "name": "RevokeGrant",
      "type": "event"
    },
    {
      "anonymous": false,
      "inputs": [
        {
          "indexed": true,
          "internalType": "bytes32",
          "name": "role",
          "type": "bytes32"
        },
        {
          "indexed": true,
          "internalType": "bytes32",
          "name": "previousAdminRole",
          "type": "bytes32"
        },
        {
          "indexed": true,
          "internalType": "bytes32",
          "name": "newAdminRole",
          "type": "bytes32"
        }
      ],
      "name": "RoleAdminChanged",
      "type": "event"
    },
    {
      "anonymous": false,
      "inputs": [
        {
          "indexed": true,
          "internalType": "bytes32",
          "name": "role",
          "type": "bytes32"
        },
        {
          "indexed": true,
          "internalType": "address",
          "name": "account",
          "type": "address"
        },
        {
          "indexed": true,
          "internalType": "address",
          "name": "sender",
          "type": "address"
        }
      ],
      "name": "RoleGranted",
      "type": "event"
    },
    {
      "anonymous": false,
      "inputs": [
        {
          "indexed": true,
          "internalType": "bytes32",
          "name": "role",
          "type": "bytes32"
        },
        {
          "indexed": true,
          "internalType": "address",
          "name": "account",
          "type": "address"
        },
        {
          "indexed": true,
          "internalType": "address",
          "name": "sender",
          "type": "address"
        }
      ],
      "name": "RoleRevoked",
      "type": "event"
    },
    {
      "anonymous": false,
      "inputs": [
        {
          "indexed": false,
          "internalType": "address",
          "name": "account",
          "type": "address"
        }
      ],
      "name": "Unpaused",
      "type": "event"
    },
    {
      "inputs": [],
      "name": "DEFAULT_ADMIN_ROLE",
      "outputs": [
        {
          "internalType": "bytes32",
          "name": "",
          "type": "bytes32"
        }
      ],
      "stateMutability": "view",
      "type": "function"
    },
    {
      "inputs": [],
      "name": "GRANT_ADMIN_ROLE",
      "outputs": [
        {
          "internalType": "bytes32",
          "name": "",
          "type": "bytes32"
        }
      ],
      "stateMutability": "view",
      "type": "function"
    },
    {
      "inputs": [],
      "name": "PAUSER_ROLE",
      "outputs": [
        {
          "internalType": "bytes32",
          "name": "",
          "type": "bytes32"
        }
      ],
      "stateMutability": "view",
      "type": "function"
    },
    {
      "inputs": [
        {
          "internalType": "address",
          "name": "",
          "type": "address"
        },
        {
          "internalType": "address",
          "name": "",
          "type": "address"
        }
      ],
      "name": "_beneficiaryID",
      "outputs": [
        {
          "internalType": "uint256",
          "name": "",
          "type": "uint256"
        }
      ],
      "stateMutability": "view",
      "type": "function"
    },
    {
      "inputs": [
        {
          "internalType": "address",
          "name": "",
          "type": "address"
        }
      ],
      "name": "_grantCount",
      "outputs": [
        {
          "internalType": "uint256",
          "name": "",
          "type": "uint256"
        }
      ],
      "stateMutability": "view",
      "type": "function"
    },
    {
      "inputs": [
        {
          "internalType": "uint256",
          "name": "",
          "type": "uint256"
        }
      ],
      "name": "_lastClaimedTimestamp",
      "outputs": [
        {
          "internalType": "uint256",
          "name": "",
          "type": "uint256"
        }
      ],
      "stateMutability": "view",
      "type": "function"
    },
    {
      "inputs": [
        {
          "internalType": "bytes32",
          "name": "role",
          "type": "bytes32"
        }
      ],
      "name": "getRoleAdmin",
      "outputs": [
        {
          "internalType": "bytes32",
          "name": "",
          "type": "bytes32"
        }
      ],
      "stateMutability": "view",
      "type": "function"
    },
    {
      "inputs": [
        {
          "internalType": "bytes32",
          "name": "role",
          "type": "bytes32"
        },
        {
          "internalType": "uint256",
          "name": "index",
          "type": "uint256"
        }
      ],
      "name": "getRoleMember",
      "outputs": [
        {
          "internalType": "address",
          "name": "",
          "type": "address"
        }
      ],
      "stateMutability": "view",
      "type": "function"
    },
    {
      "inputs": [
        {
          "internalType": "bytes32",
          "name": "role",
          "type": "bytes32"
        }
      ],
      "name": "getRoleMemberCount",
      "outputs": [
        {
          "internalType": "uint256",
          "name": "",
          "type": "uint256"
        }
      ],
      "stateMutability": "view",
      "type": "function"
    },
    {
      "inputs": [
        {
          "internalType": "bytes32",
          "name": "role",
          "type": "bytes32"
        },
        {
          "internalType": "address",
          "name": "account",
          "type": "address"
        }
      ],
      "name": "grantRole",
      "outputs": [],
      "stateMutability": "nonpayable",
      "type": "function"
    },
    {
      "inputs": [
        {
          "internalType": "bytes32",
          "name": "role",
          "type": "bytes32"
        },
        {
          "internalType": "address",
          "name": "account",
          "type": "address"
        }
      ],
      "name": "hasRole",
      "outputs": [
        {
          "internalType": "bool",
          "name": "",
          "type": "bool"
        }
      ],
      "stateMutability": "view",
      "type": "function"
    },
    {
      "inputs": [],
      "name": "paused",
      "outputs": [
        {
          "internalType": "bool",
          "name": "",
          "type": "bool"
        }
      ],
      "stateMutability": "view",
      "type": "function"
    },
    {
      "inputs": [
        {
          "internalType": "bytes32",
          "name": "role",
          "type": "bytes32"
        },
        {
          "internalType": "address",
          "name": "account",
          "type": "address"
        }
      ],
      "name": "renounceRole",
      "outputs": [],
      "stateMutability": "nonpayable",
      "type": "function"
    },
    {
      "inputs": [
        {
          "internalType": "bytes32",
          "name": "role",
          "type": "bytes32"
        },
        {
          "internalType": "address",
          "name": "account",
          "type": "address"
        }
      ],
      "name": "revokeRole",
      "outputs": [],
      "stateMutability": "nonpayable",
      "type": "function"
    },
    {
      "inputs": [
        {
          "internalType": "address",
          "name": "pauserAddress_",
          "type": "address"
        },
        {
          "internalType": "address",
          "name": "grantAdminAddress_",
          "type": "address"
        }
      ],
      "name": "initialize",
      "outputs": [],
      "stateMutability": "nonpayable",
      "type": "function"
    },
    {
      "inputs": [
        {
          "internalType": "address",
          "name": "token_",
          "type": "address"
        },
        {
          "internalType": "address",
          "name": "beneficiary_",
          "type": "address"
        }
      ],
      "name": "getGrant",
      "outputs": [
        {
          "internalType": "uint256",
          "name": "startTime",
          "type": "uint256"
        },
        {
          "internalType": "uint256",
          "name": "endTime",
          "type": "uint256"
        },
        {
          "internalType": "uint256",
          "name": "cliffTime",
          "type": "uint256"
        },
        {
          "internalType": "address",
          "name": "beneficiary",
          "type": "address"
        },
        {
          "internalType": "bool",
          "name": "isActive",
          "type": "bool"
        },
        {
          "internalType": "uint256",
          "name": "instalmentAmount",
          "type": "uint256"
        },
        {
          "internalType": "uint256",
          "name": "instalmentCount",
          "type": "uint256"
        },
        {
          "internalType": "uint256",
          "name": "instalmentPeriod",
          "type": "uint256"
        },
        {
          "internalType": "uint256",
          "name": "amountReceived",
          "type": "uint256"
        },
        {
          "internalType": "bool",
          "name": "isContinuousVesting",
          "type": "bool"
        },
        {
          "internalType": "address",
          "name": "grantManager",
          "type": "address"
        }
      ],
      "stateMutability": "view",
      "type": "function"
    },
    {
      "inputs": [
        {
          "internalType": "uint256",
          "name": "id_",
          "type": "uint256"
        }
      ],
      "name": "getGrantFromID",
      "outputs": [
        {
          "internalType": "uint256",
          "name": "startTime",
          "type": "uint256"
        },
        {
          "internalType": "uint256",
          "name": "endTime",
          "type": "uint256"
        },
        {
          "internalType": "uint256",
          "name": "cliffTime",
          "type": "uint256"
        },
        {
          "internalType": "address",
          "name": "beneficiary",
          "type": "address"
        },
        {
          "internalType": "bool",
          "name": "isActive",
          "type": "bool"
        },
        {
          "internalType": "uint256",
          "name": "instalmentAmount",
          "type": "uint256"
        },
        {
          "internalType": "uint256",
          "name": "instalmentCount",
          "type": "uint256"
        },
        {
          "internalType": "uint256",
          "name": "instalmentPeriod",
          "type": "uint256"
        },
        {
          "internalType": "uint256",
          "name": "amountReceived",
          "type": "uint256"
        },
        {
          "internalType": "bool",
          "name": "isContinuousVesting",
          "type": "bool"
        },
        {
          "internalType": "address",
          "name": "grantManager",
          "type": "address"
        }
      ],
      "stateMutability": "view",
      "type": "function"
    },
    {
      "inputs": [
        {
          "internalType": "address",
          "name": "token_",
          "type": "address"
        },
        {
          "internalType": "address",
          "name": "beneficiary_",
          "type": "address"
        }
      ],
      "name": "getPending",
      "outputs": [
        {
          "internalType": "uint256",
          "name": "pendingAmount",
          "type": "uint256"
        },
        {
          "internalType": "uint256",
          "name": "pendingTime",
          "type": "uint256"
        },
        {
          "internalType": "uint256",
          "name": "pendingInstalment",
          "type": "uint256"
        }
      ],
      "stateMutability": "view",
      "type": "function"
    },
    {
      "inputs": [
        {
          "internalType": "uint256",
          "name": "id_",
          "type": "uint256"
        }
      ],
      "name": "getPendingFromID",
      "outputs": [
        {
          "internalType": "uint256",
          "name": "pendingAmount",
          "type": "uint256"
        },
        {
          "internalType": "uint256",
          "name": "pendingTime",
          "type": "uint256"
        },
        {
          "internalType": "uint256",
          "name": "pendingInstalment",
          "type": "uint256"
        }
      ],
      "stateMutability": "view",
      "type": "function"
    },
    {
      "inputs": [
        {
          "internalType": "address",
          "name": "token_",
          "type": "address"
        },
        {
          "internalType": "address",
          "name": "beneficiary_",
          "type": "address"
        }
      ],
      "name": "getRemaining",
      "outputs": [
        {
          "internalType": "uint256",
          "name": "remainingAmount",
          "type": "uint256"
        },
        {
          "internalType": "uint256",
          "name": "remainingTime",
          "type": "uint256"
        },
        {
          "internalType": "uint256",
          "name": "remainingInstalment",
          "type": "uint256"
        }
      ],
      "stateMutability": "view",
      "type": "function"
    },
    {
      "inputs": [
        {
          "internalType": "uint256",
          "name": "id_",
          "type": "uint256"
        }
      ],
      "name": "getRemainingFromID",
      "outputs": [
        {
          "internalType": "uint256",
          "name": "remainingAmount",
          "type": "uint256"
        },
        {
          "internalType": "uint256",
          "name": "remainingTime",
          "type": "uint256"
        },
        {
          "internalType": "uint256",
          "name": "remainingInstalment",
          "type": "uint256"
        }
      ],
      "stateMutability": "view",
      "type": "function"
    },
    {
      "inputs": [
        {
          "internalType": "address",
          "name": "token_",
          "type": "address"
        },
        {
          "internalType": "address",
          "name": "beneficiary_",
          "type": "address"
        },
        {
          "internalType": "uint256",
          "name": "startTime_",
          "type": "uint256"
        },
        {
          "internalType": "uint256",
          "name": "cliffTime_",
          "type": "uint256"
        },
        {
          "internalType": "uint256",
          "name": "totalAmount_",
          "type": "uint256"
        },
        {
          "internalType": "uint256",
          "name": "instalmentCount_",
          "type": "uint256"
        },
        {
          "internalType": "uint256",
          "name": "instalmentPeriod_",
          "type": "uint256"
        },
        {
          "internalType": "bool",
          "name": "isContinuousVesting_",
          "type": "bool"
        }
      ],
      "name": "addGrant",
      "outputs": [
        {
          "internalType": "uint256",
          "name": "instalmentAmount",
          "type": "uint256"
        }
      ],
      "stateMutability": "nonpayable",
      "type": "function"
    },
    {
      "inputs": [
        {
          "internalType": "address",
          "name": "token_",
          "type": "address"
        },
        {
          "internalType": "address",
          "name": "beneficiary_",
          "type": "address"
        },
        {
          "internalType": "uint256",
          "name": "startTime_",
          "type": "uint256"
        },
        {
          "internalType": "uint256",
          "name": "cliffTime_",
          "type": "uint256"
        },
        {
          "internalType": "uint256",
          "name": "instalmentAmount_",
          "type": "uint256"
        },
        {
          "internalType": "uint256",
          "name": "instalmentCount_",
          "type": "uint256"
        },
        {
          "internalType": "uint256",
          "name": "instalmentPeriod_",
          "type": "uint256"
        },
        {
          "internalType": "bool",
          "name": "isContinuousVesting_",
          "type": "bool"
        }
      ],
      "name": "addGrantAsInstalment",
      "outputs": [
        {
          "internalType": "uint256",
          "name": "totalVestingAmount",
          "type": "uint256"
        }
      ],
      "stateMutability": "nonpayable",
      "type": "function"
    },
    {
      "inputs": [
        {
          "internalType": "address",
          "name": "token_",
          "type": "address"
        },
        {
          "internalType": "address",
          "name": "beneficiary_",
          "type": "address"
        },
        {
          "internalType": "address",
          "name": "grantManager_",
          "type": "address"
        }
      ],
      "name": "revokeGrant",
      "outputs": [
        {
          "internalType": "uint256",
          "name": "remainingAmount",
          "type": "uint256"
        }
      ],
      "stateMutability": "nonpayable",
      "type": "function"
    },
    {
      "inputs": [
        {
          "internalType": "address",
          "name": "token_",
          "type": "address"
        },
        {
          "internalType": "address",
          "name": "beneficiary_",
          "type": "address"
        }
      ],
      "name": "claimGrant",
      "outputs": [],
      "stateMutability": "nonpayable",
      "type": "function"
    },
    {
      "inputs": [],
      "name": "pause",
      "outputs": [
        {
          "internalType": "bool",
          "name": "success",
          "type": "bool"
        }
      ],
      "stateMutability": "nonpayable",
      "type": "function"
    },
    {
      "inputs": [],
      "name": "unpause",
      "outputs": [
        {
          "internalType": "bool",
          "name": "success",
          "type": "bool"
        }
      ],
      "stateMutability": "nonpayable",
      "type": "function"
    }
  ],
  "bytecode": "0x608060405234801561001057600080fd5b50612cbe806100206000396000f3fe608060405234801561001057600080fd5b50600436106101a95760003560e01c80636d1319eb116100f9578063b415884411610097578063d6003d9e11610071578063d6003d9e1461059b578063d7a6dbe3146105b8578063dc765111146105e6578063e63ab1e91461063d576101a9565b8063b415884414610524578063ca15c87314610552578063d547741f1461056f576101a9565b80639010d07c116100d35780639010d07c1461049457806391d14854146104d35780639f08f869146104ff578063a217fddf1461051c576101a9565b80636d1319eb146103cc5780638456cb591461045e57806388984a0d14610466576101a9565b806336568abe11610166578063485cc95511610140578063485cc955146103535780635138b2b7146103815780635c975abb146103a75780636ad1ee3d146103af576101a9565b806336568abe146102d35780633f4ba83a146102ff578063417cbd911461031b576101a9565b80630bf5bff7146101ae57806314820f2f14610217578063248a9ca3146102635780632c0acd2c146102805780632f2ff15d146102885780632fdd100a146102b6575b600080fd5b61020560048036036101008110156101c557600080fd5b506001600160a01b03813581169160208101359091169060408101359060608101359060808101359060a08101359060c08101359060e001351515610645565b60408051918252519081900360200190f35b6102456004803603604081101561022d57600080fd5b506001600160a01b03813581169160200135166108b0565b60408051938452602084019290925282820152519081900360600190f35b6102056004803603602081101561027957600080fd5b503561091a565b61020561092f565b6102b46004803603604081101561029e57600080fd5b50803590602001356001600160a01b0316610941565b005b610205600480360360208110156102cc57600080fd5b50356109ad565b6102b4600480360360408110156102e957600080fd5b50803590602001356001600160a01b03166109bf565b610307610a20565b604080519115158252519081900360200190f35b6102056004803603606081101561033157600080fd5b506001600160a01b038135811691602081013582169160409091013516610a85565b6102b46004803603604081101561036957600080fd5b506001600160a01b0381358116916020013516610d5e565b6102056004803603602081101561039757600080fd5b50356001600160a01b0316610e5c565b610307610e6e565b610245600480360360208110156103c557600080fd5b5035610e77565b6103fa600480360360408110156103e257600080fd5b506001600160a01b0381358116916020013516610e9d565b604080519b8c5260208c019a909a528a8a01989098526001600160a01b0396871660608b015294151560808a015260a089019390935260c088019190915260e087015261010086015215156101208501521661014083015251908190036101600190f35b610307610f4e565b6102456004803603604081101561047c57600080fd5b506001600160a01b0381358116916020013516610fad565b6104b7600480360360408110156104aa57600080fd5b5080359060200135611007565b604080516001600160a01b039092168252519081900360200190f35b610307600480360360408110156104e957600080fd5b50803590602001356001600160a01b0316611028565b6103fa6004803603602081101561051557600080fd5b5035611040565b610205611080565b6102b46004803603604081101561053a57600080fd5b506001600160a01b0381358116916020013516611085565b6102056004803603602081101561056857600080fd5b503561133b565b6102b46004803603604081101561058557600080fd5b50803590602001356001600160a01b0316611352565b610245600480360360208110156105b157600080fd5b50356113ab565b610205600480360360408110156105ce57600080fd5b506001600160a01b03813581169160200135166113c2565b61020560048036036101008110156105fd57600080fd5b506001600160a01b03813581169160208101359091169060408101359060608101359060808101359060a08101359060c08101359060e0013515156113df565b6102056115d1565b60006002600154141561068d576040805162461bcd60e51b815260206004820152601f6024820152600080516020612b09833981519152604482015290519081900360640190fd5b60026001556001600160a01b038916158015906106b257506001600160a01b03881615155b80156106bd57508415155b80156106c857508315155b6106ff576040805162461bcd60e51b815260206004820152600360248201526256543360e81b604482015290519081900360640190fd5b61070985856115e3565b905084896001600160a01b03166370a082318a6040518263ffffffff1660e01b815260040180826001600160a01b0316815260200191505060206040518083038186803b15801561075957600080fd5b505afa15801561076d573d6000803e3d6000fd5b505050506040513d602081101561078357600080fd5b5051101561079057600080fd5b6107ad61079b61164a565b6001600160a01b038b1690308861164e565b60c980546001908101918290556001600160a01b03808c16600090815260ca60209081526040808320805490950190945560cb8152838220928d168252919091522081905561080a818a8a8a868a8a8a61080561164a565b6116ae565b7fb202c3f08fb28e09344f349ec8dd3dbc7afff036295930c73f97ddff38c3bc00818b8b8b8b8b8b8b8b61083c61164a565b604080519a8b526001600160a01b03998a1660208c01529789168a89015260608a0196909652608089019490945260a088019290925260c087015260e086015215156101008501529091166101208301524261014083015251908190036101600190a1506001805598975050505050505050565b600080806001600160a01b03851615806108d157506001600160a01b038416155b156108db57610913565b6001600160a01b03808616600090815260cb602090815260408083209388168352929052205461090a816117d0565b91955093509150505b9250925092565b60009081526097602052604090206002015490565b600080516020612bee83398151915281565b6000828152609760205260409020600201546109649061095f61164a565b611028565b61099f5760405162461bcd60e51b815260040180806020018281038252602f815260200180612ada602f913960400191505060405180910390fd5b6109a98282611a81565b5050565b60d76020526000908152604090205481565b6109c761164a565b6001600160a01b0316816001600160a01b031614610a165760405162461bcd60e51b815260040180806020018281038252602f815260200180612c5a602f913960400191505060405180910390fd5b6109a98282611aea565b6000610a3c600080516020612bce83398151915261095f61164a565b610a775760405162461bcd60e51b8152600401808060200182810382526022815260200180612c386022913960400191505060405180910390fd5b610a7f611b53565b50600190565b600060026001541415610acd576040805162461bcd60e51b815260206004820152601f6024820152600080516020612b09833981519152604482015290519081900360640190fd5b60026001556001600160a01b03841615801590610af257506001600160a01b03831615155b8015610b0657506001600160a01b03821615155b610b3d576040805162461bcd60e51b815260206004820152600360248201526256543560e81b604482015290519081900360640190fd5b826001600160a01b0316610b4f61164a565b6001600160a01b03161480610b7c5750816001600160a01b0316610b7161164a565b6001600160a01b0316145b80610b9c5750610b9c600080516020612bee83398151915261095f61164a565b610bd3576040805162461bcd60e51b81526020600482015260036024820152622b2a1b60e91b604482015290519081900360640190fd5b6001600160a01b03808516600090815260cb602090815260408083209387168352929052205480610c31576040805162461bcd60e51b815260206004820152600360248201526256543760e81b604482015290519081900360640190fd5b610c3a81611bf3565b9150846001600160a01b03166370a08231306040518263ffffffff1660e01b815260040180826001600160a01b0316815260200191505060206040518083038186803b158015610c8957600080fd5b505afa158015610c9d573d6000803e3d6000fd5b505050506040513d6020811015610cb357600080fd5b5051821115610cbe57fe5b8115610cfa576001600160a01b03808616600081815260cb60209081526040808320948916835293905291822091909155610cfa908484611c61565b604080516001600160a01b03808816825280871660208301528516818301526060810184905242608082015290517f622e473ff9b0fdf0725b70cd5aa11e70471d028e6a7ceda8f72c2efa84a6ac5c9181900360a00190a150600180559392505050565b600054610100900460ff1680610d775750610d77611cb3565b80610d85575060005460ff16155b610dc05760405162461bcd60e51b815260040180806020018281038252602e815260200180612b7f602e913960400191505060405180910390fd5b600054610100900460ff16158015610deb576000805460ff1961ff0019909116610100171660011790555b610df3611cc4565b610dfb611d6e565b610e03611e0e565b610e156000610e1061164a565b61099f565b610e2d600080516020612bce8339815191528461099f565b610e45600080516020612bee8339815191528361099f565b8015610e57576000805461ff00191690555b505050565b60ca6020526000908152604090205481565b60655460ff1690565b6000808083610e8557610e96565b610e8e84611eb9565b919450925090505b9193909250565b6000808080808080808080806001600160a01b038d161580610ec657506001600160a01b038c16155b15610ed057610f3e565b600060cb60008f6001600160a01b03166001600160a01b0316815260200190815260200160002060008e6001600160a01b03166001600160a01b03168152602001908152602001600020549050610f26816120a0565b9b509b509b509b509b509b509b509b509b509b509b50505b9295989b509295989b9093969950565b6000610f6a600080516020612bce83398151915261095f61164a565b610fa55760405162461bcd60e51b8152600401808060200182810382526022815260200180612c386022913960400191505060405180910390fd5b610a7f61220d565b600080806001600160a01b0385161580610fce57506001600160a01b038416155b15610fd857610913565b6001600160a01b03808616600090815260cb602090815260408083209388168352929052205461090a81611eb9565b600082815260976020526040812061101f9083612290565b90505b92915050565b600082815260976020526040812061101f908361229c565b600080600080600080600080600080600061105a8c6120a0565b9a509a509a509a509a509a509a509a509a509a509a505b91939597999b90929496989a50565b600081565b600260015414156110cb576040805162461bcd60e51b815260206004820152601f6024820152600080516020612b09833981519152604482015290519081900360640190fd5b60026001556110d8610e6e565b1561111d576040805162461bcd60e51b815260206004820152601060248201526f14185d5cd8589b194e881c185d5cd95960821b604482015290519081900360640190fd5b6001600160a01b0382161580159061113d57506001600160a01b03811615155b611174576040805162461bcd60e51b815260206004820152600360248201526256543560e81b604482015290519081900360640190fd5b6001600160a01b03808316600090815260cb6020908152604080832093851683529290522054806111d2576040805162461bcd60e51b815260206004820152600360248201526256543760e81b604482015290519081900360640190fd5b600081815260d660205260409020546001600160a01b039081169083166111f761164a565b6001600160a01b031614806112245750806001600160a01b031661121961164a565b6001600160a01b0316145b806112445750611244600080516020612bee83398151915261095f61164a565b61127b576040805162461bcd60e51b81526020600482015260036024820152622b2a1b60e91b604482015290519081900360640190fd5b6000611286836117d0565b509091505080156112a5576112a56001600160a01b0386168583611c61565b600083815260d760209081526040808320429081905560cd90925290912054116112e057600083815260d060205260409020805460ff191690555b604080516001600160a01b0380881682528616602082015280820183905242606082015290517fe66d51f31c8a9131ea2d5eeef8ef1bb6c991a682392cf84096e45f04933f57349181900360800190a1505060018055505050565b6000818152609760205260408120611022906122b1565b6000828152609760205260409020600201546113709061095f61164a565b610a165760405162461bcd60e51b8152600401808060200182810382526030815260200180612b4f6030913960400191505060405180910390fd5b60008080836113b957610e96565b610e8e846117d0565b60cb60209081526000928352604080842090915290825290205481565b600060026001541415611427576040805162461bcd60e51b815260206004820152601f6024820152600080516020612b09833981519152604482015290519081900360640190fd5b60026001556001600160a01b0389161580159061144c57506001600160a01b03881615155b801561145757508415155b801561146257508315155b611499576040805162461bcd60e51b81526020600482015260036024820152622b2a1960e91b604482015290519081900360640190fd5b6114a385856122bc565b905080896001600160a01b03166370a082318a6040518263ffffffff1660e01b815260040180826001600160a01b0316815260200191505060206040518083038186803b1580156114f357600080fd5b505afa158015611507573d6000803e3d6000fd5b505050506040513d602081101561151d57600080fd5b5051101561152a57600080fd5b61154761153561164a565b6001600160a01b038b1690308461164e565b60c980546001908101918290556001600160a01b03808c16600090815260ca60209081526040808320805490950190945560cb8152838220928d168252919091522081905561159f818a8a8a8a8a8a8a61080561164a565b7f8ab096c8e89db3c4e8214cdf5815512e3b8b066274966b6078000d5be951867f818b8b8b8b8b8b8b8b61083c61164a565b600080516020612bce83398151915281565b6000808211611639576040805162461bcd60e51b815260206004820152601a60248201527f536166654d6174683a206469766973696f6e206279207a65726f000000000000604482015290519081900360640190fd5b81838161164257fe5b049392505050565b3390565b604080516001600160a01b0380861660248301528416604482015260648082018490528251808303909101815260849091019091526020810180516001600160e01b03166323b872dd60e01b1790526116a8908590612315565b50505050565b600089815260d0602052604090205460ff16156116f8576040805162461bcd60e51b815260206004820152600360248201526256543160e81b604482015290519081900360640190fd5b600061172261171261170b8760016123c6565b86906122bc565b61171c8a8a612423565b90612423565b60009a8b5260cc60209081526040808d209a909a5560cd8152898c209190915560ce8152888b20979097555060cf865286892080546001600160a01b03199081166001600160a01b039a8b161790915560d08752878a20805460ff1990811660011790915560d18852888b209690965560d28752878a209490945560d386528689209290925560d5855285882080549094169015151790925560d69092529190932080549093169116179055565b600081815260d7602090815260408083205460ce83528184205460cc909352908320548392839291839182918291829161180991612423565b421161186d57600089815260d2602090815260408083205460d190925290912054611833916122bc565b60008a815260cd602052604090205461184c90426123c6565b60008b815260d2602052604090205491995097509550610e96945050505050565b600089815260cd6020526040902054851061188c575050505050610e96565b600089815260ce602090815260408083205460cc909252909120546118b091612423565b85106118bc57846118e0565b600089815260ce602090815260408083205460cc909252909120546118e091612423565b60008a815260cd602052604090205490935042116118fe574261190e565b600089815260cd60205260409020545b60008a815260cc6020526040902054909250851061192c578461193c565b600089815260cc60205260409020545b945061194882866123c6565b965061195482846123c6565b60008a815260d3602052604090205490915061197190829061247d565b9350600084116119a157600089815260d3602052604090205461199c9060019061171c9084906115e3565b6119c2565b600089815260d360205260409020546119c29060029061171c9084906115e3565b60008a815260d5602052604090205490965060ff1615611a585760008411611a0357600089815260d160205260409020546119fe9087906122bc565b611a51565b600089815260d16020526040902054611a5190611a2b90611a258960016123c6565b906122bc565b60008b815260d1602090815260408083205460d39092529091205461171c9188916124e4565b9750611a75565b600089815260d16020526040902054611a729087906122bc565b97505b50505050509193909250565b6000828152609760205260409020611a99908261259f565b156109a957611aa661164a565b6001600160a01b0316816001600160a01b0316837f2f8788117e7eff1d82e926ec794901d17c78024a50270940304540a733656f0d60405160405180910390a45050565b6000828152609760205260409020611b0290826125b4565b156109a957611b0f61164a565b6001600160a01b0316816001600160a01b0316837ff6391f5c32d9c69d2a47ea670b442974b53935d1edc7fd64eb21e047a839171b60405160405180910390a45050565b611b5b610e6e565b611ba3576040805162461bcd60e51b815260206004820152601460248201527314185d5cd8589b194e881b9bdd081c185d5cd95960621b604482015290519081900360640190fd5b6065805460ff191690557f5db9ee0a495bf2e6ff9c91a7834c1ba4fdd244a5e8aa4e537bd38aeae4b073aa611bd661164a565b604080516001600160a01b039092168252519081900360200190a1565b600081815260cd60205260408120544210611c3b576040805162461bcd60e51b815260206004820152600360248201526215950d60ea1b604482015290519081900360640190fd5b611c4482611eb9565b5050600092835260d06020526040909220805460ff191690555090565b604080516001600160a01b038416602482015260448082018490528251808303909101815260649091019091526020810180516001600160e01b031663a9059cbb60e01b179052610e57908490612315565b6000611cbe306125c9565b15905090565b600054610100900460ff1680611cdd5750611cdd611cb3565b80611ceb575060005460ff16155b611d265760405162461bcd60e51b815260040180806020018281038252602e815260200180612b7f602e913960400191505060405180910390fd5b600054610100900460ff16158015611d51576000805460ff1961ff0019909116610100171660011790555b611d596125cf565b8015611d6b576000805461ff00191690555b50565b600054610100900460ff1680611d875750611d87611cb3565b80611d95575060005460ff16155b611dd05760405162461bcd60e51b815260040180806020018281038252602e815260200180612b7f602e913960400191505060405180910390fd5b600054610100900460ff16158015611d59576000805460ff1961ff0019909116610100171660011790558015611d6b576000805461ff001916905550565b600054610100900460ff1680611e275750611e27611cb3565b80611e35575060005460ff16155b611e705760405162461bcd60e51b815260040180806020018281038252602e815260200180612b7f602e913960400191505060405180910390fd5b600054610100900460ff16158015611e9b576000805460ff1961ff0019909116610100171660011790555b6065805460ff191690558015611d6b576000805461ff001916905550565b600081815260d7602090815260408083205460ce83528184205460cc9093529083205483928392918391611eed9190612423565b8211611f4e57600086815260d2602090815260408083205460d190925290912054611f17916122bc565b600087815260cd6020526040902054611f3090846123c6565b600088815260d2602052604090205491965094509250610e96915050565b600086815260cd60205260409020548210611f6a575050610e96565b600086815260cd6020526040902054611f8390836123c6565b600087815260d36020526040902054909450611fa090859061247d565b905060008111611fc957600086815260d36020526040902054611fc49085906115e3565b611fea565b600086815260d36020526040902054611fea9060019061171c9087906115e3565b600087815260d5602052604090205490935060ff161561207a576000811161202b57600086815260d160205260409020546120269084906122bc565b612073565b600086815260d160205260409020546120739061204d90611a258660016123c6565b600088815260d1602090815260408083205460d39092529091205461171c9185916124e4565b9450612097565b600086815260d160205260409020546120949084906122bc565b94505b50509193909250565b6000808080808080808080808b6120b657611071565b60cc600060c95481526020019081526020016000205460cd600060c95481526020019081526020016000205460ce600060c95481526020019081526020016000205460cf600060c954815260200190815260200160002060009054906101000a90046001600160a01b031660d0600060c954815260200190815260200160002060009054906101000a900460ff1660d1600060c95481526020019081526020016000205460d2600060c95481526020019081526020016000205460d3600060c95481526020019081526020016000205460d4600060c95481526020019081526020016000205460d5600060c954815260200190815260200160002060009054906101000a900460ff1660d6600060c954815260200190815260200160002060009054906101000a90046001600160a01b03169a509a509a509a509a509a509a509a509a509a509a5091939597999b90929496989a50565b612215610e6e565b1561225a576040805162461bcd60e51b815260206004820152601060248201526f14185d5cd8589b194e881c185d5cd95960821b604482015290519081900360640190fd5b6065805460ff191660011790557f62e78cea01bee320cd4e420270b5ea74000d11b0c9f74754ebdbfc544b05a258611bd661164a565b600061101f8383612674565b600061101f836001600160a01b0384166126d8565b6000611022826126f0565b6000826122cb57506000611022565b828202828482816122d857fe5b041461101f5760405162461bcd60e51b8152600401808060200182810382526021815260200180612bad6021913960400191505060405180910390fd5b600061236a826040518060400160405280602081526020017f5361666545524332303a206c6f772d6c6576656c2063616c6c206661696c6564815250856001600160a01b03166126f49092919063ffffffff16565b805190915015610e575780806020019051602081101561238957600080fd5b5051610e575760405162461bcd60e51b815260040180806020018281038252602a815260200180612c0e602a913960400191505060405180910390fd5b60008282111561241d576040805162461bcd60e51b815260206004820152601e60248201527f536166654d6174683a207375627472616374696f6e206f766572666c6f770000604482015290519081900360640190fd5b50900390565b60008282018381101561101f576040805162461bcd60e51b815260206004820152601b60248201527f536166654d6174683a206164646974696f6e206f766572666c6f770000000000604482015290519081900360640190fd5b60008082116124d3576040805162461bcd60e51b815260206004820152601860248201527f536166654d6174683a206d6f64756c6f206279207a65726f0000000000000000604482015290519081900360640190fd5b8183816124dc57fe5b069392505050565b60008060006124f3868661270b565b915091506000848061250157fe5b868809905082811115612515576001820391505b9182900391816125335784838161252857fe5b049350505050612598565b848210612587576040805162461bcd60e51b815260206004820152601a60248201527f46756c6c4d6174683a2046554c4c4449565f4f564552464c4f57000000000000604482015290519081900360640190fd5b612592838387612738565b93505050505b9392505050565b600061101f836001600160a01b0384166127a8565b600061101f836001600160a01b0384166127f2565b3b151590565b600054610100900460ff16806125e857506125e8611cb3565b806125f6575060005460ff16155b6126315760405162461bcd60e51b815260040180806020018281038252602e815260200180612b7f602e913960400191505060405180910390fd5b600054610100900460ff1615801561265c576000805460ff1961ff0019909116610100171660011790555b600180558015611d6b576000805461ff001916905550565b815460009082106126b65760405162461bcd60e51b8152600401808060200182810382526022815260200180612ab86022913960400191505060405180910390fd5b8260000182815481106126c557fe5b9060005260206000200154905092915050565b60009081526001919091016020526040902054151590565b5490565b606061270384846000856128b8565b949350505050565b6000808060001984860990508385029250828103915082811015612730576001820391505b509250929050565b6000818103821680838161274857fe5b04925080858161275457fe5b04945080816000038161276357fe5b60028581038087028203028087028203028087028203028087028203028087028203028087028203029586029003909402930460010193909302939093010292915050565b60006127b483836126d8565b6127ea57508154600181810184556000848152602080822090930184905584548482528286019093526040902091909155611022565b506000611022565b600081815260018301602052604081205480156128ae578354600019808301919081019060009087908390811061282557fe5b906000526020600020015490508087600001848154811061284257fe5b60009182526020808320909101929092558281526001898101909252604090209084019055865487908061287257fe5b60019003818190600052602060002001600090559055866001016000878152602001908152602001600020600090556001945050505050611022565b6000915050611022565b6060824710156128f95760405162461bcd60e51b8152600401808060200182810382526026815260200180612b296026913960400191505060405180910390fd5b612902856125c9565b612953576040805162461bcd60e51b815260206004820152601d60248201527f416464726573733a2063616c6c20746f206e6f6e2d636f6e7472616374000000604482015290519081900360640190fd5b600080866001600160a01b031685876040518082805190602001908083835b602083106129915780518252601f199092019160209182019101612972565b6001836020036101000a03801982511681845116808217855250505050505090500191505060006040518083038185875af1925050503d80600081146129f3576040519150601f19603f3d011682016040523d82523d6000602084013e6129f8565b606091505b5091509150612a08828286612a13565b979650505050505050565b60608315612a22575081612598565b825115612a325782518084602001fd5b8160405162461bcd60e51b81526004018080602001828103825283818151815260200191508051906020019080838360005b83811015612a7c578181015183820152602001612a64565b50505050905090810190601f168015612aa95780820380516001836020036101000a031916815260200191505b509250505060405180910390fdfe456e756d657261626c655365743a20696e646578206f7574206f6620626f756e6473416363657373436f6e74726f6c3a2073656e646572206d75737420626520616e2061646d696e20746f206772616e745265656e7472616e637947756172643a207265656e7472616e742063616c6c00416464726573733a20696e73756666696369656e742062616c616e636520666f722063616c6c416363657373436f6e74726f6c3a2073656e646572206d75737420626520616e2061646d696e20746f207265766f6b65496e697469616c697a61626c653a20636f6e747261637420697320616c726561647920696e697469616c697a6564536166654d6174683a206d756c7469706c69636174696f6e206f766572666c6f7765d7a28e3265b37a6474929f336521b332c1681b933f6cb9f3376673440d862a6a7a39ad350f111635f4a31ec3e3e5ca2f76f78880b843ba3f8705d7d3ac3eb95361666545524332303a204552433230206f7065726174696f6e20646964206e6f74207375636365656456657374696e6754696d656c6f636b3a20556e617574686f72697a65642055736572416363657373436f6e74726f6c3a2063616e206f6e6c792072656e6f756e636520726f6c657320666f722073656c66a26469706673582212208ed0f288abff968b5bbfd7321e63287806359197110305597c16388788109f5264736f6c63430007060033",
  "immutableReferences": {},
  "source": "// SPDX-License-Identifier: Unlicensed\npragma solidity >=0.7.0;\n\nimport \"@openzeppelin/contracts-upgradeable/proxy/Initializable.sol\";\nimport \"@openzeppelin/contracts-upgradeable/math/SafeMathUpgradeable.sol\";\nimport \"@openzeppelin/contracts-upgradeable/proxy/Initializable.sol\";\nimport \"@openzeppelin/contracts-upgradeable/access/AccessControlUpgradeable.sol\";\nimport \"@openzeppelin/contracts-upgradeable/utils/PausableUpgradeable.sol\";\nimport \"@openzeppelin/contracts-upgradeable/utils/ReentrancyGuardUpgradeable.sol\";\nimport \"@openzeppelin/contracts-upgradeable/token/ERC20/SafeERC20Upgradeable.sol\";\nimport \"@openzeppelin/contracts-upgradeable/token/ERC20/IERC20Upgradeable.sol\";\nimport \"./libraries/FullMath.sol\";\nimport \"./interfaces/IVestingTimelockV2.sol\";\n\n/**\n * @dev A token holder contract that will allow a beneficiary to extract the\n * tokens after a given release time.\n * Supports multiple vesting strategies like Cliffed, Continuous, Stepped etc.\n */\ncontract VestingTimelockV2 is\n  Initializable,\n  IVestingTimelockV2,\n  ReentrancyGuardUpgradeable,\n  PausableUpgradeable,\n  AccessControlUpgradeable\n{\n  // Access Roles\n  bytes32 public constant PAUSER_ROLE = keccak256(\"PAUSER_ROLE\");\n  bytes32 public constant GRANT_ADMIN_ROLE = keccak256(\"GRANT_ADMIN_ROLE\");\n\n  // including libraries\n  using SafeERC20Upgradeable for IERC20Upgradeable;\n  using SafeMathUpgradeable for uint256;\n  using FullMath for uint256;\n\n  // Vesting grant identifier\n  uint256 _id;\n  mapping(address => uint256) public _grantCount;\n  mapping(address => mapping(address => uint256)) public _beneficiaryID;\n\n  // Vesting grant parameters mapped to grant ID\n  mapping(uint256 => uint256) _startTime;\n  mapping(uint256 => uint256) _endTime;\n  mapping(uint256 => uint256) _cliffTime;\n  mapping(uint256 => address) _beneficiary;\n  mapping(uint256 => bool) _isActive;\n  mapping(uint256 => uint256) _instalmentAmount;\n  mapping(uint256 => uint256) _instalmentCount;\n  mapping(uint256 => uint256) _instalmentPeriod;\n  mapping(uint256 => uint256) _amountReceived;\n  mapping(uint256 => bool) _isContinuousVesting;\n  mapping(uint256 => address) _grantManager;\n\n  // Last claimed timestamp mapped to grant ID\n  mapping(uint256 => uint256) public _lastClaimedTimestamp;\n\n  /**\n   * @dev Constructor for initializing the SToken contract.\n   */\n  function initialize(address pauserAddress_, address grantAdminAddress_)\n    public\n    virtual\n    initializer\n  {\n    __ReentrancyGuard_init();\n    __AccessControl_init_unchained();\n    __Pausable_init_unchained();\n    _setupRole(DEFAULT_ADMIN_ROLE, _msgSender());\n    _setupRole(PAUSER_ROLE, pauserAddress_);\n    _setupRole(GRANT_ADMIN_ROLE, grantAdminAddress_);\n  }\n\n  /**\n   * @notice Transfers tokens held by beneficiary to timelock.\n   */\n  function _getGrant(uint256 id_)\n    internal\n    view\n    returns (\n      uint256 startTime,\n      uint256 endTime,\n      uint256 cliffTime,\n      address beneficiary,\n      bool isActive,\n      uint256 instalmentAmount,\n      uint256 instalmentCount,\n      uint256 instalmentPeriod,\n      uint256 amountReceived,\n      bool isContinuousVesting,\n      address grantManager\n    )\n  {\n    if (id_ == 0) {\n      return (\n        startTime,\n        endTime,\n        cliffTime,\n        beneficiary,\n        isActive,\n        instalmentAmount,\n        instalmentCount,\n        instalmentPeriod,\n        amountReceived,\n        isContinuousVesting,\n        grantManager\n      );\n    }\n\n    return (\n      _startTime[_id],\n      _endTime[_id],\n      _cliffTime[_id],\n      _beneficiary[_id],\n      _isActive[_id],\n      _instalmentAmount[_id],\n      _instalmentCount[_id],\n      _instalmentPeriod[_id],\n      _amountReceived[_id],\n      _isContinuousVesting[_id],\n      _grantManager[_id]\n    );\n  }\n\n  /**\n   * @dev get the details of the vesting grant for a user\n   */\n  function getGrant(address token_, address beneficiary_)\n    public\n    view\n    virtual\n    override\n    returns (\n      uint256 startTime,\n      uint256 endTime,\n      uint256 cliffTime,\n      address beneficiary,\n      bool isActive,\n      uint256 instalmentAmount,\n      uint256 instalmentCount,\n      uint256 instalmentPeriod,\n      uint256 amountReceived,\n      bool isContinuousVesting,\n      address grantManager\n    )\n  {\n    if (token_ == address(0) || beneficiary_ == address(0)) {\n      return (\n        startTime,\n        endTime,\n        cliffTime,\n        beneficiary,\n        isActive,\n        instalmentAmount,\n        instalmentCount,\n        instalmentPeriod,\n        amountReceived,\n        isContinuousVesting,\n        grantManager\n      );\n    }\n    uint256 id = _beneficiaryID[token_][beneficiary_];\n    return _getGrant(id);\n  }\n\n  /**\n   * @dev get the details of the vesting grant for a user\n   */\n  function getGrantFromID(uint256 id_)\n    public\n    view\n    virtual\n    override\n    returns (\n      uint256 startTime,\n      uint256 endTime,\n      uint256 cliffTime,\n      address beneficiary,\n      bool isActive,\n      uint256 instalmentAmount,\n      uint256 instalmentCount,\n      uint256 instalmentPeriod,\n      uint256 amountReceived,\n      bool isContinuousVesting,\n      address grantManager\n    )\n  {\n    return _getGrant(id_);\n  }\n\n  /**\n   * @notice Transfers tokens held by beneficiary to timelock.\n   */\n  function _getPending(uint256 id_)\n    internal\n    view\n    returns (\n      uint256 pendingAmount,\n      uint256 pendingTime,\n      uint256 pendingInstalment\n    )\n  {\n    uint256 lastClaimedTimestamp = _lastClaimedTimestamp[id_];\n    uint256 instalmentPeriodRemainder;\n    uint256 lowerTimestamp;\n    uint256 higherTimestamp;\n    uint256 pendingVestingTime;\n\n    // if cliff time is not crossed by lastClaimedTimestamp, return the full amount and instalment count\n    if (block.timestamp <= _startTime[id_].add(_cliffTime[id_])) {\n      return (\n        _instalmentAmount[id_].mul(_instalmentCount[id_]),\n        _endTime[id_].sub(block.timestamp),\n        _instalmentCount[id_]\n      );\n    }\n\n    // if the last claimed timstamp has crossed the endTime, return zero\n    if (lastClaimedTimestamp >= _endTime[id_])\n      return (pendingAmount, pendingTime, pendingInstalment);\n\n    lowerTimestamp = (lastClaimedTimestamp <\n      _startTime[id_].add(_cliffTime[id_]))\n      ? _startTime[id_].add(_cliffTime[id_])\n      : lastClaimedTimestamp;\n\n    higherTimestamp = (block.timestamp > _endTime[id_])\n      ? _endTime[id_]\n      : block.timestamp;\n\n    lastClaimedTimestamp = (\n      lastClaimedTimestamp < _startTime[id_]\n        ? _startTime[id_]\n        : lastClaimedTimestamp\n    );\n\n    // calculate pending time between last claimed and current time\n    pendingTime = higherTimestamp.sub(lastClaimedTimestamp);\n    pendingVestingTime = higherTimestamp.sub(lowerTimestamp);\n\n    // calculate the pending time in the currently vesting instalment\n    instalmentPeriodRemainder = pendingVestingTime.mod(_instalmentPeriod[id_]);\n\n    // _instalmentPeriod[id_] zero condition need not be checked as it would come under already elapsed grant's end time\n    pendingInstalment = (instalmentPeriodRemainder > 0)\n      ? (pendingVestingTime.div(_instalmentPeriod[id_])).add(2)\n      : (pendingVestingTime.div(_instalmentPeriod[id_])).add(1);\n\n    // calculate pendingAmount as per vesting mode\n    if (_isContinuousVesting[id_]) {\n      pendingAmount = (instalmentPeriodRemainder > 0)\n        ? (\n          (\n            instalmentPeriodRemainder.mulDiv(\n              _instalmentAmount[id_],\n              _instalmentPeriod[id_]\n            )\n          ).add((pendingInstalment.sub(1)).mul(_instalmentAmount[id_]))\n        )\n        : (pendingInstalment.mul(_instalmentAmount[id_]));\n    } else {\n      pendingAmount = pendingInstalment.mul(_instalmentAmount[id_]);\n    }\n  }\n\n  /**\n   * @dev get the details of the vesting grant for a user\n   */\n  function getPending(address token_, address beneficiary_)\n    public\n    view\n    virtual\n    override\n    returns (\n      uint256 pendingAmount,\n      uint256 pendingTime,\n      uint256 pendingInstalment\n    )\n  {\n    if (token_ == address(0) || beneficiary_ == address(0))\n      return (pendingAmount, pendingTime, pendingInstalment);\n\n    uint256 id = _beneficiaryID[token_][beneficiary_];\n    (pendingAmount, pendingTime, pendingInstalment) = _getPending(id);\n  }\n\n  /**\n   * @dev get the details of the vesting grant for a user\n   */\n  function getPendingFromID(uint256 id_)\n    public\n    view\n    virtual\n    override\n    returns (\n      uint256 pendingAmount,\n      uint256 pendingTime,\n      uint256 pendingInstalment\n    )\n  {\n    if (id_ == 0) return (pendingAmount, pendingTime, pendingInstalment);\n    (pendingAmount, pendingTime, pendingInstalment) = _getPending(id_);\n  }\n\n  /**\n   * @notice Transfers tokens held by beneficiary to timelock.\n   */\n  function _getRemaining(uint256 id_)\n    internal\n    view\n    returns (\n      uint256 remainingAmount,\n      uint256 remainingTime,\n      uint256 remainingInstalment\n    )\n  {\n    uint256 lastClaimedTimestamp = _lastClaimedTimestamp[id_];\n    uint256 instalmentPeriodRemainder;\n\n    // if cliff time is not crossed by lastClaimedTimestamp, return the full amount and instalment count\n    if (lastClaimedTimestamp <= _startTime[id_].add(_cliffTime[id_])) {\n      return (\n        _instalmentAmount[id_].mul(_instalmentCount[id_]),\n        _endTime[id_].sub(lastClaimedTimestamp),\n        _instalmentCount[id_]\n      );\n    }\n\n    // if the last claimed timstamp has crossed the endTime, return zero\n    if (lastClaimedTimestamp >= _endTime[id_])\n      return (remainingAmount, remainingTime, remainingInstalment);\n\n    // if cliff time is crossed then calculate the remaining data by taking the ratio\n    remainingTime = _endTime[id_].sub(lastClaimedTimestamp);\n\n    // calculate the remaining time in the currently vesting instalment\n    instalmentPeriodRemainder = remainingTime.mod(_instalmentPeriod[id_]);\n\n    // _instalmentPeriod[id_] zero condition need not be checked as it would come under already elapsed grant's end time\n    remainingInstalment = (instalmentPeriodRemainder > 0)\n      ? (remainingTime.div(_instalmentPeriod[id_])).add(1)\n      : (remainingTime.div(_instalmentPeriod[id_]));\n\n    // calculate remainingAmount as per vesting mode\n    if (_isContinuousVesting[id_]) {\n      remainingAmount = (instalmentPeriodRemainder > 0)\n        ? (\n          (\n            instalmentPeriodRemainder.mulDiv(\n              _instalmentAmount[id_],\n              _instalmentPeriod[id_]\n            )\n          ).add((remainingInstalment.sub(1)).mul(_instalmentAmount[id_]))\n        )\n        : (remainingInstalment.mul(_instalmentAmount[id_]));\n    } else {\n      remainingAmount = remainingInstalment.mul(_instalmentAmount[id_]);\n    }\n  }\n\n  /**\n   * @dev get the details of the vesting grant for a user\n   */\n  function getRemaining(address token_, address beneficiary_)\n    public\n    view\n    virtual\n    override\n    returns (\n      uint256 remainingAmount,\n      uint256 remainingTime,\n      uint256 remainingInstalment\n    )\n  {\n    if (token_ == address(0) || beneficiary_ == address(0))\n      return (remainingAmount, remainingTime, remainingInstalment);\n\n    uint256 id = _beneficiaryID[token_][beneficiary_];\n    (remainingAmount, remainingTime, remainingInstalment) = _getRemaining(id);\n  }\n\n  /**\n   * @dev get the details of the vesting grant for a user\n   */\n  function getRemainingFromID(uint256 id_)\n    public\n    view\n    virtual\n    override\n    returns (\n      uint256 remainingAmount,\n      uint256 remainingTime,\n      uint256 remainingInstalment\n    )\n  {\n    if (id_ == 0) return (remainingAmount, remainingTime, remainingInstalment);\n    (remainingAmount, remainingTime, remainingInstalment) = _getRemaining(id_);\n  }\n\n  /**\n   * @notice Transfers tokens held by beneficiary to timelock.\n   */\n  function _addGrant(\n    uint256 id_,\n    address beneficiary_,\n    uint256 startTime_,\n    uint256 cliffTime_,\n    uint256 instalmentAmount_,\n    uint256 instalmentCount_,\n    uint256 instalmentPeriod_,\n    bool isContinuousVesting_,\n    address grantManager\n  ) internal {\n    // Require statement to check if grant is already active\n    require(!_isActive[id_], \"VT1\");\n    uint256 endTime = startTime_.add(cliffTime_).add(\n      instalmentPeriod_.mul(instalmentCount_.sub(1))\n    );\n\n    _startTime[id_] = startTime_;\n    _endTime[id_] = endTime;\n    _cliffTime[id_] = cliffTime_;\n    _beneficiary[id_] = beneficiary_;\n    _isActive[id_] = true;\n    _instalmentAmount[id_] = instalmentAmount_;\n    _instalmentCount[id_] = instalmentCount_;\n    _instalmentPeriod[id_] = instalmentPeriod_;\n    _isContinuousVesting[id_] = isContinuousVesting_;\n    _grantManager[id_] = grantManager;\n  }\n\n  /**\n   * @notice Transfers tokens held by beneficiary to timelock.\n   */\n  function addGrant(\n    address token_,\n    address beneficiary_,\n    uint256 startTime_,\n    uint256 cliffTime_,\n    uint256 totalAmount_,\n    uint256 instalmentCount_,\n    uint256 instalmentPeriod_,\n    bool isContinuousVesting_\n  ) public virtual override nonReentrant returns (uint256 instalmentAmount) {\n    // Require statements to for transaction sanity check\n    require(\n      token_ != address(0) &&\n        beneficiary_ != address(0) &&\n        totalAmount_ != 0 &&\n        instalmentCount_ != 0,\n      \"VT3\"\n    );\n\n    // check the calling address has suffecient tokens and then transfer tokens to this contract\n    instalmentAmount = totalAmount_.div(instalmentCount_);\n    require(IERC20Upgradeable(token_).balanceOf(beneficiary_) >= totalAmount_);\n    IERC20Upgradeable(token_).safeTransferFrom(\n      _msgSender(),\n      address(this),\n      totalAmount_\n    );\n\n    // generate a new id and allocate to the beneficiary\n    uint256 id = ++_id;\n    _grantCount[token_]++;\n    // add beneficiary to beneficiaryID\n    _beneficiaryID[token_][beneficiary_] = id;\n\n    _addGrant(\n      id,\n      beneficiary_,\n      startTime_,\n      cliffTime_,\n      instalmentAmount,\n      instalmentCount_,\n      instalmentPeriod_,\n      isContinuousVesting_,\n      _msgSender()\n    );\n\n    emit AddGrant(\n      id,\n      token_,\n      beneficiary_,\n      startTime_,\n      cliffTime_,\n      totalAmount_,\n      instalmentCount_,\n      instalmentPeriod_,\n      isContinuousVesting_,\n      _msgSender(),\n      block.timestamp\n    );\n  }\n\n  /**\n   * @notice Transfers tokens held by beneficiary to timelock.\n   */\n  function addGrantAsInstalment(\n    address token_,\n    address beneficiary_,\n    uint256 startTime_,\n    uint256 cliffTime_,\n    uint256 instalmentAmount_,\n    uint256 instalmentCount_,\n    uint256 instalmentPeriod_,\n    bool isContinuousVesting_\n  ) public virtual override nonReentrant returns (uint256 totalVestingAmount) {\n    // Require statements to for transaction sanity check\n    require(\n      token_ != address(0) &&\n        beneficiary_ != (address(0)) &&\n        instalmentAmount_ != 0 &&\n        instalmentCount_ != 0,\n      \"VT2\"\n    );\n\n    // check the calling address has suffecient tokens and then transfer tokens to this contract\n    totalVestingAmount = instalmentAmount_.mul(instalmentCount_);\n    require(\n      IERC20Upgradeable(token_).balanceOf(beneficiary_) >= totalVestingAmount\n    );\n    IERC20Upgradeable(token_).safeTransferFrom(\n      _msgSender(),\n      address(this),\n      totalVestingAmount\n    );\n\n    // generate a new id and allocate to the beneficiary\n    uint256 id = ++_id;\n    _grantCount[token_]++;\n    // add beneficiary to beneficiaryID\n    _beneficiaryID[token_][beneficiary_] = id;\n\n    _addGrant(\n      id,\n      beneficiary_,\n      startTime_,\n      cliffTime_,\n      instalmentAmount_,\n      instalmentCount_,\n      instalmentPeriod_,\n      isContinuousVesting_,\n      _msgSender()\n    );\n\n    emit AddGrantAsInstalment(\n      id,\n      token_,\n      beneficiary_,\n      startTime_,\n      cliffTime_,\n      instalmentAmount_,\n      instalmentCount_,\n      instalmentPeriod_,\n      isContinuousVesting_,\n      _msgSender(),\n      block.timestamp\n    );\n  }\n\n  /**\n   * @notice revokeGrant tokens held by timelock to beneficiary.\n   */\n  function _revokeGrant(uint256 id_)\n    internal\n    returns (uint256 remainingAmount)\n  {\n    // require the end date for grant to not have passed\n    require(_endTime[id_] > block.timestamp, \"VT4\");\n\n    (remainingAmount, , ) = _getRemaining(id_);\n    // deactivate the grant (keep other values intact)\n    _isActive[id_] = false;\n  }\n\n  /**\n   * @notice revokeGrant tokens held by timelock to beneficiary.\n   */\n  function revokeGrant(\n    address token_,\n    address beneficiary_,\n    address grantManager_\n  ) public virtual override nonReentrant returns (uint256 remainingAmount) {\n    // require beneficiary not be address(0)\n    require(\n      token_ != address(0) &&\n        beneficiary_ != (address(0)) &&\n        grantManager_ != address(0),\n      \"VT5\"\n    );\n\n    // Grant can be revoked by the beneficiary, grant manager or GRANT ADMIN defined in the contract\n    require(\n      _msgSender() == beneficiary_ ||\n        _msgSender() == grantManager_ ||\n        hasRole(GRANT_ADMIN_ROLE, _msgSender()),\n      \"VT6\"\n    );\n\n    // get the ID and delete corresponding _beneficiaryID value\n    uint256 id = _beneficiaryID[token_][beneficiary_];\n    require(id != 0, \"VT7\");\n\n    // find the remaining amount after revoke and transfer it back to the grant manager\n    remainingAmount = _revokeGrant(id);\n    assert(\n      remainingAmount <= IERC20Upgradeable(token_).balanceOf(address(this))\n    );\n\n    if (remainingAmount > 0) {\n      delete _beneficiaryID[token_][beneficiary_];\n      IERC20Upgradeable(token_).safeTransfer(grantManager_, remainingAmount);\n    }\n\n    // emit an event for record\n    emit RevokeGrant(\n      token_,\n      beneficiary_,\n      grantManager_,\n      remainingAmount,\n      block.timestamp\n    );\n  }\n\n  /**\n   * @notice Transfers tokens held by timelock to beneficiary.\n   */\n  function claimGrant(address token_, address beneficiary_)\n    external\n    virtual\n    override\n    nonReentrant\n    whenNotPaused\n  {\n    // require beneficiary not be address(0)\n    require(token_ != address(0) && beneficiary_ != (address(0)), \"VT5\");\n\n    // get the ID and grant manager from the grant data\n    uint256 id = _beneficiaryID[token_][beneficiary_];\n    require(id != 0, \"VT7\");\n    address grantManager = _grantManager[id];\n\n    // Grant can be revoked by the beneficiary, grant manager or GRANT ADMIN defined in the contract\n    require(\n      _msgSender() == beneficiary_ ||\n        _msgSender() == grantManager ||\n        hasRole(GRANT_ADMIN_ROLE, _msgSender()),\n      \"VT6\"\n    );\n\n    // get the pending amount to be credited to beneficiary\n    (uint256 pendingAmount, , ) = _getPending(id);\n\n    if (pendingAmount > 0) {\n      IERC20Upgradeable(token_).safeTransfer(beneficiary_, pendingAmount);\n    }\n\n    // set last claimed for the grant to current time\n    _lastClaimedTimestamp[id] = block.timestamp;\n\n    // if all the vesting amount has been claimed, then deactivate grant\n    if (block.timestamp >= _endTime[id]) {\n      _isActive[id] = false;\n    }\n\n    emit ClaimGrant(token_, beneficiary_, pendingAmount, block.timestamp);\n  }\n\n  /**\n   * @dev Triggers stopped state.\n   *\n   * Requirements:\n   *\n   * - The contract must not be paused.\n   */\n  function pause() public virtual override returns (bool success) {\n    require(\n      hasRole(PAUSER_ROLE, _msgSender()),\n      \"VestingTimelock: Unauthorized User\"\n    );\n    _pause();\n    return true;\n  }\n\n  /**\n   * @dev Returns to normal state.\n   *\n   * Requirements:\n   *\n   * - The contract must be paused.\n   */\n  function unpause() public virtual override returns (bool success) {\n    require(\n      hasRole(PAUSER_ROLE, _msgSender()),\n      \"VestingTimelock: Unauthorized User\"\n    );\n    _unpause();\n    return true;\n  }\n}\n",
  "sourcePath": "C:\\Users\\Kamlesh\\Persistence\\pStake\\codebase\\erc20\\contracts\\VestingTimelockV2.sol",
  "compiler": {
    "name": "solc",
    "version": "0.7.6+commit.7338295f.Emscripten.clang"
  },
  "schemaVersion": "3.4.3",
  "updatedAt": "2021-11-02T04:06:09.517Z",
  "devdoc": {
    "details": "A token holder contract that will allow a beneficiary to extract the tokens after a given release time. Supports multiple vesting strategies like Cliffed, Continuous, Stepped etc.",
    "kind": "dev",
    "methods": {
      "getGrant(address,address)": {
        "details": "get the details of the vesting grant for a user"
      },
      "getGrantFromID(uint256)": {
        "details": "get the details of the vesting grant for a user"
      },
      "getPending(address,address)": {
        "details": "get the details of the vesting grant for a user"
      },
      "getPendingFromID(uint256)": {
        "details": "get the details of the vesting grant for a user"
      },
      "getRemaining(address,address)": {
        "details": "get the details of the vesting grant for a user"
      },
      "getRemainingFromID(uint256)": {
        "details": "get the details of the vesting grant for a user"
      },
      "getRoleAdmin(bytes32)": {
        "details": "Returns the admin role that controls `role`. See {grantRole} and {revokeRole}. To change a role's admin, use {_setRoleAdmin}."
      },
      "getRoleMember(bytes32,uint256)": {
        "details": "Returns one of the accounts that have `role`. `index` must be a value between 0 and {getRoleMemberCount}, non-inclusive. Role bearers are not sorted in any particular way, and their ordering may change at any point. WARNING: When using {getRoleMember} and {getRoleMemberCount}, make sure you perform all queries on the same block. See the following https://forum.openzeppelin.com/t/iterating-over-elements-on-enumerableset-in-openzeppelin-contracts/2296[forum post] for more information."
      },
      "getRoleMemberCount(bytes32)": {
        "details": "Returns the number of accounts that have `role`. Can be used together with {getRoleMember} to enumerate all bearers of a role."
      },
      "grantRole(bytes32,address)": {
        "details": "Grants `role` to `account`. If `account` had not been already granted `role`, emits a {RoleGranted} event. Requirements: - the caller must have ``role``'s admin role."
      },
      "hasRole(bytes32,address)": {
        "details": "Returns `true` if `account` has been granted `role`."
      },
      "initialize(address,address)": {
        "details": "Constructor for initializing the SToken contract."
      },
      "pause()": {
        "details": "Triggers stopped state. Requirements: - The contract must not be paused."
      },
      "paused()": {
        "details": "Returns true if the contract is paused, and false otherwise."
      },
      "renounceRole(bytes32,address)": {
        "details": "Revokes `role` from the calling account. Roles are often managed via {grantRole} and {revokeRole}: this function's purpose is to provide a mechanism for accounts to lose their privileges if they are compromised (such as when a trusted device is misplaced). If the calling account had been granted `role`, emits a {RoleRevoked} event. Requirements: - the caller must be `account`."
      },
      "revokeRole(bytes32,address)": {
        "details": "Revokes `role` from `account`. If `account` had been granted `role`, emits a {RoleRevoked} event. Requirements: - the caller must have ``role``'s admin role."
      },
      "unpause()": {
        "details": "Returns to normal state. Requirements: - The contract must be paused."
      }
    },
    "version": 1
  },
  "userdoc": {
    "kind": "user",
    "methods": {
      "addGrant(address,address,uint256,uint256,uint256,uint256,uint256,bool)": {
        "notice": "Transfers tokens held by beneficiary to timelock."
      },
      "addGrantAsInstalment(address,address,uint256,uint256,uint256,uint256,uint256,bool)": {
        "notice": "Transfers tokens held by beneficiary to timelock."
      },
      "claimGrant(address,address)": {
        "notice": "Transfers tokens held by timelock to beneficiary."
      },
      "revokeGrant(address,address,address)": {
        "notice": "revokeGrant tokens held by timelock to beneficiary."
      }
    },
    "version": 1
  }
}