{
  "contractName": "VestingTimelockV2",
  "abi": [
    {
      "anonymous": false,
      "inputs": [
        {
          "indexed": false,
          "internalType": "uint256",
          "name": "id",
          "type": "uint256"
        },
        {
          "indexed": false,
          "internalType": "address",
          "name": "token",
          "type": "address"
        },
        {
          "indexed": false,
          "internalType": "address",
          "name": "accountAddress",
          "type": "address"
        },
        {
          "indexed": false,
          "internalType": "uint256",
          "name": "startTime",
          "type": "uint256"
        },
        {
          "indexed": false,
          "internalType": "uint256",
          "name": "cliffTime",
          "type": "uint256"
        },
        {
          "indexed": false,
          "internalType": "uint256",
          "name": "tokens",
          "type": "uint256"
        },
        {
          "indexed": false,
          "internalType": "uint256",
          "name": "instalmentCount",
          "type": "uint256"
        },
        {
          "indexed": false,
          "internalType": "uint256",
          "name": "instalmentPeriod",
          "type": "uint256"
        },
        {
          "indexed": false,
          "internalType": "bool",
          "name": "isContinuousVesting",
          "type": "bool"
        },
        {
          "indexed": false,
          "internalType": "address",
          "name": "grantManager",
          "type": "address"
        },
        {
          "indexed": false,
          "internalType": "uint256",
          "name": "timestamp",
          "type": "uint256"
        }
      ],
      "name": "AddGrant",
      "type": "event"
    },
    {
      "anonymous": false,
      "inputs": [
        {
          "indexed": false,
          "internalType": "uint256",
          "name": "id",
          "type": "uint256"
        },
        {
          "indexed": false,
          "internalType": "address",
          "name": "token",
          "type": "address"
        },
        {
          "indexed": false,
          "internalType": "address",
          "name": "accountAddress",
          "type": "address"
        },
        {
          "indexed": false,
          "internalType": "uint256",
          "name": "startTime",
          "type": "uint256"
        },
        {
          "indexed": false,
          "internalType": "uint256",
          "name": "cliffTime",
          "type": "uint256"
        },
        {
          "indexed": false,
          "internalType": "uint256",
          "name": "tokens",
          "type": "uint256"
        },
        {
          "indexed": false,
          "internalType": "uint256",
          "name": "instalmentCount",
          "type": "uint256"
        },
        {
          "indexed": false,
          "internalType": "uint256",
          "name": "instalmentPeriod",
          "type": "uint256"
        },
        {
          "indexed": false,
          "internalType": "bool",
          "name": "isContinuousVesting",
          "type": "bool"
        },
        {
          "indexed": false,
          "internalType": "address",
          "name": "grantManager",
          "type": "address"
        },
        {
          "indexed": false,
          "internalType": "uint256",
          "name": "timestamp",
          "type": "uint256"
        }
      ],
      "name": "AddGrantAsInstalment",
      "type": "event"
    },
    {
      "anonymous": false,
      "inputs": [
        {
          "indexed": false,
          "internalType": "address",
          "name": "token",
          "type": "address"
        },
        {
          "indexed": false,
          "internalType": "address",
          "name": "accountAddress",
          "type": "address"
        },
        {
          "indexed": false,
          "internalType": "uint256",
          "name": "tokens",
          "type": "uint256"
        },
        {
          "indexed": false,
          "internalType": "uint256",
          "name": "timestamp",
          "type": "uint256"
        }
      ],
      "name": "ClaimGrant",
      "type": "event"
    },
    {
      "anonymous": false,
      "inputs": [
        {
          "indexed": false,
          "internalType": "address",
          "name": "account",
          "type": "address"
        }
      ],
      "name": "Paused",
      "type": "event"
    },
    {
      "anonymous": false,
      "inputs": [
        {
          "indexed": false,
          "internalType": "address",
          "name": "token",
          "type": "address"
        },
        {
          "indexed": false,
          "internalType": "address",
          "name": "accountAddress",
          "type": "address"
        },
        {
          "indexed": false,
          "internalType": "address",
          "name": "grantManager",
          "type": "address"
        },
        {
          "indexed": false,
          "internalType": "uint256",
          "name": "tokens",
          "type": "uint256"
        },
        {
          "indexed": false,
          "internalType": "uint256",
          "name": "timestamp",
          "type": "uint256"
        }
      ],
      "name": "RevokeGrant",
      "type": "event"
    },
    {
      "anonymous": false,
      "inputs": [
        {
          "indexed": true,
          "internalType": "bytes32",
          "name": "role",
          "type": "bytes32"
        },
        {
          "indexed": true,
          "internalType": "bytes32",
          "name": "previousAdminRole",
          "type": "bytes32"
        },
        {
          "indexed": true,
          "internalType": "bytes32",
          "name": "newAdminRole",
          "type": "bytes32"
        }
      ],
      "name": "RoleAdminChanged",
      "type": "event"
    },
    {
      "anonymous": false,
      "inputs": [
        {
          "indexed": true,
          "internalType": "bytes32",
          "name": "role",
          "type": "bytes32"
        },
        {
          "indexed": true,
          "internalType": "address",
          "name": "account",
          "type": "address"
        },
        {
          "indexed": true,
          "internalType": "address",
          "name": "sender",
          "type": "address"
        }
      ],
      "name": "RoleGranted",
      "type": "event"
    },
    {
      "anonymous": false,
      "inputs": [
        {
          "indexed": true,
          "internalType": "bytes32",
          "name": "role",
          "type": "bytes32"
        },
        {
          "indexed": true,
          "internalType": "address",
          "name": "account",
          "type": "address"
        },
        {
          "indexed": true,
          "internalType": "address",
          "name": "sender",
          "type": "address"
        }
      ],
      "name": "RoleRevoked",
      "type": "event"
    },
    {
      "anonymous": false,
      "inputs": [
        {
          "indexed": false,
          "internalType": "address",
          "name": "account",
          "type": "address"
        }
      ],
      "name": "Unpaused",
      "type": "event"
    },
    {
      "inputs": [],
      "name": "DEFAULT_ADMIN_ROLE",
      "outputs": [
        {
          "internalType": "bytes32",
          "name": "",
          "type": "bytes32"
        }
      ],
      "stateMutability": "view",
      "type": "function"
    },
    {
      "inputs": [],
      "name": "GRANT_ADMIN_ROLE",
      "outputs": [
        {
          "internalType": "bytes32",
          "name": "",
          "type": "bytes32"
        }
      ],
      "stateMutability": "view",
      "type": "function"
    },
    {
      "inputs": [],
      "name": "PAUSER_ROLE",
      "outputs": [
        {
          "internalType": "bytes32",
          "name": "",
          "type": "bytes32"
        }
      ],
      "stateMutability": "view",
      "type": "function"
    },
    {
      "inputs": [
        {
          "internalType": "address",
          "name": "",
          "type": "address"
        },
        {
          "internalType": "address",
          "name": "",
          "type": "address"
        }
      ],
      "name": "_beneficiaryID",
      "outputs": [
        {
          "internalType": "uint256",
          "name": "",
          "type": "uint256"
        }
      ],
      "stateMutability": "view",
      "type": "function"
    },
    {
      "inputs": [
        {
          "internalType": "address",
          "name": "",
          "type": "address"
        }
      ],
      "name": "_grantCount",
      "outputs": [
        {
          "internalType": "uint256",
          "name": "",
          "type": "uint256"
        }
      ],
      "stateMutability": "view",
      "type": "function"
    },
    {
      "inputs": [],
      "name": "_id",
      "outputs": [
        {
          "internalType": "uint256",
          "name": "",
          "type": "uint256"
        }
      ],
      "stateMutability": "view",
      "type": "function"
    },
    {
      "inputs": [
        {
          "internalType": "uint256",
          "name": "",
          "type": "uint256"
        }
      ],
      "name": "_lastClaimedTimestamp",
      "outputs": [
        {
          "internalType": "uint256",
          "name": "",
          "type": "uint256"
        }
      ],
      "stateMutability": "view",
      "type": "function"
    },
    {
      "inputs": [],
      "name": "_version",
      "outputs": [
        {
          "internalType": "uint256",
          "name": "",
          "type": "uint256"
        }
      ],
      "stateMutability": "view",
      "type": "function"
    },
    {
      "inputs": [
        {
          "internalType": "bytes32",
          "name": "role",
          "type": "bytes32"
        }
      ],
      "name": "getRoleAdmin",
      "outputs": [
        {
          "internalType": "bytes32",
          "name": "",
          "type": "bytes32"
        }
      ],
      "stateMutability": "view",
      "type": "function"
    },
    {
      "inputs": [
        {
          "internalType": "bytes32",
          "name": "role",
          "type": "bytes32"
        },
        {
          "internalType": "uint256",
          "name": "index",
          "type": "uint256"
        }
      ],
      "name": "getRoleMember",
      "outputs": [
        {
          "internalType": "address",
          "name": "",
          "type": "address"
        }
      ],
      "stateMutability": "view",
      "type": "function"
    },
    {
      "inputs": [
        {
          "internalType": "bytes32",
          "name": "role",
          "type": "bytes32"
        }
      ],
      "name": "getRoleMemberCount",
      "outputs": [
        {
          "internalType": "uint256",
          "name": "",
          "type": "uint256"
        }
      ],
      "stateMutability": "view",
      "type": "function"
    },
    {
      "inputs": [
        {
          "internalType": "bytes32",
          "name": "role",
          "type": "bytes32"
        },
        {
          "internalType": "address",
          "name": "account",
          "type": "address"
        }
      ],
      "name": "grantRole",
      "outputs": [],
      "stateMutability": "nonpayable",
      "type": "function"
    },
    {
      "inputs": [
        {
          "internalType": "bytes32",
          "name": "role",
          "type": "bytes32"
        },
        {
          "internalType": "address",
          "name": "account",
          "type": "address"
        }
      ],
      "name": "hasRole",
      "outputs": [
        {
          "internalType": "bool",
          "name": "",
          "type": "bool"
        }
      ],
      "stateMutability": "view",
      "type": "function"
    },
    {
      "inputs": [],
      "name": "paused",
      "outputs": [
        {
          "internalType": "bool",
          "name": "",
          "type": "bool"
        }
      ],
      "stateMutability": "view",
      "type": "function"
    },
    {
      "inputs": [
        {
          "internalType": "bytes32",
          "name": "role",
          "type": "bytes32"
        },
        {
          "internalType": "address",
          "name": "account",
          "type": "address"
        }
      ],
      "name": "renounceRole",
      "outputs": [],
      "stateMutability": "nonpayable",
      "type": "function"
    },
    {
      "inputs": [
        {
          "internalType": "bytes32",
          "name": "role",
          "type": "bytes32"
        },
        {
          "internalType": "address",
          "name": "account",
          "type": "address"
        }
      ],
      "name": "revokeRole",
      "outputs": [],
      "stateMutability": "nonpayable",
      "type": "function"
    },
    {
      "inputs": [
        {
          "internalType": "address",
          "name": "pauserAddress_",
          "type": "address"
        },
        {
          "internalType": "address",
          "name": "grantAdminAddress_",
          "type": "address"
        }
      ],
      "name": "initialize",
      "outputs": [],
      "stateMutability": "nonpayable",
      "type": "function"
    },
    {
      "inputs": [
        {
          "internalType": "address",
          "name": "token_",
          "type": "address"
        },
        {
          "internalType": "address",
          "name": "beneficiary_",
          "type": "address"
        }
      ],
      "name": "getGrant",
      "outputs": [
        {
          "internalType": "uint256",
          "name": "startTime",
          "type": "uint256"
        },
        {
          "internalType": "uint256",
          "name": "endTime",
          "type": "uint256"
        },
        {
          "internalType": "uint256",
          "name": "cliffTime",
          "type": "uint256"
        },
        {
          "internalType": "address",
          "name": "beneficiary",
          "type": "address"
        },
        {
          "internalType": "bool",
          "name": "isActive",
          "type": "bool"
        },
        {
          "internalType": "uint256",
          "name": "instalmentAmount",
          "type": "uint256"
        },
        {
          "internalType": "uint256",
          "name": "instalmentCount",
          "type": "uint256"
        },
        {
          "internalType": "uint256",
          "name": "instalmentPeriod",
          "type": "uint256"
        },
        {
          "internalType": "uint256",
          "name": "amountReceived",
          "type": "uint256"
        },
        {
          "internalType": "bool",
          "name": "isContinuousVesting",
          "type": "bool"
        },
        {
          "internalType": "address",
          "name": "grantManager",
          "type": "address"
        }
      ],
      "stateMutability": "view",
      "type": "function"
    },
    {
      "inputs": [
        {
          "internalType": "uint256",
          "name": "id_",
          "type": "uint256"
        }
      ],
      "name": "getGrantFromID",
      "outputs": [
        {
          "internalType": "uint256",
          "name": "startTime",
          "type": "uint256"
        },
        {
          "internalType": "uint256",
          "name": "endTime",
          "type": "uint256"
        },
        {
          "internalType": "uint256",
          "name": "cliffTime",
          "type": "uint256"
        },
        {
          "internalType": "address",
          "name": "beneficiary",
          "type": "address"
        },
        {
          "internalType": "bool",
          "name": "isActive",
          "type": "bool"
        },
        {
          "internalType": "uint256",
          "name": "instalmentAmount",
          "type": "uint256"
        },
        {
          "internalType": "uint256",
          "name": "instalmentCount",
          "type": "uint256"
        },
        {
          "internalType": "uint256",
          "name": "instalmentPeriod",
          "type": "uint256"
        },
        {
          "internalType": "uint256",
          "name": "amountReceived",
          "type": "uint256"
        },
        {
          "internalType": "bool",
          "name": "isContinuousVesting",
          "type": "bool"
        },
        {
          "internalType": "address",
          "name": "grantManager",
          "type": "address"
        }
      ],
      "stateMutability": "view",
      "type": "function"
    },
    {
      "inputs": [
        {
          "internalType": "address",
          "name": "token_",
          "type": "address"
        },
        {
          "internalType": "address",
          "name": "beneficiary_",
          "type": "address"
        }
      ],
      "name": "getPending",
      "outputs": [
        {
          "internalType": "uint256",
          "name": "pendingAmount",
          "type": "uint256"
        },
        {
          "internalType": "uint256",
          "name": "pendingTime",
          "type": "uint256"
        },
        {
          "internalType": "uint256",
          "name": "pendingInstalment",
          "type": "uint256"
        }
      ],
      "stateMutability": "view",
      "type": "function"
    },
    {
      "inputs": [
        {
          "internalType": "uint256",
          "name": "id_",
          "type": "uint256"
        }
      ],
      "name": "getPendingFromID",
      "outputs": [
        {
          "internalType": "uint256",
          "name": "pendingAmount",
          "type": "uint256"
        },
        {
          "internalType": "uint256",
          "name": "pendingTime",
          "type": "uint256"
        },
        {
          "internalType": "uint256",
          "name": "pendingInstalment",
          "type": "uint256"
        }
      ],
      "stateMutability": "view",
      "type": "function"
    },
    {
      "inputs": [
        {
          "internalType": "address",
          "name": "token_",
          "type": "address"
        },
        {
          "internalType": "address",
          "name": "beneficiary_",
          "type": "address"
        }
      ],
      "name": "getRemaining",
      "outputs": [
        {
          "internalType": "uint256",
          "name": "remainingAmount",
          "type": "uint256"
        },
        {
          "internalType": "uint256",
          "name": "remainingTime",
          "type": "uint256"
        },
        {
          "internalType": "uint256",
          "name": "remainingInstalment",
          "type": "uint256"
        }
      ],
      "stateMutability": "view",
      "type": "function"
    },
    {
      "inputs": [
        {
          "internalType": "uint256",
          "name": "id_",
          "type": "uint256"
        }
      ],
      "name": "getRemainingFromID",
      "outputs": [
        {
          "internalType": "uint256",
          "name": "remainingAmount",
          "type": "uint256"
        },
        {
          "internalType": "uint256",
          "name": "remainingTime",
          "type": "uint256"
        },
        {
          "internalType": "uint256",
          "name": "remainingInstalment",
          "type": "uint256"
        }
      ],
      "stateMutability": "view",
      "type": "function"
    },
    {
      "inputs": [
        {
          "internalType": "address",
          "name": "token_",
          "type": "address"
        },
        {
          "internalType": "address",
          "name": "beneficiary_",
          "type": "address"
        },
        {
          "internalType": "uint256",
          "name": "startTime_",
          "type": "uint256"
        },
        {
          "internalType": "uint256",
          "name": "cliffPeriod_",
          "type": "uint256"
        },
        {
          "internalType": "uint256",
          "name": "totalAmount_",
          "type": "uint256"
        },
        {
          "internalType": "uint256",
          "name": "instalmentCount_",
          "type": "uint256"
        },
        {
          "internalType": "uint256",
          "name": "instalmentPeriod_",
          "type": "uint256"
        },
        {
          "internalType": "bool",
          "name": "isContinuousVesting_",
          "type": "bool"
        }
      ],
      "name": "addGrant",
      "outputs": [
        {
          "internalType": "uint256",
          "name": "instalmentAmount",
          "type": "uint256"
        }
      ],
      "stateMutability": "nonpayable",
      "type": "function"
    },
    {
      "inputs": [
        {
          "internalType": "address",
          "name": "token_",
          "type": "address"
        },
        {
          "internalType": "address",
          "name": "beneficiary_",
          "type": "address"
        },
        {
          "internalType": "uint256",
          "name": "startTime_",
          "type": "uint256"
        },
        {
          "internalType": "uint256",
          "name": "cliffPeriod_",
          "type": "uint256"
        },
        {
          "internalType": "uint256",
          "name": "instalmentAmount_",
          "type": "uint256"
        },
        {
          "internalType": "uint256",
          "name": "instalmentCount_",
          "type": "uint256"
        },
        {
          "internalType": "uint256",
          "name": "instalmentPeriod_",
          "type": "uint256"
        },
        {
          "internalType": "bool",
          "name": "isContinuousVesting_",
          "type": "bool"
        }
      ],
      "name": "addGrantAsInstalment",
      "outputs": [
        {
          "internalType": "uint256",
          "name": "totalVestingAmount",
          "type": "uint256"
        }
      ],
      "stateMutability": "nonpayable",
      "type": "function"
    },
    {
      "inputs": [
        {
          "internalType": "address",
          "name": "token_",
          "type": "address"
        },
        {
          "internalType": "address",
          "name": "beneficiary_",
          "type": "address"
        },
        {
          "internalType": "address",
          "name": "grantManager_",
          "type": "address"
        }
      ],
      "name": "revokeGrant",
      "outputs": [
        {
          "internalType": "uint256",
          "name": "remainingAmount",
          "type": "uint256"
        }
      ],
      "stateMutability": "nonpayable",
      "type": "function"
    },
    {
      "inputs": [
        {
          "internalType": "address",
          "name": "token_",
          "type": "address"
        },
        {
          "internalType": "address",
          "name": "beneficiary_",
          "type": "address"
        }
      ],
      "name": "claimGrant",
      "outputs": [],
      "stateMutability": "nonpayable",
      "type": "function"
    },
    {
      "inputs": [],
      "name": "pause",
      "outputs": [
        {
          "internalType": "bool",
          "name": "success",
          "type": "bool"
        }
      ],
      "stateMutability": "nonpayable",
      "type": "function"
    },
    {
      "inputs": [],
      "name": "unpause",
      "outputs": [
        {
          "internalType": "bool",
          "name": "success",
          "type": "bool"
        }
      ],
      "stateMutability": "nonpayable",
      "type": "function"
    }
  ],
  "bytecode": "0x608060405234801561001057600080fd5b50612efc806100206000396000f3fe608060405234801561001057600080fd5b50600436106101cf5760003560e01c80636ad1ee3d11610104578063a217fddf116100a2578063d6003d9e11610071578063d6003d9e146105d1578063d7a6dbe3146105ee578063dc7651111461061c578063e63ab1e914610673576101cf565b8063a217fddf14610552578063b41588441461055a578063ca15c87314610588578063d547741f146105a5576101cf565b806388984a0d116100de57806388984a0d1461049c5780639010d07c146104ca57806391d14854146105095780639f08f86914610535576101cf565b80636ad1ee3d146103e55780636d1319eb146104025780638456cb5914610494576101cf565b806336568abe11610171578063417cbd911161014b578063417cbd9114610351578063485cc955146103895780635138b2b7146103b75780635c975abb146103dd576101cf565b806336568abe146103015780633e118dbe1461032d5780633f4ba83a14610335576101cf565b8063248a9ca3116101ad578063248a9ca3146102915780632c0acd2c146102ae5780632f2ff15d146102b65780632fdd100a146102e4576101cf565b806305180237146101d45780630bf5bff7146101ee57806314820f2f14610245575b600080fd5b6101dc61067b565b60408051918252519081900360200190f35b6101dc600480360361010081101561020557600080fd5b506001600160a01b03813581169160208101359091169060408101359060608101359060808101359060a08101359060c08101359060e001351515610681565b6102736004803603604081101561025b57600080fd5b506001600160a01b0381358116916020013516610924565b60408051938452602084019290925282820152519081900360600190f35b6101dc600480360360208110156102a757600080fd5b503561098e565b6101dc6109a3565b6102e2600480360360408110156102cc57600080fd5b50803590602001356001600160a01b03166109b5565b005b6101dc600480360360208110156102fa57600080fd5b5035610a21565b6102e26004803603604081101561031757600080fd5b50803590602001356001600160a01b0316610a33565b6101dc610a94565b61033d610a9a565b604080519115158252519081900360200190f35b6101dc6004803603606081101561036757600080fd5b506001600160a01b038135811691602081013582169160409091013516610aff565b6102e26004803603604081101561039f57600080fd5b506001600160a01b0381358116916020013516610db6565b6101dc600480360360208110156103cd57600080fd5b50356001600160a01b0316610eb4565b61033d610ec6565b610273600480360360208110156103fb57600080fd5b5035610ecf565b6104306004803603604081101561041857600080fd5b506001600160a01b0381358116916020013516610ef5565b604080519b8c5260208c019a909a528a8a01989098526001600160a01b0396871660608b015294151560808a015260a089019390935260c088019190915260e087015261010086015215156101208501521661014083015251908190036101600190f35b61033d610fa6565b610273600480360360408110156104b257600080fd5b506001600160a01b0381358116916020013516611005565b6104ed600480360360408110156104e057600080fd5b508035906020013561105f565b604080516001600160a01b039092168252519081900360200190f35b61033d6004803603604081101561051f57600080fd5b50803590602001356001600160a01b0316611080565b6104306004803603602081101561054b57600080fd5b5035611098565b6101dc6110d8565b6102e26004803603604081101561057057600080fd5b506001600160a01b03813581169160200135166110dd565b6101dc6004803603602081101561059e57600080fd5b503561143f565b6102e2600480360360408110156105bb57600080fd5b50803590602001356001600160a01b0316611456565b610273600480360360208110156105e757600080fd5b50356114af565b6101dc6004803603604081101561060457600080fd5b506001600160a01b03813581169160200135166114c6565b6101dc600480360361010081101561063357600080fd5b506001600160a01b03813581169160208101359091169060408101359060608101359060808101359060a08101359060c08101359060e0013515156114e3565b6101dc61170d565b60ca5481565b6000600260015414156106c9576040805162461bcd60e51b815260206004820152601f6024820152600080516020612d47833981519152604482015290519081900360640190fd5b60026001556001600160a01b038916158015906106ee57506001600160a01b03881615155b80156106f957508415155b801561070457508315155b61073b576040805162461bcd60e51b81526020600482015260036024820152622b2a1960e91b604482015290519081900360640190fd5b610745858561171f565b905084896001600160a01b03166370a0823161075f611786565b6040518263ffffffff1660e01b815260040180826001600160a01b0316815260200191505060206040518083038186803b15801561079c57600080fd5b505afa1580156107b0573d6000803e3d6000fd5b505050506040513d60208110156107c657600080fd5b50511015610804576040805162461bcd60e51b815260206004808301919091526024820152635654313360e01b604482015290519081900360640190fd5b61082161080f611786565b6001600160a01b038b1690308861178a565b60ca80546001908101918290556001600160a01b03808c16600090815260cb60209081526040808320805490950190945560cc8152838220928d168252919091522081905561087e818a8a8a868a8a8a610879611786565b6117ea565b7fb202c3f08fb28e09344f349ec8dd3dbc7afff036295930c73f97ddff38c3bc00818b8b8b8b8b8b8b8b6108b0611786565b604080519a8b526001600160a01b03998a1660208c01529789168a89015260608a0196909652608089019490945260a088019290925260c087015260e086015215156101008501529091166101208301524261014083015251908190036101600190a1506001805598975050505050505050565b600080806001600160a01b038516158061094557506001600160a01b038416155b1561094f57610987565b6001600160a01b03808616600090815260cc602090815260408083209388168352929052205461097e8161190c565b91955093509150505b9250925092565b60009081526097602052604090206002015490565b600080516020612e2c83398151915281565b6000828152609760205260409020600201546109d8906109d3611786565b611080565b610a135760405162461bcd60e51b815260040180806020018281038252602f815260200180612d18602f913960400191505060405180910390fd5b610a1d8282611c70565b5050565b60d86020526000908152604090205481565b610a3b611786565b6001600160a01b0316816001600160a01b031614610a8a5760405162461bcd60e51b815260040180806020018281038252602f815260200180612e98602f913960400191505060405180910390fd5b610a1d8282611cd9565b60c95481565b6000610ab6600080516020612e0c8339815191526109d3611786565b610af15760405162461bcd60e51b8152600401808060200182810382526022815260200180612e766022913960400191505060405180910390fd5b610af9611d42565b50600190565b600060026001541415610b47576040805162461bcd60e51b815260206004820152601f6024820152600080516020612d47833981519152604482015290519081900360640190fd5b60026001556001600160a01b03841615801590610b6c57506001600160a01b03831615155b8015610b8057506001600160a01b03821615155b610bb7576040805162461bcd60e51b815260206004820152600360248201526256543560e81b604482015290519081900360640190fd5b826001600160a01b0316610bc9611786565b6001600160a01b03161480610bf65750816001600160a01b0316610beb611786565b6001600160a01b0316145b80610c165750610c16600080516020612e2c8339815191526109d3611786565b610c4d576040805162461bcd60e51b81526020600482015260036024820152622b2a1b60e91b604482015290519081900360640190fd5b6001600160a01b03808516600090815260cc602090815260408083209387168352929052205480610cab576040805162461bcd60e51b815260206004820152600360248201526256543760e81b604482015290519081900360640190fd5b610cb481611de2565b9150846001600160a01b03166370a08231306040518263ffffffff1660e01b815260040180826001600160a01b0316815260200191505060206040518083038186803b158015610d0357600080fd5b505afa158015610d17573d6000803e3d6000fd5b505050506040513d6020811015610d2d57600080fd5b5051821115610d3857fe5b8115610d5257610d526001600160a01b0386168484611e6a565b604080516001600160a01b03808816825280871660208301528516818301526060810184905242608082015290517f622e473ff9b0fdf0725b70cd5aa11e70471d028e6a7ceda8f72c2efa84a6ac5c9181900360a00190a150600180559392505050565b600054610100900460ff1680610dcf5750610dcf611ebc565b80610ddd575060005460ff16155b610e185760405162461bcd60e51b815260040180806020018281038252602e815260200180612dbd602e913960400191505060405180910390fd5b600054610100900460ff16158015610e43576000805460ff1961ff0019909116610100171660011790555b610e4b611ecd565b610e53611f77565b610e5b612017565b610e6d6000610e68611786565b610a13565b610e85600080516020612e0c83398151915284610a13565b610e9d600080516020612e2c83398151915283610a13565b8015610eaf576000805461ff00191690555b505050565b60cb6020526000908152604090205481565b60655460ff1690565b6000808083610edd57610eee565b610ee6846120c2565b919450925090505b9193909250565b6000808080808080808080806001600160a01b038d161580610f1e57506001600160a01b038c16155b15610f2857610f96565b600060cc60008f6001600160a01b03166001600160a01b0316815260200190815260200160002060008e6001600160a01b03166001600160a01b03168152602001908152602001600020549050610f7e816122de565b9b509b509b509b509b509b509b509b509b509b509b50505b9295989b509295989b9093969950565b6000610fc2600080516020612e0c8339815191526109d3611786565b610ffd5760405162461bcd60e51b8152600401808060200182810382526022815260200180612e766022913960400191505060405180910390fd5b610af961244b565b600080806001600160a01b038516158061102657506001600160a01b038416155b1561103057610987565b6001600160a01b03808616600090815260cc602090815260408083209388168352929052205461097e816120c2565b600082815260976020526040812061107790836124ce565b90505b92915050565b600082815260976020526040812061107790836124da565b60008060008060008060008060008060006110b28c6122de565b9a509a509a509a509a509a509a509a509a509a509a505b91939597999b90929496989a50565b600081565b60026001541415611123576040805162461bcd60e51b815260206004820152601f6024820152600080516020612d47833981519152604482015290519081900360640190fd5b6002600155611130610ec6565b15611175576040805162461bcd60e51b815260206004820152601060248201526f14185d5cd8589b194e881c185d5cd95960821b604482015290519081900360640190fd5b6001600160a01b0382161580159061119557506001600160a01b03811615155b6111cc576040805162461bcd60e51b81526020600482015260036024820152620aca8760eb1b604482015290519081900360640190fd5b6001600160a01b03808316600090815260cc60209081526040808320938516835292905220548061122a576040805162461bcd60e51b815260206004820152600360248201526256543960e81b604482015290519081900360640190fd5b600081815260d760205260409020546001600160a01b0390811690831661124f611786565b6001600160a01b0316148061127c5750806001600160a01b0316611271611786565b6001600160a01b0316145b8061129c575061129c600080516020612e2c8339815191526109d3611786565b6112d6576040805162461bcd60e51b815260206004808301919091526024820152630565431360e41b604482015290519081900360640190fd5b600082815260d1602052604090205460ff16801561131c5750600082815260d5602090815260408083205460d383528184205460d290935292205461131a916124ef565b115b611356576040805162461bcd60e51b815260206004808301919091526024820152632b2a189960e11b604482015290519081900360640190fd5b60006113618361190c565b509091505080156113a9576113806001600160a01b0386168583611e6a565b600083815260d560205260409020546113999082612548565b600084815260d560205260409020555b600083815260d860209081526040808320429081905560ce90925290912054116113e457600083815260d160205260409020805460ff191690555b604080516001600160a01b0380881682528616602082015280820183905242606082015290517fe66d51f31c8a9131ea2d5eeef8ef1bb6c991a682392cf84096e45f04933f57349181900360800190a1505060018055505050565b600081815260976020526040812061107a906125a2565b600082815260976020526040902060020154611474906109d3611786565b610a8a5760405162461bcd60e51b8152600401808060200182810382526030815260200180612d8d6030913960400191505060405180910390fd5b60008080836114bd57610eee565b610ee68461190c565b60cc60209081526000928352604080842090915290825290205481565b60006002600154141561152b576040805162461bcd60e51b815260206004820152601f6024820152600080516020612d47833981519152604482015290519081900360640190fd5b60026001556001600160a01b0389161580159061155057506001600160a01b03881615155b801561155b57508415155b801561156657508315155b61159d576040805162461bcd60e51b815260206004820152600360248201526256543360e81b604482015290519081900360640190fd5b6115a785856124ef565b905080896001600160a01b03166370a082316115c1611786565b6040518263ffffffff1660e01b815260040180826001600160a01b0316815260200191505060206040518083038186803b1580156115fe57600080fd5b505afa158015611612573d6000803e3d6000fd5b505050506040513d602081101561162857600080fd5b50511015611666576040805162461bcd60e51b815260206004808301919091526024820152635654313160e01b604482015290519081900360640190fd5b611683611671611786565b6001600160a01b038b1690308461178a565b60ca80546001908101918290556001600160a01b03808c16600090815260cb60209081526040808320805490950190945560cc8152838220928d16825291909152208190556116db818a8a8a8a8a8a8a610879611786565b7f8ab096c8e89db3c4e8214cdf5815512e3b8b066274966b6078000d5be951867f818b8b8b8b8b8b8b8b6108b0611786565b600080516020612e0c83398151915281565b6000808211611775576040805162461bcd60e51b815260206004820152601a60248201527f536166654d6174683a206469766973696f6e206279207a65726f000000000000604482015290519081900360640190fd5b81838161177e57fe5b049392505050565b3390565b604080516001600160a01b0380861660248301528416604482015260648082018490528251808303909101815260849091019091526020810180516001600160e01b03166323b872dd60e01b1790526117e49085906125ad565b50505050565b600089815260d1602052604090205460ff1615611834576040805162461bcd60e51b815260206004820152600360248201526256543160e81b604482015290519081900360640190fd5b600061185e61184e61184787600161265e565b86906124ef565b6118588a8a612548565b90612548565b60009a8b5260cd60209081526040808d209a909a5560ce8152898c209190915560cf8152888b20979097555060d0865286892080546001600160a01b03199081166001600160a01b039a8b161790915560d18752878a20805460ff1990811660011790915560d28852888b209690965560d38752878a209490945560d486528689209290925560d6855285882080549094169015151790925560d79092529190932080549093169116179055565b600081815260d8602090815260408083205460cf83528184205460cd909352908320548392839291839182918291829161194591612548565b4211611955575050505050610eee565b600089815260d1602052604090205460ff1615806119815750600089815260ce60205260409020548510155b15611990575050505050610eee565b600089815260cf602090815260408083205460cd909252909120546119b491612548565b85106119c057846119e4565b600089815260cf602090815260408083205460cd909252909120546119e491612548565b60008a815260ce60205260409020549093504211611a025742611a12565b600089815260ce60205260409020545b60008a815260cd60205260409020549092508510611a305784611a40565b600089815260cd60205260409020545b9450611a4c828661265e565b9650611a58828461265e565b60008a815260d46020526040902054909150611a759082906126bb565b60008a815260d6602052604090205490945060ff1615611bd757600089815260cf602090815260408083205460cd90925290912054611ab391612548565b831115611b095760008411611ae157600089815260d46020526040902054611adc90829061171f565b611b02565b600089815260d46020526040902054611b029060019061185890849061171f565b9550611b5b565b60008411611b3757600089815260d46020526040902054611b329060019061185890849061171f565b611b58565b600089815260d46020526040902054611b589060029061185890849061171f565b95505b60008411611b8257600089815260d26020526040902054611b7d9087906124ef565b611bd0565b600089815260d26020526040902054611bd090611baa90611ba489600161265e565b906124ef565b60008b815260d2602090815260408083205460d490925290912054611858918891612722565b9750611c64565b600089815260cf602090815260408083205460cd90925290912054611bfb91612548565b831115611c2357600089815260d46020526040902054611c1c90829061171f565b9550611c47565b600089815260d46020526040902054611c449060019061185890849061171f565b95505b600089815260d26020526040902054611c619087906124ef565b97505b50505050509193909250565b6000828152609760205260409020611c8890826127dd565b15610a1d57611c95611786565b6001600160a01b0316816001600160a01b0316837f2f8788117e7eff1d82e926ec794901d17c78024a50270940304540a733656f0d60405160405180910390a45050565b6000828152609760205260409020611cf190826127f2565b15610a1d57611cfe611786565b6001600160a01b0316816001600160a01b0316837ff6391f5c32d9c69d2a47ea670b442974b53935d1edc7fd64eb21e047a839171b60405160405180910390a45050565b611d4a610ec6565b611d92576040805162461bcd60e51b815260206004820152601460248201527314185d5cd8589b194e881b9bdd081c185d5cd95960621b604482015290519081900360640190fd5b6065805460ff191690557f5db9ee0a495bf2e6ff9c91a7834c1ba4fdd244a5e8aa4e537bd38aeae4b073aa611dc5611786565b604080516001600160a01b039092168252519081900360200190a1565b600081815260d1602052604081205460ff168015611e0d5750600082815260ce602052604090205442105b611e44576040805162461bcd60e51b815260206004820152600360248201526215950d60ea1b604482015290519081900360640190fd5b611e4d826120c2565b5050600092835260d16020526040909220805460ff191690555090565b604080516001600160a01b038416602482015260448082018490528251808303909101815260649091019091526020810180516001600160e01b031663a9059cbb60e01b179052610eaf9084906125ad565b6000611ec730612807565b15905090565b600054610100900460ff1680611ee65750611ee6611ebc565b80611ef4575060005460ff16155b611f2f5760405162461bcd60e51b815260040180806020018281038252602e815260200180612dbd602e913960400191505060405180910390fd5b600054610100900460ff16158015611f5a576000805460ff1961ff0019909116610100171660011790555b611f6261280d565b8015611f74576000805461ff00191690555b50565b600054610100900460ff1680611f905750611f90611ebc565b80611f9e575060005460ff16155b611fd95760405162461bcd60e51b815260040180806020018281038252602e815260200180612dbd602e913960400191505060405180910390fd5b600054610100900460ff16158015611f62576000805460ff1961ff0019909116610100171660011790558015611f74576000805461ff001916905550565b600054610100900460ff16806120305750612030611ebc565b8061203e575060005460ff16155b6120795760405162461bcd60e51b815260040180806020018281038252602e815260200180612dbd602e913960400191505060405180910390fd5b600054610100900460ff161580156120a4576000805460ff1961ff0019909116610100171660011790555b6065805460ff191690558015611f74576000805461ff001916905550565b600081815260d8602090815260408083205460cf83528184205460cd90935290832054839283929183916120f69190612548565b821161215757600086815260d3602090815260408083205460d290925290912054612120916124ef565b600087815260ce6020526040902054612139908461265e565b600088815260d3602052604090205491965094509250610eee915050565b600086815260d1602052604090205460ff1615806121835750600086815260ce60205260409020548210155b1561218f575050610eee565b600086815260ce60205260409020546121a8908361265e565b600087815260d460205260409020549094506121c59085906126bb565b600087815260d6602052604090205490915060ff161561226d57600086815260d460205260409020546121f990859061171f565b92506000811161222257600086815260d2602052604090205461221d9084906124ef565b612266565b600086815260d26020526040902054612266906122409085906124ef565b600088815260d2602090815260408083205460d490925290912054611858918591612722565b94506122d5565b6000811161229457600086815260d4602052604090205461228f90859061171f565b6122b5565b600086815260d460205260409020546122b59060019061185890879061171f565b600087815260d260205260409020549093506122d29084906124ef565b94505b50509193909250565b6000808080808080808080808b6122f4576110c9565b60cd600060ca5481526020019081526020016000205460ce600060ca5481526020019081526020016000205460cf600060ca5481526020019081526020016000205460d0600060ca54815260200190815260200160002060009054906101000a90046001600160a01b031660d1600060ca54815260200190815260200160002060009054906101000a900460ff1660d2600060ca5481526020019081526020016000205460d3600060ca5481526020019081526020016000205460d4600060ca5481526020019081526020016000205460d5600060ca5481526020019081526020016000205460d6600060ca54815260200190815260200160002060009054906101000a900460ff1660d7600060ca54815260200190815260200160002060009054906101000a90046001600160a01b03169a509a509a509a509a509a509a509a509a509a509a5091939597999b90929496989a50565b612453610ec6565b15612498576040805162461bcd60e51b815260206004820152601060248201526f14185d5cd8589b194e881c185d5cd95960821b604482015290519081900360640190fd5b6065805460ff191660011790557f62e78cea01bee320cd4e420270b5ea74000d11b0c9f74754ebdbfc544b05a258611dc5611786565b600061107783836128b2565b6000611077836001600160a01b038416612916565b6000826124fe5750600061107a565b8282028284828161250b57fe5b04146110775760405162461bcd60e51b8152600401808060200182810382526021815260200180612deb6021913960400191505060405180910390fd5b600082820183811015611077576040805162461bcd60e51b815260206004820152601b60248201527f536166654d6174683a206164646974696f6e206f766572666c6f770000000000604482015290519081900360640190fd5b600061107a8261292e565b6000612602826040518060400160405280602081526020017f5361666545524332303a206c6f772d6c6576656c2063616c6c206661696c6564815250856001600160a01b03166129329092919063ffffffff16565b805190915015610eaf5780806020019051602081101561262157600080fd5b5051610eaf5760405162461bcd60e51b815260040180806020018281038252602a815260200180612e4c602a913960400191505060405180910390fd5b6000828211156126b5576040805162461bcd60e51b815260206004820152601e60248201527f536166654d6174683a207375627472616374696f6e206f766572666c6f770000604482015290519081900360640190fd5b50900390565b6000808211612711576040805162461bcd60e51b815260206004820152601860248201527f536166654d6174683a206d6f64756c6f206279207a65726f0000000000000000604482015290519081900360640190fd5b81838161271a57fe5b069392505050565b60008060006127318686612949565b915091506000848061273f57fe5b868809905082811115612753576001820391505b9182900391816127715784838161276657fe5b0493505050506127d6565b8482106127c5576040805162461bcd60e51b815260206004820152601a60248201527f46756c6c4d6174683a2046554c4c4449565f4f564552464c4f57000000000000604482015290519081900360640190fd5b6127d0838387612976565b93505050505b9392505050565b6000611077836001600160a01b0384166129e6565b6000611077836001600160a01b038416612a30565b3b151590565b600054610100900460ff16806128265750612826611ebc565b80612834575060005460ff16155b61286f5760405162461bcd60e51b815260040180806020018281038252602e815260200180612dbd602e913960400191505060405180910390fd5b600054610100900460ff1615801561289a576000805460ff1961ff0019909116610100171660011790555b600180558015611f74576000805461ff001916905550565b815460009082106128f45760405162461bcd60e51b8152600401808060200182810382526022815260200180612cf66022913960400191505060405180910390fd5b82600001828154811061290357fe5b9060005260206000200154905092915050565b60009081526001919091016020526040902054151590565b5490565b60606129418484600085612af6565b949350505050565b600080806000198486099050838502925082810391508281101561296e576001820391505b509250929050565b6000818103821680838161298657fe5b04925080858161299257fe5b0494508081600003816129a157fe5b60028581038087028203028087028203028087028203028087028203028087028203028087028203029586029003909402930460010193909302939093010292915050565b60006129f28383612916565b612a285750815460018181018455600084815260208082209093018490558454848252828601909352604090209190915561107a565b50600061107a565b60008181526001830160205260408120548015612aec5783546000198083019190810190600090879083908110612a6357fe5b9060005260206000200154905080876000018481548110612a8057fe5b600091825260208083209091019290925582815260018981019092526040902090840190558654879080612ab057fe5b6001900381819060005260206000200160009055905586600101600087815260200190815260200160002060009055600194505050505061107a565b600091505061107a565b606082471015612b375760405162461bcd60e51b8152600401808060200182810382526026815260200180612d676026913960400191505060405180910390fd5b612b4085612807565b612b91576040805162461bcd60e51b815260206004820152601d60248201527f416464726573733a2063616c6c20746f206e6f6e2d636f6e7472616374000000604482015290519081900360640190fd5b600080866001600160a01b031685876040518082805190602001908083835b60208310612bcf5780518252601f199092019160209182019101612bb0565b6001836020036101000a03801982511681845116808217855250505050505090500191505060006040518083038185875af1925050503d8060008114612c31576040519150601f19603f3d011682016040523d82523d6000602084013e612c36565b606091505b5091509150612c46828286612c51565b979650505050505050565b60608315612c605750816127d6565b825115612c705782518084602001fd5b8160405162461bcd60e51b81526004018080602001828103825283818151815260200191508051906020019080838360005b83811015612cba578181015183820152602001612ca2565b50505050905090810190601f168015612ce75780820380516001836020036101000a031916815260200191505b509250505060405180910390fdfe456e756d657261626c655365743a20696e646578206f7574206f6620626f756e6473416363657373436f6e74726f6c3a2073656e646572206d75737420626520616e2061646d696e20746f206772616e745265656e7472616e637947756172643a207265656e7472616e742063616c6c00416464726573733a20696e73756666696369656e742062616c616e636520666f722063616c6c416363657373436f6e74726f6c3a2073656e646572206d75737420626520616e2061646d696e20746f207265766f6b65496e697469616c697a61626c653a20636f6e747261637420697320616c726561647920696e697469616c697a6564536166654d6174683a206d756c7469706c69636174696f6e206f766572666c6f7765d7a28e3265b37a6474929f336521b332c1681b933f6cb9f3376673440d862a6a7a39ad350f111635f4a31ec3e3e5ca2f76f78880b843ba3f8705d7d3ac3eb95361666545524332303a204552433230206f7065726174696f6e20646964206e6f74207375636365656456657374696e6754696d656c6f636b3a20556e617574686f72697a65642055736572416363657373436f6e74726f6c3a2063616e206f6e6c792072656e6f756e636520726f6c657320666f722073656c66a2646970667358221220750d81c7d290e3303797ecf8b6bce375299a7964865bdac57c51bfdabc8bd2ce64736f6c63430007060033",
  "immutableReferences": {},
  "source": "// SPDX-License-Identifier: Unlicensed\npragma solidity >=0.7.0;\n\nimport \"@openzeppelin/contracts-upgradeable/proxy/Initializable.sol\";\nimport \"@openzeppelin/contracts-upgradeable/math/SafeMathUpgradeable.sol\";\nimport \"@openzeppelin/contracts-upgradeable/proxy/Initializable.sol\";\nimport \"@openzeppelin/contracts-upgradeable/access/AccessControlUpgradeable.sol\";\nimport \"@openzeppelin/contracts-upgradeable/utils/PausableUpgradeable.sol\";\nimport \"@openzeppelin/contracts-upgradeable/utils/ReentrancyGuardUpgradeable.sol\";\nimport \"@openzeppelin/contracts-upgradeable/token/ERC20/SafeERC20Upgradeable.sol\";\nimport \"@openzeppelin/contracts-upgradeable/token/ERC20/IERC20Upgradeable.sol\";\nimport \"./libraries/FullMath.sol\";\nimport \"./interfaces/IVestingTimelockV2.sol\";\n\n/**\n * @dev A token holder contract that will allow a beneficiary to extract the\n * tokens after a given release time.\n * Supports multiple vesting strategies like Cliffed, Continuous, Stepped etc.\n */\ncontract VestingTimelockV2 is\n  Initializable,\n  IVestingTimelockV2,\n  ReentrancyGuardUpgradeable,\n  PausableUpgradeable,\n  AccessControlUpgradeable\n{\n  // including libraries\n  using SafeERC20Upgradeable for IERC20Upgradeable;\n  using SafeMathUpgradeable for uint256;\n  using FullMath for uint256;\n\n  // Access Roles\n  bytes32 public constant PAUSER_ROLE = keccak256(\"PAUSER_ROLE\");\n  bytes32 public constant GRANT_ADMIN_ROLE = keccak256(\"GRANT_ADMIN_ROLE\");\n\n  // variable pertaining to contract upgrades versioning\n  uint256 public _version;\n\n  // Vesting grant identifier\n  uint256 public _id;\n  mapping(address => uint256) public _grantCount;\n  mapping(address => mapping(address => uint256)) public _beneficiaryID;\n\n  // Vesting grant parameters mapped to grant ID\n  mapping(uint256 => uint256) _startTime;\n  mapping(uint256 => uint256) _endTime;\n  mapping(uint256 => uint256) _cliffPeriod;\n  mapping(uint256 => address) _beneficiary;\n  mapping(uint256 => bool) _isActive;\n  mapping(uint256 => uint256) _instalmentAmount;\n  mapping(uint256 => uint256) _instalmentCount;\n  mapping(uint256 => uint256) _instalmentPeriod;\n  mapping(uint256 => uint256) _amountReceived;\n  mapping(uint256 => bool) _isContinuousVesting;\n  mapping(uint256 => address) _grantManager;\n\n  // Last claimed timestamp mapped to grant ID\n  mapping(uint256 => uint256) public _lastClaimedTimestamp;\n\n  /**\n   * @dev Constructor for initializing the Vesting Timelock contract.\n   * @param pauserAddress_ - address of the pauser admin.\n   * @param grantAdminAddress_ - address of the grant admin.\n   */\n  function initialize(address pauserAddress_, address grantAdminAddress_)\n    public\n    virtual\n    initializer\n  {\n    __ReentrancyGuard_init();\n    __AccessControl_init_unchained();\n    __Pausable_init_unchained();\n    _setupRole(DEFAULT_ADMIN_ROLE, _msgSender());\n    _setupRole(PAUSER_ROLE, pauserAddress_);\n    _setupRole(GRANT_ADMIN_ROLE, grantAdminAddress_);\n  }\n\n  /**\n   * @dev Get the details of the vesting grant for a user\n   * @param id_: vesting grant user id\n   */\n  function _getGrant(uint256 id_)\n    internal\n    view\n    returns (\n      uint256 startTime,\n      uint256 endTime,\n      uint256 cliffTime,\n      address beneficiary,\n      bool isActive,\n      uint256 instalmentAmount,\n      uint256 instalmentCount,\n      uint256 instalmentPeriod,\n      uint256 amountReceived,\n      bool isContinuousVesting,\n      address grantManager\n    )\n  {\n    if (id_ == 0) {\n      return (\n        startTime,\n        endTime,\n        cliffTime,\n        beneficiary,\n        isActive,\n        instalmentAmount,\n        instalmentCount,\n        instalmentPeriod,\n        amountReceived,\n        isContinuousVesting,\n        grantManager\n      );\n    }\n\n    return (\n      _startTime[_id],\n      _endTime[_id],\n      _cliffPeriod[_id],\n      _beneficiary[_id],\n      _isActive[_id],\n      _instalmentAmount[_id],\n      _instalmentCount[_id],\n      _instalmentPeriod[_id],\n      _amountReceived[_id],\n      _isContinuousVesting[_id],\n      _grantManager[_id]\n    );\n  }\n\n  /**\n   * @dev Get the details of the vesting grant for a user\n   * @param token_: address of token\n   * @param beneficiary_: address of beneficiary\n   */\n  function getGrant(address token_, address beneficiary_)\n    public\n    view\n    virtual\n    override\n    returns (\n      uint256 startTime,\n      uint256 endTime,\n      uint256 cliffTime,\n      address beneficiary,\n      bool isActive,\n      uint256 instalmentAmount,\n      uint256 instalmentCount,\n      uint256 instalmentPeriod,\n      uint256 amountReceived,\n      bool isContinuousVesting,\n      address grantManager\n    )\n  {\n    if (token_ == address(0) || beneficiary_ == address(0)) {\n      return (\n        startTime,\n        endTime,\n        cliffTime,\n        beneficiary,\n        isActive,\n        instalmentAmount,\n        instalmentCount,\n        instalmentPeriod,\n        amountReceived,\n        isContinuousVesting,\n        grantManager\n      );\n    }\n    uint256 id = _beneficiaryID[token_][beneficiary_];\n    return _getGrant(id);\n  }\n\n  /**\n   * @dev get the details of the vesting grant for a user from id\n   * @param id_: vesting grant for a user id\n   */\n  function getGrantFromID(uint256 id_)\n    public\n    view\n    virtual\n    override\n    returns (\n      uint256 startTime,\n      uint256 endTime,\n      uint256 cliffTime,\n      address beneficiary,\n      bool isActive,\n      uint256 instalmentAmount,\n      uint256 instalmentCount,\n      uint256 instalmentPeriod,\n      uint256 amountReceived,\n      bool isContinuousVesting,\n      address grantManager\n    )\n  {\n    return _getGrant(id_);\n  }\n\n  /**\n   * @dev calculate the pending time in the currently vesting installment\n   * @param id_: vesting grant for a user id\n   */\n  function _getPending(uint256 id_)\n    internal\n    view\n    returns (\n      uint256 pendingAmount,\n      uint256 pendingTime,\n      uint256 pendingInstalment\n    )\n  {\n    uint256 lastClaimedTimestamp = _lastClaimedTimestamp[id_];\n    uint256 instalmentPeriodRemainder;\n    uint256 lowerTimestamp;\n    uint256 higherTimestamp;\n    uint256 pendingVestingTime;\n\n    // if cliff time is not crossed by lastClaimedTimestamp, return the full amount and instalment count\n    if (block.timestamp <= _startTime[id_].add(_cliffPeriod[id_])) {\n      return (pendingAmount, pendingTime, pendingInstalment);\n    }\n\n    // if the last claimed timstamp has crossed the endTime, return zero\n    if (!_isActive[id_] || lastClaimedTimestamp >= _endTime[id_])\n      return (pendingAmount, pendingTime, pendingInstalment);\n\n    lowerTimestamp = (lastClaimedTimestamp <\n      _startTime[id_].add(_cliffPeriod[id_]))\n      ? _startTime[id_].add(_cliffPeriod[id_])\n      : lastClaimedTimestamp;\n\n    higherTimestamp = (block.timestamp > _endTime[id_])\n      ? _endTime[id_]\n      : block.timestamp;\n\n    lastClaimedTimestamp = (\n      lastClaimedTimestamp < _startTime[id_]\n        ? _startTime[id_]\n        : lastClaimedTimestamp\n    );\n\n    // calculate pending time between last claimed and current time\n    pendingTime = higherTimestamp.sub(lastClaimedTimestamp);\n    pendingVestingTime = higherTimestamp.sub(lowerTimestamp);\n\n    // calculate the pending time in the currently vesting instalment\n    instalmentPeriodRemainder = pendingVestingTime.mod(_instalmentPeriod[id_]);\n\n    // calculate pendingAmount as per vesting mode\n    if (_isContinuousVesting[id_]) {\n      // _instalmentPeriod[id_] zero condition need not be checked as it would come under already elapsed grant's end time\n      if (lowerTimestamp > _startTime[id_].add(_cliffPeriod[id_])) {\n        pendingInstalment = (instalmentPeriodRemainder > 0)\n          ? (pendingVestingTime.div(_instalmentPeriod[id_])).add(1)\n          : (pendingVestingTime.div(_instalmentPeriod[id_]));\n      } else {\n        pendingInstalment = (instalmentPeriodRemainder > 0)\n          ? (pendingVestingTime.div(_instalmentPeriod[id_])).add(2)\n          : (pendingVestingTime.div(_instalmentPeriod[id_])).add(1);\n      }\n\n      // pending amount will contain the amount pro-rated to the time diff component also, along with the pendingInstalment\n      pendingAmount = (instalmentPeriodRemainder > 0)\n        ? (\n          (\n            instalmentPeriodRemainder.mulDiv(\n              _instalmentAmount[id_],\n              _instalmentPeriod[id_]\n            )\n          ).add((pendingInstalment.sub(1)).mul(_instalmentAmount[id_]))\n        )\n        : (pendingInstalment.mul(_instalmentAmount[id_]));\n    } else {\n      // _instalmentPeriod[id_] zero condition need not be checked as it would come under already elapsed grant's end time\n      if (lowerTimestamp > _startTime[id_].add(_cliffPeriod[id_])) {\n        pendingInstalment = (pendingVestingTime.div(_instalmentPeriod[id_]));\n      } else {\n        pendingInstalment = (pendingVestingTime.div(_instalmentPeriod[id_]))\n          .add(1);\n      }\n\n      // pending amount will be directly derived from pendingInstalment\n      pendingAmount = pendingInstalment.mul(_instalmentAmount[id_]);\n    }\n  }\n\n  /**\n   * @dev calculate the pending time in the currently vesting installment\n   * @param token_: token address\n   * @param beneficiary_: beneficiary address\n   */\n  function getPending(address token_, address beneficiary_)\n    public\n    view\n    virtual\n    override\n    returns (\n      uint256 pendingAmount,\n      uint256 pendingTime,\n      uint256 pendingInstalment\n    )\n  {\n    if (token_ == address(0) || beneficiary_ == address(0))\n      return (pendingAmount, pendingTime, pendingInstalment);\n\n    uint256 id = _beneficiaryID[token_][beneficiary_];\n    (pendingAmount, pendingTime, pendingInstalment) = _getPending(id);\n  }\n\n  /**\n   * @dev calculate the pending time in the currently vesting installment from user id\n   * @param id_: user id\n   */\n  function getPendingFromID(uint256 id_)\n    public\n    view\n    virtual\n    override\n    returns (\n      uint256 pendingAmount,\n      uint256 pendingTime,\n      uint256 pendingInstalment\n    )\n  {\n    if (id_ == 0) return (pendingAmount, pendingTime, pendingInstalment);\n    (pendingAmount, pendingTime, pendingInstalment) = _getPending(id_);\n  }\n\n  /**\n   * @dev calculate the remaining amount\n   * @param id_: user id\n   */\n  function _getRemaining(uint256 id_)\n    internal\n    view\n    returns (\n      uint256 remainingAmount,\n      uint256 remainingTime,\n      uint256 remainingInstalment\n    )\n  {\n    uint256 lastClaimedTimestamp = _lastClaimedTimestamp[id_];\n    uint256 instalmentPeriodRemainder;\n\n    // if cliff time is not crossed by lastClaimedTimestamp, return the full amount and instalment count\n    if (lastClaimedTimestamp <= _startTime[id_].add(_cliffPeriod[id_])) {\n      return (\n        _instalmentAmount[id_].mul(_instalmentCount[id_]),\n        _endTime[id_].sub(lastClaimedTimestamp),\n        _instalmentCount[id_]\n      );\n    }\n\n    // if the last claimed timstamp has crossed the endTime, return zero\n    if (!_isActive[id_] || lastClaimedTimestamp >= _endTime[id_])\n      return (remainingAmount, remainingTime, remainingInstalment);\n\n    // if cliff time is crossed then calculate the remaining data by taking the ratio\n    remainingTime = _endTime[id_].sub(lastClaimedTimestamp);\n\n    // calculate the remaining time in the currently vesting instalment\n    instalmentPeriodRemainder = remainingTime.mod(_instalmentPeriod[id_]);\n\n    // calculate remainingAmount as per vesting mode\n    if (_isContinuousVesting[id_]) {\n      // _instalmentPeriod[id_] zero condition need not be checked as it would come under already elapsed grant's end time\n      remainingInstalment = (remainingTime.div(_instalmentPeriod[id_]));\n\n      remainingAmount = (instalmentPeriodRemainder > 0)\n        ? (\n          (\n            instalmentPeriodRemainder.mulDiv(\n              _instalmentAmount[id_],\n              _instalmentPeriod[id_]\n            )\n          ).add((remainingInstalment).mul(_instalmentAmount[id_]))\n        )\n        : (remainingInstalment.mul(_instalmentAmount[id_]));\n    } else {\n      // _instalmentPeriod[id_] zero condition need not be checked as it would come under already elapsed grant's end time\n      remainingInstalment = (instalmentPeriodRemainder > 0)\n        ? (remainingTime.div(_instalmentPeriod[id_])).add(1)\n        : (remainingTime.div(_instalmentPeriod[id_]));\n\n      remainingAmount = remainingInstalment.mul(_instalmentAmount[id_]);\n    }\n  }\n\n  /**\n   * @dev calculate the remaining amount\n   * @param token_: token address\n   * @param beneficiary_: beneficiary address\n   */\n  function getRemaining(address token_, address beneficiary_)\n    public\n    view\n    virtual\n    override\n    returns (\n      uint256 remainingAmount,\n      uint256 remainingTime,\n      uint256 remainingInstalment\n    )\n  {\n    if (token_ == address(0) || beneficiary_ == address(0))\n      return (remainingAmount, remainingTime, remainingInstalment);\n\n    uint256 id = _beneficiaryID[token_][beneficiary_];\n    (remainingAmount, remainingTime, remainingInstalment) = _getRemaining(id);\n  }\n\n  /**\n   * @dev calculate the remaining amount from user id\n   * @param id_: user id\n   */\n  function getRemainingFromID(uint256 id_)\n    public\n    view\n    virtual\n    override\n    returns (\n      uint256 remainingAmount,\n      uint256 remainingTime,\n      uint256 remainingInstalment\n    )\n  {\n    if (id_ == 0) return (remainingAmount, remainingTime, remainingInstalment);\n    (remainingAmount, remainingTime, remainingInstalment) = _getRemaining(id_);\n  }\n\n  /**\n   * @dev Transfers tokens held by beneficiary to timelock.\n   * @param id_: user id\n   * @param beneficiary_: beneficiary address\n   * @param startTime_: start time\n   * @param cliffPeriod_: initial waiting period\n   * @param instalmentAmount_: instalment amount\n   * @param instalmentCount_: instalment count\n   * @param instalmentPeriod_: instalment period\n   * @param isContinuousVesting_: vesting required or not\n   * @param grantManager: grant manager address\n   */\n  function _addGrant(\n    uint256 id_,\n    address beneficiary_,\n    uint256 startTime_,\n    uint256 cliffPeriod_,\n    uint256 instalmentAmount_,\n    uint256 instalmentCount_,\n    uint256 instalmentPeriod_,\n    bool isContinuousVesting_,\n    address grantManager\n  ) internal {\n    // Require statement to check if grant is already active\n    require(!_isActive[id_], \"VT1\");\n    uint256 endTime = startTime_.add(cliffPeriod_).add(\n      instalmentPeriod_.mul(instalmentCount_.sub(1))\n    );\n\n    _startTime[id_] = startTime_;\n    _endTime[id_] = endTime;\n    _cliffPeriod[id_] = cliffPeriod_;\n    _beneficiary[id_] = beneficiary_;\n    _isActive[id_] = true;\n    _instalmentAmount[id_] = instalmentAmount_;\n    _instalmentCount[id_] = instalmentCount_;\n    _instalmentPeriod[id_] = instalmentPeriod_;\n    _isContinuousVesting[id_] = isContinuousVesting_;\n    _grantManager[id_] = grantManager;\n  }\n\n  /**\n   * @dev Transfers tokens held by beneficiary to timelock.\n   * @param token_: token address\n   * @param beneficiary_: beneficiary address\n   * @param startTime_: start time\n   * @param cliffPeriod_: initial waiting period\n   * @param totalAmount_: amount\n   * @param instalmentCount_: instalment count\n   * @param instalmentPeriod_: instalment period\n   * @param isContinuousVesting_: vesting required or not\n   *\n   * Emits a {AddGrant} event.\n   */\n  function addGrant(\n    address token_,\n    address beneficiary_,\n    uint256 startTime_,\n    uint256 cliffPeriod_,\n    uint256 totalAmount_,\n    uint256 instalmentCount_,\n    uint256 instalmentPeriod_,\n    bool isContinuousVesting_\n  ) public virtual override nonReentrant returns (uint256 instalmentAmount) {\n    // Require statements to for transaction sanity check\n    require(\n      token_ != address(0) &&\n        beneficiary_ != address(0) &&\n        totalAmount_ != 0 &&\n        instalmentCount_ != 0,\n      \"VT2\"\n    );\n\n    // check the calling address has sufficient tokens and then transfer tokens to this contract\n    instalmentAmount = totalAmount_.div(instalmentCount_);\n\n    require(\n      IERC20Upgradeable(token_).balanceOf(_msgSender()) >= totalAmount_,\n      \"VT13\"\n    );\n\n    IERC20Upgradeable(token_).safeTransferFrom(\n      _msgSender(),\n      address(this),\n      totalAmount_\n    );\n\n    // generate a new id and allocate to the beneficiary\n    uint256 id = ++_id;\n    _grantCount[token_]++;\n    // add beneficiary to beneficiaryID\n    _beneficiaryID[token_][beneficiary_] = id;\n\n    _addGrant(\n      id,\n      beneficiary_,\n      startTime_,\n      cliffPeriod_,\n      instalmentAmount,\n      instalmentCount_,\n      instalmentPeriod_,\n      isContinuousVesting_,\n      _msgSender()\n    );\n\n    emit AddGrant(\n      id,\n      token_,\n      beneficiary_,\n      startTime_,\n      cliffPeriod_,\n      totalAmount_,\n      instalmentCount_,\n      instalmentPeriod_,\n      isContinuousVesting_,\n      _msgSender(),\n      block.timestamp\n    );\n  }\n\n  /**\n   * @dev Transfers tokens held by beneficiary to timelock in installments\n   * @param token_: token address\n   * @param beneficiary_: beneficiary address\n   * @param startTime_: start time\n   * @param cliffPeriod_: initial waiting period\n   * @param instalmentAmount_: installment amount\n   * @param instalmentCount_: instalment count\n   * @param instalmentPeriod_: instalment period\n   * @param isContinuousVesting_: vesting required or not\n   *\n   * Emits a {AddGrantAsInstalment} event.\n   */\n  function addGrantAsInstalment(\n    address token_,\n    address beneficiary_,\n    uint256 startTime_,\n    uint256 cliffPeriod_,\n    uint256 instalmentAmount_,\n    uint256 instalmentCount_,\n    uint256 instalmentPeriod_,\n    bool isContinuousVesting_\n  ) public virtual override nonReentrant returns (uint256 totalVestingAmount) {\n    // Require statements to for transaction sanity check\n    require(\n      token_ != address(0) &&\n        beneficiary_ != (address(0)) &&\n        instalmentAmount_ != 0 &&\n        instalmentCount_ != 0,\n      \"VT3\"\n    );\n\n    // check the calling address has suffecient tokens and then transfer tokens to this contract\n    totalVestingAmount = instalmentAmount_.mul(instalmentCount_);\n\n    require(\n      IERC20Upgradeable(token_).balanceOf(_msgSender()) >= totalVestingAmount,\n      \"VT11\"\n    );\n\n    IERC20Upgradeable(token_).safeTransferFrom(\n      _msgSender(),\n      address(this),\n      totalVestingAmount\n    );\n\n    // generate a new id and allocate to the beneficiary\n    uint256 id = ++_id;\n    _grantCount[token_]++;\n    // add beneficiary to beneficiaryID\n    _beneficiaryID[token_][beneficiary_] = id;\n\n    _addGrant(\n      id,\n      beneficiary_,\n      startTime_,\n      cliffPeriod_,\n      instalmentAmount_,\n      instalmentCount_,\n      instalmentPeriod_,\n      isContinuousVesting_,\n      _msgSender()\n    );\n\n    emit AddGrantAsInstalment(\n      id,\n      token_,\n      beneficiary_,\n      startTime_,\n      cliffPeriod_,\n      instalmentAmount_,\n      instalmentCount_,\n      instalmentPeriod_,\n      isContinuousVesting_,\n      _msgSender(),\n      block.timestamp\n    );\n  }\n\n  /**\n   * @dev Revoke grant tokens held by timelock to beneficiary.\n   * @param id_: user id\n   *\n   * Emits a {AddGrantAsInstalment} event.\n   */\n  function _revokeGrant(uint256 id_)\n    internal\n    returns (uint256 remainingAmount)\n  {\n    // require the end date for grant to not have passed\n    require(_isActive[id_] && _endTime[id_] > block.timestamp, \"VT4\");\n\n    (remainingAmount, , ) = _getRemaining(id_);\n    // deactivate the grant (keep other values intact)\n    _isActive[id_] = false;\n  }\n\n  /**\n   * @dev Revoke grant tokens held by timelock to beneficiary.\n   * @param token_: token address\n   * @param beneficiary_: beneficiary address\n   * @param grantManager_: grant manager address\n   *\n   * Emits a {RevokeGrant} event.\n   */\n  function revokeGrant(\n    address token_,\n    address beneficiary_,\n    address grantManager_\n  ) public virtual override nonReentrant returns (uint256 remainingAmount) {\n    // require beneficiary not be address(0)\n    require(\n      token_ != address(0) &&\n        beneficiary_ != (address(0)) &&\n        grantManager_ != address(0),\n      \"VT5\"\n    );\n\n    // Grant can be revoked by the beneficiary, grant manager or GRANT ADMIN defined in the contract\n    require(\n      _msgSender() == beneficiary_ ||\n        _msgSender() == grantManager_ ||\n        hasRole(GRANT_ADMIN_ROLE, _msgSender()),\n      \"VT6\"\n    );\n\n    // get the ID and delete corresponding _beneficiaryID value\n    uint256 id = _beneficiaryID[token_][beneficiary_];\n    require(id != 0, \"VT7\");\n\n    // find the remaining amount after revoke and transfer it back to the grant manager\n    remainingAmount = _revokeGrant(id);\n    assert(\n      remainingAmount <= IERC20Upgradeable(token_).balanceOf(address(this))\n    );\n\n    if (remainingAmount > 0) {\n      // delete _beneficiaryID[token_][beneficiary_];\n      IERC20Upgradeable(token_).safeTransfer(grantManager_, remainingAmount);\n    }\n\n    // emit an event for record\n    emit RevokeGrant(\n      token_,\n      beneficiary_,\n      grantManager_,\n      remainingAmount,\n      block.timestamp\n    );\n  }\n\n  /**\n   * @dev Transfers tokens held by timelock to beneficiary.\n   * @param token_: token address\n   * @param beneficiary_: beneficiary address\n   *\n   * Emits a {ClaimGrant} event.\n   */\n  function claimGrant(address token_, address beneficiary_)\n    external\n    virtual\n    override\n    nonReentrant\n    whenNotPaused\n  {\n    // require beneficiary not be address(0)\n    require(token_ != address(0) && beneficiary_ != (address(0)), \"VT8\");\n\n    // get the ID and grant manager from the grant data\n    uint256 id = _beneficiaryID[token_][beneficiary_];\n    require(id != 0, \"VT9\");\n    address grantManager = _grantManager[id];\n\n    // Grant can be revoked by the beneficiary, grant manager or GRANT ADMIN defined in the contract\n    require(\n      _msgSender() == beneficiary_ ||\n        _msgSender() == grantManager ||\n        hasRole(GRANT_ADMIN_ROLE, _msgSender()),\n      \"VT10\"\n    );\n\n    // require the grant to be active and vesting amount still pening to be credited to beneficiary for claiming\n    require(\n      _isActive[id] &&\n        (_instalmentAmount[id].mul(_instalmentCount[id]) > _amountReceived[id]),\n      \"VT12\"\n    );\n\n    // get the pending amount to be credited to beneficiary\n    (uint256 pendingAmount, , ) = _getPending(id);\n\n    if (pendingAmount > 0) {\n      IERC20Upgradeable(token_).safeTransfer(beneficiary_, pendingAmount);\n      _amountReceived[id] = _amountReceived[id].add(pendingAmount);\n    }\n\n    // set last claimed for the grant to current time\n    _lastClaimedTimestamp[id] = block.timestamp;\n\n    // if all the vesting amount has been claimed, then deactivate grant\n    if (block.timestamp >= _endTime[id]) {\n      _isActive[id] = false;\n    }\n\n    emit ClaimGrant(token_, beneficiary_, pendingAmount, block.timestamp);\n  }\n\n  /**\n   * @dev Triggers stopped state.\n   *\n   * Requirements:\n   *\n   * - The contract must not be paused.\n   */\n  function pause() public virtual override returns (bool success) {\n    require(\n      hasRole(PAUSER_ROLE, _msgSender()),\n      \"VestingTimelock: Unauthorized User\"\n    );\n    _pause();\n    return true;\n  }\n\n  /**\n   * @dev Returns to normal state.\n   *\n   * Requirements:\n   *\n   * - The contract must be paused.\n   */\n  function unpause() public virtual override returns (bool success) {\n    require(\n      hasRole(PAUSER_ROLE, _msgSender()),\n      \"VestingTimelock: Unauthorized User\"\n    );\n    _unpause();\n    return true;\n  }\n}\n",
  "sourcePath": "/home/aditimahesh/Documents/Work/Persistence/go/src/github.com/persistenceOne/ERC20/contracts/VestingTimelockV2.sol",
  "compiler": {
    "name": "solc",
    "version": "0.7.6+commit.7338295f.Emscripten.clang"
  },
  "schemaVersion": "3.4.3",
  "updatedAt": "2021-11-12T11:26:40.884Z",
  "devdoc": {
    "details": "A token holder contract that will allow a beneficiary to extract the tokens after a given release time. Supports multiple vesting strategies like Cliffed, Continuous, Stepped etc.",
    "kind": "dev",
    "methods": {
      "addGrant(address,address,uint256,uint256,uint256,uint256,uint256,bool)": {
        "details": "Transfers tokens held by beneficiary to timelock.",
        "params": {
          "beneficiary_": ": beneficiary address",
          "cliffPeriod_": ": initial waiting period",
          "instalmentCount_": ": instalment count",
          "instalmentPeriod_": ": instalment period",
          "isContinuousVesting_": ": vesting required or not Emits a {AddGrant} event.",
          "startTime_": ": start time",
          "token_": ": token address",
          "totalAmount_": ": amount"
        }
      },
      "addGrantAsInstalment(address,address,uint256,uint256,uint256,uint256,uint256,bool)": {
        "details": "Transfers tokens held by beneficiary to timelock in installments",
        "params": {
          "beneficiary_": ": beneficiary address",
          "cliffPeriod_": ": initial waiting period",
          "instalmentAmount_": ": installment amount",
          "instalmentCount_": ": instalment count",
          "instalmentPeriod_": ": instalment period",
          "isContinuousVesting_": ": vesting required or not Emits a {AddGrantAsInstalment} event.",
          "startTime_": ": start time",
          "token_": ": token address"
        }
      },
      "claimGrant(address,address)": {
        "details": "Transfers tokens held by timelock to beneficiary.",
        "params": {
          "beneficiary_": ": beneficiary address Emits a {ClaimGrant} event.",
          "token_": ": token address"
        }
      },
      "getGrant(address,address)": {
        "details": "Get the details of the vesting grant for a user",
        "params": {
          "beneficiary_": ": address of beneficiary",
          "token_": ": address of token"
        }
      },
      "getGrantFromID(uint256)": {
        "details": "get the details of the vesting grant for a user from id",
        "params": {
          "id_": ": vesting grant for a user id"
        }
      },
      "getPending(address,address)": {
        "details": "calculate the pending time in the currently vesting installment",
        "params": {
          "beneficiary_": ": beneficiary address",
          "token_": ": token address"
        }
      },
      "getPendingFromID(uint256)": {
        "details": "calculate the pending time in the currently vesting installment from user id",
        "params": {
          "id_": ": user id"
        }
      },
      "getRemaining(address,address)": {
        "details": "calculate the remaining amount",
        "params": {
          "beneficiary_": ": beneficiary address",
          "token_": ": token address"
        }
      },
      "getRemainingFromID(uint256)": {
        "details": "calculate the remaining amount from user id",
        "params": {
          "id_": ": user id"
        }
      },
      "getRoleAdmin(bytes32)": {
        "details": "Returns the admin role that controls `role`. See {grantRole} and {revokeRole}. To change a role's admin, use {_setRoleAdmin}."
      },
      "getRoleMember(bytes32,uint256)": {
        "details": "Returns one of the accounts that have `role`. `index` must be a value between 0 and {getRoleMemberCount}, non-inclusive. Role bearers are not sorted in any particular way, and their ordering may change at any point. WARNING: When using {getRoleMember} and {getRoleMemberCount}, make sure you perform all queries on the same block. See the following https://forum.openzeppelin.com/t/iterating-over-elements-on-enumerableset-in-openzeppelin-contracts/2296[forum post] for more information."
      },
      "getRoleMemberCount(bytes32)": {
        "details": "Returns the number of accounts that have `role`. Can be used together with {getRoleMember} to enumerate all bearers of a role."
      },
      "grantRole(bytes32,address)": {
        "details": "Grants `role` to `account`. If `account` had not been already granted `role`, emits a {RoleGranted} event. Requirements: - the caller must have ``role``'s admin role."
      },
      "hasRole(bytes32,address)": {
        "details": "Returns `true` if `account` has been granted `role`."
      },
      "initialize(address,address)": {
        "details": "Constructor for initializing the Vesting Timelock contract.",
        "params": {
          "grantAdminAddress_": "- address of the grant admin.",
          "pauserAddress_": "- address of the pauser admin."
        }
      },
      "pause()": {
        "details": "Triggers stopped state. Requirements: - The contract must not be paused."
      },
      "paused()": {
        "details": "Returns true if the contract is paused, and false otherwise."
      },
      "renounceRole(bytes32,address)": {
        "details": "Revokes `role` from the calling account. Roles are often managed via {grantRole} and {revokeRole}: this function's purpose is to provide a mechanism for accounts to lose their privileges if they are compromised (such as when a trusted device is misplaced). If the calling account had been granted `role`, emits a {RoleRevoked} event. Requirements: - the caller must be `account`."
      },
      "revokeGrant(address,address,address)": {
        "details": "Revoke grant tokens held by timelock to beneficiary.",
        "params": {
          "beneficiary_": ": beneficiary address",
          "grantManager_": ": grant manager address Emits a {RevokeGrant} event.",
          "token_": ": token address"
        }
      },
      "revokeRole(bytes32,address)": {
        "details": "Revokes `role` from `account`. If `account` had been granted `role`, emits a {RoleRevoked} event. Requirements: - the caller must have ``role``'s admin role."
      },
      "unpause()": {
        "details": "Returns to normal state. Requirements: - The contract must be paused."
      }
    },
    "version": 1
  },
  "userdoc": {
    "kind": "user",
    "methods": {},
    "version": 1
  }
}