{
  "contractName": "XPRT",
  "abi": [
    {
      "anonymous": false,
      "inputs": [
        {
          "indexed": true,
          "internalType": "address",
          "name": "owner",
          "type": "address"
        },
        {
          "indexed": true,
          "internalType": "address",
          "name": "spender",
          "type": "address"
        },
        {
          "indexed": false,
          "internalType": "uint256",
          "name": "value",
          "type": "uint256"
        }
      ],
      "name": "Approval",
      "type": "event"
    },
    {
      "anonymous": false,
      "inputs": [
        {
          "indexed": false,
          "internalType": "address",
          "name": "account",
          "type": "address"
        }
      ],
      "name": "Paused",
      "type": "event"
    },
    {
      "anonymous": false,
      "inputs": [
        {
          "indexed": true,
          "internalType": "bytes32",
          "name": "role",
          "type": "bytes32"
        },
        {
          "indexed": true,
          "internalType": "bytes32",
          "name": "previousAdminRole",
          "type": "bytes32"
        },
        {
          "indexed": true,
          "internalType": "bytes32",
          "name": "newAdminRole",
          "type": "bytes32"
        }
      ],
      "name": "RoleAdminChanged",
      "type": "event"
    },
    {
      "anonymous": false,
      "inputs": [
        {
          "indexed": true,
          "internalType": "bytes32",
          "name": "role",
          "type": "bytes32"
        },
        {
          "indexed": true,
          "internalType": "address",
          "name": "account",
          "type": "address"
        },
        {
          "indexed": true,
          "internalType": "address",
          "name": "sender",
          "type": "address"
        }
      ],
      "name": "RoleGranted",
      "type": "event"
    },
    {
      "anonymous": false,
      "inputs": [
        {
          "indexed": true,
          "internalType": "bytes32",
          "name": "role",
          "type": "bytes32"
        },
        {
          "indexed": true,
          "internalType": "address",
          "name": "account",
          "type": "address"
        },
        {
          "indexed": true,
          "internalType": "address",
          "name": "sender",
          "type": "address"
        }
      ],
      "name": "RoleRevoked",
      "type": "event"
    },
    {
      "anonymous": false,
      "inputs": [
        {
          "indexed": true,
          "internalType": "address",
          "name": "from",
          "type": "address"
        },
        {
          "indexed": true,
          "internalType": "address",
          "name": "to",
          "type": "address"
        },
        {
          "indexed": false,
          "internalType": "uint256",
          "name": "value",
          "type": "uint256"
        }
      ],
      "name": "Transfer",
      "type": "event"
    },
    {
      "anonymous": false,
      "inputs": [
        {
          "indexed": false,
          "internalType": "address",
          "name": "account",
          "type": "address"
        }
      ],
      "name": "Unpaused",
      "type": "event"
    },
    {
      "inputs": [],
      "name": "BRIDGE_ADMIN_ROLE",
      "outputs": [
        {
          "internalType": "bytes32",
          "name": "",
          "type": "bytes32"
        }
      ],
      "stateMutability": "view",
      "type": "function"
    },
    {
      "inputs": [],
      "name": "DEFAULT_ADMIN_ROLE",
      "outputs": [
        {
          "internalType": "bytes32",
          "name": "",
          "type": "bytes32"
        }
      ],
      "stateMutability": "view",
      "type": "function"
    },
    {
      "inputs": [],
      "name": "PAUSER_ROLE",
      "outputs": [
        {
          "internalType": "bytes32",
          "name": "",
          "type": "bytes32"
        }
      ],
      "stateMutability": "view",
      "type": "function"
    },
    {
      "inputs": [
        {
          "internalType": "address",
          "name": "owner",
          "type": "address"
        },
        {
          "internalType": "address",
          "name": "spender",
          "type": "address"
        }
      ],
      "name": "allowance",
      "outputs": [
        {
          "internalType": "uint256",
          "name": "",
          "type": "uint256"
        }
      ],
      "stateMutability": "view",
      "type": "function"
    },
    {
      "inputs": [
        {
          "internalType": "address",
          "name": "spender",
          "type": "address"
        },
        {
          "internalType": "uint256",
          "name": "amount",
          "type": "uint256"
        }
      ],
      "name": "approve",
      "outputs": [
        {
          "internalType": "bool",
          "name": "",
          "type": "bool"
        }
      ],
      "stateMutability": "nonpayable",
      "type": "function"
    },
    {
      "inputs": [
        {
          "internalType": "address",
          "name": "account",
          "type": "address"
        }
      ],
      "name": "balanceOf",
      "outputs": [
        {
          "internalType": "uint256",
          "name": "",
          "type": "uint256"
        }
      ],
      "stateMutability": "view",
      "type": "function"
    },
    {
      "inputs": [],
      "name": "decimals",
      "outputs": [
        {
          "internalType": "uint8",
          "name": "",
          "type": "uint8"
        }
      ],
      "stateMutability": "view",
      "type": "function"
    },
    {
      "inputs": [
        {
          "internalType": "address",
          "name": "spender",
          "type": "address"
        },
        {
          "internalType": "uint256",
          "name": "subtractedValue",
          "type": "uint256"
        }
      ],
      "name": "decreaseAllowance",
      "outputs": [
        {
          "internalType": "bool",
          "name": "",
          "type": "bool"
        }
      ],
      "stateMutability": "nonpayable",
      "type": "function"
    },
    {
      "inputs": [
        {
          "internalType": "bytes32",
          "name": "role",
          "type": "bytes32"
        }
      ],
      "name": "getRoleAdmin",
      "outputs": [
        {
          "internalType": "bytes32",
          "name": "",
          "type": "bytes32"
        }
      ],
      "stateMutability": "view",
      "type": "function"
    },
    {
      "inputs": [
        {
          "internalType": "bytes32",
          "name": "role",
          "type": "bytes32"
        },
        {
          "internalType": "uint256",
          "name": "index",
          "type": "uint256"
        }
      ],
      "name": "getRoleMember",
      "outputs": [
        {
          "internalType": "address",
          "name": "",
          "type": "address"
        }
      ],
      "stateMutability": "view",
      "type": "function"
    },
    {
      "inputs": [
        {
          "internalType": "bytes32",
          "name": "role",
          "type": "bytes32"
        }
      ],
      "name": "getRoleMemberCount",
      "outputs": [
        {
          "internalType": "uint256",
          "name": "",
          "type": "uint256"
        }
      ],
      "stateMutability": "view",
      "type": "function"
    },
    {
      "inputs": [
        {
          "internalType": "bytes32",
          "name": "role",
          "type": "bytes32"
        },
        {
          "internalType": "address",
          "name": "account",
          "type": "address"
        }
      ],
      "name": "grantRole",
      "outputs": [],
      "stateMutability": "nonpayable",
      "type": "function"
    },
    {
      "inputs": [
        {
          "internalType": "bytes32",
          "name": "role",
          "type": "bytes32"
        },
        {
          "internalType": "address",
          "name": "account",
          "type": "address"
        }
      ],
      "name": "hasRole",
      "outputs": [
        {
          "internalType": "bool",
          "name": "",
          "type": "bool"
        }
      ],
      "stateMutability": "view",
      "type": "function"
    },
    {
      "inputs": [
        {
          "internalType": "address",
          "name": "spender",
          "type": "address"
        },
        {
          "internalType": "uint256",
          "name": "addedValue",
          "type": "uint256"
        }
      ],
      "name": "increaseAllowance",
      "outputs": [
        {
          "internalType": "bool",
          "name": "",
          "type": "bool"
        }
      ],
      "stateMutability": "nonpayable",
      "type": "function"
    },
    {
      "inputs": [],
      "name": "name",
      "outputs": [
        {
          "internalType": "string",
          "name": "",
          "type": "string"
        }
      ],
      "stateMutability": "view",
      "type": "function"
    },
    {
      "inputs": [],
      "name": "paused",
      "outputs": [
        {
          "internalType": "bool",
          "name": "",
          "type": "bool"
        }
      ],
      "stateMutability": "view",
      "type": "function"
    },
    {
      "inputs": [
        {
          "internalType": "bytes32",
          "name": "role",
          "type": "bytes32"
        },
        {
          "internalType": "address",
          "name": "account",
          "type": "address"
        }
      ],
      "name": "renounceRole",
      "outputs": [],
      "stateMutability": "nonpayable",
      "type": "function"
    },
    {
      "inputs": [
        {
          "internalType": "bytes32",
          "name": "role",
          "type": "bytes32"
        },
        {
          "internalType": "address",
          "name": "account",
          "type": "address"
        }
      ],
      "name": "revokeRole",
      "outputs": [],
      "stateMutability": "nonpayable",
      "type": "function"
    },
    {
      "inputs": [],
      "name": "symbol",
      "outputs": [
        {
          "internalType": "string",
          "name": "",
          "type": "string"
        }
      ],
      "stateMutability": "view",
      "type": "function"
    },
    {
      "inputs": [],
      "name": "totalSupply",
      "outputs": [
        {
          "internalType": "uint256",
          "name": "",
          "type": "uint256"
        }
      ],
      "stateMutability": "view",
      "type": "function"
    },
    {
      "inputs": [
        {
          "internalType": "address",
          "name": "recipient",
          "type": "address"
        },
        {
          "internalType": "uint256",
          "name": "amount",
          "type": "uint256"
        }
      ],
      "name": "transfer",
      "outputs": [
        {
          "internalType": "bool",
          "name": "",
          "type": "bool"
        }
      ],
      "stateMutability": "nonpayable",
      "type": "function"
    },
    {
      "inputs": [
        {
          "internalType": "address",
          "name": "sender",
          "type": "address"
        },
        {
          "internalType": "address",
          "name": "recipient",
          "type": "address"
        },
        {
          "internalType": "uint256",
          "name": "amount",
          "type": "uint256"
        }
      ],
      "name": "transferFrom",
      "outputs": [
        {
          "internalType": "bool",
          "name": "",
          "type": "bool"
        }
      ],
      "stateMutability": "nonpayable",
      "type": "function"
    },
    {
      "inputs": [
        {
          "internalType": "address",
          "name": "bridgeAdminAddress",
          "type": "address"
        },
        {
          "internalType": "address",
          "name": "pauserAddress",
          "type": "address"
        },
        {
          "internalType": "address",
          "name": "preAllocationAddress",
          "type": "address"
        },
        {
          "internalType": "uint256",
          "name": "preAllocationTokens",
          "type": "uint256"
        }
      ],
      "name": "initialize",
      "outputs": [],
      "stateMutability": "nonpayable",
      "type": "function"
    },
    {
      "inputs": [
        {
          "internalType": "address",
          "name": "to",
          "type": "address"
        },
        {
          "internalType": "uint256",
          "name": "tokens",
          "type": "uint256"
        }
      ],
      "name": "mint",
      "outputs": [
        {
          "internalType": "bool",
          "name": "success",
          "type": "bool"
        }
      ],
      "stateMutability": "nonpayable",
      "type": "function"
    },
    {
      "inputs": [
        {
          "internalType": "address",
          "name": "from",
          "type": "address"
        },
        {
          "internalType": "uint256",
          "name": "tokens",
          "type": "uint256"
        }
      ],
      "name": "burn",
      "outputs": [
        {
          "internalType": "bool",
          "name": "success",
          "type": "bool"
        }
      ],
      "stateMutability": "nonpayable",
      "type": "function"
    },
    {
      "inputs": [],
      "name": "pause",
      "outputs": [
        {
          "internalType": "bool",
          "name": "success",
          "type": "bool"
        }
      ],
      "stateMutability": "nonpayable",
      "type": "function"
    },
    {
      "inputs": [],
      "name": "unpause",
      "outputs": [
        {
          "internalType": "bool",
          "name": "success",
          "type": "bool"
        }
      ],
      "stateMutability": "nonpayable",
      "type": "function"
    }
  ],
  "bytecode": "0x608060405234801561001057600080fd5b50611f36806100206000396000f3fe608060405234801561001057600080fd5b50600436106101a95760003560e01c806370a08231116100f9578063a457c2d711610097578063cf756fdf11610071578063cf756fdf1461050a578063d547741f14610546578063dd62ed3e14610572578063e63ab1e9146105a0576101a9565b8063a457c2d714610495578063a9059cbb146104c1578063ca15c873146104ed576101a9565b806391d14854116100d357806391d148541461042d57806395d89b41146104595780639dc29fac14610461578063a217fddf1461048d576101a9565b806370a08231146103c05780638456cb59146103e65780639010d07c146103ee576101a9565b80632f2ff15d11610166578063395093511161014057806339509351146103585780633f4ba83a1461038457806340c10f191461038c5780635c975abb146103b8576101a9565b80632f2ff15d146102e0578063313ce5671461030e57806336568abe1461032c576101a9565b806306fdde03146101ae578063095ea7b31461022b578063118c38c71461026b57806318160ddd1461028557806323b872dd1461028d578063248a9ca3146102c3575b600080fd5b6101b66105a8565b6040805160208082528351818301528351919283929083019185019080838360005b838110156101f05781810151838201526020016101d8565b50505050905090810190601f16801561021d5780820380516001836020036101000a031916815260200191505b509250505060405180910390f35b6102576004803603604081101561024157600080fd5b506001600160a01b03813516906020013561063e565b604080519115158252519081900360200190f35b61027361065c565b60408051918252519081900360200190f35b61027361066e565b610257600480360360608110156102a357600080fd5b506001600160a01b03813581169160208101359091169060400135610674565b610273600480360360208110156102d957600080fd5b50356106fb565b61030c600480360360408110156102f657600080fd5b50803590602001356001600160a01b0316610710565b005b61031661077c565b6040805160ff9092168252519081900360200190f35b61030c6004803603604081101561034257600080fd5b50803590602001356001600160a01b0316610785565b6102576004803603604081101561036e57600080fd5b506001600160a01b0381351690602001356107e6565b610257610834565b610257600480360360408110156103a257600080fd5b506001600160a01b038135169060200135610899565b610257610947565b610273600480360360208110156103d657600080fd5b50356001600160a01b0316610950565b61025761096b565b6104116004803603604081101561040457600080fd5b50803590602001356109ca565b604080516001600160a01b039092168252519081900360200190f35b6102576004803603604081101561044357600080fd5b50803590602001356001600160a01b03166109e9565b6101b6610a01565b6102576004803603604081101561047757600080fd5b506001600160a01b038135169060200135610a62565b610273610b10565b610257600480360360408110156104ab57600080fd5b506001600160a01b038135169060200135610b15565b610257600480360360408110156104d757600080fd5b506001600160a01b038135169060200135610b7d565b6102736004803603602081101561050357600080fd5b5035610b91565b61030c6004803603608081101561052057600080fd5b506001600160a01b03813581169160208101358216916040820135169060600135610ba8565b61030c6004803603604081101561055c57600080fd5b50803590602001356001600160a01b0316610d02565b6102736004803603604081101561058857600080fd5b506001600160a01b0381358116916020013516610d5b565b610273610d86565b60368054604080516020601f60026000196101006001881615020190951694909404938401819004810282018101909252828152606093909290918301828280156106345780601f1061060957610100808354040283529160200191610634565b820191906000526020600020905b81548152906001019060200180831161061757829003601f168201915b5050505050905090565b600061065261064b610d98565b8484610d9c565b5060015b92915050565b600080516020611e2383398151915281565b60355490565b6000610681848484610e88565b6106f18461068d610d98565b6106ec85604051806060016040528060288152602001611ddb602891396001600160a01b038a166000908152603460205260408120906106cb610d98565b6001600160a01b031681526020810191909152604001600020549190610fe5565b610d9c565b5060019392505050565b60009081526097602052604090206002015490565b6000828152609760205260409020600201546107339061072e610d98565b6109e9565b61076e5760405162461bcd60e51b815260040180806020018281038252602f815260200180611c38602f913960400191505060405180910390fd5b610778828261107c565b5050565b60385460ff1690565b61078d610d98565b6001600160a01b0316816001600160a01b0316146107dc5760405162461bcd60e51b815260040180806020018281038252602f815260200180611ed2602f913960400191505060405180910390fd5b61077882826110e5565b60006106526107f3610d98565b846106ec8560346000610804610d98565b6001600160a01b03908116825260208083019390935260409182016000908120918c16815292529020549061114e565b6000610850600080516020611e0383398151915261072e610d98565b61088b5760405162461bcd60e51b815260040180806020018281038252602f815260200180611d56602f913960400191505060405180910390fd5b6108936111a8565b50600190565b60006108a3610947565b156108e8576040805162461bcd60e51b815260206004820152601060248201526f14185d5cd8589b194e881c185d5cd95960821b604482015290519081900360640190fd5b610902600080516020611e2383398151915261072e610d98565b61093d5760405162461bcd60e51b8152600401808060200182810382526028815260200180611cfe6028913960400191505060405180910390fd5b6106528383611248565b60655460ff1690565b6001600160a01b031660009081526033602052604090205490565b6000610987600080516020611e0383398151915261072e610d98565b6109c25760405162461bcd60e51b815260040180806020018281038252602d815260200180611cd1602d913960400191505060405180910390fd5b61089361133a565b60008281526097602052604081206109e290836113bd565b9392505050565b60008281526097602052604081206109e290836113c9565b60378054604080516020601f60026000196101006001881615020190951694909404938401819004810282018101909252828152606093909290918301828280156106345780601f1061060957610100808354040283529160200191610634565b6000610a6c610947565b15610ab1576040805162461bcd60e51b815260206004820152601060248201526f14185d5cd8589b194e881c185d5cd95960821b604482015290519081900360640190fd5b610acb600080516020611e2383398151915261072e610d98565b610b065760405162461bcd60e51b8152600401808060200182810382526028815260200180611db36028913960400191505060405180910390fd5b61065283836113de565b600081565b6000610652610b22610d98565b846106ec85604051806060016040528060258152602001611ead6025913960346000610b4c610d98565b6001600160a01b03908116825260208083019390935260409182016000908120918d16815292529020549190610fe5565b6000610652610b8a610d98565b8484610e88565b6000818152609760205260408120610656906114da565b600054610100900460ff1680610bc15750610bc16114e5565b80610bcf575060005460ff16155b610c0a5760405162461bcd60e51b815260040180806020018281038252602e815260200180611d85602e913960400191505060405180910390fd5b600054610100900460ff16158015610c35576000805460ff1961ff0019909116610100171660011790555b610c836040518060400160405280601081526020016f14195c9cda5cdd195b98d9481614149560821b815250604051806040016040528060048152602001631614149560e21b8152506114f6565b610c8b6115ac565b610c9361165e565b610ca56000610ca0610d98565b61076e565b610cbd600080516020611e238339815191528661076e565b610cd5600080516020611e038339815191528561076e565b610cdf60066116fb565b610ce98383611248565b8015610cfb576000805461ff00191690555b5050505050565b600082815260976020526040902060020154610d209061072e610d98565b6107dc5760405162461bcd60e51b8152600401808060200182810382526030815260200180611d266030913960400191505060405180910390fd5b6001600160a01b03918216600090815260346020908152604080832093909416825291909152205490565b600080516020611e0383398151915281565b3390565b6001600160a01b038316610de15760405162461bcd60e51b8152600401808060200182810382526024815260200180611e896024913960400191505060405180910390fd5b6001600160a01b038216610e265760405162461bcd60e51b8152600401808060200182810382526022815260200180611c896022913960400191505060405180910390fd5b6001600160a01b03808416600081815260346020908152604080832094871680845294825291829020859055815185815291517f8c5be1e5ebec7d5bd14f71427d1e84f3dd0314c0f7b2291e5b200ac8c7c3b9259281900390910190a3505050565b6001600160a01b038316610ecd5760405162461bcd60e51b8152600401808060200182810382526025815260200180611e646025913960400191505060405180910390fd5b6001600160a01b038216610f125760405162461bcd60e51b8152600401808060200182810382526023815260200180611c156023913960400191505060405180910390fd5b610f1d8383836115a7565b610f5a81604051806060016040528060268152602001611cab602691396001600160a01b0386166000908152603360205260409020549190610fe5565b6001600160a01b038085166000908152603360205260408082209390935590841681522054610f89908261114e565b6001600160a01b0380841660008181526033602090815260409182902094909455805185815290519193928716927fddf252ad1be2c89b69c2b068fc378daa952ba7f163c4a11628f55a4df523b3ef92918290030190a3505050565b600081848411156110745760405162461bcd60e51b81526004018080602001828103825283818151815260200191508051906020019080838360005b83811015611039578181015183820152602001611021565b50505050905090810190601f1680156110665780820380516001836020036101000a031916815260200191505b509250505060405180910390fd5b505050900390565b60008281526097602052604090206110949082611711565b15610778576110a1610d98565b6001600160a01b0316816001600160a01b0316837f2f8788117e7eff1d82e926ec794901d17c78024a50270940304540a733656f0d60405160405180910390a45050565b60008281526097602052604090206110fd9082611726565b156107785761110a610d98565b6001600160a01b0316816001600160a01b0316837ff6391f5c32d9c69d2a47ea670b442974b53935d1edc7fd64eb21e047a839171b60405160405180910390a45050565b6000828201838110156109e2576040805162461bcd60e51b815260206004820152601b60248201527f536166654d6174683a206164646974696f6e206f766572666c6f770000000000604482015290519081900360640190fd5b6111b0610947565b6111f8576040805162461bcd60e51b815260206004820152601460248201527314185d5cd8589b194e881b9bdd081c185d5cd95960621b604482015290519081900360640190fd5b6065805460ff191690557f5db9ee0a495bf2e6ff9c91a7834c1ba4fdd244a5e8aa4e537bd38aeae4b073aa61122b610d98565b604080516001600160a01b039092168252519081900360200190a1565b6001600160a01b0382166112a3576040805162461bcd60e51b815260206004820152601f60248201527f45524332303a206d696e7420746f20746865207a65726f206164647265737300604482015290519081900360640190fd5b6112af600083836115a7565b6035546112bc908261114e565b6035556001600160a01b0382166000908152603360205260409020546112e2908261114e565b6001600160a01b03831660008181526033602090815260408083209490945583518581529351929391927fddf252ad1be2c89b69c2b068fc378daa952ba7f163c4a11628f55a4df523b3ef9281900390910190a35050565b611342610947565b15611387576040805162461bcd60e51b815260206004820152601060248201526f14185d5cd8589b194e881c185d5cd95960821b604482015290519081900360640190fd5b6065805460ff191660011790557f62e78cea01bee320cd4e420270b5ea74000d11b0c9f74754ebdbfc544b05a25861122b610d98565b60006109e2838361173b565b60006109e2836001600160a01b03841661179f565b6001600160a01b0382166114235760405162461bcd60e51b8152600401808060200182810382526021815260200180611e436021913960400191505060405180910390fd5b61142f826000836115a7565b61146c81604051806060016040528060228152602001611c67602291396001600160a01b0385166000908152603360205260409020549190610fe5565b6001600160a01b03831660009081526033602052604090205560355461149290826117b7565b6035556040805182815290516000916001600160a01b038516917fddf252ad1be2c89b69c2b068fc378daa952ba7f163c4a11628f55a4df523b3ef9181900360200190a35050565b600061065682611814565b60006114f030611818565b15905090565b600054610100900460ff168061150f575061150f6114e5565b8061151d575060005460ff16155b6115585760405162461bcd60e51b815260040180806020018281038252602e815260200180611d85602e913960400191505060405180910390fd5b600054610100900460ff16158015611583576000805460ff1961ff0019909116610100171660011790555b61158b61181e565b61159583836118be565b80156115a7576000805461ff00191690555b505050565b600054610100900460ff16806115c557506115c56114e5565b806115d3575060005460ff16155b61160e5760405162461bcd60e51b815260040180806020018281038252602e815260200180611d85602e913960400191505060405180910390fd5b600054610100900460ff16158015611639576000805460ff1961ff0019909116610100171660011790555b61164161181e565b61164961181e565b801561165b576000805461ff00191690555b50565b600054610100900460ff168061167757506116776114e5565b80611685575060005460ff16155b6116c05760405162461bcd60e51b815260040180806020018281038252602e815260200180611d85602e913960400191505060405180910390fd5b600054610100900460ff161580156116eb576000805460ff1961ff0019909116610100171660011790555b6116f361181e565b611649611996565b6038805460ff191660ff92909216919091179055565b60006109e2836001600160a01b038416611a41565b60006109e2836001600160a01b038416611a8b565b8154600090821061177d5760405162461bcd60e51b8152600401808060200182810382526022815260200180611bf36022913960400191505060405180910390fd5b82600001828154811061178c57fe5b9060005260206000200154905092915050565b60009081526001919091016020526040902054151590565b60008282111561180e576040805162461bcd60e51b815260206004820152601e60248201527f536166654d6174683a207375627472616374696f6e206f766572666c6f770000604482015290519081900360640190fd5b50900390565b5490565b3b151590565b600054610100900460ff168061183757506118376114e5565b80611845575060005460ff16155b6118805760405162461bcd60e51b815260040180806020018281038252602e815260200180611d85602e913960400191505060405180910390fd5b600054610100900460ff16158015611649576000805460ff1961ff001990911661010017166001179055801561165b576000805461ff001916905550565b600054610100900460ff16806118d757506118d76114e5565b806118e5575060005460ff16155b6119205760405162461bcd60e51b815260040180806020018281038252602e815260200180611d85602e913960400191505060405180910390fd5b600054610100900460ff1615801561194b576000805460ff1961ff0019909116610100171660011790555b825161195e906036906020860190611b51565b508151611972906037906020850190611b51565b506038805460ff1916601217905580156115a7576000805461ff0019169055505050565b600054610100900460ff16806119af57506119af6114e5565b806119bd575060005460ff16155b6119f85760405162461bcd60e51b815260040180806020018281038252602e815260200180611d85602e913960400191505060405180910390fd5b600054610100900460ff16158015611a23576000805460ff1961ff0019909116610100171660011790555b6065805460ff19169055801561165b576000805461ff001916905550565b6000611a4d838361179f565b611a8357508154600181810184556000848152602080822090930184905584548482528286019093526040902091909155610656565b506000610656565b60008181526001830160205260408120548015611b475783546000198083019190810190600090879083908110611abe57fe5b9060005260206000200154905080876000018481548110611adb57fe5b600091825260208083209091019290925582815260018981019092526040902090840190558654879080611b0b57fe5b60019003818190600052602060002001600090559055866001016000878152602001908152602001600020600090556001945050505050610656565b6000915050610656565b828054600181600116156101000203166002900490600052602060002090601f016020900481019282611b875760008555611bcd565b82601f10611ba057805160ff1916838001178555611bcd565b82800160010185558215611bcd579182015b82811115611bcd578251825591602001919060010190611bb2565b50611bd9929150611bdd565b5090565b5b80821115611bd95760008155600101611bde56fe456e756d657261626c655365743a20696e646578206f7574206f6620626f756e647345524332303a207472616e7366657220746f20746865207a65726f2061646472657373416363657373436f6e74726f6c3a2073656e646572206d75737420626520616e2061646d696e20746f206772616e7445524332303a206275726e20616d6f756e7420657863656564732062616c616e636545524332303a20617070726f766520746f20746865207a65726f206164647265737345524332303a207472616e7366657220616d6f756e7420657863656564732062616c616e6365585052543a2055736572206e6f7420617574686f726973656420746f20706175736520636f6e7472616374732e585052543a2055736572206e6f7420617574686f726973656420746f206d696e7420746f6b656e73416363657373436f6e74726f6c3a2073656e646572206d75737420626520616e2061646d696e20746f207265766f6b65585052543a2055736572206e6f7420617574686f726973656420746f20756e706175736520636f6e7472616374732e496e697469616c697a61626c653a20636f6e747261637420697320616c726561647920696e697469616c697a6564585052543a2055736572206e6f7420617574686f726973656420746f206275726e20746f6b656e7345524332303a207472616e7366657220616d6f756e74206578636565647320616c6c6f77616e636565d7a28e3265b37a6474929f336521b332c1681b933f6cb9f3376673440d862a751b795d24b92e3d92d1d0d8f2885f4e9c9c269da350af36ae6b49069babf4bf45524332303a206275726e2066726f6d20746865207a65726f206164647265737345524332303a207472616e736665722066726f6d20746865207a65726f206164647265737345524332303a20617070726f76652066726f6d20746865207a65726f206164647265737345524332303a2064656372656173656420616c6c6f77616e63652062656c6f77207a65726f416363657373436f6e74726f6c3a2063616e206f6e6c792072656e6f756e636520726f6c657320666f722073656c66a264697066735822122057a25ad4170d30a226557f46f28422b485f94924e52c63514b3bf3a86500ca5264736f6c63430007060033",
  "immutableReferences": {},
  "source": "// SPDX-License-Identifier: UNLICENSED\npragma solidity ^0.7.0;\n\nimport \"@openzeppelin/contracts-upgradeable/token/ERC20/ERC20Upgradeable.sol\";\nimport \"@openzeppelin/contracts-upgradeable/math/SafeMathUpgradeable.sol\";\nimport \"@openzeppelin/contracts-upgradeable/utils/PausableUpgradeable.sol\";\nimport \"@openzeppelin/contracts-upgradeable/access/AccessControlUpgradeable.sol\";\n\ncontract XPRT is ERC20Upgradeable, PausableUpgradeable, AccessControlUpgradeable {\n\n    using SafeMathUpgradeable for uint256;\n\n    bytes32 public constant BRIDGE_ADMIN_ROLE = keccak256(\"BRIDGE_ADMIN_ROLE\");\n    bytes32 public constant PAUSER_ROLE = keccak256(\"PAUSER_ROLE\");\n\n    /**\n   * @dev Constructor for initializing the UToken contract.\n   * @param bridgeAdminAddress - address of the bridge admin.\n   * @param pauserAddress - address of the pauser admin.\n   */\n    function initialize(address bridgeAdminAddress, address pauserAddress, address preAllocationAddress, uint256 preAllocationTokens) public virtual initializer {\n        __ERC20_init(\"Persistence XPRT\", \"XPRT\");\n        __AccessControl_init();\n        __Pausable_init();\n        _setupRole(DEFAULT_ADMIN_ROLE, _msgSender());\n        _setupRole(BRIDGE_ADMIN_ROLE, bridgeAdminAddress);\n        _setupRole(PAUSER_ROLE, pauserAddress);\n        _setupDecimals(6);\n        _mint(preAllocationAddress, preAllocationTokens);\n    }\n\n    /**\n    * @dev Mint new utokens for the provided 'address' and 'amount'\n    * @param to: account address, amount: number of tokens\n    *\n    * Emits a {MintTokens} event with 'to' set to address and 'amount' set to amount of tokens.\n    *\n    * Requirements:\n    *\n    * - `amount` cannot be less than zero.\n    *\n    */\n    function mint(address to, uint256 tokens) public virtual whenNotPaused returns (bool success) {\n        require(hasRole(BRIDGE_ADMIN_ROLE, _msgSender()), \"XPRT: User not authorised to mint tokens\");\n        _mint(to, tokens);\n        return true;\n    }\n\n    /*\n     * @dev Burn utokens for the provided 'address' and 'amount'\n     * @param to: account address, amount: number of tokens\n     *\n     * Emits a {BurnTokens} event with 'to' set to address and 'amount' set to amount of tokens.\n     *\n     * Requirements:\n     *\n     * - `amount` cannot be less than zero.\n     *\n     */\n    function burn(address from, uint256 tokens) public virtual whenNotPaused returns (bool success) {\n        require(hasRole(BRIDGE_ADMIN_ROLE, _msgSender()), \"XPRT: User not authorised to burn tokens\");\n        _burn(from, tokens);\n        return true;\n    }\n\n    /**\n      * @dev Triggers stopped state.\n      *\n      * Requirements:\n      *\n      * - The contract must not be paused.\n      */\n    function pause() public virtual returns (bool success) {\n        require(hasRole(PAUSER_ROLE, _msgSender()), \"XPRT: User not authorised to pause contracts.\");\n        _pause();\n        return true;\n    }\n\n    /**\n     * @dev Returns to normal state.\n     *\n     * Requirements:\n     *\n     * - The contract must be paused.\n     */\n    function unpause() public virtual returns (bool success) {\n        require(hasRole(PAUSER_ROLE, _msgSender()), \"XPRT: User not authorised to unpause contracts.\");\n        _unpause();\n        return true;\n    }\n}",
  "sourcePath": "/home/aditimahesh/Documents/Work/Persistence/go/src/github.com/persistenceOne/ERC20/contracts/XPRT.sol",
  "compiler": {
    "name": "solc",
    "version": "0.7.6+commit.7338295f.Emscripten.clang"
  },
  "schemaVersion": "3.4.3",
  "updatedAt": "2021-11-15T10:12:39.951Z",
  "devdoc": {
    "kind": "dev",
    "methods": {
      "allowance(address,address)": {
        "details": "See {IERC20-allowance}."
      },
      "approve(address,uint256)": {
        "details": "See {IERC20-approve}. Requirements: - `spender` cannot be the zero address."
      },
      "balanceOf(address)": {
        "details": "See {IERC20-balanceOf}."
      },
      "decimals()": {
        "details": "Returns the number of decimals used to get its user representation. For example, if `decimals` equals `2`, a balance of `505` tokens should be displayed to a user as `5,05` (`505 / 10 ** 2`). Tokens usually opt for a value of 18, imitating the relationship between Ether and Wei. This is the value {ERC20} uses, unless {_setupDecimals} is called. NOTE: This information is only used for _display_ purposes: it in no way affects any of the arithmetic of the contract, including {IERC20-balanceOf} and {IERC20-transfer}."
      },
      "decreaseAllowance(address,uint256)": {
        "details": "Atomically decreases the allowance granted to `spender` by the caller. This is an alternative to {approve} that can be used as a mitigation for problems described in {IERC20-approve}. Emits an {Approval} event indicating the updated allowance. Requirements: - `spender` cannot be the zero address. - `spender` must have allowance for the caller of at least `subtractedValue`."
      },
      "getRoleAdmin(bytes32)": {
        "details": "Returns the admin role that controls `role`. See {grantRole} and {revokeRole}. To change a role's admin, use {_setRoleAdmin}."
      },
      "getRoleMember(bytes32,uint256)": {
        "details": "Returns one of the accounts that have `role`. `index` must be a value between 0 and {getRoleMemberCount}, non-inclusive. Role bearers are not sorted in any particular way, and their ordering may change at any point. WARNING: When using {getRoleMember} and {getRoleMemberCount}, make sure you perform all queries on the same block. See the following https://forum.openzeppelin.com/t/iterating-over-elements-on-enumerableset-in-openzeppelin-contracts/2296[forum post] for more information."
      },
      "getRoleMemberCount(bytes32)": {
        "details": "Returns the number of accounts that have `role`. Can be used together with {getRoleMember} to enumerate all bearers of a role."
      },
      "grantRole(bytes32,address)": {
        "details": "Grants `role` to `account`. If `account` had not been already granted `role`, emits a {RoleGranted} event. Requirements: - the caller must have ``role``'s admin role."
      },
      "hasRole(bytes32,address)": {
        "details": "Returns `true` if `account` has been granted `role`."
      },
      "increaseAllowance(address,uint256)": {
        "details": "Atomically increases the allowance granted to `spender` by the caller. This is an alternative to {approve} that can be used as a mitigation for problems described in {IERC20-approve}. Emits an {Approval} event indicating the updated allowance. Requirements: - `spender` cannot be the zero address."
      },
      "initialize(address,address,address,uint256)": {
        "details": "Constructor for initializing the UToken contract.",
        "params": {
          "bridgeAdminAddress": "- address of the bridge admin.",
          "pauserAddress": "- address of the pauser admin."
        }
      },
      "mint(address,uint256)": {
        "details": "Mint new utokens for the provided 'address' and 'amount'",
        "params": {
          "to": ": account address, amount: number of tokens Emits a {MintTokens} event with 'to' set to address and 'amount' set to amount of tokens. Requirements: - `amount` cannot be less than zero."
        }
      },
      "name()": {
        "details": "Returns the name of the token."
      },
      "pause()": {
        "details": "Triggers stopped state. Requirements: - The contract must not be paused."
      },
      "paused()": {
        "details": "Returns true if the contract is paused, and false otherwise."
      },
      "renounceRole(bytes32,address)": {
        "details": "Revokes `role` from the calling account. Roles are often managed via {grantRole} and {revokeRole}: this function's purpose is to provide a mechanism for accounts to lose their privileges if they are compromised (such as when a trusted device is misplaced). If the calling account had been granted `role`, emits a {RoleRevoked} event. Requirements: - the caller must be `account`."
      },
      "revokeRole(bytes32,address)": {
        "details": "Revokes `role` from `account`. If `account` had been granted `role`, emits a {RoleRevoked} event. Requirements: - the caller must have ``role``'s admin role."
      },
      "symbol()": {
        "details": "Returns the symbol of the token, usually a shorter version of the name."
      },
      "totalSupply()": {
        "details": "See {IERC20-totalSupply}."
      },
      "transfer(address,uint256)": {
        "details": "See {IERC20-transfer}. Requirements: - `recipient` cannot be the zero address. - the caller must have a balance of at least `amount`."
      },
      "transferFrom(address,address,uint256)": {
        "details": "See {IERC20-transferFrom}. Emits an {Approval} event indicating the updated allowance. This is not required by the EIP. See the note at the beginning of {ERC20}. Requirements: - `sender` and `recipient` cannot be the zero address. - `sender` must have a balance of at least `amount`. - the caller must have allowance for ``sender``'s tokens of at least `amount`."
      },
      "unpause()": {
        "details": "Returns to normal state. Requirements: - The contract must be paused."
      }
    },
    "version": 1
  },
  "userdoc": {
    "kind": "user",
    "methods": {},
    "version": 1
  }
}