{
  "contractName": "XPRT",
  "abi": [
    {
      "anonymous": false,
      "inputs": [
        {
          "indexed": true,
          "internalType": "address",
          "name": "owner",
          "type": "address"
        },
        {
          "indexed": true,
          "internalType": "address",
          "name": "spender",
          "type": "address"
        },
        {
          "indexed": false,
          "internalType": "uint256",
          "name": "value",
          "type": "uint256"
        }
      ],
      "name": "Approval",
      "type": "event"
    },
    {
      "anonymous": false,
      "inputs": [
        {
          "indexed": false,
          "internalType": "address",
          "name": "account",
          "type": "address"
        }
      ],
      "name": "Paused",
      "type": "event"
    },
    {
      "anonymous": false,
      "inputs": [
        {
          "indexed": true,
          "internalType": "bytes32",
          "name": "role",
          "type": "bytes32"
        },
        {
          "indexed": true,
          "internalType": "bytes32",
          "name": "previousAdminRole",
          "type": "bytes32"
        },
        {
          "indexed": true,
          "internalType": "bytes32",
          "name": "newAdminRole",
          "type": "bytes32"
        }
      ],
      "name": "RoleAdminChanged",
      "type": "event"
    },
    {
      "anonymous": false,
      "inputs": [
        {
          "indexed": true,
          "internalType": "bytes32",
          "name": "role",
          "type": "bytes32"
        },
        {
          "indexed": true,
          "internalType": "address",
          "name": "account",
          "type": "address"
        },
        {
          "indexed": true,
          "internalType": "address",
          "name": "sender",
          "type": "address"
        }
      ],
      "name": "RoleGranted",
      "type": "event"
    },
    {
      "anonymous": false,
      "inputs": [
        {
          "indexed": true,
          "internalType": "bytes32",
          "name": "role",
          "type": "bytes32"
        },
        {
          "indexed": true,
          "internalType": "address",
          "name": "account",
          "type": "address"
        },
        {
          "indexed": true,
          "internalType": "address",
          "name": "sender",
          "type": "address"
        }
      ],
      "name": "RoleRevoked",
      "type": "event"
    },
    {
      "anonymous": false,
      "inputs": [
        {
          "indexed": true,
          "internalType": "address",
          "name": "from",
          "type": "address"
        },
        {
          "indexed": true,
          "internalType": "address",
          "name": "to",
          "type": "address"
        },
        {
          "indexed": false,
          "internalType": "uint256",
          "name": "value",
          "type": "uint256"
        }
      ],
      "name": "Transfer",
      "type": "event"
    },
    {
      "anonymous": false,
      "inputs": [
        {
          "indexed": false,
          "internalType": "address",
          "name": "account",
          "type": "address"
        }
      ],
      "name": "Unpaused",
      "type": "event"
    },
    {
      "inputs": [],
      "name": "BRIDGE_ADMIN_ROLE",
      "outputs": [
        {
          "internalType": "bytes32",
          "name": "",
          "type": "bytes32"
        }
      ],
      "stateMutability": "view",
      "type": "function"
    },
    {
      "inputs": [],
      "name": "DEFAULT_ADMIN_ROLE",
      "outputs": [
        {
          "internalType": "bytes32",
          "name": "",
          "type": "bytes32"
        }
      ],
      "stateMutability": "view",
      "type": "function"
    },
    {
      "inputs": [],
      "name": "PAUSER_ROLE",
      "outputs": [
        {
          "internalType": "bytes32",
          "name": "",
          "type": "bytes32"
        }
      ],
      "stateMutability": "view",
      "type": "function"
    },
    {
      "inputs": [
        {
          "internalType": "address",
          "name": "owner",
          "type": "address"
        },
        {
          "internalType": "address",
          "name": "spender",
          "type": "address"
        }
      ],
      "name": "allowance",
      "outputs": [
        {
          "internalType": "uint256",
          "name": "",
          "type": "uint256"
        }
      ],
      "stateMutability": "view",
      "type": "function"
    },
    {
      "inputs": [
        {
          "internalType": "address",
          "name": "spender",
          "type": "address"
        },
        {
          "internalType": "uint256",
          "name": "amount",
          "type": "uint256"
        }
      ],
      "name": "approve",
      "outputs": [
        {
          "internalType": "bool",
          "name": "",
          "type": "bool"
        }
      ],
      "stateMutability": "nonpayable",
      "type": "function"
    },
    {
      "inputs": [
        {
          "internalType": "address",
          "name": "account",
          "type": "address"
        }
      ],
      "name": "balanceOf",
      "outputs": [
        {
          "internalType": "uint256",
          "name": "",
          "type": "uint256"
        }
      ],
      "stateMutability": "view",
      "type": "function"
    },
    {
      "inputs": [],
      "name": "decimals",
      "outputs": [
        {
          "internalType": "uint8",
          "name": "",
          "type": "uint8"
        }
      ],
      "stateMutability": "view",
      "type": "function"
    },
    {
      "inputs": [
        {
          "internalType": "address",
          "name": "spender",
          "type": "address"
        },
        {
          "internalType": "uint256",
          "name": "subtractedValue",
          "type": "uint256"
        }
      ],
      "name": "decreaseAllowance",
      "outputs": [
        {
          "internalType": "bool",
          "name": "",
          "type": "bool"
        }
      ],
      "stateMutability": "nonpayable",
      "type": "function"
    },
    {
      "inputs": [
        {
          "internalType": "bytes32",
          "name": "role",
          "type": "bytes32"
        }
      ],
      "name": "getRoleAdmin",
      "outputs": [
        {
          "internalType": "bytes32",
          "name": "",
          "type": "bytes32"
        }
      ],
      "stateMutability": "view",
      "type": "function"
    },
    {
      "inputs": [
        {
          "internalType": "bytes32",
          "name": "role",
          "type": "bytes32"
        },
        {
          "internalType": "uint256",
          "name": "index",
          "type": "uint256"
        }
      ],
      "name": "getRoleMember",
      "outputs": [
        {
          "internalType": "address",
          "name": "",
          "type": "address"
        }
      ],
      "stateMutability": "view",
      "type": "function"
    },
    {
      "inputs": [
        {
          "internalType": "bytes32",
          "name": "role",
          "type": "bytes32"
        }
      ],
      "name": "getRoleMemberCount",
      "outputs": [
        {
          "internalType": "uint256",
          "name": "",
          "type": "uint256"
        }
      ],
      "stateMutability": "view",
      "type": "function"
    },
    {
      "inputs": [
        {
          "internalType": "bytes32",
          "name": "role",
          "type": "bytes32"
        },
        {
          "internalType": "address",
          "name": "account",
          "type": "address"
        }
      ],
      "name": "grantRole",
      "outputs": [],
      "stateMutability": "nonpayable",
      "type": "function"
    },
    {
      "inputs": [
        {
          "internalType": "bytes32",
          "name": "role",
          "type": "bytes32"
        },
        {
          "internalType": "address",
          "name": "account",
          "type": "address"
        }
      ],
      "name": "hasRole",
      "outputs": [
        {
          "internalType": "bool",
          "name": "",
          "type": "bool"
        }
      ],
      "stateMutability": "view",
      "type": "function"
    },
    {
      "inputs": [
        {
          "internalType": "address",
          "name": "spender",
          "type": "address"
        },
        {
          "internalType": "uint256",
          "name": "addedValue",
          "type": "uint256"
        }
      ],
      "name": "increaseAllowance",
      "outputs": [
        {
          "internalType": "bool",
          "name": "",
          "type": "bool"
        }
      ],
      "stateMutability": "nonpayable",
      "type": "function"
    },
    {
      "inputs": [],
      "name": "name",
      "outputs": [
        {
          "internalType": "string",
          "name": "",
          "type": "string"
        }
      ],
      "stateMutability": "view",
      "type": "function"
    },
    {
      "inputs": [],
      "name": "paused",
      "outputs": [
        {
          "internalType": "bool",
          "name": "",
          "type": "bool"
        }
      ],
      "stateMutability": "view",
      "type": "function"
    },
    {
      "inputs": [
        {
          "internalType": "bytes32",
          "name": "role",
          "type": "bytes32"
        },
        {
          "internalType": "address",
          "name": "account",
          "type": "address"
        }
      ],
      "name": "renounceRole",
      "outputs": [],
      "stateMutability": "nonpayable",
      "type": "function"
    },
    {
      "inputs": [
        {
          "internalType": "bytes32",
          "name": "role",
          "type": "bytes32"
        },
        {
          "internalType": "address",
          "name": "account",
          "type": "address"
        }
      ],
      "name": "revokeRole",
      "outputs": [],
      "stateMutability": "nonpayable",
      "type": "function"
    },
    {
      "inputs": [],
      "name": "symbol",
      "outputs": [
        {
          "internalType": "string",
          "name": "",
          "type": "string"
        }
      ],
      "stateMutability": "view",
      "type": "function"
    },
    {
      "inputs": [],
      "name": "totalSupply",
      "outputs": [
        {
          "internalType": "uint256",
          "name": "",
          "type": "uint256"
        }
      ],
      "stateMutability": "view",
      "type": "function"
    },
    {
      "inputs": [
        {
          "internalType": "address",
          "name": "recipient",
          "type": "address"
        },
        {
          "internalType": "uint256",
          "name": "amount",
          "type": "uint256"
        }
      ],
      "name": "transfer",
      "outputs": [
        {
          "internalType": "bool",
          "name": "",
          "type": "bool"
        }
      ],
      "stateMutability": "nonpayable",
      "type": "function"
    },
    {
      "inputs": [
        {
          "internalType": "address",
          "name": "sender",
          "type": "address"
        },
        {
          "internalType": "address",
          "name": "recipient",
          "type": "address"
        },
        {
          "internalType": "uint256",
          "name": "amount",
          "type": "uint256"
        }
      ],
      "name": "transferFrom",
      "outputs": [
        {
          "internalType": "bool",
          "name": "",
          "type": "bool"
        }
      ],
      "stateMutability": "nonpayable",
      "type": "function"
    },
    {
      "inputs": [
        {
          "internalType": "address",
          "name": "bridgeAdminAddress",
          "type": "address"
        },
        {
          "internalType": "address",
          "name": "pauserAddress",
          "type": "address"
        },
        {
          "internalType": "address",
          "name": "preAllocationAddress",
          "type": "address"
        },
        {
          "internalType": "uint256",
          "name": "preAllocationTokens",
          "type": "uint256"
        }
      ],
      "name": "initialize",
      "outputs": [],
      "stateMutability": "nonpayable",
      "type": "function"
    },
    {
      "inputs": [
        {
          "internalType": "address",
          "name": "to",
          "type": "address"
        },
        {
          "internalType": "uint256",
          "name": "tokens",
          "type": "uint256"
        }
      ],
      "name": "mint",
      "outputs": [
        {
          "internalType": "bool",
          "name": "success",
          "type": "bool"
        }
      ],
      "stateMutability": "nonpayable",
      "type": "function"
    },
    {
      "inputs": [
        {
          "internalType": "address",
          "name": "from",
          "type": "address"
        },
        {
          "internalType": "uint256",
          "name": "tokens",
          "type": "uint256"
        }
      ],
      "name": "burn",
      "outputs": [
        {
          "internalType": "bool",
          "name": "success",
          "type": "bool"
        }
      ],
      "stateMutability": "nonpayable",
      "type": "function"
    },
    {
      "inputs": [],
      "name": "pause",
      "outputs": [
        {
          "internalType": "bool",
          "name": "success",
          "type": "bool"
        }
      ],
      "stateMutability": "nonpayable",
      "type": "function"
    },
    {
      "inputs": [],
      "name": "unpause",
      "outputs": [
        {
          "internalType": "bool",
          "name": "success",
          "type": "bool"
        }
      ],
      "stateMutability": "nonpayable",
      "type": "function"
    }
  ],
  "bytecode": "0x608060405234801561001057600080fd5b50611e82806100206000396000f3fe608060405234801561001057600080fd5b50600436106101a95760003560e01c806370a08231116100f9578063a457c2d711610097578063cf756fdf11610071578063cf756fdf1461050a578063d547741f14610546578063dd62ed3e14610572578063e63ab1e9146105a0576101a9565b8063a457c2d714610495578063a9059cbb146104c1578063ca15c873146104ed576101a9565b806391d14854116100d357806391d148541461042d57806395d89b41146104595780639dc29fac14610461578063a217fddf1461048d576101a9565b806370a08231146103c05780638456cb59146103e65780639010d07c146103ee576101a9565b80632f2ff15d11610166578063395093511161014057806339509351146103585780633f4ba83a1461038457806340c10f191461038c5780635c975abb146103b8576101a9565b80632f2ff15d146102e0578063313ce5671461030e57806336568abe1461032c576101a9565b806306fdde03146101ae578063095ea7b31461022b578063118c38c71461026b57806318160ddd1461028557806323b872dd1461028d578063248a9ca3146102c3575b600080fd5b6101b66105a8565b6040805160208082528351818301528351919283929083019185019080838360005b838110156101f05781810151838201526020016101d8565b50505050905090810190601f16801561021d5780820380516001836020036101000a031916815260200191505b509250505060405180910390f35b6102576004803603604081101561024157600080fd5b506001600160a01b03813516906020013561063e565b604080519115158252519081900360200190f35b61027361065c565b60408051918252519081900360200190f35b61027361066e565b610257600480360360608110156102a357600080fd5b506001600160a01b03813581169160208101359091169060400135610674565b610273600480360360208110156102d957600080fd5b50356106fb565b61030c600480360360408110156102f657600080fd5b50803590602001356001600160a01b0316610710565b005b61031661077c565b6040805160ff9092168252519081900360200190f35b61030c6004803603604081101561034257600080fd5b50803590602001356001600160a01b0316610785565b6102576004803603604081101561036e57600080fd5b506001600160a01b0381351690602001356107e6565b610257610834565b610257600480360360408110156103a257600080fd5b506001600160a01b038135169060200135610897565b610257610943565b610273600480360360208110156103d657600080fd5b50356001600160a01b031661094c565b610257610967565b6104116004803603604081101561040457600080fd5b50803590602001356109c4565b604080516001600160a01b039092168252519081900360200190f35b6102576004803603604081101561044357600080fd5b50803590602001356001600160a01b03166109e3565b6101b66109fb565b6102576004803603604081101561047757600080fd5b506001600160a01b038135169060200135610a5c565b610273610b08565b610257600480360360408110156104ab57600080fd5b506001600160a01b038135169060200135610b0d565b610257600480360360408110156104d757600080fd5b506001600160a01b038135169060200135610b75565b6102736004803603602081101561050357600080fd5b5035610b89565b61030c6004803603608081101561052057600080fd5b506001600160a01b03813581169160208101358216916040820135169060600135610ba0565b61030c6004803603604081101561055c57600080fd5b50803590602001356001600160a01b0316610cfa565b6102736004803603604081101561058857600080fd5b506001600160a01b0381358116916020013516610d53565b610273610d7e565b60368054604080516020601f60026000196101006001881615020190951694909404938401819004810282018101909252828152606093909290918301828280156106345780601f1061060957610100808354040283529160200191610634565b820191906000526020600020905b81548152906001019060200180831161061757829003601f168201915b5050505050905090565b600061065261064b610d90565b8484610d94565b5060015b92915050565b600080516020611d6f83398151915281565b60355490565b6000610681848484610e80565b6106f18461068d610d90565b6106ec85604051806060016040528060288152602001611d27602891396001600160a01b038a166000908152603460205260408120906106cb610d90565b6001600160a01b031681526020810191909152604001600020549190610fdd565b610d94565b5060019392505050565b60009081526097602052604090206002015490565b6000828152609760205260409020600201546107339061072e610d90565b6109e3565b61076e5760405162461bcd60e51b815260040180806020018281038252602f815260200180611c30602f913960400191505060405180910390fd5b6107788282611074565b5050565b60385460ff1690565b61078d610d90565b6001600160a01b0316816001600160a01b0316146107dc5760405162461bcd60e51b815260040180806020018281038252602f815260200180611e1e602f913960400191505060405180910390fd5b61077882826110dd565b60006106526107f3610d90565b846106ec8560346000610804610d90565b6001600160a01b03908116825260208083019390935260409182016000908120918c168152925290205490611146565b6000610850600080516020611d4f83398151915261072e610d90565b610889576040805162461bcd60e51b8152602060048201526005602482015264161414950d60da1b604482015290519081900360640190fd5b6108916111a0565b50600190565b60006108a1610943565b156108e6576040805162461bcd60e51b815260206004820152601060248201526f14185d5cd8589b194e881c185d5cd95960821b604482015290519081900360640190fd5b610900600080516020611d6f83398151915261072e610d90565b610939576040805162461bcd60e51b8152602060048201526005602482015264585052543160d81b604482015290519081900360640190fd5b6106528383611240565b60655460ff1690565b6001600160a01b031660009081526033602052604090205490565b6000610983600080516020611d4f83398151915261072e610d90565b6109bc576040805162461bcd60e51b8152602060048201526005602482015264585052543360d81b604482015290519081900360640190fd5b610891611332565b60008281526097602052604081206109dc90836113b5565b9392505050565b60008281526097602052604081206109dc90836113c1565b60378054604080516020601f60026000196101006001881615020190951694909404938401819004810282018101909252828152606093909290918301828280156106345780601f1061060957610100808354040283529160200191610634565b6000610a66610943565b15610aab576040805162461bcd60e51b815260206004820152601060248201526f14185d5cd8589b194e881c185d5cd95960821b604482015290519081900360640190fd5b610ac5600080516020611d6f83398151915261072e610d90565b610afe576040805162461bcd60e51b81526020600482015260056024820152642c28292a1960d91b604482015290519081900360640190fd5b61065283836113d6565b600081565b6000610652610b1a610d90565b846106ec85604051806060016040528060258152602001611df96025913960346000610b44610d90565b6001600160a01b03908116825260208083019390935260409182016000908120918d16815292529020549190610fdd565b6000610652610b82610d90565b8484610e80565b6000818152609760205260408120610656906114d2565b600054610100900460ff1680610bb95750610bb96114dd565b80610bc7575060005460ff16155b610c025760405162461bcd60e51b815260040180806020018281038252602e815260200180611cf9602e913960400191505060405180910390fd5b600054610100900460ff16158015610c2d576000805460ff1961ff0019909116610100171660011790555b610c7b6040518060400160405280601081526020016f14195c9cda5cdd195b98d9481614149560821b815250604051806040016040528060048152602001631614149560e21b8152506114ee565b610c836115a4565b610c8b611656565b610c9d6000610c98610d90565b61076e565b610cb5600080516020611d6f8339815191528661076e565b610ccd600080516020611d4f8339815191528561076e565b610cd760066116f3565b610ce18383611240565b8015610cf3576000805461ff00191690555b5050505050565b600082815260976020526040902060020154610d189061072e610d90565b6107dc5760405162461bcd60e51b8152600401808060200182810382526030815260200180611cc96030913960400191505060405180910390fd5b6001600160a01b03918216600090815260346020908152604080832093909416825291909152205490565b600080516020611d4f83398151915281565b3390565b6001600160a01b038316610dd95760405162461bcd60e51b8152600401808060200182810382526024815260200180611dd56024913960400191505060405180910390fd5b6001600160a01b038216610e1e5760405162461bcd60e51b8152600401808060200182810382526022815260200180611c816022913960400191505060405180910390fd5b6001600160a01b03808416600081815260346020908152604080832094871680845294825291829020859055815185815291517f8c5be1e5ebec7d5bd14f71427d1e84f3dd0314c0f7b2291e5b200ac8c7c3b9259281900390910190a3505050565b6001600160a01b038316610ec55760405162461bcd60e51b8152600401808060200182810382526025815260200180611db06025913960400191505060405180910390fd5b6001600160a01b038216610f0a5760405162461bcd60e51b8152600401808060200182810382526023815260200180611c0d6023913960400191505060405180910390fd5b610f1583838361159f565b610f5281604051806060016040528060268152602001611ca3602691396001600160a01b0386166000908152603360205260409020549190610fdd565b6001600160a01b038085166000908152603360205260408082209390935590841681522054610f819082611146565b6001600160a01b0380841660008181526033602090815260409182902094909455805185815290519193928716927fddf252ad1be2c89b69c2b068fc378daa952ba7f163c4a11628f55a4df523b3ef92918290030190a3505050565b6000818484111561106c5760405162461bcd60e51b81526004018080602001828103825283818151815260200191508051906020019080838360005b83811015611031578181015183820152602001611019565b50505050905090810190601f16801561105e5780820380516001836020036101000a031916815260200191505b509250505060405180910390fd5b505050900390565b600082815260976020526040902061108c9082611709565b1561077857611099610d90565b6001600160a01b0316816001600160a01b0316837f2f8788117e7eff1d82e926ec794901d17c78024a50270940304540a733656f0d60405160405180910390a45050565b60008281526097602052604090206110f5908261171e565b1561077857611102610d90565b6001600160a01b0316816001600160a01b0316837ff6391f5c32d9c69d2a47ea670b442974b53935d1edc7fd64eb21e047a839171b60405160405180910390a45050565b6000828201838110156109dc576040805162461bcd60e51b815260206004820152601b60248201527f536166654d6174683a206164646974696f6e206f766572666c6f770000000000604482015290519081900360640190fd5b6111a8610943565b6111f0576040805162461bcd60e51b815260206004820152601460248201527314185d5cd8589b194e881b9bdd081c185d5cd95960621b604482015290519081900360640190fd5b6065805460ff191690557f5db9ee0a495bf2e6ff9c91a7834c1ba4fdd244a5e8aa4e537bd38aeae4b073aa611223610d90565b604080516001600160a01b039092168252519081900360200190a1565b6001600160a01b03821661129b576040805162461bcd60e51b815260206004820152601f60248201527f45524332303a206d696e7420746f20746865207a65726f206164647265737300604482015290519081900360640190fd5b6112a76000838361159f565b6035546112b49082611146565b6035556001600160a01b0382166000908152603360205260409020546112da9082611146565b6001600160a01b03831660008181526033602090815260408083209490945583518581529351929391927fddf252ad1be2c89b69c2b068fc378daa952ba7f163c4a11628f55a4df523b3ef9281900390910190a35050565b61133a610943565b1561137f576040805162461bcd60e51b815260206004820152601060248201526f14185d5cd8589b194e881c185d5cd95960821b604482015290519081900360640190fd5b6065805460ff191660011790557f62e78cea01bee320cd4e420270b5ea74000d11b0c9f74754ebdbfc544b05a258611223610d90565b60006109dc8383611733565b60006109dc836001600160a01b038416611797565b6001600160a01b03821661141b5760405162461bcd60e51b8152600401808060200182810382526021815260200180611d8f6021913960400191505060405180910390fd5b6114278260008361159f565b61146481604051806060016040528060228152602001611c5f602291396001600160a01b0385166000908152603360205260409020549190610fdd565b6001600160a01b03831660009081526033602052604090205560355461148a90826117af565b6035556040805182815290516000916001600160a01b038516917fddf252ad1be2c89b69c2b068fc378daa952ba7f163c4a11628f55a4df523b3ef9181900360200190a35050565b60006106568261180c565b60006114e830611810565b15905090565b600054610100900460ff168061150757506115076114dd565b80611515575060005460ff16155b6115505760405162461bcd60e51b815260040180806020018281038252602e815260200180611cf9602e913960400191505060405180910390fd5b600054610100900460ff1615801561157b576000805460ff1961ff0019909116610100171660011790555b611583611816565b61158d83836118b6565b801561159f576000805461ff00191690555b505050565b600054610100900460ff16806115bd57506115bd6114dd565b806115cb575060005460ff16155b6116065760405162461bcd60e51b815260040180806020018281038252602e815260200180611cf9602e913960400191505060405180910390fd5b600054610100900460ff16158015611631576000805460ff1961ff0019909116610100171660011790555b611639611816565b611641611816565b8015611653576000805461ff00191690555b50565b600054610100900460ff168061166f575061166f6114dd565b8061167d575060005460ff16155b6116b85760405162461bcd60e51b815260040180806020018281038252602e815260200180611cf9602e913960400191505060405180910390fd5b600054610100900460ff161580156116e3576000805460ff1961ff0019909116610100171660011790555b6116eb611816565b61164161198e565b6038805460ff191660ff92909216919091179055565b60006109dc836001600160a01b038416611a39565b60006109dc836001600160a01b038416611a83565b815460009082106117755760405162461bcd60e51b8152600401808060200182810382526022815260200180611beb6022913960400191505060405180910390fd5b82600001828154811061178457fe5b9060005260206000200154905092915050565b60009081526001919091016020526040902054151590565b600082821115611806576040805162461bcd60e51b815260206004820152601e60248201527f536166654d6174683a207375627472616374696f6e206f766572666c6f770000604482015290519081900360640190fd5b50900390565b5490565b3b151590565b600054610100900460ff168061182f575061182f6114dd565b8061183d575060005460ff16155b6118785760405162461bcd60e51b815260040180806020018281038252602e815260200180611cf9602e913960400191505060405180910390fd5b600054610100900460ff16158015611641576000805460ff1961ff0019909116610100171660011790558015611653576000805461ff001916905550565b600054610100900460ff16806118cf57506118cf6114dd565b806118dd575060005460ff16155b6119185760405162461bcd60e51b815260040180806020018281038252602e815260200180611cf9602e913960400191505060405180910390fd5b600054610100900460ff16158015611943576000805460ff1961ff0019909116610100171660011790555b8251611956906036906020860190611b49565b50815161196a906037906020850190611b49565b506038805460ff19166012179055801561159f576000805461ff0019169055505050565b600054610100900460ff16806119a757506119a76114dd565b806119b5575060005460ff16155b6119f05760405162461bcd60e51b815260040180806020018281038252602e815260200180611cf9602e913960400191505060405180910390fd5b600054610100900460ff16158015611a1b576000805460ff1961ff0019909116610100171660011790555b6065805460ff191690558015611653576000805461ff001916905550565b6000611a458383611797565b611a7b57508154600181810184556000848152602080822090930184905584548482528286019093526040902091909155610656565b506000610656565b60008181526001830160205260408120548015611b3f5783546000198083019190810190600090879083908110611ab657fe5b9060005260206000200154905080876000018481548110611ad357fe5b600091825260208083209091019290925582815260018981019092526040902090840190558654879080611b0357fe5b60019003818190600052602060002001600090559055866001016000878152602001908152602001600020600090556001945050505050610656565b6000915050610656565b828054600181600116156101000203166002900490600052602060002090601f016020900481019282611b7f5760008555611bc5565b82601f10611b9857805160ff1916838001178555611bc5565b82800160010185558215611bc5579182015b82811115611bc5578251825591602001919060010190611baa565b50611bd1929150611bd5565b5090565b5b80821115611bd15760008155600101611bd656fe456e756d657261626c655365743a20696e646578206f7574206f6620626f756e647345524332303a207472616e7366657220746f20746865207a65726f2061646472657373416363657373436f6e74726f6c3a2073656e646572206d75737420626520616e2061646d696e20746f206772616e7445524332303a206275726e20616d6f756e7420657863656564732062616c616e636545524332303a20617070726f766520746f20746865207a65726f206164647265737345524332303a207472616e7366657220616d6f756e7420657863656564732062616c616e6365416363657373436f6e74726f6c3a2073656e646572206d75737420626520616e2061646d696e20746f207265766f6b65496e697469616c697a61626c653a20636f6e747261637420697320616c726561647920696e697469616c697a656445524332303a207472616e7366657220616d6f756e74206578636565647320616c6c6f77616e636565d7a28e3265b37a6474929f336521b332c1681b933f6cb9f3376673440d862a751b795d24b92e3d92d1d0d8f2885f4e9c9c269da350af36ae6b49069babf4bf45524332303a206275726e2066726f6d20746865207a65726f206164647265737345524332303a207472616e736665722066726f6d20746865207a65726f206164647265737345524332303a20617070726f76652066726f6d20746865207a65726f206164647265737345524332303a2064656372656173656420616c6c6f77616e63652062656c6f77207a65726f416363657373436f6e74726f6c3a2063616e206f6e6c792072656e6f756e636520726f6c657320666f722073656c66a2646970667358221220813649c289d129c9d02811c14e57bfb04585e756e2a7e55f6d3b296b0cd2b38e64736f6c63430007060033",
  "immutableReferences": {},
  "source": "/*\n Copyright [2019] - [2021], PERSISTENCE TECHNOLOGIES PTE. LTD. and the ERC20 contributors\n SPDX-License-Identifier: Apache-2.0\n*/\n\npragma solidity ^0.7.0;\n\nimport \"@openzeppelin/contracts-upgradeable/token/ERC20/ERC20Upgradeable.sol\";\nimport \"@openzeppelin/contracts-upgradeable/math/SafeMathUpgradeable.sol\";\nimport \"@openzeppelin/contracts-upgradeable/utils/PausableUpgradeable.sol\";\nimport \"@openzeppelin/contracts-upgradeable/access/AccessControlUpgradeable.sol\";\n\ncontract XPRT is ERC20Upgradeable, PausableUpgradeable, AccessControlUpgradeable {\n\n    using SafeMathUpgradeable for uint256;\n\n    bytes32 public constant BRIDGE_ADMIN_ROLE = keccak256(\"BRIDGE_ADMIN_ROLE\");\n    bytes32 public constant PAUSER_ROLE = keccak256(\"PAUSER_ROLE\");\n\n    /**\n   * @dev Constructor for initializing the UToken contract.\n   * @param bridgeAdminAddress - address of the bridge admin.\n   * @param pauserAddress - address of the pauser admin.\n   * @param preAllocationAddress - address for pre-allocation.\n   * @param preAllocationTokens - token amount for pre-allocation.\n   */\n    function initialize(address bridgeAdminAddress, address pauserAddress, address preAllocationAddress, uint256 preAllocationTokens) public virtual initializer {\n        __ERC20_init(\"Persistence XPRT\", \"XPRT\");\n        __AccessControl_init();\n        __Pausable_init();\n        _setupRole(DEFAULT_ADMIN_ROLE, _msgSender());\n        _setupRole(BRIDGE_ADMIN_ROLE, bridgeAdminAddress);\n        _setupRole(PAUSER_ROLE, pauserAddress);\n        _setupDecimals(6);\n        _mint(preAllocationAddress, preAllocationTokens);\n    }\n\n    /**\n    * @dev Mint new utokens for the provided 'address' and 'amount'\n    * @param to: account address, tokens: number of tokens\n    *\n    * Emits a {Transfer} event with 'to' set to address and 'amount' set to amount of tokens.\n    *\n    */\n    function mint(address to, uint256 tokens) public virtual whenNotPaused returns (bool success) {\n        require(hasRole(BRIDGE_ADMIN_ROLE, _msgSender()), \"XPRT1\");\n        _mint(to, tokens);\n        return true;\n    }\n\n    /*\n     * @dev Burn utokens for the provided 'address' and 'amount'\n     * @param from: account address, tokens: number of tokens\n     *\n     * Emits a {Transfer} event with 'to' set to address and 'amount' set to amount of tokens.\n     *\n     */\n    function burn(address from, uint256 tokens) public virtual whenNotPaused returns (bool success) {\n        require(hasRole(BRIDGE_ADMIN_ROLE, _msgSender()), \"XPRT2\");\n        _burn(from, tokens);\n        return true;\n    }\n\n    /**\n      * @dev Triggers stopped state.\n      *\n      * Requirements:\n      *\n      * - The contract must not be paused.\n      */\n    function pause() public virtual returns (bool success) {\n        require(hasRole(PAUSER_ROLE, _msgSender()), \"XPRT3\");\n        _pause();\n        return true;\n    }\n\n    /**\n     * @dev Returns to normal state.\n     *\n     * Requirements:\n     *\n     * - The contract must be paused.\n     */\n    function unpause() public virtual returns (bool success) {\n        require(hasRole(PAUSER_ROLE, _msgSender()), \"XPRT4\");\n        _unpause();\n        return true;\n    }\n}",
  "sourcePath": "C:\\Users\\Kamlesh\\Persistence\\pStake\\codebase\\erc20\\contracts\\XPRT.sol",
  "compiler": {
    "name": "solc",
    "version": "0.7.6+commit.7338295f.Emscripten.clang"
  },
  "schemaVersion": "3.4.3",
  "updatedAt": "2021-12-23T03:49:05.514Z",
  "devdoc": {
    "kind": "dev",
    "methods": {
      "allowance(address,address)": {
        "details": "See {IERC20-allowance}."
      },
      "approve(address,uint256)": {
        "details": "See {IERC20-approve}. Requirements: - `spender` cannot be the zero address."
      },
      "balanceOf(address)": {
        "details": "See {IERC20-balanceOf}."
      },
      "decimals()": {
        "details": "Returns the number of decimals used to get its user representation. For example, if `decimals` equals `2`, a balance of `505` tokens should be displayed to a user as `5,05` (`505 / 10 ** 2`). Tokens usually opt for a value of 18, imitating the relationship between Ether and Wei. This is the value {ERC20} uses, unless {_setupDecimals} is called. NOTE: This information is only used for _display_ purposes: it in no way affects any of the arithmetic of the contract, including {IERC20-balanceOf} and {IERC20-transfer}."
      },
      "decreaseAllowance(address,uint256)": {
        "details": "Atomically decreases the allowance granted to `spender` by the caller. This is an alternative to {approve} that can be used as a mitigation for problems described in {IERC20-approve}. Emits an {Approval} event indicating the updated allowance. Requirements: - `spender` cannot be the zero address. - `spender` must have allowance for the caller of at least `subtractedValue`."
      },
      "getRoleAdmin(bytes32)": {
        "details": "Returns the admin role that controls `role`. See {grantRole} and {revokeRole}. To change a role's admin, use {_setRoleAdmin}."
      },
      "getRoleMember(bytes32,uint256)": {
        "details": "Returns one of the accounts that have `role`. `index` must be a value between 0 and {getRoleMemberCount}, non-inclusive. Role bearers are not sorted in any particular way, and their ordering may change at any point. WARNING: When using {getRoleMember} and {getRoleMemberCount}, make sure you perform all queries on the same block. See the following https://forum.openzeppelin.com/t/iterating-over-elements-on-enumerableset-in-openzeppelin-contracts/2296[forum post] for more information."
      },
      "getRoleMemberCount(bytes32)": {
        "details": "Returns the number of accounts that have `role`. Can be used together with {getRoleMember} to enumerate all bearers of a role."
      },
      "grantRole(bytes32,address)": {
        "details": "Grants `role` to `account`. If `account` had not been already granted `role`, emits a {RoleGranted} event. Requirements: - the caller must have ``role``'s admin role."
      },
      "hasRole(bytes32,address)": {
        "details": "Returns `true` if `account` has been granted `role`."
      },
      "increaseAllowance(address,uint256)": {
        "details": "Atomically increases the allowance granted to `spender` by the caller. This is an alternative to {approve} that can be used as a mitigation for problems described in {IERC20-approve}. Emits an {Approval} event indicating the updated allowance. Requirements: - `spender` cannot be the zero address."
      },
      "initialize(address,address,address,uint256)": {
        "details": "Constructor for initializing the UToken contract.",
        "params": {
          "bridgeAdminAddress": "- address of the bridge admin.",
          "pauserAddress": "- address of the pauser admin.",
          "preAllocationAddress": "- address for pre-allocation.",
          "preAllocationTokens": "- token amount for pre-allocation."
        }
      },
      "mint(address,uint256)": {
        "details": "Mint new utokens for the provided 'address' and 'amount'",
        "params": {
          "to": ": account address, tokens: number of tokens Emits a {Transfer} event with 'to' set to address and 'amount' set to amount of tokens."
        }
      },
      "name()": {
        "details": "Returns the name of the token."
      },
      "pause()": {
        "details": "Triggers stopped state. Requirements: - The contract must not be paused."
      },
      "paused()": {
        "details": "Returns true if the contract is paused, and false otherwise."
      },
      "renounceRole(bytes32,address)": {
        "details": "Revokes `role` from the calling account. Roles are often managed via {grantRole} and {revokeRole}: this function's purpose is to provide a mechanism for accounts to lose their privileges if they are compromised (such as when a trusted device is misplaced). If the calling account had been granted `role`, emits a {RoleRevoked} event. Requirements: - the caller must be `account`."
      },
      "revokeRole(bytes32,address)": {
        "details": "Revokes `role` from `account`. If `account` had been granted `role`, emits a {RoleRevoked} event. Requirements: - the caller must have ``role``'s admin role."
      },
      "symbol()": {
        "details": "Returns the symbol of the token, usually a shorter version of the name."
      },
      "totalSupply()": {
        "details": "See {IERC20-totalSupply}."
      },
      "transfer(address,uint256)": {
        "details": "See {IERC20-transfer}. Requirements: - `recipient` cannot be the zero address. - the caller must have a balance of at least `amount`."
      },
      "transferFrom(address,address,uint256)": {
        "details": "See {IERC20-transferFrom}. Emits an {Approval} event indicating the updated allowance. This is not required by the EIP. See the note at the beginning of {ERC20}. Requirements: - `sender` and `recipient` cannot be the zero address. - `sender` must have a balance of at least `amount`. - the caller must have allowance for ``sender``'s tokens of at least `amount`."
      },
      "unpause()": {
        "details": "Returns to normal state. Requirements: - The contract must be paused."
      }
    },
    "version": 1
  },
  "userdoc": {
    "kind": "user",
    "methods": {},
    "version": 1
  }
}